{
  "_format": "hh-sol-artifact-1",
  "contractName": "WithdrawTimelock",
  "sourceName": "contracts/WithdrawTimelock.sol",
  "abi": [
    {
      "inputs": [
        {
          "internalType": "address",
          "name": "_treasury",
          "type": "address"
        }
      ],
      "stateMutability": "nonpayable",
      "type": "constructor"
    },
    {
      "inputs": [],
      "name": "active",
      "outputs": [
        {
          "internalType": "bool",
          "name": "",
          "type": "bool"
        }
      ],
      "stateMutability": "view",
      "type": "function"
    },
    {
      "inputs": [
        {
          "internalType": "address",
          "name": "_funder",
          "type": "address"
        },
        {
          "internalType": "address",
          "name": "_asset",
          "type": "address"
        }
      ],
      "name": "canWithdraw",
      "outputs": [
        {
          "internalType": "uint256",
          "name": "",
          "type": "uint256"
        }
      ],
      "stateMutability": "view",
      "type": "function"
    },
    {
      "inputs": [
        {
          "internalType": "address",
          "name": "_funder",
          "type": "address"
        },
        {
          "internalType": "address",
          "name": "_asset",
          "type": "address"
        },
        {
          "internalType": "uint256",
          "name": "_amount",
          "type": "uint256"
        }
      ],
      "name": "deposit",
      "outputs": [],
      "stateMutability": "nonpayable",
      "type": "function"
    },
    {
      "inputs": [
        {
          "internalType": "address",
          "name": "_funder",
          "type": "address"
        }
      ],
      "name": "getTimelocksCount",
      "outputs": [
        {
          "internalType": "uint256",
          "name": "",
          "type": "uint256"
        }
      ],
      "stateMutability": "view",
      "type": "function"
    },
    {
      "inputs": [
        {
          "internalType": "address",
          "name": "",
          "type": "address"
        },
        {
          "internalType": "uint256",
          "name": "",
          "type": "uint256"
        }
      ],
      "name": "timelocks",
      "outputs": [
        {
          "internalType": "uint256",
          "name": "",
          "type": "uint256"
        }
      ],
      "stateMutability": "view",
      "type": "function"
    },
    {
      "inputs": [],
      "name": "treasury",
      "outputs": [
        {
          "internalType": "address",
          "name": "",
          "type": "address"
        }
      ],
      "stateMutability": "view",
      "type": "function"
    },
    {
      "inputs": [
        {
          "internalType": "address",
          "name": "",
          "type": "address"
        },
        {
          "internalType": "address",
          "name": "",
          "type": "address"
        },
        {
          "internalType": "uint256",
          "name": "",
          "type": "uint256"
        }
      ],
      "name": "withdrawable",
      "outputs": [
        {
          "internalType": "uint256",
          "name": "",
          "type": "uint256"
        }
      ],
      "stateMutability": "view",
      "type": "function"
    },
    {
      "inputs": [
        {
          "internalType": "address",
          "name": "_funder",
          "type": "address"
        },
        {
          "internalType": "address",
          "name": "_asset",
          "type": "address"
        },
        {
          "internalType": "uint256",
          "name": "_lock",
          "type": "uint256"
        }
      ],
      "name": "withdrawableByLock",
      "outputs": [
        {
          "internalType": "uint256",
          "name": "",
          "type": "uint256"
        }
      ],
      "stateMutability": "view",
      "type": "function"
    }
  ],
  "bytecode": "0x608060405234801561001057600080fd5b50604051610bc3380380610bc38339818101604052810190610032919061010f565b80600260006101000a81548173ffffffffffffffffffffffffffffffffffffffff021916908373ffffffffffffffffffffffffffffffffffffffff160217905550600260009054906101000a900473ffffffffffffffffffffffffffffffffffffffff1673ffffffffffffffffffffffffffffffffffffffff1662f418f46040518163ffffffff1660e01b8152600401600060405180830381600087803b1580156100dc57600080fd5b505af11580156100f0573d6000803e3d6000fd5b5050505050610181565b6000815190506101098161016a565b92915050565b60006020828403121561012157600080fd5b600061012f848285016100fa565b91505092915050565b60006101438261014a565b9050919050565b600073ffffffffffffffffffffffffffffffffffffffff82169050919050565b61017381610138565b811461017e57600080fd5b50565b610a33806101906000396000f3fe608060405234801561001057600080fd5b50600436106100885760003560e01c80638e2e7f871161005b5780638e2e7f871461011557806392c8b2d714610145578063acdc593914610175578063ea612ae8146101a557610088565b806302fb0c5e1461008d5780633b92d708146100ab57806361d027b3146100db5780638340f549146100f9575b600080fd5b6100956101d5565b6040516100a29190610951565b60405180910390f35b6100c560048036038101906100c0919061087e565b6101e8565b6040516100d2919061096c565b60405180910390f35b6100e3610280565b6040516100f09190610936565b60405180910390f35b610113600480360381019061010e919061087e565b6102a6565b005b61012f600480360381019061012a9190610819565b610518565b60405161013c919061096c565b60405180910390f35b61015f600480360381019061015a9190610842565b610564565b60405161016c919061096c565b60405180910390f35b61018f600480360381019061018a919061087e565b610704565b60405161019c919061096c565b60405180910390f35b6101bf60048036038101906101ba91906108cd565b610736565b6040516101cc919061096c565b60405180910390f35b600260149054906101000a900460ff1681565b60008060008573ffffffffffffffffffffffffffffffffffffffff1673ffffffffffffffffffffffffffffffffffffffff16815260200190815260200160002060008473ffffffffffffffffffffffffffffffffffffffff1673ffffffffffffffffffffffffffffffffffffffff16815260200190815260200160002060008381526020019081526020016000205490509392505050565b600260009054906101000a900473ffffffffffffffffffffffffffffffffffffffff1681565b600062c5c100420190506000600160008673ffffffffffffffffffffffffffffffffffffffff1673ffffffffffffffffffffffffffffffffffffffff16815260200190815260200160002080549050905060008082141561030a5760009050610365565b600160008773ffffffffffffffffffffffffffffffffffffffff1673ffffffffffffffffffffffffffffffffffffffff168152602001908152602001600020600183038154811061035757fe5b906000526020600020015490505b62015180830381111561037a578092506103e1565b600160008773ffffffffffffffffffffffffffffffffffffffff1673ffffffffffffffffffffffffffffffffffffffff1681526020019081526020016000208390806001815401808255809150506001900390600052602060002001600090919091909150555b610480846000808973ffffffffffffffffffffffffffffffffffffffff1673ffffffffffffffffffffffffffffffffffffffff16815260200190815260200160002060008873ffffffffffffffffffffffffffffffffffffffff1673ffffffffffffffffffffffffffffffffffffffff16815260200190815260200160002060008681526020019081526020016000205461076790919063ffffffff16565b6000808873ffffffffffffffffffffffffffffffffffffffff1673ffffffffffffffffffffffffffffffffffffffff16815260200190815260200160002060008773ffffffffffffffffffffffffffffffffffffffff1673ffffffffffffffffffffffffffffffffffffffff168152602001908152602001600020600085815260200190815260200160002081905550505050505050565b6000600160008373ffffffffffffffffffffffffffffffffffffffff1673ffffffffffffffffffffffffffffffffffffffff168152602001908152602001600020805490509050919050565b60006060600160008573ffffffffffffffffffffffffffffffffffffffff1673ffffffffffffffffffffffffffffffffffffffff1681526020019081526020016000208054806020026020016040519081016040528092919081815260200182805480156105f157602002820191906000526020600020905b8154815260200190600101908083116105dd575b5050505050905060008151141561060c5760009150506106fe565b60008042905060005b83518110801561063857508184828151811061062d57fe5b602002602001015111155b156106f6576106ef6000808973ffffffffffffffffffffffffffffffffffffffff1673ffffffffffffffffffffffffffffffffffffffff16815260200190815260200160002060008873ffffffffffffffffffffffffffffffffffffffff1673ffffffffffffffffffffffffffffffffffffffff16815260200190815260200160002060008684815181106106c957fe5b60200260200101518152602001908152602001600020548461076790919063ffffffff16565b9250610615565b829450505050505b92915050565b600060205282600052604060002060205281600052604060002060205280600052604060002060009250925050505481565b6001602052816000526040600020818154811061075257600080fd5b90600052602060002001600091509150505481565b6000808284019050838110156107e5576040517f08c379a000000000000000000000000000000000000000000000000000000000815260040180806020018281038252601b8152602001807f536166654d6174683a206164646974696f6e206f766572666c6f77000000000081525060200191505060405180910390fd5b8091505092915050565b6000813590506107fe816109cf565b92915050565b600081359050610813816109e6565b92915050565b60006020828403121561082b57600080fd5b6000610839848285016107ef565b91505092915050565b6000806040838503121561085557600080fd5b6000610863858286016107ef565b9250506020610874858286016107ef565b9150509250929050565b60008060006060848603121561089357600080fd5b60006108a1868287016107ef565b93505060206108b2868287016107ef565b92505060406108c386828701610804565b9150509250925092565b600080604083850312156108e057600080fd5b60006108ee858286016107ef565b92505060206108ff85828601610804565b9150509250929050565b61091281610987565b82525050565b61092181610999565b82525050565b610930816109c5565b82525050565b600060208201905061094b6000830184610909565b92915050565b60006020820190506109666000830184610918565b92915050565b60006020820190506109816000830184610927565b92915050565b6000610992826109a5565b9050919050565b60008115159050919050565b600073ffffffffffffffffffffffffffffffffffffffff82169050919050565b6000819050919050565b6109d881610987565b81146109e357600080fd5b50565b6109ef816109c5565b81146109fa57600080fd5b5056fea2646970667358221220961f47c4b427e16cf3cf36a85ca5e96a1a716782f7ed6d2ac8d6568b4f74966c64736f6c63430007040033",
  "linkReferences": {},
  "deployedLinkReferences": {}
}