{
  "_format": "hh-sol-artifact-1",
  "contractName": "WithdrawTimelock",
  "sourceName": "contracts/WithdrawTimelock.sol",
  "abi": [
    {
      "inputs": [
        {
          "internalType": "address",
          "name": "_treasury",
          "type": "address"
        }
      ],
      "stateMutability": "nonpayable",
      "type": "constructor"
    },
    {
      "inputs": [],
      "name": "active",
      "outputs": [
        {
          "internalType": "bool",
          "name": "",
          "type": "bool"
        }
      ],
      "stateMutability": "view",
      "type": "function"
    },
    {
      "inputs": [
        {
          "internalType": "address",
          "name": "_funder",
          "type": "address"
        },
        {
          "internalType": "address",
          "name": "_asset",
          "type": "address"
        }
      ],
      "name": "canWithdraw",
      "outputs": [
        {
          "internalType": "uint256",
          "name": "",
          "type": "uint256"
        }
      ],
      "stateMutability": "view",
      "type": "function"
    },
    {
      "inputs": [
        {
          "internalType": "address",
          "name": "_funder",
          "type": "address"
        },
        {
          "internalType": "address",
          "name": "_asset",
          "type": "address"
        },
        {
          "internalType": "uint256",
          "name": "_amount",
          "type": "uint256"
        }
      ],
      "name": "deposit",
      "outputs": [],
      "stateMutability": "nonpayable",
      "type": "function"
    },
    {
      "inputs": [
        {
          "internalType": "address",
          "name": "",
          "type": "address"
        },
        {
          "internalType": "uint256",
          "name": "",
          "type": "uint256"
        }
      ],
      "name": "timelocks",
      "outputs": [
        {
          "internalType": "uint256",
          "name": "",
          "type": "uint256"
        }
      ],
      "stateMutability": "view",
      "type": "function"
    },
    {
      "inputs": [],
      "name": "treasury",
      "outputs": [
        {
          "internalType": "address",
          "name": "",
          "type": "address"
        }
      ],
      "stateMutability": "view",
      "type": "function"
    },
    {
      "inputs": [
        {
          "internalType": "address",
          "name": "",
          "type": "address"
        },
        {
          "internalType": "address",
          "name": "",
          "type": "address"
        },
        {
          "internalType": "uint256",
          "name": "",
          "type": "uint256"
        }
      ],
      "name": "withdrawable",
      "outputs": [
        {
          "internalType": "uint256",
          "name": "",
          "type": "uint256"
        }
      ],
      "stateMutability": "view",
      "type": "function"
    }
  ],
  "bytecode": "0x608060405234801561001057600080fd5b50604051610a30380380610a308339818101604052810190610032919061010f565b80600260006101000a81548173ffffffffffffffffffffffffffffffffffffffff021916908373ffffffffffffffffffffffffffffffffffffffff160217905550600260009054906101000a900473ffffffffffffffffffffffffffffffffffffffff1673ffffffffffffffffffffffffffffffffffffffff1662f418f46040518163ffffffff1660e01b8152600401600060405180830381600087803b1580156100dc57600080fd5b505af11580156100f0573d6000803e3d6000fd5b5050505050610181565b6000815190506101098161016a565b92915050565b60006020828403121561012157600080fd5b600061012f848285016100fa565b91505092915050565b60006101438261014a565b9050919050565b600073ffffffffffffffffffffffffffffffffffffffff82169050919050565b61017381610138565b811461017e57600080fd5b50565b6108a0806101906000396000f3fe608060405234801561001057600080fd5b50600436106100625760003560e01c806302fb0c5e1461006757806361d027b3146100855780638340f549146100a357806392c8b2d7146100bf578063acdc5939146100ef578063ea612ae81461011f575b600080fd5b61006f61014f565b60405161007c91906107be565b60405180910390f35b61008d610162565b60405161009a91906107a3565b60405180910390f35b6100bd60048036038101906100b891906106eb565b610188565b005b6100d960048036038101906100d491906106af565b6103fa565b6040516100e691906107d9565b60405180910390f35b610109600480360381019061010491906106eb565b61059a565b60405161011691906107d9565b60405180910390f35b6101396004803603810190610134919061073a565b6105cc565b60405161014691906107d9565b60405180910390f35b600260149054906101000a900460ff1681565b600260009054906101000a900473ffffffffffffffffffffffffffffffffffffffff1681565b600062c5c100420190506000600160008673ffffffffffffffffffffffffffffffffffffffff1673ffffffffffffffffffffffffffffffffffffffff1681526020019081526020016000208054905090506000808214156101ec5760009050610247565b600160008773ffffffffffffffffffffffffffffffffffffffff1673ffffffffffffffffffffffffffffffffffffffff168152602001908152602001600020600183038154811061023957fe5b906000526020600020015490505b62015180830381111561025c578092506102c3565b600160008773ffffffffffffffffffffffffffffffffffffffff1673ffffffffffffffffffffffffffffffffffffffff1681526020019081526020016000208390806001815401808255809150506001900390600052602060002001600090919091909150555b610362846000808973ffffffffffffffffffffffffffffffffffffffff1673ffffffffffffffffffffffffffffffffffffffff16815260200190815260200160002060008873ffffffffffffffffffffffffffffffffffffffff1673ffffffffffffffffffffffffffffffffffffffff1681526020019081526020016000206000848152602001908152602001600020546105fd90919063ffffffff16565b6000808873ffffffffffffffffffffffffffffffffffffffff1673ffffffffffffffffffffffffffffffffffffffff16815260200190815260200160002060008773ffffffffffffffffffffffffffffffffffffffff1673ffffffffffffffffffffffffffffffffffffffff168152602001908152602001600020600083815260200190815260200160002081905550505050505050565b60006060600160008573ffffffffffffffffffffffffffffffffffffffff1673ffffffffffffffffffffffffffffffffffffffff16815260200190815260200160002080548060200260200160405190810160405280929190818152602001828054801561048757602002820191906000526020600020905b815481526020019060010190808311610473575b505050505090506000815114156104a2576000915050610594565b60008042905060005b8351811080156104ce5750818482815181106104c357fe5b602002602001015111155b1561058c576105856000808973ffffffffffffffffffffffffffffffffffffffff1673ffffffffffffffffffffffffffffffffffffffff16815260200190815260200160002060008873ffffffffffffffffffffffffffffffffffffffff1673ffffffffffffffffffffffffffffffffffffffff168152602001908152602001600020600086848151811061055f57fe5b6020026020010151815260200190815260200160002054846105fd90919063ffffffff16565b92506104ab565b829450505050505b92915050565b600060205282600052604060002060205281600052604060002060205280600052604060002060009250925050505481565b600160205281600052604060002081815481106105e857600080fd5b90600052602060002001600091509150505481565b60008082840190508381101561067b576040517f08c379a000000000000000000000000000000000000000000000000000000000815260040180806020018281038252601b8152602001807f536166654d6174683a206164646974696f6e206f766572666c6f77000000000081525060200191505060405180910390fd5b8091505092915050565b6000813590506106948161083c565b92915050565b6000813590506106a981610853565b92915050565b600080604083850312156106c257600080fd5b60006106d085828601610685565b92505060206106e185828601610685565b9150509250929050565b60008060006060848603121561070057600080fd5b600061070e86828701610685565b935050602061071f86828701610685565b92505060406107308682870161069a565b9150509250925092565b6000806040838503121561074d57600080fd5b600061075b85828601610685565b925050602061076c8582860161069a565b9150509250929050565b61077f816107f4565b82525050565b61078e81610806565b82525050565b61079d81610832565b82525050565b60006020820190506107b86000830184610776565b92915050565b60006020820190506107d36000830184610785565b92915050565b60006020820190506107ee6000830184610794565b92915050565b60006107ff82610812565b9050919050565b60008115159050919050565b600073ffffffffffffffffffffffffffffffffffffffff82169050919050565b6000819050919050565b610845816107f4565b811461085057600080fd5b50565b61085c81610832565b811461086757600080fd5b5056fea2646970667358221220edaed86cea26c8e7271a48101f0a3309b93b93812e795b3c19ecab16a918286264736f6c63430007040033",
  "linkReferences": {},
  "deployedLinkReferences": {}
}