{
  "_format": "hh-sol-artifact-1",
  "contractName": "WithdrawTimelock",
  "sourceName": "contracts/WithdrawTimelock.sol",
  "abi": [
    {
      "inputs": [
        {
          "internalType": "address",
          "name": "_treasury",
          "type": "address"
        }
      ],
      "stateMutability": "nonpayable",
      "type": "constructor"
    },
    {
      "inputs": [],
      "name": "IDENTITY",
      "outputs": [
        {
          "internalType": "bytes4",
          "name": "",
          "type": "bytes4"
        }
      ],
      "stateMutability": "view",
      "type": "function"
    },
    {
      "inputs": [],
      "name": "active",
      "outputs": [
        {
          "internalType": "bool",
          "name": "",
          "type": "bool"
        }
      ],
      "stateMutability": "view",
      "type": "function"
    },
    {
      "inputs": [
        {
          "internalType": "address",
          "name": "_funder",
          "type": "address"
        },
        {
          "internalType": "address",
          "name": "_asset",
          "type": "address"
        }
      ],
      "name": "canWithdraw",
      "outputs": [
        {
          "internalType": "uint256",
          "name": "",
          "type": "uint256"
        }
      ],
      "stateMutability": "view",
      "type": "function"
    },
    {
      "inputs": [
        {
          "internalType": "address",
          "name": "_funder",
          "type": "address"
        },
        {
          "internalType": "address",
          "name": "_asset",
          "type": "address"
        },
        {
          "internalType": "uint256",
          "name": "_amount",
          "type": "uint256"
        }
      ],
      "name": "deposit",
      "outputs": [],
      "stateMutability": "nonpayable",
      "type": "function"
    },
    {
      "inputs": [
        {
          "internalType": "address",
          "name": "_funder",
          "type": "address"
        }
      ],
      "name": "getTimelocksCount",
      "outputs": [
        {
          "internalType": "uint256",
          "name": "",
          "type": "uint256"
        }
      ],
      "stateMutability": "view",
      "type": "function"
    },
    {
      "inputs": [
        {
          "internalType": "address",
          "name": "",
          "type": "address"
        },
        {
          "internalType": "uint256",
          "name": "",
          "type": "uint256"
        }
      ],
      "name": "timelocks",
      "outputs": [
        {
          "internalType": "uint256",
          "name": "",
          "type": "uint256"
        }
      ],
      "stateMutability": "view",
      "type": "function"
    },
    {
      "inputs": [],
      "name": "treasury",
      "outputs": [
        {
          "internalType": "address",
          "name": "",
          "type": "address"
        }
      ],
      "stateMutability": "view",
      "type": "function"
    },
    {
      "inputs": [
        {
          "internalType": "address",
          "name": "",
          "type": "address"
        },
        {
          "internalType": "address",
          "name": "",
          "type": "address"
        },
        {
          "internalType": "uint256",
          "name": "",
          "type": "uint256"
        }
      ],
      "name": "withdrawable",
      "outputs": [
        {
          "internalType": "uint256",
          "name": "",
          "type": "uint256"
        }
      ],
      "stateMutability": "view",
      "type": "function"
    },
    {
      "inputs": [
        {
          "internalType": "address",
          "name": "_funder",
          "type": "address"
        },
        {
          "internalType": "address",
          "name": "_asset",
          "type": "address"
        },
        {
          "internalType": "uint256",
          "name": "_lock",
          "type": "uint256"
        }
      ],
      "name": "withdrawableByLock",
      "outputs": [
        {
          "internalType": "uint256",
          "name": "",
          "type": "uint256"
        }
      ],
      "stateMutability": "view",
      "type": "function"
    }
  ],
  "bytecode": "0x608060405234801561001057600080fd5b50604051610c4d380380610c4d8339818101604052810190610032919061010f565b80600260006101000a81548173ffffffffffffffffffffffffffffffffffffffff021916908373ffffffffffffffffffffffffffffffffffffffff160217905550600260009054906101000a900473ffffffffffffffffffffffffffffffffffffffff1673ffffffffffffffffffffffffffffffffffffffff1662f418f46040518163ffffffff1660e01b8152600401600060405180830381600087803b1580156100dc57600080fd5b505af11580156100f0573d6000803e3d6000fd5b5050505050610181565b6000815190506101098161016a565b92915050565b60006020828403121561012157600080fd5b600061012f848285016100fa565b91505092915050565b60006101438261014a565b9050919050565b600073ffffffffffffffffffffffffffffffffffffffff82169050919050565b61017381610138565b811461017e57600080fd5b50565b610abd806101906000396000f3fe608060405234801561001057600080fd5b50600436106100935760003560e01c80638340f549116100665780638340f549146101225780638e2e7f871461013e57806392c8b2d71461016e578063acdc59391461019e578063ea612ae8146101ce57610093565b806302fb0c5e14610098578063150c4aea146100b65780633b92d708146100d457806361d027b314610104575b600080fd5b6100a06101fe565b6040516100ad9190610994565b60405180910390f35b6100be610211565b6040516100cb91906109af565b60405180910390f35b6100ee60048036038101906100e991906108b2565b61021c565b6040516100fb91906109ca565b60405180910390f35b61010c6102b4565b6040516101199190610979565b60405180910390f35b61013c600480360381019061013791906108b2565b6102da565b005b6101586004803603810190610153919061084d565b61054c565b60405161016591906109ca565b60405180910390f35b61018860048036038101906101839190610876565b610598565b60405161019591906109ca565b60405180910390f35b6101b860048036038101906101b391906108b2565b610738565b6040516101c591906109ca565b60405180910390f35b6101e860048036038101906101e39190610901565b61076a565b6040516101f591906109ca565b60405180910390f35b600260149054906101000a900460ff1681565b638bdc034260e01b81565b60008060008573ffffffffffffffffffffffffffffffffffffffff1673ffffffffffffffffffffffffffffffffffffffff16815260200190815260200160002060008473ffffffffffffffffffffffffffffffffffffffff1673ffffffffffffffffffffffffffffffffffffffff16815260200190815260200160002060008381526020019081526020016000205490509392505050565b600260009054906101000a900473ffffffffffffffffffffffffffffffffffffffff1681565b600062c5c100420190506000600160008673ffffffffffffffffffffffffffffffffffffffff1673ffffffffffffffffffffffffffffffffffffffff16815260200190815260200160002080549050905060008082141561033e5760009050610399565b600160008773ffffffffffffffffffffffffffffffffffffffff1673ffffffffffffffffffffffffffffffffffffffff168152602001908152602001600020600183038154811061038b57fe5b906000526020600020015490505b6201518083038111156103ae57809250610415565b600160008773ffffffffffffffffffffffffffffffffffffffff1673ffffffffffffffffffffffffffffffffffffffff1681526020019081526020016000208390806001815401808255809150506001900390600052602060002001600090919091909150555b6104b4846000808973ffffffffffffffffffffffffffffffffffffffff1673ffffffffffffffffffffffffffffffffffffffff16815260200190815260200160002060008873ffffffffffffffffffffffffffffffffffffffff1673ffffffffffffffffffffffffffffffffffffffff16815260200190815260200160002060008681526020019081526020016000205461079b90919063ffffffff16565b6000808873ffffffffffffffffffffffffffffffffffffffff1673ffffffffffffffffffffffffffffffffffffffff16815260200190815260200160002060008773ffffffffffffffffffffffffffffffffffffffff1673ffffffffffffffffffffffffffffffffffffffff168152602001908152602001600020600085815260200190815260200160002081905550505050505050565b6000600160008373ffffffffffffffffffffffffffffffffffffffff1673ffffffffffffffffffffffffffffffffffffffff168152602001908152602001600020805490509050919050565b60006060600160008573ffffffffffffffffffffffffffffffffffffffff1673ffffffffffffffffffffffffffffffffffffffff16815260200190815260200160002080548060200260200160405190810160405280929190818152602001828054801561062557602002820191906000526020600020905b815481526020019060010190808311610611575b50505050509050600081511415610640576000915050610732565b60008042905060005b83518110801561066c57508184828151811061066157fe5b602002602001015111155b1561072a576107236000808973ffffffffffffffffffffffffffffffffffffffff1673ffffffffffffffffffffffffffffffffffffffff16815260200190815260200160002060008873ffffffffffffffffffffffffffffffffffffffff1673ffffffffffffffffffffffffffffffffffffffff16815260200190815260200160002060008684815181106106fd57fe5b60200260200101518152602001908152602001600020548461079b90919063ffffffff16565b9250610649565b829450505050505b92915050565b600060205282600052604060002060205281600052604060002060205280600052604060002060009250925050505481565b6001602052816000526040600020818154811061078657600080fd5b90600052602060002001600091509150505481565b600080828401905083811015610819576040517f08c379a000000000000000000000000000000000000000000000000000000000815260040180806020018281038252601b8152602001807f536166654d6174683a206164646974696f6e206f766572666c6f77000000000081525060200191505060405180910390fd5b8091505092915050565b60008135905061083281610a59565b92915050565b60008135905061084781610a70565b92915050565b60006020828403121561085f57600080fd5b600061086d84828501610823565b91505092915050565b6000806040838503121561088957600080fd5b600061089785828601610823565b92505060206108a885828601610823565b9150509250929050565b6000806000606084860312156108c757600080fd5b60006108d586828701610823565b93505060206108e686828701610823565b92505060406108f786828701610838565b9150509250925092565b6000806040838503121561091457600080fd5b600061092285828601610823565b925050602061093385828601610838565b9150509250929050565b610946816109e5565b82525050565b610955816109f7565b82525050565b61096481610a03565b82525050565b61097381610a4f565b82525050565b600060208201905061098e600083018461093d565b92915050565b60006020820190506109a9600083018461094c565b92915050565b60006020820190506109c4600083018461095b565b92915050565b60006020820190506109df600083018461096a565b92915050565b60006109f082610a2f565b9050919050565b60008115159050919050565b60007fffffffff0000000000000000000000000000000000000000000000000000000082169050919050565b600073ffffffffffffffffffffffffffffffffffffffff82169050919050565b6000819050919050565b610a62816109e5565b8114610a6d57600080fd5b50565b610a7981610a4f565b8114610a8457600080fd5b5056fea2646970667358221220b4ec64125909b5a3d636198e0225c94c2a3f533e2e032db2387008ba124c996664736f6c63430007040033",
  "linkReferences": {},
  "deployedLinkReferences": {}
}