{
  "_format": "hh-sol-artifact-1",
  "contractName": "CommunitiesRegistry",
  "sourceName": "contracts/CommunitiesRegistry.sol",
  "abi": [
    {
      "inputs": [
        {
          "internalType": "address",
          "name": "_addressesProvider",
          "type": "address"
        },
        {
          "internalType": "address",
          "name": "_forwarder",
          "type": "address"
        }
      ],
      "stateMutability": "nonpayable",
      "type": "constructor"
    },
    {
      "anonymous": false,
      "inputs": [
        {
          "indexed": false,
          "internalType": "address",
          "name": "_newCommunityAddress",
          "type": "address"
        },
        {
          "indexed": false,
          "internalType": "enum DataTypes.CommunityTemplate",
          "name": "_template",
          "type": "uint8"
        }
      ],
      "name": "CommunityCreated",
      "type": "event"
    },
    {
      "anonymous": false,
      "inputs": [
        {
          "indexed": false,
          "internalType": "enum DataTypes.CommunityTemplate",
          "name": "_template",
          "type": "uint8"
        },
        {
          "indexed": false,
          "internalType": "address",
          "name": "_dao",
          "type": "address"
        }
      ],
      "name": "DaoSet",
      "type": "event"
    },
    {
      "inputs": [],
      "name": "IDENTITY",
      "outputs": [
        {
          "internalType": "bytes4",
          "name": "",
          "type": "bytes4"
        }
      ],
      "stateMutability": "view",
      "type": "function"
    },
    {
      "inputs": [],
      "name": "addressesProvider",
      "outputs": [
        {
          "internalType": "address",
          "name": "",
          "type": "address"
        }
      ],
      "stateMutability": "view",
      "type": "function"
    },
    {
      "inputs": [
        {
          "internalType": "enum DataTypes.CommunityTemplate",
          "name": "",
          "type": "uint8"
        },
        {
          "internalType": "uint256",
          "name": "",
          "type": "uint256"
        }
      ],
      "name": "communities",
      "outputs": [
        {
          "internalType": "address",
          "name": "",
          "type": "address"
        }
      ],
      "stateMutability": "view",
      "type": "function"
    },
    {
      "inputs": [
        {
          "internalType": "enum DataTypes.CommunityTemplate",
          "name": "_template",
          "type": "uint8"
        }
      ],
      "name": "createCommunity",
      "outputs": [
        {
          "internalType": "address",
          "name": "",
          "type": "address"
        }
      ],
      "stateMutability": "nonpayable",
      "type": "function"
    },
    {
      "inputs": [
        {
          "internalType": "address",
          "name": "_user",
          "type": "address"
        },
        {
          "internalType": "enum DataTypes.CommunityTemplate",
          "name": "_template",
          "type": "uint8"
        }
      ],
      "name": "currentCommunityOfUser",
      "outputs": [
        {
          "internalType": "address",
          "name": "communityAddress",
          "type": "address"
        }
      ],
      "stateMutability": "view",
      "type": "function"
    },
    {
      "inputs": [
        {
          "internalType": "enum DataTypes.CommunityTemplate",
          "name": "",
          "type": "uint8"
        }
      ],
      "name": "daos",
      "outputs": [
        {
          "internalType": "address",
          "name": "",
          "type": "address"
        }
      ],
      "stateMutability": "view",
      "type": "function"
    },
    {
      "inputs": [],
      "name": "forwarder",
      "outputs": [
        {
          "internalType": "address",
          "name": "",
          "type": "address"
        }
      ],
      "stateMutability": "view",
      "type": "function"
    },
    {
      "inputs": [
        {
          "internalType": "enum DataTypes.CommunityTemplate",
          "name": "_template",
          "type": "uint8"
        },
        {
          "internalType": "address",
          "name": "_dao",
          "type": "address"
        },
        {
          "internalType": "bool",
          "name": "_override",
          "type": "bool"
        }
      ],
      "name": "setDao",
      "outputs": [],
      "stateMutability": "nonpayable",
      "type": "function"
    }
  ],
  "bytecode": "0x608060405234801561001057600080fd5b506040516146ab3803806146ab8339818101604052604081101561003357600080fd5b81019080805190602001909291908051906020019092919050505081600260006101000a81548173ffffffffffffffffffffffffffffffffffffffff021916908373ffffffffffffffffffffffffffffffffffffffff16021790555080600360006101000a81548173ffffffffffffffffffffffffffffffffffffffff021916908373ffffffffffffffffffffffffffffffffffffffff16021790555050506145ca806100e16000396000f3fe60806040523480156200001157600080fd5b5060043610620000945760003560e01c8063d12499b11162000063578063d12499b114620001d4578063e1b871e31462000234578063f645d4f91462000292578063fc1ae9c214620002c85762000094565b80631013afe71462000099578063150c4aea14620000f75780638b0d02ca1462000136578063c72c4d10146200019e575b600080fd5b620000cb60048036036020811015620000b157600080fd5b81019080803560ff16906020019092919050505062000346565b604051808273ffffffffffffffffffffffffffffffffffffffff16815260200191505060405180910390f35b6200010162000379565b60405180827bffffffffffffffffffffffffffffffffffffffffffffffffffffffff1916815260200191505060405180910390f35b62000172600480360360408110156200014e57600080fd5b81019080803560ff1690602001909291908035906020019092919050505062000384565b604051808273ffffffffffffffffffffffffffffffffffffffff16815260200191505060405180910390f35b620001a8620003d3565b604051808273ffffffffffffffffffffffffffffffffffffffff16815260200191505060405180910390f35b6200023260048036036060811015620001ec57600080fd5b81019080803560ff169060200190929190803573ffffffffffffffffffffffffffffffffffffffff169060200190929190803515159060200190929190505050620003f9565b005b62000266600480360360208110156200024c57600080fd5b81019080803560ff16906020019092919050505062000668565b604051808273ffffffffffffffffffffffffffffffffffffffff16815260200191505060405180910390f35b6200029c62000b2c565b604051808273ffffffffffffffffffffffffffffffffffffffff16815260200191505060405180910390f35b6200031a60048036036040811015620002e057600080fd5b81019080803573ffffffffffffffffffffffffffffffffffffffff169060200190929190803560ff16906020019092919050505062000b52565b604051808273ffffffffffffffffffffffffffffffffffffffff16815260200191505060405180910390f35b60006020528060005260406000206000915054906101000a900473ffffffffffffffffffffffffffffffffffffffff1681565b639463504660e01b81565b60016020528160005260406000208181548110620003a157600080fd5b906000526020600020016000915091509054906101000a900473ffffffffffffffffffffffffffffffffffffffff1681565b600260009054906101000a900473ffffffffffffffffffffffffffffffffffffffff1681565b8015620004ab576000600160008560028111156200041357fe5b60028111156200041f57fe5b81526020019081526020016000208054905014620004a5576040517f08c379a000000000000000000000000000000000000000000000000000000000815260040180806020018281038252600f8152602001807f68617320636f6d6d756e6974696573000000000000000000000000000000000081525060200191505060405180910390fd5b62000599565b600073ffffffffffffffffffffffffffffffffffffffff16600080856002811115620004d357fe5b6002811115620004df57fe5b815260200190815260200160002060009054906101000a900473ffffffffffffffffffffffffffffffffffffffff1673ffffffffffffffffffffffffffffffffffffffff161462000598576040517f08c379a000000000000000000000000000000000000000000000000000000000815260040180806020018281038252600b8152602001807f616c72656164792073657400000000000000000000000000000000000000000081525060200191505060405180910390fd5b5b81600080856002811115620005aa57fe5b6002811115620005b657fe5b815260200190815260200160002060006101000a81548173ffffffffffffffffffffffffffffffffffffffff021916908373ffffffffffffffffffffffffffffffffffffffff1602179055507f2361cbc68f3d45ab9b0148f6c09dcf765c33021991fef1b3384792dd3881c0918383604051808360028111156200063657fe5b81526020018273ffffffffffffffffffffffffffffffffffffffff1681526020019250505060405180910390a1505050565b6000806000808460028111156200067b57fe5b60028111156200068757fe5b815260200190815260200160002060009054906101000a900473ffffffffffffffffffffffffffffffffffffffff169050600073ffffffffffffffffffffffffffffffffffffffff168173ffffffffffffffffffffffffffffffffffffffff1614156200075c576040517f08c379a000000000000000000000000000000000000000000000000000000000815260040180806020018281038252600b8152602001807f64616f206e6f742073657400000000000000000000000000000000000000000081525060200191505060405180910390fd5b600083600260009054906101000a900473ffffffffffffffffffffffffffffffffffffffff16600360009054906101000a900473ffffffffffffffffffffffffffffffffffffffff16604051620007b39062000d2d565b80846002811115620007c157fe5b81526020018373ffffffffffffffffffffffffffffffffffffffff1681526020018273ffffffffffffffffffffffffffffffffffffffff1681526020019350505050604051809103906000f08015801562000820573d6000803e3d6000fd5b5090506000819050600160008660028111156200083957fe5b60028111156200084557fe5b8152602001908152602001600020819080600181540180825580915050600190039060005260206000200160009091909190916101000a81548173ffffffffffffffffffffffffffffffffffffffff021916908373ffffffffffffffffffffffffffffffffffffffff1602179055508173ffffffffffffffffffffffffffffffffffffffff1663a46eddcf846040518263ffffffff1660e01b8152600401808273ffffffffffffffffffffffffffffffffffffffff168152602001915050600060405180830381600087803b1580156200091e57600080fd5b505af115801562000933573d6000803e3d6000fd5b505050508273ffffffffffffffffffffffffffffffffffffffff1663a263605d8373ffffffffffffffffffffffffffffffffffffffff166358c12dbe6040518163ffffffff1660e01b815260040160206040518083038186803b1580156200099a57600080fd5b505afa158015620009af573d6000803e3d6000fd5b505050506040513d6020811015620009c657600080fd5b81019080805190602001909291905050506040518263ffffffff1660e01b8152600401808273ffffffffffffffffffffffffffffffffffffffff168152602001915050600060405180830381600087803b15801562000a2457600080fd5b505af115801562000a39573d6000803e3d6000fd5b505050508173ffffffffffffffffffffffffffffffffffffffff1663f2fde38b336040518263ffffffff1660e01b8152600401808273ffffffffffffffffffffffffffffffffffffffff168152602001915050600060405180830381600087803b15801562000aa757600080fd5b505af115801562000abc573d6000803e3d6000fd5b505050507fbef8a66e87a3a655b6b607ebb0c475a34d786813679f44b38955644e36392dcf8186604051808373ffffffffffffffffffffffffffffffffffffffff16815260200182600281111562000b1057fe5b81526020019250505060405180910390a1809350505050919050565b600360009054906101000a900473ffffffffffffffffffffffffffffffffffffffff1681565b60008060009050600060606001600086600281111562000b6e57fe5b600281111562000b7a57fe5b815260200190815260200160002080548060200260200160405190810160405280929190818152602001828054801562000c0a57602002820191906000526020600020905b8160009054906101000a900473ffffffffffffffffffffffffffffffffffffffff1673ffffffffffffffffffffffffffffffffffffffff168152602001906001019080831162000bbf575b505050505090505b8115801562000c215750805183105b1562000cf657600081848151811062000c3657fe5b602002602001015190508073ffffffffffffffffffffffffffffffffffffffff1663cecfd170886040518263ffffffff1660e01b8152600401808273ffffffffffffffffffffffffffffffffffffffff16815260200191505060206040518083038186803b15801562000ca857600080fd5b505afa15801562000cbd573d6000803e3d6000fd5b505050506040513d602081101562000cd457600080fd5b8101908080519060200190929190505050925083806001019450505062000c12565b8162000d09576000935050505062000d27565b80600184038151811062000d1957fe5b602002602001015193505050505b92915050565b6138598062000d3c8339019056fe60806040526040518060400160405280600581526020017f322e302e30000000000000000000000000000000000000000000000000000000815250600290805190602001906200005192919062000bf7565b503480156200005f57600080fd5b506040516200385938038062003859833981810160405281019062000085919062000d4a565b6000620000976200068e60201b60201c565b905080600160006101000a81548173ffffffffffffffffffffffffffffffffffffffff021916908373ffffffffffffffffffffffffffffffffffffffff1602179055508073ffffffffffffffffffffffffffffffffffffffff16600073ffffffffffffffffffffffffffffffffffffffff167f8be0079c531659141344cd1fd0a4f28419497f9722a3daafe3b4186f6b6457e060405160405180910390a3506000600660006101000a81548160ff02191690831515021790555082600660016101000a81548160ff021916908360028111156200017057fe5b021790555081600460006101000a81548173ffffffffffffffffffffffffffffffffffffffff021916908373ffffffffffffffffffffffffffffffffffffffff160217905550806000806101000a81548173ffffffffffffffffffffffffffffffffffffffff021916908373ffffffffffffffffffffffffffffffffffffffff160217905550600460009054906101000a900473ffffffffffffffffffffffffffffffffffffffff1673ffffffffffffffffffffffffffffffffffffffff1663654b60606040518163ffffffff1660e01b815260040160206040518083038186803b1580156200025f57600080fd5b505afa15801562000274573d6000803e3d6000fd5b505050506040513d601f19601f820116820180604052508101906200029a919062000cf2565b73ffffffffffffffffffffffffffffffffffffffff16637e3b6d68620002da670de0b6b3a764000062017700620006aa60201b620013341790919060201c565b6040518263ffffffff1660e01b8152600401620002f891906200107a565b602060405180830381600087803b1580156200031357600080fd5b505af115801562000328573d6000803e3d6000fd5b505050506040513d601f19601f820116820180604052508101906200034e919062000cf2565b600360006101000a81548173ffffffffffffffffffffffffffffffffffffffff021916908373ffffffffffffffffffffffffffffffffffffffff160217905550600460009054906101000a900473ffffffffffffffffffffffffffffffffffffffff1673ffffffffffffffffffffffffffffffffffffffff166383bc7a986040518163ffffffff1660e01b815260040160206040518083038186803b158015620003f757600080fd5b505afa1580156200040c573d6000803e3d6000fd5b505050506040513d601f19601f8201168201806040525081019062000432919062000cf2565b73ffffffffffffffffffffffffffffffffffffffff1663b453a99a600660019054906101000a900460ff16600360009054906101000a900473ffffffffffffffffffffffffffffffffffffffff1633600460009054906101000a900473ffffffffffffffffffffffffffffffffffffffff166040518563ffffffff1660e01b8152600401620004c5949392919062000fc7565b602060405180830381600087803b158015620004e057600080fd5b505af1158015620004f5573d6000803e3d6000fd5b505050506040513d601f19601f820116820180604052508101906200051b919062000cf2565b600a60006101000a81548173ffffffffffffffffffffffffffffffffffffffff021916908373ffffffffffffffffffffffffffffffffffffffff16021790555062000593600a60009054906101000a900473ffffffffffffffffffffffffffffffffffffffff166107d060016200073560201b60201c565b600a60009054906101000a900473ffffffffffffffffffffffffffffffffffffffff1673ffffffffffffffffffffffffffffffffffffffff166346f98fec6040518163ffffffff1660e01b8152600401600060405180830381600087803b158015620005fe57600080fd5b505af115801562000613573d6000803e3d6000fd5b5050505060016009604051620006299062000f3f565b908152602001604051809103902060006101000a81548160ff02191690831515021790555060016009604051620006609062000f56565b908152602001604051809103902060006101000a81548160ff021916908315150217905550505050620011c0565b6000620006a562000acd60201b620013ba1760201c565b905090565b600080831415620006bf57600090506200072f565b6000828402905082848281620006d157fe5b04146200072a576040517f08c379a0000000000000000000000000000000000000000000000000000000008152600401808060200182810382526021815260200180620038386021913960400191505060405180910390fd5b809150505b92915050565b600073ffffffffffffffffffffffffffffffffffffffff16600a60009054906101000a900473ffffffffffffffffffffffffffffffffffffffff1673ffffffffffffffffffffffffffffffffffffffff161415620007ca576040517f08c379a0000000000000000000000000000000000000000000000000000000008152600401620007c19062001014565b60405180910390fd5b60196008541062000812576040517f08c379a0000000000000000000000000000000000000000000000000000000008152600401620008099062001058565b60405180910390fd5b60001515600760008573ffffffffffffffffffffffffffffffffffffffff1673ffffffffffffffffffffffffffffffffffffffff16815260200190815260200160002060009054906101000a900460ff16151514620008a8576040517f08c379a00000000000000000000000000000000000000000000000000000000081526004016200089f9062001036565b60405180910390fd5b6001600760008573ffffffffffffffffffffffffffffffffffffffff1673ffffffffffffffffffffffffffffffffffffffff16815260200190815260200160002060006101000a81548160ff0219169083151502179055506200091d600160085462000b1560201b620013f61790919060201c565b600881905550600360009054906101000a900473ffffffffffffffffffffffffffffffffffffffff1673ffffffffffffffffffffffffffffffffffffffff1663bc93233f84836040518363ffffffff1660e01b81526004016200098292919062000f6d565b600060405180830381600087803b1580156200099d57600080fd5b505af1158015620009b2573d6000803e3d6000fd5b50505050600360009054906101000a900473ffffffffffffffffffffffffffffffffffffffff1673ffffffffffffffffffffffffffffffffffffffff1663a9059cbb8462000a17670de0b6b3a764000086620006aa60201b620013341790919060201c565b6040518363ffffffff1660e01b815260040162000a3692919062000f9a565b602060405180830381600087803b15801562000a5157600080fd5b505af115801562000a66573d6000803e3d6000fd5b505050506040513d601f19601f8201168201806040525081019062000a8c919062000d1e565b507fede8eed4383e9241982619b94dd83e488b274cced0fd07b8c0092a393defd52f838360405162000ac092919062000f9a565b60405180910390a1505050565b6000601860003690501015801562000af2575062000af13362000b9e60201b60201c565b5b1562000b0857601436033560601c905062000b11565b33905062000b12565b5b90565b60008082840190508381101562000b94576040517f08c379a000000000000000000000000000000000000000000000000000000000815260040180806020018281038252601b8152602001807f536166654d6174683a206164646974696f6e206f766572666c6f77000000000081525060200191505060405180910390fd5b8091505092915050565b60008060009054906101000a900473ffffffffffffffffffffffffffffffffffffffff1673ffffffffffffffffffffffffffffffffffffffff168273ffffffffffffffffffffffffffffffffffffffff16149050919050565b828054600181600116156101000203166002900490600052602060002090601f01602090048101928262000c2f576000855562000c7b565b82601f1062000c4a57805160ff191683800117855562000c7b565b8280016001018555821562000c7b579182015b8281111562000c7a57825182559160200191906001019062000c5d565b5b50905062000c8a919062000c8e565b5090565b5b8082111562000ca957600081600090555060010162000c8f565b5090565b60008151905062000cbe816200117b565b92915050565b60008151905062000cd58162001195565b92915050565b60008151905062000cec81620011af565b92915050565b60006020828403121562000d0557600080fd5b600062000d158482850162000cad565b91505092915050565b60006020828403121562000d3157600080fd5b600062000d418482850162000cc4565b91505092915050565b60008060006060848603121562000d6057600080fd5b600062000d708682870162000cdb565b935050602062000d838682870162000cad565b925050604062000d968682870162000cad565b9150509250925092565b62000dab8162001112565b82525050565b62000dbc81620010b3565b82525050565b62000dcd81620010c7565b82525050565b62000dde8162001126565b82525050565b600062000df360108362001097565b91507f7472656173757279206e6f7420736574000000000000000000000000000000006000830152602082019050919050565b600062000e35600e8362001097565b91507f616c7265616479206d656d6265720000000000000000000000000000000000006000830152602082019050919050565b600062000e77600383620010a8565b91507f44414900000000000000000000000000000000000000000000000000000000006000830152600382019050919050565b600062000eb9600e8362001097565b91507f636f6d6d756e6974792066756c6c0000000000000000000000000000000000006000830152602082019050919050565b600062000efb600483620010a8565b91507f55534443000000000000000000000000000000000000000000000000000000006000830152600482019050919050565b62000f398162001108565b82525050565b600062000f4c8262000e68565b9150819050919050565b600062000f638262000eec565b9150819050919050565b600060408201905062000f84600083018562000db1565b62000f93602083018462000dc2565b9392505050565b600060408201905062000fb1600083018562000db1565b62000fc0602083018462000f2e565b9392505050565b600060808201905062000fde600083018762000dd3565b62000fed602083018662000db1565b62000ffc604083018562000da0565b6200100b606083018462000db1565b95945050505050565b600060208201905081810360008301526200102f8162000de4565b9050919050565b60006020820190508181036000830152620010518162000e26565b9050919050565b60006020820190508181036000830152620010738162000eaa565b9050919050565b600060208201905062001091600083018462000f2e565b92915050565b600082825260208201905092915050565b600081905092915050565b6000620010c082620010e8565b9050919050565b60008115159050919050565b6000819050620010e38262001164565b919050565b600073ffffffffffffffffffffffffffffffffffffffff82169050919050565b6000819050919050565b60006200111f826200113a565b9050919050565b60006200113382620010d3565b9050919050565b600062001147826200114e565b9050919050565b60006200115b82620010e8565b9050919050565bfe5b6003811062001178576200117762001162565b5b50565b6200118681620010b3565b81146200119257600080fd5b50565b620011a081620010c7565b8114620011ac57600080fd5b50565b60038110620011bd57600080fd5b50565b61266880620011d06000396000f3fe608060405234801561001057600080fd5b50600436106101585760003560e01c80639250640d116100c3578063c72c4d101161007c578063c72c4d101461035b578063cd7852c014610379578063cecfd170146103a9578063d0e0ba95146103d9578063d66d9e19146103f5578063f2fde38b146103ff57610158565b80639250640d146102ab5780639d63848a146102c9578063a30e3fa9146102e7578063a46eddcf14610305578063af640d0f14610321578063bc910cf91461033f57610158565b80636f2ddd93116101155780636f2ddd9314610221578063715018a61461023f578063770ac141146102495780637da0a877146102535780637daea392146102715780638da5cb5b1461028d57610158565b8063049878f31461015d578063150c4aea1461017957806343086f0d14610197578063486ff0cd146101b5578063572b6c05146101d357806358c12dbe14610203575b600080fd5b61017760048036038101906101729190611dbe565b61041b565b005b610181610431565b60405161018e91906121ed565b60405180910390f35b61019f61043c565b6040516101ac9190612223565b60405180910390f35b6101bd610462565b6040516101ca9190612259565b60405180910390f35b6101ed60048036038101906101e89190611d02565b610500565b6040516101fa91906121d2565b60405180910390f35b61020b610559565b604051610218919061212e565b60405180910390f35b61022961057f565b604051610236919061223e565b60405180910390f35b610247610592565b005b61025161071d565b005b61025b61086b565b604051610268919061212e565b60405180910390f35b61028b60048036038101906102869190611d02565b61088f565b005b610295610b50565b6040516102a2919061212e565b60405180910390f35b6102b3610b7a565b6040516102c0919061239b565b60405180910390f35b6102d1610b81565b6040516102de919061212e565b60405180910390f35b6102ef610ba7565b6040516102fc919061239b565b60405180910390f35b61031f600480360381019061031a9190611d02565b610bad565b005b610329610d07565b604051610336919061239b565b60405180910390f35b61035960048036038101906103549190611e10565b610d0d565b005b610363610f58565b6040516103709190612208565b60405180910390f35b610393600480360381019061038e9190611d7d565b610f7e565b6040516103a091906121d2565b60405180910390f35b6103c360048036038101906103be9190611d02565b610fb4565b6040516103d091906121d2565b60405180910390f35b6103f360048036038101906103ee9190611dbe565b610fd4565b005b6103fd611110565b005b61041960048036038101906104149190611d02565b611124565b005b61042e61042661147e565b82600061148d565b50565b638f5d825f60e01b81565b600b60009054906101000a900473ffffffffffffffffffffffffffffffffffffffff1681565b60028054600181600116156101000203166002900480601f0160208091040260200160405190810160405280929190818152602001828054600181600116156101000203166002900480156104f85780601f106104cd576101008083540402835291602001916104f8565b820191906000526020600020905b8154815290600101906020018083116104db57829003601f168201915b505050505081565b60008060009054906101000a900473ffffffffffffffffffffffffffffffffffffffff1673ffffffffffffffffffffffffffffffffffffffff168273ffffffffffffffffffffffffffffffffffffffff16149050919050565b600a60009054906101000a900473ffffffffffffffffffffffffffffffffffffffff1681565b600660019054906101000a900460ff1681565b61059a61147e565b73ffffffffffffffffffffffffffffffffffffffff16600160009054906101000a900473ffffffffffffffffffffffffffffffffffffffff1673ffffffffffffffffffffffffffffffffffffffff161461065c576040517f08c379a00000000000000000000000000000000000000000000000000000000081526004018080602001828103825260208152602001807f4f776e61626c653a2063616c6c6572206973206e6f7420746865206f776e657281525060200191505060405180910390fd5b600073ffffffffffffffffffffffffffffffffffffffff16600160009054906101000a900473ffffffffffffffffffffffffffffffffffffffff1673ffffffffffffffffffffffffffffffffffffffff167f8be0079c531659141344cd1fd0a4f28419497f9722a3daafe3b4186f6b6457e060405160405180910390a36000600160006101000a81548173ffffffffffffffffffffffffffffffffffffffff021916908373ffffffffffffffffffffffffffffffffffffffff160217905550565b61072561147e565b73ffffffffffffffffffffffffffffffffffffffff16600160009054906101000a900473ffffffffffffffffffffffffffffffffffffffff1673ffffffffffffffffffffffffffffffffffffffff16146107e7576040517f08c379a00000000000000000000000000000000000000000000000000000000081526004018080602001828103825260208152602001807f4f776e61626c653a2063616c6c6572206973206e6f7420746865206f776e657281525060200191505060405180910390fd5b600a60009054906101000a900473ffffffffffffffffffffffffffffffffffffffff1673ffffffffffffffffffffffffffffffffffffffff166363a5d2986040518163ffffffff1660e01b8152600401600060405180830381600087803b15801561085157600080fd5b505af1158015610865573d6000803e3d6000fd5b50505050565b60008054906101000a900473ffffffffffffffffffffffffffffffffffffffff1681565b61089761147e565b73ffffffffffffffffffffffffffffffffffffffff16600160009054906101000a900473ffffffffffffffffffffffffffffffffffffffff1673ffffffffffffffffffffffffffffffffffffffff1614610959576040517f08c379a00000000000000000000000000000000000000000000000000000000081526004018080602001828103825260208152602001807f4f776e61626c653a2063616c6c6572206973206e6f7420746865206f776e657281525060200191505060405180910390fd5b600073ffffffffffffffffffffffffffffffffffffffff16600b60009054906101000a900473ffffffffffffffffffffffffffffffffffffffff1673ffffffffffffffffffffffffffffffffffffffff16146109ea576040517f08c379a00000000000000000000000000000000000000000000000000000000081526004016109e1906122db565b60405180910390fd5b3073ffffffffffffffffffffffffffffffffffffffff168173ffffffffffffffffffffffffffffffffffffffff1663dc1fb5a56040518163ffffffff1660e01b815260040160206040518083038186803b158015610a4757600080fd5b505afa158015610a5b573d6000803e3d6000fd5b505050506040513d601f19601f82011682018060405250810190610a7f9190611d2b565b73ffffffffffffffffffffffffffffffffffffffff1614610ad5576040517f08c379a0000000000000000000000000000000000000000000000000000000008152600401610acc9061233b565b60405180910390fd5b80600b60006101000a81548173ffffffffffffffffffffffffffffffffffffffff021916908373ffffffffffffffffffffffffffffffffffffffff1602179055507f5667c8bc14c2967d781cf0b551c676f0dc04474723d2d8175083e25bd638fecd81604051610b45919061212e565b60405180910390a150565b6000600160009054906101000a900473ffffffffffffffffffffffffffffffffffffffff16905090565b6201770081565b600360009054906101000a900473ffffffffffffffffffffffffffffffffffffffff1681565b60085481565b610bb561147e565b73ffffffffffffffffffffffffffffffffffffffff16600160009054906101000a900473ffffffffffffffffffffffffffffffffffffffff1673ffffffffffffffffffffffffffffffffffffffff1614610c77576040517f08c379a00000000000000000000000000000000000000000000000000000000081526004018080602001828103825260208152602001807f4f776e61626c653a2063616c6c6572206973206e6f7420746865206f776e657281525060200191505060405180910390fd5b600a60009054906101000a900473ffffffffffffffffffffffffffffffffffffffff1673ffffffffffffffffffffffffffffffffffffffff1663a46eddcf826040518263ffffffff1660e01b8152600401610cd2919061212e565b600060405180830381600087803b158015610cec57600080fd5b505af1158015610d00573d6000803e3d6000fd5b5050505050565b60055481565b600b60009054906101000a900473ffffffffffffffffffffffffffffffffffffffff1673ffffffffffffffffffffffffffffffffffffffff16610d4e61147e565b73ffffffffffffffffffffffffffffffffffffffff1614610da4576040517f08c379a0000000000000000000000000000000000000000000000000000000008152600401610d9b9061235b565b60405180910390fd5b600073ffffffffffffffffffffffffffffffffffffffff168173ffffffffffffffffffffffffffffffffffffffff1614610f5457600360009054906101000a900473ffffffffffffffffffffffffffffffffffffffff1673ffffffffffffffffffffffffffffffffffffffff1663095ea7b3600a60009054906101000a900473ffffffffffffffffffffffffffffffffffffffff16610e54670de0b6b3a76400008661133490919063ffffffff16565b6040518363ffffffff1660e01b8152600401610e719291906121a9565b602060405180830381600087803b158015610e8b57600080fd5b505af1158015610e9f573d6000803e3d6000fd5b505050506040513d601f19601f82011682018060405250810190610ec39190611d54565b50600a60009054906101000a900473ffffffffffffffffffffffffffffffffffffffff1673ffffffffffffffffffffffffffffffffffffffff1663e377672e83836040518363ffffffff1660e01b8152600401610f219291906123b6565b600060405180830381600087803b158015610f3b57600080fd5b505af1158015610f4f573d6000803e3d6000fd5b505050505b5050565b600460009054906101000a900473ffffffffffffffffffffffffffffffffffffffff1681565b6009818051602081018201805184825260208301602085012081835280955050505050506000915054906101000a900460ff1681565b60076020528060005260406000206000915054906101000a900460ff1681565b600a60009054906101000a900473ffffffffffffffffffffffffffffffffffffffff1673ffffffffffffffffffffffffffffffffffffffff163373ffffffffffffffffffffffffffffffffffffffff1614611064576040517f08c379a000000000000000000000000000000000000000000000000000000000815260040161105b9061227b565b60405180910390fd5b600660009054906101000a900460ff16156110b4576040517f08c379a00000000000000000000000000000000000000000000000000000000081526004016110ab9061237b565b60405180910390fd5b806005819055506001600660006101000a81548160ff0219169083151502179055507fc72e55068a99063a2c847c0b87d2808f29d1935171e54ffa3a479533b4046b7481604051611105919061239b565b60405180910390a150565b61112261111b61147e565b6000611802565b565b61112c61147e565b73ffffffffffffffffffffffffffffffffffffffff16600160009054906101000a900473ffffffffffffffffffffffffffffffffffffffff1673ffffffffffffffffffffffffffffffffffffffff16146111ee576040517f08c379a00000000000000000000000000000000000000000000000000000000081526004018080602001828103825260208152602001807f4f776e61626c653a2063616c6c6572206973206e6f7420746865206f776e657281525060200191505060405180910390fd5b600073ffffffffffffffffffffffffffffffffffffffff168173ffffffffffffffffffffffffffffffffffffffff161415611274576040517f08c379a00000000000000000000000000000000000000000000000000000000081526004018080602001828103825260268152602001806125ec6026913960400191505060405180910390fd5b8073ffffffffffffffffffffffffffffffffffffffff16600160009054906101000a900473ffffffffffffffffffffffffffffffffffffffff1673ffffffffffffffffffffffffffffffffffffffff167f8be0079c531659141344cd1fd0a4f28419497f9722a3daafe3b4186f6b6457e060405160405180910390a380600160006101000a81548173ffffffffffffffffffffffffffffffffffffffff021916908373ffffffffffffffffffffffffffffffffffffffff16021790555050565b60008083141561134757600090506113b4565b600082840290508284828161135857fe5b04146113af576040517f08c379a00000000000000000000000000000000000000000000000000000000081526004018080602001828103825260218152602001806126126021913960400191505060405180910390fd5b809150505b92915050565b600060186000369050101580156113d657506113d533610500565b5b156113ea57601436033560601c90506113f2565b3390506113f3565b5b90565b600080828401905083811015611474576040517f08c379a000000000000000000000000000000000000000000000000000000000815260040180806020018281038252601b8152602001807f536166654d6174683a206164646974696f6e206f766572666c6f77000000000081525060200191505060405180910390fd5b8091505092915050565b60006114886113ba565b905090565b600073ffffffffffffffffffffffffffffffffffffffff16600a60009054906101000a900473ffffffffffffffffffffffffffffffffffffffff1673ffffffffffffffffffffffffffffffffffffffff16141561151f576040517f08c379a00000000000000000000000000000000000000000000000000000000081526004016115169061229b565b60405180910390fd5b601960085410611564576040517f08c379a000000000000000000000000000000000000000000000000000000000815260040161155b9061231b565b60405180910390fd5b60001515600760008573ffffffffffffffffffffffffffffffffffffffff1673ffffffffffffffffffffffffffffffffffffffff16815260200190815260200160002060009054906101000a900460ff161515146115f7576040517f08c379a00000000000000000000000000000000000000000000000000000000081526004016115ee906122fb565b60405180910390fd5b6001600760008573ffffffffffffffffffffffffffffffffffffffff1673ffffffffffffffffffffffffffffffffffffffff16815260200190815260200160002060006101000a81548160ff02191690831515021790555061166560016008546113f690919063ffffffff16565b600881905550600360009054906101000a900473ffffffffffffffffffffffffffffffffffffffff1673ffffffffffffffffffffffffffffffffffffffff1663bc93233f84836040518363ffffffff1660e01b81526004016116c8929190612180565b600060405180830381600087803b1580156116e257600080fd5b505af11580156116f6573d6000803e3d6000fd5b50505050600360009054906101000a900473ffffffffffffffffffffffffffffffffffffffff1673ffffffffffffffffffffffffffffffffffffffff1663a9059cbb84611754670de0b6b3a76400008661133490919063ffffffff16565b6040518363ffffffff1660e01b81526004016117719291906121a9565b602060405180830381600087803b15801561178b57600080fd5b505af115801561179f573d6000803e3d6000fd5b505050506040513d601f19601f820116820180604052508101906117c39190611d54565b507fede8eed4383e9241982619b94dd83e488b274cced0fd07b8c0092a393defd52f83836040516117f59291906121a9565b60405180910390a1505050565b61180b82611aa5565b6000600760008473ffffffffffffffffffffffffffffffffffffffff1673ffffffffffffffffffffffffffffffffffffffff16815260200190815260200160002060006101000a81548160ff0219169083151502179055506118796001600854611b3b90919063ffffffff16565b600881905550600360009054906101000a900473ffffffffffffffffffffffffffffffffffffffff1673ffffffffffffffffffffffffffffffffffffffff166323b872dd8330600360009054906101000a900473ffffffffffffffffffffffffffffffffffffffff1673ffffffffffffffffffffffffffffffffffffffff166370a08231876040518263ffffffff1660e01b815260040161191a919061212e565b60206040518083038186803b15801561193257600080fd5b505afa158015611946573d6000803e3d6000fd5b505050506040513d601f19601f8201168201806040525081019061196a9190611de7565b6040518463ffffffff1660e01b815260040161198893929190612149565b602060405180830381600087803b1580156119a257600080fd5b505af11580156119b6573d6000803e3d6000fd5b505050506040513d601f19601f820116820180604052508101906119da9190611d54565b50600360009054906101000a900473ffffffffffffffffffffffffffffffffffffffff1673ffffffffffffffffffffffffffffffffffffffff16632797c7a483836040518363ffffffff1660e01b8152600401611a38929190612180565b600060405180830381600087803b158015611a5257600080fd5b505af1158015611a66573d6000803e3d6000fd5b505050507f6e76fb4c77256006d9c38ec7d82b45a8c8f3c27b1d6766fffc42dfb8de68449282604051611a99919061212e565b60405180910390a15050565b60011515600760008373ffffffffffffffffffffffffffffffffffffffff1673ffffffffffffffffffffffffffffffffffffffff16815260200190815260200160002060009054906101000a900460ff16151514611b38576040517f08c379a0000000000000000000000000000000000000000000000000000000008152600401611b2f906122bb565b60405180910390fd5b50565b6000611b7d83836040518060400160405280601e81526020017f536166654d6174683a207375627472616374696f6e206f766572666c6f770000815250611b85565b905092915050565b6000838311158290611c32576040517f08c379a00000000000000000000000000000000000000000000000000000000081526004018080602001828103825283818151815260200191508051906020019080838360005b83811015611bf7578082015181840152602081019050611bdc565b50505050905090810190601f168015611c245780820380516001836020036101000a031916815260200191505b509250505060405180910390fd5b5060008385039050809150509392505050565b600081359050611c54816125a6565b92915050565b600081519050611c69816125a6565b92915050565b600081519050611c7e816125bd565b92915050565b600082601f830112611c9557600080fd5b8135611ca8611ca382612410565b6123df565b91508082526020830160208301858383011115611cc457600080fd5b611ccf83828461253d565b50505092915050565b600081359050611ce7816125d4565b92915050565b600081519050611cfc816125d4565b92915050565b600060208284031215611d1457600080fd5b6000611d2284828501611c45565b91505092915050565b600060208284031215611d3d57600080fd5b6000611d4b84828501611c5a565b91505092915050565b600060208284031215611d6657600080fd5b6000611d7484828501611c6f565b91505092915050565b600060208284031215611d8f57600080fd5b600082013567ffffffffffffffff811115611da957600080fd5b611db584828501611c84565b91505092915050565b600060208284031215611dd057600080fd5b6000611dde84828501611cd8565b91505092915050565b600060208284031215611df957600080fd5b6000611e0784828501611ced565b91505092915050565b60008060408385031215611e2357600080fd5b6000611e3185828601611cd8565b9250506020611e4285828601611c45565b9150509250929050565b611e558161245c565b82525050565b611e648161246e565b82525050565b611e738161247a565b82525050565b611e82816124e3565b82525050565b611e9181612507565b82525050565b611ea08161252b565b82525050565b6000611eb182612440565b611ebb818561244b565b9350611ecb81856020860161254c565b611ed481612581565b840191505092915050565b6000611eec600c8361244b565b91507f6e6f7420747265617375727900000000000000000000000000000000000000006000830152602082019050919050565b6000611f2c60108361244b565b91507f7472656173757279206e6f7420736574000000000000000000000000000000006000830152602082019050919050565b6000611f6c600a8361244b565b91507f6e6f74206d656d626572000000000000000000000000000000000000000000006000830152602082019050919050565b6000611fac600d8361244b565b91507f616c7265616479206164646564000000000000000000000000000000000000006000830152602082019050919050565b6000611fec600e8361244b565b91507f616c7265616479206d656d6265720000000000000000000000000000000000006000830152602082019050919050565b600061202c600e8361244b565b91507f636f6d6d756e6974792066756c6c0000000000000000000000000000000000006000830152602082019050919050565b600061206c600f8361244b565b91507f77726f6e6720636f6d6d756e69747900000000000000000000000000000000006000830152602082019050919050565b60006120ac60108361244b565b91507f6e6f7420676967207265676973747279000000000000000000000000000000006000830152602082019050919050565b60006120ec600b8361244b565b91507f616c7265616479207365740000000000000000000000000000000000000000006000830152602082019050919050565b612128816124d9565b82525050565b60006020820190506121436000830184611e4c565b92915050565b600060608201905061215e6000830186611e4c565b61216b6020830185611e4c565b612178604083018461211f565b949350505050565b60006040820190506121956000830185611e4c565b6121a26020830184611e5b565b9392505050565b60006040820190506121be6000830185611e4c565b6121cb602083018461211f565b9392505050565b60006020820190506121e76000830184611e5b565b92915050565b60006020820190506122026000830184611e6a565b92915050565b600060208201905061221d6000830184611e79565b92915050565b60006020820190506122386000830184611e88565b92915050565b60006020820190506122536000830184611e97565b92915050565b600060208201905081810360008301526122738184611ea6565b905092915050565b6000602082019050818103600083015261229481611edf565b9050919050565b600060208201905081810360008301526122b481611f1f565b9050919050565b600060208201905081810360008301526122d481611f5f565b9050919050565b600060208201905081810360008301526122f481611f9f565b9050919050565b6000602082019050818103600083015261231481611fdf565b9050919050565b600060208201905081810360008301526123348161201f565b9050919050565b600060208201905081810360008301526123548161205f565b9050919050565b600060208201905081810360008301526123748161209f565b9050919050565b60006020820190508181036000830152612394816120df565b9050919050565b60006020820190506123b0600083018461211f565b92915050565b60006040820190506123cb600083018561211f565b6123d86020830184611e4c565b9392505050565b6000604051905081810181811067ffffffffffffffff821117156124065761240561257f565b5b8060405250919050565b600067ffffffffffffffff82111561242b5761242a61257f565b5b601f19601f8301169050602081019050919050565b600081519050919050565b600082825260208201905092915050565b6000612467826124b9565b9050919050565b60008115159050919050565b60007fffffffff0000000000000000000000000000000000000000000000000000000082169050919050565b60008190506124b482612592565b919050565b600073ffffffffffffffffffffffffffffffffffffffff82169050919050565b6000819050919050565b60006124ee826124f5565b9050919050565b6000612500826124b9565b9050919050565b600061251282612519565b9050919050565b6000612524826124b9565b9050919050565b6000612536826124a6565b9050919050565b82818337600083830152505050565b60005b8381101561256a57808201518184015260208101905061254f565b83811115612579576000848401525b50505050565bfe5b6000601f19601f8301169050919050565b600381106125a3576125a261257f565b5b50565b6125af8161245c565b81146125ba57600080fd5b50565b6125c68161246e565b81146125d157600080fd5b50565b6125dd816124d9565b81146125e857600080fd5b5056fe4f776e61626c653a206e6577206f776e657220697320746865207a65726f2061646472657373536166654d6174683a206d756c7469706c69636174696f6e206f766572666c6f77a26469706673582212201c138f7c50664ebd1e385cb94bbd1e72f7c5318562617f70224a372c0b23a68f64736f6c63430007040033536166654d6174683a206d756c7469706c69636174696f6e206f766572666c6f77a26469706673582212204f6fe396033a3f9a73cccbc71e156394869e204fd84c5d861d131344c446b1b064736f6c63430007040033",
  "linkReferences": {},
  "deployedLinkReferences": {}
}