{
  "_format": "hh-sol-artifact-1",
  "contractName": "CommunitiesRegistry",
  "sourceName": "contracts/CommunitiesRegistry.sol",
  "abi": [
    {
      "inputs": [
        {
          "internalType": "address",
          "name": "_addressesProvider",
          "type": "address"
        },
        {
          "internalType": "address",
          "name": "_forwarder",
          "type": "address"
        }
      ],
      "stateMutability": "nonpayable",
      "type": "constructor"
    },
    {
      "anonymous": false,
      "inputs": [
        {
          "indexed": false,
          "internalType": "address",
          "name": "_newCommunityAddress",
          "type": "address"
        },
        {
          "indexed": false,
          "internalType": "enum DataTypes.CommunityTemplate",
          "name": "_template",
          "type": "uint8"
        }
      ],
      "name": "CommunityCreated",
      "type": "event"
    },
    {
      "anonymous": false,
      "inputs": [
        {
          "indexed": false,
          "internalType": "enum DataTypes.CommunityTemplate",
          "name": "_template",
          "type": "uint8"
        },
        {
          "indexed": false,
          "internalType": "address",
          "name": "_dao",
          "type": "address"
        }
      ],
      "name": "DaoSet",
      "type": "event"
    },
    {
      "inputs": [],
      "name": "IDENTITY",
      "outputs": [
        {
          "internalType": "bytes4",
          "name": "",
          "type": "bytes4"
        }
      ],
      "stateMutability": "view",
      "type": "function"
    },
    {
      "inputs": [],
      "name": "addressesProvider",
      "outputs": [
        {
          "internalType": "address",
          "name": "",
          "type": "address"
        }
      ],
      "stateMutability": "view",
      "type": "function"
    },
    {
      "inputs": [
        {
          "internalType": "enum DataTypes.CommunityTemplate",
          "name": "",
          "type": "uint8"
        },
        {
          "internalType": "uint256",
          "name": "",
          "type": "uint256"
        }
      ],
      "name": "communities",
      "outputs": [
        {
          "internalType": "address",
          "name": "",
          "type": "address"
        }
      ],
      "stateMutability": "view",
      "type": "function"
    },
    {
      "inputs": [
        {
          "internalType": "enum DataTypes.CommunityTemplate",
          "name": "_template",
          "type": "uint8"
        }
      ],
      "name": "createCommunity",
      "outputs": [
        {
          "internalType": "address",
          "name": "",
          "type": "address"
        }
      ],
      "stateMutability": "nonpayable",
      "type": "function"
    },
    {
      "inputs": [
        {
          "internalType": "address",
          "name": "_user",
          "type": "address"
        },
        {
          "internalType": "enum DataTypes.CommunityTemplate",
          "name": "_template",
          "type": "uint8"
        }
      ],
      "name": "currentCommunityOfUser",
      "outputs": [
        {
          "internalType": "address",
          "name": "communityAddress",
          "type": "address"
        }
      ],
      "stateMutability": "view",
      "type": "function"
    },
    {
      "inputs": [
        {
          "internalType": "enum DataTypes.CommunityTemplate",
          "name": "",
          "type": "uint8"
        }
      ],
      "name": "daos",
      "outputs": [
        {
          "internalType": "address",
          "name": "",
          "type": "address"
        }
      ],
      "stateMutability": "view",
      "type": "function"
    },
    {
      "inputs": [],
      "name": "forwarder",
      "outputs": [
        {
          "internalType": "address",
          "name": "",
          "type": "address"
        }
      ],
      "stateMutability": "view",
      "type": "function"
    },
    {
      "inputs": [
        {
          "internalType": "enum DataTypes.CommunityTemplate",
          "name": "_template",
          "type": "uint8"
        }
      ],
      "name": "getCommunitiesNumber",
      "outputs": [
        {
          "internalType": "uint256",
          "name": "",
          "type": "uint256"
        }
      ],
      "stateMutability": "view",
      "type": "function"
    },
    {
      "inputs": [
        {
          "internalType": "enum DataTypes.CommunityTemplate",
          "name": "_template",
          "type": "uint8"
        },
        {
          "internalType": "address",
          "name": "_dao",
          "type": "address"
        },
        {
          "internalType": "bool",
          "name": "_override",
          "type": "bool"
        }
      ],
      "name": "setDao",
      "outputs": [],
      "stateMutability": "nonpayable",
      "type": "function"
    }
  ],
  "bytecode": "0x608060405234801561001057600080fd5b506040516147ba3803806147ba8339818101604052604081101561003357600080fd5b81019080805190602001909291908051906020019092919050505081600260006101000a81548173ffffffffffffffffffffffffffffffffffffffff021916908373ffffffffffffffffffffffffffffffffffffffff16021790555080600360006101000a81548173ffffffffffffffffffffffffffffffffffffffff021916908373ffffffffffffffffffffffffffffffffffffffff16021790555050506146d9806100e16000396000f3fe60806040523480156200001157600080fd5b5060043610620000a05760003560e01c8063c72c4d10116200006f578063c72c4d1014620001f2578063d12499b11462000228578063e1b871e31462000288578063f645d4f914620002e6578063fc1ae9c2146200031c57620000a0565b80631013afe714620000a5578063150c4aea14620001035780638b0d02ca1462000142578063a491705e14620001aa575b600080fd5b620000d760048036036020811015620000bd57600080fd5b81019080803560ff1690602001909291905050506200039a565b604051808273ffffffffffffffffffffffffffffffffffffffff16815260200191505060405180910390f35b6200010d620003cd565b60405180827bffffffffffffffffffffffffffffffffffffffffffffffffffffffff1916815260200191505060405180910390f35b6200017e600480360360408110156200015a57600080fd5b81019080803560ff16906020019092919080359060200190929190505050620003d8565b604051808273ffffffffffffffffffffffffffffffffffffffff16815260200191505060405180910390f35b620001dc60048036036020811015620001c257600080fd5b81019080803560ff16906020019092919050505062000427565b6040518082815260200191505060405180910390f35b620001fc6200045f565b604051808273ffffffffffffffffffffffffffffffffffffffff16815260200191505060405180910390f35b62000286600480360360608110156200024057600080fd5b81019080803560ff169060200190929190803573ffffffffffffffffffffffffffffffffffffffff16906020019092919080351515906020019092919050505062000485565b005b620002ba60048036036020811015620002a057600080fd5b81019080803560ff169060200190929190505050620006f4565b604051808273ffffffffffffffffffffffffffffffffffffffff16815260200191505060405180910390f35b620002f062000bb8565b604051808273ffffffffffffffffffffffffffffffffffffffff16815260200191505060405180910390f35b6200036e600480360360408110156200033457600080fd5b81019080803573ffffffffffffffffffffffffffffffffffffffff169060200190929190803560ff16906020019092919050505062000bde565b604051808273ffffffffffffffffffffffffffffffffffffffff16815260200191505060405180910390f35b60006020528060005260406000206000915054906101000a900473ffffffffffffffffffffffffffffffffffffffff1681565b639463504660e01b81565b60016020528160005260406000208181548110620003f557600080fd5b906000526020600020016000915091509054906101000a900473ffffffffffffffffffffffffffffffffffffffff1681565b6000600160008360028111156200043a57fe5b60028111156200044657fe5b8152602001908152602001600020805490509050919050565b600260009054906101000a900473ffffffffffffffffffffffffffffffffffffffff1681565b801562000537576000600160008560028111156200049f57fe5b6002811115620004ab57fe5b8152602001908152602001600020805490501462000531576040517f08c379a000000000000000000000000000000000000000000000000000000000815260040180806020018281038252600f8152602001807f68617320636f6d6d756e6974696573000000000000000000000000000000000081525060200191505060405180910390fd5b62000625565b600073ffffffffffffffffffffffffffffffffffffffff166000808560028111156200055f57fe5b60028111156200056b57fe5b815260200190815260200160002060009054906101000a900473ffffffffffffffffffffffffffffffffffffffff1673ffffffffffffffffffffffffffffffffffffffff161462000624576040517f08c379a000000000000000000000000000000000000000000000000000000000815260040180806020018281038252600b8152602001807f616c72656164792073657400000000000000000000000000000000000000000081525060200191505060405180910390fd5b5b816000808560028111156200063657fe5b60028111156200064257fe5b815260200190815260200160002060006101000a81548173ffffffffffffffffffffffffffffffffffffffff021916908373ffffffffffffffffffffffffffffffffffffffff1602179055507f2361cbc68f3d45ab9b0148f6c09dcf765c33021991fef1b3384792dd3881c091838360405180836002811115620006c257fe5b81526020018273ffffffffffffffffffffffffffffffffffffffff1681526020019250505060405180910390a1505050565b6000806000808460028111156200070757fe5b60028111156200071357fe5b815260200190815260200160002060009054906101000a900473ffffffffffffffffffffffffffffffffffffffff169050600073ffffffffffffffffffffffffffffffffffffffff168173ffffffffffffffffffffffffffffffffffffffff161415620007e8576040517f08c379a000000000000000000000000000000000000000000000000000000000815260040180806020018281038252600b8152602001807f64616f206e6f742073657400000000000000000000000000000000000000000081525060200191505060405180910390fd5b600083600260009054906101000a900473ffffffffffffffffffffffffffffffffffffffff16600360009054906101000a900473ffffffffffffffffffffffffffffffffffffffff166040516200083f9062000db9565b808460028111156200084d57fe5b81526020018373ffffffffffffffffffffffffffffffffffffffff1681526020018273ffffffffffffffffffffffffffffffffffffffff1681526020019350505050604051809103906000f080158015620008ac573d6000803e3d6000fd5b509050600081905060016000866002811115620008c557fe5b6002811115620008d157fe5b8152602001908152602001600020819080600181540180825580915050600190039060005260206000200160009091909190916101000a81548173ffffffffffffffffffffffffffffffffffffffff021916908373ffffffffffffffffffffffffffffffffffffffff1602179055508173ffffffffffffffffffffffffffffffffffffffff1663a46eddcf846040518263ffffffff1660e01b8152600401808273ffffffffffffffffffffffffffffffffffffffff168152602001915050600060405180830381600087803b158015620009aa57600080fd5b505af1158015620009bf573d6000803e3d6000fd5b505050508273ffffffffffffffffffffffffffffffffffffffff1663a263605d8373ffffffffffffffffffffffffffffffffffffffff166358c12dbe6040518163ffffffff1660e01b815260040160206040518083038186803b15801562000a2657600080fd5b505afa15801562000a3b573d6000803e3d6000fd5b505050506040513d602081101562000a5257600080fd5b81019080805190602001909291905050506040518263ffffffff1660e01b8152600401808273ffffffffffffffffffffffffffffffffffffffff168152602001915050600060405180830381600087803b15801562000ab057600080fd5b505af115801562000ac5573d6000803e3d6000fd5b505050508173ffffffffffffffffffffffffffffffffffffffff1663f2fde38b336040518263ffffffff1660e01b8152600401808273ffffffffffffffffffffffffffffffffffffffff168152602001915050600060405180830381600087803b15801562000b3357600080fd5b505af115801562000b48573d6000803e3d6000fd5b505050507fbef8a66e87a3a655b6b607ebb0c475a34d786813679f44b38955644e36392dcf8186604051808373ffffffffffffffffffffffffffffffffffffffff16815260200182600281111562000b9c57fe5b81526020019250505060405180910390a1809350505050919050565b600360009054906101000a900473ffffffffffffffffffffffffffffffffffffffff1681565b60008060009050600060606001600086600281111562000bfa57fe5b600281111562000c0657fe5b815260200190815260200160002080548060200260200160405190810160405280929190818152602001828054801562000c9657602002820191906000526020600020905b8160009054906101000a900473ffffffffffffffffffffffffffffffffffffffff1673ffffffffffffffffffffffffffffffffffffffff168152602001906001019080831162000c4b575b505050505090505b8115801562000cad5750805183105b1562000d8257600081848151811062000cc257fe5b602002602001015190508073ffffffffffffffffffffffffffffffffffffffff1663cecfd170886040518263ffffffff1660e01b8152600401808273ffffffffffffffffffffffffffffffffffffffff16815260200191505060206040518083038186803b15801562000d3457600080fd5b505afa15801562000d49573d6000803e3d6000fd5b505050506040513d602081101562000d6057600080fd5b8101908080519060200190929190505050925083806001019450505062000c9e565b8162000d95576000935050505062000db3565b80600184038151811062000da557fe5b602002602001015193505050505b92915050565b6138dc8062000dc88339019056fe60806040526040518060400160405280600581526020017f322e302e30000000000000000000000000000000000000000000000000000000815250600290805190602001906200005192919062000bf7565b503480156200005f57600080fd5b50604051620038dc380380620038dc833981810160405281019062000085919062000d4a565b6000620000976200068e60201b60201c565b905080600160006101000a81548173ffffffffffffffffffffffffffffffffffffffff021916908373ffffffffffffffffffffffffffffffffffffffff1602179055508073ffffffffffffffffffffffffffffffffffffffff16600073ffffffffffffffffffffffffffffffffffffffff167f8be0079c531659141344cd1fd0a4f28419497f9722a3daafe3b4186f6b6457e060405160405180910390a3506000600660006101000a81548160ff02191690831515021790555082600660016101000a81548160ff021916908360028111156200017057fe5b021790555081600460006101000a81548173ffffffffffffffffffffffffffffffffffffffff021916908373ffffffffffffffffffffffffffffffffffffffff160217905550806000806101000a81548173ffffffffffffffffffffffffffffffffffffffff021916908373ffffffffffffffffffffffffffffffffffffffff160217905550600460009054906101000a900473ffffffffffffffffffffffffffffffffffffffff1673ffffffffffffffffffffffffffffffffffffffff1663654b60606040518163ffffffff1660e01b815260040160206040518083038186803b1580156200025f57600080fd5b505afa15801562000274573d6000803e3d6000fd5b505050506040513d601f19601f820116820180604052508101906200029a919062000cf2565b73ffffffffffffffffffffffffffffffffffffffff16637e3b6d68620002da670de0b6b3a764000062017700620006aa60201b620014351790919060201c565b6040518263ffffffff1660e01b8152600401620002f891906200107a565b602060405180830381600087803b1580156200031357600080fd5b505af115801562000328573d6000803e3d6000fd5b505050506040513d601f19601f820116820180604052508101906200034e919062000cf2565b600360006101000a81548173ffffffffffffffffffffffffffffffffffffffff021916908373ffffffffffffffffffffffffffffffffffffffff160217905550600460009054906101000a900473ffffffffffffffffffffffffffffffffffffffff1673ffffffffffffffffffffffffffffffffffffffff166383bc7a986040518163ffffffff1660e01b815260040160206040518083038186803b158015620003f757600080fd5b505afa1580156200040c573d6000803e3d6000fd5b505050506040513d601f19601f8201168201806040525081019062000432919062000cf2565b73ffffffffffffffffffffffffffffffffffffffff1663b453a99a600660019054906101000a900460ff16600360009054906101000a900473ffffffffffffffffffffffffffffffffffffffff1633600460009054906101000a900473ffffffffffffffffffffffffffffffffffffffff166040518563ffffffff1660e01b8152600401620004c5949392919062000fc7565b602060405180830381600087803b158015620004e057600080fd5b505af1158015620004f5573d6000803e3d6000fd5b505050506040513d601f19601f820116820180604052508101906200051b919062000cf2565b600a60006101000a81548173ffffffffffffffffffffffffffffffffffffffff021916908373ffffffffffffffffffffffffffffffffffffffff16021790555062000593600a60009054906101000a900473ffffffffffffffffffffffffffffffffffffffff166107d060016200073560201b60201c565b600a60009054906101000a900473ffffffffffffffffffffffffffffffffffffffff1673ffffffffffffffffffffffffffffffffffffffff166346f98fec6040518163ffffffff1660e01b8152600401600060405180830381600087803b158015620005fe57600080fd5b505af115801562000613573d6000803e3d6000fd5b5050505060016009604051620006299062000f3f565b908152602001604051809103902060006101000a81548160ff02191690831515021790555060016009604051620006609062000f56565b908152602001604051809103902060006101000a81548160ff021916908315150217905550505050620011c0565b6000620006a562000acd60201b620014bb1760201c565b905090565b600080831415620006bf57600090506200072f565b6000828402905082848281620006d157fe5b04146200072a576040517f08c379a0000000000000000000000000000000000000000000000000000000008152600401808060200182810382526021815260200180620038bb6021913960400191505060405180910390fd5b809150505b92915050565b600073ffffffffffffffffffffffffffffffffffffffff16600a60009054906101000a900473ffffffffffffffffffffffffffffffffffffffff1673ffffffffffffffffffffffffffffffffffffffff161415620007ca576040517f08c379a0000000000000000000000000000000000000000000000000000000008152600401620007c19062001014565b60405180910390fd5b60196008541062000812576040517f08c379a0000000000000000000000000000000000000000000000000000000008152600401620008099062001058565b60405180910390fd5b60001515600760008573ffffffffffffffffffffffffffffffffffffffff1673ffffffffffffffffffffffffffffffffffffffff16815260200190815260200160002060009054906101000a900460ff16151514620008a8576040517f08c379a00000000000000000000000000000000000000000000000000000000081526004016200089f9062001036565b60405180910390fd5b6001600760008573ffffffffffffffffffffffffffffffffffffffff1673ffffffffffffffffffffffffffffffffffffffff16815260200190815260200160002060006101000a81548160ff0219169083151502179055506200091d600160085462000b1560201b620014f71790919060201c565b600881905550600360009054906101000a900473ffffffffffffffffffffffffffffffffffffffff1673ffffffffffffffffffffffffffffffffffffffff1663bc93233f84836040518363ffffffff1660e01b81526004016200098292919062000f6d565b600060405180830381600087803b1580156200099d57600080fd5b505af1158015620009b2573d6000803e3d6000fd5b50505050600360009054906101000a900473ffffffffffffffffffffffffffffffffffffffff1673ffffffffffffffffffffffffffffffffffffffff1663a9059cbb8462000a17670de0b6b3a764000086620006aa60201b620014351790919060201c565b6040518363ffffffff1660e01b815260040162000a3692919062000f9a565b602060405180830381600087803b15801562000a5157600080fd5b505af115801562000a66573d6000803e3d6000fd5b505050506040513d601f19601f8201168201806040525081019062000a8c919062000d1e565b507fede8eed4383e9241982619b94dd83e488b274cced0fd07b8c0092a393defd52f838360405162000ac092919062000f9a565b60405180910390a1505050565b6000601860003690501015801562000af2575062000af13362000b9e60201b60201c565b5b1562000b0857601436033560601c905062000b11565b33905062000b12565b5b90565b60008082840190508381101562000b94576040517f08c379a000000000000000000000000000000000000000000000000000000000815260040180806020018281038252601b8152602001807f536166654d6174683a206164646974696f6e206f766572666c6f77000000000081525060200191505060405180910390fd5b8091505092915050565b60008060009054906101000a900473ffffffffffffffffffffffffffffffffffffffff1673ffffffffffffffffffffffffffffffffffffffff168273ffffffffffffffffffffffffffffffffffffffff16149050919050565b828054600181600116156101000203166002900490600052602060002090601f01602090048101928262000c2f576000855562000c7b565b82601f1062000c4a57805160ff191683800117855562000c7b565b8280016001018555821562000c7b579182015b8281111562000c7a57825182559160200191906001019062000c5d565b5b50905062000c8a919062000c8e565b5090565b5b8082111562000ca957600081600090555060010162000c8f565b5090565b60008151905062000cbe816200117b565b92915050565b60008151905062000cd58162001195565b92915050565b60008151905062000cec81620011af565b92915050565b60006020828403121562000d0557600080fd5b600062000d158482850162000cad565b91505092915050565b60006020828403121562000d3157600080fd5b600062000d418482850162000cc4565b91505092915050565b60008060006060848603121562000d6057600080fd5b600062000d708682870162000cdb565b935050602062000d838682870162000cad565b925050604062000d968682870162000cad565b9150509250925092565b62000dab8162001112565b82525050565b62000dbc81620010b3565b82525050565b62000dcd81620010c7565b82525050565b62000dde8162001126565b82525050565b600062000df360108362001097565b91507f7472656173757279206e6f7420736574000000000000000000000000000000006000830152602082019050919050565b600062000e35600e8362001097565b91507f616c7265616479206d656d6265720000000000000000000000000000000000006000830152602082019050919050565b600062000e77600383620010a8565b91507f44414900000000000000000000000000000000000000000000000000000000006000830152600382019050919050565b600062000eb9600e8362001097565b91507f636f6d6d756e6974792066756c6c0000000000000000000000000000000000006000830152602082019050919050565b600062000efb600483620010a8565b91507f55534443000000000000000000000000000000000000000000000000000000006000830152600482019050919050565b62000f398162001108565b82525050565b600062000f4c8262000e68565b9150819050919050565b600062000f638262000eec565b9150819050919050565b600060408201905062000f84600083018562000db1565b62000f93602083018462000dc2565b9392505050565b600060408201905062000fb1600083018562000db1565b62000fc0602083018462000f2e565b9392505050565b600060808201905062000fde600083018762000dd3565b62000fed602083018662000db1565b62000ffc604083018562000da0565b6200100b606083018462000db1565b95945050505050565b600060208201905081810360008301526200102f8162000de4565b9050919050565b60006020820190508181036000830152620010518162000e26565b9050919050565b60006020820190508181036000830152620010738162000eaa565b9050919050565b600060208201905062001091600083018462000f2e565b92915050565b600082825260208201905092915050565b600081905092915050565b6000620010c082620010e8565b9050919050565b60008115159050919050565b6000819050620010e38262001164565b919050565b600073ffffffffffffffffffffffffffffffffffffffff82169050919050565b6000819050919050565b60006200111f826200113a565b9050919050565b60006200113382620010d3565b9050919050565b600062001147826200114e565b9050919050565b60006200115b82620010e8565b9050919050565bfe5b6003811062001178576200117762001162565b5b50565b6200118681620010b3565b81146200119257600080fd5b50565b620011a081620010c7565b8114620011ac57600080fd5b50565b60038110620011bd57600080fd5b50565b6126eb80620011d06000396000f3fe608060405234801561001057600080fd5b50600436106101585760003560e01c80639250640d116100c3578063c72c4d101161007c578063c72c4d101461035b578063cd7852c014610379578063cecfd170146103a9578063d0e0ba95146103d9578063d66d9e19146103f5578063f2fde38b146103ff57610158565b80639250640d146102ab5780639d63848a146102c9578063a30e3fa9146102e7578063a46eddcf14610305578063af640d0f14610321578063bc910cf91461033f57610158565b8063681c62a111610115578063681c62a1146102215780636f2ddd931461023d578063715018a61461025b578063770ac141146102655780637da0a8771461026f5780638da5cb5b1461028d57610158565b8063049878f31461015d578063150c4aea1461017957806343086f0d14610197578063486ff0cd146101b5578063572b6c05146101d357806358c12dbe14610203575b600080fd5b61017760048036038101906101729190611ebf565b61041b565b005b610181610431565b60405161018e919061229f565b60405180910390f35b61019f61043c565b6040516101ac91906121e0565b60405180910390f35b6101bd610462565b6040516101ca91906122f0565b60405180910390f35b6101ed60048036038101906101e89190611e03565b610500565b6040516101fa9190612284565b60405180910390f35b61020b610559565b60405161021891906121e0565b60405180910390f35b61023b60048036038101906102369190611e7e565b61057f565b005b610245610941565b60405161025291906122d5565b60405180910390f35b610263610954565b005b61026d610adf565b005b610277610c2d565b60405161028491906121e0565b60405180910390f35b610295610c51565b6040516102a291906121e0565b60405180910390f35b6102b3610c7b565b6040516102c09190612442565b60405180910390f35b6102d1610c82565b6040516102de91906121e0565b60405180910390f35b6102ef610ca8565b6040516102fc9190612442565b60405180910390f35b61031f600480360381019061031a9190611e03565b610cae565b005b610329610e08565b6040516103369190612442565b60405180910390f35b61035960048036038101906103549190611f11565b610e0e565b005b610363611059565b60405161037091906122ba565b60405180910390f35b610393600480360381019061038e9190611e7e565b61107f565b6040516103a09190612284565b60405180910390f35b6103c360048036038101906103be9190611e03565b6110b5565b6040516103d09190612284565b60405180910390f35b6103f360048036038101906103ee9190611ebf565b6110d5565b005b6103fd611211565b005b61041960048036038101906104149190611e03565b611225565b005b61042e61042661157f565b82600061158e565b50565b638f5d825f60e01b81565b600b60009054906101000a900473ffffffffffffffffffffffffffffffffffffffff1681565b60028054600181600116156101000203166002900480601f0160208091040260200160405190810160405280929190818152602001828054600181600116156101000203166002900480156104f85780601f106104cd576101008083540402835291602001916104f8565b820191906000526020600020905b8154815290600101906020018083116104db57829003601f168201915b505050505081565b60008060009054906101000a900473ffffffffffffffffffffffffffffffffffffffff1673ffffffffffffffffffffffffffffffffffffffff168273ffffffffffffffffffffffffffffffffffffffff16149050919050565b600a60009054906101000a900473ffffffffffffffffffffffffffffffffffffffff1681565b61058761157f565b73ffffffffffffffffffffffffffffffffffffffff16600160009054906101000a900473ffffffffffffffffffffffffffffffffffffffff1673ffffffffffffffffffffffffffffffffffffffff1614610649576040517f08c379a00000000000000000000000000000000000000000000000000000000081526004018080602001828103825260208152602001807f4f776e61626c653a2063616c6c6572206973206e6f7420746865206f776e657281525060200191505060405180910390fd5b600073ffffffffffffffffffffffffffffffffffffffff16600b60009054906101000a900473ffffffffffffffffffffffffffffffffffffffff1673ffffffffffffffffffffffffffffffffffffffff16146106da576040517f08c379a00000000000000000000000000000000000000000000000000000000081526004016106d1906123a2565b60405180910390fd5b600460009054906101000a900473ffffffffffffffffffffffffffffffffffffffff1673ffffffffffffffffffffffffffffffffffffffff16636589ffb46040518163ffffffff1660e01b815260040160206040518083038186803b15801561074257600080fd5b505afa158015610756573d6000803e3d6000fd5b505050506040513d601f19601f8201168201806040525081019061077a9190611e2c565b73ffffffffffffffffffffffffffffffffffffffff16638ce2108f82600460009054906101000a900473ffffffffffffffffffffffffffffffffffffffff1673ffffffffffffffffffffffffffffffffffffffff16637dc0d1d06040518163ffffffff1660e01b815260040160206040518083038186803b1580156107fe57600080fd5b505afa158015610812573d6000803e3d6000fd5b505050506040513d601f19601f820116820180604052508101906108369190611e2c565b6040518363ffffffff1660e01b8152600401610853929190612312565b602060405180830381600087803b15801561086d57600080fd5b505af1158015610881573d6000803e3d6000fd5b505050506040513d601f19601f820116820180604052508101906108a59190611e2c565b600b60006101000a81548173ffffffffffffffffffffffffffffffffffffffff021916908373ffffffffffffffffffffffffffffffffffffffff1602179055507f5667c8bc14c2967d781cf0b551c676f0dc04474723d2d8175083e25bd638fecd600b60009054906101000a900473ffffffffffffffffffffffffffffffffffffffff1660405161093691906121e0565b60405180910390a150565b600660019054906101000a900460ff1681565b61095c61157f565b73ffffffffffffffffffffffffffffffffffffffff16600160009054906101000a900473ffffffffffffffffffffffffffffffffffffffff1673ffffffffffffffffffffffffffffffffffffffff1614610a1e576040517f08c379a00000000000000000000000000000000000000000000000000000000081526004018080602001828103825260208152602001807f4f776e61626c653a2063616c6c6572206973206e6f7420746865206f776e657281525060200191505060405180910390fd5b600073ffffffffffffffffffffffffffffffffffffffff16600160009054906101000a900473ffffffffffffffffffffffffffffffffffffffff1673ffffffffffffffffffffffffffffffffffffffff167f8be0079c531659141344cd1fd0a4f28419497f9722a3daafe3b4186f6b6457e060405160405180910390a36000600160006101000a81548173ffffffffffffffffffffffffffffffffffffffff021916908373ffffffffffffffffffffffffffffffffffffffff160217905550565b610ae761157f565b73ffffffffffffffffffffffffffffffffffffffff16600160009054906101000a900473ffffffffffffffffffffffffffffffffffffffff1673ffffffffffffffffffffffffffffffffffffffff1614610ba9576040517f08c379a00000000000000000000000000000000000000000000000000000000081526004018080602001828103825260208152602001807f4f776e61626c653a2063616c6c6572206973206e6f7420746865206f776e657281525060200191505060405180910390fd5b600a60009054906101000a900473ffffffffffffffffffffffffffffffffffffffff1673ffffffffffffffffffffffffffffffffffffffff166363a5d2986040518163ffffffff1660e01b8152600401600060405180830381600087803b158015610c1357600080fd5b505af1158015610c27573d6000803e3d6000fd5b50505050565b60008054906101000a900473ffffffffffffffffffffffffffffffffffffffff1681565b6000600160009054906101000a900473ffffffffffffffffffffffffffffffffffffffff16905090565b6201770081565b600360009054906101000a900473ffffffffffffffffffffffffffffffffffffffff1681565b60085481565b610cb661157f565b73ffffffffffffffffffffffffffffffffffffffff16600160009054906101000a900473ffffffffffffffffffffffffffffffffffffffff1673ffffffffffffffffffffffffffffffffffffffff1614610d78576040517f08c379a00000000000000000000000000000000000000000000000000000000081526004018080602001828103825260208152602001807f4f776e61626c653a2063616c6c6572206973206e6f7420746865206f776e657281525060200191505060405180910390fd5b600a60009054906101000a900473ffffffffffffffffffffffffffffffffffffffff1673ffffffffffffffffffffffffffffffffffffffff1663a46eddcf826040518263ffffffff1660e01b8152600401610dd391906121e0565b600060405180830381600087803b158015610ded57600080fd5b505af1158015610e01573d6000803e3d6000fd5b5050505050565b60055481565b600b60009054906101000a900473ffffffffffffffffffffffffffffffffffffffff1673ffffffffffffffffffffffffffffffffffffffff16610e4f61157f565b73ffffffffffffffffffffffffffffffffffffffff1614610ea5576040517f08c379a0000000000000000000000000000000000000000000000000000000008152600401610e9c90612402565b60405180910390fd5b600073ffffffffffffffffffffffffffffffffffffffff168173ffffffffffffffffffffffffffffffffffffffff161461105557600360009054906101000a900473ffffffffffffffffffffffffffffffffffffffff1673ffffffffffffffffffffffffffffffffffffffff1663095ea7b3600a60009054906101000a900473ffffffffffffffffffffffffffffffffffffffff16610f55670de0b6b3a76400008661143590919063ffffffff16565b6040518363ffffffff1660e01b8152600401610f7292919061225b565b602060405180830381600087803b158015610f8c57600080fd5b505af1158015610fa0573d6000803e3d6000fd5b505050506040513d601f19601f82011682018060405250810190610fc49190611e55565b50600a60009054906101000a900473ffffffffffffffffffffffffffffffffffffffff1673ffffffffffffffffffffffffffffffffffffffff1663e377672e83836040518363ffffffff1660e01b815260040161102292919061245d565b600060405180830381600087803b15801561103c57600080fd5b505af1158015611050573d6000803e3d6000fd5b505050505b5050565b600460009054906101000a900473ffffffffffffffffffffffffffffffffffffffff1681565b6009818051602081018201805184825260208301602085012081835280955050505050506000915054906101000a900460ff1681565b60076020528060005260406000206000915054906101000a900460ff1681565b600a60009054906101000a900473ffffffffffffffffffffffffffffffffffffffff1673ffffffffffffffffffffffffffffffffffffffff163373ffffffffffffffffffffffffffffffffffffffff1614611165576040517f08c379a000000000000000000000000000000000000000000000000000000000815260040161115c90612342565b60405180910390fd5b600660009054906101000a900460ff16156111b5576040517f08c379a00000000000000000000000000000000000000000000000000000000081526004016111ac90612422565b60405180910390fd5b806005819055506001600660006101000a81548160ff0219169083151502179055507fc72e55068a99063a2c847c0b87d2808f29d1935171e54ffa3a479533b4046b74816040516112069190612442565b60405180910390a150565b61122361121c61157f565b6000611903565b565b61122d61157f565b73ffffffffffffffffffffffffffffffffffffffff16600160009054906101000a900473ffffffffffffffffffffffffffffffffffffffff1673ffffffffffffffffffffffffffffffffffffffff16146112ef576040517f08c379a00000000000000000000000000000000000000000000000000000000081526004018080602001828103825260208152602001807f4f776e61626c653a2063616c6c6572206973206e6f7420746865206f776e657281525060200191505060405180910390fd5b600073ffffffffffffffffffffffffffffffffffffffff168173ffffffffffffffffffffffffffffffffffffffff161415611375576040517f08c379a000000000000000000000000000000000000000000000000000000000815260040180806020018281038252602681526020018061266f6026913960400191505060405180910390fd5b8073ffffffffffffffffffffffffffffffffffffffff16600160009054906101000a900473ffffffffffffffffffffffffffffffffffffffff1673ffffffffffffffffffffffffffffffffffffffff167f8be0079c531659141344cd1fd0a4f28419497f9722a3daafe3b4186f6b6457e060405160405180910390a380600160006101000a81548173ffffffffffffffffffffffffffffffffffffffff021916908373ffffffffffffffffffffffffffffffffffffffff16021790555050565b60008083141561144857600090506114b5565b600082840290508284828161145957fe5b04146114b0576040517f08c379a00000000000000000000000000000000000000000000000000000000081526004018080602001828103825260218152602001806126956021913960400191505060405180910390fd5b809150505b92915050565b600060186000369050101580156114d757506114d633610500565b5b156114eb57601436033560601c90506114f3565b3390506114f4565b5b90565b600080828401905083811015611575576040517f08c379a000000000000000000000000000000000000000000000000000000000815260040180806020018281038252601b8152602001807f536166654d6174683a206164646974696f6e206f766572666c6f77000000000081525060200191505060405180910390fd5b8091505092915050565b60006115896114bb565b905090565b600073ffffffffffffffffffffffffffffffffffffffff16600a60009054906101000a900473ffffffffffffffffffffffffffffffffffffffff1673ffffffffffffffffffffffffffffffffffffffff161415611620576040517f08c379a000000000000000000000000000000000000000000000000000000000815260040161161790612362565b60405180910390fd5b601960085410611665576040517f08c379a000000000000000000000000000000000000000000000000000000000815260040161165c906123e2565b60405180910390fd5b60001515600760008573ffffffffffffffffffffffffffffffffffffffff1673ffffffffffffffffffffffffffffffffffffffff16815260200190815260200160002060009054906101000a900460ff161515146116f8576040517f08c379a00000000000000000000000000000000000000000000000000000000081526004016116ef906123c2565b60405180910390fd5b6001600760008573ffffffffffffffffffffffffffffffffffffffff1673ffffffffffffffffffffffffffffffffffffffff16815260200190815260200160002060006101000a81548160ff02191690831515021790555061176660016008546114f790919063ffffffff16565b600881905550600360009054906101000a900473ffffffffffffffffffffffffffffffffffffffff1673ffffffffffffffffffffffffffffffffffffffff1663bc93233f84836040518363ffffffff1660e01b81526004016117c9929190612232565b600060405180830381600087803b1580156117e357600080fd5b505af11580156117f7573d6000803e3d6000fd5b50505050600360009054906101000a900473ffffffffffffffffffffffffffffffffffffffff1673ffffffffffffffffffffffffffffffffffffffff1663a9059cbb84611855670de0b6b3a76400008661143590919063ffffffff16565b6040518363ffffffff1660e01b815260040161187292919061225b565b602060405180830381600087803b15801561188c57600080fd5b505af11580156118a0573d6000803e3d6000fd5b505050506040513d601f19601f820116820180604052508101906118c49190611e55565b507fede8eed4383e9241982619b94dd83e488b274cced0fd07b8c0092a393defd52f83836040516118f692919061225b565b60405180910390a1505050565b61190c82611ba6565b6000600760008473ffffffffffffffffffffffffffffffffffffffff1673ffffffffffffffffffffffffffffffffffffffff16815260200190815260200160002060006101000a81548160ff02191690831515021790555061197a6001600854611c3c90919063ffffffff16565b600881905550600360009054906101000a900473ffffffffffffffffffffffffffffffffffffffff1673ffffffffffffffffffffffffffffffffffffffff166323b872dd8330600360009054906101000a900473ffffffffffffffffffffffffffffffffffffffff1673ffffffffffffffffffffffffffffffffffffffff166370a08231876040518263ffffffff1660e01b8152600401611a1b91906121e0565b60206040518083038186803b158015611a3357600080fd5b505afa158015611a47573d6000803e3d6000fd5b505050506040513d601f19601f82011682018060405250810190611a6b9190611ee8565b6040518463ffffffff1660e01b8152600401611a89939291906121fb565b602060405180830381600087803b158015611aa357600080fd5b505af1158015611ab7573d6000803e3d6000fd5b505050506040513d601f19601f82011682018060405250810190611adb9190611e55565b50600360009054906101000a900473ffffffffffffffffffffffffffffffffffffffff1673ffffffffffffffffffffffffffffffffffffffff16632797c7a483836040518363ffffffff1660e01b8152600401611b39929190612232565b600060405180830381600087803b158015611b5357600080fd5b505af1158015611b67573d6000803e3d6000fd5b505050507f6e76fb4c77256006d9c38ec7d82b45a8c8f3c27b1d6766fffc42dfb8de68449282604051611b9a91906121e0565b60405180910390a15050565b60011515600760008373ffffffffffffffffffffffffffffffffffffffff1673ffffffffffffffffffffffffffffffffffffffff16815260200190815260200160002060009054906101000a900460ff16151514611c39576040517f08c379a0000000000000000000000000000000000000000000000000000000008152600401611c3090612382565b60405180910390fd5b50565b6000611c7e83836040518060400160405280601e81526020017f536166654d6174683a207375627472616374696f6e206f766572666c6f770000815250611c86565b905092915050565b6000838311158290611d33576040517f08c379a00000000000000000000000000000000000000000000000000000000081526004018080602001828103825283818151815260200191508051906020019080838360005b83811015611cf8578082015181840152602081019050611cdd565b50505050905090810190601f168015611d255780820380516001836020036101000a031916815260200191505b509250505060405180910390fd5b5060008385039050809150509392505050565b600081359050611d5581612629565b92915050565b600081519050611d6a81612629565b92915050565b600081519050611d7f81612640565b92915050565b600082601f830112611d9657600080fd5b8135611da9611da4826124b7565b612486565b91508082526020830160208301858383011115611dc557600080fd5b611dd08382846125c0565b50505092915050565b600081359050611de881612657565b92915050565b600081519050611dfd81612657565b92915050565b600060208284031215611e1557600080fd5b6000611e2384828501611d46565b91505092915050565b600060208284031215611e3e57600080fd5b6000611e4c84828501611d5b565b91505092915050565b600060208284031215611e6757600080fd5b6000611e7584828501611d70565b91505092915050565b600060208284031215611e9057600080fd5b600082013567ffffffffffffffff811115611eaa57600080fd5b611eb684828501611d85565b91505092915050565b600060208284031215611ed157600080fd5b6000611edf84828501611dd9565b91505092915050565b600060208284031215611efa57600080fd5b6000611f0884828501611dee565b91505092915050565b60008060408385031215611f2457600080fd5b6000611f3285828601611dd9565b9250506020611f4385828601611d46565b9150509250929050565b611f5681612503565b82525050565b611f6581612515565b82525050565b611f7481612521565b82525050565b611f838161258a565b82525050565b611f92816125ae565b82525050565b6000611fa3826124e7565b611fad81856124f2565b9350611fbd8185602086016125cf565b611fc681612604565b840191505092915050565b6000611fde600c836124f2565b91507f6e6f7420747265617375727900000000000000000000000000000000000000006000830152602082019050919050565b600061201e6010836124f2565b91507f7472656173757279206e6f7420736574000000000000000000000000000000006000830152602082019050919050565b600061205e600a836124f2565b91507f6e6f74206d656d626572000000000000000000000000000000000000000000006000830152602082019050919050565b600061209e600d836124f2565b91507f616c7265616479206164646564000000000000000000000000000000000000006000830152602082019050919050565b60006120de600e836124f2565b91507f616c7265616479206d656d6265720000000000000000000000000000000000006000830152602082019050919050565b600061211e600e836124f2565b91507f636f6d6d756e6974792066756c6c0000000000000000000000000000000000006000830152602082019050919050565b600061215e6010836124f2565b91507f6e6f7420676967207265676973747279000000000000000000000000000000006000830152602082019050919050565b600061219e600b836124f2565b91507f616c7265616479207365740000000000000000000000000000000000000000006000830152602082019050919050565b6121da81612580565b82525050565b60006020820190506121f56000830184611f4d565b92915050565b60006060820190506122106000830186611f4d565b61221d6020830185611f4d565b61222a60408301846121d1565b949350505050565b60006040820190506122476000830185611f4d565b6122546020830184611f5c565b9392505050565b60006040820190506122706000830185611f4d565b61227d60208301846121d1565b9392505050565b60006020820190506122996000830184611f5c565b92915050565b60006020820190506122b46000830184611f6b565b92915050565b60006020820190506122cf6000830184611f7a565b92915050565b60006020820190506122ea6000830184611f89565b92915050565b6000602082019050818103600083015261230a8184611f98565b905092915050565b6000604082019050818103600083015261232c8185611f98565b905061233b6020830184611f4d565b9392505050565b6000602082019050818103600083015261235b81611fd1565b9050919050565b6000602082019050818103600083015261237b81612011565b9050919050565b6000602082019050818103600083015261239b81612051565b9050919050565b600060208201905081810360008301526123bb81612091565b9050919050565b600060208201905081810360008301526123db816120d1565b9050919050565b600060208201905081810360008301526123fb81612111565b9050919050565b6000602082019050818103600083015261241b81612151565b9050919050565b6000602082019050818103600083015261243b81612191565b9050919050565b600060208201905061245760008301846121d1565b92915050565b600060408201905061247260008301856121d1565b61247f6020830184611f4d565b9392505050565b6000604051905081810181811067ffffffffffffffff821117156124ad576124ac612602565b5b8060405250919050565b600067ffffffffffffffff8211156124d2576124d1612602565b5b601f19601f8301169050602081019050919050565b600081519050919050565b600082825260208201905092915050565b600061250e82612560565b9050919050565b60008115159050919050565b60007fffffffff0000000000000000000000000000000000000000000000000000000082169050919050565b600081905061255b82612615565b919050565b600073ffffffffffffffffffffffffffffffffffffffff82169050919050565b6000819050919050565b60006125958261259c565b9050919050565b60006125a782612560565b9050919050565b60006125b98261254d565b9050919050565b82818337600083830152505050565b60005b838110156125ed5780820151818401526020810190506125d2565b838111156125fc576000848401525b50505050565bfe5b6000601f19601f8301169050919050565b6003811061262657612625612602565b5b50565b61263281612503565b811461263d57600080fd5b50565b61264981612515565b811461265457600080fd5b50565b61266081612580565b811461266b57600080fd5b5056fe4f776e61626c653a206e6577206f776e657220697320746865207a65726f2061646472657373536166654d6174683a206d756c7469706c69636174696f6e206f766572666c6f77a26469706673582212206b1216074553fc42249e9ecdb894162cdd083583e6f028a66830eb71e6aab48164736f6c63430007040033536166654d6174683a206d756c7469706c69636174696f6e206f766572666c6f77a26469706673582212204d46847437c960c66fcd3f5eebfcc575064979eb97703fea981309eb51cef9e664736f6c63430007040033",
  "linkReferences": {},
  "deployedLinkReferences": {}
}