{
  "_format": "hh-sol-artifact-1",
  "contractName": "CommunitiesRegistry",
  "sourceName": "contracts/CommunitiesRegistry.sol",
  "abi": [
    {
      "inputs": [
        {
          "internalType": "address",
          "name": "_addressesProvider",
          "type": "address"
        },
        {
          "internalType": "address",
          "name": "_forwarder",
          "type": "address"
        }
      ],
      "stateMutability": "nonpayable",
      "type": "constructor"
    },
    {
      "anonymous": false,
      "inputs": [
        {
          "indexed": false,
          "internalType": "address",
          "name": "_newCommunityAddress",
          "type": "address"
        },
        {
          "indexed": false,
          "internalType": "enum DataTypes.CommunityTemplate",
          "name": "_template",
          "type": "uint8"
        }
      ],
      "name": "CommunityCreated",
      "type": "event"
    },
    {
      "anonymous": false,
      "inputs": [
        {
          "indexed": false,
          "internalType": "address",
          "name": "_community",
          "type": "address"
        },
        {
          "indexed": false,
          "internalType": "address",
          "name": "_treasury",
          "type": "address"
        }
      ],
      "name": "CommunityTreasurySet",
      "type": "event"
    },
    {
      "anonymous": false,
      "inputs": [
        {
          "indexed": false,
          "internalType": "enum DataTypes.CommunityTemplate",
          "name": "_template",
          "type": "uint8"
        },
        {
          "indexed": false,
          "internalType": "address",
          "name": "_dao",
          "type": "address"
        }
      ],
      "name": "DaoSet",
      "type": "event"
    },
    {
      "inputs": [],
      "name": "IDENTITY",
      "outputs": [
        {
          "internalType": "bytes4",
          "name": "",
          "type": "bytes4"
        }
      ],
      "stateMutability": "view",
      "type": "function"
    },
    {
      "inputs": [
        {
          "internalType": "address",
          "name": "_community",
          "type": "address"
        }
      ],
      "name": "addCommunityTreasury",
      "outputs": [],
      "stateMutability": "nonpayable",
      "type": "function"
    },
    {
      "inputs": [],
      "name": "addressesProvider",
      "outputs": [
        {
          "internalType": "address",
          "name": "",
          "type": "address"
        }
      ],
      "stateMutability": "view",
      "type": "function"
    },
    {
      "inputs": [
        {
          "internalType": "enum DataTypes.CommunityTemplate",
          "name": "",
          "type": "uint8"
        },
        {
          "internalType": "uint256",
          "name": "",
          "type": "uint256"
        }
      ],
      "name": "communities",
      "outputs": [
        {
          "internalType": "address",
          "name": "",
          "type": "address"
        }
      ],
      "stateMutability": "view",
      "type": "function"
    },
    {
      "inputs": [
        {
          "internalType": "enum DataTypes.CommunityTemplate",
          "name": "_template",
          "type": "uint8"
        }
      ],
      "name": "createCommunity",
      "outputs": [
        {
          "internalType": "address",
          "name": "",
          "type": "address"
        }
      ],
      "stateMutability": "nonpayable",
      "type": "function"
    },
    {
      "inputs": [
        {
          "internalType": "address",
          "name": "_user",
          "type": "address"
        },
        {
          "internalType": "enum DataTypes.CommunityTemplate",
          "name": "_template",
          "type": "uint8"
        }
      ],
      "name": "currentCommunityOfUser",
      "outputs": [
        {
          "internalType": "address",
          "name": "communityAddress",
          "type": "address"
        }
      ],
      "stateMutability": "view",
      "type": "function"
    },
    {
      "inputs": [
        {
          "internalType": "enum DataTypes.CommunityTemplate",
          "name": "",
          "type": "uint8"
        }
      ],
      "name": "daos",
      "outputs": [
        {
          "internalType": "address",
          "name": "",
          "type": "address"
        }
      ],
      "stateMutability": "view",
      "type": "function"
    },
    {
      "inputs": [],
      "name": "forwarder",
      "outputs": [
        {
          "internalType": "address",
          "name": "",
          "type": "address"
        }
      ],
      "stateMutability": "view",
      "type": "function"
    },
    {
      "inputs": [
        {
          "internalType": "enum DataTypes.CommunityTemplate",
          "name": "_template",
          "type": "uint8"
        }
      ],
      "name": "getCommunitiesNumber",
      "outputs": [
        {
          "internalType": "uint256",
          "name": "",
          "type": "uint256"
        }
      ],
      "stateMutability": "view",
      "type": "function"
    },
    {
      "inputs": [
        {
          "internalType": "enum DataTypes.CommunityTemplate",
          "name": "_template",
          "type": "uint8"
        },
        {
          "internalType": "address",
          "name": "_dao",
          "type": "address"
        },
        {
          "internalType": "bool",
          "name": "_override",
          "type": "bool"
        }
      ],
      "name": "setDao",
      "outputs": [],
      "stateMutability": "nonpayable",
      "type": "function"
    }
  ],
  "bytecode": "0x608060405234801561001057600080fd5b506040516144c63803806144c68339818101604052604081101561003357600080fd5b81019080805190602001909291908051906020019092919050505081600260006101000a81548173ffffffffffffffffffffffffffffffffffffffff021916908373ffffffffffffffffffffffffffffffffffffffff16021790555080600360006101000a81548173ffffffffffffffffffffffffffffffffffffffff021916908373ffffffffffffffffffffffffffffffffffffffff16021790555050506143e5806100e16000396000f3fe60806040523480156200001157600080fd5b5060043610620000ac5760003560e01c8063cd6d7726116200006f578063cd6d77261462000234578063d12499b1146200027b578063e1b871e314620002db578063f645d4f91462000339578063fc1ae9c2146200036f57620000ac565b80631013afe714620000b1578063150c4aea146200010f5780638b0d02ca146200014e578063a491705e14620001b6578063c72c4d1014620001fe575b600080fd5b620000e360048036036020811015620000c957600080fd5b81019080803560ff169060200190929190505050620003ed565b604051808273ffffffffffffffffffffffffffffffffffffffff16815260200191505060405180910390f35b6200011962000420565b60405180827bffffffffffffffffffffffffffffffffffffffffffffffffffffffff1916815260200191505060405180910390f35b6200018a600480360360408110156200016657600080fd5b81019080803560ff169060200190929190803590602001909291905050506200042b565b604051808273ffffffffffffffffffffffffffffffffffffffff16815260200191505060405180910390f35b620001e860048036036020811015620001ce57600080fd5b81019080803560ff1690602001909291905050506200047a565b6040518082815260200191505060405180910390f35b62000208620004b2565b604051808273ffffffffffffffffffffffffffffffffffffffff16815260200191505060405180910390f35b62000279600480360360208110156200024c57600080fd5b81019080803573ffffffffffffffffffffffffffffffffffffffff169060200190929190505050620004d8565b005b620002d9600480360360608110156200029357600080fd5b81019080803560ff169060200190929190803573ffffffffffffffffffffffffffffffffffffffff1690602001909291908035151590602001909291905050506200074e565b005b6200030d60048036036020811015620002f357600080fd5b81019080803560ff169060200190929190505050620009bd565b604051808273ffffffffffffffffffffffffffffffffffffffff16815260200191505060405180910390f35b6200034362000cf8565b604051808273ffffffffffffffffffffffffffffffffffffffff16815260200191505060405180910390f35b620003c1600480360360408110156200038757600080fd5b81019080803573ffffffffffffffffffffffffffffffffffffffff169060200190929190803560ff16906020019092919050505062000d1e565b604051808273ffffffffffffffffffffffffffffffffffffffff16815260200191505060405180910390f35b60006020528060005260406000206000915054906101000a900473ffffffffffffffffffffffffffffffffffffffff1681565b639463504660e01b81565b600160205281600052604060002081815481106200044857600080fd5b906000526020600020016000915091509054906101000a900473ffffffffffffffffffffffffffffffffffffffff1681565b6000600160008360028111156200048d57fe5b60028111156200049957fe5b8152602001908152602001600020805490509050919050565b600260009054906101000a900473ffffffffffffffffffffffffffffffffffffffff1681565b60008173ffffffffffffffffffffffffffffffffffffffff16636f2ddd936040518163ffffffff1660e01b815260040160206040518083038186803b1580156200052157600080fd5b505afa15801562000536573d6000803e3d6000fd5b505050506040513d60208110156200054d57600080fd5b8101908080519060200190929190505050905060008060008360028111156200057257fe5b60028111156200057e57fe5b815260200190815260200160002060009054906101000a900473ffffffffffffffffffffffffffffffffffffffff16905060008373ffffffffffffffffffffffffffffffffffffffff1663cd6d7726836040518263ffffffff1660e01b8152600401808273ffffffffffffffffffffffffffffffffffffffff168152602001915050602060405180830381600087803b1580156200061b57600080fd5b505af115801562000630573d6000803e3d6000fd5b505050506040513d60208110156200064757600080fd5b810190808051906020019092919050505090508173ffffffffffffffffffffffffffffffffffffffff1663a263605d826040518263ffffffff1660e01b8152600401808273ffffffffffffffffffffffffffffffffffffffff168152602001915050600060405180830381600087803b158015620006c457600080fd5b505af1158015620006d9573d6000803e3d6000fd5b505050507f893a7b760507e110d0b6dad8946d31895e410295c5bcf56e36a7000e31db80108482604051808373ffffffffffffffffffffffffffffffffffffffff1681526020018273ffffffffffffffffffffffffffffffffffffffff1681526020019250505060405180910390a150505050565b801562000800576000600160008560028111156200076857fe5b60028111156200077457fe5b81526020019081526020016000208054905014620007fa576040517f08c379a000000000000000000000000000000000000000000000000000000000815260040180806020018281038252600f8152602001807f68617320636f6d6d756e6974696573000000000000000000000000000000000081525060200191505060405180910390fd5b620008ee565b600073ffffffffffffffffffffffffffffffffffffffff166000808560028111156200082857fe5b60028111156200083457fe5b815260200190815260200160002060009054906101000a900473ffffffffffffffffffffffffffffffffffffffff1673ffffffffffffffffffffffffffffffffffffffff1614620008ed576040517f08c379a000000000000000000000000000000000000000000000000000000000815260040180806020018281038252600b8152602001807f616c72656164792073657400000000000000000000000000000000000000000081525060200191505060405180910390fd5b5b81600080856002811115620008ff57fe5b60028111156200090b57fe5b815260200190815260200160002060006101000a81548173ffffffffffffffffffffffffffffffffffffffff021916908373ffffffffffffffffffffffffffffffffffffffff1602179055507f2361cbc68f3d45ab9b0148f6c09dcf765c33021991fef1b3384792dd3881c0918383604051808360028111156200098b57fe5b81526020018273ffffffffffffffffffffffffffffffffffffffff1681526020019250505060405180910390a1505050565b600080600080846002811115620009d057fe5b6002811115620009dc57fe5b815260200190815260200160002060009054906101000a900473ffffffffffffffffffffffffffffffffffffffff169050600073ffffffffffffffffffffffffffffffffffffffff168173ffffffffffffffffffffffffffffffffffffffff16141562000ab1576040517f08c379a000000000000000000000000000000000000000000000000000000000815260040180806020018281038252600b8152602001807f64616f206e6f742073657400000000000000000000000000000000000000000081525060200191505060405180910390fd5b600083600260009054906101000a900473ffffffffffffffffffffffffffffffffffffffff16600360009054906101000a900473ffffffffffffffffffffffffffffffffffffffff1660405162000b089062000ef9565b8084600281111562000b1657fe5b81526020018373ffffffffffffffffffffffffffffffffffffffff1681526020018273ffffffffffffffffffffffffffffffffffffffff1681526020019350505050604051809103906000f08015801562000b75573d6000803e3d6000fd5b50905060008190506001600086600281111562000b8e57fe5b600281111562000b9a57fe5b8152602001908152602001600020819080600181540180825580915050600190039060005260206000200160009091909190916101000a81548173ffffffffffffffffffffffffffffffffffffffff021916908373ffffffffffffffffffffffffffffffffffffffff1602179055508173ffffffffffffffffffffffffffffffffffffffff1663f2fde38b336040518263ffffffff1660e01b8152600401808273ffffffffffffffffffffffffffffffffffffffff168152602001915050600060405180830381600087803b15801562000c7357600080fd5b505af115801562000c88573d6000803e3d6000fd5b505050507fbef8a66e87a3a655b6b607ebb0c475a34d786813679f44b38955644e36392dcf8186604051808373ffffffffffffffffffffffffffffffffffffffff16815260200182600281111562000cdc57fe5b81526020019250505060405180910390a1809350505050919050565b600360009054906101000a900473ffffffffffffffffffffffffffffffffffffffff1681565b60008060009050600060606001600086600281111562000d3a57fe5b600281111562000d4657fe5b815260200190815260200160002080548060200260200160405190810160405280929190818152602001828054801562000dd657602002820191906000526020600020905b8160009054906101000a900473ffffffffffffffffffffffffffffffffffffffff1673ffffffffffffffffffffffffffffffffffffffff168152602001906001019080831162000d8b575b505050505090505b8115801562000ded5750805183105b1562000ec257600081848151811062000e0257fe5b602002602001015190508073ffffffffffffffffffffffffffffffffffffffff1663cecfd170886040518263ffffffff1660e01b8152600401808273ffffffffffffffffffffffffffffffffffffffff16815260200191505060206040518083038186803b15801562000e7457600080fd5b505afa15801562000e89573d6000803e3d6000fd5b505050506040513d602081101562000ea057600080fd5b8101908080519060200190929190505050925083806001019450505062000dde565b8162000ed5576000935050505062000ef3565b80600184038151811062000ee557fe5b602002602001015193505050505b92915050565b6134a88062000f088339019056fe60806040526040518060400160405280600581526020017f322e302e3000000000000000000000000000000000000000000000000000000081525060029080519060200190620000519291906200059d565b503480156200005f57600080fd5b50604051620034a8380380620034a88339818101604052810190620000859190620006ad565b6000620000976200045560201b60201c565b905080600160006101000a81548173ffffffffffffffffffffffffffffffffffffffff021916908373ffffffffffffffffffffffffffffffffffffffff1602179055508073ffffffffffffffffffffffffffffffffffffffff16600073ffffffffffffffffffffffffffffffffffffffff167f8be0079c531659141344cd1fd0a4f28419497f9722a3daafe3b4186f6b6457e060405160405180910390a3506000600660006101000a81548160ff02191690831515021790555082600660016101000a81548160ff021916908360028111156200017057fe5b021790555081600460006101000a81548173ffffffffffffffffffffffffffffffffffffffff021916908373ffffffffffffffffffffffffffffffffffffffff160217905550806000806101000a81548173ffffffffffffffffffffffffffffffffffffffff021916908373ffffffffffffffffffffffffffffffffffffffff160217905550620002066200045560201b60201c565b600c60006101000a81548173ffffffffffffffffffffffffffffffffffffffff021916908373ffffffffffffffffffffffffffffffffffffffff160217905550600460009054906101000a900473ffffffffffffffffffffffffffffffffffffffff1673ffffffffffffffffffffffffffffffffffffffff1663654b60606040518163ffffffff1660e01b815260040160206040518083038186803b158015620002af57600080fd5b505afa158015620002c4573d6000803e3d6000fd5b505050506040513d601f19601f82011682018060405250810190620002ea919062000681565b73ffffffffffffffffffffffffffffffffffffffff16637e3b6d686200032a670de0b6b3a7640000620177006200047160201b620019071790919060201c565b6040518263ffffffff1660e01b8152600401620003489190620007c6565b602060405180830381600087803b1580156200036357600080fd5b505af115801562000378573d6000803e3d6000fd5b505050506040513d601f19601f820116820180604052508101906200039e919062000681565b600360006101000a81548173ffffffffffffffffffffffffffffffffffffffff021916908373ffffffffffffffffffffffffffffffffffffffff16021790555060016009604051620003f09062000798565b908152602001604051809103902060006101000a81548160ff021916908315150217905550600160096040516200042790620007af565b908152602001604051809103902060006101000a81548160ff02191690831515021790555050505062000857565b60006200046c620004fc60201b6200198d1760201c565b905090565b600080831415620004865760009050620004f6565b60008284029050828482816200049857fe5b0414620004f1576040517f08c379a0000000000000000000000000000000000000000000000000000000008152600401808060200182810382526021815260200180620034876021913960400191505060405180910390fd5b809150505b92915050565b6000601860003690501015801562000521575062000520336200054460201b60201c565b5b156200053757601436033560601c905062000540565b33905062000541565b5b90565b60008060009054906101000a900473ffffffffffffffffffffffffffffffffffffffff1673ffffffffffffffffffffffffffffffffffffffff168273ffffffffffffffffffffffffffffffffffffffff16149050919050565b828054600181600116156101000203166002900490600052602060002090601f016020900481019282620005d5576000855562000621565b82601f10620005f057805160ff191683800117855562000621565b8280016001018555821562000621579182015b828111156200062057825182559160200191906001019062000603565b5b50905062000630919062000634565b5090565b5b808211156200064f57600081600090555060010162000635565b5090565b60008151905062000664816200082c565b92915050565b6000815190506200067b8162000846565b92915050565b6000602082840312156200069457600080fd5b6000620006a48482850162000653565b91505092915050565b600080600060608486031215620006c357600080fd5b6000620006d3868287016200066a565b9350506020620006e68682870162000653565b9250506040620006f98682870162000653565b9150509250925092565b600062000712600383620007e3565b91507f44414900000000000000000000000000000000000000000000000000000000006000830152600382019050919050565b600062000754600483620007e3565b91507f55534443000000000000000000000000000000000000000000000000000000006000830152600482019050919050565b620007928162000822565b82525050565b6000620007a58262000703565b9150819050919050565b6000620007bc8262000745565b9150819050919050565b6000602082019050620007dd600083018462000787565b92915050565b600081905092915050565b6000620007fb8262000802565b9050919050565b600073ffffffffffffffffffffffffffffffffffffffff82169050919050565b6000819050919050565b6200083781620007ee565b81146200084357600080fd5b50565b600381106200085457600080fd5b50565b612c2080620008676000396000f3fe608060405234801561001057600080fd5b506004361061018e5760003560e01c80639250640d116100de578063c72c4d1011610097578063cecfd17011610071578063cecfd1701461042d578063d0e0ba951461045d578063d66d9e1914610479578063f2fde38b146104835761018e565b8063c72c4d10146103af578063cd6d7726146103cd578063cd7852c0146103fd5761018e565b80639250640d146102ff5780639d63848a1461031d578063a30e3fa91461033b578063a46eddcf14610359578063af640d0f14610375578063bc910cf9146103935761018e565b8063681c62a11161014b578063715018a611610125578063715018a6146102af578063770ac141146102b95780637da0a877146102c35780638da5cb5b146102e15761018e565b8063681c62a1146102575780636873cd79146102735780636f2ddd93146102915761018e565b8063049878f314610193578063150c4aea146101af57806343086f0d146101cd578063486ff0cd146101eb578063572b6c051461020957806358c12dbe14610239575b600080fd5b6101ad60048036038101906101a8919061230a565b61049f565b005b6101b76104b5565b6040516101c49190612739565b60405180910390f35b6101d56104c0565b6040516101e2919061267a565b60405180910390f35b6101f36104e6565b60405161020091906127cf565b60405180910390f35b610223600480360381019061021e919061224e565b610584565b604051610230919061271e565b60405180910390f35b6102416105dd565b60405161024e919061267a565b60405180910390f35b610271600480360381019061026c91906122c9565b610603565b005b61027b6109aa565b604051610288919061267a565b60405180910390f35b6102996109d0565b6040516102a6919061276f565b60405180910390f35b6102b76109e3565b005b6102c1610b53565b005b6102cb610c86565b6040516102d8919061267a565b60405180910390f35b6102e9610caa565b6040516102f6919061267a565b60405180910390f35b610307610cd4565b6040516103149190612941565b60405180910390f35b610325610cdb565b604051610332919061267a565b60405180910390f35b610343610d01565b6040516103509190612941565b60405180910390f35b610373600480360381019061036e919061224e565b610d07565b005b61037d610e46565b60405161038a9190612941565b60405180910390f35b6103ad60048036038101906103a8919061235c565b610e4c565b005b6103b7611097565b6040516103c49190612754565b60405180910390f35b6103e760048036038101906103e2919061224e565b6110bd565b6040516103f4919061267a565b60405180910390f35b610417600480360381019061041291906122c9565b61156c565b604051610424919061271e565b60405180910390f35b6104476004803603810190610442919061224e565b6115a2565b604051610454919061271e565b60405180910390f35b6104776004803603810190610472919061230a565b6115c2565b005b6104816116fe565b005b61049d6004803603810190610498919061224e565b611712565b005b6104b26104aa6119c9565b8260006119d8565b50565b638f5d825f60e01b81565b600b60009054906101000a900473ffffffffffffffffffffffffffffffffffffffff1681565b60028054600181600116156101000203166002900480601f01602080910402602001604051908101604052809291908181526020018280546001816001161561010002031660029004801561057c5780601f106105515761010080835404028352916020019161057c565b820191906000526020600020905b81548152906001019060200180831161055f57829003601f168201915b505050505081565b60008060009054906101000a900473ffffffffffffffffffffffffffffffffffffffff1673ffffffffffffffffffffffffffffffffffffffff168273ffffffffffffffffffffffffffffffffffffffff16149050919050565b600a60009054906101000a900473ffffffffffffffffffffffffffffffffffffffff1681565b61060b6119c9565b73ffffffffffffffffffffffffffffffffffffffff16610629610caa565b73ffffffffffffffffffffffffffffffffffffffff16146106b2576040517f08c379a00000000000000000000000000000000000000000000000000000000081526004018080602001828103825260208152602001807f4f776e61626c653a2063616c6c6572206973206e6f7420746865206f776e657281525060200191505060405180910390fd5b600073ffffffffffffffffffffffffffffffffffffffff16600b60009054906101000a900473ffffffffffffffffffffffffffffffffffffffff1673ffffffffffffffffffffffffffffffffffffffff1614610743576040517f08c379a000000000000000000000000000000000000000000000000000000000815260040161073a90612881565b60405180910390fd5b600460009054906101000a900473ffffffffffffffffffffffffffffffffffffffff1673ffffffffffffffffffffffffffffffffffffffff16636589ffb46040518163ffffffff1660e01b815260040160206040518083038186803b1580156107ab57600080fd5b505afa1580156107bf573d6000803e3d6000fd5b505050506040513d601f19601f820116820180604052508101906107e39190612277565b73ffffffffffffffffffffffffffffffffffffffff16638ce2108f82600460009054906101000a900473ffffffffffffffffffffffffffffffffffffffff1673ffffffffffffffffffffffffffffffffffffffff16637dc0d1d06040518163ffffffff1660e01b815260040160206040518083038186803b15801561086757600080fd5b505afa15801561087b573d6000803e3d6000fd5b505050506040513d601f19601f8201168201806040525081019061089f9190612277565b6040518363ffffffff1660e01b81526004016108bc9291906127f1565b602060405180830381600087803b1580156108d657600080fd5b505af11580156108ea573d6000803e3d6000fd5b505050506040513d601f19601f8201168201806040525081019061090e9190612277565b600b60006101000a81548173ffffffffffffffffffffffffffffffffffffffff021916908373ffffffffffffffffffffffffffffffffffffffff1602179055507f5667c8bc14c2967d781cf0b551c676f0dc04474723d2d8175083e25bd638fecd600b60009054906101000a900473ffffffffffffffffffffffffffffffffffffffff1660405161099f919061267a565b60405180910390a150565b600c60009054906101000a900473ffffffffffffffffffffffffffffffffffffffff1681565b600660019054906101000a900460ff1681565b6109eb6119c9565b73ffffffffffffffffffffffffffffffffffffffff16610a09610caa565b73ffffffffffffffffffffffffffffffffffffffff1614610a92576040517f08c379a00000000000000000000000000000000000000000000000000000000081526004018080602001828103825260208152602001807f4f776e61626c653a2063616c6c6572206973206e6f7420746865206f776e657281525060200191505060405180910390fd5b600073ffffffffffffffffffffffffffffffffffffffff16600160009054906101000a900473ffffffffffffffffffffffffffffffffffffffff1673ffffffffffffffffffffffffffffffffffffffff167f8be0079c531659141344cd1fd0a4f28419497f9722a3daafe3b4186f6b6457e060405160405180910390a36000600160006101000a81548173ffffffffffffffffffffffffffffffffffffffff021916908373ffffffffffffffffffffffffffffffffffffffff160217905550565b610b5b6119c9565b73ffffffffffffffffffffffffffffffffffffffff16610b79610caa565b73ffffffffffffffffffffffffffffffffffffffff1614610c02576040517f08c379a00000000000000000000000000000000000000000000000000000000081526004018080602001828103825260208152602001807f4f776e61626c653a2063616c6c6572206973206e6f7420746865206f776e657281525060200191505060405180910390fd5b600a60009054906101000a900473ffffffffffffffffffffffffffffffffffffffff1673ffffffffffffffffffffffffffffffffffffffff166363a5d2986040518163ffffffff1660e01b8152600401600060405180830381600087803b158015610c6c57600080fd5b505af1158015610c80573d6000803e3d6000fd5b50505050565b60008054906101000a900473ffffffffffffffffffffffffffffffffffffffff1681565b6000600160009054906101000a900473ffffffffffffffffffffffffffffffffffffffff16905090565b6201770081565b600360009054906101000a900473ffffffffffffffffffffffffffffffffffffffff1681565b60085481565b610d0f6119c9565b73ffffffffffffffffffffffffffffffffffffffff16610d2d610caa565b73ffffffffffffffffffffffffffffffffffffffff1614610db6576040517f08c379a00000000000000000000000000000000000000000000000000000000081526004018080602001828103825260208152602001807f4f776e61626c653a2063616c6c6572206973206e6f7420746865206f776e657281525060200191505060405180910390fd5b600a60009054906101000a900473ffffffffffffffffffffffffffffffffffffffff1673ffffffffffffffffffffffffffffffffffffffff1663a46eddcf826040518263ffffffff1660e01b8152600401610e11919061267a565b600060405180830381600087803b158015610e2b57600080fd5b505af1158015610e3f573d6000803e3d6000fd5b5050505050565b60055481565b600b60009054906101000a900473ffffffffffffffffffffffffffffffffffffffff1673ffffffffffffffffffffffffffffffffffffffff16610e8d6119c9565b73ffffffffffffffffffffffffffffffffffffffff1614610ee3576040517f08c379a0000000000000000000000000000000000000000000000000000000008152600401610eda90612901565b60405180910390fd5b600073ffffffffffffffffffffffffffffffffffffffff168173ffffffffffffffffffffffffffffffffffffffff161461109357600360009054906101000a900473ffffffffffffffffffffffffffffffffffffffff1673ffffffffffffffffffffffffffffffffffffffff1663095ea7b3600a60009054906101000a900473ffffffffffffffffffffffffffffffffffffffff16610f93670de0b6b3a76400008661190790919063ffffffff16565b6040518363ffffffff1660e01b8152600401610fb09291906126f5565b602060405180830381600087803b158015610fca57600080fd5b505af1158015610fde573d6000803e3d6000fd5b505050506040513d601f19601f8201168201806040525081019061100291906122a0565b50600a60009054906101000a900473ffffffffffffffffffffffffffffffffffffffff1673ffffffffffffffffffffffffffffffffffffffff1663e377672e83836040518363ffffffff1660e01b815260040161106092919061295c565b600060405180830381600087803b15801561107a57600080fd5b505af115801561108e573d6000803e3d6000fd5b505050505b5050565b600460009054906101000a900473ffffffffffffffffffffffffffffffffffffffff1681565b6000600c60009054906101000a900473ffffffffffffffffffffffffffffffffffffffff1673ffffffffffffffffffffffffffffffffffffffff166111006119c9565b73ffffffffffffffffffffffffffffffffffffffff1614611156576040517f08c379a000000000000000000000000000000000000000000000000000000000815260040161114d906128a1565b60405180910390fd5b600073ffffffffffffffffffffffffffffffffffffffff16600a60009054906101000a900473ffffffffffffffffffffffffffffffffffffffff1673ffffffffffffffffffffffffffffffffffffffff16146111e7576040517f08c379a00000000000000000000000000000000000000000000000000000000081526004016111de90612921565b60405180910390fd5b600460009054906101000a900473ffffffffffffffffffffffffffffffffffffffff1673ffffffffffffffffffffffffffffffffffffffff166383bc7a986040518163ffffffff1660e01b815260040160206040518083038186803b15801561124f57600080fd5b505afa158015611263573d6000803e3d6000fd5b505050506040513d601f19601f820116820180604052508101906112879190612277565b73ffffffffffffffffffffffffffffffffffffffff1663b453a99a600660019054906101000a900460ff16600360009054906101000a900473ffffffffffffffffffffffffffffffffffffffff1633600460009054906101000a900473ffffffffffffffffffffffffffffffffffffffff166040518563ffffffff1660e01b8152600401611318949392919061278a565b602060405180830381600087803b15801561133257600080fd5b505af1158015611346573d6000803e3d6000fd5b505050506040513d601f19601f8201168201806040525081019061136a9190612277565b600a60006101000a81548173ffffffffffffffffffffffffffffffffffffffff021916908373ffffffffffffffffffffffffffffffffffffffff1602179055506113da600a60009054906101000a900473ffffffffffffffffffffffffffffffffffffffff166107d060016119d8565b600a60009054906101000a900473ffffffffffffffffffffffffffffffffffffffff1673ffffffffffffffffffffffffffffffffffffffff166346f98fec6040518163ffffffff1660e01b8152600401600060405180830381600087803b15801561144457600080fd5b505af1158015611458573d6000803e3d6000fd5b50505050600a60009054906101000a900473ffffffffffffffffffffffffffffffffffffffff1673ffffffffffffffffffffffffffffffffffffffff1663a46eddcf836040518263ffffffff1660e01b81526004016114b7919061267a565b600060405180830381600087803b1580156114d157600080fd5b505af11580156114e5573d6000803e3d6000fd5b505050507f3c864541ef71378c6229510ed90f376565ee42d9c5e0904a984a9e863e6db44f600a60009054906101000a900473ffffffffffffffffffffffffffffffffffffffff1660405161153a919061267a565b60405180910390a1600a60009054906101000a900473ffffffffffffffffffffffffffffffffffffffff169050919050565b6009818051602081018201805184825260208301602085012081835280955050505050506000915054906101000a900460ff1681565b60076020528060005260406000206000915054906101000a900460ff1681565b600a60009054906101000a900473ffffffffffffffffffffffffffffffffffffffff1673ffffffffffffffffffffffffffffffffffffffff163373ffffffffffffffffffffffffffffffffffffffff1614611652576040517f08c379a000000000000000000000000000000000000000000000000000000000815260040161164990612821565b60405180910390fd5b600660009054906101000a900460ff16156116a2576040517f08c379a000000000000000000000000000000000000000000000000000000000815260040161169990612921565b60405180910390fd5b806005819055506001600660006101000a81548160ff0219169083151502179055507fc72e55068a99063a2c847c0b87d2808f29d1935171e54ffa3a479533b4046b74816040516116f39190612941565b60405180910390a150565b6117106117096119c9565b6000611d4d565b565b61171a6119c9565b73ffffffffffffffffffffffffffffffffffffffff16611738610caa565b73ffffffffffffffffffffffffffffffffffffffff16146117c1576040517f08c379a00000000000000000000000000000000000000000000000000000000081526004018080602001828103825260208152602001807f4f776e61626c653a2063616c6c6572206973206e6f7420746865206f776e657281525060200191505060405180910390fd5b600073ffffffffffffffffffffffffffffffffffffffff168173ffffffffffffffffffffffffffffffffffffffff161415611847576040517f08c379a0000000000000000000000000000000000000000000000000000000008152600401808060200182810382526026815260200180612ba46026913960400191505060405180910390fd5b8073ffffffffffffffffffffffffffffffffffffffff16600160009054906101000a900473ffffffffffffffffffffffffffffffffffffffff1673ffffffffffffffffffffffffffffffffffffffff167f8be0079c531659141344cd1fd0a4f28419497f9722a3daafe3b4186f6b6457e060405160405180910390a380600160006101000a81548173ffffffffffffffffffffffffffffffffffffffff021916908373ffffffffffffffffffffffffffffffffffffffff16021790555050565b60008083141561191a5760009050611987565b600082840290508284828161192b57fe5b0414611982576040517f08c379a0000000000000000000000000000000000000000000000000000000008152600401808060200182810382526021815260200180612bca6021913960400191505060405180910390fd5b809150505b92915050565b600060186000369050101580156119a957506119a833610584565b5b156119bd57601436033560601c90506119c5565b3390506119c6565b5b90565b60006119d361198d565b905090565b600073ffffffffffffffffffffffffffffffffffffffff16600a60009054906101000a900473ffffffffffffffffffffffffffffffffffffffff1673ffffffffffffffffffffffffffffffffffffffff161415611a6a576040517f08c379a0000000000000000000000000000000000000000000000000000000008152600401611a6190612841565b60405180910390fd5b601960085410611aaf576040517f08c379a0000000000000000000000000000000000000000000000000000000008152600401611aa6906128e1565b60405180910390fd5b60001515600760008573ffffffffffffffffffffffffffffffffffffffff1673ffffffffffffffffffffffffffffffffffffffff16815260200190815260200160002060009054906101000a900460ff16151514611b42576040517f08c379a0000000000000000000000000000000000000000000000000000000008152600401611b39906128c1565b60405180910390fd5b6001600760008573ffffffffffffffffffffffffffffffffffffffff1673ffffffffffffffffffffffffffffffffffffffff16815260200190815260200160002060006101000a81548160ff021916908315150217905550611bb06001600854611ff090919063ffffffff16565b600881905550600360009054906101000a900473ffffffffffffffffffffffffffffffffffffffff1673ffffffffffffffffffffffffffffffffffffffff1663bc93233f84836040518363ffffffff1660e01b8152600401611c139291906126cc565b600060405180830381600087803b158015611c2d57600080fd5b505af1158015611c41573d6000803e3d6000fd5b50505050600360009054906101000a900473ffffffffffffffffffffffffffffffffffffffff1673ffffffffffffffffffffffffffffffffffffffff1663a9059cbb84611c9f670de0b6b3a76400008661190790919063ffffffff16565b6040518363ffffffff1660e01b8152600401611cbc9291906126f5565b602060405180830381600087803b158015611cd657600080fd5b505af1158015611cea573d6000803e3d6000fd5b505050506040513d601f19601f82011682018060405250810190611d0e91906122a0565b507fede8eed4383e9241982619b94dd83e488b274cced0fd07b8c0092a393defd52f8383604051611d409291906126f5565b60405180910390a1505050565b611d5682612078565b6000600760008473ffffffffffffffffffffffffffffffffffffffff1673ffffffffffffffffffffffffffffffffffffffff16815260200190815260200160002060006101000a81548160ff021916908315150217905550611dc4600160085461210e90919063ffffffff16565b600881905550600360009054906101000a900473ffffffffffffffffffffffffffffffffffffffff1673ffffffffffffffffffffffffffffffffffffffff166323b872dd8330600360009054906101000a900473ffffffffffffffffffffffffffffffffffffffff1673ffffffffffffffffffffffffffffffffffffffff166370a08231876040518263ffffffff1660e01b8152600401611e65919061267a565b60206040518083038186803b158015611e7d57600080fd5b505afa158015611e91573d6000803e3d6000fd5b505050506040513d601f19601f82011682018060405250810190611eb59190612333565b6040518463ffffffff1660e01b8152600401611ed393929190612695565b602060405180830381600087803b158015611eed57600080fd5b505af1158015611f01573d6000803e3d6000fd5b505050506040513d601f19601f82011682018060405250810190611f2591906122a0565b50600360009054906101000a900473ffffffffffffffffffffffffffffffffffffffff1673ffffffffffffffffffffffffffffffffffffffff16632797c7a483836040518363ffffffff1660e01b8152600401611f839291906126cc565b600060405180830381600087803b158015611f9d57600080fd5b505af1158015611fb1573d6000803e3d6000fd5b505050507f6e76fb4c77256006d9c38ec7d82b45a8c8f3c27b1d6766fffc42dfb8de68449282604051611fe4919061267a565b60405180910390a15050565b60008082840190508381101561206e576040517f08c379a000000000000000000000000000000000000000000000000000000000815260040180806020018281038252601b8152602001807f536166654d6174683a206164646974696f6e206f766572666c6f77000000000081525060200191505060405180910390fd5b8091505092915050565b60011515600760008373ffffffffffffffffffffffffffffffffffffffff1673ffffffffffffffffffffffffffffffffffffffff16815260200190815260200160002060009054906101000a900460ff1615151461210b576040517f08c379a000000000000000000000000000000000000000000000000000000000815260040161210290612861565b60405180910390fd5b50565b600082821115612186576040517f08c379a000000000000000000000000000000000000000000000000000000000815260040180806020018281038252601e8152602001807f536166654d6174683a207375627472616374696f6e206f766572666c6f77000081525060200191505060405180910390fd5b818303905092915050565b6000813590506121a081612b5e565b92915050565b6000815190506121b581612b5e565b92915050565b6000815190506121ca81612b75565b92915050565b600082601f8301126121e157600080fd5b81356121f46121ef826129b6565b612985565b9150808252602083016020830185838301111561221057600080fd5b61221b838284612af5565b50505092915050565b60008135905061223381612b8c565b92915050565b60008151905061224881612b8c565b92915050565b60006020828403121561226057600080fd5b600061226e84828501612191565b91505092915050565b60006020828403121561228957600080fd5b6000612297848285016121a6565b91505092915050565b6000602082840312156122b257600080fd5b60006122c0848285016121bb565b91505092915050565b6000602082840312156122db57600080fd5b600082013567ffffffffffffffff8111156122f557600080fd5b612301848285016121d0565b91505092915050565b60006020828403121561231c57600080fd5b600061232a84828501612224565b91505092915050565b60006020828403121561234557600080fd5b600061235384828501612239565b91505092915050565b6000806040838503121561236f57600080fd5b600061237d85828601612224565b925050602061238e85828601612191565b9150509250929050565b6123a181612a89565b82525050565b6123b081612a02565b82525050565b6123bf81612a14565b82525050565b6123ce81612a20565b82525050565b6123dd81612a9b565b82525050565b6123ec81612abf565b82525050565b60006123fd826129e6565b61240781856129f1565b9350612417818560208601612b04565b61242081612b39565b840191505092915050565b6000612438600c836129f1565b91507f6e6f7420747265617375727900000000000000000000000000000000000000006000830152602082019050919050565b60006124786010836129f1565b91507f7472656173757279206e6f7420736574000000000000000000000000000000006000830152602082019050919050565b60006124b8600a836129f1565b91507f6e6f74206d656d626572000000000000000000000000000000000000000000006000830152602082019050919050565b60006124f8600d836129f1565b91507f616c7265616479206164646564000000000000000000000000000000000000006000830152602082019050919050565b6000612538600c836129f1565b91507f6e6f7420726567697374727900000000000000000000000000000000000000006000830152602082019050919050565b6000612578600e836129f1565b91507f616c7265616479206d656d6265720000000000000000000000000000000000006000830152602082019050919050565b60006125b8600e836129f1565b91507f636f6d6d756e6974792066756c6c0000000000000000000000000000000000006000830152602082019050919050565b60006125f86010836129f1565b91507f6e6f7420676967207265676973747279000000000000000000000000000000006000830152602082019050919050565b6000612638600b836129f1565b91507f616c7265616479207365740000000000000000000000000000000000000000006000830152602082019050919050565b61267481612a7f565b82525050565b600060208201905061268f60008301846123a7565b92915050565b60006060820190506126aa60008301866123a7565b6126b760208301856123a7565b6126c4604083018461266b565b949350505050565b60006040820190506126e160008301856123a7565b6126ee60208301846123b6565b9392505050565b600060408201905061270a60008301856123a7565b612717602083018461266b565b9392505050565b600060208201905061273360008301846123b6565b92915050565b600060208201905061274e60008301846123c5565b92915050565b600060208201905061276960008301846123d4565b92915050565b600060208201905061278460008301846123e3565b92915050565b600060808201905061279f60008301876123e3565b6127ac60208301866123a7565b6127b96040830185612398565b6127c660608301846123a7565b95945050505050565b600060208201905081810360008301526127e981846123f2565b905092915050565b6000604082019050818103600083015261280b81856123f2565b905061281a60208301846123a7565b9392505050565b6000602082019050818103600083015261283a8161242b565b9050919050565b6000602082019050818103600083015261285a8161246b565b9050919050565b6000602082019050818103600083015261287a816124ab565b9050919050565b6000602082019050818103600083015261289a816124eb565b9050919050565b600060208201905081810360008301526128ba8161252b565b9050919050565b600060208201905081810360008301526128da8161256b565b9050919050565b600060208201905081810360008301526128fa816125ab565b9050919050565b6000602082019050818103600083015261291a816125eb565b9050919050565b6000602082019050818103600083015261293a8161262b565b9050919050565b6000602082019050612956600083018461266b565b92915050565b6000604082019050612971600083018561266b565b61297e60208301846123a7565b9392505050565b6000604051905081810181811067ffffffffffffffff821117156129ac576129ab612b37565b5b8060405250919050565b600067ffffffffffffffff8211156129d1576129d0612b37565b5b601f19601f8301169050602081019050919050565b600081519050919050565b600082825260208201905092915050565b6000612a0d82612a5f565b9050919050565b60008115159050919050565b60007fffffffff0000000000000000000000000000000000000000000000000000000082169050919050565b6000819050612a5a82612b4a565b919050565b600073ffffffffffffffffffffffffffffffffffffffff82169050919050565b6000819050919050565b6000612a9482612ad1565b9050919050565b6000612aa682612aad565b9050919050565b6000612ab882612a5f565b9050919050565b6000612aca82612a4c565b9050919050565b6000612adc82612ae3565b9050919050565b6000612aee82612a5f565b9050919050565b82818337600083830152505050565b60005b83811015612b22578082015181840152602081019050612b07565b83811115612b31576000848401525b50505050565bfe5b6000601f19601f8301169050919050565b60038110612b5b57612b5a612b37565b5b50565b612b6781612a02565b8114612b7257600080fd5b50565b612b7e81612a14565b8114612b8957600080fd5b50565b612b9581612a7f565b8114612ba057600080fd5b5056fe4f776e61626c653a206e6577206f776e657220697320746865207a65726f2061646472657373536166654d6174683a206d756c7469706c69636174696f6e206f766572666c6f77a26469706673582212207c21ebc7eaa9b75dc03d84db3a288400e7e0fce34e737f6e71a7f37a1b52f5da64736f6c63430007040033536166654d6174683a206d756c7469706c69636174696f6e206f766572666c6f77a2646970667358221220a39e8599e5fb1b5e470ded05d905a1469e5b62cc2854f0b7f4b7455f3e5a9f3564736f6c63430007040033",
  "linkReferences": {},
  "deployedLinkReferences": {}
}