{
  "_format": "hh-sol-artifact-1",
  "contractName": "GigValidator",
  "sourceName": "contracts/GigValidator.sol",
  "abi": [
    {
      "inputs": [],
      "stateMutability": "nonpayable",
      "type": "constructor"
    },
    {
      "anonymous": false,
      "inputs": [
        {
          "indexed": true,
          "internalType": "bytes32",
          "name": "id",
          "type": "bytes32"
        }
      ],
      "name": "ChainlinkCancelled",
      "type": "event"
    },
    {
      "anonymous": false,
      "inputs": [
        {
          "indexed": true,
          "internalType": "bytes32",
          "name": "id",
          "type": "bytes32"
        }
      ],
      "name": "ChainlinkFulfilled",
      "type": "event"
    },
    {
      "anonymous": false,
      "inputs": [
        {
          "indexed": true,
          "internalType": "bytes32",
          "name": "id",
          "type": "bytes32"
        }
      ],
      "name": "ChainlinkRequested",
      "type": "event"
    },
    {
      "inputs": [
        {
          "internalType": "bytes32",
          "name": "_requestId",
          "type": "bytes32"
        },
        {
          "internalType": "bool",
          "name": "_isValid",
          "type": "bool"
        }
      ],
      "name": "fulfill",
      "outputs": [],
      "stateMutability": "nonpayable",
      "type": "function"
    },
    {
      "inputs": [],
      "name": "isFulfilled",
      "outputs": [
        {
          "internalType": "bool",
          "name": "",
          "type": "bool"
        }
      ],
      "stateMutability": "view",
      "type": "function"
    },
    {
      "inputs": [],
      "name": "isValid",
      "outputs": [
        {
          "internalType": "bool",
          "name": "",
          "type": "bool"
        }
      ],
      "stateMutability": "view",
      "type": "function"
    },
    {
      "inputs": [],
      "name": "isValidString",
      "outputs": [
        {
          "internalType": "string",
          "name": "",
          "type": "string"
        }
      ],
      "stateMutability": "view",
      "type": "function"
    },
    {
      "inputs": [
        {
          "internalType": "string",
          "name": "_path",
          "type": "string"
        },
        {
          "internalType": "string",
          "name": "_mockIsValid",
          "type": "string"
        }
      ],
      "name": "requestIsGigValid",
      "outputs": [
        {
          "internalType": "bytes32",
          "name": "requestId",
          "type": "bytes32"
        }
      ],
      "stateMutability": "nonpayable",
      "type": "function"
    }
  ],
  "bytecode": "0x6080604052600160045534801561001557600080fd5b506100246100b460201b60201c565b732f90a6d021db21e1b2a077c5a37b3c7e75d15b7e600860016101000a81548173ffffffffffffffffffffffffffffffffffffffff021916908373ffffffffffffffffffffffffffffffffffffffff1602179055507f366439313465646333366531346436633838306339633535626461356263303460098190555067016345785d8a0000600a8190555061019d565b61015773c89bd4e1632d3a43cb03aaad5262cbe4038bc57173ffffffffffffffffffffffffffffffffffffffff166338cc48316040518163ffffffff1660e01b815260040160206040518083038186803b15801561011157600080fd5b505afa158015610125573d6000803e3d6000fd5b505050506040513d602081101561013b57600080fd5b810190808051906020019092919050505061015960201b60201c565b565b80600260006101000a81548173ffffffffffffffffffffffffffffffffffffffff021916908373ffffffffffffffffffffffffffffffffffffffff16021790555050565b6111a2806101ac6000396000f3fe608060405234801561001057600080fd5b50600436106100575760003560e01c80631f0d41991461005c578063385a9c37146100df57806371621a9c14610101578063bb5d40eb14610267578063fd68990a14610289575b600080fd5b6100646102c3565b6040518080602001828103825283818151815260200191508051906020019080838360005b838110156100a4578082015181840152602081019050610089565b50505050905090810190601f1680156100d15780820380516001836020036101000a031916815260200191505b509250505060405180910390f35b6100e7610361565b604051808215151515815260200191505060405180910390f35b6102516004803603604081101561011757600080fd5b810190808035906020019064010000000081111561013457600080fd5b82018360208201111561014657600080fd5b8035906020019184600183028401116401000000008311171561016857600080fd5b91908080601f016020809104026020016040519081016040528093929190818152602001838380828437600081840152601f19601f820116905080830192505050505050509192919290803590602001906401000000008111156101cb57600080fd5b8201836020820111156101dd57600080fd5b803590602001918460018302840111640100000000831117156101ff57600080fd5b91908080601f016020809104026020016040519081016040528093929190818152602001838380828437600081840152601f19601f820116905080830192505050505050509192919290505050610374565b6040518082815260200191505060405180910390f35b61026f61056c565b604051808215151515815260200191505060405180910390f35b6102c16004803603604081101561029f57600080fd5b810190808035906020019092919080351515906020019092919050505061057f565b005b60078054600181600116156101000203166002900480601f0160208091040260200160405190810160405280929190818152602001828054600181600116156101000203166002900480156103595780601f1061032e57610100808354040283529160200191610359565b820191906000526020600020905b81548152906001019060200180831161033c57829003601f168201915b505050505081565b600860009054906101000a900460ff1681565b600080600660006101000a81548160ff0219169083151502179055506000600860006101000a81548160ff0219169083151502179055506103b3611036565b6103c76009543063fd68990a60e01b6106d4565b905061042b6040518060400160405280600381526020017f676574000000000000000000000000000000000000000000000000000000000081525060405180606001604052806033815260200161111260339139836107059092919063ffffffff16565b6104ea6040518060400160405280600b81526020017f7175657279506172616d730000000000000000000000000000000000000000008152508460405160200180806110be6031913960310182805190602001908083835b602083106104a65780518252602082019150602081019050602083039250610483565b6001836020036101000a038019825116818451168082178552505050505050905001915050604051602081830303815290604052836107059092919063ffffffff16565b6105346040518060400160405280600481526020017f706174680000000000000000000000000000000000000000000000000000000081525085836107059092919063ffffffff16565b610563600860019054906101000a900473ffffffffffffffffffffffffffffffffffffffff1682600a54610738565b91505092915050565b600660009054906101000a900460ff1681565b816005600082815260200190815260200160002060009054906101000a900473ffffffffffffffffffffffffffffffffffffffff1673ffffffffffffffffffffffffffffffffffffffff163373ffffffffffffffffffffffffffffffffffffffff1614610637576040517f08c379a00000000000000000000000000000000000000000000000000000000081526004018080602001828103825260288152602001806111456028913960400191505060405180910390fd5b6005600082815260200190815260200160002060006101000a81549073ffffffffffffffffffffffffffffffffffffffff0219169055807f7cc135e0cebb02c3480ae5d74d377283180a2601f8f644edf7987b009316c63a60405160405180910390a281600660006101000a81548160ff0219169083151502179055506001600860006101000a81548160ff021916908315150217905550505050565b6106dc611036565b6106e4611036565b6106fb858585846109f0909392919063ffffffff16565b9150509392505050565b61071c828460800151610aa090919063ffffffff16565b610733818460800151610aa090919063ffffffff16565b505050565b600030600454604051602001808373ffffffffffffffffffffffffffffffffffffffff1673ffffffffffffffffffffffffffffffffffffffff1660601b815260140182815260200192505050604051602081830303815290604052805190602001209050600454836060018181525050836005600083815260200190815260200160002060006101000a81548173ffffffffffffffffffffffffffffffffffffffff021916908373ffffffffffffffffffffffffffffffffffffffff160217905550807fb5e6e01e79f91267dc17b4e6314d5d4d03593d2ceee0fbb452b750bd70ea5af960405160405180910390a2600260009054906101000a900473ffffffffffffffffffffffffffffffffffffffff1673ffffffffffffffffffffffffffffffffffffffff16634000aea0858461087087610ac5565b6040518463ffffffff1660e01b8152600401808473ffffffffffffffffffffffffffffffffffffffff1673ffffffffffffffffffffffffffffffffffffffff16815260200183815260200180602001828103825283818151815260200191508051906020019080838360005b838110156108f75780820151818401526020810190506108dc565b50505050905090810190601f1680156109245780820380516001836020036101000a031916815260200191505b50945050505050602060405180830381600087803b15801561094557600080fd5b505af1158015610959573d6000803e3d6000fd5b505050506040513d602081101561096f57600080fd5b81019080805190602001909291905050506109d5576040517f08c379a00000000000000000000000000000000000000000000000000000000081526004018080602001828103825260238152602001806110ef6023913960400191505060405180910390fd5b60016004600082825401925050819055508090509392505050565b6109f8611036565b610a088560800151610100610c91565b508385600001818152505082856020019073ffffffffffffffffffffffffffffffffffffffff16908173ffffffffffffffffffffffffffffffffffffffff16815250508185604001907bffffffffffffffffffffffffffffffffffffffffffffffffffffffff191690817bffffffffffffffffffffffffffffffffffffffffffffffffffffffff191681525050849050949350505050565b610aad8260038351610ce5565b610ac08183610e2a90919063ffffffff16565b505050565b6060634042994660e01b60008084600001518560200151866040015187606001516001896080015160000151604051602401808973ffffffffffffffffffffffffffffffffffffffff1673ffffffffffffffffffffffffffffffffffffffff1681526020018881526020018781526020018673ffffffffffffffffffffffffffffffffffffffff1673ffffffffffffffffffffffffffffffffffffffff168152602001857bffffffffffffffffffffffffffffffffffffffffffffffffffffffff19167bffffffffffffffffffffffffffffffffffffffffffffffffffffffff1916815260200184815260200183815260200180602001828103825283818151815260200191508051906020019080838360005b83811015610bf4578082015181840152602081019050610bd9565b50505050905090810190601f168015610c215780820380516001836020036101000a031916815260200191505b509950505050505050505050604051602081830303815290604052907bffffffffffffffffffffffffffffffffffffffffffffffffffffffff19166020820180517bffffffffffffffffffffffffffffffffffffffffffffffffffffffff83818316178352505050509050919050565b610c996110a3565b600060208381610ca557fe5b0614610cbe5760208281610cb557fe5b06602003820191505b81836020018181525050604051808452600081528281016020016040525082905092915050565b60178111610d1257610d0c8160058460ff16901b60ff161784610e4c90919063ffffffff16565b50610e25565b60ff8111610d5457610d37601860058460ff16901b1784610e4c90919063ffffffff16565b50610d4e81600185610e6c9092919063ffffffff16565b50610e24565b61ffff8111610d9757610d7a601960058460ff16901b1784610e4c90919063ffffffff16565b50610d9181600285610e6c9092919063ffffffff16565b50610e23565b63ffffffff8111610ddc57610dbf601a60058460ff16901b1784610e4c90919063ffffffff16565b50610dd681600485610e6c9092919063ffffffff16565b50610e22565b67ffffffffffffffff8111610e2157610e08601b60058460ff16901b1784610e4c90919063ffffffff16565b50610e1f81600885610e6c9092919063ffffffff16565b505b5b5b5b5b505050565b610e326110a3565b610e4483846000015151848551610e8e565b905092915050565b610e546110a3565b610e648384600001515184610f47565b905092915050565b610e746110a3565b610e85848560000151518585610f95565b90509392505050565b610e966110a3565b8251821115610ea457600080fd5b84602001518285011115610ecf57610ece856002610ec88860200151888701610ff6565b02611012565b5b600080865180518760208301019350808887011115610eee5787860182525b60208701925050505b60208410610f1a5780518252602082019150602081019050602084039350610ef7565b60006001856020036101000a03905080198251168184511681811785525050879350505050949350505050565b610f4f6110a3565b83602001518310610f6c57610f6b846002866020015102611012565b5b8351805160208583010184815381861415610f88576001820183525b5050508390509392505050565b610f9d6110a3565b84602001518483011115610fbb57610fba85600286850102611012565b5b60006001836101000a0390508551838682010185831982511617815281518588011115610fe85784870182525b505085915050949350505050565b6000818311156110085782905061100c565b8190505b92915050565b6060826000015190506110258383610c91565b506110308382610e2a565b50505050565b6040518060a0016040528060008019168152602001600073ffffffffffffffffffffffffffffffffffffffff16815260200160007bffffffffffffffffffffffffffffffffffffffffffffffffffffffff191681526020016000815260200161109d6110a3565b81525090565b60405180604001604052806060815260200160008152509056fe686173683d626c61626c6126636f6d6d756e69747949443d312669734d6f636b3d747275652672657475726e547275653d756e61626c6520746f207472616e73666572416e6443616c6c20746f206f7261636c6568747470733a2f2f6170692e64697374726962757465642e746f776e2f6170692f6769672f312f76616c696461746548617368536f75726365206d75737420626520746865206f7261636c65206f66207468652072657175657374a2646970667358221220fe05af02beb99ded1f30ca98fc4c5aeebfafa760d07bcbdf7c6250b6c63c332864736f6c634300060a0033",
  "linkReferences": {},
  "deployedLinkReferences": {}
}