{
  "_format": "hh-sol-artifact-1",
  "contractName": "GigValidator",
  "sourceName": "contracts/GigValidator.sol",
  "abi": [
    {
      "inputs": [
        {
          "internalType": "address",
          "name": "_oracle",
          "type": "address"
        },
        {
          "internalType": "bytes32",
          "name": "_jobId",
          "type": "bytes32"
        }
      ],
      "stateMutability": "nonpayable",
      "type": "constructor"
    },
    {
      "anonymous": false,
      "inputs": [
        {
          "indexed": true,
          "internalType": "bytes32",
          "name": "id",
          "type": "bytes32"
        }
      ],
      "name": "ChainlinkCancelled",
      "type": "event"
    },
    {
      "anonymous": false,
      "inputs": [
        {
          "indexed": true,
          "internalType": "bytes32",
          "name": "id",
          "type": "bytes32"
        }
      ],
      "name": "ChainlinkFulfilled",
      "type": "event"
    },
    {
      "anonymous": false,
      "inputs": [
        {
          "indexed": true,
          "internalType": "bytes32",
          "name": "id",
          "type": "bytes32"
        }
      ],
      "name": "ChainlinkRequested",
      "type": "event"
    },
    {
      "inputs": [
        {
          "internalType": "bytes32",
          "name": "_requestId",
          "type": "bytes32"
        },
        {
          "internalType": "bool",
          "name": "_isValid",
          "type": "bool"
        }
      ],
      "name": "fulfill",
      "outputs": [],
      "stateMutability": "nonpayable",
      "type": "function"
    },
    {
      "inputs": [],
      "name": "gigHash",
      "outputs": [
        {
          "internalType": "bytes32",
          "name": "",
          "type": "bytes32"
        }
      ],
      "stateMutability": "view",
      "type": "function"
    },
    {
      "inputs": [],
      "name": "isFulfilled",
      "outputs": [
        {
          "internalType": "bool",
          "name": "",
          "type": "bool"
        }
      ],
      "stateMutability": "view",
      "type": "function"
    },
    {
      "inputs": [],
      "name": "isValid",
      "outputs": [
        {
          "internalType": "bool",
          "name": "",
          "type": "bool"
        }
      ],
      "stateMutability": "view",
      "type": "function"
    },
    {
      "inputs": [
        {
          "internalType": "string",
          "name": "_community",
          "type": "string"
        },
        {
          "internalType": "bytes32",
          "name": "_hash",
          "type": "bytes32"
        },
        {
          "internalType": "string",
          "name": "_mockIsValid",
          "type": "string"
        }
      ],
      "name": "requestIsGigValid",
      "outputs": [
        {
          "internalType": "bytes32",
          "name": "requestId",
          "type": "bytes32"
        }
      ],
      "stateMutability": "nonpayable",
      "type": "function"
    }
  ],
  "bytecode": "0x6080604052600160045534801561001557600080fd5b5060405161133a38038061133a8339818101604052604081101561003857600080fd5b8101908080519060200190929190805190602001909291905050506100616100bf60201b60201c565b81600860006101000a81548173ffffffffffffffffffffffffffffffffffffffff021916908373ffffffffffffffffffffffffffffffffffffffff1602179055508060098190555067016345785d8a0000600a8190555050506101a8565b61016273c89bd4e1632d3a43cb03aaad5262cbe4038bc57173ffffffffffffffffffffffffffffffffffffffff166338cc48316040518163ffffffff1660e01b815260040160206040518083038186803b15801561011c57600080fd5b505afa158015610130573d6000803e3d6000fd5b505050506040513d602081101561014657600080fd5b810190808051906020019092919050505061016460201b60201c565b565b80600260006101000a81548173ffffffffffffffffffffffffffffffffffffffff021916908373ffffffffffffffffffffffffffffffffffffffff16021790555050565b611183806101b76000396000f3fe608060405234801561001057600080fd5b50600436106100575760003560e01c8063385a9c371461005c57806359d998ad1461007e5780639e23f4811461009c578063bb5d40eb1461020c578063fd68990a1461022e575b600080fd5b610064610268565b604051808215151515815260200191505060405180910390f35b61008661027b565b6040518082815260200191505060405180910390f35b6101f6600480360360608110156100b257600080fd5b81019080803590602001906401000000008111156100cf57600080fd5b8201836020820111156100e157600080fd5b8035906020019184600183028401116401000000008311171561010357600080fd5b91908080601f016020809104026020016040519081016040528093929190818152602001838380828437600081840152601f19601f820116905080830192505050505050509192919290803590602001909291908035906020019064010000000081111561017057600080fd5b82018360208201111561018257600080fd5b803590602001918460018302840111640100000000831117156101a457600080fd5b91908080601f016020809104026020016040519081016040528093929190818152602001838380828437600081840152601f19601f820116905080830192505050505050509192919290505050610281565b6040518082815260200191505060405180910390f35b61021461057e565b604051808215151515815260200191505060405180910390f35b6102666004803603604081101561024457600080fd5b8101908080359060200190929190803515159060200190929190505050610591565b005b600660019054906101000a900460ff1681565b60075481565b600080600660006101000a81548160ff0219169083151502179055506000600660016101000a81548160ff021916908315150217905550826007819055506102c7611048565b6102db6009543063fd68990a60e01b6106e6565b905061033f6040518060400160405280600381526020017f67657400000000000000000000000000000000000000000000000000000000008152506040518060600160405280603381526020016110f360339139836107179092919063ffffffff16565b6104c66040518060400160405280600b81526020017f7175657279506172616d7300000000000000000000000000000000000000000081525085878660405160200180807f686173683d000000000000000000000000000000000000000000000000000000815250600501848152602001807f26636f6d6d756e69747949443d00000000000000000000000000000000000000815250600d0183805190602001908083835b6020831061040757805182526020820191506020810190506020830392506103e4565b6001836020036101000a038019825116818451168082178552505050505050905001807f2669734d6f636b3d747275652672657475726e547275653d000000000000000081525060180182805190602001908083835b60208310610480578051825260208201915060208101905060208303925061045d565b6001836020036101000a0380198251168184511680821785525050505050509050019350505050604051602081830303815290604052836107179092919063ffffffff16565b6105456040518060400160405280600481526020017f70617468000000000000000000000000000000000000000000000000000000008152506040518060400160405280600781526020017f697356616c696400000000000000000000000000000000000000000000000000815250836107179092919063ffffffff16565b610574600860009054906101000a900473ffffffffffffffffffffffffffffffffffffffff1682600a5461074a565b9150509392505050565b600660009054906101000a900460ff1681565b816005600082815260200190815260200160002060009054906101000a900473ffffffffffffffffffffffffffffffffffffffff1673ffffffffffffffffffffffffffffffffffffffff163373ffffffffffffffffffffffffffffffffffffffff1614610649576040517f08c379a00000000000000000000000000000000000000000000000000000000081526004018080602001828103825260288152602001806111266028913960400191505060405180910390fd5b6005600082815260200190815260200160002060006101000a81549073ffffffffffffffffffffffffffffffffffffffff0219169055807f7cc135e0cebb02c3480ae5d74d377283180a2601f8f644edf7987b009316c63a60405160405180910390a281600660006101000a81548160ff0219169083151502179055506001600660016101000a81548160ff021916908315150217905550505050565b6106ee611048565b6106f6611048565b61070d85858584610a02909392919063ffffffff16565b9150509392505050565b61072e828460800151610ab290919063ffffffff16565b610745818460800151610ab290919063ffffffff16565b505050565b600030600454604051602001808373ffffffffffffffffffffffffffffffffffffffff1673ffffffffffffffffffffffffffffffffffffffff1660601b815260140182815260200192505050604051602081830303815290604052805190602001209050600454836060018181525050836005600083815260200190815260200160002060006101000a81548173ffffffffffffffffffffffffffffffffffffffff021916908373ffffffffffffffffffffffffffffffffffffffff160217905550807fb5e6e01e79f91267dc17b4e6314d5d4d03593d2ceee0fbb452b750bd70ea5af960405160405180910390a2600260009054906101000a900473ffffffffffffffffffffffffffffffffffffffff1673ffffffffffffffffffffffffffffffffffffffff16634000aea0858461088287610ad7565b6040518463ffffffff1660e01b8152600401808473ffffffffffffffffffffffffffffffffffffffff1673ffffffffffffffffffffffffffffffffffffffff16815260200183815260200180602001828103825283818151815260200191508051906020019080838360005b838110156109095780820151818401526020810190506108ee565b50505050905090810190601f1680156109365780820380516001836020036101000a031916815260200191505b50945050505050602060405180830381600087803b15801561095757600080fd5b505af115801561096b573d6000803e3d6000fd5b505050506040513d602081101561098157600080fd5b81019080805190602001909291905050506109e7576040517f08c379a00000000000000000000000000000000000000000000000000000000081526004018080602001828103825260238152602001806110d06023913960400191505060405180910390fd5b60016004600082825401925050819055508090509392505050565b610a0a611048565b610a1a8560800151610100610ca3565b508385600001818152505082856020019073ffffffffffffffffffffffffffffffffffffffff16908173ffffffffffffffffffffffffffffffffffffffff16815250508185604001907bffffffffffffffffffffffffffffffffffffffffffffffffffffffff191690817bffffffffffffffffffffffffffffffffffffffffffffffffffffffff191681525050849050949350505050565b610abf8260038351610cf7565b610ad28183610e3c90919063ffffffff16565b505050565b6060634042994660e01b60008084600001518560200151866040015187606001516001896080015160000151604051602401808973ffffffffffffffffffffffffffffffffffffffff1673ffffffffffffffffffffffffffffffffffffffff1681526020018881526020018781526020018673ffffffffffffffffffffffffffffffffffffffff1673ffffffffffffffffffffffffffffffffffffffff168152602001857bffffffffffffffffffffffffffffffffffffffffffffffffffffffff19167bffffffffffffffffffffffffffffffffffffffffffffffffffffffff1916815260200184815260200183815260200180602001828103825283818151815260200191508051906020019080838360005b83811015610c06578082015181840152602081019050610beb565b50505050905090810190601f168015610c335780820380516001836020036101000a031916815260200191505b509950505050505050505050604051602081830303815290604052907bffffffffffffffffffffffffffffffffffffffffffffffffffffffff19166020820180517bffffffffffffffffffffffffffffffffffffffffffffffffffffffff83818316178352505050509050919050565b610cab6110b5565b600060208381610cb757fe5b0614610cd05760208281610cc757fe5b06602003820191505b81836020018181525050604051808452600081528281016020016040525082905092915050565b60178111610d2457610d1e8160058460ff16901b60ff161784610e5e90919063ffffffff16565b50610e37565b60ff8111610d6657610d49601860058460ff16901b1784610e5e90919063ffffffff16565b50610d6081600185610e7e9092919063ffffffff16565b50610e36565b61ffff8111610da957610d8c601960058460ff16901b1784610e5e90919063ffffffff16565b50610da381600285610e7e9092919063ffffffff16565b50610e35565b63ffffffff8111610dee57610dd1601a60058460ff16901b1784610e5e90919063ffffffff16565b50610de881600485610e7e9092919063ffffffff16565b50610e34565b67ffffffffffffffff8111610e3357610e1a601b60058460ff16901b1784610e5e90919063ffffffff16565b50610e3181600885610e7e9092919063ffffffff16565b505b5b5b5b5b505050565b610e446110b5565b610e5683846000015151848551610ea0565b905092915050565b610e666110b5565b610e768384600001515184610f59565b905092915050565b610e866110b5565b610e97848560000151518585610fa7565b90509392505050565b610ea86110b5565b8251821115610eb657600080fd5b84602001518285011115610ee157610ee0856002610eda8860200151888701611008565b02611024565b5b600080865180518760208301019350808887011115610f005787860182525b60208701925050505b60208410610f2c5780518252602082019150602081019050602084039350610f09565b60006001856020036101000a03905080198251168184511681811785525050879350505050949350505050565b610f616110b5565b83602001518310610f7e57610f7d846002866020015102611024565b5b8351805160208583010184815381861415610f9a576001820183525b5050508390509392505050565b610faf6110b5565b84602001518483011115610fcd57610fcc85600286850102611024565b5b60006001836101000a0390508551838682010185831982511617815281518588011115610ffa5784870182525b505085915050949350505050565b60008183111561101a5782905061101e565b8190505b92915050565b6060826000015190506110378383610ca3565b506110428382610e3c565b50505050565b6040518060a0016040528060008019168152602001600073ffffffffffffffffffffffffffffffffffffffff16815260200160007bffffffffffffffffffffffffffffffffffffffffffffffffffffffff19168152602001600081526020016110af6110b5565b81525090565b60405180604001604052806060815260200160008152509056fe756e61626c6520746f207472616e73666572416e6443616c6c20746f206f7261636c6568747470733a2f2f6170692e64697374726962757465642e746f776e2f6170692f6769672f312f76616c696461746548617368536f75726365206d75737420626520746865206f7261636c65206f66207468652072657175657374a26469706673582212205d889ab74793d2d5508f5fad2cbca2a6b2c8b8e58ae75c2067f80e73f0570a7f64736f6c634300060a0033",
  "linkReferences": {},
  "deployedLinkReferences": {}
}