{
  "_format": "hh-sol-artifact-1",
  "contractName": "GigValidator",
  "sourceName": "contracts/GigValidator.sol",
  "abi": [
    {
      "inputs": [
        {
          "internalType": "address",
          "name": "_oracle",
          "type": "address"
        },
        {
          "internalType": "bytes32",
          "name": "_jobId",
          "type": "bytes32"
        }
      ],
      "stateMutability": "nonpayable",
      "type": "constructor"
    },
    {
      "anonymous": false,
      "inputs": [
        {
          "indexed": true,
          "internalType": "bytes32",
          "name": "id",
          "type": "bytes32"
        }
      ],
      "name": "ChainlinkCancelled",
      "type": "event"
    },
    {
      "anonymous": false,
      "inputs": [
        {
          "indexed": true,
          "internalType": "bytes32",
          "name": "id",
          "type": "bytes32"
        }
      ],
      "name": "ChainlinkFulfilled",
      "type": "event"
    },
    {
      "anonymous": false,
      "inputs": [
        {
          "indexed": true,
          "internalType": "bytes32",
          "name": "id",
          "type": "bytes32"
        }
      ],
      "name": "ChainlinkRequested",
      "type": "event"
    },
    {
      "anonymous": false,
      "inputs": [
        {
          "indexed": false,
          "internalType": "bytes32",
          "name": "_requestId",
          "type": "bytes32"
        },
        {
          "indexed": false,
          "internalType": "bytes32",
          "name": "_hash",
          "type": "bytes32"
        },
        {
          "indexed": false,
          "internalType": "bool",
          "name": "_isValid",
          "type": "bool"
        },
        {
          "indexed": false,
          "internalType": "bool",
          "name": "_isConfirmed",
          "type": "bool"
        }
      ],
      "name": "requiestFulfilled",
      "type": "event"
    },
    {
      "inputs": [],
      "name": "IDENTITY",
      "outputs": [
        {
          "internalType": "bytes4",
          "name": "",
          "type": "bytes4"
        }
      ],
      "stateMutability": "view",
      "type": "function"
    },
    {
      "inputs": [],
      "name": "communityIdHash",
      "outputs": [
        {
          "internalType": "bytes32",
          "name": "",
          "type": "bytes32"
        }
      ],
      "stateMutability": "view",
      "type": "function"
    },
    {
      "inputs": [
        {
          "internalType": "bytes32",
          "name": "_requestId",
          "type": "bytes32"
        },
        {
          "internalType": "bool",
          "name": "_isValid",
          "type": "bool"
        }
      ],
      "name": "fulfill",
      "outputs": [],
      "stateMutability": "nonpayable",
      "type": "function"
    },
    {
      "inputs": [],
      "name": "gigHash",
      "outputs": [
        {
          "internalType": "bytes32",
          "name": "",
          "type": "bytes32"
        }
      ],
      "stateMutability": "view",
      "type": "function"
    },
    {
      "inputs": [],
      "name": "gigsRegistry",
      "outputs": [
        {
          "internalType": "address",
          "name": "",
          "type": "address"
        }
      ],
      "stateMutability": "view",
      "type": "function"
    },
    {
      "inputs": [],
      "name": "isConfirmed",
      "outputs": [
        {
          "internalType": "bool",
          "name": "",
          "type": "bool"
        }
      ],
      "stateMutability": "view",
      "type": "function"
    },
    {
      "inputs": [],
      "name": "isFulfilled",
      "outputs": [
        {
          "internalType": "bool",
          "name": "",
          "type": "bool"
        }
      ],
      "stateMutability": "view",
      "type": "function"
    },
    {
      "inputs": [],
      "name": "isRequested",
      "outputs": [
        {
          "internalType": "bool",
          "name": "",
          "type": "bool"
        }
      ],
      "stateMutability": "view",
      "type": "function"
    },
    {
      "inputs": [],
      "name": "isValid",
      "outputs": [
        {
          "internalType": "bool",
          "name": "",
          "type": "bool"
        }
      ],
      "stateMutability": "view",
      "type": "function"
    },
    {
      "inputs": [
        {
          "internalType": "string",
          "name": "_community",
          "type": "string"
        },
        {
          "internalType": "bytes32",
          "name": "_hash",
          "type": "bytes32"
        },
        {
          "internalType": "string",
          "name": "_mockIsValid",
          "type": "string"
        }
      ],
      "name": "requestIsGigValid",
      "outputs": [
        {
          "internalType": "bytes32",
          "name": "requestId",
          "type": "bytes32"
        }
      ],
      "stateMutability": "nonpayable",
      "type": "function"
    },
    {
      "inputs": [],
      "name": "reset",
      "outputs": [],
      "stateMutability": "nonpayable",
      "type": "function"
    }
  ],
  "bytecode": "0x608060405260016004553480156200001657600080fd5b5060405162001b9c38038062001b9c833981810160405260408110156200003c57600080fd5b81019080805190602001909291908051906020019092919050505062000067620000c660201b60201c565b81600a60006101000a81548173ffffffffffffffffffffffffffffffffffffffff021916908373ffffffffffffffffffffffffffffffffffffffff16021790555080600b8190555067016345785d8a0000600c819055505050620001b4565b6200016e73c89bd4e1632d3a43cb03aaad5262cbe4038bc57173ffffffffffffffffffffffffffffffffffffffff166338cc48316040518163ffffffff1660e01b815260040160206040518083038186803b1580156200012557600080fd5b505afa1580156200013a573d6000803e3d6000fd5b505050506040513d60208110156200015157600080fd5b81019080805190602001909291905050506200017060201b60201c565b565b80600260006101000a81548173ffffffffffffffffffffffffffffffffffffffff021916908373ffffffffffffffffffffffffffffffffffffffff16021790555050565b6119d880620001c46000396000f3fe608060405234801561001057600080fd5b50600436106100a95760003560e01c806397781f021161007157806397781f02146101b25780639e23f481146101d4578063a79a3cee14610344578063bb5d40eb14610366578063d826f88f14610388578063fd68990a14610392576100a9565b80630bf85038146100ae578063150c4aea146100cc578063385a9c371461012857806343086f0d1461014a57806359d998ad14610194575b600080fd5b6100b66103cc565b6040518082815260200191505060405180910390f35b6100d46103d2565b60405180827bffffffffffffffffffffffffffffffffffffffffffffffffffffffff19167bffffffffffffffffffffffffffffffffffffffffffffffffffffffff1916815260200191505060405180910390f35b6101306103dd565b604051808215151515815260200191505060405180910390f35b6101526103f0565b604051808273ffffffffffffffffffffffffffffffffffffffff1673ffffffffffffffffffffffffffffffffffffffff16815260200191505060405180910390f35b61019c610416565b6040518082815260200191505060405180910390f35b6101ba61041c565b604051808215151515815260200191505060405180910390f35b61032e600480360360608110156101ea57600080fd5b810190808035906020019064010000000081111561020757600080fd5b82018360208201111561021957600080fd5b8035906020019184600183028401116401000000008311171561023b57600080fd5b91908080601f016020809104026020016040519081016040528093929190818152602001838380828437600081840152601f19601f82011690508083019250505050505050919291929080359060200190929190803590602001906401000000008111156102a857600080fd5b8201836020820111156102ba57600080fd5b803590602001918460018302840111640100000000831117156102dc57600080fd5b91908080601f016020809104026020016040519081016040528093929190818152602001838380828437600081840152601f19601f82011690508083019250505050505050919291929050505061042f565b6040518082815260200191505060405180910390f35b61034c6109d9565b604051808215151515815260200191505060405180910390f35b61036e6109ec565b604051808215151515815260200191505060405180910390f35b6103906109ff565b005b6103ca600480360360408110156103a857600080fd5b8101908080359060200190929190803515159060200190929190505050610bf4565b005b60075481565b63bf44438760e01b81565b600660019054906101000a900460ff1681565b600960009054906101000a900473ffffffffffffffffffffffffffffffffffffffff1681565b60085481565b600660029054906101000a900460ff1681565b60006395fe5fc160e01b7bffffffffffffffffffffffffffffffffffffffffffffffffffffffff19163373ffffffffffffffffffffffffffffffffffffffff1663150c4aea6040518163ffffffff1660e01b815260040160206040518083038186803b15801561049e57600080fd5b505afa1580156104b2573d6000803e3d6000fd5b505050506040513d60208110156104c857600080fd5b81019080805190602001909291905050507bffffffffffffffffffffffffffffffffffffffffffffffffffffffff19161461056b576040517f08c379a000000000000000000000000000000000000000000000000000000000815260040180806020018281038252600c8152602001807f6e6f74207265676973747279000000000000000000000000000000000000000081525060200191505060405180910390fd5b600660029054906101000a900460ff16156105ee576040517f08c379a00000000000000000000000000000000000000000000000000000000081526004018080602001828103825260118152602001807f616c72656164792072657175657374656400000000000000000000000000000081525060200191505060405180910390fd5b33600960006101000a81548173ffffffffffffffffffffffffffffffffffffffff021916908373ffffffffffffffffffffffffffffffffffffffff1602179055506000600660006101000a81548160ff0219169083151502179055506000600660016101000a81548160ff0219169083151502179055506001600660026101000a81548160ff0219169083151502179055506000600660036101000a81548160ff021916908315150217905550836040516020018082805190602001908083835b602083106106d257805182526020820191506020810190506020830392506106af565b6001836020036101000a038019825116818451168082178552505050505050905001915050604051602081830303815290604052805190602001206007819055508260088190555061072261189d565b610736600b543063fd68990a60e01b610f3b565b905061079a6040518060400160405280600381526020017f67657400000000000000000000000000000000000000000000000000000000008152506040518060600160405280603381526020016119486033913983610f6c9092919063ffffffff16565b6109216040518060400160405280600b81526020017f7175657279506172616d7300000000000000000000000000000000000000000081525085878660405160200180807f686173683d000000000000000000000000000000000000000000000000000000815250600501848152602001807f26636f6d6d756e69747949443d00000000000000000000000000000000000000815250600d0183805190602001908083835b60208310610862578051825260208201915060208101905060208303925061083f565b6001836020036101000a038019825116818451168082178552505050505050905001807f2669734d6f636b3d747275652672657475726e547275653d000000000000000081525060180182805190602001908083835b602083106108db57805182526020820191506020810190506020830392506108b8565b6001836020036101000a038019825116818451168082178552505050505050905001935050505060405160208183030381529060405283610f6c9092919063ffffffff16565b6109a06040518060400160405280600481526020017f70617468000000000000000000000000000000000000000000000000000000008152506040518060400160405280600781526020017f697356616c69640000000000000000000000000000000000000000000000000081525083610f6c9092919063ffffffff16565b6109cf600a60009054906101000a900473ffffffffffffffffffffffffffffffffffffffff1682600c54610f9f565b9150509392505050565b600660039054906101000a900460ff1681565b600660009054906101000a900460ff1681565b600660029054906101000a900460ff16610a81576040517f08c379a000000000000000000000000000000000000000000000000000000000815260040180806020018281038252600d8152602001807f6e6f74207265717565737465640000000000000000000000000000000000000081525060200191505060405180910390fd5b600960009054906101000a900473ffffffffffffffffffffffffffffffffffffffff1673ffffffffffffffffffffffffffffffffffffffff163373ffffffffffffffffffffffffffffffffffffffff1614610b44576040517f08c379a000000000000000000000000000000000000000000000000000000000815260040180806020018281038252600d8152602001807f6e6f7420726571756573746f720000000000000000000000000000000000000081525060200191505060405180910390fd5b6000600660006101000a81548160ff0219169083151502179055506000600660016101000a81548160ff0219169083151502179055506000600660026101000a81548160ff0219169083151502179055506000600660036101000a81548160ff0219169083151502179055506000600960006101000a81548173ffffffffffffffffffffffffffffffffffffffff021916908373ffffffffffffffffffffffffffffffffffffffff160217905550565b816005600082815260200190815260200160002060009054906101000a900473ffffffffffffffffffffffffffffffffffffffff1673ffffffffffffffffffffffffffffffffffffffff163373ffffffffffffffffffffffffffffffffffffffff1614610cac576040517f08c379a000000000000000000000000000000000000000000000000000000000815260040180806020018281038252602881526020018061197b6028913960400191505060405180910390fd5b6005600082815260200190815260200160002060006101000a81549073ffffffffffffffffffffffffffffffffffffffff0219169055807f7cc135e0cebb02c3480ae5d74d377283180a2601f8f644edf7987b009316c63a60405160405180910390a2818015610d6b5750600073ffffffffffffffffffffffffffffffffffffffff16600960009054906101000a900473ffffffffffffffffffffffffffffffffffffffff1673ffffffffffffffffffffffffffffffffffffffff1614155b15610e3c57600960009054906101000a900473ffffffffffffffffffffffffffffffffffffffff1673ffffffffffffffffffffffffffffffffffffffff1663963c50006008546040518263ffffffff1660e01b815260040180828152602001915050602060405180830381600087803b158015610de757600080fd5b505af1158015610dfb573d6000803e3d6000fd5b505050506040513d6020811015610e1157600080fd5b8101908080519060200190929190505050600660036101000a81548160ff0219169083151502179055505b81600660006101000a81548160ff0219169083151502179055506001600660016101000a81548160ff0219169083151502179055506000600660026101000a81548160ff0219169083151502179055506000600960006101000a81548173ffffffffffffffffffffffffffffffffffffffff021916908373ffffffffffffffffffffffffffffffffffffffff1602179055507f8f288c3ce93350c37265894448a6120ab0785d6852776fc6f1697bd15cac84668360085484600660039054906101000a900460ff1660405180858152602001848152602001831515151581526020018215151515815260200194505050505060405180910390a1505050565b610f4361189d565b610f4b61189d565b610f6285858584611257909392919063ffffffff16565b9150509392505050565b610f8382846080015161130790919063ffffffff16565b610f9a81846080015161130790919063ffffffff16565b505050565b600030600454604051602001808373ffffffffffffffffffffffffffffffffffffffff1673ffffffffffffffffffffffffffffffffffffffff1660601b815260140182815260200192505050604051602081830303815290604052805190602001209050600454836060018181525050836005600083815260200190815260200160002060006101000a81548173ffffffffffffffffffffffffffffffffffffffff021916908373ffffffffffffffffffffffffffffffffffffffff160217905550807fb5e6e01e79f91267dc17b4e6314d5d4d03593d2ceee0fbb452b750bd70ea5af960405160405180910390a2600260009054906101000a900473ffffffffffffffffffffffffffffffffffffffff1673ffffffffffffffffffffffffffffffffffffffff16634000aea085846110d78761132c565b6040518463ffffffff1660e01b8152600401808473ffffffffffffffffffffffffffffffffffffffff1673ffffffffffffffffffffffffffffffffffffffff16815260200183815260200180602001828103825283818151815260200191508051906020019080838360005b8381101561115e578082015181840152602081019050611143565b50505050905090810190601f16801561118b5780820380516001836020036101000a031916815260200191505b50945050505050602060405180830381600087803b1580156111ac57600080fd5b505af11580156111c0573d6000803e3d6000fd5b505050506040513d60208110156111d657600080fd5b810190808051906020019092919050505061123c576040517f08c379a00000000000000000000000000000000000000000000000000000000081526004018080602001828103825260238152602001806119256023913960400191505060405180910390fd5b60016004600082825401925050819055508090509392505050565b61125f61189d565b61126f85608001516101006114f8565b508385600001818152505082856020019073ffffffffffffffffffffffffffffffffffffffff16908173ffffffffffffffffffffffffffffffffffffffff16815250508185604001907bffffffffffffffffffffffffffffffffffffffffffffffffffffffff191690817bffffffffffffffffffffffffffffffffffffffffffffffffffffffff191681525050849050949350505050565b611314826003835161154c565b611327818361169190919063ffffffff16565b505050565b6060634042994660e01b60008084600001518560200151866040015187606001516001896080015160000151604051602401808973ffffffffffffffffffffffffffffffffffffffff1673ffffffffffffffffffffffffffffffffffffffff1681526020018881526020018781526020018673ffffffffffffffffffffffffffffffffffffffff1673ffffffffffffffffffffffffffffffffffffffff168152602001857bffffffffffffffffffffffffffffffffffffffffffffffffffffffff19167bffffffffffffffffffffffffffffffffffffffffffffffffffffffff1916815260200184815260200183815260200180602001828103825283818151815260200191508051906020019080838360005b8381101561145b578082015181840152602081019050611440565b50505050905090810190601f1680156114885780820380516001836020036101000a031916815260200191505b509950505050505050505050604051602081830303815290604052907bffffffffffffffffffffffffffffffffffffffffffffffffffffffff19166020820180517bffffffffffffffffffffffffffffffffffffffffffffffffffffffff83818316178352505050509050919050565b61150061190a565b60006020838161150c57fe5b0614611525576020828161151c57fe5b06602003820191505b81836020018181525050604051808452600081528281016020016040525082905092915050565b60178111611579576115738160058460ff16901b60ff1617846116b390919063ffffffff16565b5061168c565b60ff81116115bb5761159e601860058460ff16901b17846116b390919063ffffffff16565b506115b5816001856116d39092919063ffffffff16565b5061168b565b61ffff81116115fe576115e1601960058460ff16901b17846116b390919063ffffffff16565b506115f8816002856116d39092919063ffffffff16565b5061168a565b63ffffffff811161164357611626601a60058460ff16901b17846116b390919063ffffffff16565b5061163d816004856116d39092919063ffffffff16565b50611689565b67ffffffffffffffff81116116885761166f601b60058460ff16901b17846116b390919063ffffffff16565b50611686816008856116d39092919063ffffffff16565b505b5b5b5b5b505050565b61169961190a565b6116ab838460000151518485516116f5565b905092915050565b6116bb61190a565b6116cb83846000015151846117ae565b905092915050565b6116db61190a565b6116ec8485600001515185856117fc565b90509392505050565b6116fd61190a565b825182111561170b57600080fd5b846020015182850111156117365761173585600261172f886020015188870161185d565b02611879565b5b6000808651805187602083010193508088870111156117555787860182525b60208701925050505b60208410611781578051825260208201915060208101905060208403935061175e565b60006001856020036101000a03905080198251168184511681811785525050879350505050949350505050565b6117b661190a565b836020015183106117d3576117d2846002866020015102611879565b5b83518051602085830101848153818614156117ef576001820183525b5050508390509392505050565b61180461190a565b846020015184830111156118225761182185600286850102611879565b5b60006001836101000a039050855183868201018583198251161781528151858801111561184f5784870182525b505085915050949350505050565b60008183111561186f57829050611873565b8190505b92915050565b60608260000151905061188c83836114f8565b506118978382611691565b50505050565b6040518060a0016040528060008019168152602001600073ffffffffffffffffffffffffffffffffffffffff16815260200160007bffffffffffffffffffffffffffffffffffffffffffffffffffffffff191681526020016000815260200161190461190a565b81525090565b60405180604001604052806060815260200160008152509056fe756e61626c6520746f207472616e73666572416e6443616c6c20746f206f7261636c6568747470733a2f2f6170692e64697374726962757465642e746f776e2f6170692f6769672f312f76616c696461746548617368536f75726365206d75737420626520746865206f7261636c65206f66207468652072657175657374a2646970667358221220fb2b1b121d6a19a73eb25175bfe36cb95df40021dcb9d2f0f1161f84d72a2a0864736f6c634300060a0033",
  "linkReferences": {},
  "deployedLinkReferences": {}
}