{
  "_format": "hh-sol-artifact-1",
  "contractName": "GigValidator",
  "sourceName": "contracts/GigValidator.sol",
  "abi": [
    {
      "inputs": [
        {
          "internalType": "address",
          "name": "_oracle",
          "type": "address"
        },
        {
          "internalType": "bytes32",
          "name": "_jobId",
          "type": "bytes32"
        }
      ],
      "stateMutability": "nonpayable",
      "type": "constructor"
    },
    {
      "anonymous": false,
      "inputs": [
        {
          "indexed": true,
          "internalType": "bytes32",
          "name": "id",
          "type": "bytes32"
        }
      ],
      "name": "ChainlinkCancelled",
      "type": "event"
    },
    {
      "anonymous": false,
      "inputs": [
        {
          "indexed": true,
          "internalType": "bytes32",
          "name": "id",
          "type": "bytes32"
        }
      ],
      "name": "ChainlinkFulfilled",
      "type": "event"
    },
    {
      "anonymous": false,
      "inputs": [
        {
          "indexed": true,
          "internalType": "bytes32",
          "name": "id",
          "type": "bytes32"
        }
      ],
      "name": "ChainlinkRequested",
      "type": "event"
    },
    {
      "inputs": [],
      "name": "communityIdHash",
      "outputs": [
        {
          "internalType": "bytes32",
          "name": "",
          "type": "bytes32"
        }
      ],
      "stateMutability": "view",
      "type": "function"
    },
    {
      "inputs": [
        {
          "internalType": "bytes32",
          "name": "_requestId",
          "type": "bytes32"
        },
        {
          "internalType": "bool",
          "name": "_isValid",
          "type": "bool"
        }
      ],
      "name": "fulfill",
      "outputs": [],
      "stateMutability": "nonpayable",
      "type": "function"
    },
    {
      "inputs": [],
      "name": "gigHash",
      "outputs": [
        {
          "internalType": "bytes32",
          "name": "",
          "type": "bytes32"
        }
      ],
      "stateMutability": "view",
      "type": "function"
    },
    {
      "inputs": [],
      "name": "isFulfilled",
      "outputs": [
        {
          "internalType": "bool",
          "name": "",
          "type": "bool"
        }
      ],
      "stateMutability": "view",
      "type": "function"
    },
    {
      "inputs": [],
      "name": "isValid",
      "outputs": [
        {
          "internalType": "bool",
          "name": "",
          "type": "bool"
        }
      ],
      "stateMutability": "view",
      "type": "function"
    },
    {
      "inputs": [
        {
          "internalType": "string",
          "name": "_community",
          "type": "string"
        },
        {
          "internalType": "bytes32",
          "name": "_hash",
          "type": "bytes32"
        },
        {
          "internalType": "string",
          "name": "_mockIsValid",
          "type": "string"
        }
      ],
      "name": "requestIsGigValid",
      "outputs": [
        {
          "internalType": "bytes32",
          "name": "requestId",
          "type": "bytes32"
        }
      ],
      "stateMutability": "nonpayable",
      "type": "function"
    }
  ],
  "bytecode": "0x6080604052600160045534801561001557600080fd5b506040516113e13803806113e18339818101604052604081101561003857600080fd5b8101908080519060200190929190805190602001909291905050506100616100bf60201b60201c565b81600960006101000a81548173ffffffffffffffffffffffffffffffffffffffff021916908373ffffffffffffffffffffffffffffffffffffffff16021790555080600a8190555067016345785d8a0000600b8190555050506101a8565b61016273c89bd4e1632d3a43cb03aaad5262cbe4038bc57173ffffffffffffffffffffffffffffffffffffffff166338cc48316040518163ffffffff1660e01b815260040160206040518083038186803b15801561011c57600080fd5b505afa158015610130573d6000803e3d6000fd5b505050506040513d602081101561014657600080fd5b810190808051906020019092919050505061016460201b60201c565b565b80600260006101000a81548173ffffffffffffffffffffffffffffffffffffffff021916908373ffffffffffffffffffffffffffffffffffffffff16021790555050565b61122a806101b76000396000f3fe608060405234801561001057600080fd5b50600436106100625760003560e01c80630bf8503814610067578063385a9c371461008557806359d998ad146100a75780639e23f481146100c5578063bb5d40eb14610235578063fd68990a14610257575b600080fd5b61006f610291565b6040518082815260200191505060405180910390f35b61008d610297565b604051808215151515815260200191505060405180910390f35b6100af6102aa565b6040518082815260200191505060405180910390f35b61021f600480360360608110156100db57600080fd5b81019080803590602001906401000000008111156100f857600080fd5b82018360208201111561010a57600080fd5b8035906020019184600183028401116401000000008311171561012c57600080fd5b91908080601f016020809104026020016040519081016040528093929190818152602001838380828437600081840152601f19601f820116905080830192505050505050509192919290803590602001909291908035906020019064010000000081111561019957600080fd5b8201836020820111156101ab57600080fd5b803590602001918460018302840111640100000000831117156101cd57600080fd5b91908080601f016020809104026020016040519081016040528093929190818152602001838380828437600081840152601f19601f8201169050808301925050505050505091929192905050506102b0565b6040518082815260200191505060405180910390f35b61023d610625565b604051808215151515815260200191505060405180910390f35b61028f6004803603604081101561026d57600080fd5b8101908080359060200190929190803515159060200190929190505050610638565b005b60075481565b600660019054906101000a900460ff1681565b60085481565b600080600660006101000a81548160ff0219169083151502179055506000600660016101000a81548160ff021916908315150217905550836040516020018082805190602001908083835b6020831061031e57805182526020820191506020810190506020830392506102fb565b6001836020036101000a038019825116818451168082178552505050505050905001915050604051602081830303815290604052805190602001206007819055508260088190555061036e6110ef565b610382600a543063fd68990a60e01b61078d565b90506103e66040518060400160405280600381526020017f676574000000000000000000000000000000000000000000000000000000000081525060405180606001604052806033815260200161119a60339139836107be9092919063ffffffff16565b61056d6040518060400160405280600b81526020017f7175657279506172616d7300000000000000000000000000000000000000000081525085878660405160200180807f686173683d000000000000000000000000000000000000000000000000000000815250600501848152602001807f26636f6d6d756e69747949443d00000000000000000000000000000000000000815250600d0183805190602001908083835b602083106104ae578051825260208201915060208101905060208303925061048b565b6001836020036101000a038019825116818451168082178552505050505050905001807f2669734d6f636b3d747275652672657475726e547275653d000000000000000081525060180182805190602001908083835b602083106105275780518252602082019150602081019050602083039250610504565b6001836020036101000a0380198251168184511680821785525050505050509050019350505050604051602081830303815290604052836107be9092919063ffffffff16565b6105ec6040518060400160405280600481526020017f70617468000000000000000000000000000000000000000000000000000000008152506040518060400160405280600781526020017f697356616c696400000000000000000000000000000000000000000000000000815250836107be9092919063ffffffff16565b61061b600960009054906101000a900473ffffffffffffffffffffffffffffffffffffffff1682600b546107f1565b9150509392505050565b600660009054906101000a900460ff1681565b816005600082815260200190815260200160002060009054906101000a900473ffffffffffffffffffffffffffffffffffffffff1673ffffffffffffffffffffffffffffffffffffffff163373ffffffffffffffffffffffffffffffffffffffff16146106f0576040517f08c379a00000000000000000000000000000000000000000000000000000000081526004018080602001828103825260288152602001806111cd6028913960400191505060405180910390fd5b6005600082815260200190815260200160002060006101000a81549073ffffffffffffffffffffffffffffffffffffffff0219169055807f7cc135e0cebb02c3480ae5d74d377283180a2601f8f644edf7987b009316c63a60405160405180910390a281600660006101000a81548160ff0219169083151502179055506001600660016101000a81548160ff021916908315150217905550505050565b6107956110ef565b61079d6110ef565b6107b485858584610aa9909392919063ffffffff16565b9150509392505050565b6107d5828460800151610b5990919063ffffffff16565b6107ec818460800151610b5990919063ffffffff16565b505050565b600030600454604051602001808373ffffffffffffffffffffffffffffffffffffffff1673ffffffffffffffffffffffffffffffffffffffff1660601b815260140182815260200192505050604051602081830303815290604052805190602001209050600454836060018181525050836005600083815260200190815260200160002060006101000a81548173ffffffffffffffffffffffffffffffffffffffff021916908373ffffffffffffffffffffffffffffffffffffffff160217905550807fb5e6e01e79f91267dc17b4e6314d5d4d03593d2ceee0fbb452b750bd70ea5af960405160405180910390a2600260009054906101000a900473ffffffffffffffffffffffffffffffffffffffff1673ffffffffffffffffffffffffffffffffffffffff16634000aea0858461092987610b7e565b6040518463ffffffff1660e01b8152600401808473ffffffffffffffffffffffffffffffffffffffff1673ffffffffffffffffffffffffffffffffffffffff16815260200183815260200180602001828103825283818151815260200191508051906020019080838360005b838110156109b0578082015181840152602081019050610995565b50505050905090810190601f1680156109dd5780820380516001836020036101000a031916815260200191505b50945050505050602060405180830381600087803b1580156109fe57600080fd5b505af1158015610a12573d6000803e3d6000fd5b505050506040513d6020811015610a2857600080fd5b8101908080519060200190929190505050610a8e576040517f08c379a00000000000000000000000000000000000000000000000000000000081526004018080602001828103825260238152602001806111776023913960400191505060405180910390fd5b60016004600082825401925050819055508090509392505050565b610ab16110ef565b610ac18560800151610100610d4a565b508385600001818152505082856020019073ffffffffffffffffffffffffffffffffffffffff16908173ffffffffffffffffffffffffffffffffffffffff16815250508185604001907bffffffffffffffffffffffffffffffffffffffffffffffffffffffff191690817bffffffffffffffffffffffffffffffffffffffffffffffffffffffff191681525050849050949350505050565b610b668260038351610d9e565b610b798183610ee390919063ffffffff16565b505050565b6060634042994660e01b60008084600001518560200151866040015187606001516001896080015160000151604051602401808973ffffffffffffffffffffffffffffffffffffffff1673ffffffffffffffffffffffffffffffffffffffff1681526020018881526020018781526020018673ffffffffffffffffffffffffffffffffffffffff1673ffffffffffffffffffffffffffffffffffffffff168152602001857bffffffffffffffffffffffffffffffffffffffffffffffffffffffff19167bffffffffffffffffffffffffffffffffffffffffffffffffffffffff1916815260200184815260200183815260200180602001828103825283818151815260200191508051906020019080838360005b83811015610cad578082015181840152602081019050610c92565b50505050905090810190601f168015610cda5780820380516001836020036101000a031916815260200191505b509950505050505050505050604051602081830303815290604052907bffffffffffffffffffffffffffffffffffffffffffffffffffffffff19166020820180517bffffffffffffffffffffffffffffffffffffffffffffffffffffffff83818316178352505050509050919050565b610d5261115c565b600060208381610d5e57fe5b0614610d775760208281610d6e57fe5b06602003820191505b81836020018181525050604051808452600081528281016020016040525082905092915050565b60178111610dcb57610dc58160058460ff16901b60ff161784610f0590919063ffffffff16565b50610ede565b60ff8111610e0d57610df0601860058460ff16901b1784610f0590919063ffffffff16565b50610e0781600185610f259092919063ffffffff16565b50610edd565b61ffff8111610e5057610e33601960058460ff16901b1784610f0590919063ffffffff16565b50610e4a81600285610f259092919063ffffffff16565b50610edc565b63ffffffff8111610e9557610e78601a60058460ff16901b1784610f0590919063ffffffff16565b50610e8f81600485610f259092919063ffffffff16565b50610edb565b67ffffffffffffffff8111610eda57610ec1601b60058460ff16901b1784610f0590919063ffffffff16565b50610ed881600885610f259092919063ffffffff16565b505b5b5b5b5b505050565b610eeb61115c565b610efd83846000015151848551610f47565b905092915050565b610f0d61115c565b610f1d8384600001515184611000565b905092915050565b610f2d61115c565b610f3e84856000015151858561104e565b90509392505050565b610f4f61115c565b8251821115610f5d57600080fd5b84602001518285011115610f8857610f87856002610f8188602001518887016110af565b026110cb565b5b600080865180518760208301019350808887011115610fa75787860182525b60208701925050505b60208410610fd35780518252602082019150602081019050602084039350610fb0565b60006001856020036101000a03905080198251168184511681811785525050879350505050949350505050565b61100861115c565b83602001518310611025576110248460028660200151026110cb565b5b8351805160208583010184815381861415611041576001820183525b5050508390509392505050565b61105661115c565b8460200151848301111561107457611073856002868501026110cb565b5b60006001836101000a03905085518386820101858319825116178152815185880111156110a15784870182525b505085915050949350505050565b6000818311156110c1578290506110c5565b8190505b92915050565b6060826000015190506110de8383610d4a565b506110e98382610ee3565b50505050565b6040518060a0016040528060008019168152602001600073ffffffffffffffffffffffffffffffffffffffff16815260200160007bffffffffffffffffffffffffffffffffffffffffffffffffffffffff191681526020016000815260200161115661115c565b81525090565b60405180604001604052806060815260200160008152509056fe756e61626c6520746f207472616e73666572416e6443616c6c20746f206f7261636c6568747470733a2f2f6170692e64697374726962757465642e746f776e2f6170692f6769672f312f76616c696461746548617368536f75726365206d75737420626520746865206f7261636c65206f66207468652072657175657374a2646970667358221220a18da11ff92be989ad97927a1304ca229df60c6bece000cffaaef58698c7989e64736f6c634300060a0033",
  "linkReferences": {},
  "deployedLinkReferences": {}
}