{
  "_format": "hh-sol-artifact-1",
  "contractName": "GigValidator",
  "sourceName": "contracts/GigValidator.sol",
  "abi": [
    {
      "inputs": [],
      "stateMutability": "nonpayable",
      "type": "constructor"
    },
    {
      "anonymous": false,
      "inputs": [
        {
          "indexed": true,
          "internalType": "bytes32",
          "name": "id",
          "type": "bytes32"
        }
      ],
      "name": "ChainlinkCancelled",
      "type": "event"
    },
    {
      "anonymous": false,
      "inputs": [
        {
          "indexed": true,
          "internalType": "bytes32",
          "name": "id",
          "type": "bytes32"
        }
      ],
      "name": "ChainlinkFulfilled",
      "type": "event"
    },
    {
      "anonymous": false,
      "inputs": [
        {
          "indexed": true,
          "internalType": "bytes32",
          "name": "id",
          "type": "bytes32"
        }
      ],
      "name": "ChainlinkRequested",
      "type": "event"
    },
    {
      "inputs": [
        {
          "internalType": "bytes32",
          "name": "_requestId",
          "type": "bytes32"
        },
        {
          "internalType": "bool",
          "name": "_isValid",
          "type": "bool"
        }
      ],
      "name": "fulfill",
      "outputs": [],
      "stateMutability": "nonpayable",
      "type": "function"
    },
    {
      "inputs": [],
      "name": "isValid",
      "outputs": [
        {
          "internalType": "bool",
          "name": "",
          "type": "bool"
        }
      ],
      "stateMutability": "view",
      "type": "function"
    },
    {
      "inputs": [],
      "name": "requestIsGigValid",
      "outputs": [
        {
          "internalType": "bytes32",
          "name": "requestId",
          "type": "bytes32"
        }
      ],
      "stateMutability": "nonpayable",
      "type": "function"
    }
  ],
  "bytecode": "0x6080604052600160045534801561001557600080fd5b506100246100b460201b60201c565b732f90a6d021db21e1b2a077c5a37b3c7e75d15b7e600660016101000a81548173ffffffffffffffffffffffffffffffffffffffff021916908373ffffffffffffffffffffffffffffffffffffffff1602179055507f353066633432313566383934343364313835623036316535643761663934393060078190555067016345785d8a000060088190555061019d565b61015773c89bd4e1632d3a43cb03aaad5262cbe4038bc57173ffffffffffffffffffffffffffffffffffffffff166338cc48316040518163ffffffff1660e01b815260040160206040518083038186803b15801561011157600080fd5b505afa158015610125573d6000803e3d6000fd5b505050506040513d602081101561013b57600080fd5b810190808051906020019092919050505061015960201b60201c565b565b80600260006101000a81548173ffffffffffffffffffffffffffffffffffffffff021916908373ffffffffffffffffffffffffffffffffffffffff16021790555050565b610de8806101ac6000396000f3fe608060405234801561001057600080fd5b50600436106100415760003560e01c8063bb5d40eb14610046578063d4704aff14610068578063fd68990a14610086575b600080fd5b61004e6100c0565b604051808215151515815260200191505060405180910390f35b6100706100d3565b6040518082815260200191505060405180910390f35b6100be6004803603604081101561009c57600080fd5b81019080803590602001909291908035151590602001909291905050506101ec565b005b600660009054906101000a900460ff1681565b60006100dd610c88565b6100f16007543063fd68990a60e01b610326565b90506101556040518060400160405280600381526020017f6765740000000000000000000000000000000000000000000000000000000000815250604051806060016040528060338152602001610d3360339139836103579092919063ffffffff16565b6101b76040518060400160405280600b81526020017f7175657279506172616d73000000000000000000000000000000000000000000815250604051806060016040528060258152602001610d6660259139836103579092919063ffffffff16565b6101e6600660019054906101000a900473ffffffffffffffffffffffffffffffffffffffff168260085461038a565b91505090565b816005600082815260200190815260200160002060009054906101000a900473ffffffffffffffffffffffffffffffffffffffff1673ffffffffffffffffffffffffffffffffffffffff163373ffffffffffffffffffffffffffffffffffffffff16146102a4576040517f08c379a0000000000000000000000000000000000000000000000000000000008152600401808060200182810382526028815260200180610d8b6028913960400191505060405180910390fd5b6005600082815260200190815260200160002060006101000a81549073ffffffffffffffffffffffffffffffffffffffff0219169055807f7cc135e0cebb02c3480ae5d74d377283180a2601f8f644edf7987b009316c63a60405160405180910390a281600660006101000a81548160ff021916908315150217905550505050565b61032e610c88565b610336610c88565b61034d85858584610642909392919063ffffffff16565b9150509392505050565b61036e8284608001516106f290919063ffffffff16565b6103858184608001516106f290919063ffffffff16565b505050565b600030600454604051602001808373ffffffffffffffffffffffffffffffffffffffff1673ffffffffffffffffffffffffffffffffffffffff1660601b815260140182815260200192505050604051602081830303815290604052805190602001209050600454836060018181525050836005600083815260200190815260200160002060006101000a81548173ffffffffffffffffffffffffffffffffffffffff021916908373ffffffffffffffffffffffffffffffffffffffff160217905550807fb5e6e01e79f91267dc17b4e6314d5d4d03593d2ceee0fbb452b750bd70ea5af960405160405180910390a2600260009054906101000a900473ffffffffffffffffffffffffffffffffffffffff1673ffffffffffffffffffffffffffffffffffffffff16634000aea085846104c287610717565b6040518463ffffffff1660e01b8152600401808473ffffffffffffffffffffffffffffffffffffffff1673ffffffffffffffffffffffffffffffffffffffff16815260200183815260200180602001828103825283818151815260200191508051906020019080838360005b8381101561054957808201518184015260208101905061052e565b50505050905090810190601f1680156105765780820380516001836020036101000a031916815260200191505b50945050505050602060405180830381600087803b15801561059757600080fd5b505af11580156105ab573d6000803e3d6000fd5b505050506040513d60208110156105c157600080fd5b8101908080519060200190929190505050610627576040517f08c379a0000000000000000000000000000000000000000000000000000000008152600401808060200182810382526023815260200180610d106023913960400191505060405180910390fd5b60016004600082825401925050819055508090509392505050565b61064a610c88565b61065a85608001516101006108e3565b508385600001818152505082856020019073ffffffffffffffffffffffffffffffffffffffff16908173ffffffffffffffffffffffffffffffffffffffff16815250508185604001907bffffffffffffffffffffffffffffffffffffffffffffffffffffffff191690817bffffffffffffffffffffffffffffffffffffffffffffffffffffffff191681525050849050949350505050565b6106ff8260038351610937565b6107128183610a7c90919063ffffffff16565b505050565b6060634042994660e01b60008084600001518560200151866040015187606001516001896080015160000151604051602401808973ffffffffffffffffffffffffffffffffffffffff1673ffffffffffffffffffffffffffffffffffffffff1681526020018881526020018781526020018673ffffffffffffffffffffffffffffffffffffffff1673ffffffffffffffffffffffffffffffffffffffff168152602001857bffffffffffffffffffffffffffffffffffffffffffffffffffffffff19167bffffffffffffffffffffffffffffffffffffffffffffffffffffffff1916815260200184815260200183815260200180602001828103825283818151815260200191508051906020019080838360005b8381101561084657808201518184015260208101905061082b565b50505050905090810190601f1680156108735780820380516001836020036101000a031916815260200191505b509950505050505050505050604051602081830303815290604052907bffffffffffffffffffffffffffffffffffffffffffffffffffffffff19166020820180517bffffffffffffffffffffffffffffffffffffffffffffffffffffffff83818316178352505050509050919050565b6108eb610cf5565b6000602083816108f757fe5b0614610910576020828161090757fe5b06602003820191505b81836020018181525050604051808452600081528281016020016040525082905092915050565b601781116109645761095e8160058460ff16901b60ff161784610a9e90919063ffffffff16565b50610a77565b60ff81116109a657610989601860058460ff16901b1784610a9e90919063ffffffff16565b506109a081600185610abe9092919063ffffffff16565b50610a76565b61ffff81116109e9576109cc601960058460ff16901b1784610a9e90919063ffffffff16565b506109e381600285610abe9092919063ffffffff16565b50610a75565b63ffffffff8111610a2e57610a11601a60058460ff16901b1784610a9e90919063ffffffff16565b50610a2881600485610abe9092919063ffffffff16565b50610a74565b67ffffffffffffffff8111610a7357610a5a601b60058460ff16901b1784610a9e90919063ffffffff16565b50610a7181600885610abe9092919063ffffffff16565b505b5b5b5b5b505050565b610a84610cf5565b610a9683846000015151848551610ae0565b905092915050565b610aa6610cf5565b610ab68384600001515184610b99565b905092915050565b610ac6610cf5565b610ad7848560000151518585610be7565b90509392505050565b610ae8610cf5565b8251821115610af657600080fd5b84602001518285011115610b2157610b20856002610b1a8860200151888701610c48565b02610c64565b5b600080865180518760208301019350808887011115610b405787860182525b60208701925050505b60208410610b6c5780518252602082019150602081019050602084039350610b49565b60006001856020036101000a03905080198251168184511681811785525050879350505050949350505050565b610ba1610cf5565b83602001518310610bbe57610bbd846002866020015102610c64565b5b8351805160208583010184815381861415610bda576001820183525b5050508390509392505050565b610bef610cf5565b84602001518483011115610c0d57610c0c85600286850102610c64565b5b60006001836101000a0390508551838682010185831982511617815281518588011115610c3a5784870182525b505085915050949350505050565b600081831115610c5a57829050610c5e565b8190505b92915050565b606082600001519050610c7783836108e3565b50610c828382610a7c565b50505050565b6040518060a0016040528060008019168152602001600073ffffffffffffffffffffffffffffffffffffffff16815260200160007bffffffffffffffffffffffffffffffffffffffffffffffffffffffff1916815260200160008152602001610cef610cf5565b81525090565b60405180604001604052806060815260200160008152509056fe756e61626c6520746f207472616e73666572416e6443616c6c20746f206f7261636c6568747470733a2f2f6170692e64697374726962757465642e746f776e2f6170692f6769672f312f76616c696461746548617368686173683d626c61626c6126636f6d6d756e69747949443d312669734d6f636b3d74727565536f75726365206d75737420626520746865206f7261636c65206f66207468652072657175657374a2646970667358221220fd447e9d15b3042e2a3a1dddcc3ae88ec3c99977be00d7bad2bc4309a3e4269064736f6c634300060a0033",
  "linkReferences": {},
  "deployedLinkReferences": {}
}