{
  "_format": "hh-sol-artifact-1",
  "contractName": "CommunityTreasury",
  "sourceName": "contracts/CommunityTreasury.sol",
  "abi": [
    {
      "inputs": [
        {
          "internalType": "enum DataTypes.CommunityTemplate",
          "name": "_template",
          "type": "uint8"
        },
        {
          "internalType": "address",
          "name": "_community",
          "type": "address"
        },
        {
          "internalType": "address",
          "name": "_token",
          "type": "address"
        },
        {
          "internalType": "address",
          "name": "_dao",
          "type": "address"
        },
        {
          "internalType": "address",
          "name": "_addressesProvider",
          "type": "address"
        }
      ],
      "stateMutability": "nonpayable",
      "type": "constructor"
    },
    {
      "anonymous": false,
      "inputs": [
        {
          "indexed": false,
          "internalType": "string",
          "name": "_currency",
          "type": "string"
        },
        {
          "indexed": false,
          "internalType": "uint256",
          "name": "_amount",
          "type": "uint256"
        }
      ],
      "name": "Borrowed",
      "type": "event"
    },
    {
      "anonymous": false,
      "inputs": [
        {
          "indexed": false,
          "internalType": "address",
          "name": "_community",
          "type": "address"
        }
      ],
      "name": "CommunitySet",
      "type": "event"
    },
    {
      "anonymous": false,
      "inputs": [
        {
          "indexed": false,
          "internalType": "address",
          "name": "_funder",
          "type": "address"
        },
        {
          "indexed": false,
          "internalType": "address",
          "name": "_currency",
          "type": "address"
        },
        {
          "indexed": false,
          "internalType": "uint256",
          "name": "_amount",
          "type": "uint256"
        }
      ],
      "name": "Funded",
      "type": "event"
    },
    {
      "anonymous": false,
      "inputs": [
        {
          "indexed": false,
          "internalType": "uint256",
          "name": "_id",
          "type": "uint256"
        }
      ],
      "name": "IdSet",
      "type": "event"
    },
    {
      "anonymous": false,
      "inputs": [
        {
          "indexed": false,
          "internalType": "uint256",
          "name": "_amount",
          "type": "uint256"
        },
        {
          "indexed": false,
          "internalType": "address",
          "name": "_project",
          "type": "address"
        }
      ],
      "name": "MilesoteComplete",
      "type": "event"
    },
    {
      "anonymous": false,
      "inputs": [
        {
          "indexed": true,
          "internalType": "address",
          "name": "previousOwner",
          "type": "address"
        },
        {
          "indexed": true,
          "internalType": "address",
          "name": "newOwner",
          "type": "address"
        }
      ],
      "name": "OwnershipTransferred",
      "type": "event"
    },
    {
      "anonymous": false,
      "inputs": [
        {
          "indexed": false,
          "internalType": "uint256",
          "name": "_amount",
          "type": "uint256"
        }
      ],
      "name": "ThersholdReached",
      "type": "event"
    },
    {
      "anonymous": false,
      "inputs": [
        {
          "indexed": false,
          "internalType": "address",
          "name": "_dao",
          "type": "address"
        }
      ],
      "name": "TreasuryDaoSet",
      "type": "event"
    },
    {
      "inputs": [],
      "name": "IDENTITY",
      "outputs": [
        {
          "internalType": "bytes4",
          "name": "",
          "type": "bytes4"
        }
      ],
      "stateMutability": "view",
      "type": "function"
    },
    {
      "inputs": [],
      "name": "MINAMOUNT",
      "outputs": [
        {
          "internalType": "uint256",
          "name": "",
          "type": "uint256"
        }
      ],
      "stateMutability": "view",
      "type": "function"
    },
    {
      "inputs": [],
      "name": "THRESHOLD",
      "outputs": [
        {
          "internalType": "uint256",
          "name": "",
          "type": "uint256"
        }
      ],
      "stateMutability": "view",
      "type": "function"
    },
    {
      "inputs": [],
      "name": "activateTimelock",
      "outputs": [],
      "stateMutability": "nonpayable",
      "type": "function"
    },
    {
      "inputs": [],
      "name": "addTimelock",
      "outputs": [],
      "stateMutability": "nonpayable",
      "type": "function"
    },
    {
      "inputs": [],
      "name": "addressesProvider",
      "outputs": [
        {
          "internalType": "address",
          "name": "",
          "type": "address"
        }
      ],
      "stateMutability": "view",
      "type": "function"
    },
    {
      "inputs": [],
      "name": "approveCommunity",
      "outputs": [],
      "stateMutability": "nonpayable",
      "type": "function"
    },
    {
      "inputs": [
        {
          "internalType": "string",
          "name": "_currency",
          "type": "string"
        },
        {
          "internalType": "uint256",
          "name": "_amount",
          "type": "uint256"
        }
      ],
      "name": "borrowDelegated",
      "outputs": [],
      "stateMutability": "nonpayable",
      "type": "function"
    },
    {
      "inputs": [],
      "name": "community",
      "outputs": [
        {
          "internalType": "address",
          "name": "",
          "type": "address"
        }
      ],
      "stateMutability": "view",
      "type": "function"
    },
    {
      "inputs": [
        {
          "internalType": "uint256",
          "name": "_amount",
          "type": "uint256"
        },
        {
          "internalType": "address",
          "name": "_project",
          "type": "address"
        }
      ],
      "name": "completeMilestone",
      "outputs": [],
      "stateMutability": "nonpayable",
      "type": "function"
    },
    {
      "inputs": [],
      "name": "dao",
      "outputs": [
        {
          "internalType": "contract ITreasuryDao",
          "name": "",
          "type": "address"
        }
      ],
      "stateMutability": "view",
      "type": "function"
    },
    {
      "inputs": [
        {
          "internalType": "string",
          "name": "_currency",
          "type": "string"
        },
        {
          "internalType": "uint256",
          "name": "_amount",
          "type": "uint256"
        }
      ],
      "name": "fund",
      "outputs": [],
      "stateMutability": "nonpayable",
      "type": "function"
    },
    {
      "inputs": [
        {
          "internalType": "address",
          "name": "",
          "type": "address"
        },
        {
          "internalType": "address",
          "name": "",
          "type": "address"
        }
      ],
      "name": "funds",
      "outputs": [
        {
          "internalType": "uint256",
          "name": "",
          "type": "uint256"
        }
      ],
      "stateMutability": "view",
      "type": "function"
    },
    {
      "inputs": [],
      "name": "getAllContributions",
      "outputs": [
        {
          "internalType": "uint256[]",
          "name": "",
          "type": "uint256[]"
        }
      ],
      "stateMutability": "view",
      "type": "function"
    },
    {
      "inputs": [],
      "name": "getDitoBalance",
      "outputs": [
        {
          "internalType": "uint256",
          "name": "",
          "type": "uint256"
        }
      ],
      "stateMutability": "view",
      "type": "function"
    },
    {
      "inputs": [
        {
          "internalType": "address",
          "name": "_funder",
          "type": "address"
        },
        {
          "internalType": "address",
          "name": "_asset",
          "type": "address"
        }
      ],
      "name": "getFunds",
      "outputs": [
        {
          "internalType": "uint256",
          "name": "",
          "type": "uint256"
        }
      ],
      "stateMutability": "view",
      "type": "function"
    },
    {
      "inputs": [
        {
          "internalType": "address",
          "name": "_project",
          "type": "address"
        }
      ],
      "name": "getProjectContributions",
      "outputs": [
        {
          "internalType": "uint256[]",
          "name": "",
          "type": "uint256[]"
        }
      ],
      "stateMutability": "view",
      "type": "function"
    },
    {
      "inputs": [
        {
          "internalType": "uint256",
          "name": "_id",
          "type": "uint256"
        }
      ],
      "name": "getProjects",
      "outputs": [
        {
          "internalType": "address",
          "name": "",
          "type": "address"
        }
      ],
      "stateMutability": "view",
      "type": "function"
    },
    {
      "inputs": [],
      "name": "id",
      "outputs": [
        {
          "internalType": "uint256",
          "name": "",
          "type": "uint256"
        }
      ],
      "stateMutability": "view",
      "type": "function"
    },
    {
      "inputs": [],
      "name": "owner",
      "outputs": [
        {
          "internalType": "address",
          "name": "",
          "type": "address"
        }
      ],
      "stateMutability": "view",
      "type": "function"
    },
    {
      "inputs": [
        {
          "internalType": "address",
          "name": "",
          "type": "address"
        },
        {
          "internalType": "uint256",
          "name": "",
          "type": "uint256"
        }
      ],
      "name": "projectContributions",
      "outputs": [
        {
          "internalType": "uint256",
          "name": "",
          "type": "uint256"
        }
      ],
      "stateMutability": "view",
      "type": "function"
    },
    {
      "inputs": [
        {
          "internalType": "uint256",
          "name": "",
          "type": "uint256"
        }
      ],
      "name": "projects",
      "outputs": [
        {
          "internalType": "address",
          "name": "",
          "type": "address"
        }
      ],
      "stateMutability": "view",
      "type": "function"
    },
    {
      "inputs": [],
      "name": "projectsNum",
      "outputs": [
        {
          "internalType": "uint256",
          "name": "",
          "type": "uint256"
        }
      ],
      "stateMutability": "view",
      "type": "function"
    },
    {
      "inputs": [],
      "name": "renounceOwnership",
      "outputs": [],
      "stateMutability": "nonpayable",
      "type": "function"
    },
    {
      "inputs": [
        {
          "internalType": "address",
          "name": "_community",
          "type": "address"
        }
      ],
      "name": "setCommunity",
      "outputs": [],
      "stateMutability": "nonpayable",
      "type": "function"
    },
    {
      "inputs": [
        {
          "internalType": "uint256",
          "name": "_id",
          "type": "uint256"
        }
      ],
      "name": "setId",
      "outputs": [],
      "stateMutability": "nonpayable",
      "type": "function"
    },
    {
      "inputs": [
        {
          "internalType": "address",
          "name": "_dao",
          "type": "address"
        }
      ],
      "name": "setTreasuryDAO",
      "outputs": [],
      "stateMutability": "nonpayable",
      "type": "function"
    },
    {
      "inputs": [],
      "name": "template",
      "outputs": [
        {
          "internalType": "enum DataTypes.CommunityTemplate",
          "name": "",
          "type": "uint8"
        }
      ],
      "stateMutability": "view",
      "type": "function"
    },
    {
      "inputs": [],
      "name": "timelock",
      "outputs": [
        {
          "internalType": "contract WithdrawTimelock",
          "name": "",
          "type": "address"
        }
      ],
      "stateMutability": "view",
      "type": "function"
    },
    {
      "inputs": [],
      "name": "timelockActive",
      "outputs": [
        {
          "internalType": "bool",
          "name": "",
          "type": "bool"
        }
      ],
      "stateMutability": "view",
      "type": "function"
    },
    {
      "inputs": [],
      "name": "token",
      "outputs": [
        {
          "internalType": "contract IDITOToken",
          "name": "",
          "type": "address"
        }
      ],
      "stateMutability": "view",
      "type": "function"
    },
    {
      "inputs": [
        {
          "internalType": "address",
          "name": "",
          "type": "address"
        }
      ],
      "name": "totalFunded",
      "outputs": [
        {
          "internalType": "uint256",
          "name": "",
          "type": "uint256"
        }
      ],
      "stateMutability": "view",
      "type": "function"
    },
    {
      "inputs": [],
      "name": "totalGigsCompleted",
      "outputs": [
        {
          "internalType": "uint256",
          "name": "",
          "type": "uint256"
        }
      ],
      "stateMutability": "view",
      "type": "function"
    },
    {
      "inputs": [],
      "name": "totalTokensReceived",
      "outputs": [
        {
          "internalType": "uint256",
          "name": "",
          "type": "uint256"
        }
      ],
      "stateMutability": "view",
      "type": "function"
    },
    {
      "inputs": [
        {
          "internalType": "address",
          "name": "newOwner",
          "type": "address"
        }
      ],
      "name": "transferOwnership",
      "outputs": [],
      "stateMutability": "nonpayable",
      "type": "function"
    },
    {
      "inputs": [
        {
          "internalType": "address",
          "name": "_currency",
          "type": "address"
        },
        {
          "internalType": "uint256",
          "name": "_amount",
          "type": "uint256"
        }
      ],
      "name": "withdrawFunding",
      "outputs": [],
      "stateMutability": "nonpayable",
      "type": "function"
    }
  ],
  "bytecode": "0x60806040523480156200001157600080fd5b5060405162003e5a38038062003e5a83398181016040528101906200003791906200026b565b6000620000496200023560201b60201c565b9050806000806101000a81548173ffffffffffffffffffffffffffffffffffffffff021916908373ffffffffffffffffffffffffffffffffffffffff1602179055508073ffffffffffffffffffffffffffffffffffffffff16600073ffffffffffffffffffffffffffffffffffffffff167f8be0079c531659141344cd1fd0a4f28419497f9722a3daafe3b4186f6b6457e060405160405180910390a35083600360026101000a81548173ffffffffffffffffffffffffffffffffffffffff021916908373ffffffffffffffffffffffffffffffffffffffff1602179055506000600360006101000a81548160ff02191690831515021790555084600360016101000a81548160ff021916908360028111156200016257fe5b021790555080600160006101000a81548173ffffffffffffffffffffffffffffffffffffffff021916908373ffffffffffffffffffffffffffffffffffffffff16021790555082600560006101000a81548173ffffffffffffffffffffffffffffffffffffffff021916908373ffffffffffffffffffffffffffffffffffffffff16021790555081600460006101000a81548173ffffffffffffffffffffffffffffffffffffffff021916908373ffffffffffffffffffffffffffffffffffffffff16021790555050505050506200034c565b600033905090565b6000815190506200024e8162000321565b92915050565b60008151905062000265816200033b565b92915050565b600080600080600060a086880312156200028457600080fd5b6000620002948882890162000254565b9550506020620002a7888289016200023d565b9450506040620002ba888289016200023d565b9350506060620002cd888289016200023d565b9250506080620002e0888289016200023d565b9150509295509295909350565b6000620002fa8262000301565b9050919050565b600073ffffffffffffffffffffffffffffffffffffffff82169050919050565b6200032c81620002ed565b81146200033857600080fd5b50565b600381106200034957600080fd5b50565b613afe806200035c6000396000f3fe608060405234801561001057600080fd5b506004361061021b5760003560e01c80639963ae8c11610125578063d0e0ba95116100ad578063e9999b031161007c578063e9999b03146105e2578063eaad31e114610600578063ef3711331461061e578063f2fde38b1461063c578063fc0c546a146106585761021b565b8063d0e0ba951461056e578063d33219b41461058a578063dc1fb5a5146105a8578063e377672e146105c65761021b565b8063af640d0f116100f4578063af640d0f146104ca578063bc1c2c29146104e8578063bdc5a95614610518578063c72c4d1014610534578063c7901378146105525761021b565b80639963ae8c146104325780639ab9c8191461044e5780639c28b1991461047e578063a46eddcf146104ae5761021b565b80634162169f116101a85780636f2ddd93116101775780636f2ddd93146103b0578063715018a6146103ce57806371586383146103d8578063785ffb37146103f65780638da5cb5b146104145761021b565b80634162169f1461034e57806346f98fec1461036c57806348f650071461037657806363a5d298146103a65761021b565b806315da0b02116101ef57806315da0b021461029657806320628b48146102b2578063247e9e86146102e25780632bdef29b1461031257806337f3061d146103305761021b565b8062f418f41461022057806303eeedfb1461022a578063107046bd14610248578063150c4aea14610278575b600080fd5b610228610676565b005b610232610709565b60405161023f919061375a565b60405180910390f35b610262600480360381019061025d9190612ed7565b61070f565b60405161026f91906133bd565b60405180910390f35b61028061074e565b60405161028d91906134e3565b60405180910390f35b6102b060048036038101906102ab9190612d90565b610759565b005b6102cc60048036038101906102c79190612ed7565b6109de565b6040516102d991906133bd565b60405180910390f35b6102fc60048036038101906102f79190612de2565b610a1f565b604051610309919061375a565b60405180910390f35b61031a610aa6565b60405161032791906134c8565b60405180910390f35b610338610ab9565b60405161034591906134a6565b60405180910390f35b610356610c6c565b6040516103639190613519565b60405180910390f35b610374610c92565b005b610390600480360381019061038b9190612d90565b610d86565b60405161039d91906134a6565b60405180910390f35b6103ae610e1d565b005b6103b8610f94565b6040516103c5919061354f565b60405180910390f35b6103d6610fa7565b005b6103e061112d565b6040516103ed919061375a565b60405180910390f35b6103fe611133565b60405161040b919061375a565b60405180910390f35b61041c611139565b60405161042991906133bd565b60405180910390f35b61044c60048036038101906104479190612e83565b611162565b005b61046860048036038101906104639190612e1e565b611809565b604051610475919061375a565b60405180910390f35b61049860048036038101906104939190612de2565b61183a565b6040516104a5919061375a565b60405180910390f35b6104c860048036038101906104c39190612d90565b61185f565b005b6104d26119f2565b6040516104df919061375a565b60405180910390f35b61050260048036038101906104fd9190612d90565b6119f8565b60405161050f919061375a565b60405180910390f35b610532600480360381019061052d9190612e83565b611a10565b005b61053c611d2e565b60405161054991906133bd565b60405180910390f35b61056c60048036038101906105679190612e1e565b611d54565b005b61058860048036038101906105839190612ed7565b611d58565b005b610592611fb5565b60405161059f9190613534565b60405180910390f35b6105b0611fdb565b6040516105bd91906133bd565b60405180910390f35b6105e060048036038101906105db9190612f29565b612001565b005b6105ea6126a6565b6040516105f7919061375a565b60405180910390f35b6106086126ac565b604051610615919061375a565b60405180910390f35b6106266126b9565b604051610633919061375a565b60405180910390f35b61065660048036038101906106519190612d90565b61276b565b005b610660612976565b60405161066d91906134fe565b60405180910390f35b600a60149054906101000a900460ff16156106c6576040517f08c379a00000000000000000000000000000000000000000000000000000000081526004016106bd9061363a565b60405180910390fd5b33600a60006101000a81548173ffffffffffffffffffffffffffffffffffffffff021916908373ffffffffffffffffffffffffffffffffffffffff160217905550565b60065481565b6008818154811061071f57600080fd5b906000526020600020016000915054906101000a900473ffffffffffffffffffffffffffffffffffffffff1681565b63f114c7dc60e01b81565b61076161299c565b73ffffffffffffffffffffffffffffffffffffffff1660008054906101000a900473ffffffffffffffffffffffffffffffffffffffff1673ffffffffffffffffffffffffffffffffffffffff1614610821576040517f08c379a00000000000000000000000000000000000000000000000000000000081526004018080602001828103825260208152602001807f4f776e61626c653a2063616c6c6572206973206e6f7420746865206f776e657281525060200191505060405180910390fd5b600360009054906101000a900460ff1615610871576040517f08c379a0000000000000000000000000000000000000000000000000000000008152600401610868906136fa565b60405180910390fd5b80600360026101000a81548173ffffffffffffffffffffffffffffffffffffffff021916908373ffffffffffffffffffffffffffffffffffffffff160217905550600560009054906101000a900473ffffffffffffffffffffffffffffffffffffffff1673ffffffffffffffffffffffffffffffffffffffff1663095ea7b3600360029054906101000a900473ffffffffffffffffffffffffffffffffffffffff167fffffffffffffffffffffffffffffffffffffffffffffffffffffffffffffffff6040518363ffffffff1660e01b815260040161095192919061342a565b602060405180830381600087803b15801561096b57600080fd5b505af115801561097f573d6000803e3d6000fd5b505050506040513d601f19601f820116820180604052508101906109a39190612e5a565b507fb954b00fb708b65e61e5af666f5ce5050a9a566a4c6cc31e34fb24d03459106f816040516109d391906133bd565b60405180910390a150565b6000600882815481106109ed57fe5b9060005260206000200160009054906101000a900473ffffffffffffffffffffffffffffffffffffffff169050919050565b6000600b60008473ffffffffffffffffffffffffffffffffffffffff1673ffffffffffffffffffffffffffffffffffffffff16815260200190815260200160002060008373ffffffffffffffffffffffffffffffffffffffff1673ffffffffffffffffffffffffffffffffffffffff16815260200190815260200160002054905092915050565b600a60149054906101000a900460ff1681565b60608060065467ffffffffffffffff81118015610ad557600080fd5b50604051908082528060200260200182016040528015610b045781602001602082028036833780820191505090505b5090506000805b600880549050811015610c635760005b6009600060088481548110610b2c57fe5b9060005260206000200160009054906101000a900473ffffffffffffffffffffffffffffffffffffffff1673ffffffffffffffffffffffffffffffffffffffff1673ffffffffffffffffffffffffffffffffffffffff16815260200190815260200160002080549050811015610c55576009600060088481548110610bad57fe5b9060005260206000200160009054906101000a900473ffffffffffffffffffffffffffffffffffffffff1673ffffffffffffffffffffffffffffffffffffffff1673ffffffffffffffffffffffffffffffffffffffff1681526020019081526020016000208181548110610c1d57fe5b9060005260206000200154848481518110610c3457fe5b60200260200101818152505082806001019350508080600101915050610b1b565b508080600101915050610b0b565b50819250505090565b600460009054906101000a900473ffffffffffffffffffffffffffffffffffffffff1681565b600560009054906101000a900473ffffffffffffffffffffffffffffffffffffffff1673ffffffffffffffffffffffffffffffffffffffff1663095ea7b3600360029054906101000a900473ffffffffffffffffffffffffffffffffffffffff167fffffffffffffffffffffffffffffffffffffffffffffffffffffffffffffffff6040518363ffffffff1660e01b8152600401610d3192919061342a565b602060405180830381600087803b158015610d4b57600080fd5b505af1158015610d5f573d6000803e3d6000fd5b505050506040513d601f19601f82011682018060405250810190610d839190612e5a565b50565b6060600960008373ffffffffffffffffffffffffffffffffffffffff1673ffffffffffffffffffffffffffffffffffffffff168152602001908152602001600020805480602002602001604051908101604052809291908181526020018280548015610e1157602002820191906000526020600020905b815481526020019060010190808311610dfd575b50505050509050919050565b610e2561299c565b73ffffffffffffffffffffffffffffffffffffffff1660008054906101000a900473ffffffffffffffffffffffffffffffffffffffff1673ffffffffffffffffffffffffffffffffffffffff1614610ee5576040517f08c379a00000000000000000000000000000000000000000000000000000000081526004018080602001828103825260208152602001807f4f776e61626c653a2063616c6c6572206973206e6f7420746865206f776e657281525060200191505060405180910390fd5b600073ffffffffffffffffffffffffffffffffffffffff16600a60009054906101000a900473ffffffffffffffffffffffffffffffffffffffff1673ffffffffffffffffffffffffffffffffffffffff161415610f77576040517f08c379a0000000000000000000000000000000000000000000000000000000008152600401610f6e9061371a565b60405180910390fd5b6001600a60146101000a81548160ff021916908315150217905550565b600360019054906101000a900460ff1681565b610faf61299c565b73ffffffffffffffffffffffffffffffffffffffff1660008054906101000a900473ffffffffffffffffffffffffffffffffffffffff1673ffffffffffffffffffffffffffffffffffffffff161461106f576040517f08c379a00000000000000000000000000000000000000000000000000000000081526004018080602001828103825260208152602001807f4f776e61626c653a2063616c6c6572206973206e6f7420746865206f776e657281525060200191505060405180910390fd5b600073ffffffffffffffffffffffffffffffffffffffff1660008054906101000a900473ffffffffffffffffffffffffffffffffffffffff1673ffffffffffffffffffffffffffffffffffffffff167f8be0079c531659141344cd1fd0a4f28419497f9722a3daafe3b4186f6b6457e060405160405180910390a360008060006101000a81548173ffffffffffffffffffffffffffffffffffffffff021916908373ffffffffffffffffffffffffffffffffffffffff160217905550565b60075481565b610f0081565b60008060009054906101000a900473ffffffffffffffffffffffffffffffffffffffff16905090565b600a60149054906101000a900460ff166111b1576040517f08c379a00000000000000000000000000000000000000000000000000000000081526004016111a89061361a565b60405180910390fd5b6000600160009054906101000a900473ffffffffffffffffffffffffffffffffffffffff1673ffffffffffffffffffffffffffffffffffffffff1663dacacb4e846040518263ffffffff1660e01b815260040161120e919061356a565b60206040518083038186803b15801561122657600080fd5b505afa15801561123a573d6000803e3d6000fd5b505050506040513d601f19601f8201168201806040525081019061125e9190612db9565b9050600073ffffffffffffffffffffffffffffffffffffffff168173ffffffffffffffffffffffffffffffffffffffff1614156112d0576040517f08c379a00000000000000000000000000000000000000000000000000000000081526004016112c7906136ba565b60405180910390fd5b60006112ed670de0b6b3a7640000846129a490919063ffffffff16565b9050808273ffffffffffffffffffffffffffffffffffffffff166370a0823161131461299c565b6040518263ffffffff1660e01b815260040161133091906133d8565b60206040518083038186803b15801561134857600080fd5b505afa15801561135c573d6000803e3d6000fd5b505050506040513d601f19601f820116820180604052508101906113809190612f00565b10156113c1576040517f08c379a00000000000000000000000000000000000000000000000000000000081526004016113b89061365a565b60405180910390fd5b8173ffffffffffffffffffffffffffffffffffffffff166323b872dd3330846040518463ffffffff1660e01b81526004016113fe939291906133f3565b602060405180830381600087803b15801561141857600080fd5b505af115801561142c573d6000803e3d6000fd5b505050506040513d601f19601f820116820180604052508101906114509190612e5a565b508173ffffffffffffffffffffffffffffffffffffffff1663095ea7b3600460009054906101000a900473ffffffffffffffffffffffffffffffffffffffff16836040518363ffffffff1660e01b81526004016114ae92919061342a565b602060405180830381600087803b1580156114c857600080fd5b505af11580156114dc573d6000803e3d6000fd5b505050506040513d601f19601f820116820180604052508101906115009190612e5a565b50600460009054906101000a900473ffffffffffffffffffffffffffffffffffffffff1673ffffffffffffffffffffffffffffffffffffffff1663a7829ffa858560646040518463ffffffff1660e01b8152600401611561939291906135bc565b600060405180830381600087803b15801561157b57600080fd5b505af115801561158f573d6000803e3d6000fd5b50505050600a60009054906101000a900473ffffffffffffffffffffffffffffffffffffffff1673ffffffffffffffffffffffffffffffffffffffff16638340f5493384846040518463ffffffff1660e01b81526004016115f2939291906133f3565b600060405180830381600087803b15801561160c57600080fd5b505af1158015611620573d6000803e3d6000fd5b505050506116b381600b60003373ffffffffffffffffffffffffffffffffffffffff1673ffffffffffffffffffffffffffffffffffffffff16815260200190815260200160002060008573ffffffffffffffffffffffffffffffffffffffff1673ffffffffffffffffffffffffffffffffffffffff16815260200190815260200160002054612a2a90919063ffffffff16565b600b60003373ffffffffffffffffffffffffffffffffffffffff1673ffffffffffffffffffffffffffffffffffffffff16815260200190815260200160002060008473ffffffffffffffffffffffffffffffffffffffff1673ffffffffffffffffffffffffffffffffffffffff1681526020019081526020016000208190555061178581600c60008573ffffffffffffffffffffffffffffffffffffffff1673ffffffffffffffffffffffffffffffffffffffff16815260200190815260200160002054612a2a90919063ffffffff16565b600c60008473ffffffffffffffffffffffffffffffffffffffff1673ffffffffffffffffffffffffffffffffffffffff168152602001908152602001600020819055507f3b5083eec1a1116c56de5d6841cff8efc6a0aec9850e836ec509d6ce024ea5613383836040516117fb939291906133f3565b60405180910390a150505050565b6009602052816000526040600020818154811061182557600080fd5b90600052602060002001600091509150505481565b600b602052816000526040600020602052806000526040600020600091509150505481565b61186761299c565b73ffffffffffffffffffffffffffffffffffffffff1660008054906101000a900473ffffffffffffffffffffffffffffffffffffffff1673ffffffffffffffffffffffffffffffffffffffff1614611927576040517f08c379a00000000000000000000000000000000000000000000000000000000081526004018080602001828103825260208152602001807f4f776e61626c653a2063616c6c6572206973206e6f7420746865206f776e657281525060200191505060405180910390fd5b600360009054906101000a900460ff1615611977576040517f08c379a000000000000000000000000000000000000000000000000000000000815260040161196e906136fa565b60405180910390fd5b80600460006101000a81548173ffffffffffffffffffffffffffffffffffffffff021916908373ffffffffffffffffffffffffffffffffffffffff1602179055507f181dccb510f27d9c2608cbef86fad60ab59d126bc8782ea2f21763607ec41739816040516119e791906133bd565b60405180910390a150565b60025481565b600c6020528060005260406000206000915090505481565b6000600160009054906101000a900473ffffffffffffffffffffffffffffffffffffffff1673ffffffffffffffffffffffffffffffffffffffff166339327e9e6040518163ffffffff1660e01b815260040160206040518083038186803b158015611a7a57600080fd5b505afa158015611a8e573d6000803e3d6000fd5b505050506040513d601f19601f82011682018060405250810190611ab29190612db9565b73ffffffffffffffffffffffffffffffffffffffff16630261bf8b6040518163ffffffff1660e01b815260040160206040518083038186803b158015611af757600080fd5b505afa158015611b0b573d6000803e3d6000fd5b505050506040513d601f19601f82011682018060405250810190611b2f9190612db9565b90506000600160009054906101000a900473ffffffffffffffffffffffffffffffffffffffff1673ffffffffffffffffffffffffffffffffffffffff1663dacacb4e856040518263ffffffff1660e01b8152600401611b8e919061356a565b60206040518083038186803b158015611ba657600080fd5b505afa158015611bba573d6000803e3d6000fd5b505050506040513d601f19601f82011682018060405250810190611bde9190612db9565b9050600073ffffffffffffffffffffffffffffffffffffffff168173ffffffffffffffffffffffffffffffffffffffff161415611c50576040517f08c379a0000000000000000000000000000000000000000000000000000000008152600401611c47906136ba565b60405180910390fd5b8173ffffffffffffffffffffffffffffffffffffffff1663a415bcad828560016000600460009054906101000a900473ffffffffffffffffffffffffffffffffffffffff166040518663ffffffff1660e01b8152600401611cb5959493929190613453565b600060405180830381600087803b158015611ccf57600080fd5b505af1158015611ce3573d6000803e3d6000fd5b50505050611cef612ab2565b7ffc30ec1bee3b4fb527f0d90b4bbbf5a24b72f0964679ff277df1895e8ad239578484604051611d2092919061358c565b60405180910390a150505050565b600160009054906101000a900473ffffffffffffffffffffffffffffffffffffffff1681565b5050565b600460009054906101000a900473ffffffffffffffffffffffffffffffffffffffff1673ffffffffffffffffffffffffffffffffffffffff163373ffffffffffffffffffffffffffffffffffffffff1614611de8576040517f08c379a0000000000000000000000000000000000000000000000000000000008152600401611ddf906136da565b60405180910390fd5b600360009054906101000a900460ff1615611e38576040517f08c379a0000000000000000000000000000000000000000000000000000000008152600401611e2f906136fa565b60405180910390fd5b600073ffffffffffffffffffffffffffffffffffffffff16600360029054906101000a900473ffffffffffffffffffffffffffffffffffffffff1673ffffffffffffffffffffffffffffffffffffffff161415611eca576040517f08c379a0000000000000000000000000000000000000000000000000000000008152600401611ec19061367a565b60405180910390fd5b806002819055506001600360006101000a81548160ff0219169083151502179055507fc72e55068a99063a2c847c0b87d2808f29d1935171e54ffa3a479533b4046b7481604051611f1b919061375a565b60405180910390a1600360029054906101000a900473ffffffffffffffffffffffffffffffffffffffff1673ffffffffffffffffffffffffffffffffffffffff1663d0e0ba956002546040518263ffffffff1660e01b8152600401611f80919061375a565b600060405180830381600087803b158015611f9a57600080fd5b505af1158015611fae573d6000803e3d6000fd5b5050505050565b600a60009054906101000a900473ffffffffffffffffffffffffffffffffffffffff1681565b600360029054906101000a900473ffffffffffffffffffffffffffffffffffffffff1681565b600360029054906101000a900473ffffffffffffffffffffffffffffffffffffffff1673ffffffffffffffffffffffffffffffffffffffff1661204261299c565b73ffffffffffffffffffffffffffffffffffffffff1614612098576040517f08c379a000000000000000000000000000000000000000000000000000000000815260040161208f906135fa565b60405180910390fd5b600073ffffffffffffffffffffffffffffffffffffffff168173ffffffffffffffffffffffffffffffffffffffff161415612108576040517f08c379a00000000000000000000000000000000000000000000000000000000081526004016120ff9061369a565b60405180910390fd5b6000821161214b576040517f08c379a00000000000000000000000000000000000000000000000000000000081526004016121429061373a565b60405180910390fd5b600560009054906101000a900473ffffffffffffffffffffffffffffffffffffffff1673ffffffffffffffffffffffffffffffffffffffff166323b872dd61219161299c565b306121ad670de0b6b3a7640000876129a490919063ffffffff16565b6040518463ffffffff1660e01b81526004016121cb939291906133f3565b602060405180830381600087803b1580156121e557600080fd5b505af11580156121f9573d6000803e3d6000fd5b505050506040513d601f19601f8201168201806040525081019061221d9190612e5a565b506000600560009054906101000a900473ffffffffffffffffffffffffffffffffffffffff1673ffffffffffffffffffffffffffffffffffffffff166370a08231306040518263ffffffff1660e01b815260040161227b91906133bd565b60206040518083038186803b15801561229357600080fd5b505afa1580156122a7573d6000803e3d6000fd5b505050506040513d601f19601f820116820180604052508101906122cb9190612f00565b90506000600960008473ffffffffffffffffffffffffffffffffffffffff1673ffffffffffffffffffffffffffffffffffffffff16815260200190815260200160002080549050141561237c576008829080600181540180825580915050600190039060005260206000200160009091909190916101000a81548173ffffffffffffffffffffffffffffffffffffffff021916908373ffffffffffffffffffffffffffffffffffffffff1602179055505b600960008373ffffffffffffffffffffffffffffffffffffffff1673ffffffffffffffffffffffffffffffffffffffff1681526020019081526020016000206123d6670de0b6b3a7640000856129a490919063ffffffff16565b90806001815401808255809150506001900390600052602060002001600090919091909150556124126001600654612a2a90919063ffffffff16565b60068190555061242d83600754612a2a90919063ffffffff16565b600781905550612450670de0b6b3a7640000610f006129a490919063ffffffff16565b8110612667576000612487612478670de0b6b3a76400006107d06129a490919063ffffffff16565b83612b6a90919063ffffffff16565b9050600460009054906101000a900473ffffffffffffffffffffffffffffffffffffffff1673ffffffffffffffffffffffffffffffffffffffff166305f9c5976002546040518263ffffffff1660e01b81526004016124e6919061375a565b600060405180830381600087803b15801561250057600080fd5b505af1158015612514573d6000803e3d6000fd5b505050507f78cd33486287c682aa18f13badc425b37df2158a72b64ecfe2fa765f62c934308484604051612549929190613775565b60405180910390a17facd3dbb848fad50d312987d285e88fdc140a8385c5c568117c79d1437d8be32e61257a6126b9565b604051612587919061375a565b60405180910390a1600560009054906101000a900473ffffffffffffffffffffffffffffffffffffffff1673ffffffffffffffffffffffffffffffffffffffff1663a9059cbb600360029054906101000a900473ffffffffffffffffffffffffffffffffffffffff16836040518363ffffffff1660e01b815260040161260e92919061342a565b602060405180830381600087803b15801561262857600080fd5b505af115801561263c573d6000803e3d6000fd5b505050506040513d601f19601f820116820180604052508101906126609190612e5a565b50506126a1565b7f78cd33486287c682aa18f13badc425b37df2158a72b64ecfe2fa765f62c934308383604051612698929190613775565b60405180910390a15b505050565b6107d081565b6000600880549050905090565b6000600560009054906101000a900473ffffffffffffffffffffffffffffffffffffffff1673ffffffffffffffffffffffffffffffffffffffff166370a08231306040518263ffffffff1660e01b815260040161271691906133bd565b60206040518083038186803b15801561272e57600080fd5b505afa158015612742573d6000803e3d6000fd5b505050506040513d601f19601f820116820180604052508101906127669190612f00565b905090565b61277361299c565b73ffffffffffffffffffffffffffffffffffffffff1660008054906101000a900473ffffffffffffffffffffffffffffffffffffffff1673ffffffffffffffffffffffffffffffffffffffff1614612833576040517f08c379a00000000000000000000000000000000000000000000000000000000081526004018080602001828103825260208152602001807f4f776e61626c653a2063616c6c6572206973206e6f7420746865206f776e657281525060200191505060405180910390fd5b600073ffffffffffffffffffffffffffffffffffffffff168173ffffffffffffffffffffffffffffffffffffffff1614156128b9576040517f08c379a0000000000000000000000000000000000000000000000000000000008152600401808060200182810382526026815260200180613a826026913960400191505060405180910390fd5b8073ffffffffffffffffffffffffffffffffffffffff1660008054906101000a900473ffffffffffffffffffffffffffffffffffffffff1673ffffffffffffffffffffffffffffffffffffffff167f8be0079c531659141344cd1fd0a4f28419497f9722a3daafe3b4186f6b6457e060405160405180910390a3806000806101000a81548173ffffffffffffffffffffffffffffffffffffffff021916908373ffffffffffffffffffffffffffffffffffffffff16021790555050565b600560009054906101000a900473ffffffffffffffffffffffffffffffffffffffff1681565b600033905090565b6000808314156129b75760009050612a24565b60008284029050828482816129c857fe5b0414612a1f576040517f08c379a0000000000000000000000000000000000000000000000000000000008152600401808060200182810382526021815260200180613aa86021913960400191505060405180910390fd5b809150505b92915050565b600080828401905083811015612aa8576040517f08c379a000000000000000000000000000000000000000000000000000000000815260040180806020018281038252601b8152602001807f536166654d6174683a206164646974696f6e206f766572666c6f77000000000081525060200191505060405180910390fd5b8091505092915050565b60005b600880549050811015612b51576009600060088381548110612ad357fe5b9060005260206000200160009054906101000a900473ffffffffffffffffffffffffffffffffffffffff1673ffffffffffffffffffffffffffffffffffffffff1673ffffffffffffffffffffffffffffffffffffffff1681526020019081526020016000206000612b449190612c74565b8080600101915050612ab5565b5060086000612b609190612c95565b6000600681905550565b6000612bac83836040518060400160405280601e81526020017f536166654d6174683a207375627472616374696f6e206f766572666c6f770000815250612bb4565b905092915050565b6000838311158290612c61576040517f08c379a00000000000000000000000000000000000000000000000000000000081526004018080602001828103825283818151815260200191508051906020019080838360005b83811015612c26578082015181840152602081019050612c0b565b50505050905090810190601f168015612c535780820380516001836020036101000a031916815260200191505b509250505060405180910390fd5b5060008385039050809150509392505050565b5080546000825590600052602060002090810190612c929190612cb6565b50565b5080546000825590600052602060002090810190612cb39190612cb6565b50565b5b80821115612ccf576000816000905550600101612cb7565b5090565b600081359050612ce281613a3c565b92915050565b600081519050612cf781613a3c565b92915050565b600081519050612d0c81613a53565b92915050565b600082601f830112612d2357600080fd5b8135612d36612d31826137cf565b61379e565b91508082526020830160208301858383011115612d5257600080fd5b612d5d8382846139d3565b50505092915050565b600081359050612d7581613a6a565b92915050565b600081519050612d8a81613a6a565b92915050565b600060208284031215612da257600080fd5b6000612db084828501612cd3565b91505092915050565b600060208284031215612dcb57600080fd5b6000612dd984828501612ce8565b91505092915050565b60008060408385031215612df557600080fd5b6000612e0385828601612cd3565b9250506020612e1485828601612cd3565b9150509250929050565b60008060408385031215612e3157600080fd5b6000612e3f85828601612cd3565b9250506020612e5085828601612d66565b9150509250929050565b600060208284031215612e6c57600080fd5b6000612e7a84828501612cfd565b91505092915050565b60008060408385031215612e9657600080fd5b600083013567ffffffffffffffff811115612eb057600080fd5b612ebc85828601612d12565b9250506020612ecd85828601612d66565b9150509250929050565b600060208284031215612ee957600080fd5b6000612ef784828501612d66565b91505092915050565b600060208284031215612f1257600080fd5b6000612f2084828501612d7b565b91505092915050565b60008060408385031215612f3c57600080fd5b6000612f4a85828601612d66565b9250506020612f5b85828601612cd3565b9150509250929050565b6000612f71838361339f565b60208301905092915050565b612f86816138e9565b82525050565b612f9581613854565b82525050565b6000612fa68261380f565b612fb08185613832565b9350612fbb836137ff565b8060005b83811015612fec578151612fd38882612f65565b9750612fde83613825565b925050600181019050612fbf565b5085935050505092915050565b61300281613866565b82525050565b61301181613872565b82525050565b613020816138fb565b82525050565b61302f8161391f565b82525050565b61303e81613943565b82525050565b61304d81613967565b82525050565b61305c81613979565b82525050565b61306b8161398b565b82525050565b61307a8161399d565b82525050565b600061308b8261381a565b6130958185613843565b93506130a58185602086016139e2565b6130ae81613a17565b840191505092915050565b60006130c6602683613843565b91507f4769672063616e206f6e6c7920626520636f6d706c6574656420627920636f6d60008301527f6d756e69747900000000000000000000000000000000000000000000000000006020830152604082019050919050565b600061312c601383613843565b91507f74696d656c6f636b206e6f7420616374697665000000000000000000000000006000830152602082019050919050565b600061316c600e83613843565b91507f616c7265616479206163746976650000000000000000000000000000000000006000830152602082019050919050565b60006131ac601483613843565b91507f6e6f7420656e6f756768206f776e2066756e64730000000000000000000000006000830152602082019050919050565b60006131ec601483613843565b91507f636f6d6d756e697479206973206e6f74207365740000000000000000000000006000830152602082019050919050565b600061322c601883613843565b91507f6e6f2070726f6a65637420666f72206d696c6573746f6e6500000000000000006000830152602082019050919050565b600061326c601683613843565b91507f63757272656e6379206e6f7420737570706f72746564000000000000000000006000830152602082019050919050565b60006132ac601c83613843565b91507f6f6e6c792074726561737572792064616f2063616e20736574206964000000006000830152602082019050919050565b60006132ec601a83613843565b91507f747265617375727920697320616c7265616479206c696e6b65640000000000006000830152602082019050919050565b600061332c600783613843565b91507f6e6f7420736574000000000000000000000000000000000000000000000000006000830152602082019050919050565b600061336c600b83613843565b91507f616d6f756e7420697320300000000000000000000000000000000000000000006000830152602082019050919050565b6133a8816138df565b82525050565b6133b7816138df565b82525050565b60006020820190506133d26000830184612f8c565b92915050565b60006020820190506133ed6000830184612f7d565b92915050565b60006060820190506134086000830186612f7d565b6134156020830185612f8c565b61342260408301846133ae565b949350505050565b600060408201905061343f6000830185612f8c565b61344c60208301846133ae565b9392505050565b600060a0820190506134686000830188612f8c565b61347560208301876133ae565b6134826040830186613071565b61348f6060830185613053565b61349c6080830184612f8c565b9695505050505050565b600060208201905081810360008301526134c08184612f9b565b905092915050565b60006020820190506134dd6000830184612ff9565b92915050565b60006020820190506134f86000830184613008565b92915050565b60006020820190506135136000830184613017565b92915050565b600060208201905061352e6000830184613026565b92915050565b60006020820190506135496000830184613035565b92915050565b60006020820190506135646000830184613044565b92915050565b600060208201905081810360008301526135848184613080565b905092915050565b600060408201905081810360008301526135a68185613080565b90506135b560208301846133ae565b9392505050565b600060608201905081810360008301526135d68186613080565b90506135e560208301856133ae565b6135f26040830184613062565b949350505050565b60006020820190508181036000830152613613816130b9565b9050919050565b600060208201905081810360008301526136338161311f565b9050919050565b600060208201905081810360008301526136538161315f565b9050919050565b600060208201905081810360008301526136738161319f565b9050919050565b60006020820190508181036000830152613693816131df565b9050919050565b600060208201905081810360008301526136b38161321f565b9050919050565b600060208201905081810360008301526136d38161325f565b9050919050565b600060208201905081810360008301526136f38161329f565b9050919050565b60006020820190508181036000830152613713816132df565b9050919050565b600060208201905081810360008301526137338161331f565b9050919050565b600060208201905081810360008301526137538161335f565b9050919050565b600060208201905061376f60008301846133ae565b92915050565b600060408201905061378a60008301856133ae565b6137976020830184612f8c565b9392505050565b6000604051905081810181811067ffffffffffffffff821117156137c5576137c4613a15565b5b8060405250919050565b600067ffffffffffffffff8211156137ea576137e9613a15565b5b601f19601f8301169050602081019050919050565b6000819050602082019050919050565b600081519050919050565b600081519050919050565b6000602082019050919050565b600082825260208201905092915050565b600082825260208201905092915050565b600061385f826138bf565b9050919050565b60008115159050919050565b60007fffffffff0000000000000000000000000000000000000000000000000000000082169050919050565b60008190506138ac82613a28565b919050565b600061ffff82169050919050565b600073ffffffffffffffffffffffffffffffffffffffff82169050919050565b6000819050919050565b60006138f4826139af565b9050919050565b60006139068261390d565b9050919050565b6000613918826138bf565b9050919050565b600061392a82613931565b9050919050565b600061393c826138bf565b9050919050565b600061394e82613955565b9050919050565b6000613960826138bf565b9050919050565b60006139728261389e565b9050919050565b6000613984826138b1565b9050919050565b6000613996826138df565b9050919050565b60006139a8826138df565b9050919050565b60006139ba826139c1565b9050919050565b60006139cc826138bf565b9050919050565b82818337600083830152505050565b60005b83811015613a005780820151818401526020810190506139e5565b83811115613a0f576000848401525b50505050565bfe5b6000601f19601f8301169050919050565b60038110613a3957613a38613a15565b5b50565b613a4581613854565b8114613a5057600080fd5b50565b613a5c81613866565b8114613a6757600080fd5b50565b613a73816138df565b8114613a7e57600080fd5b5056fe4f776e61626c653a206e6577206f776e657220697320746865207a65726f2061646472657373536166654d6174683a206d756c7469706c69636174696f6e206f766572666c6f77a26469706673582212206d3b5e02c7942accfe91fe7651bd0f9374a9ba0b70a7c202982c919fea06635664736f6c63430007040033",
  "linkReferences": {},
  "deployedLinkReferences": {}
}