{
  "_format": "hh-sol-artifact-1",
  "contractName": "CommunityTreasury",
  "sourceName": "contracts/CommunityTreasury.sol",
  "abi": [
    {
      "inputs": [
        {
          "internalType": "enum DataTypes.CommunityTemplate",
          "name": "_template",
          "type": "uint8"
        },
        {
          "internalType": "address",
          "name": "_community",
          "type": "address"
        },
        {
          "internalType": "address",
          "name": "_token",
          "type": "address"
        },
        {
          "internalType": "address",
          "name": "_dao",
          "type": "address"
        },
        {
          "internalType": "address",
          "name": "_addressesProvider",
          "type": "address"
        }
      ],
      "stateMutability": "nonpayable",
      "type": "constructor"
    },
    {
      "anonymous": false,
      "inputs": [
        {
          "indexed": false,
          "internalType": "string",
          "name": "_currency",
          "type": "string"
        },
        {
          "indexed": false,
          "internalType": "uint256",
          "name": "_amount",
          "type": "uint256"
        }
      ],
      "name": "Borrowed",
      "type": "event"
    },
    {
      "anonymous": false,
      "inputs": [
        {
          "indexed": false,
          "internalType": "address",
          "name": "_community",
          "type": "address"
        }
      ],
      "name": "CommunitySet",
      "type": "event"
    },
    {
      "anonymous": false,
      "inputs": [
        {
          "indexed": false,
          "internalType": "string",
          "name": "_currency",
          "type": "string"
        },
        {
          "indexed": false,
          "internalType": "uint256",
          "name": "_amount",
          "type": "uint256"
        },
        {
          "indexed": false,
          "internalType": "address",
          "name": "_project",
          "type": "address"
        }
      ],
      "name": "Distributed",
      "type": "event"
    },
    {
      "anonymous": false,
      "inputs": [
        {
          "indexed": false,
          "internalType": "address",
          "name": "_funder",
          "type": "address"
        },
        {
          "indexed": false,
          "internalType": "address",
          "name": "_currency",
          "type": "address"
        },
        {
          "indexed": false,
          "internalType": "uint256",
          "name": "_amount",
          "type": "uint256"
        }
      ],
      "name": "Funded",
      "type": "event"
    },
    {
      "anonymous": false,
      "inputs": [
        {
          "indexed": false,
          "internalType": "uint256",
          "name": "_id",
          "type": "uint256"
        }
      ],
      "name": "IdSet",
      "type": "event"
    },
    {
      "anonymous": false,
      "inputs": [
        {
          "indexed": false,
          "internalType": "uint256",
          "name": "_amount",
          "type": "uint256"
        },
        {
          "indexed": false,
          "internalType": "address",
          "name": "_project",
          "type": "address"
        }
      ],
      "name": "MilesoteComplete",
      "type": "event"
    },
    {
      "anonymous": false,
      "inputs": [
        {
          "indexed": true,
          "internalType": "address",
          "name": "previousOwner",
          "type": "address"
        },
        {
          "indexed": true,
          "internalType": "address",
          "name": "newOwner",
          "type": "address"
        }
      ],
      "name": "OwnershipTransferred",
      "type": "event"
    },
    {
      "anonymous": false,
      "inputs": [
        {
          "indexed": false,
          "internalType": "uint256",
          "name": "_amount",
          "type": "uint256"
        }
      ],
      "name": "ThersholdReached",
      "type": "event"
    },
    {
      "anonymous": false,
      "inputs": [
        {
          "indexed": false,
          "internalType": "address",
          "name": "_dao",
          "type": "address"
        }
      ],
      "name": "TreasuryDaoSet",
      "type": "event"
    },
    {
      "inputs": [],
      "name": "IDENTITY",
      "outputs": [
        {
          "internalType": "bytes4",
          "name": "",
          "type": "bytes4"
        }
      ],
      "stateMutability": "view",
      "type": "function"
    },
    {
      "inputs": [],
      "name": "MINAMOUNT",
      "outputs": [
        {
          "internalType": "uint256",
          "name": "",
          "type": "uint256"
        }
      ],
      "stateMutability": "view",
      "type": "function"
    },
    {
      "inputs": [],
      "name": "THRESHOLD",
      "outputs": [
        {
          "internalType": "uint256",
          "name": "",
          "type": "uint256"
        }
      ],
      "stateMutability": "view",
      "type": "function"
    },
    {
      "inputs": [],
      "name": "activateTimelock",
      "outputs": [],
      "stateMutability": "nonpayable",
      "type": "function"
    },
    {
      "inputs": [],
      "name": "addTimelock",
      "outputs": [],
      "stateMutability": "nonpayable",
      "type": "function"
    },
    {
      "inputs": [],
      "name": "addressesProvider",
      "outputs": [
        {
          "internalType": "address",
          "name": "",
          "type": "address"
        }
      ],
      "stateMutability": "view",
      "type": "function"
    },
    {
      "inputs": [],
      "name": "allocateDelegated",
      "outputs": [],
      "stateMutability": "nonpayable",
      "type": "function"
    },
    {
      "inputs": [],
      "name": "approveCommunity",
      "outputs": [],
      "stateMutability": "nonpayable",
      "type": "function"
    },
    {
      "inputs": [],
      "name": "community",
      "outputs": [
        {
          "internalType": "address",
          "name": "",
          "type": "address"
        }
      ],
      "stateMutability": "view",
      "type": "function"
    },
    {
      "inputs": [
        {
          "internalType": "uint256",
          "name": "_amount",
          "type": "uint256"
        },
        {
          "internalType": "address",
          "name": "_project",
          "type": "address"
        }
      ],
      "name": "completeMilestone",
      "outputs": [],
      "stateMutability": "nonpayable",
      "type": "function"
    },
    {
      "inputs": [],
      "name": "dao",
      "outputs": [
        {
          "internalType": "contract ITreasuryDao",
          "name": "",
          "type": "address"
        }
      ],
      "stateMutability": "view",
      "type": "function"
    },
    {
      "inputs": [
        {
          "internalType": "string",
          "name": "_currency",
          "type": "string"
        },
        {
          "internalType": "uint256",
          "name": "_amount",
          "type": "uint256"
        }
      ],
      "name": "fund",
      "outputs": [],
      "stateMutability": "nonpayable",
      "type": "function"
    },
    {
      "inputs": [
        {
          "internalType": "address",
          "name": "",
          "type": "address"
        },
        {
          "internalType": "address",
          "name": "",
          "type": "address"
        }
      ],
      "name": "funds",
      "outputs": [
        {
          "internalType": "uint256",
          "name": "",
          "type": "uint256"
        }
      ],
      "stateMutability": "view",
      "type": "function"
    },
    {
      "inputs": [],
      "name": "getAllContributions",
      "outputs": [
        {
          "internalType": "uint256[]",
          "name": "",
          "type": "uint256[]"
        }
      ],
      "stateMutability": "view",
      "type": "function"
    },
    {
      "inputs": [],
      "name": "getDitoBalance",
      "outputs": [
        {
          "internalType": "uint256",
          "name": "",
          "type": "uint256"
        }
      ],
      "stateMutability": "view",
      "type": "function"
    },
    {
      "inputs": [
        {
          "internalType": "address",
          "name": "_funder",
          "type": "address"
        },
        {
          "internalType": "address",
          "name": "_asset",
          "type": "address"
        }
      ],
      "name": "getFunds",
      "outputs": [
        {
          "internalType": "uint256",
          "name": "",
          "type": "uint256"
        }
      ],
      "stateMutability": "view",
      "type": "function"
    },
    {
      "inputs": [
        {
          "internalType": "address",
          "name": "_project",
          "type": "address"
        }
      ],
      "name": "getProjectContributions",
      "outputs": [
        {
          "internalType": "uint256[]",
          "name": "",
          "type": "uint256[]"
        }
      ],
      "stateMutability": "view",
      "type": "function"
    },
    {
      "inputs": [
        {
          "internalType": "uint256",
          "name": "_id",
          "type": "uint256"
        }
      ],
      "name": "getProjects",
      "outputs": [
        {
          "internalType": "address",
          "name": "",
          "type": "address"
        }
      ],
      "stateMutability": "view",
      "type": "function"
    },
    {
      "inputs": [],
      "name": "id",
      "outputs": [
        {
          "internalType": "uint256",
          "name": "",
          "type": "uint256"
        }
      ],
      "stateMutability": "view",
      "type": "function"
    },
    {
      "inputs": [],
      "name": "owner",
      "outputs": [
        {
          "internalType": "address",
          "name": "",
          "type": "address"
        }
      ],
      "stateMutability": "view",
      "type": "function"
    },
    {
      "inputs": [
        {
          "internalType": "address",
          "name": "",
          "type": "address"
        }
      ],
      "name": "projectAllocation",
      "outputs": [
        {
          "internalType": "uint256",
          "name": "",
          "type": "uint256"
        }
      ],
      "stateMutability": "view",
      "type": "function"
    },
    {
      "inputs": [
        {
          "internalType": "address",
          "name": "",
          "type": "address"
        },
        {
          "internalType": "uint256",
          "name": "",
          "type": "uint256"
        }
      ],
      "name": "projectContributions",
      "outputs": [
        {
          "internalType": "uint256",
          "name": "",
          "type": "uint256"
        }
      ],
      "stateMutability": "view",
      "type": "function"
    },
    {
      "inputs": [
        {
          "internalType": "uint256",
          "name": "",
          "type": "uint256"
        }
      ],
      "name": "projects",
      "outputs": [
        {
          "internalType": "address",
          "name": "",
          "type": "address"
        }
      ],
      "stateMutability": "view",
      "type": "function"
    },
    {
      "inputs": [],
      "name": "projectsNum",
      "outputs": [
        {
          "internalType": "uint256",
          "name": "",
          "type": "uint256"
        }
      ],
      "stateMutability": "view",
      "type": "function"
    },
    {
      "inputs": [
        {
          "internalType": "string",
          "name": "_currency",
          "type": "string"
        },
        {
          "internalType": "uint256",
          "name": "_amount",
          "type": "uint256"
        },
        {
          "internalType": "address",
          "name": "_project",
          "type": "address"
        }
      ],
      "name": "receiveAllocation",
      "outputs": [],
      "stateMutability": "nonpayable",
      "type": "function"
    },
    {
      "inputs": [],
      "name": "renounceOwnership",
      "outputs": [],
      "stateMutability": "nonpayable",
      "type": "function"
    },
    {
      "inputs": [
        {
          "internalType": "uint256",
          "name": "_id",
          "type": "uint256"
        }
      ],
      "name": "setId",
      "outputs": [],
      "stateMutability": "nonpayable",
      "type": "function"
    },
    {
      "inputs": [
        {
          "internalType": "address",
          "name": "_dao",
          "type": "address"
        }
      ],
      "name": "setTreasuryDAO",
      "outputs": [],
      "stateMutability": "nonpayable",
      "type": "function"
    },
    {
      "inputs": [],
      "name": "template",
      "outputs": [
        {
          "internalType": "enum DataTypes.CommunityTemplate",
          "name": "",
          "type": "uint8"
        }
      ],
      "stateMutability": "view",
      "type": "function"
    },
    {
      "inputs": [],
      "name": "timelock",
      "outputs": [
        {
          "internalType": "contract WithdrawTimelock",
          "name": "",
          "type": "address"
        }
      ],
      "stateMutability": "view",
      "type": "function"
    },
    {
      "inputs": [],
      "name": "timelockActive",
      "outputs": [
        {
          "internalType": "bool",
          "name": "",
          "type": "bool"
        }
      ],
      "stateMutability": "view",
      "type": "function"
    },
    {
      "inputs": [],
      "name": "token",
      "outputs": [
        {
          "internalType": "contract IDITOToken",
          "name": "",
          "type": "address"
        }
      ],
      "stateMutability": "view",
      "type": "function"
    },
    {
      "inputs": [
        {
          "internalType": "address",
          "name": "",
          "type": "address"
        }
      ],
      "name": "totalFunded",
      "outputs": [
        {
          "internalType": "uint256",
          "name": "",
          "type": "uint256"
        }
      ],
      "stateMutability": "view",
      "type": "function"
    },
    {
      "inputs": [],
      "name": "totalGigsCompleted",
      "outputs": [
        {
          "internalType": "uint256",
          "name": "",
          "type": "uint256"
        }
      ],
      "stateMutability": "view",
      "type": "function"
    },
    {
      "inputs": [],
      "name": "totalTokensReceived",
      "outputs": [
        {
          "internalType": "uint256",
          "name": "",
          "type": "uint256"
        }
      ],
      "stateMutability": "view",
      "type": "function"
    },
    {
      "inputs": [
        {
          "internalType": "address",
          "name": "newOwner",
          "type": "address"
        }
      ],
      "name": "transferOwnership",
      "outputs": [],
      "stateMutability": "nonpayable",
      "type": "function"
    },
    {
      "inputs": [
        {
          "internalType": "address",
          "name": "_currency",
          "type": "address"
        },
        {
          "internalType": "uint256",
          "name": "_amount",
          "type": "uint256"
        }
      ],
      "name": "withdrawFunding",
      "outputs": [],
      "stateMutability": "nonpayable",
      "type": "function"
    }
  ],
  "bytecode": "0x60806040523480156200001157600080fd5b5060405162004baa38038062004baa83398181016040528101906200003791906200026b565b6000620000496200023560201b60201c565b9050806000806101000a81548173ffffffffffffffffffffffffffffffffffffffff021916908373ffffffffffffffffffffffffffffffffffffffff1602179055508073ffffffffffffffffffffffffffffffffffffffff16600073ffffffffffffffffffffffffffffffffffffffff167f8be0079c531659141344cd1fd0a4f28419497f9722a3daafe3b4186f6b6457e060405160405180910390a35083600360026101000a81548173ffffffffffffffffffffffffffffffffffffffff021916908373ffffffffffffffffffffffffffffffffffffffff1602179055506000600360006101000a81548160ff02191690831515021790555084600360016101000a81548160ff021916908360028111156200016257fe5b021790555080600160006101000a81548173ffffffffffffffffffffffffffffffffffffffff021916908373ffffffffffffffffffffffffffffffffffffffff16021790555082600560006101000a81548173ffffffffffffffffffffffffffffffffffffffff021916908373ffffffffffffffffffffffffffffffffffffffff16021790555081600460006101000a81548173ffffffffffffffffffffffffffffffffffffffff021916908373ffffffffffffffffffffffffffffffffffffffff16021790555050505050506200034c565b600033905090565b6000815190506200024e8162000321565b92915050565b60008151905062000265816200033b565b92915050565b600080600080600060a086880312156200028457600080fd5b6000620002948882890162000254565b9550506020620002a7888289016200023d565b9450506040620002ba888289016200023d565b9350506060620002cd888289016200023d565b9250506080620002e0888289016200023d565b9150509295509295909350565b6000620002fa8262000301565b9050919050565b600073ffffffffffffffffffffffffffffffffffffffff82169050919050565b6200032c81620002ed565b81146200033857600080fd5b50565b600381106200034957600080fd5b50565b61484e806200035c6000396000f3fe608060405234801561001057600080fd5b50600436106102265760003560e01c80637ea5121111610130578063c7901378116100b8578063e9999b031161007c578063e9999b031461060b578063eaad31e114610629578063ef37113314610647578063f2fde38b14610665578063fc0c546a1461068157610226565b8063c79013781461057b578063d0e0ba9514610597578063d33219b4146105b3578063dc1fb5a5146105d1578063e377672e146105ef57610226565b80639c28b199116100ff5780639c28b199146104c3578063a46eddcf146104f3578063af640d0f1461050f578063bc1c2c291461052d578063c72c4d101461055d57610226565b80637ea51211146104295780638da5cb5b146104595780639963ae8c146104775780639ab9c8191461049357610226565b80634162169f116101b357806363a5d2981161018257806363a5d298146103bb5780636f2ddd93146103c5578063715018a6146103e357806371586383146103ed578063785ffb371461040b57610226565b80634162169f1461035957806346f98fec14610377578063472cf49b1461038157806348f650071461038b57610226565b806320628b48116101fa57806320628b48146102a1578063247e9e86146102d15780632bdef29b14610301578063328fb94c1461031f57806337f3061d1461033b57610226565b8062f418f41461022b57806303eeedfb14610235578063107046bd14610253578063150c4aea14610283575b600080fd5b61023361069f565b005b61023d610732565b60405161024a919061442b565b60405180910390f35b61026d600480360381019061026891906139c3565b610738565b60405161027a9190613fa9565b60405180910390f35b61028b610777565b60405161029891906140f8565b60405180910390f35b6102bb60048036038101906102b691906139c3565b610782565b6040516102c89190613fa9565b60405180910390f35b6102eb60048036038101906102e6919061383d565b6107c3565b6040516102f8919061442b565b60405180910390f35b61030961084a565b60405161031691906140dd565b60405180910390f35b61033960048036038101906103349190613932565b61085d565b005b610343610bbd565b60405161035091906140bb565b60405180910390f35b610361610d70565b60405161036e919061412e565b60405180910390f35b61037f610d96565b005b610389610e8a565b005b6103a560048036038101906103a091906137eb565b6112c4565b6040516103b291906140bb565b60405180910390f35b6103c361135b565b005b6103cd6114d2565b6040516103da9190614164565b60405180910390f35b6103eb6114e5565b005b6103f561166b565b604051610402919061442b565b60405180910390f35b610413611671565b604051610420919061442b565b60405180910390f35b610443600480360381019061043e91906137eb565b611677565b604051610450919061442b565b60405180910390f35b61046161168f565b60405161046e9190613fa9565b60405180910390f35b610491600480360381019061048c91906138de565b6116b8565b005b6104ad60048036038101906104a89190613879565b611d5f565b6040516104ba919061442b565b60405180910390f35b6104dd60048036038101906104d8919061383d565b611d90565b6040516104ea919061442b565b60405180910390f35b61050d600480360381019061050891906137eb565b611db5565b005b610517611f48565b604051610524919061442b565b60405180910390f35b610547600480360381019061054291906137eb565b611f4e565b604051610554919061442b565b60405180910390f35b610565611f66565b6040516105729190613fa9565b60405180910390f35b61059560048036038101906105909190613879565b611f8c565b005b6105b160048036038101906105ac91906139c3565b611f90565b005b6105bb6121ed565b6040516105c89190614149565b60405180910390f35b6105d9612213565b6040516105e69190613fa9565b60405180910390f35b61060960048036038101906106049190613a15565b612239565b005b6106136128de565b604051610620919061442b565b60405180910390f35b6106316128e4565b60405161063e919061442b565b60405180910390f35b61064f6128f1565b60405161065c919061442b565b60405180910390f35b61067f600480360381019061067a91906137eb565b6129a3565b005b610689612bae565b6040516106969190614113565b60405180910390f35b600b60149054906101000a900460ff16156106ef576040517f08c379a00000000000000000000000000000000000000000000000000000000081526004016106e69061425d565b60405180910390fd5b33600b60006101000a81548173ffffffffffffffffffffffffffffffffffffffff021916908373ffffffffffffffffffffffffffffffffffffffff160217905550565b60065481565b6008818154811061074857600080fd5b906000526020600020016000915054906101000a900473ffffffffffffffffffffffffffffffffffffffff1681565b63f114c7dc60e01b81565b60006008828154811061079157fe5b9060005260206000200160009054906101000a900473ffffffffffffffffffffffffffffffffffffffff169050919050565b6000600c60008473ffffffffffffffffffffffffffffffffffffffff1673ffffffffffffffffffffffffffffffffffffffff16815260200190815260200160002060008373ffffffffffffffffffffffffffffffffffffffff1673ffffffffffffffffffffffffffffffffffffffff16815260200190815260200160002054905092915050565b600b60149054906101000a900460ff1681565b81600a60008373ffffffffffffffffffffffffffffffffffffffff1673ffffffffffffffffffffffffffffffffffffffff1681526020019081526020016000205410156108df576040517f08c379a00000000000000000000000000000000000000000000000000000000081526004016108d69061429d565b60405180910390fd5b6000600160009054906101000a900473ffffffffffffffffffffffffffffffffffffffff1673ffffffffffffffffffffffffffffffffffffffff1663dacacb4e856040518263ffffffff1660e01b815260040161093c919061417f565b60206040518083038186803b15801561095457600080fd5b505afa158015610968573d6000803e3d6000fd5b505050506040513d601f19601f8201168201806040525081019061098c9190613814565b9050828173ffffffffffffffffffffffffffffffffffffffff166370a08231306040518263ffffffff1660e01b81526004016109c89190613fa9565b60206040518083038186803b1580156109e057600080fd5b505afa1580156109f4573d6000803e3d6000fd5b505050506040513d601f19601f82011682018060405250810190610a1891906139ec565b1015610a59576040517f08c379a0000000000000000000000000000000000000000000000000000000008152600401610a509061427d565b60405180910390fd5b610aab83600a60008573ffffffffffffffffffffffffffffffffffffffff1673ffffffffffffffffffffffffffffffffffffffff16815260200190815260200160002054612bd490919063ffffffff16565b600a60008473ffffffffffffffffffffffffffffffffffffffff1673ffffffffffffffffffffffffffffffffffffffff168152602001908152602001600020819055508073ffffffffffffffffffffffffffffffffffffffff1663a9059cbb83856040518363ffffffff1660e01b8152600401610b2992919061403f565b602060405180830381600087803b158015610b4357600080fd5b505af1158015610b57573d6000803e3d6000fd5b505050506040513d601f19601f82011682018060405250810190610b7b91906138b5565b507fb033a4af41928d910b820d64956d833641602007def71acd9f5a228d77862c90848484604051610baf939291906141a1565b60405180910390a150505050565b60608060065467ffffffffffffffff81118015610bd957600080fd5b50604051908082528060200260200182016040528015610c085781602001602082028036833780820191505090505b5090506000805b600880549050811015610d675760005b6009600060088481548110610c3057fe5b9060005260206000200160009054906101000a900473ffffffffffffffffffffffffffffffffffffffff1673ffffffffffffffffffffffffffffffffffffffff1673ffffffffffffffffffffffffffffffffffffffff16815260200190815260200160002080549050811015610d59576009600060088481548110610cb157fe5b9060005260206000200160009054906101000a900473ffffffffffffffffffffffffffffffffffffffff1673ffffffffffffffffffffffffffffffffffffffff1673ffffffffffffffffffffffffffffffffffffffff1681526020019081526020016000208181548110610d2157fe5b9060005260206000200154848481518110610d3857fe5b60200260200101818152505082806001019350508080600101915050610c1f565b508080600101915050610c0f565b50819250505090565b600460009054906101000a900473ffffffffffffffffffffffffffffffffffffffff1681565b600560009054906101000a900473ffffffffffffffffffffffffffffffffffffffff1673ffffffffffffffffffffffffffffffffffffffff1663095ea7b3600360029054906101000a900473ffffffffffffffffffffffffffffffffffffffff167fffffffffffffffffffffffffffffffffffffffffffffffffffffffffffffffff6040518363ffffffff1660e01b8152600401610e3592919061403f565b602060405180830381600087803b158015610e4f57600080fd5b505af1158015610e63573d6000803e3d6000fd5b505050506040513d601f19601f82011682018060405250810190610e8791906138b5565b50565b6000600160009054906101000a900473ffffffffffffffffffffffffffffffffffffffff1673ffffffffffffffffffffffffffffffffffffffff166339327e9e6040518163ffffffff1660e01b815260040160206040518083038186803b158015610ef457600080fd5b505afa158015610f08573d6000803e3d6000fd5b505050506040513d601f19601f82011682018060405250810190610f2c9190613814565b73ffffffffffffffffffffffffffffffffffffffff16630261bf8b6040518163ffffffff1660e01b815260040160206040518083038186803b158015610f7157600080fd5b505afa158015610f85573d6000803e3d6000fd5b505050506040513d601f19601f82011682018060405250810190610fa99190613814565b90506000600160009054906101000a900473ffffffffffffffffffffffffffffffffffffffff1673ffffffffffffffffffffffffffffffffffffffff1663dacacb4e6040518163ffffffff1660e01b81526004016110069061439d565b60206040518083038186803b15801561101e57600080fd5b505afa158015611032573d6000803e3d6000fd5b505050506040513d601f19601f820116820180604052508101906110569190613814565b905060008273ffffffffffffffffffffffffffffffffffffffff166335ea6a75836040518263ffffffff1660e01b81526004016110939190613fa9565b6101806040518083038186803b1580156110ac57600080fd5b505afa1580156110c0573d6000803e3d6000fd5b505050506040513d601f19601f820116820180604052508101906110e49190613999565b6101000151905060008173ffffffffffffffffffffffffffffffffffffffff16636bd76d24600460009054906101000a900473ffffffffffffffffffffffffffffffffffffffff16306040518363ffffffff1660e01b815260040161114a929190614016565b60206040518083038186803b15801561116257600080fd5b505afa158015611176573d6000803e3d6000fd5b505050506040513d601f19601f8201168201806040525081019061119a91906139ec565b9050600081116111df576040517f08c379a00000000000000000000000000000000000000000000000000000000081526004016111d6906142bd565b60405180910390fd5b8373ffffffffffffffffffffffffffffffffffffffff1663a415bcad848360016000600460009054906101000a900473ffffffffffffffffffffffffffffffffffffffff166040518663ffffffff1660e01b8152600401611244959493929190614068565b600060405180830381600087803b15801561125e57600080fd5b505af1158015611272573d6000803e3d6000fd5b5050505061127f81612c1e565b611287612edc565b7ffc30ec1bee3b4fb527f0d90b4bbbf5a24b72f0964679ff277df1895e8ad23957816040516112b691906143bd565b60405180910390a150505050565b6060600960008373ffffffffffffffffffffffffffffffffffffffff1673ffffffffffffffffffffffffffffffffffffffff16815260200190815260200160002080548060200260200160405190810160405280929190818152602001828054801561134f57602002820191906000526020600020905b81548152602001906001019080831161133b575b50505050509050919050565b611363612f94565b73ffffffffffffffffffffffffffffffffffffffff1660008054906101000a900473ffffffffffffffffffffffffffffffffffffffff1673ffffffffffffffffffffffffffffffffffffffff1614611423576040517f08c379a00000000000000000000000000000000000000000000000000000000081526004018080602001828103825260208152602001807f4f776e61626c653a2063616c6c6572206973206e6f7420746865206f776e657281525060200191505060405180910390fd5b600073ffffffffffffffffffffffffffffffffffffffff16600b60009054906101000a900473ffffffffffffffffffffffffffffffffffffffff1673ffffffffffffffffffffffffffffffffffffffff1614156114b5576040517f08c379a00000000000000000000000000000000000000000000000000000000081526004016114ac906143eb565b60405180910390fd5b6001600b60146101000a81548160ff021916908315150217905550565b600360019054906101000a900460ff1681565b6114ed612f94565b73ffffffffffffffffffffffffffffffffffffffff1660008054906101000a900473ffffffffffffffffffffffffffffffffffffffff1673ffffffffffffffffffffffffffffffffffffffff16146115ad576040517f08c379a00000000000000000000000000000000000000000000000000000000081526004018080602001828103825260208152602001807f4f776e61626c653a2063616c6c6572206973206e6f7420746865206f776e657281525060200191505060405180910390fd5b600073ffffffffffffffffffffffffffffffffffffffff1660008054906101000a900473ffffffffffffffffffffffffffffffffffffffff1673ffffffffffffffffffffffffffffffffffffffff167f8be0079c531659141344cd1fd0a4f28419497f9722a3daafe3b4186f6b6457e060405160405180910390a360008060006101000a81548173ffffffffffffffffffffffffffffffffffffffff021916908373ffffffffffffffffffffffffffffffffffffffff160217905550565b60075481565b610f0081565b600a6020528060005260406000206000915090505481565b60008060009054906101000a900473ffffffffffffffffffffffffffffffffffffffff16905090565b600b60149054906101000a900460ff16611707576040517f08c379a00000000000000000000000000000000000000000000000000000000081526004016116fe9061423d565b60405180910390fd5b6000600160009054906101000a900473ffffffffffffffffffffffffffffffffffffffff1673ffffffffffffffffffffffffffffffffffffffff1663dacacb4e846040518263ffffffff1660e01b8152600401611764919061417f565b60206040518083038186803b15801561177c57600080fd5b505afa158015611790573d6000803e3d6000fd5b505050506040513d601f19601f820116820180604052508101906117b49190613814565b9050600073ffffffffffffffffffffffffffffffffffffffff168173ffffffffffffffffffffffffffffffffffffffff161415611826576040517f08c379a000000000000000000000000000000000000000000000000000000000815260040161181d9061433d565b60405180910390fd5b6000611843670de0b6b3a764000084612f9c90919063ffffffff16565b9050808273ffffffffffffffffffffffffffffffffffffffff166370a0823161186a612f94565b6040518263ffffffff1660e01b81526004016118869190613fc4565b60206040518083038186803b15801561189e57600080fd5b505afa1580156118b2573d6000803e3d6000fd5b505050506040513d601f19601f820116820180604052508101906118d691906139ec565b1015611917576040517f08c379a000000000000000000000000000000000000000000000000000000000815260040161190e906142dd565b60405180910390fd5b8173ffffffffffffffffffffffffffffffffffffffff166323b872dd3330846040518463ffffffff1660e01b815260040161195493929190613fdf565b602060405180830381600087803b15801561196e57600080fd5b505af1158015611982573d6000803e3d6000fd5b505050506040513d601f19601f820116820180604052508101906119a691906138b5565b508173ffffffffffffffffffffffffffffffffffffffff1663095ea7b3600460009054906101000a900473ffffffffffffffffffffffffffffffffffffffff16836040518363ffffffff1660e01b8152600401611a0492919061403f565b602060405180830381600087803b158015611a1e57600080fd5b505af1158015611a32573d6000803e3d6000fd5b505050506040513d601f19601f82011682018060405250810190611a5691906138b5565b50600460009054906101000a900473ffffffffffffffffffffffffffffffffffffffff1673ffffffffffffffffffffffffffffffffffffffff1663a7829ffa858560646040518463ffffffff1660e01b8152600401611ab7939291906141df565b600060405180830381600087803b158015611ad157600080fd5b505af1158015611ae5573d6000803e3d6000fd5b50505050600b60009054906101000a900473ffffffffffffffffffffffffffffffffffffffff1673ffffffffffffffffffffffffffffffffffffffff16638340f5493384846040518463ffffffff1660e01b8152600401611b4893929190613fdf565b600060405180830381600087803b158015611b6257600080fd5b505af1158015611b76573d6000803e3d6000fd5b50505050611c0981600c60003373ffffffffffffffffffffffffffffffffffffffff1673ffffffffffffffffffffffffffffffffffffffff16815260200190815260200160002060008573ffffffffffffffffffffffffffffffffffffffff1673ffffffffffffffffffffffffffffffffffffffff1681526020019081526020016000205461302290919063ffffffff16565b600c60003373ffffffffffffffffffffffffffffffffffffffff1673ffffffffffffffffffffffffffffffffffffffff16815260200190815260200160002060008473ffffffffffffffffffffffffffffffffffffffff1673ffffffffffffffffffffffffffffffffffffffff16815260200190815260200160002081905550611cdb81600d60008573ffffffffffffffffffffffffffffffffffffffff1673ffffffffffffffffffffffffffffffffffffffff1681526020019081526020016000205461302290919063ffffffff16565b600d60008473ffffffffffffffffffffffffffffffffffffffff1673ffffffffffffffffffffffffffffffffffffffff168152602001908152602001600020819055507f3b5083eec1a1116c56de5d6841cff8efc6a0aec9850e836ec509d6ce024ea561338383604051611d5193929190613fdf565b60405180910390a150505050565b60096020528160005260406000208181548110611d7b57600080fd5b90600052602060002001600091509150505481565b600c602052816000526040600020602052806000526040600020600091509150505481565b611dbd612f94565b73ffffffffffffffffffffffffffffffffffffffff1660008054906101000a900473ffffffffffffffffffffffffffffffffffffffff1673ffffffffffffffffffffffffffffffffffffffff1614611e7d576040517f08c379a00000000000000000000000000000000000000000000000000000000081526004018080602001828103825260208152602001807f4f776e61626c653a2063616c6c6572206973206e6f7420746865206f776e657281525060200191505060405180910390fd5b600360009054906101000a900460ff1615611ecd576040517f08c379a0000000000000000000000000000000000000000000000000000000008152600401611ec49061437d565b60405180910390fd5b80600460006101000a81548173ffffffffffffffffffffffffffffffffffffffff021916908373ffffffffffffffffffffffffffffffffffffffff1602179055507f181dccb510f27d9c2608cbef86fad60ab59d126bc8782ea2f21763607ec4173981604051611f3d9190613fa9565b60405180910390a150565b60025481565b600d6020528060005260406000206000915090505481565b600160009054906101000a900473ffffffffffffffffffffffffffffffffffffffff1681565b5050565b600460009054906101000a900473ffffffffffffffffffffffffffffffffffffffff1673ffffffffffffffffffffffffffffffffffffffff163373ffffffffffffffffffffffffffffffffffffffff1614612020576040517f08c379a00000000000000000000000000000000000000000000000000000000081526004016120179061435d565b60405180910390fd5b600360009054906101000a900460ff1615612070576040517f08c379a00000000000000000000000000000000000000000000000000000000081526004016120679061437d565b60405180910390fd5b600073ffffffffffffffffffffffffffffffffffffffff16600360029054906101000a900473ffffffffffffffffffffffffffffffffffffffff1673ffffffffffffffffffffffffffffffffffffffff161415612102576040517f08c379a00000000000000000000000000000000000000000000000000000000081526004016120f9906142fd565b60405180910390fd5b806002819055506001600360006101000a81548160ff0219169083151502179055507fc72e55068a99063a2c847c0b87d2808f29d1935171e54ffa3a479533b4046b7481604051612153919061442b565b60405180910390a1600360029054906101000a900473ffffffffffffffffffffffffffffffffffffffff1673ffffffffffffffffffffffffffffffffffffffff1663d0e0ba956002546040518263ffffffff1660e01b81526004016121b8919061442b565b600060405180830381600087803b1580156121d257600080fd5b505af11580156121e6573d6000803e3d6000fd5b5050505050565b600b60009054906101000a900473ffffffffffffffffffffffffffffffffffffffff1681565b600360029054906101000a900473ffffffffffffffffffffffffffffffffffffffff1681565b600360029054906101000a900473ffffffffffffffffffffffffffffffffffffffff1673ffffffffffffffffffffffffffffffffffffffff1661227a612f94565b73ffffffffffffffffffffffffffffffffffffffff16146122d0576040517f08c379a00000000000000000000000000000000000000000000000000000000081526004016122c79061421d565b60405180910390fd5b600073ffffffffffffffffffffffffffffffffffffffff168173ffffffffffffffffffffffffffffffffffffffff161415612340576040517f08c379a00000000000000000000000000000000000000000000000000000000081526004016123379061431d565b60405180910390fd5b60008211612383576040517f08c379a000000000000000000000000000000000000000000000000000000000815260040161237a9061440b565b60405180910390fd5b600560009054906101000a900473ffffffffffffffffffffffffffffffffffffffff1673ffffffffffffffffffffffffffffffffffffffff166323b872dd6123c9612f94565b306123e5670de0b6b3a764000087612f9c90919063ffffffff16565b6040518463ffffffff1660e01b815260040161240393929190613fdf565b602060405180830381600087803b15801561241d57600080fd5b505af1158015612431573d6000803e3d6000fd5b505050506040513d601f19601f8201168201806040525081019061245591906138b5565b506000600560009054906101000a900473ffffffffffffffffffffffffffffffffffffffff1673ffffffffffffffffffffffffffffffffffffffff166370a08231306040518263ffffffff1660e01b81526004016124b39190613fa9565b60206040518083038186803b1580156124cb57600080fd5b505afa1580156124df573d6000803e3d6000fd5b505050506040513d601f19601f8201168201806040525081019061250391906139ec565b90506000600960008473ffffffffffffffffffffffffffffffffffffffff1673ffffffffffffffffffffffffffffffffffffffff1681526020019081526020016000208054905014156125b4576008829080600181540180825580915050600190039060005260206000200160009091909190916101000a81548173ffffffffffffffffffffffffffffffffffffffff021916908373ffffffffffffffffffffffffffffffffffffffff1602179055505b600960008373ffffffffffffffffffffffffffffffffffffffff1673ffffffffffffffffffffffffffffffffffffffff16815260200190815260200160002061260e670de0b6b3a764000085612f9c90919063ffffffff16565b908060018154018082558091505060019003906000526020600020016000909190919091505561264a600160065461302290919063ffffffff16565b6006819055506126658360075461302290919063ffffffff16565b600781905550612688670de0b6b3a7640000610f00612f9c90919063ffffffff16565b811061289f5760006126bf6126b0670de0b6b3a76400006107d0612f9c90919063ffffffff16565b83612bd490919063ffffffff16565b9050600460009054906101000a900473ffffffffffffffffffffffffffffffffffffffff1673ffffffffffffffffffffffffffffffffffffffff166305f9c5976002546040518263ffffffff1660e01b815260040161271e919061442b565b600060405180830381600087803b15801561273857600080fd5b505af115801561274c573d6000803e3d6000fd5b505050507f78cd33486287c682aa18f13badc425b37df2158a72b64ecfe2fa765f62c934308484604051612781929190614446565b60405180910390a17facd3dbb848fad50d312987d285e88fdc140a8385c5c568117c79d1437d8be32e6127b26128f1565b6040516127bf919061442b565b60405180910390a1600560009054906101000a900473ffffffffffffffffffffffffffffffffffffffff1673ffffffffffffffffffffffffffffffffffffffff1663a9059cbb600360029054906101000a900473ffffffffffffffffffffffffffffffffffffffff16836040518363ffffffff1660e01b815260040161284692919061403f565b602060405180830381600087803b15801561286057600080fd5b505af1158015612874573d6000803e3d6000fd5b505050506040513d601f19601f8201168201806040525081019061289891906138b5565b50506128d9565b7f78cd33486287c682aa18f13badc425b37df2158a72b64ecfe2fa765f62c9343083836040516128d0929190614446565b60405180910390a15b505050565b6107d081565b6000600880549050905090565b6000600560009054906101000a900473ffffffffffffffffffffffffffffffffffffffff1673ffffffffffffffffffffffffffffffffffffffff166370a08231306040518263ffffffff1660e01b815260040161294e9190613fa9565b60206040518083038186803b15801561296657600080fd5b505afa15801561297a573d6000803e3d6000fd5b505050506040513d601f19601f8201168201806040525081019061299e91906139ec565b905090565b6129ab612f94565b73ffffffffffffffffffffffffffffffffffffffff1660008054906101000a900473ffffffffffffffffffffffffffffffffffffffff1673ffffffffffffffffffffffffffffffffffffffff1614612a6b576040517f08c379a00000000000000000000000000000000000000000000000000000000081526004018080602001828103825260208152602001807f4f776e61626c653a2063616c6c6572206973206e6f7420746865206f776e657281525060200191505060405180910390fd5b600073ffffffffffffffffffffffffffffffffffffffff168173ffffffffffffffffffffffffffffffffffffffff161415612af1576040517f08c379a00000000000000000000000000000000000000000000000000000000081526004018080602001828103825260268152602001806147d26026913960400191505060405180910390fd5b8073ffffffffffffffffffffffffffffffffffffffff1660008054906101000a900473ffffffffffffffffffffffffffffffffffffffff1673ffffffffffffffffffffffffffffffffffffffff167f8be0079c531659141344cd1fd0a4f28419497f9722a3daafe3b4186f6b6457e060405160405180910390a3806000806101000a81548173ffffffffffffffffffffffffffffffffffffffff021916908373ffffffffffffffffffffffffffffffffffffffff16021790555050565b600560009054906101000a900473ffffffffffffffffffffffffffffffffffffffff1681565b6000612c1683836040518060400160405280601e81526020017f536166654d6174683a207375627472616374696f6e206f766572666c6f7700008152506130aa565b905092915050565b60606008805480602002602001604051908101604052809291908181526020018280548015612ca257602002820191906000526020600020905b8160009054906101000a900473ffffffffffffffffffffffffffffffffffffffff1673ffffffffffffffffffffffffffffffffffffffff1681526020019060010190808311612c58575b505050505090506060815167ffffffffffffffff81118015612cc357600080fd5b50604051908082528060200260200182016040528015612cf25781602001602082028036833780820191505090505b50905060005b8251811015612dcf57612daa60096000858481518110612d1457fe5b602002602001015173ffffffffffffffffffffffffffffffffffffffff1673ffffffffffffffffffffffffffffffffffffffff168152602001908152602001600020805480602002602001604051908101604052809291908181526020018280548015612da057602002820191906000526020600020905b815481526020019060010190808311612d8c575b505050505061316a565b828281518110612db657fe5b6020026020010181815250508080600101915050612cf8565b506060612ddd8284516131d6565b90506060612deb8583613293565b905060005b8451811015612ed457612e71828281518110612e0857fe5b6020026020010151600a6000888581518110612e2057fe5b602002602001015173ffffffffffffffffffffffffffffffffffffffff1673ffffffffffffffffffffffffffffffffffffffff1681526020019081526020016000205461302290919063ffffffff16565b600a6000878481518110612e8157fe5b602002602001015173ffffffffffffffffffffffffffffffffffffffff1673ffffffffffffffffffffffffffffffffffffffff168152602001908152602001600020819055508080600101915050612df0565b505050505050565b60005b600880549050811015612f7b576009600060088381548110612efd57fe5b9060005260206000200160009054906101000a900473ffffffffffffffffffffffffffffffffffffffff1673ffffffffffffffffffffffffffffffffffffffff1673ffffffffffffffffffffffffffffffffffffffff1681526020019081526020016000206000612f6e919061353a565b8080600101915050612edf565b5060086000612f8a919061355b565b6000600681905550565b600033905090565b600080831415612faf576000905061301c565b6000828402905082848281612fc057fe5b0414613017576040517f08c379a00000000000000000000000000000000000000000000000000000000081526004018080602001828103825260218152602001806147f86021913960400191505060405180910390fd5b809150505b92915050565b6000808284019050838110156130a0576040517f08c379a000000000000000000000000000000000000000000000000000000000815260040180806020018281038252601b8152602001807f536166654d6174683a206164646974696f6e206f766572666c6f77000000000081525060200191505060405180910390fd5b8091505092915050565b6000838311158290613157576040517f08c379a00000000000000000000000000000000000000000000000000000000081526004018080602001828103825283818151815260200191508051906020019080838360005b8381101561311c578082015181840152602081019050613101565b50505050905090810190601f1680156131495780820380516001836020036101000a031916815260200191505b509250505060405180910390fd5b5060008385039050809150509392505050565b6000806000905060005b83518110156131ba576131ab61319c85838151811061318f57fe5b602002602001015161335e565b8361302290919063ffffffff16565b91508080600101915050613174565b506131ce8182612f9c90919063ffffffff16565b915050919050565b606060006131e484846133c0565b905060608367ffffffffffffffff811180156131ff57600080fd5b5060405190808252806020026020018201604052801561322e5781602001602082028036833780820191505090505b50905060005b84811015613287576132628387838151811061324c57fe5b602002602001015161342a90919063ffffffff16565b82828151811061326e57fe5b6020026020010181815250508080600101915050613234565b50809250505092915050565b606060006132ad620f42408561342a90919063ffffffff16565b90506060835167ffffffffffffffff811180156132c957600080fd5b506040519080825280602002602001820160405280156132f85781602001602082028036833780820191505090505b50905060005b84518110156133525761332d85828151811061331657fe5b602002602001015184612f9c90919063ffffffff16565b82828151811061333957fe5b60200260200101818152505080806001019150506132fe565b50809250505092915050565b600060038211156133ad57819050600060016002848161337a57fe5b040190505b818110156133a75780915060028182858161339657fe5b04018161339f57fe5b04905061337f565b506133bb565b600082146133ba57600190505b5b919050565b6000806000905060005b83811015613407576133f88582815181106133e157fe5b60200260200101518361302290919063ffffffff16565b915080806001019150506133ca565b5061341e620f42408261342a90919063ffffffff16565b90508091505092915050565b600061346c83836040518060400160405280601a81526020017f536166654d6174683a206469766973696f6e206279207a65726f000000000000815250613474565b905092915050565b60008083118290613520576040517f08c379a00000000000000000000000000000000000000000000000000000000081526004018080602001828103825283818151815260200191508051906020019080838360005b838110156134e55780820151818401526020810190506134ca565b50505050905090810190601f1680156135125780820380516001836020036101000a031916815260200191505b509250505060405180910390fd5b50600083858161352c57fe5b049050809150509392505050565b5080546000825590600052602060002090810190613558919061357c565b50565b5080546000825590600052602060002090810190613579919061357c565b50565b5b8082111561359557600081600090555060010161357d565b5090565b6000813590506135a881614747565b92915050565b6000815190506135bd81614747565b92915050565b6000815190506135d28161475e565b92915050565b600082601f8301126135e957600080fd5b81356135fc6135f7826144a0565b61446f565b9150808252602083016020830185838301111561361857600080fd5b6136238382846146de565b50505092915050565b60006020828403121561363e57600080fd5b613648602061446f565b90506000613658848285016137ac565b60008301525092915050565b6000610180828403121561367757600080fd5b61368261018061446f565b905060006136928482850161362c565b60008301525060206136a684828501613782565b60208301525060406136ba84828501613782565b60408301525060606136ce84828501613782565b60608301525060806136e284828501613782565b60808301525060a06136f684828501613782565b60a08301525060c061370a848285016137c1565b60c08301525060e061371e848285016135ae565b60e083015250610100613733848285016135ae565b61010083015250610120613749848285016135ae565b6101208301525061014061375f848285016135ae565b61014083015250610160613775848285016137d6565b6101608301525092915050565b60008151905061379181614775565b92915050565b6000813590506137a68161478c565b92915050565b6000815190506137bb8161478c565b92915050565b6000815190506137d0816147a3565b92915050565b6000815190506137e5816147ba565b92915050565b6000602082840312156137fd57600080fd5b600061380b84828501613599565b91505092915050565b60006020828403121561382657600080fd5b6000613834848285016135ae565b91505092915050565b6000806040838503121561385057600080fd5b600061385e85828601613599565b925050602061386f85828601613599565b9150509250929050565b6000806040838503121561388c57600080fd5b600061389a85828601613599565b92505060206138ab85828601613797565b9150509250929050565b6000602082840312156138c757600080fd5b60006138d5848285016135c3565b91505092915050565b600080604083850312156138f157600080fd5b600083013567ffffffffffffffff81111561390b57600080fd5b613917858286016135d8565b925050602061392885828601613797565b9150509250929050565b60008060006060848603121561394757600080fd5b600084013567ffffffffffffffff81111561396157600080fd5b61396d868287016135d8565b935050602061397e86828701613797565b925050604061398f86828701613599565b9150509250925092565b600061018082840312156139ac57600080fd5b60006139ba84828501613664565b91505092915050565b6000602082840312156139d557600080fd5b60006139e384828501613797565b91505092915050565b6000602082840312156139fe57600080fd5b6000613a0c848285016137ac565b91505092915050565b60008060408385031215613a2857600080fd5b6000613a3685828601613797565b9250506020613a4785828601613599565b9150509250929050565b6000613a5d8383613f8b565b60208301905092915050565b613a72816145f4565b82525050565b613a8181614525565b82525050565b6000613a92826144e0565b613a9c8185614503565b9350613aa7836144d0565b8060005b83811015613ad8578151613abf8882613a51565b9750613aca836144f6565b925050600181019050613aab565b5085935050505092915050565b613aee81614537565b82525050565b613afd81614543565b82525050565b613b0c81614606565b82525050565b613b1b8161462a565b82525050565b613b2a8161464e565b82525050565b613b3981614672565b82525050565b613b4881614684565b82525050565b613b5781614696565b82525050565b613b66816146a8565b82525050565b6000613b77826144eb565b613b818185614514565b9350613b918185602086016146ed565b613b9a81614722565b840191505092915050565b6000613bb2602683614514565b91507f4769672063616e206f6e6c7920626520636f6d706c6574656420627920636f6d60008301527f6d756e69747900000000000000000000000000000000000000000000000000006020830152604082019050919050565b6000613c18601383614514565b91507f74696d656c6f636b206e6f7420616374697665000000000000000000000000006000830152602082019050919050565b6000613c58600e83614514565b91507f616c7265616479206163746976650000000000000000000000000000000000006000830152602082019050919050565b6000613c98600983614514565b91507f3c2062616c616e636500000000000000000000000000000000000000000000006000830152602082019050919050565b6000613cd8600c83614514565b91507f3c20616c6c6f636174696f6e00000000000000000000000000000000000000006000830152602082019050919050565b6000613d18601383614514565b91507f6e6f7468696e6720746f20616c6c6f63617465000000000000000000000000006000830152602082019050919050565b6000613d58601483614514565b91507f6e6f7420656e6f756768206f776e2066756e64730000000000000000000000006000830152602082019050919050565b6000613d98601483614514565b91507f636f6d6d756e697479206973206e6f74207365740000000000000000000000006000830152602082019050919050565b6000613dd8601883614514565b91507f6e6f2070726f6a65637420666f72206d696c6573746f6e6500000000000000006000830152602082019050919050565b6000613e18601683614514565b91507f63757272656e6379206e6f7420737570706f72746564000000000000000000006000830152602082019050919050565b6000613e58601c83614514565b91507f6f6e6c792074726561737572792064616f2063616e20736574206964000000006000830152602082019050919050565b6000613e98601a83614514565b91507f747265617375727920697320616c7265616479206c696e6b65640000000000006000830152602082019050919050565b6000613ed8600483614514565b91507f55534443000000000000000000000000000000000000000000000000000000006000830152602082019050919050565b6000613f18600783614514565b91507f6e6f7420736574000000000000000000000000000000000000000000000000006000830152602082019050919050565b6000613f58600b83614514565b91507f616d6f756e7420697320300000000000000000000000000000000000000000006000830152602082019050919050565b613f94816145cc565b82525050565b613fa3816145cc565b82525050565b6000602082019050613fbe6000830184613a78565b92915050565b6000602082019050613fd96000830184613a69565b92915050565b6000606082019050613ff46000830186613a69565b6140016020830185613a78565b61400e6040830184613f9a565b949350505050565b600060408201905061402b6000830185613a78565b6140386020830184613a78565b9392505050565b60006040820190506140546000830185613a78565b6140616020830184613f9a565b9392505050565b600060a08201905061407d6000830188613a78565b61408a6020830187613f9a565b6140976040830186613b5d565b6140a46060830185613b3f565b6140b16080830184613a78565b9695505050505050565b600060208201905081810360008301526140d58184613a87565b905092915050565b60006020820190506140f26000830184613ae5565b92915050565b600060208201905061410d6000830184613af4565b92915050565b60006020820190506141286000830184613b03565b92915050565b60006020820190506141436000830184613b12565b92915050565b600060208201905061415e6000830184613b21565b92915050565b60006020820190506141796000830184613b30565b92915050565b600060208201905081810360008301526141998184613b6c565b905092915050565b600060608201905081810360008301526141bb8186613b6c565b90506141ca6020830185613f9a565b6141d76040830184613a78565b949350505050565b600060608201905081810360008301526141f98186613b6c565b90506142086020830185613f9a565b6142156040830184613b4e565b949350505050565b6000602082019050818103600083015261423681613ba5565b9050919050565b6000602082019050818103600083015261425681613c0b565b9050919050565b6000602082019050818103600083015261427681613c4b565b9050919050565b6000602082019050818103600083015261429681613c8b565b9050919050565b600060208201905081810360008301526142b681613ccb565b9050919050565b600060208201905081810360008301526142d681613d0b565b9050919050565b600060208201905081810360008301526142f681613d4b565b9050919050565b6000602082019050818103600083015261431681613d8b565b9050919050565b6000602082019050818103600083015261433681613dcb565b9050919050565b6000602082019050818103600083015261435681613e0b565b9050919050565b6000602082019050818103600083015261437681613e4b565b9050919050565b6000602082019050818103600083015261439681613e8b565b9050919050565b600060208201905081810360008301526143b681613ecb565b9050919050565b600060408201905081810360008301526143d681613ecb565b90506143e56020830184613f9a565b92915050565b6000602082019050818103600083015261440481613f0b565b9050919050565b6000602082019050818103600083015261442481613f4b565b9050919050565b60006020820190506144406000830184613f9a565b92915050565b600060408201905061445b6000830185613f9a565b6144686020830184613a78565b9392505050565b6000604051905081810181811067ffffffffffffffff8211171561449657614495614720565b5b8060405250919050565b600067ffffffffffffffff8211156144bb576144ba614720565b5b601f19601f8301169050602081019050919050565b6000819050602082019050919050565b600081519050919050565b600081519050919050565b6000602082019050919050565b600082825260208201905092915050565b600082825260208201905092915050565b6000614530826145ac565b9050919050565b60008115159050919050565b60007fffffffff0000000000000000000000000000000000000000000000000000000082169050919050565b600081905061457d82614733565b919050565b60006fffffffffffffffffffffffffffffffff82169050919050565b600061ffff82169050919050565b600073ffffffffffffffffffffffffffffffffffffffff82169050919050565b6000819050919050565b600064ffffffffff82169050919050565b600060ff82169050919050565b60006145ff826146ba565b9050919050565b600061461182614618565b9050919050565b6000614623826145ac565b9050919050565b60006146358261463c565b9050919050565b6000614647826145ac565b9050919050565b600061465982614660565b9050919050565b600061466b826145ac565b9050919050565b600061467d8261456f565b9050919050565b600061468f8261459e565b9050919050565b60006146a1826145cc565b9050919050565b60006146b3826145cc565b9050919050565b60006146c5826146cc565b9050919050565b60006146d7826145ac565b9050919050565b82818337600083830152505050565b60005b8381101561470b5780820151818401526020810190506146f0565b8381111561471a576000848401525b50505050565bfe5b6000601f19601f8301169050919050565b6003811061474457614743614720565b5b50565b61475081614525565b811461475b57600080fd5b50565b61476781614537565b811461477257600080fd5b50565b61477e81614582565b811461478957600080fd5b50565b614795816145cc565b81146147a057600080fd5b50565b6147ac816145d6565b81146147b757600080fd5b50565b6147c3816145e7565b81146147ce57600080fd5b5056fe4f776e61626c653a206e6577206f776e657220697320746865207a65726f2061646472657373536166654d6174683a206d756c7469706c69636174696f6e206f766572666c6f77a2646970667358221220678266488b1c7901b9cabdf7a34bb132ad94df2d93e92f892d92846a09f1ccd764736f6c63430007040033",
  "linkReferences": {},
  "deployedLinkReferences": {}
}