{
  "_format": "hh-sol-artifact-1",
  "contractName": "CommunityTreasury",
  "sourceName": "contracts/CommunityTreasury.sol",
  "abi": [
    {
      "inputs": [
        {
          "internalType": "enum DataTypes.CommunityTemplate",
          "name": "_template",
          "type": "uint8"
        },
        {
          "internalType": "address",
          "name": "_token",
          "type": "address"
        },
        {
          "internalType": "address",
          "name": "_dao",
          "type": "address"
        },
        {
          "internalType": "address",
          "name": "_dai",
          "type": "address"
        },
        {
          "internalType": "address",
          "name": "_usdc",
          "type": "address"
        },
        {
          "internalType": "address",
          "name": "_lendingPoolAP",
          "type": "address"
        }
      ],
      "stateMutability": "nonpayable",
      "type": "constructor"
    },
    {
      "anonymous": false,
      "inputs": [
        {
          "indexed": false,
          "internalType": "string",
          "name": "_currency",
          "type": "string"
        },
        {
          "indexed": false,
          "internalType": "uint256",
          "name": "_amount",
          "type": "uint256"
        }
      ],
      "name": "Borrowed",
      "type": "event"
    },
    {
      "anonymous": false,
      "inputs": [
        {
          "indexed": false,
          "internalType": "address",
          "name": "_community",
          "type": "address"
        }
      ],
      "name": "CommunitySet",
      "type": "event"
    },
    {
      "anonymous": false,
      "inputs": [
        {
          "indexed": false,
          "internalType": "uint256",
          "name": "_id",
          "type": "uint256"
        }
      ],
      "name": "IdSet",
      "type": "event"
    },
    {
      "anonymous": false,
      "inputs": [
        {
          "indexed": false,
          "internalType": "uint256",
          "name": "_amount",
          "type": "uint256"
        },
        {
          "indexed": false,
          "internalType": "address",
          "name": "_project",
          "type": "address"
        }
      ],
      "name": "MilesoteComplete",
      "type": "event"
    },
    {
      "anonymous": false,
      "inputs": [
        {
          "indexed": true,
          "internalType": "address",
          "name": "previousOwner",
          "type": "address"
        },
        {
          "indexed": true,
          "internalType": "address",
          "name": "newOwner",
          "type": "address"
        }
      ],
      "name": "OwnershipTransferred",
      "type": "event"
    },
    {
      "anonymous": false,
      "inputs": [
        {
          "indexed": false,
          "internalType": "uint256",
          "name": "_amount",
          "type": "uint256"
        }
      ],
      "name": "ThersholdReached",
      "type": "event"
    },
    {
      "anonymous": false,
      "inputs": [
        {
          "indexed": false,
          "internalType": "address",
          "name": "_dao",
          "type": "address"
        }
      ],
      "name": "TreasuryDaoSet",
      "type": "event"
    },
    {
      "inputs": [],
      "name": "MINAMOUNT",
      "outputs": [
        {
          "internalType": "uint256",
          "name": "",
          "type": "uint256"
        }
      ],
      "stateMutability": "view",
      "type": "function"
    },
    {
      "inputs": [],
      "name": "THRESHOLD",
      "outputs": [
        {
          "internalType": "uint256",
          "name": "",
          "type": "uint256"
        }
      ],
      "stateMutability": "view",
      "type": "function"
    },
    {
      "inputs": [],
      "name": "activateTimelock",
      "outputs": [],
      "stateMutability": "nonpayable",
      "type": "function"
    },
    {
      "inputs": [],
      "name": "addTimelock",
      "outputs": [],
      "stateMutability": "nonpayable",
      "type": "function"
    },
    {
      "inputs": [],
      "name": "approveCommunity",
      "outputs": [],
      "stateMutability": "nonpayable",
      "type": "function"
    },
    {
      "inputs": [
        {
          "internalType": "string",
          "name": "_currency",
          "type": "string"
        },
        {
          "internalType": "uint256",
          "name": "_amount",
          "type": "uint256"
        }
      ],
      "name": "borrowDelegated",
      "outputs": [],
      "stateMutability": "nonpayable",
      "type": "function"
    },
    {
      "inputs": [],
      "name": "community",
      "outputs": [
        {
          "internalType": "address",
          "name": "",
          "type": "address"
        }
      ],
      "stateMutability": "view",
      "type": "function"
    },
    {
      "inputs": [
        {
          "internalType": "uint256",
          "name": "_amount",
          "type": "uint256"
        },
        {
          "internalType": "address",
          "name": "_project",
          "type": "address"
        }
      ],
      "name": "completeMilestone",
      "outputs": [],
      "stateMutability": "nonpayable",
      "type": "function"
    },
    {
      "inputs": [],
      "name": "dao",
      "outputs": [
        {
          "internalType": "contract ITreasuryDao",
          "name": "",
          "type": "address"
        }
      ],
      "stateMutability": "view",
      "type": "function"
    },
    {
      "inputs": [
        {
          "internalType": "string",
          "name": "",
          "type": "string"
        }
      ],
      "name": "depositableCurrenciesContracts",
      "outputs": [
        {
          "internalType": "address",
          "name": "",
          "type": "address"
        }
      ],
      "stateMutability": "view",
      "type": "function"
    },
    {
      "inputs": [
        {
          "internalType": "string",
          "name": "_currency",
          "type": "string"
        },
        {
          "internalType": "uint256",
          "name": "_amount",
          "type": "uint256"
        }
      ],
      "name": "fund",
      "outputs": [],
      "stateMutability": "nonpayable",
      "type": "function"
    },
    {
      "inputs": [
        {
          "internalType": "address",
          "name": "",
          "type": "address"
        },
        {
          "internalType": "address",
          "name": "",
          "type": "address"
        }
      ],
      "name": "funds",
      "outputs": [
        {
          "internalType": "uint256",
          "name": "",
          "type": "uint256"
        }
      ],
      "stateMutability": "view",
      "type": "function"
    },
    {
      "inputs": [],
      "name": "getDitoBalance",
      "outputs": [
        {
          "internalType": "uint256",
          "name": "",
          "type": "uint256"
        }
      ],
      "stateMutability": "view",
      "type": "function"
    },
    {
      "inputs": [
        {
          "internalType": "address",
          "name": "_funder",
          "type": "address"
        },
        {
          "internalType": "address",
          "name": "_asset",
          "type": "address"
        }
      ],
      "name": "getFunds",
      "outputs": [
        {
          "internalType": "uint256",
          "name": "",
          "type": "uint256"
        }
      ],
      "stateMutability": "view",
      "type": "function"
    },
    {
      "inputs": [],
      "name": "id",
      "outputs": [
        {
          "internalType": "uint256",
          "name": "",
          "type": "uint256"
        }
      ],
      "stateMutability": "view",
      "type": "function"
    },
    {
      "inputs": [],
      "name": "lendingPoolAP",
      "outputs": [
        {
          "internalType": "contract ILendingPoolAddressesProvider",
          "name": "",
          "type": "address"
        }
      ],
      "stateMutability": "view",
      "type": "function"
    },
    {
      "inputs": [],
      "name": "owner",
      "outputs": [
        {
          "internalType": "address",
          "name": "",
          "type": "address"
        }
      ],
      "stateMutability": "view",
      "type": "function"
    },
    {
      "inputs": [
        {
          "internalType": "address",
          "name": "",
          "type": "address"
        }
      ],
      "name": "projectCredits",
      "outputs": [
        {
          "internalType": "uint256",
          "name": "",
          "type": "uint256"
        }
      ],
      "stateMutability": "view",
      "type": "function"
    },
    {
      "inputs": [
        {
          "internalType": "uint256",
          "name": "",
          "type": "uint256"
        }
      ],
      "name": "projects",
      "outputs": [
        {
          "internalType": "address",
          "name": "",
          "type": "address"
        }
      ],
      "stateMutability": "view",
      "type": "function"
    },
    {
      "inputs": [],
      "name": "renounceOwnership",
      "outputs": [],
      "stateMutability": "nonpayable",
      "type": "function"
    },
    {
      "inputs": [
        {
          "internalType": "address",
          "name": "_community",
          "type": "address"
        }
      ],
      "name": "setCommunity",
      "outputs": [],
      "stateMutability": "nonpayable",
      "type": "function"
    },
    {
      "inputs": [
        {
          "internalType": "uint256",
          "name": "_id",
          "type": "uint256"
        }
      ],
      "name": "setId",
      "outputs": [],
      "stateMutability": "nonpayable",
      "type": "function"
    },
    {
      "inputs": [
        {
          "internalType": "address",
          "name": "_dao",
          "type": "address"
        }
      ],
      "name": "setTreasuryDAO",
      "outputs": [],
      "stateMutability": "nonpayable",
      "type": "function"
    },
    {
      "inputs": [],
      "name": "template",
      "outputs": [
        {
          "internalType": "enum DataTypes.CommunityTemplate",
          "name": "",
          "type": "uint8"
        }
      ],
      "stateMutability": "view",
      "type": "function"
    },
    {
      "inputs": [],
      "name": "timelock",
      "outputs": [
        {
          "internalType": "contract WithdrawTimelock",
          "name": "",
          "type": "address"
        }
      ],
      "stateMutability": "view",
      "type": "function"
    },
    {
      "inputs": [],
      "name": "timelockActive",
      "outputs": [
        {
          "internalType": "bool",
          "name": "",
          "type": "bool"
        }
      ],
      "stateMutability": "view",
      "type": "function"
    },
    {
      "inputs": [],
      "name": "token",
      "outputs": [
        {
          "internalType": "contract IDITOToken",
          "name": "",
          "type": "address"
        }
      ],
      "stateMutability": "view",
      "type": "function"
    },
    {
      "inputs": [
        {
          "internalType": "address",
          "name": "",
          "type": "address"
        }
      ],
      "name": "totalFunded",
      "outputs": [
        {
          "internalType": "uint256",
          "name": "",
          "type": "uint256"
        }
      ],
      "stateMutability": "view",
      "type": "function"
    },
    {
      "inputs": [],
      "name": "totalGigsCompleted",
      "outputs": [
        {
          "internalType": "uint256",
          "name": "",
          "type": "uint256"
        }
      ],
      "stateMutability": "view",
      "type": "function"
    },
    {
      "inputs": [],
      "name": "totalTokensReceived",
      "outputs": [
        {
          "internalType": "uint256",
          "name": "",
          "type": "uint256"
        }
      ],
      "stateMutability": "view",
      "type": "function"
    },
    {
      "inputs": [
        {
          "internalType": "address",
          "name": "newOwner",
          "type": "address"
        }
      ],
      "name": "transferOwnership",
      "outputs": [],
      "stateMutability": "nonpayable",
      "type": "function"
    },
    {
      "inputs": [
        {
          "internalType": "address",
          "name": "_currency",
          "type": "address"
        },
        {
          "internalType": "uint256",
          "name": "_amount",
          "type": "uint256"
        }
      ],
      "name": "withdrawFunding",
      "outputs": [],
      "stateMutability": "nonpayable",
      "type": "function"
    }
  ],
  "bytecode": "0x60806040523480156200001157600080fd5b506040516200394e3803806200394e833981810160405281019062000037919062000335565b600062000049620002ff60201b60201c565b9050806000806101000a81548173ffffffffffffffffffffffffffffffffffffffff021916908373ffffffffffffffffffffffffffffffffffffffff1602179055508073ffffffffffffffffffffffffffffffffffffffff16600073ffffffffffffffffffffffffffffffffffffffff167f8be0079c531659141344cd1fd0a4f28419497f9722a3daafe3b4186f6b6457e060405160405180910390a350620000f7620002ff60201b60201c565b600460026101000a81548173ffffffffffffffffffffffffffffffffffffffff021916908373ffffffffffffffffffffffffffffffffffffffff1602179055506000600460006101000a81548160ff02191690831515021790555085600460016101000a81548160ff021916908360028111156200017157fe5b021790555084600660006101000a81548173ffffffffffffffffffffffffffffffffffffffff021916908373ffffffffffffffffffffffffffffffffffffffff16021790555083600560006101000a81548173ffffffffffffffffffffffffffffffffffffffff021916908373ffffffffffffffffffffffffffffffffffffffff16021790555080600160006101000a81548173ffffffffffffffffffffffffffffffffffffffff021916908373ffffffffffffffffffffffffffffffffffffffff1602179055508260026040516200024a906200044f565b908152602001604051809103902060006101000a81548173ffffffffffffffffffffffffffffffffffffffff021916908373ffffffffffffffffffffffffffffffffffffffff160217905550816002604051620002a79062000466565b908152602001604051809103902060006101000a81548173ffffffffffffffffffffffffffffffffffffffff021916908373ffffffffffffffffffffffffffffffffffffffff160217905550505050505050620004e7565b600033905090565b6000815190506200031881620004bc565b92915050565b6000815190506200032f81620004d6565b92915050565b60008060008060008060c087890312156200034f57600080fd5b60006200035f89828a016200031e565b96505060206200037289828a0162000307565b95505060406200038589828a0162000307565b94505060606200039889828a0162000307565b9350506080620003ab89828a0162000307565b92505060a0620003be89828a0162000307565b9150509295509295509295565b6000620003da6003836200047d565b91507f44414900000000000000000000000000000000000000000000000000000000006000830152600382019050919050565b60006200041c6004836200047d565b91507f55534443000000000000000000000000000000000000000000000000000000006000830152600482019050919050565b60006200045c82620003cb565b9150819050919050565b600062000473826200040d565b9150819050919050565b600081905092915050565b600062000495826200049c565b9050919050565b600073ffffffffffffffffffffffffffffffffffffffff82169050919050565b620004c78162000488565b8114620004d357600080fd5b50565b60038110620004e457600080fd5b50565b61345780620004f76000396000f3fe608060405234801561001057600080fd5b50600436106101ef5760003560e01c80638da5cb5b1161010f578063d0e0ba95116100a2578063e9999b0311610071578063e9999b031461054a578063ef37113314610568578063f2fde38b14610586578063fc0c546a146105a2576101ef565b8063d0e0ba95146104d6578063d33219b4146104f2578063dc1fb5a514610510578063e377672e1461052e576101ef565b8063af640d0f116100de578063af640d0f14610450578063bc1c2c291461046e578063bdc5a9561461049e578063c7901378146104ba576101ef565b80638da5cb5b146103ca5780639963ae8c146103e85780639c28b19914610404578063a46eddcf14610434576101ef565b80634162169f116101875780636f2ddd93116101565780636f2ddd9314610366578063715018a614610384578063715863831461038e578063785ffb37146103ac576101ef565b80634162169f1461030457806346e61c651461032257806346f98fec1461035257806363a5d2981461035c576101ef565b8063247e9e86116101c3578063247e9e86146102685780632bdef29b146102985780633705abf1146102b657806339327e9e146102e6576101ef565b8062f418f4146101f457806303eeedfb146101fe578063107046bd1461021c57806315da0b021461024c575b600080fd5b6101fc6105c0565b005b610206610653565b60405161021391906130e9565b60405180910390f35b61023660048036038101906102319190612947565b610659565b6040516102439190612db0565b60405180910390f35b610266600480360381019061026191906127bf565b610698565b005b610282600480360381019061027d9190612811565b61091d565b60405161028f91906130e9565b60405180910390f35b6102a06109a4565b6040516102ad9190612e99565b60405180910390f35b6102d060048036038101906102cb91906128b2565b6109b7565b6040516102dd9190612db0565b60405180910390f35b6102ee610a00565b6040516102fb9190612ecf565b60405180910390f35b61030c610a26565b6040516103199190612eea565b60405180910390f35b61033c600480360381019061033791906127bf565b610a4c565b60405161034991906130e9565b60405180910390f35b61035a610a64565b005b610364610b58565b005b61036e610ccf565b60405161037b9190612f20565b60405180910390f35b61038c610ce2565b005b610396610e68565b6040516103a391906130e9565b60405180910390f35b6103b4610e6e565b6040516103c191906130e9565b60405180910390f35b6103d2610e74565b6040516103df9190612db0565b60405180910390f35b61040260048036038101906103fd91906128f3565b610e9d565b005b61041e60048036038101906104199190612811565b61149d565b60405161042b91906130e9565b60405180910390f35b61044e600480360381019061044991906127bf565b6114c2565b005b610458611655565b60405161046591906130e9565b60405180910390f35b610488600480360381019061048391906127bf565b61165b565b60405161049591906130e9565b60405180910390f35b6104b860048036038101906104b391906128f3565b611673565b005b6104d460048036038101906104cf919061284d565b6118a8565b005b6104f060048036038101906104eb9190612947565b6118ac565b005b6104fa611b09565b6040516105079190612f05565b60405180910390f35b610518611b2f565b6040516105259190612db0565b60405180910390f35b61054860048036038101906105439190612999565b611b55565b005b610552612113565b60405161055f91906130e9565b60405180910390f35b610570612119565b60405161057d91906130e9565b60405180910390f35b6105a0600480360381019061059b91906127bf565b6121cb565b005b6105aa6123d6565b6040516105b79190612eb4565b60405180910390f35b600b60149054906101000a900460ff1615610610576040517f08c379a000000000000000000000000000000000000000000000000000000000815260040161060790612fe9565b60405180910390fd5b33600b60006101000a81548173ffffffffffffffffffffffffffffffffffffffff021916908373ffffffffffffffffffffffffffffffffffffffff160217905550565b60075481565b6009818154811061066957600080fd5b906000526020600020016000915054906101000a900473ffffffffffffffffffffffffffffffffffffffff1681565b6106a06123fc565b73ffffffffffffffffffffffffffffffffffffffff1660008054906101000a900473ffffffffffffffffffffffffffffffffffffffff1673ffffffffffffffffffffffffffffffffffffffff1614610760576040517f08c379a00000000000000000000000000000000000000000000000000000000081526004018080602001828103825260208152602001807f4f776e61626c653a2063616c6c6572206973206e6f7420746865206f776e657281525060200191505060405180910390fd5b600460009054906101000a900460ff16156107b0576040517f08c379a00000000000000000000000000000000000000000000000000000000081526004016107a7906130a9565b60405180910390fd5b80600460026101000a81548173ffffffffffffffffffffffffffffffffffffffff021916908373ffffffffffffffffffffffffffffffffffffffff160217905550600660009054906101000a900473ffffffffffffffffffffffffffffffffffffffff1673ffffffffffffffffffffffffffffffffffffffff1663095ea7b3600460029054906101000a900473ffffffffffffffffffffffffffffffffffffffff167fffffffffffffffffffffffffffffffffffffffffffffffffffffffffffffffff6040518363ffffffff1660e01b8152600401610890929190612e1d565b602060405180830381600087803b1580156108aa57600080fd5b505af11580156108be573d6000803e3d6000fd5b505050506040513d601f19601f820116820180604052508101906108e29190612889565b507fb954b00fb708b65e61e5af666f5ce5050a9a566a4c6cc31e34fb24d03459106f816040516109129190612db0565b60405180910390a150565b6000600c60008473ffffffffffffffffffffffffffffffffffffffff1673ffffffffffffffffffffffffffffffffffffffff16815260200190815260200160002060008373ffffffffffffffffffffffffffffffffffffffff1673ffffffffffffffffffffffffffffffffffffffff16815260200190815260200160002054905092915050565b600b60149054906101000a900460ff1681565b6002818051602081018201805184825260208301602085012081835280955050505050506000915054906101000a900473ffffffffffffffffffffffffffffffffffffffff1681565b600160009054906101000a900473ffffffffffffffffffffffffffffffffffffffff1681565b600560009054906101000a900473ffffffffffffffffffffffffffffffffffffffff1681565b600a6020528060005260406000206000915090505481565b600660009054906101000a900473ffffffffffffffffffffffffffffffffffffffff1673ffffffffffffffffffffffffffffffffffffffff1663095ea7b3600460029054906101000a900473ffffffffffffffffffffffffffffffffffffffff167fffffffffffffffffffffffffffffffffffffffffffffffffffffffffffffffff6040518363ffffffff1660e01b8152600401610b03929190612e1d565b602060405180830381600087803b158015610b1d57600080fd5b505af1158015610b31573d6000803e3d6000fd5b505050506040513d601f19601f82011682018060405250810190610b559190612889565b50565b610b606123fc565b73ffffffffffffffffffffffffffffffffffffffff1660008054906101000a900473ffffffffffffffffffffffffffffffffffffffff1673ffffffffffffffffffffffffffffffffffffffff1614610c20576040517f08c379a00000000000000000000000000000000000000000000000000000000081526004018080602001828103825260208152602001807f4f776e61626c653a2063616c6c6572206973206e6f7420746865206f776e657281525060200191505060405180910390fd5b600073ffffffffffffffffffffffffffffffffffffffff16600b60009054906101000a900473ffffffffffffffffffffffffffffffffffffffff1673ffffffffffffffffffffffffffffffffffffffff161415610cb2576040517f08c379a0000000000000000000000000000000000000000000000000000000008152600401610ca9906130c9565b60405180910390fd5b6001600b60146101000a81548160ff021916908315150217905550565b600460019054906101000a900460ff1681565b610cea6123fc565b73ffffffffffffffffffffffffffffffffffffffff1660008054906101000a900473ffffffffffffffffffffffffffffffffffffffff1673ffffffffffffffffffffffffffffffffffffffff1614610daa576040517f08c379a00000000000000000000000000000000000000000000000000000000081526004018080602001828103825260208152602001807f4f776e61626c653a2063616c6c6572206973206e6f7420746865206f776e657281525060200191505060405180910390fd5b600073ffffffffffffffffffffffffffffffffffffffff1660008054906101000a900473ffffffffffffffffffffffffffffffffffffffff1673ffffffffffffffffffffffffffffffffffffffff167f8be0079c531659141344cd1fd0a4f28419497f9722a3daafe3b4186f6b6457e060405160405180910390a360008060006101000a81548173ffffffffffffffffffffffffffffffffffffffff021916908373ffffffffffffffffffffffffffffffffffffffff160217905550565b60085481565b610f0081565b60008060009054906101000a900473ffffffffffffffffffffffffffffffffffffffff16905090565b600b60149054906101000a900460ff16610eec576040517f08c379a0000000000000000000000000000000000000000000000000000000008152600401610ee390612fc9565b60405180910390fd5b6000600283604051610efe9190612d99565b908152602001604051809103902060009054906101000a900473ffffffffffffffffffffffffffffffffffffffff169050600073ffffffffffffffffffffffffffffffffffffffff168173ffffffffffffffffffffffffffffffffffffffff161415610f9f576040517f08c379a0000000000000000000000000000000000000000000000000000000008152600401610f9690613069565b60405180910390fd5b6000610fbc670de0b6b3a76400008461240490919063ffffffff16565b9050808273ffffffffffffffffffffffffffffffffffffffff166370a08231610fe36123fc565b6040518263ffffffff1660e01b8152600401610fff9190612dcb565b60206040518083038186803b15801561101757600080fd5b505afa15801561102b573d6000803e3d6000fd5b505050506040513d601f19601f8201168201806040525081019061104f9190612970565b1015611090576040517f08c379a000000000000000000000000000000000000000000000000000000000815260040161108790613009565b60405180910390fd5b8173ffffffffffffffffffffffffffffffffffffffff166323b872dd3330846040518463ffffffff1660e01b81526004016110cd93929190612de6565b602060405180830381600087803b1580156110e757600080fd5b505af11580156110fb573d6000803e3d6000fd5b505050506040513d601f19601f8201168201806040525081019061111f9190612889565b508173ffffffffffffffffffffffffffffffffffffffff1663095ea7b3600560009054906101000a900473ffffffffffffffffffffffffffffffffffffffff16836040518363ffffffff1660e01b815260040161117d929190612e1d565b602060405180830381600087803b15801561119757600080fd5b505af11580156111ab573d6000803e3d6000fd5b505050506040513d601f19601f820116820180604052508101906111cf9190612889565b50600560009054906101000a900473ffffffffffffffffffffffffffffffffffffffff1673ffffffffffffffffffffffffffffffffffffffff1663a7829ffa858560646040518463ffffffff1660e01b815260040161123093929190612f6b565b600060405180830381600087803b15801561124a57600080fd5b505af115801561125e573d6000803e3d6000fd5b50505050600b60009054906101000a900473ffffffffffffffffffffffffffffffffffffffff1673ffffffffffffffffffffffffffffffffffffffff16638340f5493384846040518463ffffffff1660e01b81526004016112c193929190612de6565b600060405180830381600087803b1580156112db57600080fd5b505af11580156112ef573d6000803e3d6000fd5b5050505061138281600c60003373ffffffffffffffffffffffffffffffffffffffff1673ffffffffffffffffffffffffffffffffffffffff16815260200190815260200160002060008573ffffffffffffffffffffffffffffffffffffffff1673ffffffffffffffffffffffffffffffffffffffff1681526020019081526020016000205461248a90919063ffffffff16565b600c60003373ffffffffffffffffffffffffffffffffffffffff1673ffffffffffffffffffffffffffffffffffffffff16815260200190815260200160002060008473ffffffffffffffffffffffffffffffffffffffff1673ffffffffffffffffffffffffffffffffffffffff1681526020019081526020016000208190555061145481600d60008573ffffffffffffffffffffffffffffffffffffffff1673ffffffffffffffffffffffffffffffffffffffff1681526020019081526020016000205461248a90919063ffffffff16565b600d60008473ffffffffffffffffffffffffffffffffffffffff1673ffffffffffffffffffffffffffffffffffffffff1681526020019081526020016000208190555050505050565b600c602052816000526040600020602052806000526040600020600091509150505481565b6114ca6123fc565b73ffffffffffffffffffffffffffffffffffffffff1660008054906101000a900473ffffffffffffffffffffffffffffffffffffffff1673ffffffffffffffffffffffffffffffffffffffff161461158a576040517f08c379a00000000000000000000000000000000000000000000000000000000081526004018080602001828103825260208152602001807f4f776e61626c653a2063616c6c6572206973206e6f7420746865206f776e657281525060200191505060405180910390fd5b600460009054906101000a900460ff16156115da576040517f08c379a00000000000000000000000000000000000000000000000000000000081526004016115d1906130a9565b60405180910390fd5b80600560006101000a81548173ffffffffffffffffffffffffffffffffffffffff021916908373ffffffffffffffffffffffffffffffffffffffff1602179055507f181dccb510f27d9c2608cbef86fad60ab59d126bc8782ea2f21763607ec417398160405161164a9190612db0565b60405180910390a150565b60035481565b600d6020528060005260406000206000915090505481565b6000600160009054906101000a900473ffffffffffffffffffffffffffffffffffffffff1673ffffffffffffffffffffffffffffffffffffffff16630261bf8b6040518163ffffffff1660e01b815260040160206040518083038186803b1580156116dd57600080fd5b505afa1580156116f1573d6000803e3d6000fd5b505050506040513d601f19601f8201168201806040525081019061171591906127e8565b905060006002846040516117299190612d99565b908152602001604051809103902060009054906101000a900473ffffffffffffffffffffffffffffffffffffffff169050600073ffffffffffffffffffffffffffffffffffffffff168173ffffffffffffffffffffffffffffffffffffffff1614156117ca576040517f08c379a00000000000000000000000000000000000000000000000000000000081526004016117c190613069565b60405180910390fd5b8173ffffffffffffffffffffffffffffffffffffffff1663a415bcad828560016000600560009054906101000a900473ffffffffffffffffffffffffffffffffffffffff166040518663ffffffff1660e01b815260040161182f959493929190612e46565b600060405180830381600087803b15801561184957600080fd5b505af115801561185d573d6000803e3d6000fd5b50505050611869612512565b7ffc30ec1bee3b4fb527f0d90b4bbbf5a24b72f0964679ff277df1895e8ad23957848460405161189a929190612f3b565b60405180910390a150505050565b5050565b600560009054906101000a900473ffffffffffffffffffffffffffffffffffffffff1673ffffffffffffffffffffffffffffffffffffffff163373ffffffffffffffffffffffffffffffffffffffff161461193c576040517f08c379a000000000000000000000000000000000000000000000000000000000815260040161193390613089565b60405180910390fd5b600460009054906101000a900460ff161561198c576040517f08c379a0000000000000000000000000000000000000000000000000000000008152600401611983906130a9565b60405180910390fd5b600073ffffffffffffffffffffffffffffffffffffffff16600460029054906101000a900473ffffffffffffffffffffffffffffffffffffffff1673ffffffffffffffffffffffffffffffffffffffff161415611a1e576040517f08c379a0000000000000000000000000000000000000000000000000000000008152600401611a1590613029565b60405180910390fd5b806003819055506001600460006101000a81548160ff0219169083151502179055507fc72e55068a99063a2c847c0b87d2808f29d1935171e54ffa3a479533b4046b7481604051611a6f91906130e9565b60405180910390a1600460029054906101000a900473ffffffffffffffffffffffffffffffffffffffff1673ffffffffffffffffffffffffffffffffffffffff1663d0e0ba956003546040518263ffffffff1660e01b8152600401611ad491906130e9565b600060405180830381600087803b158015611aee57600080fd5b505af1158015611b02573d6000803e3d6000fd5b5050505050565b600b60009054906101000a900473ffffffffffffffffffffffffffffffffffffffff1681565b600460029054906101000a900473ffffffffffffffffffffffffffffffffffffffff1681565b600460029054906101000a900473ffffffffffffffffffffffffffffffffffffffff1673ffffffffffffffffffffffffffffffffffffffff16611b966123fc565b73ffffffffffffffffffffffffffffffffffffffff1614611bec576040517f08c379a0000000000000000000000000000000000000000000000000000000008152600401611be390612fa9565b60405180910390fd5b600073ffffffffffffffffffffffffffffffffffffffff168173ffffffffffffffffffffffffffffffffffffffff161415611c5c576040517f08c379a0000000000000000000000000000000000000000000000000000000008152600401611c5390613049565b60405180910390fd5b600660009054906101000a900473ffffffffffffffffffffffffffffffffffffffff1673ffffffffffffffffffffffffffffffffffffffff166323b872dd611ca26123fc565b30611cbe670de0b6b3a76400008761240490919063ffffffff16565b6040518463ffffffff1660e01b8152600401611cdc93929190612de6565b602060405180830381600087803b158015611cf657600080fd5b505af1158015611d0a573d6000803e3d6000fd5b505050506040513d601f19601f82011682018060405250810190611d2e9190612889565b506000600660009054906101000a900473ffffffffffffffffffffffffffffffffffffffff1673ffffffffffffffffffffffffffffffffffffffff166370a08231306040518263ffffffff1660e01b8152600401611d8c9190612db0565b60206040518083038186803b158015611da457600080fd5b505afa158015611db8573d6000803e3d6000fd5b505050506040513d601f19601f82011682018060405250810190611ddc9190612970565b9050611e3083600a60008573ffffffffffffffffffffffffffffffffffffffff1673ffffffffffffffffffffffffffffffffffffffff1681526020019081526020016000205461248a90919063ffffffff16565b600a60008473ffffffffffffffffffffffffffffffffffffffff1673ffffffffffffffffffffffffffffffffffffffff16815260200190815260200160002081905550611e89600160075461248a90919063ffffffff16565b50611e9f8360085461248a90919063ffffffff16565b50611ebd670de0b6b3a7640000610f0061240490919063ffffffff16565b81106120d4576000611ef4611ee5670de0b6b3a76400006107d061240490919063ffffffff16565b836125ba90919063ffffffff16565b9050600560009054906101000a900473ffffffffffffffffffffffffffffffffffffffff1673ffffffffffffffffffffffffffffffffffffffff166305f9c5976003546040518263ffffffff1660e01b8152600401611f5391906130e9565b600060405180830381600087803b158015611f6d57600080fd5b505af1158015611f81573d6000803e3d6000fd5b505050507f78cd33486287c682aa18f13badc425b37df2158a72b64ecfe2fa765f62c934308484604051611fb6929190613104565b60405180910390a17facd3dbb848fad50d312987d285e88fdc140a8385c5c568117c79d1437d8be32e611fe7612119565b604051611ff491906130e9565b60405180910390a1600660009054906101000a900473ffffffffffffffffffffffffffffffffffffffff1673ffffffffffffffffffffffffffffffffffffffff1663a9059cbb600460029054906101000a900473ffffffffffffffffffffffffffffffffffffffff16836040518363ffffffff1660e01b815260040161207b929190612e1d565b602060405180830381600087803b15801561209557600080fd5b505af11580156120a9573d6000803e3d6000fd5b505050506040513d601f19601f820116820180604052508101906120cd9190612889565b505061210e565b7f78cd33486287c682aa18f13badc425b37df2158a72b64ecfe2fa765f62c934308383604051612105929190613104565b60405180910390a15b505050565b6107d081565b6000600660009054906101000a900473ffffffffffffffffffffffffffffffffffffffff1673ffffffffffffffffffffffffffffffffffffffff166370a08231306040518263ffffffff1660e01b81526004016121769190612db0565b60206040518083038186803b15801561218e57600080fd5b505afa1580156121a2573d6000803e3d6000fd5b505050506040513d601f19601f820116820180604052508101906121c69190612970565b905090565b6121d36123fc565b73ffffffffffffffffffffffffffffffffffffffff1660008054906101000a900473ffffffffffffffffffffffffffffffffffffffff1673ffffffffffffffffffffffffffffffffffffffff1614612293576040517f08c379a00000000000000000000000000000000000000000000000000000000081526004018080602001828103825260208152602001807f4f776e61626c653a2063616c6c6572206973206e6f7420746865206f776e657281525060200191505060405180910390fd5b600073ffffffffffffffffffffffffffffffffffffffff168173ffffffffffffffffffffffffffffffffffffffff161415612319576040517f08c379a00000000000000000000000000000000000000000000000000000000081526004018080602001828103825260268152602001806133db6026913960400191505060405180910390fd5b8073ffffffffffffffffffffffffffffffffffffffff1660008054906101000a900473ffffffffffffffffffffffffffffffffffffffff1673ffffffffffffffffffffffffffffffffffffffff167f8be0079c531659141344cd1fd0a4f28419497f9722a3daafe3b4186f6b6457e060405160405180910390a3806000806101000a81548173ffffffffffffffffffffffffffffffffffffffff021916908373ffffffffffffffffffffffffffffffffffffffff16021790555050565b600660009054906101000a900473ffffffffffffffffffffffffffffffffffffffff1681565b600033905090565b6000808314156124175760009050612484565b600082840290508284828161242857fe5b041461247f576040517f08c379a00000000000000000000000000000000000000000000000000000000081526004018080602001828103825260218152602001806134016021913960400191505060405180910390fd5b809150505b92915050565b600080828401905083811015612508576040517f08c379a000000000000000000000000000000000000000000000000000000000815260040180806020018281038252601b8152602001807f536166654d6174683a206164646974696f6e206f766572666c6f77000000000081525060200191505060405180910390fd5b8091505092915050565b60005b6009805490508110156125a957600a60006009838154811061253357fe5b9060005260206000200160009054906101000a900473ffffffffffffffffffffffffffffffffffffffff1673ffffffffffffffffffffffffffffffffffffffff1673ffffffffffffffffffffffffffffffffffffffff168152602001908152602001600020600090558080600101915050612515565b50600960006125b891906126c4565b565b60006125fc83836040518060400160405280601e81526020017f536166654d6174683a207375627472616374696f6e206f766572666c6f770000815250612604565b905092915050565b60008383111582906126b1576040517f08c379a00000000000000000000000000000000000000000000000000000000081526004018080602001828103825283818151815260200191508051906020019080838360005b8381101561267657808201518184015260208101905061265b565b50505050905090810190601f1680156126a35780820380516001836020036101000a031916815260200191505b509250505060405180910390fd5b5060008385039050809150509392505050565b50805460008255906000526020600020908101906126e291906126e5565b50565b5b808211156126fe5760008160009055506001016126e6565b5090565b60008135905061271181613395565b92915050565b60008151905061272681613395565b92915050565b60008151905061273b816133ac565b92915050565b600082601f83011261275257600080fd5b81356127656127608261315e565b61312d565b9150808252602083016020830185838301111561278157600080fd5b61278c83828461332c565b50505092915050565b6000813590506127a4816133c3565b92915050565b6000815190506127b9816133c3565b92915050565b6000602082840312156127d157600080fd5b60006127df84828501612702565b91505092915050565b6000602082840312156127fa57600080fd5b600061280884828501612717565b91505092915050565b6000806040838503121561282457600080fd5b600061283285828601612702565b925050602061284385828601612702565b9150509250929050565b6000806040838503121561286057600080fd5b600061286e85828601612702565b925050602061287f85828601612795565b9150509250929050565b60006020828403121561289b57600080fd5b60006128a98482850161272c565b91505092915050565b6000602082840312156128c457600080fd5b600082013567ffffffffffffffff8111156128de57600080fd5b6128ea84828501612741565b91505092915050565b6000806040838503121561290657600080fd5b600083013567ffffffffffffffff81111561292057600080fd5b61292c85828601612741565b925050602061293d85828601612795565b9150509250929050565b60006020828403121561295957600080fd5b600061296784828501612795565b91505092915050565b60006020828403121561298257600080fd5b6000612990848285016127aa565b91505092915050565b600080604083850312156129ac57600080fd5b60006129ba85828601612795565b92505060206129cb85828601612702565b9150509250929050565b6129de8161321e565b82525050565b6129ed816131b5565b82525050565b6129fc816131c7565b82525050565b612a0b81613230565b82525050565b612a1a81613254565b82525050565b612a2981613278565b82525050565b612a388161329c565b82525050565b612a47816132c0565b82525050565b612a56816132d2565b82525050565b612a65816132e4565b82525050565b612a74816132f6565b82525050565b6000612a858261318e565b612a8f8185613199565b9350612a9f81856020860161333b565b612aa881613370565b840191505092915050565b6000612abe8261318e565b612ac881856131aa565b9350612ad881856020860161333b565b80840191505092915050565b6000612af1602683613199565b91507f4769672063616e206f6e6c7920626520636f6d706c6574656420627920636f6d60008301527f6d756e69747900000000000000000000000000000000000000000000000000006020830152604082019050919050565b6000612b57601383613199565b91507f74696d656c6f636b206e6f7420616374697665000000000000000000000000006000830152602082019050919050565b6000612b97600e83613199565b91507f616c7265616479206163746976650000000000000000000000000000000000006000830152602082019050919050565b6000612bd7601483613199565b91507f6e6f7420656e6f756768206f776e2066756e64730000000000000000000000006000830152602082019050919050565b6000612c17601483613199565b91507f636f6d6d756e697479206973206e6f74207365740000000000000000000000006000830152602082019050919050565b6000612c57601883613199565b91507f6e6f2070726f6a65637420666f72206d696c6573746f6e6500000000000000006000830152602082019050919050565b6000612c97601683613199565b91507f63757272656e6379206e6f7420737570706f72746564000000000000000000006000830152602082019050919050565b6000612cd7601c83613199565b91507f6f6e6c792074726561737572792064616f2063616e20736574206964000000006000830152602082019050919050565b6000612d17601a83613199565b91507f747265617375727920697320616c7265616479206c696e6b65640000000000006000830152602082019050919050565b6000612d57600783613199565b91507f6e6f7420736574000000000000000000000000000000000000000000000000006000830152602082019050919050565b612d9381613214565b82525050565b6000612da58284612ab3565b915081905092915050565b6000602082019050612dc560008301846129e4565b92915050565b6000602082019050612de060008301846129d5565b92915050565b6000606082019050612dfb60008301866129d5565b612e0860208301856129e4565b612e156040830184612d8a565b949350505050565b6000604082019050612e3260008301856129e4565b612e3f6020830184612d8a565b9392505050565b600060a082019050612e5b60008301886129e4565b612e686020830187612d8a565b612e756040830186612a6b565b612e826060830185612a4d565b612e8f60808301846129e4565b9695505050505050565b6000602082019050612eae60008301846129f3565b92915050565b6000602082019050612ec96000830184612a02565b92915050565b6000602082019050612ee46000830184612a11565b92915050565b6000602082019050612eff6000830184612a20565b92915050565b6000602082019050612f1a6000830184612a2f565b92915050565b6000602082019050612f356000830184612a3e565b92915050565b60006040820190508181036000830152612f558185612a7a565b9050612f646020830184612d8a565b9392505050565b60006060820190508181036000830152612f858186612a7a565b9050612f946020830185612d8a565b612fa16040830184612a5c565b949350505050565b60006020820190508181036000830152612fc281612ae4565b9050919050565b60006020820190508181036000830152612fe281612b4a565b9050919050565b6000602082019050818103600083015261300281612b8a565b9050919050565b6000602082019050818103600083015261302281612bca565b9050919050565b6000602082019050818103600083015261304281612c0a565b9050919050565b6000602082019050818103600083015261306281612c4a565b9050919050565b6000602082019050818103600083015261308281612c8a565b9050919050565b600060208201905081810360008301526130a281612cca565b9050919050565b600060208201905081810360008301526130c281612d0a565b9050919050565b600060208201905081810360008301526130e281612d4a565b9050919050565b60006020820190506130fe6000830184612d8a565b92915050565b60006040820190506131196000830185612d8a565b61312660208301846129e4565b9392505050565b6000604051905081810181811067ffffffffffffffff821117156131545761315361336e565b5b8060405250919050565b600067ffffffffffffffff8211156131795761317861336e565b5b601f19601f8301169050602081019050919050565b600081519050919050565b600082825260208201905092915050565b600081905092915050565b60006131c0826131f4565b9050919050565b60008115159050919050565b60008190506131e182613381565b919050565b600061ffff82169050919050565b600073ffffffffffffffffffffffffffffffffffffffff82169050919050565b6000819050919050565b600061322982613308565b9050919050565b600061323b82613242565b9050919050565b600061324d826131f4565b9050919050565b600061325f82613266565b9050919050565b6000613271826131f4565b9050919050565b60006132838261328a565b9050919050565b6000613295826131f4565b9050919050565b60006132a7826132ae565b9050919050565b60006132b9826131f4565b9050919050565b60006132cb826131d3565b9050919050565b60006132dd826131e6565b9050919050565b60006132ef82613214565b9050919050565b600061330182613214565b9050919050565b60006133138261331a565b9050919050565b6000613325826131f4565b9050919050565b82818337600083830152505050565b60005b8381101561335957808201518184015260208101905061333e565b83811115613368576000848401525b50505050565bfe5b6000601f19601f8301169050919050565b600381106133925761339161336e565b5b50565b61339e816131b5565b81146133a957600080fd5b50565b6133b5816131c7565b81146133c057600080fd5b50565b6133cc81613214565b81146133d757600080fd5b5056fe4f776e61626c653a206e6577206f776e657220697320746865207a65726f2061646472657373536166654d6174683a206d756c7469706c69636174696f6e206f766572666c6f77a264697066735822122030b7a754e4d6c873fd0b174cf599fe1755f970042706806ede8fdfee15b75a4864736f6c63430007040033",
  "linkReferences": {},
  "deployedLinkReferences": {}
}