{
  "_format": "hh-sol-artifact-1",
  "contractName": "CommunityTreasury",
  "sourceName": "contracts/CommunityTreasury.sol",
  "abi": [
    {
      "inputs": [
        {
          "internalType": "enum DataTypes.CommunityTemplate",
          "name": "_template",
          "type": "uint8"
        },
        {
          "internalType": "address",
          "name": "_token",
          "type": "address"
        },
        {
          "internalType": "address",
          "name": "_dao",
          "type": "address"
        },
        {
          "internalType": "address",
          "name": "_dai",
          "type": "address"
        },
        {
          "internalType": "address",
          "name": "_usdc",
          "type": "address"
        },
        {
          "internalType": "address",
          "name": "_lendingPoolAP",
          "type": "address"
        }
      ],
      "stateMutability": "nonpayable",
      "type": "constructor"
    },
    {
      "anonymous": false,
      "inputs": [
        {
          "indexed": false,
          "internalType": "string",
          "name": "_currency",
          "type": "string"
        },
        {
          "indexed": false,
          "internalType": "uint256",
          "name": "_amount",
          "type": "uint256"
        }
      ],
      "name": "Borrowed",
      "type": "event"
    },
    {
      "anonymous": false,
      "inputs": [
        {
          "indexed": false,
          "internalType": "address",
          "name": "_community",
          "type": "address"
        }
      ],
      "name": "CommunitySet",
      "type": "event"
    },
    {
      "anonymous": false,
      "inputs": [
        {
          "indexed": false,
          "internalType": "uint256",
          "name": "_id",
          "type": "uint256"
        }
      ],
      "name": "IdSet",
      "type": "event"
    },
    {
      "anonymous": false,
      "inputs": [
        {
          "indexed": false,
          "internalType": "uint256",
          "name": "_amount",
          "type": "uint256"
        },
        {
          "indexed": false,
          "internalType": "address",
          "name": "_project",
          "type": "address"
        }
      ],
      "name": "MilesoteComplete",
      "type": "event"
    },
    {
      "anonymous": false,
      "inputs": [
        {
          "indexed": true,
          "internalType": "address",
          "name": "previousOwner",
          "type": "address"
        },
        {
          "indexed": true,
          "internalType": "address",
          "name": "newOwner",
          "type": "address"
        }
      ],
      "name": "OwnershipTransferred",
      "type": "event"
    },
    {
      "anonymous": false,
      "inputs": [
        {
          "indexed": false,
          "internalType": "uint256",
          "name": "_amount",
          "type": "uint256"
        }
      ],
      "name": "ThersholdReached",
      "type": "event"
    },
    {
      "anonymous": false,
      "inputs": [
        {
          "indexed": false,
          "internalType": "address",
          "name": "_dao",
          "type": "address"
        }
      ],
      "name": "TreasuryDaoSet",
      "type": "event"
    },
    {
      "inputs": [],
      "name": "MINAMOUNT",
      "outputs": [
        {
          "internalType": "uint256",
          "name": "",
          "type": "uint256"
        }
      ],
      "stateMutability": "view",
      "type": "function"
    },
    {
      "inputs": [],
      "name": "THRESHOLD",
      "outputs": [
        {
          "internalType": "uint256",
          "name": "",
          "type": "uint256"
        }
      ],
      "stateMutability": "view",
      "type": "function"
    },
    {
      "inputs": [],
      "name": "activateTimelock",
      "outputs": [],
      "stateMutability": "nonpayable",
      "type": "function"
    },
    {
      "inputs": [],
      "name": "addTimelock",
      "outputs": [],
      "stateMutability": "nonpayable",
      "type": "function"
    },
    {
      "inputs": [],
      "name": "approveCommunity",
      "outputs": [],
      "stateMutability": "nonpayable",
      "type": "function"
    },
    {
      "inputs": [
        {
          "internalType": "string",
          "name": "_currency",
          "type": "string"
        },
        {
          "internalType": "uint256",
          "name": "_amount",
          "type": "uint256"
        }
      ],
      "name": "borrowDelegated",
      "outputs": [],
      "stateMutability": "nonpayable",
      "type": "function"
    },
    {
      "inputs": [],
      "name": "community",
      "outputs": [
        {
          "internalType": "address",
          "name": "",
          "type": "address"
        }
      ],
      "stateMutability": "view",
      "type": "function"
    },
    {
      "inputs": [
        {
          "internalType": "uint256",
          "name": "_amount",
          "type": "uint256"
        },
        {
          "internalType": "address",
          "name": "_project",
          "type": "address"
        }
      ],
      "name": "completeMilestone",
      "outputs": [],
      "stateMutability": "nonpayable",
      "type": "function"
    },
    {
      "inputs": [],
      "name": "dao",
      "outputs": [
        {
          "internalType": "contract ITreasuryDao",
          "name": "",
          "type": "address"
        }
      ],
      "stateMutability": "view",
      "type": "function"
    },
    {
      "inputs": [
        {
          "internalType": "string",
          "name": "",
          "type": "string"
        }
      ],
      "name": "depositableCurrenciesContracts",
      "outputs": [
        {
          "internalType": "address",
          "name": "",
          "type": "address"
        }
      ],
      "stateMutability": "view",
      "type": "function"
    },
    {
      "inputs": [
        {
          "internalType": "string",
          "name": "_currency",
          "type": "string"
        },
        {
          "internalType": "uint256",
          "name": "_amount",
          "type": "uint256"
        }
      ],
      "name": "fund",
      "outputs": [],
      "stateMutability": "nonpayable",
      "type": "function"
    },
    {
      "inputs": [
        {
          "internalType": "address",
          "name": "",
          "type": "address"
        },
        {
          "internalType": "address",
          "name": "",
          "type": "address"
        }
      ],
      "name": "funds",
      "outputs": [
        {
          "internalType": "uint256",
          "name": "",
          "type": "uint256"
        }
      ],
      "stateMutability": "view",
      "type": "function"
    },
    {
      "inputs": [],
      "name": "getAllContributions",
      "outputs": [
        {
          "internalType": "uint256[]",
          "name": "",
          "type": "uint256[]"
        }
      ],
      "stateMutability": "view",
      "type": "function"
    },
    {
      "inputs": [],
      "name": "getDitoBalance",
      "outputs": [
        {
          "internalType": "uint256",
          "name": "",
          "type": "uint256"
        }
      ],
      "stateMutability": "view",
      "type": "function"
    },
    {
      "inputs": [
        {
          "internalType": "address",
          "name": "_funder",
          "type": "address"
        },
        {
          "internalType": "address",
          "name": "_asset",
          "type": "address"
        }
      ],
      "name": "getFunds",
      "outputs": [
        {
          "internalType": "uint256",
          "name": "",
          "type": "uint256"
        }
      ],
      "stateMutability": "view",
      "type": "function"
    },
    {
      "inputs": [
        {
          "internalType": "address",
          "name": "_project",
          "type": "address"
        }
      ],
      "name": "getProjectContributions",
      "outputs": [
        {
          "internalType": "uint256[]",
          "name": "",
          "type": "uint256[]"
        }
      ],
      "stateMutability": "view",
      "type": "function"
    },
    {
      "inputs": [
        {
          "internalType": "uint256",
          "name": "_id",
          "type": "uint256"
        }
      ],
      "name": "getProjects",
      "outputs": [
        {
          "internalType": "address",
          "name": "",
          "type": "address"
        }
      ],
      "stateMutability": "view",
      "type": "function"
    },
    {
      "inputs": [],
      "name": "id",
      "outputs": [
        {
          "internalType": "uint256",
          "name": "",
          "type": "uint256"
        }
      ],
      "stateMutability": "view",
      "type": "function"
    },
    {
      "inputs": [],
      "name": "lendingPoolAP",
      "outputs": [
        {
          "internalType": "contract ILendingPoolAddressesProvider",
          "name": "",
          "type": "address"
        }
      ],
      "stateMutability": "view",
      "type": "function"
    },
    {
      "inputs": [],
      "name": "owner",
      "outputs": [
        {
          "internalType": "address",
          "name": "",
          "type": "address"
        }
      ],
      "stateMutability": "view",
      "type": "function"
    },
    {
      "inputs": [
        {
          "internalType": "address",
          "name": "",
          "type": "address"
        },
        {
          "internalType": "uint256",
          "name": "",
          "type": "uint256"
        }
      ],
      "name": "projectContributions",
      "outputs": [
        {
          "internalType": "uint256",
          "name": "",
          "type": "uint256"
        }
      ],
      "stateMutability": "view",
      "type": "function"
    },
    {
      "inputs": [
        {
          "internalType": "uint256",
          "name": "",
          "type": "uint256"
        }
      ],
      "name": "projects",
      "outputs": [
        {
          "internalType": "address",
          "name": "",
          "type": "address"
        }
      ],
      "stateMutability": "view",
      "type": "function"
    },
    {
      "inputs": [],
      "name": "projectsNum",
      "outputs": [
        {
          "internalType": "uint256",
          "name": "",
          "type": "uint256"
        }
      ],
      "stateMutability": "view",
      "type": "function"
    },
    {
      "inputs": [],
      "name": "renounceOwnership",
      "outputs": [],
      "stateMutability": "nonpayable",
      "type": "function"
    },
    {
      "inputs": [
        {
          "internalType": "address",
          "name": "_community",
          "type": "address"
        }
      ],
      "name": "setCommunity",
      "outputs": [],
      "stateMutability": "nonpayable",
      "type": "function"
    },
    {
      "inputs": [
        {
          "internalType": "uint256",
          "name": "_id",
          "type": "uint256"
        }
      ],
      "name": "setId",
      "outputs": [],
      "stateMutability": "nonpayable",
      "type": "function"
    },
    {
      "inputs": [
        {
          "internalType": "address",
          "name": "_dao",
          "type": "address"
        }
      ],
      "name": "setTreasuryDAO",
      "outputs": [],
      "stateMutability": "nonpayable",
      "type": "function"
    },
    {
      "inputs": [],
      "name": "template",
      "outputs": [
        {
          "internalType": "enum DataTypes.CommunityTemplate",
          "name": "",
          "type": "uint8"
        }
      ],
      "stateMutability": "view",
      "type": "function"
    },
    {
      "inputs": [],
      "name": "timelock",
      "outputs": [
        {
          "internalType": "contract WithdrawTimelock",
          "name": "",
          "type": "address"
        }
      ],
      "stateMutability": "view",
      "type": "function"
    },
    {
      "inputs": [],
      "name": "timelockActive",
      "outputs": [
        {
          "internalType": "bool",
          "name": "",
          "type": "bool"
        }
      ],
      "stateMutability": "view",
      "type": "function"
    },
    {
      "inputs": [],
      "name": "token",
      "outputs": [
        {
          "internalType": "contract IDITOToken",
          "name": "",
          "type": "address"
        }
      ],
      "stateMutability": "view",
      "type": "function"
    },
    {
      "inputs": [
        {
          "internalType": "address",
          "name": "",
          "type": "address"
        }
      ],
      "name": "totalFunded",
      "outputs": [
        {
          "internalType": "uint256",
          "name": "",
          "type": "uint256"
        }
      ],
      "stateMutability": "view",
      "type": "function"
    },
    {
      "inputs": [],
      "name": "totalGigsCompleted",
      "outputs": [
        {
          "internalType": "uint256",
          "name": "",
          "type": "uint256"
        }
      ],
      "stateMutability": "view",
      "type": "function"
    },
    {
      "inputs": [],
      "name": "totalTokensReceived",
      "outputs": [
        {
          "internalType": "uint256",
          "name": "",
          "type": "uint256"
        }
      ],
      "stateMutability": "view",
      "type": "function"
    },
    {
      "inputs": [
        {
          "internalType": "address",
          "name": "newOwner",
          "type": "address"
        }
      ],
      "name": "transferOwnership",
      "outputs": [],
      "stateMutability": "nonpayable",
      "type": "function"
    },
    {
      "inputs": [
        {
          "internalType": "address",
          "name": "_currency",
          "type": "address"
        },
        {
          "internalType": "uint256",
          "name": "_amount",
          "type": "uint256"
        }
      ],
      "name": "withdrawFunding",
      "outputs": [],
      "stateMutability": "nonpayable",
      "type": "function"
    }
  ],
  "bytecode": "0x60806040523480156200001157600080fd5b5060405162003f1f38038062003f1f833981810160405281019062000037919062000335565b600062000049620002ff60201b60201c565b9050806000806101000a81548173ffffffffffffffffffffffffffffffffffffffff021916908373ffffffffffffffffffffffffffffffffffffffff1602179055508073ffffffffffffffffffffffffffffffffffffffff16600073ffffffffffffffffffffffffffffffffffffffff167f8be0079c531659141344cd1fd0a4f28419497f9722a3daafe3b4186f6b6457e060405160405180910390a350620000f7620002ff60201b60201c565b600460026101000a81548173ffffffffffffffffffffffffffffffffffffffff021916908373ffffffffffffffffffffffffffffffffffffffff1602179055506000600460006101000a81548160ff02191690831515021790555085600460016101000a81548160ff021916908360028111156200017157fe5b021790555084600660006101000a81548173ffffffffffffffffffffffffffffffffffffffff021916908373ffffffffffffffffffffffffffffffffffffffff16021790555083600560006101000a81548173ffffffffffffffffffffffffffffffffffffffff021916908373ffffffffffffffffffffffffffffffffffffffff16021790555080600160006101000a81548173ffffffffffffffffffffffffffffffffffffffff021916908373ffffffffffffffffffffffffffffffffffffffff1602179055508260026040516200024a906200044f565b908152602001604051809103902060006101000a81548173ffffffffffffffffffffffffffffffffffffffff021916908373ffffffffffffffffffffffffffffffffffffffff160217905550816002604051620002a79062000466565b908152602001604051809103902060006101000a81548173ffffffffffffffffffffffffffffffffffffffff021916908373ffffffffffffffffffffffffffffffffffffffff160217905550505050505050620004e7565b600033905090565b6000815190506200031881620004bc565b92915050565b6000815190506200032f81620004d6565b92915050565b60008060008060008060c087890312156200034f57600080fd5b60006200035f89828a016200031e565b96505060206200037289828a0162000307565b95505060406200038589828a0162000307565b94505060606200039889828a0162000307565b9350506080620003ab89828a0162000307565b92505060a0620003be89828a0162000307565b9150509295509295509295565b6000620003da6003836200047d565b91507f44414900000000000000000000000000000000000000000000000000000000006000830152600382019050919050565b60006200041c6004836200047d565b91507f55534443000000000000000000000000000000000000000000000000000000006000830152600482019050919050565b60006200045c82620003cb565b9150819050919050565b600062000473826200040d565b9150819050919050565b600081905092915050565b600062000495826200049c565b9050919050565b600073ffffffffffffffffffffffffffffffffffffffff82169050919050565b620004c78162000488565b8114620004d357600080fd5b50565b60038110620004e457600080fd5b50565b613a2880620004f76000396000f3fe608060405234801561001057600080fd5b506004361061021b5760003560e01c80638da5cb5b11610125578063d0e0ba95116100ad578063e9999b031161007c578063e9999b03146105f4578063eaad31e114610612578063ef37113314610630578063f2fde38b1461064e578063fc0c546a1461066a5761021b565b8063d0e0ba9514610580578063d33219b41461059c578063dc1fb5a5146105ba578063e377672e146105d85761021b565b8063a46eddcf116100f4578063a46eddcf146104de578063af640d0f146104fa578063bc1c2c2914610518578063bdc5a95614610548578063c7901378146105645761021b565b80638da5cb5b146104445780639963ae8c146104625780639ab9c8191461047e5780639c28b199146104ae5761021b565b806339327e9e116101a857806363a5d2981161017757806363a5d298146103d65780636f2ddd93146103e0578063715018a6146103fe5780637158638314610408578063785ffb37146104265761021b565b806339327e9e146103605780634162169f1461037e57806346f98fec1461039c57806348f65007146103a65761021b565b806320628b48116101ef57806320628b4814610294578063247e9e86146102c45780632bdef29b146102f45780633705abf11461031257806337f3061d146103425761021b565b8062f418f41461022057806303eeedfb1461022a578063107046bd1461024857806315da0b0214610278575b600080fd5b610228610688565b005b61023261071b565b60405161023f9190613681565b60405180910390f35b610262600480360381019061025d9190612dd8565b610721565b60405161026f9190613306565b60405180910390f35b610292600480360381019061028d9190612c50565b610760565b005b6102ae60048036038101906102a99190612dd8565b6109e5565b6040516102bb9190613306565b60405180910390f35b6102de60048036038101906102d99190612ca2565b610a26565b6040516102eb9190613681565b60405180910390f35b6102fc610aad565b6040516103099190613411565b60405180910390f35b61032c60048036038101906103279190612d43565b610ac0565b6040516103399190613306565b60405180910390f35b61034a610b09565b60405161035791906133ef565b60405180910390f35b610368610cbc565b6040516103759190613447565b60405180910390f35b610386610ce2565b6040516103939190613462565b60405180910390f35b6103a4610d08565b005b6103c060048036038101906103bb9190612c50565b610dfc565b6040516103cd91906133ef565b60405180910390f35b6103de610e93565b005b6103e861100a565b6040516103f59190613498565b60405180910390f35b61040661101d565b005b6104106111a3565b60405161041d9190613681565b60405180910390f35b61042e6111a9565b60405161043b9190613681565b60405180910390f35b61044c6111af565b6040516104599190613306565b60405180910390f35b61047c60048036038101906104779190612d84565b6111d8565b005b61049860048036038101906104939190612cde565b6117d8565b6040516104a59190613681565b60405180910390f35b6104c860048036038101906104c39190612ca2565b611809565b6040516104d59190613681565b60405180910390f35b6104f860048036038101906104f39190612c50565b61182e565b005b6105026119c1565b60405161050f9190613681565b60405180910390f35b610532600480360381019061052d9190612c50565b6119c7565b60405161053f9190613681565b60405180910390f35b610562600480360381019061055d9190612d84565b6119df565b005b61057e60048036038101906105799190612cde565b611c14565b005b61059a60048036038101906105959190612dd8565b611c18565b005b6105a4611e75565b6040516105b1919061347d565b60405180910390f35b6105c2611e9b565b6040516105cf9190613306565b60405180910390f35b6105f260048036038101906105ed9190612e2a565b611ec1565b005b6105fc612566565b6040516106099190613681565b60405180910390f35b61061a61256c565b6040516106279190613681565b60405180910390f35b610638612579565b6040516106459190613681565b60405180910390f35b61066860048036038101906106639190612c50565b61262b565b005b610672612836565b60405161067f919061342c565b60405180910390f35b600b60149054906101000a900460ff16156106d8576040517f08c379a00000000000000000000000000000000000000000000000000000000081526004016106cf90613561565b60405180910390fd5b33600b60006101000a81548173ffffffffffffffffffffffffffffffffffffffff021916908373ffffffffffffffffffffffffffffffffffffffff160217905550565b60075481565b6009818154811061073157600080fd5b906000526020600020016000915054906101000a900473ffffffffffffffffffffffffffffffffffffffff1681565b61076861285c565b73ffffffffffffffffffffffffffffffffffffffff1660008054906101000a900473ffffffffffffffffffffffffffffffffffffffff1673ffffffffffffffffffffffffffffffffffffffff1614610828576040517f08c379a00000000000000000000000000000000000000000000000000000000081526004018080602001828103825260208152602001807f4f776e61626c653a2063616c6c6572206973206e6f7420746865206f776e657281525060200191505060405180910390fd5b600460009054906101000a900460ff1615610878576040517f08c379a000000000000000000000000000000000000000000000000000000000815260040161086f90613621565b60405180910390fd5b80600460026101000a81548173ffffffffffffffffffffffffffffffffffffffff021916908373ffffffffffffffffffffffffffffffffffffffff160217905550600660009054906101000a900473ffffffffffffffffffffffffffffffffffffffff1673ffffffffffffffffffffffffffffffffffffffff1663095ea7b3600460029054906101000a900473ffffffffffffffffffffffffffffffffffffffff167fffffffffffffffffffffffffffffffffffffffffffffffffffffffffffffffff6040518363ffffffff1660e01b8152600401610958929190613373565b602060405180830381600087803b15801561097257600080fd5b505af1158015610986573d6000803e3d6000fd5b505050506040513d601f19601f820116820180604052508101906109aa9190612d1a565b507fb954b00fb708b65e61e5af666f5ce5050a9a566a4c6cc31e34fb24d03459106f816040516109da9190613306565b60405180910390a150565b6000600982815481106109f457fe5b9060005260206000200160009054906101000a900473ffffffffffffffffffffffffffffffffffffffff169050919050565b6000600c60008473ffffffffffffffffffffffffffffffffffffffff1673ffffffffffffffffffffffffffffffffffffffff16815260200190815260200160002060008373ffffffffffffffffffffffffffffffffffffffff1673ffffffffffffffffffffffffffffffffffffffff16815260200190815260200160002054905092915050565b600b60149054906101000a900460ff1681565b6002818051602081018201805184825260208301602085012081835280955050505050506000915054906101000a900473ffffffffffffffffffffffffffffffffffffffff1681565b60608060075467ffffffffffffffff81118015610b2557600080fd5b50604051908082528060200260200182016040528015610b545781602001602082028036833780820191505090505b5090506000805b600980549050811015610cb35760005b600a600060098481548110610b7c57fe5b9060005260206000200160009054906101000a900473ffffffffffffffffffffffffffffffffffffffff1673ffffffffffffffffffffffffffffffffffffffff1673ffffffffffffffffffffffffffffffffffffffff16815260200190815260200160002080549050811015610ca557600a600060098481548110610bfd57fe5b9060005260206000200160009054906101000a900473ffffffffffffffffffffffffffffffffffffffff1673ffffffffffffffffffffffffffffffffffffffff1673ffffffffffffffffffffffffffffffffffffffff1681526020019081526020016000208181548110610c6d57fe5b9060005260206000200154848481518110610c8457fe5b60200260200101818152505082806001019350508080600101915050610b6b565b508080600101915050610b5b565b50819250505090565b600160009054906101000a900473ffffffffffffffffffffffffffffffffffffffff1681565b600560009054906101000a900473ffffffffffffffffffffffffffffffffffffffff1681565b600660009054906101000a900473ffffffffffffffffffffffffffffffffffffffff1673ffffffffffffffffffffffffffffffffffffffff1663095ea7b3600460029054906101000a900473ffffffffffffffffffffffffffffffffffffffff167fffffffffffffffffffffffffffffffffffffffffffffffffffffffffffffffff6040518363ffffffff1660e01b8152600401610da7929190613373565b602060405180830381600087803b158015610dc157600080fd5b505af1158015610dd5573d6000803e3d6000fd5b505050506040513d601f19601f82011682018060405250810190610df99190612d1a565b50565b6060600a60008373ffffffffffffffffffffffffffffffffffffffff1673ffffffffffffffffffffffffffffffffffffffff168152602001908152602001600020805480602002602001604051908101604052809291908181526020018280548015610e8757602002820191906000526020600020905b815481526020019060010190808311610e73575b50505050509050919050565b610e9b61285c565b73ffffffffffffffffffffffffffffffffffffffff1660008054906101000a900473ffffffffffffffffffffffffffffffffffffffff1673ffffffffffffffffffffffffffffffffffffffff1614610f5b576040517f08c379a00000000000000000000000000000000000000000000000000000000081526004018080602001828103825260208152602001807f4f776e61626c653a2063616c6c6572206973206e6f7420746865206f776e657281525060200191505060405180910390fd5b600073ffffffffffffffffffffffffffffffffffffffff16600b60009054906101000a900473ffffffffffffffffffffffffffffffffffffffff1673ffffffffffffffffffffffffffffffffffffffff161415610fed576040517f08c379a0000000000000000000000000000000000000000000000000000000008152600401610fe490613641565b60405180910390fd5b6001600b60146101000a81548160ff021916908315150217905550565b600460019054906101000a900460ff1681565b61102561285c565b73ffffffffffffffffffffffffffffffffffffffff1660008054906101000a900473ffffffffffffffffffffffffffffffffffffffff1673ffffffffffffffffffffffffffffffffffffffff16146110e5576040517f08c379a00000000000000000000000000000000000000000000000000000000081526004018080602001828103825260208152602001807f4f776e61626c653a2063616c6c6572206973206e6f7420746865206f776e657281525060200191505060405180910390fd5b600073ffffffffffffffffffffffffffffffffffffffff1660008054906101000a900473ffffffffffffffffffffffffffffffffffffffff1673ffffffffffffffffffffffffffffffffffffffff167f8be0079c531659141344cd1fd0a4f28419497f9722a3daafe3b4186f6b6457e060405160405180910390a360008060006101000a81548173ffffffffffffffffffffffffffffffffffffffff021916908373ffffffffffffffffffffffffffffffffffffffff160217905550565b60085481565b610f0081565b60008060009054906101000a900473ffffffffffffffffffffffffffffffffffffffff16905090565b600b60149054906101000a900460ff16611227576040517f08c379a000000000000000000000000000000000000000000000000000000000815260040161121e90613541565b60405180910390fd5b600060028360405161123991906132ef565b908152602001604051809103902060009054906101000a900473ffffffffffffffffffffffffffffffffffffffff169050600073ffffffffffffffffffffffffffffffffffffffff168173ffffffffffffffffffffffffffffffffffffffff1614156112da576040517f08c379a00000000000000000000000000000000000000000000000000000000081526004016112d1906135e1565b60405180910390fd5b60006112f7670de0b6b3a76400008461286490919063ffffffff16565b9050808273ffffffffffffffffffffffffffffffffffffffff166370a0823161131e61285c565b6040518263ffffffff1660e01b815260040161133a9190613321565b60206040518083038186803b15801561135257600080fd5b505afa158015611366573d6000803e3d6000fd5b505050506040513d601f19601f8201168201806040525081019061138a9190612e01565b10156113cb576040517f08c379a00000000000000000000000000000000000000000000000000000000081526004016113c290613581565b60405180910390fd5b8173ffffffffffffffffffffffffffffffffffffffff166323b872dd3330846040518463ffffffff1660e01b81526004016114089392919061333c565b602060405180830381600087803b15801561142257600080fd5b505af1158015611436573d6000803e3d6000fd5b505050506040513d601f19601f8201168201806040525081019061145a9190612d1a565b508173ffffffffffffffffffffffffffffffffffffffff1663095ea7b3600560009054906101000a900473ffffffffffffffffffffffffffffffffffffffff16836040518363ffffffff1660e01b81526004016114b8929190613373565b602060405180830381600087803b1580156114d257600080fd5b505af11580156114e6573d6000803e3d6000fd5b505050506040513d601f19601f8201168201806040525081019061150a9190612d1a565b50600560009054906101000a900473ffffffffffffffffffffffffffffffffffffffff1673ffffffffffffffffffffffffffffffffffffffff1663a7829ffa858560646040518463ffffffff1660e01b815260040161156b939291906134e3565b600060405180830381600087803b15801561158557600080fd5b505af1158015611599573d6000803e3d6000fd5b50505050600b60009054906101000a900473ffffffffffffffffffffffffffffffffffffffff1673ffffffffffffffffffffffffffffffffffffffff16638340f5493384846040518463ffffffff1660e01b81526004016115fc9392919061333c565b600060405180830381600087803b15801561161657600080fd5b505af115801561162a573d6000803e3d6000fd5b505050506116bd81600c60003373ffffffffffffffffffffffffffffffffffffffff1673ffffffffffffffffffffffffffffffffffffffff16815260200190815260200160002060008573ffffffffffffffffffffffffffffffffffffffff1673ffffffffffffffffffffffffffffffffffffffff168152602001908152602001600020546128ea90919063ffffffff16565b600c60003373ffffffffffffffffffffffffffffffffffffffff1673ffffffffffffffffffffffffffffffffffffffff16815260200190815260200160002060008473ffffffffffffffffffffffffffffffffffffffff1673ffffffffffffffffffffffffffffffffffffffff1681526020019081526020016000208190555061178f81600d60008573ffffffffffffffffffffffffffffffffffffffff1673ffffffffffffffffffffffffffffffffffffffff168152602001908152602001600020546128ea90919063ffffffff16565b600d60008473ffffffffffffffffffffffffffffffffffffffff1673ffffffffffffffffffffffffffffffffffffffff1681526020019081526020016000208190555050505050565b600a60205281600052604060002081815481106117f457600080fd5b90600052602060002001600091509150505481565b600c602052816000526040600020602052806000526040600020600091509150505481565b61183661285c565b73ffffffffffffffffffffffffffffffffffffffff1660008054906101000a900473ffffffffffffffffffffffffffffffffffffffff1673ffffffffffffffffffffffffffffffffffffffff16146118f6576040517f08c379a00000000000000000000000000000000000000000000000000000000081526004018080602001828103825260208152602001807f4f776e61626c653a2063616c6c6572206973206e6f7420746865206f776e657281525060200191505060405180910390fd5b600460009054906101000a900460ff1615611946576040517f08c379a000000000000000000000000000000000000000000000000000000000815260040161193d90613621565b60405180910390fd5b80600560006101000a81548173ffffffffffffffffffffffffffffffffffffffff021916908373ffffffffffffffffffffffffffffffffffffffff1602179055507f181dccb510f27d9c2608cbef86fad60ab59d126bc8782ea2f21763607ec41739816040516119b69190613306565b60405180910390a150565b60035481565b600d6020528060005260406000206000915090505481565b6000600160009054906101000a900473ffffffffffffffffffffffffffffffffffffffff1673ffffffffffffffffffffffffffffffffffffffff16630261bf8b6040518163ffffffff1660e01b815260040160206040518083038186803b158015611a4957600080fd5b505afa158015611a5d573d6000803e3d6000fd5b505050506040513d601f19601f82011682018060405250810190611a819190612c79565b90506000600284604051611a9591906132ef565b908152602001604051809103902060009054906101000a900473ffffffffffffffffffffffffffffffffffffffff169050600073ffffffffffffffffffffffffffffffffffffffff168173ffffffffffffffffffffffffffffffffffffffff161415611b36576040517f08c379a0000000000000000000000000000000000000000000000000000000008152600401611b2d906135e1565b60405180910390fd5b8173ffffffffffffffffffffffffffffffffffffffff1663a415bcad828560016000600560009054906101000a900473ffffffffffffffffffffffffffffffffffffffff166040518663ffffffff1660e01b8152600401611b9b95949392919061339c565b600060405180830381600087803b158015611bb557600080fd5b505af1158015611bc9573d6000803e3d6000fd5b50505050611bd5612972565b7ffc30ec1bee3b4fb527f0d90b4bbbf5a24b72f0964679ff277df1895e8ad239578484604051611c069291906134b3565b60405180910390a150505050565b5050565b600560009054906101000a900473ffffffffffffffffffffffffffffffffffffffff1673ffffffffffffffffffffffffffffffffffffffff163373ffffffffffffffffffffffffffffffffffffffff1614611ca8576040517f08c379a0000000000000000000000000000000000000000000000000000000008152600401611c9f90613601565b60405180910390fd5b600460009054906101000a900460ff1615611cf8576040517f08c379a0000000000000000000000000000000000000000000000000000000008152600401611cef90613621565b60405180910390fd5b600073ffffffffffffffffffffffffffffffffffffffff16600460029054906101000a900473ffffffffffffffffffffffffffffffffffffffff1673ffffffffffffffffffffffffffffffffffffffff161415611d8a576040517f08c379a0000000000000000000000000000000000000000000000000000000008152600401611d81906135a1565b60405180910390fd5b806003819055506001600460006101000a81548160ff0219169083151502179055507fc72e55068a99063a2c847c0b87d2808f29d1935171e54ffa3a479533b4046b7481604051611ddb9190613681565b60405180910390a1600460029054906101000a900473ffffffffffffffffffffffffffffffffffffffff1673ffffffffffffffffffffffffffffffffffffffff1663d0e0ba956003546040518263ffffffff1660e01b8152600401611e409190613681565b600060405180830381600087803b158015611e5a57600080fd5b505af1158015611e6e573d6000803e3d6000fd5b5050505050565b600b60009054906101000a900473ffffffffffffffffffffffffffffffffffffffff1681565b600460029054906101000a900473ffffffffffffffffffffffffffffffffffffffff1681565b600460029054906101000a900473ffffffffffffffffffffffffffffffffffffffff1673ffffffffffffffffffffffffffffffffffffffff16611f0261285c565b73ffffffffffffffffffffffffffffffffffffffff1614611f58576040517f08c379a0000000000000000000000000000000000000000000000000000000008152600401611f4f90613521565b60405180910390fd5b600073ffffffffffffffffffffffffffffffffffffffff168173ffffffffffffffffffffffffffffffffffffffff161415611fc8576040517f08c379a0000000000000000000000000000000000000000000000000000000008152600401611fbf906135c1565b60405180910390fd5b6000821161200b576040517f08c379a000000000000000000000000000000000000000000000000000000000815260040161200290613661565b60405180910390fd5b600660009054906101000a900473ffffffffffffffffffffffffffffffffffffffff1673ffffffffffffffffffffffffffffffffffffffff166323b872dd61205161285c565b3061206d670de0b6b3a76400008761286490919063ffffffff16565b6040518463ffffffff1660e01b815260040161208b9392919061333c565b602060405180830381600087803b1580156120a557600080fd5b505af11580156120b9573d6000803e3d6000fd5b505050506040513d601f19601f820116820180604052508101906120dd9190612d1a565b506000600660009054906101000a900473ffffffffffffffffffffffffffffffffffffffff1673ffffffffffffffffffffffffffffffffffffffff166370a08231306040518263ffffffff1660e01b815260040161213b9190613306565b60206040518083038186803b15801561215357600080fd5b505afa158015612167573d6000803e3d6000fd5b505050506040513d601f19601f8201168201806040525081019061218b9190612e01565b90506000600a60008473ffffffffffffffffffffffffffffffffffffffff1673ffffffffffffffffffffffffffffffffffffffff16815260200190815260200160002080549050141561223c576009829080600181540180825580915050600190039060005260206000200160009091909190916101000a81548173ffffffffffffffffffffffffffffffffffffffff021916908373ffffffffffffffffffffffffffffffffffffffff1602179055505b600a60008373ffffffffffffffffffffffffffffffffffffffff1673ffffffffffffffffffffffffffffffffffffffff168152602001908152602001600020612296670de0b6b3a76400008561286490919063ffffffff16565b90806001815401808255809150506001900390600052602060002001600090919091909150556122d260016007546128ea90919063ffffffff16565b6007819055506122ed836008546128ea90919063ffffffff16565b600881905550612310670de0b6b3a7640000610f0061286490919063ffffffff16565b8110612527576000612347612338670de0b6b3a76400006107d061286490919063ffffffff16565b83612a2a90919063ffffffff16565b9050600560009054906101000a900473ffffffffffffffffffffffffffffffffffffffff1673ffffffffffffffffffffffffffffffffffffffff166305f9c5976003546040518263ffffffff1660e01b81526004016123a69190613681565b600060405180830381600087803b1580156123c057600080fd5b505af11580156123d4573d6000803e3d6000fd5b505050507f78cd33486287c682aa18f13badc425b37df2158a72b64ecfe2fa765f62c93430848460405161240992919061369c565b60405180910390a17facd3dbb848fad50d312987d285e88fdc140a8385c5c568117c79d1437d8be32e61243a612579565b6040516124479190613681565b60405180910390a1600660009054906101000a900473ffffffffffffffffffffffffffffffffffffffff1673ffffffffffffffffffffffffffffffffffffffff1663a9059cbb600460029054906101000a900473ffffffffffffffffffffffffffffffffffffffff16836040518363ffffffff1660e01b81526004016124ce929190613373565b602060405180830381600087803b1580156124e857600080fd5b505af11580156124fc573d6000803e3d6000fd5b505050506040513d601f19601f820116820180604052508101906125209190612d1a565b5050612561565b7f78cd33486287c682aa18f13badc425b37df2158a72b64ecfe2fa765f62c93430838360405161255892919061369c565b60405180910390a15b505050565b6107d081565b6000600980549050905090565b6000600660009054906101000a900473ffffffffffffffffffffffffffffffffffffffff1673ffffffffffffffffffffffffffffffffffffffff166370a08231306040518263ffffffff1660e01b81526004016125d69190613306565b60206040518083038186803b1580156125ee57600080fd5b505afa158015612602573d6000803e3d6000fd5b505050506040513d601f19601f820116820180604052508101906126269190612e01565b905090565b61263361285c565b73ffffffffffffffffffffffffffffffffffffffff1660008054906101000a900473ffffffffffffffffffffffffffffffffffffffff1673ffffffffffffffffffffffffffffffffffffffff16146126f3576040517f08c379a00000000000000000000000000000000000000000000000000000000081526004018080602001828103825260208152602001807f4f776e61626c653a2063616c6c6572206973206e6f7420746865206f776e657281525060200191505060405180910390fd5b600073ffffffffffffffffffffffffffffffffffffffff168173ffffffffffffffffffffffffffffffffffffffff161415612779576040517f08c379a00000000000000000000000000000000000000000000000000000000081526004018080602001828103825260268152602001806139ac6026913960400191505060405180910390fd5b8073ffffffffffffffffffffffffffffffffffffffff1660008054906101000a900473ffffffffffffffffffffffffffffffffffffffff1673ffffffffffffffffffffffffffffffffffffffff167f8be0079c531659141344cd1fd0a4f28419497f9722a3daafe3b4186f6b6457e060405160405180910390a3806000806101000a81548173ffffffffffffffffffffffffffffffffffffffff021916908373ffffffffffffffffffffffffffffffffffffffff16021790555050565b600660009054906101000a900473ffffffffffffffffffffffffffffffffffffffff1681565b600033905090565b60008083141561287757600090506128e4565b600082840290508284828161288857fe5b04146128df576040517f08c379a00000000000000000000000000000000000000000000000000000000081526004018080602001828103825260218152602001806139d26021913960400191505060405180910390fd5b809150505b92915050565b600080828401905083811015612968576040517f08c379a000000000000000000000000000000000000000000000000000000000815260040180806020018281038252601b8152602001807f536166654d6174683a206164646974696f6e206f766572666c6f77000000000081525060200191505060405180910390fd5b8091505092915050565b60005b600980549050811015612a1157600a60006009838154811061299357fe5b9060005260206000200160009054906101000a900473ffffffffffffffffffffffffffffffffffffffff1673ffffffffffffffffffffffffffffffffffffffff1673ffffffffffffffffffffffffffffffffffffffff1681526020019081526020016000206000612a049190612b34565b8080600101915050612975565b5060096000612a209190612b55565b6000600781905550565b6000612a6c83836040518060400160405280601e81526020017f536166654d6174683a207375627472616374696f6e206f766572666c6f770000815250612a74565b905092915050565b6000838311158290612b21576040517f08c379a00000000000000000000000000000000000000000000000000000000081526004018080602001828103825283818151815260200191508051906020019080838360005b83811015612ae6578082015181840152602081019050612acb565b50505050905090810190601f168015612b135780820380516001836020036101000a031916815260200191505b509250505060405180910390fd5b5060008385039050809150509392505050565b5080546000825590600052602060002090810190612b529190612b76565b50565b5080546000825590600052602060002090810190612b739190612b76565b50565b5b80821115612b8f576000816000905550600101612b77565b5090565b600081359050612ba281613966565b92915050565b600081519050612bb781613966565b92915050565b600081519050612bcc8161397d565b92915050565b600082601f830112612be357600080fd5b8135612bf6612bf1826136f6565b6136c5565b91508082526020830160208301858383011115612c1257600080fd5b612c1d8382846138fd565b50505092915050565b600081359050612c3581613994565b92915050565b600081519050612c4a81613994565b92915050565b600060208284031215612c6257600080fd5b6000612c7084828501612b93565b91505092915050565b600060208284031215612c8b57600080fd5b6000612c9984828501612ba8565b91505092915050565b60008060408385031215612cb557600080fd5b6000612cc385828601612b93565b9250506020612cd485828601612b93565b9150509250929050565b60008060408385031215612cf157600080fd5b6000612cff85828601612b93565b9250506020612d1085828601612c26565b9150509250929050565b600060208284031215612d2c57600080fd5b6000612d3a84828501612bbd565b91505092915050565b600060208284031215612d5557600080fd5b600082013567ffffffffffffffff811115612d6f57600080fd5b612d7b84828501612bd2565b91505092915050565b60008060408385031215612d9757600080fd5b600083013567ffffffffffffffff811115612db157600080fd5b612dbd85828601612bd2565b9250506020612dce85828601612c26565b9150509250929050565b600060208284031215612dea57600080fd5b6000612df884828501612c26565b91505092915050565b600060208284031215612e1357600080fd5b6000612e2184828501612c3b565b91505092915050565b60008060408385031215612e3d57600080fd5b6000612e4b85828601612c26565b9250506020612e5c85828601612b93565b9150509250929050565b6000612e7283836132d1565b60208301905092915050565b612e87816137ef565b82525050565b612e9681613786565b82525050565b6000612ea782613736565b612eb18185613759565b9350612ebc83613726565b8060005b83811015612eed578151612ed48882612e66565b9750612edf8361374c565b925050600181019050612ec0565b5085935050505092915050565b612f0381613798565b82525050565b612f1281613801565b82525050565b612f2181613825565b82525050565b612f3081613849565b82525050565b612f3f8161386d565b82525050565b612f4e81613891565b82525050565b612f5d816138a3565b82525050565b612f6c816138b5565b82525050565b612f7b816138c7565b82525050565b6000612f8c82613741565b612f96818561376a565b9350612fa681856020860161390c565b612faf81613941565b840191505092915050565b6000612fc582613741565b612fcf818561377b565b9350612fdf81856020860161390c565b80840191505092915050565b6000612ff860268361376a565b91507f4769672063616e206f6e6c7920626520636f6d706c6574656420627920636f6d60008301527f6d756e69747900000000000000000000000000000000000000000000000000006020830152604082019050919050565b600061305e60138361376a565b91507f74696d656c6f636b206e6f7420616374697665000000000000000000000000006000830152602082019050919050565b600061309e600e8361376a565b91507f616c7265616479206163746976650000000000000000000000000000000000006000830152602082019050919050565b60006130de60148361376a565b91507f6e6f7420656e6f756768206f776e2066756e64730000000000000000000000006000830152602082019050919050565b600061311e60148361376a565b91507f636f6d6d756e697479206973206e6f74207365740000000000000000000000006000830152602082019050919050565b600061315e60188361376a565b91507f6e6f2070726f6a65637420666f72206d696c6573746f6e6500000000000000006000830152602082019050919050565b600061319e60168361376a565b91507f63757272656e6379206e6f7420737570706f72746564000000000000000000006000830152602082019050919050565b60006131de601c8361376a565b91507f6f6e6c792074726561737572792064616f2063616e20736574206964000000006000830152602082019050919050565b600061321e601a8361376a565b91507f747265617375727920697320616c7265616479206c696e6b65640000000000006000830152602082019050919050565b600061325e60078361376a565b91507f6e6f7420736574000000000000000000000000000000000000000000000000006000830152602082019050919050565b600061329e600b8361376a565b91507f616d6f756e7420697320300000000000000000000000000000000000000000006000830152602082019050919050565b6132da816137e5565b82525050565b6132e9816137e5565b82525050565b60006132fb8284612fba565b915081905092915050565b600060208201905061331b6000830184612e8d565b92915050565b60006020820190506133366000830184612e7e565b92915050565b60006060820190506133516000830186612e7e565b61335e6020830185612e8d565b61336b60408301846132e0565b949350505050565b60006040820190506133886000830185612e8d565b61339560208301846132e0565b9392505050565b600060a0820190506133b16000830188612e8d565b6133be60208301876132e0565b6133cb6040830186612f72565b6133d86060830185612f54565b6133e56080830184612e8d565b9695505050505050565b600060208201905081810360008301526134098184612e9c565b905092915050565b60006020820190506134266000830184612efa565b92915050565b60006020820190506134416000830184612f09565b92915050565b600060208201905061345c6000830184612f18565b92915050565b60006020820190506134776000830184612f27565b92915050565b60006020820190506134926000830184612f36565b92915050565b60006020820190506134ad6000830184612f45565b92915050565b600060408201905081810360008301526134cd8185612f81565b90506134dc60208301846132e0565b9392505050565b600060608201905081810360008301526134fd8186612f81565b905061350c60208301856132e0565b6135196040830184612f63565b949350505050565b6000602082019050818103600083015261353a81612feb565b9050919050565b6000602082019050818103600083015261355a81613051565b9050919050565b6000602082019050818103600083015261357a81613091565b9050919050565b6000602082019050818103600083015261359a816130d1565b9050919050565b600060208201905081810360008301526135ba81613111565b9050919050565b600060208201905081810360008301526135da81613151565b9050919050565b600060208201905081810360008301526135fa81613191565b9050919050565b6000602082019050818103600083015261361a816131d1565b9050919050565b6000602082019050818103600083015261363a81613211565b9050919050565b6000602082019050818103600083015261365a81613251565b9050919050565b6000602082019050818103600083015261367a81613291565b9050919050565b600060208201905061369660008301846132e0565b92915050565b60006040820190506136b160008301856132e0565b6136be6020830184612e8d565b9392505050565b6000604051905081810181811067ffffffffffffffff821117156136ec576136eb61393f565b5b8060405250919050565b600067ffffffffffffffff8211156137115761371061393f565b5b601f19601f8301169050602081019050919050565b6000819050602082019050919050565b600081519050919050565b600081519050919050565b6000602082019050919050565b600082825260208201905092915050565b600082825260208201905092915050565b600081905092915050565b6000613791826137c5565b9050919050565b60008115159050919050565b60008190506137b282613952565b919050565b600061ffff82169050919050565b600073ffffffffffffffffffffffffffffffffffffffff82169050919050565b6000819050919050565b60006137fa826138d9565b9050919050565b600061380c82613813565b9050919050565b600061381e826137c5565b9050919050565b600061383082613837565b9050919050565b6000613842826137c5565b9050919050565b60006138548261385b565b9050919050565b6000613866826137c5565b9050919050565b60006138788261387f565b9050919050565b600061388a826137c5565b9050919050565b600061389c826137a4565b9050919050565b60006138ae826137b7565b9050919050565b60006138c0826137e5565b9050919050565b60006138d2826137e5565b9050919050565b60006138e4826138eb565b9050919050565b60006138f6826137c5565b9050919050565b82818337600083830152505050565b60005b8381101561392a57808201518184015260208101905061390f565b83811115613939576000848401525b50505050565bfe5b6000601f19601f8301169050919050565b600381106139635761396261393f565b5b50565b61396f81613786565b811461397a57600080fd5b50565b61398681613798565b811461399157600080fd5b50565b61399d816137e5565b81146139a857600080fd5b5056fe4f776e61626c653a206e6577206f776e657220697320746865207a65726f2061646472657373536166654d6174683a206d756c7469706c69636174696f6e206f766572666c6f77a2646970667358221220f5b378a91f2afa3e266d4a3cf9068c4fc30f585dcfc2f6ae3c947307f001f82764736f6c63430007040033",
  "linkReferences": {},
  "deployedLinkReferences": {}
}