{
  "_format": "hh-sol-artifact-1",
  "contractName": "CommunityTreasury",
  "sourceName": "contracts/CommunityTreasury.sol",
  "abi": [
    {
      "inputs": [
        {
          "internalType": "enum DataTypes.CommunityTemplate",
          "name": "_template",
          "type": "uint8"
        },
        {
          "internalType": "address",
          "name": "_token",
          "type": "address"
        },
        {
          "internalType": "address",
          "name": "_dao",
          "type": "address"
        },
        {
          "internalType": "address",
          "name": "_dai",
          "type": "address"
        },
        {
          "internalType": "address",
          "name": "_usdc",
          "type": "address"
        },
        {
          "internalType": "address",
          "name": "_lendingPoolAP",
          "type": "address"
        }
      ],
      "stateMutability": "nonpayable",
      "type": "constructor"
    },
    {
      "anonymous": false,
      "inputs": [
        {
          "indexed": false,
          "internalType": "string",
          "name": "_currency",
          "type": "string"
        },
        {
          "indexed": false,
          "internalType": "uint256",
          "name": "_amount",
          "type": "uint256"
        }
      ],
      "name": "Borrowed",
      "type": "event"
    },
    {
      "anonymous": false,
      "inputs": [
        {
          "indexed": false,
          "internalType": "address",
          "name": "_community",
          "type": "address"
        }
      ],
      "name": "CommunitySet",
      "type": "event"
    },
    {
      "anonymous": false,
      "inputs": [
        {
          "indexed": false,
          "internalType": "uint256",
          "name": "_id",
          "type": "uint256"
        }
      ],
      "name": "IdSet",
      "type": "event"
    },
    {
      "anonymous": false,
      "inputs": [
        {
          "indexed": false,
          "internalType": "uint256",
          "name": "_amount",
          "type": "uint256"
        },
        {
          "indexed": false,
          "internalType": "address",
          "name": "_project",
          "type": "address"
        }
      ],
      "name": "MilesoteComplete",
      "type": "event"
    },
    {
      "anonymous": false,
      "inputs": [
        {
          "indexed": true,
          "internalType": "address",
          "name": "previousOwner",
          "type": "address"
        },
        {
          "indexed": true,
          "internalType": "address",
          "name": "newOwner",
          "type": "address"
        }
      ],
      "name": "OwnershipTransferred",
      "type": "event"
    },
    {
      "anonymous": false,
      "inputs": [
        {
          "indexed": false,
          "internalType": "uint256",
          "name": "_amount",
          "type": "uint256"
        }
      ],
      "name": "ThersholdReached",
      "type": "event"
    },
    {
      "anonymous": false,
      "inputs": [
        {
          "indexed": false,
          "internalType": "address",
          "name": "_dao",
          "type": "address"
        }
      ],
      "name": "TreasuryDaoSet",
      "type": "event"
    },
    {
      "inputs": [],
      "name": "MINAMOUNT",
      "outputs": [
        {
          "internalType": "uint256",
          "name": "",
          "type": "uint256"
        }
      ],
      "stateMutability": "view",
      "type": "function"
    },
    {
      "inputs": [],
      "name": "THRESHOLD",
      "outputs": [
        {
          "internalType": "uint256",
          "name": "",
          "type": "uint256"
        }
      ],
      "stateMutability": "view",
      "type": "function"
    },
    {
      "inputs": [],
      "name": "activateTimelock",
      "outputs": [],
      "stateMutability": "nonpayable",
      "type": "function"
    },
    {
      "inputs": [],
      "name": "addTimelock",
      "outputs": [],
      "stateMutability": "nonpayable",
      "type": "function"
    },
    {
      "inputs": [],
      "name": "approveCommunity",
      "outputs": [],
      "stateMutability": "nonpayable",
      "type": "function"
    },
    {
      "inputs": [
        {
          "internalType": "string",
          "name": "_currency",
          "type": "string"
        },
        {
          "internalType": "uint256",
          "name": "_amount",
          "type": "uint256"
        }
      ],
      "name": "borrowDelegated",
      "outputs": [],
      "stateMutability": "nonpayable",
      "type": "function"
    },
    {
      "inputs": [],
      "name": "community",
      "outputs": [
        {
          "internalType": "address",
          "name": "",
          "type": "address"
        }
      ],
      "stateMutability": "view",
      "type": "function"
    },
    {
      "inputs": [
        {
          "internalType": "uint256",
          "name": "_amount",
          "type": "uint256"
        },
        {
          "internalType": "address",
          "name": "_project",
          "type": "address"
        }
      ],
      "name": "completeMilestone",
      "outputs": [],
      "stateMutability": "nonpayable",
      "type": "function"
    },
    {
      "inputs": [],
      "name": "dao",
      "outputs": [
        {
          "internalType": "contract ITreasuryDao",
          "name": "",
          "type": "address"
        }
      ],
      "stateMutability": "view",
      "type": "function"
    },
    {
      "inputs": [
        {
          "internalType": "string",
          "name": "",
          "type": "string"
        }
      ],
      "name": "depositableCurrenciesContracts",
      "outputs": [
        {
          "internalType": "address",
          "name": "",
          "type": "address"
        }
      ],
      "stateMutability": "view",
      "type": "function"
    },
    {
      "inputs": [
        {
          "internalType": "string",
          "name": "_currency",
          "type": "string"
        },
        {
          "internalType": "uint256",
          "name": "_amount",
          "type": "uint256"
        }
      ],
      "name": "fund",
      "outputs": [],
      "stateMutability": "nonpayable",
      "type": "function"
    },
    {
      "inputs": [
        {
          "internalType": "address",
          "name": "",
          "type": "address"
        },
        {
          "internalType": "address",
          "name": "",
          "type": "address"
        }
      ],
      "name": "funds",
      "outputs": [
        {
          "internalType": "uint256",
          "name": "",
          "type": "uint256"
        }
      ],
      "stateMutability": "view",
      "type": "function"
    },
    {
      "inputs": [],
      "name": "getDitoBalance",
      "outputs": [
        {
          "internalType": "uint256",
          "name": "",
          "type": "uint256"
        }
      ],
      "stateMutability": "view",
      "type": "function"
    },
    {
      "inputs": [
        {
          "internalType": "address",
          "name": "_funder",
          "type": "address"
        },
        {
          "internalType": "address",
          "name": "_asset",
          "type": "address"
        }
      ],
      "name": "getFunds",
      "outputs": [
        {
          "internalType": "uint256",
          "name": "",
          "type": "uint256"
        }
      ],
      "stateMutability": "view",
      "type": "function"
    },
    {
      "inputs": [],
      "name": "id",
      "outputs": [
        {
          "internalType": "uint256",
          "name": "",
          "type": "uint256"
        }
      ],
      "stateMutability": "view",
      "type": "function"
    },
    {
      "inputs": [],
      "name": "lendingPoolAP",
      "outputs": [
        {
          "internalType": "contract ILendingPoolAddressesProvider",
          "name": "",
          "type": "address"
        }
      ],
      "stateMutability": "view",
      "type": "function"
    },
    {
      "inputs": [],
      "name": "owner",
      "outputs": [
        {
          "internalType": "address",
          "name": "",
          "type": "address"
        }
      ],
      "stateMutability": "view",
      "type": "function"
    },
    {
      "inputs": [
        {
          "internalType": "address",
          "name": "",
          "type": "address"
        }
      ],
      "name": "projectCredits",
      "outputs": [
        {
          "internalType": "uint256",
          "name": "",
          "type": "uint256"
        }
      ],
      "stateMutability": "view",
      "type": "function"
    },
    {
      "inputs": [
        {
          "internalType": "uint256",
          "name": "",
          "type": "uint256"
        }
      ],
      "name": "projects",
      "outputs": [
        {
          "internalType": "address",
          "name": "",
          "type": "address"
        }
      ],
      "stateMutability": "view",
      "type": "function"
    },
    {
      "inputs": [],
      "name": "renounceOwnership",
      "outputs": [],
      "stateMutability": "nonpayable",
      "type": "function"
    },
    {
      "inputs": [
        {
          "internalType": "address",
          "name": "_community",
          "type": "address"
        }
      ],
      "name": "setCommunity",
      "outputs": [],
      "stateMutability": "nonpayable",
      "type": "function"
    },
    {
      "inputs": [
        {
          "internalType": "uint256",
          "name": "_id",
          "type": "uint256"
        }
      ],
      "name": "setId",
      "outputs": [],
      "stateMutability": "nonpayable",
      "type": "function"
    },
    {
      "inputs": [
        {
          "internalType": "address",
          "name": "_dao",
          "type": "address"
        }
      ],
      "name": "setTreasuryDAO",
      "outputs": [],
      "stateMutability": "nonpayable",
      "type": "function"
    },
    {
      "inputs": [],
      "name": "template",
      "outputs": [
        {
          "internalType": "enum DataTypes.CommunityTemplate",
          "name": "",
          "type": "uint8"
        }
      ],
      "stateMutability": "view",
      "type": "function"
    },
    {
      "inputs": [],
      "name": "timelock",
      "outputs": [
        {
          "internalType": "contract WithdrawTimelock",
          "name": "",
          "type": "address"
        }
      ],
      "stateMutability": "view",
      "type": "function"
    },
    {
      "inputs": [],
      "name": "timelockActive",
      "outputs": [
        {
          "internalType": "bool",
          "name": "",
          "type": "bool"
        }
      ],
      "stateMutability": "view",
      "type": "function"
    },
    {
      "inputs": [],
      "name": "token",
      "outputs": [
        {
          "internalType": "contract IDITOToken",
          "name": "",
          "type": "address"
        }
      ],
      "stateMutability": "view",
      "type": "function"
    },
    {
      "inputs": [
        {
          "internalType": "address",
          "name": "",
          "type": "address"
        }
      ],
      "name": "totalFunded",
      "outputs": [
        {
          "internalType": "uint256",
          "name": "",
          "type": "uint256"
        }
      ],
      "stateMutability": "view",
      "type": "function"
    },
    {
      "inputs": [],
      "name": "totalGigsCompleted",
      "outputs": [
        {
          "internalType": "uint256",
          "name": "",
          "type": "uint256"
        }
      ],
      "stateMutability": "view",
      "type": "function"
    },
    {
      "inputs": [],
      "name": "totalTokensReceived",
      "outputs": [
        {
          "internalType": "uint256",
          "name": "",
          "type": "uint256"
        }
      ],
      "stateMutability": "view",
      "type": "function"
    },
    {
      "inputs": [
        {
          "internalType": "address",
          "name": "newOwner",
          "type": "address"
        }
      ],
      "name": "transferOwnership",
      "outputs": [],
      "stateMutability": "nonpayable",
      "type": "function"
    },
    {
      "inputs": [
        {
          "internalType": "address",
          "name": "_currency",
          "type": "address"
        },
        {
          "internalType": "uint256",
          "name": "_amount",
          "type": "uint256"
        }
      ],
      "name": "withdrawFunding",
      "outputs": [],
      "stateMutability": "nonpayable",
      "type": "function"
    }
  ],
  "bytecode": "0x60806040523480156200001157600080fd5b50604051620035d0380380620035d0833981810160405281019062000037919062000335565b600062000049620002ff60201b60201c565b9050806000806101000a81548173ffffffffffffffffffffffffffffffffffffffff021916908373ffffffffffffffffffffffffffffffffffffffff1602179055508073ffffffffffffffffffffffffffffffffffffffff16600073ffffffffffffffffffffffffffffffffffffffff167f8be0079c531659141344cd1fd0a4f28419497f9722a3daafe3b4186f6b6457e060405160405180910390a350620000f7620002ff60201b60201c565b600460026101000a81548173ffffffffffffffffffffffffffffffffffffffff021916908373ffffffffffffffffffffffffffffffffffffffff1602179055506000600460006101000a81548160ff02191690831515021790555085600460016101000a81548160ff021916908360028111156200017157fe5b021790555084600660006101000a81548173ffffffffffffffffffffffffffffffffffffffff021916908373ffffffffffffffffffffffffffffffffffffffff16021790555083600560006101000a81548173ffffffffffffffffffffffffffffffffffffffff021916908373ffffffffffffffffffffffffffffffffffffffff16021790555080600160006101000a81548173ffffffffffffffffffffffffffffffffffffffff021916908373ffffffffffffffffffffffffffffffffffffffff1602179055508260026040516200024a906200044f565b908152602001604051809103902060006101000a81548173ffffffffffffffffffffffffffffffffffffffff021916908373ffffffffffffffffffffffffffffffffffffffff160217905550816002604051620002a79062000466565b908152602001604051809103902060006101000a81548173ffffffffffffffffffffffffffffffffffffffff021916908373ffffffffffffffffffffffffffffffffffffffff160217905550505050505050620004e7565b600033905090565b6000815190506200031881620004bc565b92915050565b6000815190506200032f81620004d6565b92915050565b60008060008060008060c087890312156200034f57600080fd5b60006200035f89828a016200031e565b96505060206200037289828a0162000307565b95505060406200038589828a0162000307565b94505060606200039889828a0162000307565b9350506080620003ab89828a0162000307565b92505060a0620003be89828a0162000307565b9150509295509295509295565b6000620003da6003836200047d565b91507f44414900000000000000000000000000000000000000000000000000000000006000830152600382019050919050565b60006200041c6004836200047d565b91507f55534443000000000000000000000000000000000000000000000000000000006000830152600482019050919050565b60006200045c82620003cb565b9150819050919050565b600062000473826200040d565b9150819050919050565b600081905092915050565b600062000495826200049c565b9050919050565b600073ffffffffffffffffffffffffffffffffffffffff82169050919050565b620004c78162000488565b8114620004d357600080fd5b50565b60038110620004e457600080fd5b50565b6130d980620004f76000396000f3fe608060405234801561001057600080fd5b50600436106101ef5760003560e01c80638da5cb5b1161010f578063d0e0ba95116100a2578063e9999b0311610071578063e9999b031461054a578063ef37113314610568578063f2fde38b14610586578063fc0c546a146105a2576101ef565b8063d0e0ba95146104d6578063d33219b4146104f2578063dc1fb5a514610510578063e377672e1461052e576101ef565b8063af640d0f116100de578063af640d0f14610450578063bc1c2c291461046e578063bdc5a9561461049e578063c7901378146104ba576101ef565b80638da5cb5b146103ca5780639963ae8c146103e85780639c28b19914610404578063a46eddcf14610434576101ef565b80634162169f116101875780636f2ddd93116101565780636f2ddd9314610366578063715018a614610384578063715863831461038e578063785ffb37146103ac576101ef565b80634162169f1461030457806346e61c651461032257806346f98fec1461035257806363a5d2981461035c576101ef565b8063247e9e86116101c3578063247e9e86146102685780632bdef29b146102985780633705abf1146102b657806339327e9e146102e6576101ef565b8062f418f4146101f457806303eeedfb146101fe578063107046bd1461021c57806315da0b021461024c575b600080fd5b6101fc6105c0565b005b610206610653565b6040516102139190612d7d565b60405180910390f35b610236600480360381019061023191906126a3565b610659565b6040516102439190612abd565b60405180910390f35b6102666004803603810190610261919061251b565b610698565b005b610282600480360381019061027d919061256d565b61091d565b60405161028f9190612d7d565b60405180910390f35b6102a06109a4565b6040516102ad9190612b8b565b60405180910390f35b6102d060048036038101906102cb919061260e565b6109b7565b6040516102dd9190612abd565b60405180910390f35b6102ee610a00565b6040516102fb9190612bc1565b60405180910390f35b61030c610a26565b6040516103199190612bdc565b60405180910390f35b61033c6004803603810190610337919061251b565b610a4c565b6040516103499190612d7d565b60405180910390f35b61035a610a64565b005b610364610b58565b005b61036e610ccf565b60405161037b9190612c12565b60405180910390f35b61038c610ce2565b005b610396610e68565b6040516103a39190612d7d565b60405180910390f35b6103b4610e6e565b6040516103c19190612d7d565b60405180910390f35b6103d2610e74565b6040516103df9190612abd565b60405180910390f35b61040260048036038101906103fd919061264f565b610e9d565b005b61041e6004803603810190610419919061256d565b6111f9565b60405161042b9190612d7d565b60405180910390f35b61044e6004803603810190610449919061251b565b61121e565b005b6104586113b1565b6040516104659190612d7d565b60405180910390f35b6104886004803603810190610483919061251b565b6113b7565b6040516104959190612d7d565b60405180910390f35b6104b860048036038101906104b3919061264f565b6113cf565b005b6104d460048036038101906104cf91906125a9565b611604565b005b6104f060048036038101906104eb91906126a3565b611608565b005b6104fa611865565b6040516105079190612bf7565b60405180910390f35b61051861188b565b6040516105259190612abd565b60405180910390f35b610548600480360381019061054391906126f5565b6118b1565b005b610552611e6f565b60405161055f9190612d7d565b60405180910390f35b610570611e75565b60405161057d9190612d7d565b60405180910390f35b6105a0600480360381019061059b919061251b565b611f27565b005b6105aa612132565b6040516105b79190612ba6565b60405180910390f35b600b60149054906101000a900460ff1615610610576040517f08c379a000000000000000000000000000000000000000000000000000000000815260040161060790612c9d565b60405180910390fd5b33600b60006101000a81548173ffffffffffffffffffffffffffffffffffffffff021916908373ffffffffffffffffffffffffffffffffffffffff160217905550565b60075481565b6009818154811061066957600080fd5b906000526020600020016000915054906101000a900473ffffffffffffffffffffffffffffffffffffffff1681565b6106a0612158565b73ffffffffffffffffffffffffffffffffffffffff1660008054906101000a900473ffffffffffffffffffffffffffffffffffffffff1673ffffffffffffffffffffffffffffffffffffffff1614610760576040517f08c379a00000000000000000000000000000000000000000000000000000000081526004018080602001828103825260208152602001807f4f776e61626c653a2063616c6c6572206973206e6f7420746865206f776e657281525060200191505060405180910390fd5b600460009054906101000a900460ff16156107b0576040517f08c379a00000000000000000000000000000000000000000000000000000000081526004016107a790612d3d565b60405180910390fd5b80600460026101000a81548173ffffffffffffffffffffffffffffffffffffffff021916908373ffffffffffffffffffffffffffffffffffffffff160217905550600660009054906101000a900473ffffffffffffffffffffffffffffffffffffffff1673ffffffffffffffffffffffffffffffffffffffff1663095ea7b3600460029054906101000a900473ffffffffffffffffffffffffffffffffffffffff167fffffffffffffffffffffffffffffffffffffffffffffffffffffffffffffffff6040518363ffffffff1660e01b8152600401610890929190612b0f565b602060405180830381600087803b1580156108aa57600080fd5b505af11580156108be573d6000803e3d6000fd5b505050506040513d601f19601f820116820180604052508101906108e291906125e5565b507fb954b00fb708b65e61e5af666f5ce5050a9a566a4c6cc31e34fb24d03459106f816040516109129190612abd565b60405180910390a150565b6000600c60008473ffffffffffffffffffffffffffffffffffffffff1673ffffffffffffffffffffffffffffffffffffffff16815260200190815260200160002060008373ffffffffffffffffffffffffffffffffffffffff1673ffffffffffffffffffffffffffffffffffffffff16815260200190815260200160002054905092915050565b600b60149054906101000a900460ff1681565b6002818051602081018201805184825260208301602085012081835280955050505050506000915054906101000a900473ffffffffffffffffffffffffffffffffffffffff1681565b600160009054906101000a900473ffffffffffffffffffffffffffffffffffffffff1681565b600560009054906101000a900473ffffffffffffffffffffffffffffffffffffffff1681565b600a6020528060005260406000206000915090505481565b600660009054906101000a900473ffffffffffffffffffffffffffffffffffffffff1673ffffffffffffffffffffffffffffffffffffffff1663095ea7b3600460029054906101000a900473ffffffffffffffffffffffffffffffffffffffff167fffffffffffffffffffffffffffffffffffffffffffffffffffffffffffffffff6040518363ffffffff1660e01b8152600401610b03929190612b0f565b602060405180830381600087803b158015610b1d57600080fd5b505af1158015610b31573d6000803e3d6000fd5b505050506040513d601f19601f82011682018060405250810190610b5591906125e5565b50565b610b60612158565b73ffffffffffffffffffffffffffffffffffffffff1660008054906101000a900473ffffffffffffffffffffffffffffffffffffffff1673ffffffffffffffffffffffffffffffffffffffff1614610c20576040517f08c379a00000000000000000000000000000000000000000000000000000000081526004018080602001828103825260208152602001807f4f776e61626c653a2063616c6c6572206973206e6f7420746865206f776e657281525060200191505060405180910390fd5b600073ffffffffffffffffffffffffffffffffffffffff16600b60009054906101000a900473ffffffffffffffffffffffffffffffffffffffff1673ffffffffffffffffffffffffffffffffffffffff161415610cb2576040517f08c379a0000000000000000000000000000000000000000000000000000000008152600401610ca990612d5d565b60405180910390fd5b6001600b60146101000a81548160ff021916908315150217905550565b600460019054906101000a900460ff1681565b610cea612158565b73ffffffffffffffffffffffffffffffffffffffff1660008054906101000a900473ffffffffffffffffffffffffffffffffffffffff1673ffffffffffffffffffffffffffffffffffffffff1614610daa576040517f08c379a00000000000000000000000000000000000000000000000000000000081526004018080602001828103825260208152602001807f4f776e61626c653a2063616c6c6572206973206e6f7420746865206f776e657281525060200191505060405180910390fd5b600073ffffffffffffffffffffffffffffffffffffffff1660008054906101000a900473ffffffffffffffffffffffffffffffffffffffff1673ffffffffffffffffffffffffffffffffffffffff167f8be0079c531659141344cd1fd0a4f28419497f9722a3daafe3b4186f6b6457e060405160405180910390a360008060006101000a81548173ffffffffffffffffffffffffffffffffffffffff021916908373ffffffffffffffffffffffffffffffffffffffff160217905550565b60085481565b610f0081565b60008060009054906101000a900473ffffffffffffffffffffffffffffffffffffffff16905090565b600b60149054906101000a900460ff16610eec576040517f08c379a0000000000000000000000000000000000000000000000000000000008152600401610ee390612c7d565b60405180910390fd5b6000600283604051610efe9190612aa6565b908152602001604051809103902060009054906101000a900473ffffffffffffffffffffffffffffffffffffffff169050600073ffffffffffffffffffffffffffffffffffffffff168173ffffffffffffffffffffffffffffffffffffffff161415610f9f576040517f08c379a0000000000000000000000000000000000000000000000000000000008152600401610f9690612cfd565b60405180910390fd5b6000610fbc670de0b6b3a76400008461216090919063ffffffff16565b9050600b60009054906101000a900473ffffffffffffffffffffffffffffffffffffffff1673ffffffffffffffffffffffffffffffffffffffff16638340f5493384846040518463ffffffff1660e01b815260040161101d93929190612ad8565b600060405180830381600087803b15801561103757600080fd5b505af115801561104b573d6000803e3d6000fd5b505050506110de81600c60003373ffffffffffffffffffffffffffffffffffffffff1673ffffffffffffffffffffffffffffffffffffffff16815260200190815260200160002060008573ffffffffffffffffffffffffffffffffffffffff1673ffffffffffffffffffffffffffffffffffffffff168152602001908152602001600020546121e690919063ffffffff16565b600c60003373ffffffffffffffffffffffffffffffffffffffff1673ffffffffffffffffffffffffffffffffffffffff16815260200190815260200160002060008473ffffffffffffffffffffffffffffffffffffffff1673ffffffffffffffffffffffffffffffffffffffff168152602001908152602001600020819055506111b081600d60008573ffffffffffffffffffffffffffffffffffffffff1673ffffffffffffffffffffffffffffffffffffffff168152602001908152602001600020546121e690919063ffffffff16565b600d60008473ffffffffffffffffffffffffffffffffffffffff1673ffffffffffffffffffffffffffffffffffffffff1681526020019081526020016000208190555050505050565b600c602052816000526040600020602052806000526040600020600091509150505481565b611226612158565b73ffffffffffffffffffffffffffffffffffffffff1660008054906101000a900473ffffffffffffffffffffffffffffffffffffffff1673ffffffffffffffffffffffffffffffffffffffff16146112e6576040517f08c379a00000000000000000000000000000000000000000000000000000000081526004018080602001828103825260208152602001807f4f776e61626c653a2063616c6c6572206973206e6f7420746865206f776e657281525060200191505060405180910390fd5b600460009054906101000a900460ff1615611336576040517f08c379a000000000000000000000000000000000000000000000000000000000815260040161132d90612d3d565b60405180910390fd5b80600560006101000a81548173ffffffffffffffffffffffffffffffffffffffff021916908373ffffffffffffffffffffffffffffffffffffffff1602179055507f181dccb510f27d9c2608cbef86fad60ab59d126bc8782ea2f21763607ec41739816040516113a69190612abd565b60405180910390a150565b60035481565b600d6020528060005260406000206000915090505481565b6000600160009054906101000a900473ffffffffffffffffffffffffffffffffffffffff1673ffffffffffffffffffffffffffffffffffffffff16630261bf8b6040518163ffffffff1660e01b815260040160206040518083038186803b15801561143957600080fd5b505afa15801561144d573d6000803e3d6000fd5b505050506040513d601f19601f820116820180604052508101906114719190612544565b905060006002846040516114859190612aa6565b908152602001604051809103902060009054906101000a900473ffffffffffffffffffffffffffffffffffffffff169050600073ffffffffffffffffffffffffffffffffffffffff168173ffffffffffffffffffffffffffffffffffffffff161415611526576040517f08c379a000000000000000000000000000000000000000000000000000000000815260040161151d90612cfd565b60405180910390fd5b8173ffffffffffffffffffffffffffffffffffffffff1663a415bcad828560016000600560009054906101000a900473ffffffffffffffffffffffffffffffffffffffff166040518663ffffffff1660e01b815260040161158b959493929190612b38565b600060405180830381600087803b1580156115a557600080fd5b505af11580156115b9573d6000803e3d6000fd5b505050506115c561226e565b7ffc30ec1bee3b4fb527f0d90b4bbbf5a24b72f0964679ff277df1895e8ad2395784846040516115f6929190612c2d565b60405180910390a150505050565b5050565b600560009054906101000a900473ffffffffffffffffffffffffffffffffffffffff1673ffffffffffffffffffffffffffffffffffffffff163373ffffffffffffffffffffffffffffffffffffffff1614611698576040517f08c379a000000000000000000000000000000000000000000000000000000000815260040161168f90612d1d565b60405180910390fd5b600460009054906101000a900460ff16156116e8576040517f08c379a00000000000000000000000000000000000000000000000000000000081526004016116df90612d3d565b60405180910390fd5b600073ffffffffffffffffffffffffffffffffffffffff16600460029054906101000a900473ffffffffffffffffffffffffffffffffffffffff1673ffffffffffffffffffffffffffffffffffffffff16141561177a576040517f08c379a000000000000000000000000000000000000000000000000000000000815260040161177190612cbd565b60405180910390fd5b806003819055506001600460006101000a81548160ff0219169083151502179055507fc72e55068a99063a2c847c0b87d2808f29d1935171e54ffa3a479533b4046b74816040516117cb9190612d7d565b60405180910390a1600460029054906101000a900473ffffffffffffffffffffffffffffffffffffffff1673ffffffffffffffffffffffffffffffffffffffff1663d0e0ba956003546040518263ffffffff1660e01b81526004016118309190612d7d565b600060405180830381600087803b15801561184a57600080fd5b505af115801561185e573d6000803e3d6000fd5b5050505050565b600b60009054906101000a900473ffffffffffffffffffffffffffffffffffffffff1681565b600460029054906101000a900473ffffffffffffffffffffffffffffffffffffffff1681565b600460029054906101000a900473ffffffffffffffffffffffffffffffffffffffff1673ffffffffffffffffffffffffffffffffffffffff166118f2612158565b73ffffffffffffffffffffffffffffffffffffffff1614611948576040517f08c379a000000000000000000000000000000000000000000000000000000000815260040161193f90612c5d565b60405180910390fd5b600073ffffffffffffffffffffffffffffffffffffffff168173ffffffffffffffffffffffffffffffffffffffff1614156119b8576040517f08c379a00000000000000000000000000000000000000000000000000000000081526004016119af90612cdd565b60405180910390fd5b600660009054906101000a900473ffffffffffffffffffffffffffffffffffffffff1673ffffffffffffffffffffffffffffffffffffffff166323b872dd6119fe612158565b30611a1a670de0b6b3a76400008761216090919063ffffffff16565b6040518463ffffffff1660e01b8152600401611a3893929190612ad8565b602060405180830381600087803b158015611a5257600080fd5b505af1158015611a66573d6000803e3d6000fd5b505050506040513d601f19601f82011682018060405250810190611a8a91906125e5565b506000600660009054906101000a900473ffffffffffffffffffffffffffffffffffffffff1673ffffffffffffffffffffffffffffffffffffffff166370a08231306040518263ffffffff1660e01b8152600401611ae89190612abd565b60206040518083038186803b158015611b0057600080fd5b505afa158015611b14573d6000803e3d6000fd5b505050506040513d601f19601f82011682018060405250810190611b3891906126cc565b9050611b8c83600a60008573ffffffffffffffffffffffffffffffffffffffff1673ffffffffffffffffffffffffffffffffffffffff168152602001908152602001600020546121e690919063ffffffff16565b600a60008473ffffffffffffffffffffffffffffffffffffffff1673ffffffffffffffffffffffffffffffffffffffff16815260200190815260200160002081905550611be560016007546121e690919063ffffffff16565b50611bfb836008546121e690919063ffffffff16565b50611c19670de0b6b3a7640000610f0061216090919063ffffffff16565b8110611e30576000611c50611c41670de0b6b3a76400006107d061216090919063ffffffff16565b8361231690919063ffffffff16565b9050600560009054906101000a900473ffffffffffffffffffffffffffffffffffffffff1673ffffffffffffffffffffffffffffffffffffffff166305f9c5976003546040518263ffffffff1660e01b8152600401611caf9190612d7d565b600060405180830381600087803b158015611cc957600080fd5b505af1158015611cdd573d6000803e3d6000fd5b505050507f78cd33486287c682aa18f13badc425b37df2158a72b64ecfe2fa765f62c934308484604051611d12929190612d98565b60405180910390a17facd3dbb848fad50d312987d285e88fdc140a8385c5c568117c79d1437d8be32e611d43611e75565b604051611d509190612d7d565b60405180910390a1600660009054906101000a900473ffffffffffffffffffffffffffffffffffffffff1673ffffffffffffffffffffffffffffffffffffffff1663a9059cbb600460029054906101000a900473ffffffffffffffffffffffffffffffffffffffff16836040518363ffffffff1660e01b8152600401611dd7929190612b0f565b602060405180830381600087803b158015611df157600080fd5b505af1158015611e05573d6000803e3d6000fd5b505050506040513d601f19601f82011682018060405250810190611e2991906125e5565b5050611e6a565b7f78cd33486287c682aa18f13badc425b37df2158a72b64ecfe2fa765f62c934308383604051611e61929190612d98565b60405180910390a15b505050565b6107d081565b6000600660009054906101000a900473ffffffffffffffffffffffffffffffffffffffff1673ffffffffffffffffffffffffffffffffffffffff166370a08231306040518263ffffffff1660e01b8152600401611ed29190612abd565b60206040518083038186803b158015611eea57600080fd5b505afa158015611efe573d6000803e3d6000fd5b505050506040513d601f19601f82011682018060405250810190611f2291906126cc565b905090565b611f2f612158565b73ffffffffffffffffffffffffffffffffffffffff1660008054906101000a900473ffffffffffffffffffffffffffffffffffffffff1673ffffffffffffffffffffffffffffffffffffffff1614611fef576040517f08c379a00000000000000000000000000000000000000000000000000000000081526004018080602001828103825260208152602001807f4f776e61626c653a2063616c6c6572206973206e6f7420746865206f776e657281525060200191505060405180910390fd5b600073ffffffffffffffffffffffffffffffffffffffff168173ffffffffffffffffffffffffffffffffffffffff161415612075576040517f08c379a000000000000000000000000000000000000000000000000000000000815260040180806020018281038252602681526020018061305d6026913960400191505060405180910390fd5b8073ffffffffffffffffffffffffffffffffffffffff1660008054906101000a900473ffffffffffffffffffffffffffffffffffffffff1673ffffffffffffffffffffffffffffffffffffffff167f8be0079c531659141344cd1fd0a4f28419497f9722a3daafe3b4186f6b6457e060405160405180910390a3806000806101000a81548173ffffffffffffffffffffffffffffffffffffffff021916908373ffffffffffffffffffffffffffffffffffffffff16021790555050565b600660009054906101000a900473ffffffffffffffffffffffffffffffffffffffff1681565b600033905090565b60008083141561217357600090506121e0565b600082840290508284828161218457fe5b04146121db576040517f08c379a00000000000000000000000000000000000000000000000000000000081526004018080602001828103825260218152602001806130836021913960400191505060405180910390fd5b809150505b92915050565b600080828401905083811015612264576040517f08c379a000000000000000000000000000000000000000000000000000000000815260040180806020018281038252601b8152602001807f536166654d6174683a206164646974696f6e206f766572666c6f77000000000081525060200191505060405180910390fd5b8091505092915050565b60005b60098054905081101561230557600a60006009838154811061228f57fe5b9060005260206000200160009054906101000a900473ffffffffffffffffffffffffffffffffffffffff1673ffffffffffffffffffffffffffffffffffffffff1673ffffffffffffffffffffffffffffffffffffffff168152602001908152602001600020600090558080600101915050612271565b50600960006123149190612420565b565b600061235883836040518060400160405280601e81526020017f536166654d6174683a207375627472616374696f6e206f766572666c6f770000815250612360565b905092915050565b600083831115829061240d576040517f08c379a00000000000000000000000000000000000000000000000000000000081526004018080602001828103825283818151815260200191508051906020019080838360005b838110156123d25780820151818401526020810190506123b7565b50505050905090810190601f1680156123ff5780820380516001836020036101000a031916815260200191505b509250505060405180910390fd5b5060008385039050809150509392505050565b508054600082559060005260206000209081019061243e9190612441565b50565b5b8082111561245a576000816000905550600101612442565b5090565b60008135905061246d81613017565b92915050565b60008151905061248281613017565b92915050565b6000815190506124978161302e565b92915050565b600082601f8301126124ae57600080fd5b81356124c16124bc82612df2565b612dc1565b915080825260208301602083018583830111156124dd57600080fd5b6124e8838284612fae565b50505092915050565b60008135905061250081613045565b92915050565b60008151905061251581613045565b92915050565b60006020828403121561252d57600080fd5b600061253b8482850161245e565b91505092915050565b60006020828403121561255657600080fd5b600061256484828501612473565b91505092915050565b6000806040838503121561258057600080fd5b600061258e8582860161245e565b925050602061259f8582860161245e565b9150509250929050565b600080604083850312156125bc57600080fd5b60006125ca8582860161245e565b92505060206125db858286016124f1565b9150509250929050565b6000602082840312156125f757600080fd5b600061260584828501612488565b91505092915050565b60006020828403121561262057600080fd5b600082013567ffffffffffffffff81111561263a57600080fd5b6126468482850161249d565b91505092915050565b6000806040838503121561266257600080fd5b600083013567ffffffffffffffff81111561267c57600080fd5b6126888582860161249d565b9250506020612699858286016124f1565b9150509250929050565b6000602082840312156126b557600080fd5b60006126c3848285016124f1565b91505092915050565b6000602082840312156126de57600080fd5b60006126ec84828501612506565b91505092915050565b6000806040838503121561270857600080fd5b6000612716858286016124f1565b92505060206127278582860161245e565b9150509250929050565b61273a81612eb2565b82525050565b61274981612e49565b82525050565b61275881612e5b565b82525050565b61276781612ec4565b82525050565b61277681612ee8565b82525050565b61278581612f0c565b82525050565b61279481612f30565b82525050565b6127a381612f54565b82525050565b6127b281612f66565b82525050565b6127c181612f78565b82525050565b60006127d282612e22565b6127dc8185612e2d565b93506127ec818560208601612fbd565b6127f581612ff2565b840191505092915050565b600061280b82612e22565b6128158185612e3e565b9350612825818560208601612fbd565b80840191505092915050565b600061283e602683612e2d565b91507f4769672063616e206f6e6c7920626520636f6d706c6574656420627920636f6d60008301527f6d756e69747900000000000000000000000000000000000000000000000000006020830152604082019050919050565b60006128a4601383612e2d565b91507f74696d656c6f636b206e6f7420616374697665000000000000000000000000006000830152602082019050919050565b60006128e4600e83612e2d565b91507f616c7265616479206163746976650000000000000000000000000000000000006000830152602082019050919050565b6000612924601483612e2d565b91507f636f6d6d756e697479206973206e6f74207365740000000000000000000000006000830152602082019050919050565b6000612964601883612e2d565b91507f6e6f2070726f6a65637420666f72206d696c6573746f6e6500000000000000006000830152602082019050919050565b60006129a4601683612e2d565b91507f63757272656e6379206e6f7420737570706f72746564000000000000000000006000830152602082019050919050565b60006129e4601c83612e2d565b91507f6f6e6c792074726561737572792064616f2063616e20736574206964000000006000830152602082019050919050565b6000612a24601a83612e2d565b91507f747265617375727920697320616c7265616479206c696e6b65640000000000006000830152602082019050919050565b6000612a64600783612e2d565b91507f6e6f7420736574000000000000000000000000000000000000000000000000006000830152602082019050919050565b612aa081612ea8565b82525050565b6000612ab28284612800565b915081905092915050565b6000602082019050612ad26000830184612740565b92915050565b6000606082019050612aed6000830186612731565b612afa6020830185612740565b612b076040830184612a97565b949350505050565b6000604082019050612b246000830185612740565b612b316020830184612a97565b9392505050565b600060a082019050612b4d6000830188612740565b612b5a6020830187612a97565b612b6760408301866127b8565b612b7460608301856127a9565b612b816080830184612740565b9695505050505050565b6000602082019050612ba0600083018461274f565b92915050565b6000602082019050612bbb600083018461275e565b92915050565b6000602082019050612bd6600083018461276d565b92915050565b6000602082019050612bf1600083018461277c565b92915050565b6000602082019050612c0c600083018461278b565b92915050565b6000602082019050612c27600083018461279a565b92915050565b60006040820190508181036000830152612c4781856127c7565b9050612c566020830184612a97565b9392505050565b60006020820190508181036000830152612c7681612831565b9050919050565b60006020820190508181036000830152612c9681612897565b9050919050565b60006020820190508181036000830152612cb6816128d7565b9050919050565b60006020820190508181036000830152612cd681612917565b9050919050565b60006020820190508181036000830152612cf681612957565b9050919050565b60006020820190508181036000830152612d1681612997565b9050919050565b60006020820190508181036000830152612d36816129d7565b9050919050565b60006020820190508181036000830152612d5681612a17565b9050919050565b60006020820190508181036000830152612d7681612a57565b9050919050565b6000602082019050612d926000830184612a97565b92915050565b6000604082019050612dad6000830185612a97565b612dba6020830184612740565b9392505050565b6000604051905081810181811067ffffffffffffffff82111715612de857612de7612ff0565b5b8060405250919050565b600067ffffffffffffffff821115612e0d57612e0c612ff0565b5b601f19601f8301169050602081019050919050565b600081519050919050565b600082825260208201905092915050565b600081905092915050565b6000612e5482612e88565b9050919050565b60008115159050919050565b6000819050612e7582613003565b919050565b600061ffff82169050919050565b600073ffffffffffffffffffffffffffffffffffffffff82169050919050565b6000819050919050565b6000612ebd82612f8a565b9050919050565b6000612ecf82612ed6565b9050919050565b6000612ee182612e88565b9050919050565b6000612ef382612efa565b9050919050565b6000612f0582612e88565b9050919050565b6000612f1782612f1e565b9050919050565b6000612f2982612e88565b9050919050565b6000612f3b82612f42565b9050919050565b6000612f4d82612e88565b9050919050565b6000612f5f82612e67565b9050919050565b6000612f7182612e7a565b9050919050565b6000612f8382612ea8565b9050919050565b6000612f9582612f9c565b9050919050565b6000612fa782612e88565b9050919050565b82818337600083830152505050565b60005b83811015612fdb578082015181840152602081019050612fc0565b83811115612fea576000848401525b50505050565bfe5b6000601f19601f8301169050919050565b6003811061301457613013612ff0565b5b50565b61302081612e49565b811461302b57600080fd5b50565b61303781612e5b565b811461304257600080fd5b50565b61304e81612ea8565b811461305957600080fd5b5056fe4f776e61626c653a206e6577206f776e657220697320746865207a65726f2061646472657373536166654d6174683a206d756c7469706c69636174696f6e206f766572666c6f77a2646970667358221220113f85063182b46220f28fa2bfa9a3b1e2105d03741b522336a5d788f9ae599e64736f6c63430007040033",
  "linkReferences": {},
  "deployedLinkReferences": {}
}