{
  "_format": "hh-sol-artifact-1",
  "contractName": "CommunityTreasury",
  "sourceName": "contracts/CommunityTreasury.sol",
  "abi": [
    {
      "inputs": [
        {
          "internalType": "enum DataTypes.CommunityTemplate",
          "name": "_template",
          "type": "uint8"
        },
        {
          "internalType": "address",
          "name": "_token",
          "type": "address"
        },
        {
          "internalType": "address",
          "name": "_dao",
          "type": "address"
        },
        {
          "internalType": "address",
          "name": "_dai",
          "type": "address"
        },
        {
          "internalType": "address",
          "name": "_usdc",
          "type": "address"
        },
        {
          "internalType": "address",
          "name": "_lendingPoolAP",
          "type": "address"
        }
      ],
      "stateMutability": "nonpayable",
      "type": "constructor"
    },
    {
      "anonymous": false,
      "inputs": [
        {
          "indexed": false,
          "internalType": "string",
          "name": "_currency",
          "type": "string"
        },
        {
          "indexed": false,
          "internalType": "uint256",
          "name": "_amount",
          "type": "uint256"
        }
      ],
      "name": "Borrowed",
      "type": "event"
    },
    {
      "anonymous": false,
      "inputs": [
        {
          "indexed": false,
          "internalType": "address",
          "name": "_community",
          "type": "address"
        }
      ],
      "name": "CommunitySet",
      "type": "event"
    },
    {
      "anonymous": false,
      "inputs": [
        {
          "indexed": false,
          "internalType": "address",
          "name": "_funder",
          "type": "address"
        },
        {
          "indexed": false,
          "internalType": "address",
          "name": "_currency",
          "type": "address"
        },
        {
          "indexed": false,
          "internalType": "uint256",
          "name": "_amount",
          "type": "uint256"
        }
      ],
      "name": "Funded",
      "type": "event"
    },
    {
      "anonymous": false,
      "inputs": [
        {
          "indexed": false,
          "internalType": "uint256",
          "name": "_id",
          "type": "uint256"
        }
      ],
      "name": "IdSet",
      "type": "event"
    },
    {
      "anonymous": false,
      "inputs": [
        {
          "indexed": false,
          "internalType": "uint256",
          "name": "_amount",
          "type": "uint256"
        },
        {
          "indexed": false,
          "internalType": "address",
          "name": "_project",
          "type": "address"
        }
      ],
      "name": "MilesoteComplete",
      "type": "event"
    },
    {
      "anonymous": false,
      "inputs": [
        {
          "indexed": true,
          "internalType": "address",
          "name": "previousOwner",
          "type": "address"
        },
        {
          "indexed": true,
          "internalType": "address",
          "name": "newOwner",
          "type": "address"
        }
      ],
      "name": "OwnershipTransferred",
      "type": "event"
    },
    {
      "anonymous": false,
      "inputs": [
        {
          "indexed": false,
          "internalType": "uint256",
          "name": "_amount",
          "type": "uint256"
        }
      ],
      "name": "ThersholdReached",
      "type": "event"
    },
    {
      "anonymous": false,
      "inputs": [
        {
          "indexed": false,
          "internalType": "address",
          "name": "_dao",
          "type": "address"
        }
      ],
      "name": "TreasuryDaoSet",
      "type": "event"
    },
    {
      "inputs": [],
      "name": "MINAMOUNT",
      "outputs": [
        {
          "internalType": "uint256",
          "name": "",
          "type": "uint256"
        }
      ],
      "stateMutability": "view",
      "type": "function"
    },
    {
      "inputs": [],
      "name": "THRESHOLD",
      "outputs": [
        {
          "internalType": "uint256",
          "name": "",
          "type": "uint256"
        }
      ],
      "stateMutability": "view",
      "type": "function"
    },
    {
      "inputs": [],
      "name": "activateTimelock",
      "outputs": [],
      "stateMutability": "nonpayable",
      "type": "function"
    },
    {
      "inputs": [],
      "name": "addTimelock",
      "outputs": [],
      "stateMutability": "nonpayable",
      "type": "function"
    },
    {
      "inputs": [],
      "name": "approveCommunity",
      "outputs": [],
      "stateMutability": "nonpayable",
      "type": "function"
    },
    {
      "inputs": [
        {
          "internalType": "string",
          "name": "_currency",
          "type": "string"
        },
        {
          "internalType": "uint256",
          "name": "_amount",
          "type": "uint256"
        }
      ],
      "name": "borrowDelegated",
      "outputs": [],
      "stateMutability": "nonpayable",
      "type": "function"
    },
    {
      "inputs": [],
      "name": "community",
      "outputs": [
        {
          "internalType": "address",
          "name": "",
          "type": "address"
        }
      ],
      "stateMutability": "view",
      "type": "function"
    },
    {
      "inputs": [
        {
          "internalType": "uint256",
          "name": "_amount",
          "type": "uint256"
        },
        {
          "internalType": "address",
          "name": "_project",
          "type": "address"
        }
      ],
      "name": "completeMilestone",
      "outputs": [],
      "stateMutability": "nonpayable",
      "type": "function"
    },
    {
      "inputs": [],
      "name": "dao",
      "outputs": [
        {
          "internalType": "contract ITreasuryDao",
          "name": "",
          "type": "address"
        }
      ],
      "stateMutability": "view",
      "type": "function"
    },
    {
      "inputs": [
        {
          "internalType": "string",
          "name": "",
          "type": "string"
        }
      ],
      "name": "depositableCurrenciesContracts",
      "outputs": [
        {
          "internalType": "address",
          "name": "",
          "type": "address"
        }
      ],
      "stateMutability": "view",
      "type": "function"
    },
    {
      "inputs": [
        {
          "internalType": "string",
          "name": "_currency",
          "type": "string"
        },
        {
          "internalType": "uint256",
          "name": "_amount",
          "type": "uint256"
        }
      ],
      "name": "fund",
      "outputs": [],
      "stateMutability": "nonpayable",
      "type": "function"
    },
    {
      "inputs": [
        {
          "internalType": "address",
          "name": "",
          "type": "address"
        },
        {
          "internalType": "address",
          "name": "",
          "type": "address"
        }
      ],
      "name": "funds",
      "outputs": [
        {
          "internalType": "uint256",
          "name": "",
          "type": "uint256"
        }
      ],
      "stateMutability": "view",
      "type": "function"
    },
    {
      "inputs": [],
      "name": "getAllContributions",
      "outputs": [
        {
          "internalType": "uint256[]",
          "name": "",
          "type": "uint256[]"
        }
      ],
      "stateMutability": "view",
      "type": "function"
    },
    {
      "inputs": [],
      "name": "getDitoBalance",
      "outputs": [
        {
          "internalType": "uint256",
          "name": "",
          "type": "uint256"
        }
      ],
      "stateMutability": "view",
      "type": "function"
    },
    {
      "inputs": [
        {
          "internalType": "address",
          "name": "_funder",
          "type": "address"
        },
        {
          "internalType": "address",
          "name": "_asset",
          "type": "address"
        }
      ],
      "name": "getFunds",
      "outputs": [
        {
          "internalType": "uint256",
          "name": "",
          "type": "uint256"
        }
      ],
      "stateMutability": "view",
      "type": "function"
    },
    {
      "inputs": [
        {
          "internalType": "address",
          "name": "_project",
          "type": "address"
        }
      ],
      "name": "getProjectContributions",
      "outputs": [
        {
          "internalType": "uint256[]",
          "name": "",
          "type": "uint256[]"
        }
      ],
      "stateMutability": "view",
      "type": "function"
    },
    {
      "inputs": [
        {
          "internalType": "uint256",
          "name": "_id",
          "type": "uint256"
        }
      ],
      "name": "getProjects",
      "outputs": [
        {
          "internalType": "address",
          "name": "",
          "type": "address"
        }
      ],
      "stateMutability": "view",
      "type": "function"
    },
    {
      "inputs": [],
      "name": "id",
      "outputs": [
        {
          "internalType": "uint256",
          "name": "",
          "type": "uint256"
        }
      ],
      "stateMutability": "view",
      "type": "function"
    },
    {
      "inputs": [],
      "name": "lendingPoolAP",
      "outputs": [
        {
          "internalType": "contract ILendingPoolAddressesProvider",
          "name": "",
          "type": "address"
        }
      ],
      "stateMutability": "view",
      "type": "function"
    },
    {
      "inputs": [],
      "name": "owner",
      "outputs": [
        {
          "internalType": "address",
          "name": "",
          "type": "address"
        }
      ],
      "stateMutability": "view",
      "type": "function"
    },
    {
      "inputs": [
        {
          "internalType": "address",
          "name": "",
          "type": "address"
        },
        {
          "internalType": "uint256",
          "name": "",
          "type": "uint256"
        }
      ],
      "name": "projectContributions",
      "outputs": [
        {
          "internalType": "uint256",
          "name": "",
          "type": "uint256"
        }
      ],
      "stateMutability": "view",
      "type": "function"
    },
    {
      "inputs": [
        {
          "internalType": "uint256",
          "name": "",
          "type": "uint256"
        }
      ],
      "name": "projects",
      "outputs": [
        {
          "internalType": "address",
          "name": "",
          "type": "address"
        }
      ],
      "stateMutability": "view",
      "type": "function"
    },
    {
      "inputs": [],
      "name": "projectsNum",
      "outputs": [
        {
          "internalType": "uint256",
          "name": "",
          "type": "uint256"
        }
      ],
      "stateMutability": "view",
      "type": "function"
    },
    {
      "inputs": [],
      "name": "renounceOwnership",
      "outputs": [],
      "stateMutability": "nonpayable",
      "type": "function"
    },
    {
      "inputs": [
        {
          "internalType": "address",
          "name": "_community",
          "type": "address"
        }
      ],
      "name": "setCommunity",
      "outputs": [],
      "stateMutability": "nonpayable",
      "type": "function"
    },
    {
      "inputs": [
        {
          "internalType": "uint256",
          "name": "_id",
          "type": "uint256"
        }
      ],
      "name": "setId",
      "outputs": [],
      "stateMutability": "nonpayable",
      "type": "function"
    },
    {
      "inputs": [
        {
          "internalType": "address",
          "name": "_dao",
          "type": "address"
        }
      ],
      "name": "setTreasuryDAO",
      "outputs": [],
      "stateMutability": "nonpayable",
      "type": "function"
    },
    {
      "inputs": [],
      "name": "template",
      "outputs": [
        {
          "internalType": "enum DataTypes.CommunityTemplate",
          "name": "",
          "type": "uint8"
        }
      ],
      "stateMutability": "view",
      "type": "function"
    },
    {
      "inputs": [],
      "name": "timelock",
      "outputs": [
        {
          "internalType": "contract WithdrawTimelock",
          "name": "",
          "type": "address"
        }
      ],
      "stateMutability": "view",
      "type": "function"
    },
    {
      "inputs": [],
      "name": "timelockActive",
      "outputs": [
        {
          "internalType": "bool",
          "name": "",
          "type": "bool"
        }
      ],
      "stateMutability": "view",
      "type": "function"
    },
    {
      "inputs": [],
      "name": "token",
      "outputs": [
        {
          "internalType": "contract IDITOToken",
          "name": "",
          "type": "address"
        }
      ],
      "stateMutability": "view",
      "type": "function"
    },
    {
      "inputs": [
        {
          "internalType": "address",
          "name": "",
          "type": "address"
        }
      ],
      "name": "totalFunded",
      "outputs": [
        {
          "internalType": "uint256",
          "name": "",
          "type": "uint256"
        }
      ],
      "stateMutability": "view",
      "type": "function"
    },
    {
      "inputs": [],
      "name": "totalGigsCompleted",
      "outputs": [
        {
          "internalType": "uint256",
          "name": "",
          "type": "uint256"
        }
      ],
      "stateMutability": "view",
      "type": "function"
    },
    {
      "inputs": [],
      "name": "totalTokensReceived",
      "outputs": [
        {
          "internalType": "uint256",
          "name": "",
          "type": "uint256"
        }
      ],
      "stateMutability": "view",
      "type": "function"
    },
    {
      "inputs": [
        {
          "internalType": "address",
          "name": "newOwner",
          "type": "address"
        }
      ],
      "name": "transferOwnership",
      "outputs": [],
      "stateMutability": "nonpayable",
      "type": "function"
    },
    {
      "inputs": [
        {
          "internalType": "address",
          "name": "_currency",
          "type": "address"
        },
        {
          "internalType": "uint256",
          "name": "_amount",
          "type": "uint256"
        }
      ],
      "name": "withdrawFunding",
      "outputs": [],
      "stateMutability": "nonpayable",
      "type": "function"
    }
  ],
  "bytecode": "0x60806040523480156200001157600080fd5b5060405162003f5a38038062003f5a833981810160405281019062000037919062000335565b600062000049620002ff60201b60201c565b9050806000806101000a81548173ffffffffffffffffffffffffffffffffffffffff021916908373ffffffffffffffffffffffffffffffffffffffff1602179055508073ffffffffffffffffffffffffffffffffffffffff16600073ffffffffffffffffffffffffffffffffffffffff167f8be0079c531659141344cd1fd0a4f28419497f9722a3daafe3b4186f6b6457e060405160405180910390a350620000f7620002ff60201b60201c565b600460026101000a81548173ffffffffffffffffffffffffffffffffffffffff021916908373ffffffffffffffffffffffffffffffffffffffff1602179055506000600460006101000a81548160ff02191690831515021790555085600460016101000a81548160ff021916908360028111156200017157fe5b021790555084600660006101000a81548173ffffffffffffffffffffffffffffffffffffffff021916908373ffffffffffffffffffffffffffffffffffffffff16021790555083600560006101000a81548173ffffffffffffffffffffffffffffffffffffffff021916908373ffffffffffffffffffffffffffffffffffffffff16021790555080600160006101000a81548173ffffffffffffffffffffffffffffffffffffffff021916908373ffffffffffffffffffffffffffffffffffffffff1602179055508260026040516200024a906200044f565b908152602001604051809103902060006101000a81548173ffffffffffffffffffffffffffffffffffffffff021916908373ffffffffffffffffffffffffffffffffffffffff160217905550816002604051620002a79062000466565b908152602001604051809103902060006101000a81548173ffffffffffffffffffffffffffffffffffffffff021916908373ffffffffffffffffffffffffffffffffffffffff160217905550505050505050620004e7565b600033905090565b6000815190506200031881620004bc565b92915050565b6000815190506200032f81620004d6565b92915050565b60008060008060008060c087890312156200034f57600080fd5b60006200035f89828a016200031e565b96505060206200037289828a0162000307565b95505060406200038589828a0162000307565b94505060606200039889828a0162000307565b9350506080620003ab89828a0162000307565b92505060a0620003be89828a0162000307565b9150509295509295509295565b6000620003da6003836200047d565b91507f44414900000000000000000000000000000000000000000000000000000000006000830152600382019050919050565b60006200041c6004836200047d565b91507f55534443000000000000000000000000000000000000000000000000000000006000830152600482019050919050565b60006200045c82620003cb565b9150819050919050565b600062000473826200040d565b9150819050919050565b600081905092915050565b600062000495826200049c565b9050919050565b600073ffffffffffffffffffffffffffffffffffffffff82169050919050565b620004c78162000488565b8114620004d357600080fd5b50565b60038110620004e457600080fd5b50565b613a6380620004f76000396000f3fe608060405234801561001057600080fd5b506004361061021b5760003560e01c80638da5cb5b11610125578063d0e0ba95116100ad578063e9999b031161007c578063e9999b03146105f4578063eaad31e114610612578063ef37113314610630578063f2fde38b1461064e578063fc0c546a1461066a5761021b565b8063d0e0ba9514610580578063d33219b41461059c578063dc1fb5a5146105ba578063e377672e146105d85761021b565b8063a46eddcf116100f4578063a46eddcf146104de578063af640d0f146104fa578063bc1c2c2914610518578063bdc5a95614610548578063c7901378146105645761021b565b80638da5cb5b146104445780639963ae8c146104625780639ab9c8191461047e5780639c28b199146104ae5761021b565b806339327e9e116101a857806363a5d2981161017757806363a5d298146103d65780636f2ddd93146103e0578063715018a6146103fe5780637158638314610408578063785ffb37146104265761021b565b806339327e9e146103605780634162169f1461037e57806346f98fec1461039c57806348f65007146103a65761021b565b806320628b48116101ef57806320628b4814610294578063247e9e86146102c45780632bdef29b146102f45780633705abf11461031257806337f3061d146103425761021b565b8062f418f41461022057806303eeedfb1461022a578063107046bd1461024857806315da0b0214610278575b600080fd5b610228610688565b005b61023261071b565b60405161023f91906136bc565b60405180910390f35b610262600480360381019061025d9190612e13565b610721565b60405161026f9190613341565b60405180910390f35b610292600480360381019061028d9190612c8b565b610760565b005b6102ae60048036038101906102a99190612e13565b6109e5565b6040516102bb9190613341565b60405180910390f35b6102de60048036038101906102d99190612cdd565b610a26565b6040516102eb91906136bc565b60405180910390f35b6102fc610aad565b604051610309919061344c565b60405180910390f35b61032c60048036038101906103279190612d7e565b610ac0565b6040516103399190613341565b60405180910390f35b61034a610b09565b604051610357919061342a565b60405180910390f35b610368610cbc565b6040516103759190613482565b60405180910390f35b610386610ce2565b604051610393919061349d565b60405180910390f35b6103a4610d08565b005b6103c060048036038101906103bb9190612c8b565b610dfc565b6040516103cd919061342a565b60405180910390f35b6103de610e93565b005b6103e861100a565b6040516103f591906134d3565b60405180910390f35b61040661101d565b005b6104106111a3565b60405161041d91906136bc565b60405180910390f35b61042e6111a9565b60405161043b91906136bc565b60405180910390f35b61044c6111af565b6040516104599190613341565b60405180910390f35b61047c60048036038101906104779190612dbf565b6111d8565b005b61049860048036038101906104939190612d19565b611813565b6040516104a591906136bc565b60405180910390f35b6104c860048036038101906104c39190612cdd565b611844565b6040516104d591906136bc565b60405180910390f35b6104f860048036038101906104f39190612c8b565b611869565b005b6105026119fc565b60405161050f91906136bc565b60405180910390f35b610532600480360381019061052d9190612c8b565b611a02565b60405161053f91906136bc565b60405180910390f35b610562600480360381019061055d9190612dbf565b611a1a565b005b61057e60048036038101906105799190612d19565b611c4f565b005b61059a60048036038101906105959190612e13565b611c53565b005b6105a4611eb0565b6040516105b191906134b8565b60405180910390f35b6105c2611ed6565b6040516105cf9190613341565b60405180910390f35b6105f260048036038101906105ed9190612e65565b611efc565b005b6105fc6125a1565b60405161060991906136bc565b60405180910390f35b61061a6125a7565b60405161062791906136bc565b60405180910390f35b6106386125b4565b60405161064591906136bc565b60405180910390f35b61066860048036038101906106639190612c8b565b612666565b005b610672612871565b60405161067f9190613467565b60405180910390f35b600b60149054906101000a900460ff16156106d8576040517f08c379a00000000000000000000000000000000000000000000000000000000081526004016106cf9061359c565b60405180910390fd5b33600b60006101000a81548173ffffffffffffffffffffffffffffffffffffffff021916908373ffffffffffffffffffffffffffffffffffffffff160217905550565b60075481565b6009818154811061073157600080fd5b906000526020600020016000915054906101000a900473ffffffffffffffffffffffffffffffffffffffff1681565b610768612897565b73ffffffffffffffffffffffffffffffffffffffff1660008054906101000a900473ffffffffffffffffffffffffffffffffffffffff1673ffffffffffffffffffffffffffffffffffffffff1614610828576040517f08c379a00000000000000000000000000000000000000000000000000000000081526004018080602001828103825260208152602001807f4f776e61626c653a2063616c6c6572206973206e6f7420746865206f776e657281525060200191505060405180910390fd5b600460009054906101000a900460ff1615610878576040517f08c379a000000000000000000000000000000000000000000000000000000000815260040161086f9061365c565b60405180910390fd5b80600460026101000a81548173ffffffffffffffffffffffffffffffffffffffff021916908373ffffffffffffffffffffffffffffffffffffffff160217905550600660009054906101000a900473ffffffffffffffffffffffffffffffffffffffff1673ffffffffffffffffffffffffffffffffffffffff1663095ea7b3600460029054906101000a900473ffffffffffffffffffffffffffffffffffffffff167fffffffffffffffffffffffffffffffffffffffffffffffffffffffffffffffff6040518363ffffffff1660e01b81526004016109589291906133ae565b602060405180830381600087803b15801561097257600080fd5b505af1158015610986573d6000803e3d6000fd5b505050506040513d601f19601f820116820180604052508101906109aa9190612d55565b507fb954b00fb708b65e61e5af666f5ce5050a9a566a4c6cc31e34fb24d03459106f816040516109da9190613341565b60405180910390a150565b6000600982815481106109f457fe5b9060005260206000200160009054906101000a900473ffffffffffffffffffffffffffffffffffffffff169050919050565b6000600c60008473ffffffffffffffffffffffffffffffffffffffff1673ffffffffffffffffffffffffffffffffffffffff16815260200190815260200160002060008373ffffffffffffffffffffffffffffffffffffffff1673ffffffffffffffffffffffffffffffffffffffff16815260200190815260200160002054905092915050565b600b60149054906101000a900460ff1681565b6002818051602081018201805184825260208301602085012081835280955050505050506000915054906101000a900473ffffffffffffffffffffffffffffffffffffffff1681565b60608060075467ffffffffffffffff81118015610b2557600080fd5b50604051908082528060200260200182016040528015610b545781602001602082028036833780820191505090505b5090506000805b600980549050811015610cb35760005b600a600060098481548110610b7c57fe5b9060005260206000200160009054906101000a900473ffffffffffffffffffffffffffffffffffffffff1673ffffffffffffffffffffffffffffffffffffffff1673ffffffffffffffffffffffffffffffffffffffff16815260200190815260200160002080549050811015610ca557600a600060098481548110610bfd57fe5b9060005260206000200160009054906101000a900473ffffffffffffffffffffffffffffffffffffffff1673ffffffffffffffffffffffffffffffffffffffff1673ffffffffffffffffffffffffffffffffffffffff1681526020019081526020016000208181548110610c6d57fe5b9060005260206000200154848481518110610c8457fe5b60200260200101818152505082806001019350508080600101915050610b6b565b508080600101915050610b5b565b50819250505090565b600160009054906101000a900473ffffffffffffffffffffffffffffffffffffffff1681565b600560009054906101000a900473ffffffffffffffffffffffffffffffffffffffff1681565b600660009054906101000a900473ffffffffffffffffffffffffffffffffffffffff1673ffffffffffffffffffffffffffffffffffffffff1663095ea7b3600460029054906101000a900473ffffffffffffffffffffffffffffffffffffffff167fffffffffffffffffffffffffffffffffffffffffffffffffffffffffffffffff6040518363ffffffff1660e01b8152600401610da79291906133ae565b602060405180830381600087803b158015610dc157600080fd5b505af1158015610dd5573d6000803e3d6000fd5b505050506040513d601f19601f82011682018060405250810190610df99190612d55565b50565b6060600a60008373ffffffffffffffffffffffffffffffffffffffff1673ffffffffffffffffffffffffffffffffffffffff168152602001908152602001600020805480602002602001604051908101604052809291908181526020018280548015610e8757602002820191906000526020600020905b815481526020019060010190808311610e73575b50505050509050919050565b610e9b612897565b73ffffffffffffffffffffffffffffffffffffffff1660008054906101000a900473ffffffffffffffffffffffffffffffffffffffff1673ffffffffffffffffffffffffffffffffffffffff1614610f5b576040517f08c379a00000000000000000000000000000000000000000000000000000000081526004018080602001828103825260208152602001807f4f776e61626c653a2063616c6c6572206973206e6f7420746865206f776e657281525060200191505060405180910390fd5b600073ffffffffffffffffffffffffffffffffffffffff16600b60009054906101000a900473ffffffffffffffffffffffffffffffffffffffff1673ffffffffffffffffffffffffffffffffffffffff161415610fed576040517f08c379a0000000000000000000000000000000000000000000000000000000008152600401610fe49061367c565b60405180910390fd5b6001600b60146101000a81548160ff021916908315150217905550565b600460019054906101000a900460ff1681565b611025612897565b73ffffffffffffffffffffffffffffffffffffffff1660008054906101000a900473ffffffffffffffffffffffffffffffffffffffff1673ffffffffffffffffffffffffffffffffffffffff16146110e5576040517f08c379a00000000000000000000000000000000000000000000000000000000081526004018080602001828103825260208152602001807f4f776e61626c653a2063616c6c6572206973206e6f7420746865206f776e657281525060200191505060405180910390fd5b600073ffffffffffffffffffffffffffffffffffffffff1660008054906101000a900473ffffffffffffffffffffffffffffffffffffffff1673ffffffffffffffffffffffffffffffffffffffff167f8be0079c531659141344cd1fd0a4f28419497f9722a3daafe3b4186f6b6457e060405160405180910390a360008060006101000a81548173ffffffffffffffffffffffffffffffffffffffff021916908373ffffffffffffffffffffffffffffffffffffffff160217905550565b60085481565b610f0081565b60008060009054906101000a900473ffffffffffffffffffffffffffffffffffffffff16905090565b600b60149054906101000a900460ff16611227576040517f08c379a000000000000000000000000000000000000000000000000000000000815260040161121e9061357c565b60405180910390fd5b6000600283604051611239919061332a565b908152602001604051809103902060009054906101000a900473ffffffffffffffffffffffffffffffffffffffff169050600073ffffffffffffffffffffffffffffffffffffffff168173ffffffffffffffffffffffffffffffffffffffff1614156112da576040517f08c379a00000000000000000000000000000000000000000000000000000000081526004016112d19061361c565b60405180910390fd5b60006112f7670de0b6b3a76400008461289f90919063ffffffff16565b9050808273ffffffffffffffffffffffffffffffffffffffff166370a0823161131e612897565b6040518263ffffffff1660e01b815260040161133a919061335c565b60206040518083038186803b15801561135257600080fd5b505afa158015611366573d6000803e3d6000fd5b505050506040513d601f19601f8201168201806040525081019061138a9190612e3c565b10156113cb576040517f08c379a00000000000000000000000000000000000000000000000000000000081526004016113c2906135bc565b60405180910390fd5b8173ffffffffffffffffffffffffffffffffffffffff166323b872dd3330846040518463ffffffff1660e01b815260040161140893929190613377565b602060405180830381600087803b15801561142257600080fd5b505af1158015611436573d6000803e3d6000fd5b505050506040513d601f19601f8201168201806040525081019061145a9190612d55565b508173ffffffffffffffffffffffffffffffffffffffff1663095ea7b3600560009054906101000a900473ffffffffffffffffffffffffffffffffffffffff16836040518363ffffffff1660e01b81526004016114b89291906133ae565b602060405180830381600087803b1580156114d257600080fd5b505af11580156114e6573d6000803e3d6000fd5b505050506040513d601f19601f8201168201806040525081019061150a9190612d55565b50600560009054906101000a900473ffffffffffffffffffffffffffffffffffffffff1673ffffffffffffffffffffffffffffffffffffffff1663a7829ffa858560646040518463ffffffff1660e01b815260040161156b9392919061351e565b600060405180830381600087803b15801561158557600080fd5b505af1158015611599573d6000803e3d6000fd5b50505050600b60009054906101000a900473ffffffffffffffffffffffffffffffffffffffff1673ffffffffffffffffffffffffffffffffffffffff16638340f5493384846040518463ffffffff1660e01b81526004016115fc93929190613377565b600060405180830381600087803b15801561161657600080fd5b505af115801561162a573d6000803e3d6000fd5b505050506116bd81600c60003373ffffffffffffffffffffffffffffffffffffffff1673ffffffffffffffffffffffffffffffffffffffff16815260200190815260200160002060008573ffffffffffffffffffffffffffffffffffffffff1673ffffffffffffffffffffffffffffffffffffffff1681526020019081526020016000205461292590919063ffffffff16565b600c60003373ffffffffffffffffffffffffffffffffffffffff1673ffffffffffffffffffffffffffffffffffffffff16815260200190815260200160002060008473ffffffffffffffffffffffffffffffffffffffff1673ffffffffffffffffffffffffffffffffffffffff1681526020019081526020016000208190555061178f81600d60008573ffffffffffffffffffffffffffffffffffffffff1673ffffffffffffffffffffffffffffffffffffffff1681526020019081526020016000205461292590919063ffffffff16565b600d60008473ffffffffffffffffffffffffffffffffffffffff1673ffffffffffffffffffffffffffffffffffffffff168152602001908152602001600020819055507f3b5083eec1a1116c56de5d6841cff8efc6a0aec9850e836ec509d6ce024ea56133838360405161180593929190613377565b60405180910390a150505050565b600a602052816000526040600020818154811061182f57600080fd5b90600052602060002001600091509150505481565b600c602052816000526040600020602052806000526040600020600091509150505481565b611871612897565b73ffffffffffffffffffffffffffffffffffffffff1660008054906101000a900473ffffffffffffffffffffffffffffffffffffffff1673ffffffffffffffffffffffffffffffffffffffff1614611931576040517f08c379a00000000000000000000000000000000000000000000000000000000081526004018080602001828103825260208152602001807f4f776e61626c653a2063616c6c6572206973206e6f7420746865206f776e657281525060200191505060405180910390fd5b600460009054906101000a900460ff1615611981576040517f08c379a00000000000000000000000000000000000000000000000000000000081526004016119789061365c565b60405180910390fd5b80600560006101000a81548173ffffffffffffffffffffffffffffffffffffffff021916908373ffffffffffffffffffffffffffffffffffffffff1602179055507f181dccb510f27d9c2608cbef86fad60ab59d126bc8782ea2f21763607ec41739816040516119f19190613341565b60405180910390a150565b60035481565b600d6020528060005260406000206000915090505481565b6000600160009054906101000a900473ffffffffffffffffffffffffffffffffffffffff1673ffffffffffffffffffffffffffffffffffffffff16630261bf8b6040518163ffffffff1660e01b815260040160206040518083038186803b158015611a8457600080fd5b505afa158015611a98573d6000803e3d6000fd5b505050506040513d601f19601f82011682018060405250810190611abc9190612cb4565b90506000600284604051611ad0919061332a565b908152602001604051809103902060009054906101000a900473ffffffffffffffffffffffffffffffffffffffff169050600073ffffffffffffffffffffffffffffffffffffffff168173ffffffffffffffffffffffffffffffffffffffff161415611b71576040517f08c379a0000000000000000000000000000000000000000000000000000000008152600401611b689061361c565b60405180910390fd5b8173ffffffffffffffffffffffffffffffffffffffff1663a415bcad828560016000600560009054906101000a900473ffffffffffffffffffffffffffffffffffffffff166040518663ffffffff1660e01b8152600401611bd69594939291906133d7565b600060405180830381600087803b158015611bf057600080fd5b505af1158015611c04573d6000803e3d6000fd5b50505050611c106129ad565b7ffc30ec1bee3b4fb527f0d90b4bbbf5a24b72f0964679ff277df1895e8ad239578484604051611c419291906134ee565b60405180910390a150505050565b5050565b600560009054906101000a900473ffffffffffffffffffffffffffffffffffffffff1673ffffffffffffffffffffffffffffffffffffffff163373ffffffffffffffffffffffffffffffffffffffff1614611ce3576040517f08c379a0000000000000000000000000000000000000000000000000000000008152600401611cda9061363c565b60405180910390fd5b600460009054906101000a900460ff1615611d33576040517f08c379a0000000000000000000000000000000000000000000000000000000008152600401611d2a9061365c565b60405180910390fd5b600073ffffffffffffffffffffffffffffffffffffffff16600460029054906101000a900473ffffffffffffffffffffffffffffffffffffffff1673ffffffffffffffffffffffffffffffffffffffff161415611dc5576040517f08c379a0000000000000000000000000000000000000000000000000000000008152600401611dbc906135dc565b60405180910390fd5b806003819055506001600460006101000a81548160ff0219169083151502179055507fc72e55068a99063a2c847c0b87d2808f29d1935171e54ffa3a479533b4046b7481604051611e1691906136bc565b60405180910390a1600460029054906101000a900473ffffffffffffffffffffffffffffffffffffffff1673ffffffffffffffffffffffffffffffffffffffff1663d0e0ba956003546040518263ffffffff1660e01b8152600401611e7b91906136bc565b600060405180830381600087803b158015611e9557600080fd5b505af1158015611ea9573d6000803e3d6000fd5b5050505050565b600b60009054906101000a900473ffffffffffffffffffffffffffffffffffffffff1681565b600460029054906101000a900473ffffffffffffffffffffffffffffffffffffffff1681565b600460029054906101000a900473ffffffffffffffffffffffffffffffffffffffff1673ffffffffffffffffffffffffffffffffffffffff16611f3d612897565b73ffffffffffffffffffffffffffffffffffffffff1614611f93576040517f08c379a0000000000000000000000000000000000000000000000000000000008152600401611f8a9061355c565b60405180910390fd5b600073ffffffffffffffffffffffffffffffffffffffff168173ffffffffffffffffffffffffffffffffffffffff161415612003576040517f08c379a0000000000000000000000000000000000000000000000000000000008152600401611ffa906135fc565b60405180910390fd5b60008211612046576040517f08c379a000000000000000000000000000000000000000000000000000000000815260040161203d9061369c565b60405180910390fd5b600660009054906101000a900473ffffffffffffffffffffffffffffffffffffffff1673ffffffffffffffffffffffffffffffffffffffff166323b872dd61208c612897565b306120a8670de0b6b3a76400008761289f90919063ffffffff16565b6040518463ffffffff1660e01b81526004016120c693929190613377565b602060405180830381600087803b1580156120e057600080fd5b505af11580156120f4573d6000803e3d6000fd5b505050506040513d601f19601f820116820180604052508101906121189190612d55565b506000600660009054906101000a900473ffffffffffffffffffffffffffffffffffffffff1673ffffffffffffffffffffffffffffffffffffffff166370a08231306040518263ffffffff1660e01b81526004016121769190613341565b60206040518083038186803b15801561218e57600080fd5b505afa1580156121a2573d6000803e3d6000fd5b505050506040513d601f19601f820116820180604052508101906121c69190612e3c565b90506000600a60008473ffffffffffffffffffffffffffffffffffffffff1673ffffffffffffffffffffffffffffffffffffffff168152602001908152602001600020805490501415612277576009829080600181540180825580915050600190039060005260206000200160009091909190916101000a81548173ffffffffffffffffffffffffffffffffffffffff021916908373ffffffffffffffffffffffffffffffffffffffff1602179055505b600a60008373ffffffffffffffffffffffffffffffffffffffff1673ffffffffffffffffffffffffffffffffffffffff1681526020019081526020016000206122d1670de0b6b3a76400008561289f90919063ffffffff16565b908060018154018082558091505060019003906000526020600020016000909190919091505561230d600160075461292590919063ffffffff16565b6007819055506123288360085461292590919063ffffffff16565b60088190555061234b670de0b6b3a7640000610f0061289f90919063ffffffff16565b8110612562576000612382612373670de0b6b3a76400006107d061289f90919063ffffffff16565b83612a6590919063ffffffff16565b9050600560009054906101000a900473ffffffffffffffffffffffffffffffffffffffff1673ffffffffffffffffffffffffffffffffffffffff166305f9c5976003546040518263ffffffff1660e01b81526004016123e191906136bc565b600060405180830381600087803b1580156123fb57600080fd5b505af115801561240f573d6000803e3d6000fd5b505050507f78cd33486287c682aa18f13badc425b37df2158a72b64ecfe2fa765f62c9343084846040516124449291906136d7565b60405180910390a17facd3dbb848fad50d312987d285e88fdc140a8385c5c568117c79d1437d8be32e6124756125b4565b60405161248291906136bc565b60405180910390a1600660009054906101000a900473ffffffffffffffffffffffffffffffffffffffff1673ffffffffffffffffffffffffffffffffffffffff1663a9059cbb600460029054906101000a900473ffffffffffffffffffffffffffffffffffffffff16836040518363ffffffff1660e01b81526004016125099291906133ae565b602060405180830381600087803b15801561252357600080fd5b505af1158015612537573d6000803e3d6000fd5b505050506040513d601f19601f8201168201806040525081019061255b9190612d55565b505061259c565b7f78cd33486287c682aa18f13badc425b37df2158a72b64ecfe2fa765f62c9343083836040516125939291906136d7565b60405180910390a15b505050565b6107d081565b6000600980549050905090565b6000600660009054906101000a900473ffffffffffffffffffffffffffffffffffffffff1673ffffffffffffffffffffffffffffffffffffffff166370a08231306040518263ffffffff1660e01b81526004016126119190613341565b60206040518083038186803b15801561262957600080fd5b505afa15801561263d573d6000803e3d6000fd5b505050506040513d601f19601f820116820180604052508101906126619190612e3c565b905090565b61266e612897565b73ffffffffffffffffffffffffffffffffffffffff1660008054906101000a900473ffffffffffffffffffffffffffffffffffffffff1673ffffffffffffffffffffffffffffffffffffffff161461272e576040517f08c379a00000000000000000000000000000000000000000000000000000000081526004018080602001828103825260208152602001807f4f776e61626c653a2063616c6c6572206973206e6f7420746865206f776e657281525060200191505060405180910390fd5b600073ffffffffffffffffffffffffffffffffffffffff168173ffffffffffffffffffffffffffffffffffffffff1614156127b4576040517f08c379a00000000000000000000000000000000000000000000000000000000081526004018080602001828103825260268152602001806139e76026913960400191505060405180910390fd5b8073ffffffffffffffffffffffffffffffffffffffff1660008054906101000a900473ffffffffffffffffffffffffffffffffffffffff1673ffffffffffffffffffffffffffffffffffffffff167f8be0079c531659141344cd1fd0a4f28419497f9722a3daafe3b4186f6b6457e060405160405180910390a3806000806101000a81548173ffffffffffffffffffffffffffffffffffffffff021916908373ffffffffffffffffffffffffffffffffffffffff16021790555050565b600660009054906101000a900473ffffffffffffffffffffffffffffffffffffffff1681565b600033905090565b6000808314156128b2576000905061291f565b60008284029050828482816128c357fe5b041461291a576040517f08c379a0000000000000000000000000000000000000000000000000000000008152600401808060200182810382526021815260200180613a0d6021913960400191505060405180910390fd5b809150505b92915050565b6000808284019050838110156129a3576040517f08c379a000000000000000000000000000000000000000000000000000000000815260040180806020018281038252601b8152602001807f536166654d6174683a206164646974696f6e206f766572666c6f77000000000081525060200191505060405180910390fd5b8091505092915050565b60005b600980549050811015612a4c57600a6000600983815481106129ce57fe5b9060005260206000200160009054906101000a900473ffffffffffffffffffffffffffffffffffffffff1673ffffffffffffffffffffffffffffffffffffffff1673ffffffffffffffffffffffffffffffffffffffff1681526020019081526020016000206000612a3f9190612b6f565b80806001019150506129b0565b5060096000612a5b9190612b90565b6000600781905550565b6000612aa783836040518060400160405280601e81526020017f536166654d6174683a207375627472616374696f6e206f766572666c6f770000815250612aaf565b905092915050565b6000838311158290612b5c576040517f08c379a00000000000000000000000000000000000000000000000000000000081526004018080602001828103825283818151815260200191508051906020019080838360005b83811015612b21578082015181840152602081019050612b06565b50505050905090810190601f168015612b4e5780820380516001836020036101000a031916815260200191505b509250505060405180910390fd5b5060008385039050809150509392505050565b5080546000825590600052602060002090810190612b8d9190612bb1565b50565b5080546000825590600052602060002090810190612bae9190612bb1565b50565b5b80821115612bca576000816000905550600101612bb2565b5090565b600081359050612bdd816139a1565b92915050565b600081519050612bf2816139a1565b92915050565b600081519050612c07816139b8565b92915050565b600082601f830112612c1e57600080fd5b8135612c31612c2c82613731565b613700565b91508082526020830160208301858383011115612c4d57600080fd5b612c58838284613938565b50505092915050565b600081359050612c70816139cf565b92915050565b600081519050612c85816139cf565b92915050565b600060208284031215612c9d57600080fd5b6000612cab84828501612bce565b91505092915050565b600060208284031215612cc657600080fd5b6000612cd484828501612be3565b91505092915050565b60008060408385031215612cf057600080fd5b6000612cfe85828601612bce565b9250506020612d0f85828601612bce565b9150509250929050565b60008060408385031215612d2c57600080fd5b6000612d3a85828601612bce565b9250506020612d4b85828601612c61565b9150509250929050565b600060208284031215612d6757600080fd5b6000612d7584828501612bf8565b91505092915050565b600060208284031215612d9057600080fd5b600082013567ffffffffffffffff811115612daa57600080fd5b612db684828501612c0d565b91505092915050565b60008060408385031215612dd257600080fd5b600083013567ffffffffffffffff811115612dec57600080fd5b612df885828601612c0d565b9250506020612e0985828601612c61565b9150509250929050565b600060208284031215612e2557600080fd5b6000612e3384828501612c61565b91505092915050565b600060208284031215612e4e57600080fd5b6000612e5c84828501612c76565b91505092915050565b60008060408385031215612e7857600080fd5b6000612e8685828601612c61565b9250506020612e9785828601612bce565b9150509250929050565b6000612ead838361330c565b60208301905092915050565b612ec28161382a565b82525050565b612ed1816137c1565b82525050565b6000612ee282613771565b612eec8185613794565b9350612ef783613761565b8060005b83811015612f28578151612f0f8882612ea1565b9750612f1a83613787565b925050600181019050612efb565b5085935050505092915050565b612f3e816137d3565b82525050565b612f4d8161383c565b82525050565b612f5c81613860565b82525050565b612f6b81613884565b82525050565b612f7a816138a8565b82525050565b612f89816138cc565b82525050565b612f98816138de565b82525050565b612fa7816138f0565b82525050565b612fb681613902565b82525050565b6000612fc78261377c565b612fd181856137a5565b9350612fe1818560208601613947565b612fea8161397c565b840191505092915050565b60006130008261377c565b61300a81856137b6565b935061301a818560208601613947565b80840191505092915050565b60006130336026836137a5565b91507f4769672063616e206f6e6c7920626520636f6d706c6574656420627920636f6d60008301527f6d756e69747900000000000000000000000000000000000000000000000000006020830152604082019050919050565b60006130996013836137a5565b91507f74696d656c6f636b206e6f7420616374697665000000000000000000000000006000830152602082019050919050565b60006130d9600e836137a5565b91507f616c7265616479206163746976650000000000000000000000000000000000006000830152602082019050919050565b60006131196014836137a5565b91507f6e6f7420656e6f756768206f776e2066756e64730000000000000000000000006000830152602082019050919050565b60006131596014836137a5565b91507f636f6d6d756e697479206973206e6f74207365740000000000000000000000006000830152602082019050919050565b60006131996018836137a5565b91507f6e6f2070726f6a65637420666f72206d696c6573746f6e6500000000000000006000830152602082019050919050565b60006131d96016836137a5565b91507f63757272656e6379206e6f7420737570706f72746564000000000000000000006000830152602082019050919050565b6000613219601c836137a5565b91507f6f6e6c792074726561737572792064616f2063616e20736574206964000000006000830152602082019050919050565b6000613259601a836137a5565b91507f747265617375727920697320616c7265616479206c696e6b65640000000000006000830152602082019050919050565b60006132996007836137a5565b91507f6e6f7420736574000000000000000000000000000000000000000000000000006000830152602082019050919050565b60006132d9600b836137a5565b91507f616d6f756e7420697320300000000000000000000000000000000000000000006000830152602082019050919050565b61331581613820565b82525050565b61332481613820565b82525050565b60006133368284612ff5565b915081905092915050565b60006020820190506133566000830184612ec8565b92915050565b60006020820190506133716000830184612eb9565b92915050565b600060608201905061338c6000830186612eb9565b6133996020830185612ec8565b6133a6604083018461331b565b949350505050565b60006040820190506133c36000830185612ec8565b6133d0602083018461331b565b9392505050565b600060a0820190506133ec6000830188612ec8565b6133f9602083018761331b565b6134066040830186612fad565b6134136060830185612f8f565b6134206080830184612ec8565b9695505050505050565b600060208201905081810360008301526134448184612ed7565b905092915050565b60006020820190506134616000830184612f35565b92915050565b600060208201905061347c6000830184612f44565b92915050565b60006020820190506134976000830184612f53565b92915050565b60006020820190506134b26000830184612f62565b92915050565b60006020820190506134cd6000830184612f71565b92915050565b60006020820190506134e86000830184612f80565b92915050565b600060408201905081810360008301526135088185612fbc565b9050613517602083018461331b565b9392505050565b600060608201905081810360008301526135388186612fbc565b9050613547602083018561331b565b6135546040830184612f9e565b949350505050565b6000602082019050818103600083015261357581613026565b9050919050565b600060208201905081810360008301526135958161308c565b9050919050565b600060208201905081810360008301526135b5816130cc565b9050919050565b600060208201905081810360008301526135d58161310c565b9050919050565b600060208201905081810360008301526135f58161314c565b9050919050565b600060208201905081810360008301526136158161318c565b9050919050565b60006020820190508181036000830152613635816131cc565b9050919050565b600060208201905081810360008301526136558161320c565b9050919050565b600060208201905081810360008301526136758161324c565b9050919050565b600060208201905081810360008301526136958161328c565b9050919050565b600060208201905081810360008301526136b5816132cc565b9050919050565b60006020820190506136d1600083018461331b565b92915050565b60006040820190506136ec600083018561331b565b6136f96020830184612ec8565b9392505050565b6000604051905081810181811067ffffffffffffffff821117156137275761372661397a565b5b8060405250919050565b600067ffffffffffffffff82111561374c5761374b61397a565b5b601f19601f8301169050602081019050919050565b6000819050602082019050919050565b600081519050919050565b600081519050919050565b6000602082019050919050565b600082825260208201905092915050565b600082825260208201905092915050565b600081905092915050565b60006137cc82613800565b9050919050565b60008115159050919050565b60008190506137ed8261398d565b919050565b600061ffff82169050919050565b600073ffffffffffffffffffffffffffffffffffffffff82169050919050565b6000819050919050565b600061383582613914565b9050919050565b60006138478261384e565b9050919050565b600061385982613800565b9050919050565b600061386b82613872565b9050919050565b600061387d82613800565b9050919050565b600061388f82613896565b9050919050565b60006138a182613800565b9050919050565b60006138b3826138ba565b9050919050565b60006138c582613800565b9050919050565b60006138d7826137df565b9050919050565b60006138e9826137f2565b9050919050565b60006138fb82613820565b9050919050565b600061390d82613820565b9050919050565b600061391f82613926565b9050919050565b600061393182613800565b9050919050565b82818337600083830152505050565b60005b8381101561396557808201518184015260208101905061394a565b83811115613974576000848401525b50505050565bfe5b6000601f19601f8301169050919050565b6003811061399e5761399d61397a565b5b50565b6139aa816137c1565b81146139b557600080fd5b50565b6139c1816137d3565b81146139cc57600080fd5b50565b6139d881613820565b81146139e357600080fd5b5056fe4f776e61626c653a206e6577206f776e657220697320746865207a65726f2061646472657373536166654d6174683a206d756c7469706c69636174696f6e206f766572666c6f77a26469706673582212204555ee78b1871b810b140ef82b309da216b3f57d2d0c7ceedf2f89d94363f2ca64736f6c63430007040033",
  "linkReferences": {},
  "deployedLinkReferences": {}
}