{
  "_format": "hh-sol-artifact-1",
  "contractName": "CommunityTreasuryFactory",
  "sourceName": "contracts/CommunityTreasuryFactory.sol",
  "abi": [
    {
      "inputs": [
        {
          "internalType": "enum DataTypes.CommunityTemplate",
          "name": "_template",
          "type": "uint8"
        },
        {
          "internalType": "address",
          "name": "_token",
          "type": "address"
        },
        {
          "internalType": "address",
          "name": "_dao",
          "type": "address"
        },
        {
          "internalType": "address",
          "name": "_addressesProvider",
          "type": "address"
        }
      ],
      "name": "deployTreasury",
      "outputs": [
        {
          "internalType": "address",
          "name": "",
          "type": "address"
        }
      ],
      "stateMutability": "nonpayable",
      "type": "function"
    }
  ],
  "bytecode": "0x608060405234801561001057600080fd5b50614caf806100206000396000f3fe608060405234801561001057600080fd5b506004361061002b5760003560e01c8063b453a99a14610030575b600080fd5b6100bf6004803603608081101561004657600080fd5b81019080803560ff169060200190929190803573ffffffffffffffffffffffffffffffffffffffff169060200190929190803573ffffffffffffffffffffffffffffffffffffffff169060200190929190803573ffffffffffffffffffffffffffffffffffffffff1690602001909291905050506100eb565b604051808273ffffffffffffffffffffffffffffffffffffffff16815260200191505060405180910390f35b60008085338686866040516100ff90610234565b8086600281111561010c57fe5b81526020018573ffffffffffffffffffffffffffffffffffffffff1681526020018473ffffffffffffffffffffffffffffffffffffffff1681526020018373ffffffffffffffffffffffffffffffffffffffff1681526020018273ffffffffffffffffffffffffffffffffffffffff16815260200195505050505050604051809103906000f0801580156101a4573d6000803e3d6000fd5b5090508073ffffffffffffffffffffffffffffffffffffffff1663f2fde38b336040518263ffffffff1660e01b8152600401808273ffffffffffffffffffffffffffffffffffffffff168152602001915050600060405180830381600087803b15801561021057600080fd5b505af1158015610224573d6000803e3d6000fd5b5050505080915050949350505050565b614a38806102428339019056fe60806040523480156200001157600080fd5b5060405162004a3838038062004a3883398181016040528101906200003791906200026b565b6000620000496200023560201b60201c565b9050806000806101000a81548173ffffffffffffffffffffffffffffffffffffffff021916908373ffffffffffffffffffffffffffffffffffffffff1602179055508073ffffffffffffffffffffffffffffffffffffffff16600073ffffffffffffffffffffffffffffffffffffffff167f8be0079c531659141344cd1fd0a4f28419497f9722a3daafe3b4186f6b6457e060405160405180910390a35083600360026101000a81548173ffffffffffffffffffffffffffffffffffffffff021916908373ffffffffffffffffffffffffffffffffffffffff1602179055506000600360006101000a81548160ff02191690831515021790555084600360016101000a81548160ff021916908360028111156200016257fe5b021790555080600160006101000a81548173ffffffffffffffffffffffffffffffffffffffff021916908373ffffffffffffffffffffffffffffffffffffffff16021790555082600560006101000a81548173ffffffffffffffffffffffffffffffffffffffff021916908373ffffffffffffffffffffffffffffffffffffffff16021790555081600460006101000a81548173ffffffffffffffffffffffffffffffffffffffff021916908373ffffffffffffffffffffffffffffffffffffffff16021790555050505050506200034c565b600033905090565b6000815190506200024e8162000321565b92915050565b60008151905062000265816200033b565b92915050565b600080600080600060a086880312156200028457600080fd5b6000620002948882890162000254565b9550506020620002a7888289016200023d565b9450506040620002ba888289016200023d565b9350506060620002cd888289016200023d565b9250506080620002e0888289016200023d565b9150509295509295909350565b6000620002fa8262000301565b9050919050565b600073ffffffffffffffffffffffffffffffffffffffff82169050919050565b6200032c81620002ed565b81146200033857600080fd5b50565b600381106200034957600080fd5b50565b6146dc806200035c6000396000f3fe608060405234801561001057600080fd5b50600436106102265760003560e01c80637ea5121111610130578063c7901378116100b8578063e9999b031161007c578063e9999b031461060b578063eaad31e114610629578063ef37113314610647578063f2fde38b14610665578063fc0c546a1461068157610226565b8063c79013781461057b578063d0e0ba9514610597578063d33219b4146105b3578063dc1fb5a5146105d1578063e377672e146105ef57610226565b80639c28b199116100ff5780639c28b199146104c3578063a46eddcf146104f3578063af640d0f1461050f578063bc1c2c291461052d578063c72c4d101461055d57610226565b80637ea51211146104295780638da5cb5b146104595780639963ae8c146104775780639ab9c8191461049357610226565b80634162169f116101b357806363a5d2981161018257806363a5d298146103bb5780636f2ddd93146103c5578063715018a6146103e357806371586383146103ed578063785ffb371461040b57610226565b80634162169f1461035957806346f98fec14610377578063472cf49b1461038157806348f650071461038b57610226565b806320628b48116101fa57806320628b48146102a1578063247e9e86146102d15780632bdef29b14610301578063328fb94c1461031f57806337f3061d1461033b57610226565b8062f418f41461022b57806303eeedfb14610235578063107046bd14610253578063150c4aea14610283575b600080fd5b61023361069f565b005b61023d610732565b60405161024a91906142b9565b60405180910390f35b61026d60048036038101906102689190613851565b610738565b60405161027a9190613e37565b60405180910390f35b61028b610777565b6040516102989190613f86565b60405180910390f35b6102bb60048036038101906102b69190613851565b610782565b6040516102c89190613e37565b60405180910390f35b6102eb60048036038101906102e691906136cb565b6107c3565b6040516102f891906142b9565b60405180910390f35b61030961084a565b6040516103169190613f6b565b60405180910390f35b610339600480360381019061033491906137c0565b61085d565b005b610343610bbd565b6040516103509190613f49565b60405180910390f35b610361610d70565b60405161036e9190613fbc565b60405180910390f35b61037f610d96565b005b610389610e8a565b005b6103a560048036038101906103a09190613679565b6112c4565b6040516103b29190613f49565b60405180910390f35b6103c361135b565b005b6103cd6114b9565b6040516103da9190613ff2565b60405180910390f35b6103eb6114cc565b005b6103f5611639565b60405161040291906142b9565b60405180910390f35b61041361163f565b60405161042091906142b9565b60405180910390f35b610443600480360381019061043e9190613679565b611645565b60405161045091906142b9565b60405180910390f35b61046161165d565b60405161046e9190613e37565b60405180910390f35b610491600480360381019061048c919061376c565b611686565b005b6104ad60048036038101906104a89190613707565b611d2d565b6040516104ba91906142b9565b60405180910390f35b6104dd60048036038101906104d891906136cb565b611d5e565b6040516104ea91906142b9565b60405180910390f35b61050d60048036038101906105089190613679565b611d83565b005b610517611efd565b60405161052491906142b9565b60405180910390f35b61054760048036038101906105429190613679565b611f03565b60405161055491906142b9565b60405180910390f35b610565611f1b565b6040516105729190613e37565b60405180910390f35b61059560048036038101906105909190613707565b611f41565b005b6105b160048036038101906105ac9190613851565b611f45565b005b6105bb6121a2565b6040516105c89190613fd7565b60405180910390f35b6105d96121c8565b6040516105e69190613e37565b60405180910390f35b610609600480360381019061060491906138a3565b6121ee565b005b610613612893565b60405161062091906142b9565b60405180910390f35b610631612899565b60405161063e91906142b9565b60405180910390f35b61064f6128a6565b60405161065c91906142b9565b60405180910390f35b61067f600480360381019061067a9190613679565b612958565b005b610689612b4a565b6040516106969190613fa1565b60405180910390f35b600b60149054906101000a900460ff16156106ef576040517f08c379a00000000000000000000000000000000000000000000000000000000081526004016106e6906140eb565b60405180910390fd5b33600b60006101000a81548173ffffffffffffffffffffffffffffffffffffffff021916908373ffffffffffffffffffffffffffffffffffffffff160217905550565b60065481565b6008818154811061074857600080fd5b906000526020600020016000915054906101000a900473ffffffffffffffffffffffffffffffffffffffff1681565b63f114c7dc60e01b81565b60006008828154811061079157fe5b9060005260206000200160009054906101000a900473ffffffffffffffffffffffffffffffffffffffff169050919050565b6000600c60008473ffffffffffffffffffffffffffffffffffffffff1673ffffffffffffffffffffffffffffffffffffffff16815260200190815260200160002060008373ffffffffffffffffffffffffffffffffffffffff1673ffffffffffffffffffffffffffffffffffffffff16815260200190815260200160002054905092915050565b600b60149054906101000a900460ff1681565b81600a60008373ffffffffffffffffffffffffffffffffffffffff1673ffffffffffffffffffffffffffffffffffffffff1681526020019081526020016000205410156108df576040517f08c379a00000000000000000000000000000000000000000000000000000000081526004016108d69061412b565b60405180910390fd5b6000600160009054906101000a900473ffffffffffffffffffffffffffffffffffffffff1673ffffffffffffffffffffffffffffffffffffffff1663dacacb4e856040518263ffffffff1660e01b815260040161093c919061400d565b60206040518083038186803b15801561095457600080fd5b505afa158015610968573d6000803e3d6000fd5b505050506040513d601f19601f8201168201806040525081019061098c91906136a2565b9050828173ffffffffffffffffffffffffffffffffffffffff166370a08231306040518263ffffffff1660e01b81526004016109c89190613e37565b60206040518083038186803b1580156109e057600080fd5b505afa1580156109f4573d6000803e3d6000fd5b505050506040513d601f19601f82011682018060405250810190610a18919061387a565b1015610a59576040517f08c379a0000000000000000000000000000000000000000000000000000000008152600401610a509061410b565b60405180910390fd5b610aab83600a60008573ffffffffffffffffffffffffffffffffffffffff1673ffffffffffffffffffffffffffffffffffffffff16815260200190815260200160002054612b7090919063ffffffff16565b600a60008473ffffffffffffffffffffffffffffffffffffffff1673ffffffffffffffffffffffffffffffffffffffff168152602001908152602001600020819055508073ffffffffffffffffffffffffffffffffffffffff1663a9059cbb83856040518363ffffffff1660e01b8152600401610b29929190613ecd565b602060405180830381600087803b158015610b4357600080fd5b505af1158015610b57573d6000803e3d6000fd5b505050506040513d601f19601f82011682018060405250810190610b7b9190613743565b507fb033a4af41928d910b820d64956d833641602007def71acd9f5a228d77862c90848484604051610baf9392919061402f565b60405180910390a150505050565b60608060065467ffffffffffffffff81118015610bd957600080fd5b50604051908082528060200260200182016040528015610c085781602001602082028036833780820191505090505b5090506000805b600880549050811015610d675760005b6009600060088481548110610c3057fe5b9060005260206000200160009054906101000a900473ffffffffffffffffffffffffffffffffffffffff1673ffffffffffffffffffffffffffffffffffffffff1673ffffffffffffffffffffffffffffffffffffffff16815260200190815260200160002080549050811015610d59576009600060088481548110610cb157fe5b9060005260206000200160009054906101000a900473ffffffffffffffffffffffffffffffffffffffff1673ffffffffffffffffffffffffffffffffffffffff1673ffffffffffffffffffffffffffffffffffffffff1681526020019081526020016000208181548110610d2157fe5b9060005260206000200154848481518110610d3857fe5b60200260200101818152505082806001019350508080600101915050610c1f565b508080600101915050610c0f565b50819250505090565b600460009054906101000a900473ffffffffffffffffffffffffffffffffffffffff1681565b600560009054906101000a900473ffffffffffffffffffffffffffffffffffffffff1673ffffffffffffffffffffffffffffffffffffffff1663095ea7b3600360029054906101000a900473ffffffffffffffffffffffffffffffffffffffff167fffffffffffffffffffffffffffffffffffffffffffffffffffffffffffffffff6040518363ffffffff1660e01b8152600401610e35929190613ecd565b602060405180830381600087803b158015610e4f57600080fd5b505af1158015610e63573d6000803e3d6000fd5b505050506040513d601f19601f82011682018060405250810190610e879190613743565b50565b6000600160009054906101000a900473ffffffffffffffffffffffffffffffffffffffff1673ffffffffffffffffffffffffffffffffffffffff166339327e9e6040518163ffffffff1660e01b815260040160206040518083038186803b158015610ef457600080fd5b505afa158015610f08573d6000803e3d6000fd5b505050506040513d601f19601f82011682018060405250810190610f2c91906136a2565b73ffffffffffffffffffffffffffffffffffffffff16630261bf8b6040518163ffffffff1660e01b815260040160206040518083038186803b158015610f7157600080fd5b505afa158015610f85573d6000803e3d6000fd5b505050506040513d601f19601f82011682018060405250810190610fa991906136a2565b90506000600160009054906101000a900473ffffffffffffffffffffffffffffffffffffffff1673ffffffffffffffffffffffffffffffffffffffff1663dacacb4e6040518163ffffffff1660e01b81526004016110069061422b565b60206040518083038186803b15801561101e57600080fd5b505afa158015611032573d6000803e3d6000fd5b505050506040513d601f19601f8201168201806040525081019061105691906136a2565b905060008273ffffffffffffffffffffffffffffffffffffffff166335ea6a75836040518263ffffffff1660e01b81526004016110939190613e37565b6101806040518083038186803b1580156110ac57600080fd5b505afa1580156110c0573d6000803e3d6000fd5b505050506040513d601f19601f820116820180604052508101906110e49190613827565b6101000151905060008173ffffffffffffffffffffffffffffffffffffffff16636bd76d24600460009054906101000a900473ffffffffffffffffffffffffffffffffffffffff16306040518363ffffffff1660e01b815260040161114a929190613ea4565b60206040518083038186803b15801561116257600080fd5b505afa158015611176573d6000803e3d6000fd5b505050506040513d601f19601f8201168201806040525081019061119a919061387a565b9050600081116111df576040517f08c379a00000000000000000000000000000000000000000000000000000000081526004016111d69061414b565b60405180910390fd5b8373ffffffffffffffffffffffffffffffffffffffff1663a415bcad848360016000600460009054906101000a900473ffffffffffffffffffffffffffffffffffffffff166040518663ffffffff1660e01b8152600401611244959493929190613ef6565b600060405180830381600087803b15801561125e57600080fd5b505af1158015611272573d6000803e3d6000fd5b5050505061127f81612bf3565b611287612eb1565b7ffc30ec1bee3b4fb527f0d90b4bbbf5a24b72f0964679ff277df1895e8ad23957816040516112b6919061424b565b60405180910390a150505050565b6060600960008373ffffffffffffffffffffffffffffffffffffffff1673ffffffffffffffffffffffffffffffffffffffff16815260200190815260200160002080548060200260200160405190810160405280929190818152602001828054801561134f57602002820191906000526020600020905b81548152602001906001019080831161133b575b50505050509050919050565b611363612f69565b73ffffffffffffffffffffffffffffffffffffffff1661138161165d565b73ffffffffffffffffffffffffffffffffffffffff161461140a576040517f08c379a00000000000000000000000000000000000000000000000000000000081526004018080602001828103825260208152602001807f4f776e61626c653a2063616c6c6572206973206e6f7420746865206f776e657281525060200191505060405180910390fd5b600073ffffffffffffffffffffffffffffffffffffffff16600b60009054906101000a900473ffffffffffffffffffffffffffffffffffffffff1673ffffffffffffffffffffffffffffffffffffffff16141561149c576040517f08c379a000000000000000000000000000000000000000000000000000000000815260040161149390614279565b60405180910390fd5b6001600b60146101000a81548160ff021916908315150217905550565b600360019054906101000a900460ff1681565b6114d4612f69565b73ffffffffffffffffffffffffffffffffffffffff166114f261165d565b73ffffffffffffffffffffffffffffffffffffffff161461157b576040517f08c379a00000000000000000000000000000000000000000000000000000000081526004018080602001828103825260208152602001807f4f776e61626c653a2063616c6c6572206973206e6f7420746865206f776e657281525060200191505060405180910390fd5b600073ffffffffffffffffffffffffffffffffffffffff1660008054906101000a900473ffffffffffffffffffffffffffffffffffffffff1673ffffffffffffffffffffffffffffffffffffffff167f8be0079c531659141344cd1fd0a4f28419497f9722a3daafe3b4186f6b6457e060405160405180910390a360008060006101000a81548173ffffffffffffffffffffffffffffffffffffffff021916908373ffffffffffffffffffffffffffffffffffffffff160217905550565b60075481565b610f0081565b600a6020528060005260406000206000915090505481565b60008060009054906101000a900473ffffffffffffffffffffffffffffffffffffffff16905090565b600b60149054906101000a900460ff166116d5576040517f08c379a00000000000000000000000000000000000000000000000000000000081526004016116cc906140cb565b60405180910390fd5b6000600160009054906101000a900473ffffffffffffffffffffffffffffffffffffffff1673ffffffffffffffffffffffffffffffffffffffff1663dacacb4e846040518263ffffffff1660e01b8152600401611732919061400d565b60206040518083038186803b15801561174a57600080fd5b505afa15801561175e573d6000803e3d6000fd5b505050506040513d601f19601f8201168201806040525081019061178291906136a2565b9050600073ffffffffffffffffffffffffffffffffffffffff168173ffffffffffffffffffffffffffffffffffffffff1614156117f4576040517f08c379a00000000000000000000000000000000000000000000000000000000081526004016117eb906141cb565b60405180910390fd5b6000611811670de0b6b3a764000084612f7190919063ffffffff16565b9050808273ffffffffffffffffffffffffffffffffffffffff166370a08231611838612f69565b6040518263ffffffff1660e01b81526004016118549190613e52565b60206040518083038186803b15801561186c57600080fd5b505afa158015611880573d6000803e3d6000fd5b505050506040513d601f19601f820116820180604052508101906118a4919061387a565b10156118e5576040517f08c379a00000000000000000000000000000000000000000000000000000000081526004016118dc9061416b565b60405180910390fd5b8173ffffffffffffffffffffffffffffffffffffffff166323b872dd3330846040518463ffffffff1660e01b815260040161192293929190613e6d565b602060405180830381600087803b15801561193c57600080fd5b505af1158015611950573d6000803e3d6000fd5b505050506040513d601f19601f820116820180604052508101906119749190613743565b508173ffffffffffffffffffffffffffffffffffffffff1663095ea7b3600460009054906101000a900473ffffffffffffffffffffffffffffffffffffffff16836040518363ffffffff1660e01b81526004016119d2929190613ecd565b602060405180830381600087803b1580156119ec57600080fd5b505af1158015611a00573d6000803e3d6000fd5b505050506040513d601f19601f82011682018060405250810190611a249190613743565b50600460009054906101000a900473ffffffffffffffffffffffffffffffffffffffff1673ffffffffffffffffffffffffffffffffffffffff1663a7829ffa858560646040518463ffffffff1660e01b8152600401611a859392919061406d565b600060405180830381600087803b158015611a9f57600080fd5b505af1158015611ab3573d6000803e3d6000fd5b50505050600b60009054906101000a900473ffffffffffffffffffffffffffffffffffffffff1673ffffffffffffffffffffffffffffffffffffffff16638340f5493384846040518463ffffffff1660e01b8152600401611b1693929190613e6d565b600060405180830381600087803b158015611b3057600080fd5b505af1158015611b44573d6000803e3d6000fd5b50505050611bd781600c60003373ffffffffffffffffffffffffffffffffffffffff1673ffffffffffffffffffffffffffffffffffffffff16815260200190815260200160002060008573ffffffffffffffffffffffffffffffffffffffff1673ffffffffffffffffffffffffffffffffffffffff16815260200190815260200160002054612ff790919063ffffffff16565b600c60003373ffffffffffffffffffffffffffffffffffffffff1673ffffffffffffffffffffffffffffffffffffffff16815260200190815260200160002060008473ffffffffffffffffffffffffffffffffffffffff1673ffffffffffffffffffffffffffffffffffffffff16815260200190815260200160002081905550611ca981600d60008573ffffffffffffffffffffffffffffffffffffffff1673ffffffffffffffffffffffffffffffffffffffff16815260200190815260200160002054612ff790919063ffffffff16565b600d60008473ffffffffffffffffffffffffffffffffffffffff1673ffffffffffffffffffffffffffffffffffffffff168152602001908152602001600020819055507f3b5083eec1a1116c56de5d6841cff8efc6a0aec9850e836ec509d6ce024ea561338383604051611d1f93929190613e6d565b60405180910390a150505050565b60096020528160005260406000208181548110611d4957600080fd5b90600052602060002001600091509150505481565b600c602052816000526040600020602052806000526040600020600091509150505481565b611d8b612f69565b73ffffffffffffffffffffffffffffffffffffffff16611da961165d565b73ffffffffffffffffffffffffffffffffffffffff1614611e32576040517f08c379a00000000000000000000000000000000000000000000000000000000081526004018080602001828103825260208152602001807f4f776e61626c653a2063616c6c6572206973206e6f7420746865206f776e657281525060200191505060405180910390fd5b600360009054906101000a900460ff1615611e82576040517f08c379a0000000000000000000000000000000000000000000000000000000008152600401611e799061420b565b60405180910390fd5b80600460006101000a81548173ffffffffffffffffffffffffffffffffffffffff021916908373ffffffffffffffffffffffffffffffffffffffff1602179055507f181dccb510f27d9c2608cbef86fad60ab59d126bc8782ea2f21763607ec4173981604051611ef29190613e37565b60405180910390a150565b60025481565b600d6020528060005260406000206000915090505481565b600160009054906101000a900473ffffffffffffffffffffffffffffffffffffffff1681565b5050565b600460009054906101000a900473ffffffffffffffffffffffffffffffffffffffff1673ffffffffffffffffffffffffffffffffffffffff163373ffffffffffffffffffffffffffffffffffffffff1614611fd5576040517f08c379a0000000000000000000000000000000000000000000000000000000008152600401611fcc906141eb565b60405180910390fd5b600360009054906101000a900460ff1615612025576040517f08c379a000000000000000000000000000000000000000000000000000000000815260040161201c9061420b565b60405180910390fd5b600073ffffffffffffffffffffffffffffffffffffffff16600360029054906101000a900473ffffffffffffffffffffffffffffffffffffffff1673ffffffffffffffffffffffffffffffffffffffff1614156120b7576040517f08c379a00000000000000000000000000000000000000000000000000000000081526004016120ae9061418b565b60405180910390fd5b806002819055506001600360006101000a81548160ff0219169083151502179055507fc72e55068a99063a2c847c0b87d2808f29d1935171e54ffa3a479533b4046b748160405161210891906142b9565b60405180910390a1600360029054906101000a900473ffffffffffffffffffffffffffffffffffffffff1673ffffffffffffffffffffffffffffffffffffffff1663d0e0ba956002546040518263ffffffff1660e01b815260040161216d91906142b9565b600060405180830381600087803b15801561218757600080fd5b505af115801561219b573d6000803e3d6000fd5b5050505050565b600b60009054906101000a900473ffffffffffffffffffffffffffffffffffffffff1681565b600360029054906101000a900473ffffffffffffffffffffffffffffffffffffffff1681565b600360029054906101000a900473ffffffffffffffffffffffffffffffffffffffff1673ffffffffffffffffffffffffffffffffffffffff1661222f612f69565b73ffffffffffffffffffffffffffffffffffffffff1614612285576040517f08c379a000000000000000000000000000000000000000000000000000000000815260040161227c906140ab565b60405180910390fd5b600073ffffffffffffffffffffffffffffffffffffffff168173ffffffffffffffffffffffffffffffffffffffff1614156122f5576040517f08c379a00000000000000000000000000000000000000000000000000000000081526004016122ec906141ab565b60405180910390fd5b60008211612338576040517f08c379a000000000000000000000000000000000000000000000000000000000815260040161232f90614299565b60405180910390fd5b600560009054906101000a900473ffffffffffffffffffffffffffffffffffffffff1673ffffffffffffffffffffffffffffffffffffffff166323b872dd61237e612f69565b3061239a670de0b6b3a764000087612f7190919063ffffffff16565b6040518463ffffffff1660e01b81526004016123b893929190613e6d565b602060405180830381600087803b1580156123d257600080fd5b505af11580156123e6573d6000803e3d6000fd5b505050506040513d601f19601f8201168201806040525081019061240a9190613743565b506000600560009054906101000a900473ffffffffffffffffffffffffffffffffffffffff1673ffffffffffffffffffffffffffffffffffffffff166370a08231306040518263ffffffff1660e01b81526004016124689190613e37565b60206040518083038186803b15801561248057600080fd5b505afa158015612494573d6000803e3d6000fd5b505050506040513d601f19601f820116820180604052508101906124b8919061387a565b90506000600960008473ffffffffffffffffffffffffffffffffffffffff1673ffffffffffffffffffffffffffffffffffffffff168152602001908152602001600020805490501415612569576008829080600181540180825580915050600190039060005260206000200160009091909190916101000a81548173ffffffffffffffffffffffffffffffffffffffff021916908373ffffffffffffffffffffffffffffffffffffffff1602179055505b600960008373ffffffffffffffffffffffffffffffffffffffff1673ffffffffffffffffffffffffffffffffffffffff1681526020019081526020016000206125c3670de0b6b3a764000085612f7190919063ffffffff16565b90806001815401808255809150506001900390600052602060002001600090919091909150556125ff6001600654612ff790919063ffffffff16565b60068190555061261a83600754612ff790919063ffffffff16565b60078190555061263d670de0b6b3a7640000610f00612f7190919063ffffffff16565b8110612854576000612674612665670de0b6b3a76400006107d0612f7190919063ffffffff16565b83612b7090919063ffffffff16565b9050600460009054906101000a900473ffffffffffffffffffffffffffffffffffffffff1673ffffffffffffffffffffffffffffffffffffffff166305f9c5976002546040518263ffffffff1660e01b81526004016126d391906142b9565b600060405180830381600087803b1580156126ed57600080fd5b505af1158015612701573d6000803e3d6000fd5b505050507f78cd33486287c682aa18f13badc425b37df2158a72b64ecfe2fa765f62c9343084846040516127369291906142d4565b60405180910390a17facd3dbb848fad50d312987d285e88fdc140a8385c5c568117c79d1437d8be32e6127676128a6565b60405161277491906142b9565b60405180910390a1600560009054906101000a900473ffffffffffffffffffffffffffffffffffffffff1673ffffffffffffffffffffffffffffffffffffffff1663a9059cbb600360029054906101000a900473ffffffffffffffffffffffffffffffffffffffff16836040518363ffffffff1660e01b81526004016127fb929190613ecd565b602060405180830381600087803b15801561281557600080fd5b505af1158015612829573d6000803e3d6000fd5b505050506040513d601f19601f8201168201806040525081019061284d9190613743565b505061288e565b7f78cd33486287c682aa18f13badc425b37df2158a72b64ecfe2fa765f62c9343083836040516128859291906142d4565b60405180910390a15b505050565b6107d081565b6000600880549050905090565b6000600560009054906101000a900473ffffffffffffffffffffffffffffffffffffffff1673ffffffffffffffffffffffffffffffffffffffff166370a08231306040518263ffffffff1660e01b81526004016129039190613e37565b60206040518083038186803b15801561291b57600080fd5b505afa15801561292f573d6000803e3d6000fd5b505050506040513d601f19601f82011682018060405250810190612953919061387a565b905090565b612960612f69565b73ffffffffffffffffffffffffffffffffffffffff1661297e61165d565b73ffffffffffffffffffffffffffffffffffffffff1614612a07576040517f08c379a00000000000000000000000000000000000000000000000000000000081526004018080602001828103825260208152602001807f4f776e61626c653a2063616c6c6572206973206e6f7420746865206f776e657281525060200191505060405180910390fd5b600073ffffffffffffffffffffffffffffffffffffffff168173ffffffffffffffffffffffffffffffffffffffff161415612a8d576040517f08c379a00000000000000000000000000000000000000000000000000000000081526004018080602001828103825260268152602001806146606026913960400191505060405180910390fd5b8073ffffffffffffffffffffffffffffffffffffffff1660008054906101000a900473ffffffffffffffffffffffffffffffffffffffff1673ffffffffffffffffffffffffffffffffffffffff167f8be0079c531659141344cd1fd0a4f28419497f9722a3daafe3b4186f6b6457e060405160405180910390a3806000806101000a81548173ffffffffffffffffffffffffffffffffffffffff021916908373ffffffffffffffffffffffffffffffffffffffff16021790555050565b600560009054906101000a900473ffffffffffffffffffffffffffffffffffffffff1681565b600082821115612be8576040517f08c379a000000000000000000000000000000000000000000000000000000000815260040180806020018281038252601e8152602001807f536166654d6174683a207375627472616374696f6e206f766572666c6f77000081525060200191505060405180910390fd5b818303905092915050565b60606008805480602002602001604051908101604052809291908181526020018280548015612c7757602002820191906000526020600020905b8160009054906101000a900473ffffffffffffffffffffffffffffffffffffffff1673ffffffffffffffffffffffffffffffffffffffff1681526020019060010190808311612c2d575b505050505090506060815167ffffffffffffffff81118015612c9857600080fd5b50604051908082528060200260200182016040528015612cc75781602001602082028036833780820191505090505b50905060005b8251811015612da457612d7f60096000858481518110612ce957fe5b602002602001015173ffffffffffffffffffffffffffffffffffffffff1673ffffffffffffffffffffffffffffffffffffffff168152602001908152602001600020805480602002602001604051908101604052809291908181526020018280548015612d7557602002820191906000526020600020905b815481526020019060010190808311612d61575b505050505061307f565b828281518110612d8b57fe5b6020026020010181815250508080600101915050612ccd565b506060612db28284516130eb565b90506060612dc085836131a8565b905060005b8451811015612ea957612e46828281518110612ddd57fe5b6020026020010151600a6000888581518110612df557fe5b602002602001015173ffffffffffffffffffffffffffffffffffffffff1673ffffffffffffffffffffffffffffffffffffffff16815260200190815260200160002054612ff790919063ffffffff16565b600a6000878481518110612e5657fe5b602002602001015173ffffffffffffffffffffffffffffffffffffffff1673ffffffffffffffffffffffffffffffffffffffff168152602001908152602001600020819055508080600101915050612dc5565b505050505050565b60005b600880549050811015612f50576009600060088381548110612ed257fe5b9060005260206000200160009054906101000a900473ffffffffffffffffffffffffffffffffffffffff1673ffffffffffffffffffffffffffffffffffffffff1673ffffffffffffffffffffffffffffffffffffffff1681526020019081526020016000206000612f4391906133c8565b8080600101915050612eb4565b5060086000612f5f91906133e9565b6000600681905550565b600033905090565b600080831415612f845760009050612ff1565b6000828402905082848281612f9557fe5b0414612fec576040517f08c379a00000000000000000000000000000000000000000000000000000000081526004018080602001828103825260218152602001806146866021913960400191505060405180910390fd5b809150505b92915050565b600080828401905083811015613075576040517f08c379a000000000000000000000000000000000000000000000000000000000815260040180806020018281038252601b8152602001807f536166654d6174683a206164646974696f6e206f766572666c6f77000000000081525060200191505060405180910390fd5b8091505092915050565b6000806000905060005b83518110156130cf576130c06130b18583815181106130a457fe5b6020026020010151613273565b83612ff790919063ffffffff16565b91508080600101915050613089565b506130e38182612f7190919063ffffffff16565b915050919050565b606060006130f984846132d5565b905060608367ffffffffffffffff8111801561311457600080fd5b506040519080825280602002602001820160405280156131435781602001602082028036833780820191505090505b50905060005b8481101561319c576131778387838151811061316157fe5b602002602001015161333f90919063ffffffff16565b82828151811061318357fe5b6020026020010181815250508080600101915050613149565b50809250505092915050565b606060006131c2620f42408561333f90919063ffffffff16565b90506060835167ffffffffffffffff811180156131de57600080fd5b5060405190808252806020026020018201604052801561320d5781602001602082028036833780820191505090505b50905060005b84518110156132675761324285828151811061322b57fe5b602002602001015184612f7190919063ffffffff16565b82828151811061324e57fe5b6020026020010181815250508080600101915050613213565b50809250505092915050565b600060038211156132c257819050600060016002848161328f57fe5b040190505b818110156132bc578091506002818285816132ab57fe5b0401816132b457fe5b049050613294565b506132d0565b600082146132cf57600190505b5b919050565b6000806000905060005b8381101561331c5761330d8582815181106132f657fe5b602002602001015183612ff790919063ffffffff16565b915080806001019150506132df565b50613333620f42408261333f90919063ffffffff16565b90508091505092915050565b60008082116133b6576040517f08c379a000000000000000000000000000000000000000000000000000000000815260040180806020018281038252601a8152602001807f536166654d6174683a206469766973696f6e206279207a65726f00000000000081525060200191505060405180910390fd5b8183816133bf57fe5b04905092915050565b50805460008255906000526020600020908101906133e6919061340a565b50565b5080546000825590600052602060002090810190613407919061340a565b50565b5b8082111561342357600081600090555060010161340b565b5090565b600081359050613436816145d5565b92915050565b60008151905061344b816145d5565b92915050565b600081519050613460816145ec565b92915050565b600082601f83011261347757600080fd5b813561348a6134858261432e565b6142fd565b915080825260208301602083018583830111156134a657600080fd5b6134b183828461456c565b50505092915050565b6000602082840312156134cc57600080fd5b6134d660206142fd565b905060006134e68482850161363a565b60008301525092915050565b6000610180828403121561350557600080fd5b6135106101806142fd565b90506000613520848285016134ba565b600083015250602061353484828501613610565b602083015250604061354884828501613610565b604083015250606061355c84828501613610565b606083015250608061357084828501613610565b60808301525060a061358484828501613610565b60a08301525060c06135988482850161364f565b60c08301525060e06135ac8482850161343c565b60e0830152506101006135c18482850161343c565b610100830152506101206135d78482850161343c565b610120830152506101406135ed8482850161343c565b6101408301525061016061360384828501613664565b6101608301525092915050565b60008151905061361f81614603565b92915050565b6000813590506136348161461a565b92915050565b6000815190506136498161461a565b92915050565b60008151905061365e81614631565b92915050565b60008151905061367381614648565b92915050565b60006020828403121561368b57600080fd5b600061369984828501613427565b91505092915050565b6000602082840312156136b457600080fd5b60006136c28482850161343c565b91505092915050565b600080604083850312156136de57600080fd5b60006136ec85828601613427565b92505060206136fd85828601613427565b9150509250929050565b6000806040838503121561371a57600080fd5b600061372885828601613427565b925050602061373985828601613625565b9150509250929050565b60006020828403121561375557600080fd5b600061376384828501613451565b91505092915050565b6000806040838503121561377f57600080fd5b600083013567ffffffffffffffff81111561379957600080fd5b6137a585828601613466565b92505060206137b685828601613625565b9150509250929050565b6000806000606084860312156137d557600080fd5b600084013567ffffffffffffffff8111156137ef57600080fd5b6137fb86828701613466565b935050602061380c86828701613625565b925050604061381d86828701613427565b9150509250925092565b6000610180828403121561383a57600080fd5b6000613848848285016134f2565b91505092915050565b60006020828403121561386357600080fd5b600061387184828501613625565b91505092915050565b60006020828403121561388c57600080fd5b600061389a8482850161363a565b91505092915050565b600080604083850312156138b657600080fd5b60006138c485828601613625565b92505060206138d585828601613427565b9150509250929050565b60006138eb8383613e19565b60208301905092915050565b61390081614482565b82525050565b61390f816143b3565b82525050565b60006139208261436e565b61392a8185614391565b93506139358361435e565b8060005b8381101561396657815161394d88826138df565b975061395883614384565b925050600181019050613939565b5085935050505092915050565b61397c816143c5565b82525050565b61398b816143d1565b82525050565b61399a81614494565b82525050565b6139a9816144b8565b82525050565b6139b8816144dc565b82525050565b6139c781614500565b82525050565b6139d681614512565b82525050565b6139e581614524565b82525050565b6139f481614536565b82525050565b6000613a0582614379565b613a0f81856143a2565b9350613a1f81856020860161457b565b613a28816145b0565b840191505092915050565b6000613a406026836143a2565b91507f4769672063616e206f6e6c7920626520636f6d706c6574656420627920636f6d60008301527f6d756e69747900000000000000000000000000000000000000000000000000006020830152604082019050919050565b6000613aa66013836143a2565b91507f74696d656c6f636b206e6f7420616374697665000000000000000000000000006000830152602082019050919050565b6000613ae6600e836143a2565b91507f616c7265616479206163746976650000000000000000000000000000000000006000830152602082019050919050565b6000613b266009836143a2565b91507f3c2062616c616e636500000000000000000000000000000000000000000000006000830152602082019050919050565b6000613b66600c836143a2565b91507f3c20616c6c6f636174696f6e00000000000000000000000000000000000000006000830152602082019050919050565b6000613ba66013836143a2565b91507f6e6f7468696e6720746f20616c6c6f63617465000000000000000000000000006000830152602082019050919050565b6000613be66014836143a2565b91507f6e6f7420656e6f756768206f776e2066756e64730000000000000000000000006000830152602082019050919050565b6000613c266014836143a2565b91507f636f6d6d756e697479206973206e6f74207365740000000000000000000000006000830152602082019050919050565b6000613c666018836143a2565b91507f6e6f2070726f6a65637420666f72206d696c6573746f6e6500000000000000006000830152602082019050919050565b6000613ca66016836143a2565b91507f63757272656e6379206e6f7420737570706f72746564000000000000000000006000830152602082019050919050565b6000613ce6601c836143a2565b91507f6f6e6c792074726561737572792064616f2063616e20736574206964000000006000830152602082019050919050565b6000613d26601a836143a2565b91507f747265617375727920697320616c7265616479206c696e6b65640000000000006000830152602082019050919050565b6000613d666004836143a2565b91507f55534443000000000000000000000000000000000000000000000000000000006000830152602082019050919050565b6000613da66007836143a2565b91507f6e6f7420736574000000000000000000000000000000000000000000000000006000830152602082019050919050565b6000613de6600b836143a2565b91507f616d6f756e7420697320300000000000000000000000000000000000000000006000830152602082019050919050565b613e228161445a565b82525050565b613e318161445a565b82525050565b6000602082019050613e4c6000830184613906565b92915050565b6000602082019050613e6760008301846138f7565b92915050565b6000606082019050613e8260008301866138f7565b613e8f6020830185613906565b613e9c6040830184613e28565b949350505050565b6000604082019050613eb96000830185613906565b613ec66020830184613906565b9392505050565b6000604082019050613ee26000830185613906565b613eef6020830184613e28565b9392505050565b600060a082019050613f0b6000830188613906565b613f186020830187613e28565b613f2560408301866139eb565b613f3260608301856139cd565b613f3f6080830184613906565b9695505050505050565b60006020820190508181036000830152613f638184613915565b905092915050565b6000602082019050613f806000830184613973565b92915050565b6000602082019050613f9b6000830184613982565b92915050565b6000602082019050613fb66000830184613991565b92915050565b6000602082019050613fd160008301846139a0565b92915050565b6000602082019050613fec60008301846139af565b92915050565b600060208201905061400760008301846139be565b92915050565b6000602082019050818103600083015261402781846139fa565b905092915050565b6000606082019050818103600083015261404981866139fa565b90506140586020830185613e28565b6140656040830184613906565b949350505050565b6000606082019050818103600083015261408781866139fa565b90506140966020830185613e28565b6140a360408301846139dc565b949350505050565b600060208201905081810360008301526140c481613a33565b9050919050565b600060208201905081810360008301526140e481613a99565b9050919050565b6000602082019050818103600083015261410481613ad9565b9050919050565b6000602082019050818103600083015261412481613b19565b9050919050565b6000602082019050818103600083015261414481613b59565b9050919050565b6000602082019050818103600083015261416481613b99565b9050919050565b6000602082019050818103600083015261418481613bd9565b9050919050565b600060208201905081810360008301526141a481613c19565b9050919050565b600060208201905081810360008301526141c481613c59565b9050919050565b600060208201905081810360008301526141e481613c99565b9050919050565b6000602082019050818103600083015261420481613cd9565b9050919050565b6000602082019050818103600083015261422481613d19565b9050919050565b6000602082019050818103600083015261424481613d59565b9050919050565b6000604082019050818103600083015261426481613d59565b90506142736020830184613e28565b92915050565b6000602082019050818103600083015261429281613d99565b9050919050565b600060208201905081810360008301526142b281613dd9565b9050919050565b60006020820190506142ce6000830184613e28565b92915050565b60006040820190506142e96000830185613e28565b6142f66020830184613906565b9392505050565b6000604051905081810181811067ffffffffffffffff82111715614324576143236145ae565b5b8060405250919050565b600067ffffffffffffffff821115614349576143486145ae565b5b601f19601f8301169050602081019050919050565b6000819050602082019050919050565b600081519050919050565b600081519050919050565b6000602082019050919050565b600082825260208201905092915050565b600082825260208201905092915050565b60006143be8261443a565b9050919050565b60008115159050919050565b60007fffffffff0000000000000000000000000000000000000000000000000000000082169050919050565b600081905061440b826145c1565b919050565b60006fffffffffffffffffffffffffffffffff82169050919050565b600061ffff82169050919050565b600073ffffffffffffffffffffffffffffffffffffffff82169050919050565b6000819050919050565b600064ffffffffff82169050919050565b600060ff82169050919050565b600061448d82614548565b9050919050565b600061449f826144a6565b9050919050565b60006144b18261443a565b9050919050565b60006144c3826144ca565b9050919050565b60006144d58261443a565b9050919050565b60006144e7826144ee565b9050919050565b60006144f98261443a565b9050919050565b600061450b826143fd565b9050919050565b600061451d8261442c565b9050919050565b600061452f8261445a565b9050919050565b60006145418261445a565b9050919050565b60006145538261455a565b9050919050565b60006145658261443a565b9050919050565b82818337600083830152505050565b60005b8381101561459957808201518184015260208101905061457e565b838111156145a8576000848401525b50505050565bfe5b6000601f19601f8301169050919050565b600381106145d2576145d16145ae565b5b50565b6145de816143b3565b81146145e957600080fd5b50565b6145f5816143c5565b811461460057600080fd5b50565b61460c81614410565b811461461757600080fd5b50565b6146238161445a565b811461462e57600080fd5b50565b61463a81614464565b811461464557600080fd5b50565b61465181614475565b811461465c57600080fd5b5056fe4f776e61626c653a206e6577206f776e657220697320746865207a65726f2061646472657373536166654d6174683a206d756c7469706c69636174696f6e206f766572666c6f77a264697066735822122090e0f56bd6581963b2ffcbe6ffd2fdab3a64ecd7bffb20f1757edc6491f9dfdb64736f6c63430007040033a2646970667358221220eed8b312023d0b7205209acf80d6a27c836957087fc917e2538244e8ed0105a164736f6c63430007040033",
  "linkReferences": {},
  "deployedLinkReferences": {}
}