{
  "_format": "hh-sol-artifact-1",
  "contractName": "CommunityTreasuryFactory",
  "sourceName": "contracts/CommunityTreasuryFactory.sol",
  "abi": [
    {
      "inputs": [
        {
          "internalType": "enum DataTypes.CommunityTemplate",
          "name": "_template",
          "type": "uint8"
        },
        {
          "internalType": "address",
          "name": "_token",
          "type": "address"
        },
        {
          "internalType": "address",
          "name": "_dao",
          "type": "address"
        },
        {
          "internalType": "address",
          "name": "_addressesProvider",
          "type": "address"
        }
      ],
      "name": "deployTreasury",
      "outputs": [
        {
          "internalType": "address",
          "name": "",
          "type": "address"
        }
      ],
      "stateMutability": "nonpayable",
      "type": "function"
    }
  ],
  "bytecode": "0x608060405234801561001057600080fd5b50614e21806100206000396000f3fe608060405234801561001057600080fd5b506004361061002b5760003560e01c8063b453a99a14610030575b600080fd5b6100bf6004803603608081101561004657600080fd5b81019080803560ff169060200190929190803573ffffffffffffffffffffffffffffffffffffffff169060200190929190803573ffffffffffffffffffffffffffffffffffffffff169060200190929190803573ffffffffffffffffffffffffffffffffffffffff1690602001909291905050506100eb565b604051808273ffffffffffffffffffffffffffffffffffffffff16815260200191505060405180910390f35b60008085338686866040516100ff90610234565b8086600281111561010c57fe5b81526020018573ffffffffffffffffffffffffffffffffffffffff1681526020018473ffffffffffffffffffffffffffffffffffffffff1681526020018373ffffffffffffffffffffffffffffffffffffffff1681526020018273ffffffffffffffffffffffffffffffffffffffff16815260200195505050505050604051809103906000f0801580156101a4573d6000803e3d6000fd5b5090508073ffffffffffffffffffffffffffffffffffffffff1663f2fde38b336040518263ffffffff1660e01b8152600401808273ffffffffffffffffffffffffffffffffffffffff168152602001915050600060405180830381600087803b15801561021057600080fd5b505af1158015610224573d6000803e3d6000fd5b5050505080915050949350505050565b614baa806102428339019056fe60806040523480156200001157600080fd5b5060405162004baa38038062004baa83398181016040528101906200003791906200026b565b6000620000496200023560201b60201c565b9050806000806101000a81548173ffffffffffffffffffffffffffffffffffffffff021916908373ffffffffffffffffffffffffffffffffffffffff1602179055508073ffffffffffffffffffffffffffffffffffffffff16600073ffffffffffffffffffffffffffffffffffffffff167f8be0079c531659141344cd1fd0a4f28419497f9722a3daafe3b4186f6b6457e060405160405180910390a35083600360026101000a81548173ffffffffffffffffffffffffffffffffffffffff021916908373ffffffffffffffffffffffffffffffffffffffff1602179055506000600360006101000a81548160ff02191690831515021790555084600360016101000a81548160ff021916908360028111156200016257fe5b021790555080600160006101000a81548173ffffffffffffffffffffffffffffffffffffffff021916908373ffffffffffffffffffffffffffffffffffffffff16021790555082600560006101000a81548173ffffffffffffffffffffffffffffffffffffffff021916908373ffffffffffffffffffffffffffffffffffffffff16021790555081600460006101000a81548173ffffffffffffffffffffffffffffffffffffffff021916908373ffffffffffffffffffffffffffffffffffffffff16021790555050505050506200034c565b600033905090565b6000815190506200024e8162000321565b92915050565b60008151905062000265816200033b565b92915050565b600080600080600060a086880312156200028457600080fd5b6000620002948882890162000254565b9550506020620002a7888289016200023d565b9450506040620002ba888289016200023d565b9350506060620002cd888289016200023d565b9250506080620002e0888289016200023d565b9150509295509295909350565b6000620002fa8262000301565b9050919050565b600073ffffffffffffffffffffffffffffffffffffffff82169050919050565b6200032c81620002ed565b81146200033857600080fd5b50565b600381106200034957600080fd5b50565b61484e806200035c6000396000f3fe608060405234801561001057600080fd5b50600436106102265760003560e01c80638da5cb5b11610130578063d0e0ba95116100b8578063e9999b031161007c578063e9999b031461060b578063eaad31e114610629578063ef37113314610647578063f2fde38b14610665578063fc0c546a1461068157610226565b8063d0e0ba951461057b578063d33219b414610597578063dc1fb5a5146105b5578063e377672e146105d3578063e59b6830146105ef57610226565b8063a46eddcf116100ff578063a46eddcf146104d7578063af640d0f146104f3578063bc1c2c2914610511578063c72c4d1014610541578063c79013781461055f57610226565b80638da5cb5b1461043d5780639963ae8c1461045b5780639ab9c819146104775780639c28b199146104a757610226565b806346f98fec116101b35780636f2ddd93116101825780636f2ddd93146103a9578063715018a6146103c757806371586383146103d1578063785ffb37146103ef5780637ea512111461040d57610226565b806346f98fec1461035b578063472cf49b1461036557806348f650071461036f57806363a5d2981461039f57610226565b806320628b48116101fa57806320628b48146102a1578063247e9e86146102d15780632bdef29b1461030157806337f3061d1461031f5780634162169f1461033d57610226565b8062f418f41461022b57806303eeedfb14610235578063107046bd14610253578063150c4aea14610283575b600080fd5b61023361069f565b005b61023d610732565b60405161024a919061442b565b60405180910390f35b61026d600480360381019061026891906139c3565b610738565b60405161027a9190613fa9565b60405180910390f35b61028b610777565b60405161029891906140f8565b60405180910390f35b6102bb60048036038101906102b691906139c3565b610782565b6040516102c89190613fa9565b60405180910390f35b6102eb60048036038101906102e6919061383d565b6107c3565b6040516102f8919061442b565b60405180910390f35b61030961084a565b60405161031691906140dd565b60405180910390f35b61032761085d565b60405161033491906140bb565b60405180910390f35b610345610a10565b604051610352919061412e565b60405180910390f35b610363610a36565b005b61036d610b2a565b005b610389600480360381019061038491906137eb565b610f64565b60405161039691906140bb565b60405180910390f35b6103a7610ffb565b005b6103b1611172565b6040516103be9190614164565b60405180910390f35b6103cf611185565b005b6103d961130b565b6040516103e6919061442b565b60405180910390f35b6103f7611311565b604051610404919061442b565b60405180910390f35b610427600480360381019061042291906137eb565b611317565b604051610434919061442b565b60405180910390f35b61044561132f565b6040516104529190613fa9565b60405180910390f35b610475600480360381019061047091906138de565b611358565b005b610491600480360381019061048c9190613879565b6119ff565b60405161049e919061442b565b60405180910390f35b6104c160048036038101906104bc919061383d565b611a30565b6040516104ce919061442b565b60405180910390f35b6104f160048036038101906104ec91906137eb565b611a55565b005b6104fb611be8565b604051610508919061442b565b60405180910390f35b61052b600480360381019061052691906137eb565b611bee565b604051610538919061442b565b60405180910390f35b610549611c06565b6040516105569190613fa9565b60405180910390f35b61057960048036038101906105749190613879565b611c2c565b005b610595600480360381019061059091906139c3565b611c30565b005b61059f611e8d565b6040516105ac9190614149565b60405180910390f35b6105bd611eb3565b6040516105ca9190613fa9565b60405180910390f35b6105ed60048036038101906105e89190613a15565b611ed9565b005b61060960048036038101906106049190613932565b61257e565b005b6106136128de565b604051610620919061442b565b60405180910390f35b6106316128e4565b60405161063e919061442b565b60405180910390f35b61064f6128f1565b60405161065c919061442b565b60405180910390f35b61067f600480360381019061067a91906137eb565b6129a3565b005b610689612bae565b6040516106969190614113565b60405180910390f35b600b60149054906101000a900460ff16156106ef576040517f08c379a00000000000000000000000000000000000000000000000000000000081526004016106e69061425d565b60405180910390fd5b33600b60006101000a81548173ffffffffffffffffffffffffffffffffffffffff021916908373ffffffffffffffffffffffffffffffffffffffff160217905550565b60065481565b6008818154811061074857600080fd5b906000526020600020016000915054906101000a900473ffffffffffffffffffffffffffffffffffffffff1681565b63f114c7dc60e01b81565b60006008828154811061079157fe5b9060005260206000200160009054906101000a900473ffffffffffffffffffffffffffffffffffffffff169050919050565b6000600c60008473ffffffffffffffffffffffffffffffffffffffff1673ffffffffffffffffffffffffffffffffffffffff16815260200190815260200160002060008373ffffffffffffffffffffffffffffffffffffffff1673ffffffffffffffffffffffffffffffffffffffff16815260200190815260200160002054905092915050565b600b60149054906101000a900460ff1681565b60608060065467ffffffffffffffff8111801561087957600080fd5b506040519080825280602002602001820160405280156108a85781602001602082028036833780820191505090505b5090506000805b600880549050811015610a075760005b60096000600884815481106108d057fe5b9060005260206000200160009054906101000a900473ffffffffffffffffffffffffffffffffffffffff1673ffffffffffffffffffffffffffffffffffffffff1673ffffffffffffffffffffffffffffffffffffffff168152602001908152602001600020805490508110156109f957600960006008848154811061095157fe5b9060005260206000200160009054906101000a900473ffffffffffffffffffffffffffffffffffffffff1673ffffffffffffffffffffffffffffffffffffffff1673ffffffffffffffffffffffffffffffffffffffff16815260200190815260200160002081815481106109c157fe5b90600052602060002001548484815181106109d857fe5b602002602001018181525050828060010193505080806001019150506108bf565b5080806001019150506108af565b50819250505090565b600460009054906101000a900473ffffffffffffffffffffffffffffffffffffffff1681565b600560009054906101000a900473ffffffffffffffffffffffffffffffffffffffff1673ffffffffffffffffffffffffffffffffffffffff1663095ea7b3600360029054906101000a900473ffffffffffffffffffffffffffffffffffffffff167fffffffffffffffffffffffffffffffffffffffffffffffffffffffffffffffff6040518363ffffffff1660e01b8152600401610ad592919061403f565b602060405180830381600087803b158015610aef57600080fd5b505af1158015610b03573d6000803e3d6000fd5b505050506040513d601f19601f82011682018060405250810190610b2791906138b5565b50565b6000600160009054906101000a900473ffffffffffffffffffffffffffffffffffffffff1673ffffffffffffffffffffffffffffffffffffffff166339327e9e6040518163ffffffff1660e01b815260040160206040518083038186803b158015610b9457600080fd5b505afa158015610ba8573d6000803e3d6000fd5b505050506040513d601f19601f82011682018060405250810190610bcc9190613814565b73ffffffffffffffffffffffffffffffffffffffff16630261bf8b6040518163ffffffff1660e01b815260040160206040518083038186803b158015610c1157600080fd5b505afa158015610c25573d6000803e3d6000fd5b505050506040513d601f19601f82011682018060405250810190610c499190613814565b90506000600160009054906101000a900473ffffffffffffffffffffffffffffffffffffffff1673ffffffffffffffffffffffffffffffffffffffff1663dacacb4e6040518163ffffffff1660e01b8152600401610ca69061439d565b60206040518083038186803b158015610cbe57600080fd5b505afa158015610cd2573d6000803e3d6000fd5b505050506040513d601f19601f82011682018060405250810190610cf69190613814565b905060008273ffffffffffffffffffffffffffffffffffffffff166335ea6a75836040518263ffffffff1660e01b8152600401610d339190613fa9565b6101806040518083038186803b158015610d4c57600080fd5b505afa158015610d60573d6000803e3d6000fd5b505050506040513d601f19601f82011682018060405250810190610d849190613999565b6101000151905060008173ffffffffffffffffffffffffffffffffffffffff16636bd76d24600460009054906101000a900473ffffffffffffffffffffffffffffffffffffffff16306040518363ffffffff1660e01b8152600401610dea929190614016565b60206040518083038186803b158015610e0257600080fd5b505afa158015610e16573d6000803e3d6000fd5b505050506040513d601f19601f82011682018060405250810190610e3a91906139ec565b905060008111610e7f576040517f08c379a0000000000000000000000000000000000000000000000000000000008152600401610e76906142bd565b60405180910390fd5b8373ffffffffffffffffffffffffffffffffffffffff1663a415bcad848360016000600460009054906101000a900473ffffffffffffffffffffffffffffffffffffffff166040518663ffffffff1660e01b8152600401610ee4959493929190614068565b600060405180830381600087803b158015610efe57600080fd5b505af1158015610f12573d6000803e3d6000fd5b50505050610f1f81612bd4565b610f27612e92565b7ffc30ec1bee3b4fb527f0d90b4bbbf5a24b72f0964679ff277df1895e8ad2395781604051610f5691906143bd565b60405180910390a150505050565b6060600960008373ffffffffffffffffffffffffffffffffffffffff1673ffffffffffffffffffffffffffffffffffffffff168152602001908152602001600020805480602002602001604051908101604052809291908181526020018280548015610fef57602002820191906000526020600020905b815481526020019060010190808311610fdb575b50505050509050919050565b611003612f4a565b73ffffffffffffffffffffffffffffffffffffffff1660008054906101000a900473ffffffffffffffffffffffffffffffffffffffff1673ffffffffffffffffffffffffffffffffffffffff16146110c3576040517f08c379a00000000000000000000000000000000000000000000000000000000081526004018080602001828103825260208152602001807f4f776e61626c653a2063616c6c6572206973206e6f7420746865206f776e657281525060200191505060405180910390fd5b600073ffffffffffffffffffffffffffffffffffffffff16600b60009054906101000a900473ffffffffffffffffffffffffffffffffffffffff1673ffffffffffffffffffffffffffffffffffffffff161415611155576040517f08c379a000000000000000000000000000000000000000000000000000000000815260040161114c906143eb565b60405180910390fd5b6001600b60146101000a81548160ff021916908315150217905550565b600360019054906101000a900460ff1681565b61118d612f4a565b73ffffffffffffffffffffffffffffffffffffffff1660008054906101000a900473ffffffffffffffffffffffffffffffffffffffff1673ffffffffffffffffffffffffffffffffffffffff161461124d576040517f08c379a00000000000000000000000000000000000000000000000000000000081526004018080602001828103825260208152602001807f4f776e61626c653a2063616c6c6572206973206e6f7420746865206f776e657281525060200191505060405180910390fd5b600073ffffffffffffffffffffffffffffffffffffffff1660008054906101000a900473ffffffffffffffffffffffffffffffffffffffff1673ffffffffffffffffffffffffffffffffffffffff167f8be0079c531659141344cd1fd0a4f28419497f9722a3daafe3b4186f6b6457e060405160405180910390a360008060006101000a81548173ffffffffffffffffffffffffffffffffffffffff021916908373ffffffffffffffffffffffffffffffffffffffff160217905550565b60075481565b610f0081565b600a6020528060005260406000206000915090505481565b60008060009054906101000a900473ffffffffffffffffffffffffffffffffffffffff16905090565b600b60149054906101000a900460ff166113a7576040517f08c379a000000000000000000000000000000000000000000000000000000000815260040161139e9061423d565b60405180910390fd5b6000600160009054906101000a900473ffffffffffffffffffffffffffffffffffffffff1673ffffffffffffffffffffffffffffffffffffffff1663dacacb4e846040518263ffffffff1660e01b8152600401611404919061417f565b60206040518083038186803b15801561141c57600080fd5b505afa158015611430573d6000803e3d6000fd5b505050506040513d601f19601f820116820180604052508101906114549190613814565b9050600073ffffffffffffffffffffffffffffffffffffffff168173ffffffffffffffffffffffffffffffffffffffff1614156114c6576040517f08c379a00000000000000000000000000000000000000000000000000000000081526004016114bd9061433d565b60405180910390fd5b60006114e3670de0b6b3a764000084612f5290919063ffffffff16565b9050808273ffffffffffffffffffffffffffffffffffffffff166370a0823161150a612f4a565b6040518263ffffffff1660e01b81526004016115269190613fc4565b60206040518083038186803b15801561153e57600080fd5b505afa158015611552573d6000803e3d6000fd5b505050506040513d601f19601f8201168201806040525081019061157691906139ec565b10156115b7576040517f08c379a00000000000000000000000000000000000000000000000000000000081526004016115ae906142dd565b60405180910390fd5b8173ffffffffffffffffffffffffffffffffffffffff166323b872dd3330846040518463ffffffff1660e01b81526004016115f493929190613fdf565b602060405180830381600087803b15801561160e57600080fd5b505af1158015611622573d6000803e3d6000fd5b505050506040513d601f19601f8201168201806040525081019061164691906138b5565b508173ffffffffffffffffffffffffffffffffffffffff1663095ea7b3600460009054906101000a900473ffffffffffffffffffffffffffffffffffffffff16836040518363ffffffff1660e01b81526004016116a492919061403f565b602060405180830381600087803b1580156116be57600080fd5b505af11580156116d2573d6000803e3d6000fd5b505050506040513d601f19601f820116820180604052508101906116f691906138b5565b50600460009054906101000a900473ffffffffffffffffffffffffffffffffffffffff1673ffffffffffffffffffffffffffffffffffffffff1663a7829ffa858560646040518463ffffffff1660e01b8152600401611757939291906141df565b600060405180830381600087803b15801561177157600080fd5b505af1158015611785573d6000803e3d6000fd5b50505050600b60009054906101000a900473ffffffffffffffffffffffffffffffffffffffff1673ffffffffffffffffffffffffffffffffffffffff16638340f5493384846040518463ffffffff1660e01b81526004016117e893929190613fdf565b600060405180830381600087803b15801561180257600080fd5b505af1158015611816573d6000803e3d6000fd5b505050506118a981600c60003373ffffffffffffffffffffffffffffffffffffffff1673ffffffffffffffffffffffffffffffffffffffff16815260200190815260200160002060008573ffffffffffffffffffffffffffffffffffffffff1673ffffffffffffffffffffffffffffffffffffffff16815260200190815260200160002054612fd890919063ffffffff16565b600c60003373ffffffffffffffffffffffffffffffffffffffff1673ffffffffffffffffffffffffffffffffffffffff16815260200190815260200160002060008473ffffffffffffffffffffffffffffffffffffffff1673ffffffffffffffffffffffffffffffffffffffff1681526020019081526020016000208190555061197b81600d60008573ffffffffffffffffffffffffffffffffffffffff1673ffffffffffffffffffffffffffffffffffffffff16815260200190815260200160002054612fd890919063ffffffff16565b600d60008473ffffffffffffffffffffffffffffffffffffffff1673ffffffffffffffffffffffffffffffffffffffff168152602001908152602001600020819055507f3b5083eec1a1116c56de5d6841cff8efc6a0aec9850e836ec509d6ce024ea5613383836040516119f193929190613fdf565b60405180910390a150505050565b60096020528160005260406000208181548110611a1b57600080fd5b90600052602060002001600091509150505481565b600c602052816000526040600020602052806000526040600020600091509150505481565b611a5d612f4a565b73ffffffffffffffffffffffffffffffffffffffff1660008054906101000a900473ffffffffffffffffffffffffffffffffffffffff1673ffffffffffffffffffffffffffffffffffffffff1614611b1d576040517f08c379a00000000000000000000000000000000000000000000000000000000081526004018080602001828103825260208152602001807f4f776e61626c653a2063616c6c6572206973206e6f7420746865206f776e657281525060200191505060405180910390fd5b600360009054906101000a900460ff1615611b6d576040517f08c379a0000000000000000000000000000000000000000000000000000000008152600401611b649061437d565b60405180910390fd5b80600460006101000a81548173ffffffffffffffffffffffffffffffffffffffff021916908373ffffffffffffffffffffffffffffffffffffffff1602179055507f181dccb510f27d9c2608cbef86fad60ab59d126bc8782ea2f21763607ec4173981604051611bdd9190613fa9565b60405180910390a150565b60025481565b600d6020528060005260406000206000915090505481565b600160009054906101000a900473ffffffffffffffffffffffffffffffffffffffff1681565b5050565b600460009054906101000a900473ffffffffffffffffffffffffffffffffffffffff1673ffffffffffffffffffffffffffffffffffffffff163373ffffffffffffffffffffffffffffffffffffffff1614611cc0576040517f08c379a0000000000000000000000000000000000000000000000000000000008152600401611cb79061435d565b60405180910390fd5b600360009054906101000a900460ff1615611d10576040517f08c379a0000000000000000000000000000000000000000000000000000000008152600401611d079061437d565b60405180910390fd5b600073ffffffffffffffffffffffffffffffffffffffff16600360029054906101000a900473ffffffffffffffffffffffffffffffffffffffff1673ffffffffffffffffffffffffffffffffffffffff161415611da2576040517f08c379a0000000000000000000000000000000000000000000000000000000008152600401611d99906142fd565b60405180910390fd5b806002819055506001600360006101000a81548160ff0219169083151502179055507fc72e55068a99063a2c847c0b87d2808f29d1935171e54ffa3a479533b4046b7481604051611df3919061442b565b60405180910390a1600360029054906101000a900473ffffffffffffffffffffffffffffffffffffffff1673ffffffffffffffffffffffffffffffffffffffff1663d0e0ba956002546040518263ffffffff1660e01b8152600401611e58919061442b565b600060405180830381600087803b158015611e7257600080fd5b505af1158015611e86573d6000803e3d6000fd5b5050505050565b600b60009054906101000a900473ffffffffffffffffffffffffffffffffffffffff1681565b600360029054906101000a900473ffffffffffffffffffffffffffffffffffffffff1681565b600360029054906101000a900473ffffffffffffffffffffffffffffffffffffffff1673ffffffffffffffffffffffffffffffffffffffff16611f1a612f4a565b73ffffffffffffffffffffffffffffffffffffffff1614611f70576040517f08c379a0000000000000000000000000000000000000000000000000000000008152600401611f679061421d565b60405180910390fd5b600073ffffffffffffffffffffffffffffffffffffffff168173ffffffffffffffffffffffffffffffffffffffff161415611fe0576040517f08c379a0000000000000000000000000000000000000000000000000000000008152600401611fd79061431d565b60405180910390fd5b60008211612023576040517f08c379a000000000000000000000000000000000000000000000000000000000815260040161201a9061440b565b60405180910390fd5b600560009054906101000a900473ffffffffffffffffffffffffffffffffffffffff1673ffffffffffffffffffffffffffffffffffffffff166323b872dd612069612f4a565b30612085670de0b6b3a764000087612f5290919063ffffffff16565b6040518463ffffffff1660e01b81526004016120a393929190613fdf565b602060405180830381600087803b1580156120bd57600080fd5b505af11580156120d1573d6000803e3d6000fd5b505050506040513d601f19601f820116820180604052508101906120f591906138b5565b506000600560009054906101000a900473ffffffffffffffffffffffffffffffffffffffff1673ffffffffffffffffffffffffffffffffffffffff166370a08231306040518263ffffffff1660e01b81526004016121539190613fa9565b60206040518083038186803b15801561216b57600080fd5b505afa15801561217f573d6000803e3d6000fd5b505050506040513d601f19601f820116820180604052508101906121a391906139ec565b90506000600960008473ffffffffffffffffffffffffffffffffffffffff1673ffffffffffffffffffffffffffffffffffffffff168152602001908152602001600020805490501415612254576008829080600181540180825580915050600190039060005260206000200160009091909190916101000a81548173ffffffffffffffffffffffffffffffffffffffff021916908373ffffffffffffffffffffffffffffffffffffffff1602179055505b600960008373ffffffffffffffffffffffffffffffffffffffff1673ffffffffffffffffffffffffffffffffffffffff1681526020019081526020016000206122ae670de0b6b3a764000085612f5290919063ffffffff16565b90806001815401808255809150506001900390600052602060002001600090919091909150556122ea6001600654612fd890919063ffffffff16565b60068190555061230583600754612fd890919063ffffffff16565b600781905550612328670de0b6b3a7640000610f00612f5290919063ffffffff16565b811061253f57600061235f612350670de0b6b3a76400006107d0612f5290919063ffffffff16565b8361306090919063ffffffff16565b9050600460009054906101000a900473ffffffffffffffffffffffffffffffffffffffff1673ffffffffffffffffffffffffffffffffffffffff166305f9c5976002546040518263ffffffff1660e01b81526004016123be919061442b565b600060405180830381600087803b1580156123d857600080fd5b505af11580156123ec573d6000803e3d6000fd5b505050507f78cd33486287c682aa18f13badc425b37df2158a72b64ecfe2fa765f62c934308484604051612421929190614446565b60405180910390a17facd3dbb848fad50d312987d285e88fdc140a8385c5c568117c79d1437d8be32e6124526128f1565b60405161245f919061442b565b60405180910390a1600560009054906101000a900473ffffffffffffffffffffffffffffffffffffffff1673ffffffffffffffffffffffffffffffffffffffff1663a9059cbb600360029054906101000a900473ffffffffffffffffffffffffffffffffffffffff16836040518363ffffffff1660e01b81526004016124e692919061403f565b602060405180830381600087803b15801561250057600080fd5b505af1158015612514573d6000803e3d6000fd5b505050506040513d601f19601f8201168201806040525081019061253891906138b5565b5050612579565b7f78cd33486287c682aa18f13badc425b37df2158a72b64ecfe2fa765f62c934308383604051612570929190614446565b60405180910390a15b505050565b81600a60008373ffffffffffffffffffffffffffffffffffffffff1673ffffffffffffffffffffffffffffffffffffffff168152602001908152602001600020541015612600576040517f08c379a00000000000000000000000000000000000000000000000000000000081526004016125f79061429d565b60405180910390fd5b6000600160009054906101000a900473ffffffffffffffffffffffffffffffffffffffff1673ffffffffffffffffffffffffffffffffffffffff1663dacacb4e856040518263ffffffff1660e01b815260040161265d919061417f565b60206040518083038186803b15801561267557600080fd5b505afa158015612689573d6000803e3d6000fd5b505050506040513d601f19601f820116820180604052508101906126ad9190613814565b9050828173ffffffffffffffffffffffffffffffffffffffff166370a08231306040518263ffffffff1660e01b81526004016126e99190613fa9565b60206040518083038186803b15801561270157600080fd5b505afa158015612715573d6000803e3d6000fd5b505050506040513d601f19601f8201168201806040525081019061273991906139ec565b101561277a576040517f08c379a00000000000000000000000000000000000000000000000000000000081526004016127719061427d565b60405180910390fd5b6127cc83600a60008573ffffffffffffffffffffffffffffffffffffffff1673ffffffffffffffffffffffffffffffffffffffff1681526020019081526020016000205461306090919063ffffffff16565b600a60008473ffffffffffffffffffffffffffffffffffffffff1673ffffffffffffffffffffffffffffffffffffffff168152602001908152602001600020819055508073ffffffffffffffffffffffffffffffffffffffff1663a9059cbb83856040518363ffffffff1660e01b815260040161284a92919061403f565b602060405180830381600087803b15801561286457600080fd5b505af1158015612878573d6000803e3d6000fd5b505050506040513d601f19601f8201168201806040525081019061289c91906138b5565b507fb033a4af41928d910b820d64956d833641602007def71acd9f5a228d77862c908484846040516128d0939291906141a1565b60405180910390a150505050565b6107d081565b6000600880549050905090565b6000600560009054906101000a900473ffffffffffffffffffffffffffffffffffffffff1673ffffffffffffffffffffffffffffffffffffffff166370a08231306040518263ffffffff1660e01b815260040161294e9190613fa9565b60206040518083038186803b15801561296657600080fd5b505afa15801561297a573d6000803e3d6000fd5b505050506040513d601f19601f8201168201806040525081019061299e91906139ec565b905090565b6129ab612f4a565b73ffffffffffffffffffffffffffffffffffffffff1660008054906101000a900473ffffffffffffffffffffffffffffffffffffffff1673ffffffffffffffffffffffffffffffffffffffff1614612a6b576040517f08c379a00000000000000000000000000000000000000000000000000000000081526004018080602001828103825260208152602001807f4f776e61626c653a2063616c6c6572206973206e6f7420746865206f776e657281525060200191505060405180910390fd5b600073ffffffffffffffffffffffffffffffffffffffff168173ffffffffffffffffffffffffffffffffffffffff161415612af1576040517f08c379a00000000000000000000000000000000000000000000000000000000081526004018080602001828103825260268152602001806147d26026913960400191505060405180910390fd5b8073ffffffffffffffffffffffffffffffffffffffff1660008054906101000a900473ffffffffffffffffffffffffffffffffffffffff1673ffffffffffffffffffffffffffffffffffffffff167f8be0079c531659141344cd1fd0a4f28419497f9722a3daafe3b4186f6b6457e060405160405180910390a3806000806101000a81548173ffffffffffffffffffffffffffffffffffffffff021916908373ffffffffffffffffffffffffffffffffffffffff16021790555050565b600560009054906101000a900473ffffffffffffffffffffffffffffffffffffffff1681565b60606008805480602002602001604051908101604052809291908181526020018280548015612c5857602002820191906000526020600020905b8160009054906101000a900473ffffffffffffffffffffffffffffffffffffffff1673ffffffffffffffffffffffffffffffffffffffff1681526020019060010190808311612c0e575b505050505090506060815167ffffffffffffffff81118015612c7957600080fd5b50604051908082528060200260200182016040528015612ca85781602001602082028036833780820191505090505b50905060005b8251811015612d8557612d6060096000858481518110612cca57fe5b602002602001015173ffffffffffffffffffffffffffffffffffffffff1673ffffffffffffffffffffffffffffffffffffffff168152602001908152602001600020805480602002602001604051908101604052809291908181526020018280548015612d5657602002820191906000526020600020905b815481526020019060010190808311612d42575b50505050506130aa565b828281518110612d6c57fe5b6020026020010181815250508080600101915050612cae565b506060612d93828451613116565b90506060612da185836131d3565b905060005b8451811015612e8a57612e27828281518110612dbe57fe5b6020026020010151600a6000888581518110612dd657fe5b602002602001015173ffffffffffffffffffffffffffffffffffffffff1673ffffffffffffffffffffffffffffffffffffffff16815260200190815260200160002054612fd890919063ffffffff16565b600a6000878481518110612e3757fe5b602002602001015173ffffffffffffffffffffffffffffffffffffffff1673ffffffffffffffffffffffffffffffffffffffff168152602001908152602001600020819055508080600101915050612da6565b505050505050565b60005b600880549050811015612f31576009600060088381548110612eb357fe5b9060005260206000200160009054906101000a900473ffffffffffffffffffffffffffffffffffffffff1673ffffffffffffffffffffffffffffffffffffffff1673ffffffffffffffffffffffffffffffffffffffff1681526020019081526020016000206000612f24919061353a565b8080600101915050612e95565b5060086000612f40919061355b565b6000600681905550565b600033905090565b600080831415612f655760009050612fd2565b6000828402905082848281612f7657fe5b0414612fcd576040517f08c379a00000000000000000000000000000000000000000000000000000000081526004018080602001828103825260218152602001806147f86021913960400191505060405180910390fd5b809150505b92915050565b600080828401905083811015613056576040517f08c379a000000000000000000000000000000000000000000000000000000000815260040180806020018281038252601b8152602001807f536166654d6174683a206164646974696f6e206f766572666c6f77000000000081525060200191505060405180910390fd5b8091505092915050565b60006130a283836040518060400160405280601e81526020017f536166654d6174683a207375627472616374696f6e206f766572666c6f77000081525061329e565b905092915050565b6000806000905060005b83518110156130fa576130eb6130dc8583815181106130cf57fe5b602002602001015161335e565b83612fd890919063ffffffff16565b915080806001019150506130b4565b5061310e8182612f5290919063ffffffff16565b915050919050565b6060600061312484846133c0565b905060608367ffffffffffffffff8111801561313f57600080fd5b5060405190808252806020026020018201604052801561316e5781602001602082028036833780820191505090505b50905060005b848110156131c7576131a28387838151811061318c57fe5b602002602001015161342a90919063ffffffff16565b8282815181106131ae57fe5b6020026020010181815250508080600101915050613174565b50809250505092915050565b606060006131ed620f42408561342a90919063ffffffff16565b90506060835167ffffffffffffffff8111801561320957600080fd5b506040519080825280602002602001820160405280156132385781602001602082028036833780820191505090505b50905060005b84518110156132925761326d85828151811061325657fe5b602002602001015184612f5290919063ffffffff16565b82828151811061327957fe5b602002602001018181525050808060010191505061323e565b50809250505092915050565b600083831115829061334b576040517f08c379a00000000000000000000000000000000000000000000000000000000081526004018080602001828103825283818151815260200191508051906020019080838360005b838110156133105780820151818401526020810190506132f5565b50505050905090810190601f16801561333d5780820380516001836020036101000a031916815260200191505b509250505060405180910390fd5b5060008385039050809150509392505050565b600060038211156133ad57819050600060016002848161337a57fe5b040190505b818110156133a75780915060028182858161339657fe5b04018161339f57fe5b04905061337f565b506133bb565b600082146133ba57600190505b5b919050565b6000806000905060005b83811015613407576133f88582815181106133e157fe5b602002602001015183612fd890919063ffffffff16565b915080806001019150506133ca565b5061341e620f42408261342a90919063ffffffff16565b90508091505092915050565b600061346c83836040518060400160405280601a81526020017f536166654d6174683a206469766973696f6e206279207a65726f000000000000815250613474565b905092915050565b60008083118290613520576040517f08c379a00000000000000000000000000000000000000000000000000000000081526004018080602001828103825283818151815260200191508051906020019080838360005b838110156134e55780820151818401526020810190506134ca565b50505050905090810190601f1680156135125780820380516001836020036101000a031916815260200191505b509250505060405180910390fd5b50600083858161352c57fe5b049050809150509392505050565b5080546000825590600052602060002090810190613558919061357c565b50565b5080546000825590600052602060002090810190613579919061357c565b50565b5b8082111561359557600081600090555060010161357d565b5090565b6000813590506135a881614747565b92915050565b6000815190506135bd81614747565b92915050565b6000815190506135d28161475e565b92915050565b600082601f8301126135e957600080fd5b81356135fc6135f7826144a0565b61446f565b9150808252602083016020830185838301111561361857600080fd5b6136238382846146de565b50505092915050565b60006020828403121561363e57600080fd5b613648602061446f565b90506000613658848285016137ac565b60008301525092915050565b6000610180828403121561367757600080fd5b61368261018061446f565b905060006136928482850161362c565b60008301525060206136a684828501613782565b60208301525060406136ba84828501613782565b60408301525060606136ce84828501613782565b60608301525060806136e284828501613782565b60808301525060a06136f684828501613782565b60a08301525060c061370a848285016137c1565b60c08301525060e061371e848285016135ae565b60e083015250610100613733848285016135ae565b61010083015250610120613749848285016135ae565b6101208301525061014061375f848285016135ae565b61014083015250610160613775848285016137d6565b6101608301525092915050565b60008151905061379181614775565b92915050565b6000813590506137a68161478c565b92915050565b6000815190506137bb8161478c565b92915050565b6000815190506137d0816147a3565b92915050565b6000815190506137e5816147ba565b92915050565b6000602082840312156137fd57600080fd5b600061380b84828501613599565b91505092915050565b60006020828403121561382657600080fd5b6000613834848285016135ae565b91505092915050565b6000806040838503121561385057600080fd5b600061385e85828601613599565b925050602061386f85828601613599565b9150509250929050565b6000806040838503121561388c57600080fd5b600061389a85828601613599565b92505060206138ab85828601613797565b9150509250929050565b6000602082840312156138c757600080fd5b60006138d5848285016135c3565b91505092915050565b600080604083850312156138f157600080fd5b600083013567ffffffffffffffff81111561390b57600080fd5b613917858286016135d8565b925050602061392885828601613797565b9150509250929050565b60008060006060848603121561394757600080fd5b600084013567ffffffffffffffff81111561396157600080fd5b61396d868287016135d8565b935050602061397e86828701613797565b925050604061398f86828701613599565b9150509250925092565b600061018082840312156139ac57600080fd5b60006139ba84828501613664565b91505092915050565b6000602082840312156139d557600080fd5b60006139e384828501613797565b91505092915050565b6000602082840312156139fe57600080fd5b6000613a0c848285016137ac565b91505092915050565b60008060408385031215613a2857600080fd5b6000613a3685828601613797565b9250506020613a4785828601613599565b9150509250929050565b6000613a5d8383613f8b565b60208301905092915050565b613a72816145f4565b82525050565b613a8181614525565b82525050565b6000613a92826144e0565b613a9c8185614503565b9350613aa7836144d0565b8060005b83811015613ad8578151613abf8882613a51565b9750613aca836144f6565b925050600181019050613aab565b5085935050505092915050565b613aee81614537565b82525050565b613afd81614543565b82525050565b613b0c81614606565b82525050565b613b1b8161462a565b82525050565b613b2a8161464e565b82525050565b613b3981614672565b82525050565b613b4881614684565b82525050565b613b5781614696565b82525050565b613b66816146a8565b82525050565b6000613b77826144eb565b613b818185614514565b9350613b918185602086016146ed565b613b9a81614722565b840191505092915050565b6000613bb2602683614514565b91507f4769672063616e206f6e6c7920626520636f6d706c6574656420627920636f6d60008301527f6d756e69747900000000000000000000000000000000000000000000000000006020830152604082019050919050565b6000613c18601383614514565b91507f74696d656c6f636b206e6f7420616374697665000000000000000000000000006000830152602082019050919050565b6000613c58600e83614514565b91507f616c7265616479206163746976650000000000000000000000000000000000006000830152602082019050919050565b6000613c98600983614514565b91507f3c2062616c616e636500000000000000000000000000000000000000000000006000830152602082019050919050565b6000613cd8600c83614514565b91507f3c20616c6c6f636174696f6e00000000000000000000000000000000000000006000830152602082019050919050565b6000613d18601383614514565b91507f6e6f7468696e6720746f20616c6c6f63617465000000000000000000000000006000830152602082019050919050565b6000613d58601483614514565b91507f6e6f7420656e6f756768206f776e2066756e64730000000000000000000000006000830152602082019050919050565b6000613d98601483614514565b91507f636f6d6d756e697479206973206e6f74207365740000000000000000000000006000830152602082019050919050565b6000613dd8601883614514565b91507f6e6f2070726f6a65637420666f72206d696c6573746f6e6500000000000000006000830152602082019050919050565b6000613e18601683614514565b91507f63757272656e6379206e6f7420737570706f72746564000000000000000000006000830152602082019050919050565b6000613e58601c83614514565b91507f6f6e6c792074726561737572792064616f2063616e20736574206964000000006000830152602082019050919050565b6000613e98601a83614514565b91507f747265617375727920697320616c7265616479206c696e6b65640000000000006000830152602082019050919050565b6000613ed8600483614514565b91507f55534443000000000000000000000000000000000000000000000000000000006000830152602082019050919050565b6000613f18600783614514565b91507f6e6f7420736574000000000000000000000000000000000000000000000000006000830152602082019050919050565b6000613f58600b83614514565b91507f616d6f756e7420697320300000000000000000000000000000000000000000006000830152602082019050919050565b613f94816145cc565b82525050565b613fa3816145cc565b82525050565b6000602082019050613fbe6000830184613a78565b92915050565b6000602082019050613fd96000830184613a69565b92915050565b6000606082019050613ff46000830186613a69565b6140016020830185613a78565b61400e6040830184613f9a565b949350505050565b600060408201905061402b6000830185613a78565b6140386020830184613a78565b9392505050565b60006040820190506140546000830185613a78565b6140616020830184613f9a565b9392505050565b600060a08201905061407d6000830188613a78565b61408a6020830187613f9a565b6140976040830186613b5d565b6140a46060830185613b3f565b6140b16080830184613a78565b9695505050505050565b600060208201905081810360008301526140d58184613a87565b905092915050565b60006020820190506140f26000830184613ae5565b92915050565b600060208201905061410d6000830184613af4565b92915050565b60006020820190506141286000830184613b03565b92915050565b60006020820190506141436000830184613b12565b92915050565b600060208201905061415e6000830184613b21565b92915050565b60006020820190506141796000830184613b30565b92915050565b600060208201905081810360008301526141998184613b6c565b905092915050565b600060608201905081810360008301526141bb8186613b6c565b90506141ca6020830185613f9a565b6141d76040830184613a78565b949350505050565b600060608201905081810360008301526141f98186613b6c565b90506142086020830185613f9a565b6142156040830184613b4e565b949350505050565b6000602082019050818103600083015261423681613ba5565b9050919050565b6000602082019050818103600083015261425681613c0b565b9050919050565b6000602082019050818103600083015261427681613c4b565b9050919050565b6000602082019050818103600083015261429681613c8b565b9050919050565b600060208201905081810360008301526142b681613ccb565b9050919050565b600060208201905081810360008301526142d681613d0b565b9050919050565b600060208201905081810360008301526142f681613d4b565b9050919050565b6000602082019050818103600083015261431681613d8b565b9050919050565b6000602082019050818103600083015261433681613dcb565b9050919050565b6000602082019050818103600083015261435681613e0b565b9050919050565b6000602082019050818103600083015261437681613e4b565b9050919050565b6000602082019050818103600083015261439681613e8b565b9050919050565b600060208201905081810360008301526143b681613ecb565b9050919050565b600060408201905081810360008301526143d681613ecb565b90506143e56020830184613f9a565b92915050565b6000602082019050818103600083015261440481613f0b565b9050919050565b6000602082019050818103600083015261442481613f4b565b9050919050565b60006020820190506144406000830184613f9a565b92915050565b600060408201905061445b6000830185613f9a565b6144686020830184613a78565b9392505050565b6000604051905081810181811067ffffffffffffffff8211171561449657614495614720565b5b8060405250919050565b600067ffffffffffffffff8211156144bb576144ba614720565b5b601f19601f8301169050602081019050919050565b6000819050602082019050919050565b600081519050919050565b600081519050919050565b6000602082019050919050565b600082825260208201905092915050565b600082825260208201905092915050565b6000614530826145ac565b9050919050565b60008115159050919050565b60007fffffffff0000000000000000000000000000000000000000000000000000000082169050919050565b600081905061457d82614733565b919050565b60006fffffffffffffffffffffffffffffffff82169050919050565b600061ffff82169050919050565b600073ffffffffffffffffffffffffffffffffffffffff82169050919050565b6000819050919050565b600064ffffffffff82169050919050565b600060ff82169050919050565b60006145ff826146ba565b9050919050565b600061461182614618565b9050919050565b6000614623826145ac565b9050919050565b60006146358261463c565b9050919050565b6000614647826145ac565b9050919050565b600061465982614660565b9050919050565b600061466b826145ac565b9050919050565b600061467d8261456f565b9050919050565b600061468f8261459e565b9050919050565b60006146a1826145cc565b9050919050565b60006146b3826145cc565b9050919050565b60006146c5826146cc565b9050919050565b60006146d7826145ac565b9050919050565b82818337600083830152505050565b60005b8381101561470b5780820151818401526020810190506146f0565b8381111561471a576000848401525b50505050565bfe5b6000601f19601f8301169050919050565b6003811061474457614743614720565b5b50565b61475081614525565b811461475b57600080fd5b50565b61476781614537565b811461477257600080fd5b50565b61477e81614582565b811461478957600080fd5b50565b614795816145cc565b81146147a057600080fd5b50565b6147ac816145d6565b81146147b757600080fd5b50565b6147c3816145e7565b81146147ce57600080fd5b5056fe4f776e61626c653a206e6577206f776e657220697320746865207a65726f2061646472657373536166654d6174683a206d756c7469706c69636174696f6e206f766572666c6f77a26469706673582212205be1d4d2b5bee25d9d2cb1c89c90ecaeacb04385b288f755d84aeee9ce4f5c6b64736f6c63430007040033a26469706673582212203b53b2d923ebbcbbc0c4f85c07476c34ea7337210ff7d08b60ffda9f66ce6e4e64736f6c63430007040033",
  "linkReferences": {},
  "deployedLinkReferences": {}
}