{
  "_format": "hh-sol-artifact-1",
  "contractName": "CommunityTreasuryFactory",
  "sourceName": "contracts/CommunityTreasuryFactory.sol",
  "abi": [
    {
      "inputs": [
        {
          "internalType": "enum DataTypes.CommunityTemplate",
          "name": "_template",
          "type": "uint8"
        },
        {
          "internalType": "address",
          "name": "_token",
          "type": "address"
        },
        {
          "internalType": "address",
          "name": "_dao",
          "type": "address"
        },
        {
          "internalType": "address",
          "name": "_dai",
          "type": "address"
        },
        {
          "internalType": "address",
          "name": "_usdc",
          "type": "address"
        },
        {
          "internalType": "address",
          "name": "_lendingPoolAP",
          "type": "address"
        }
      ],
      "name": "deployTreasury",
      "outputs": [
        {
          "internalType": "address",
          "name": "",
          "type": "address"
        }
      ],
      "stateMutability": "nonpayable",
      "type": "function"
    }
  ],
  "bytecode": "0x608060405234801561001057600080fd5b506142bb806100206000396000f3fe608060405234801561001057600080fd5b506004361061002b5760003560e01c80633479fe5014610030575b600080fd5b6100ff600480360360c081101561004657600080fd5b81019080803560ff169060200190929190803573ffffffffffffffffffffffffffffffffffffffff169060200190929190803573ffffffffffffffffffffffffffffffffffffffff169060200190929190803573ffffffffffffffffffffffffffffffffffffffff169060200190929190803573ffffffffffffffffffffffffffffffffffffffff169060200190929190803573ffffffffffffffffffffffffffffffffffffffff16906020019092919050505061012b565b604051808273ffffffffffffffffffffffffffffffffffffffff16815260200191505060405180910390f35b60008087878787878760405161014090610294565b8087600281111561014d57fe5b81526020018673ffffffffffffffffffffffffffffffffffffffff1681526020018573ffffffffffffffffffffffffffffffffffffffff1681526020018473ffffffffffffffffffffffffffffffffffffffff1681526020018373ffffffffffffffffffffffffffffffffffffffff1681526020018273ffffffffffffffffffffffffffffffffffffffff1681526020019650505050505050604051809103906000f080158015610202573d6000803e3d6000fd5b5090508073ffffffffffffffffffffffffffffffffffffffff1663f2fde38b336040518263ffffffff1660e01b8152600401808273ffffffffffffffffffffffffffffffffffffffff168152602001915050600060405180830381600087803b15801561026e57600080fd5b505af1158015610282573d6000803e3d6000fd5b50505050809150509695505050505050565b613fe4806102a28339019056fe60806040523480156200001157600080fd5b5060405162003fe438038062003fe4833981810160405281019062000037919062000335565b600062000049620002ff60201b60201c565b9050806000806101000a81548173ffffffffffffffffffffffffffffffffffffffff021916908373ffffffffffffffffffffffffffffffffffffffff1602179055508073ffffffffffffffffffffffffffffffffffffffff16600073ffffffffffffffffffffffffffffffffffffffff167f8be0079c531659141344cd1fd0a4f28419497f9722a3daafe3b4186f6b6457e060405160405180910390a350620000f7620002ff60201b60201c565b600460026101000a81548173ffffffffffffffffffffffffffffffffffffffff021916908373ffffffffffffffffffffffffffffffffffffffff1602179055506000600460006101000a81548160ff02191690831515021790555085600460016101000a81548160ff021916908360028111156200017157fe5b021790555084600660006101000a81548173ffffffffffffffffffffffffffffffffffffffff021916908373ffffffffffffffffffffffffffffffffffffffff16021790555083600560006101000a81548173ffffffffffffffffffffffffffffffffffffffff021916908373ffffffffffffffffffffffffffffffffffffffff16021790555080600160006101000a81548173ffffffffffffffffffffffffffffffffffffffff021916908373ffffffffffffffffffffffffffffffffffffffff1602179055508260026040516200024a906200044f565b908152602001604051809103902060006101000a81548173ffffffffffffffffffffffffffffffffffffffff021916908373ffffffffffffffffffffffffffffffffffffffff160217905550816002604051620002a79062000466565b908152602001604051809103902060006101000a81548173ffffffffffffffffffffffffffffffffffffffff021916908373ffffffffffffffffffffffffffffffffffffffff160217905550505050505050620004e7565b600033905090565b6000815190506200031881620004bc565b92915050565b6000815190506200032f81620004d6565b92915050565b60008060008060008060c087890312156200034f57600080fd5b60006200035f89828a016200031e565b96505060206200037289828a0162000307565b95505060406200038589828a0162000307565b94505060606200039889828a0162000307565b9350506080620003ab89828a0162000307565b92505060a0620003be89828a0162000307565b9150509295509295509295565b6000620003da6003836200047d565b91507f44414900000000000000000000000000000000000000000000000000000000006000830152600382019050919050565b60006200041c6004836200047d565b91507f55534443000000000000000000000000000000000000000000000000000000006000830152600482019050919050565b60006200045c82620003cb565b9150819050919050565b600062000473826200040d565b9150819050919050565b600081905092915050565b600062000495826200049c565b9050919050565b600073ffffffffffffffffffffffffffffffffffffffff82169050919050565b620004c78162000488565b8114620004d357600080fd5b50565b60038110620004e457600080fd5b50565b613aed80620004f76000396000f3fe608060405234801561001057600080fd5b50600436106102265760003560e01c8063785ffb3711610130578063c7901378116100b8578063e9999b031161007c578063e9999b031461061d578063eaad31e11461063b578063ef37113314610659578063f2fde38b14610677578063fc0c546a1461069357610226565b8063c79013781461058d578063d0e0ba95146105a9578063d33219b4146105c5578063dc1fb5a5146105e3578063e377672e1461060157610226565b80639c28b199116100ff5780639c28b199146104d7578063a46eddcf14610507578063af640d0f14610523578063bc1c2c2914610541578063bdc5a9561461057157610226565b8063785ffb371461044f5780638da5cb5b1461046d5780639963ae8c1461048b5780639ab9c819146104a757610226565b806337f3061d116101b357806348f650071161018257806348f65007146103cf57806363a5d298146103ff5780636f2ddd9314610409578063715018a614610427578063715863831461043157610226565b806337f3061d1461036b57806339327e9e146103895780634162169f146103a757806346f98fec146103c557610226565b806315da0b02116101fa57806315da0b02146102a157806320628b48146102bd578063247e9e86146102ed5780632bdef29b1461031d5780633705abf11461033b57610226565b8062f418f41461022b57806303eeedfb14610235578063107046bd14610253578063150c4aea14610283575b600080fd5b6102336106b1565b005b61023d610744565b60405161024a919061371a565b60405180910390f35b61026d60048036038101906102689190612e47565b61074a565b60405161027a9190613384565b60405180910390f35b61028b610789565b60405161029891906134aa565b60405180910390f35b6102bb60048036038101906102b69190612cbf565b610794565b005b6102d760048036038101906102d29190612e47565b610a19565b6040516102e49190613384565b60405180910390f35b61030760048036038101906103029190612d11565b610a5a565b604051610314919061371a565b60405180910390f35b610325610ae1565b604051610332919061348f565b60405180910390f35b61035560048036038101906103509190612db2565b610af4565b6040516103629190613384565b60405180910390f35b610373610b3d565b604051610380919061346d565b60405180910390f35b610391610cf0565b60405161039e91906134e0565b60405180910390f35b6103af610d16565b6040516103bc91906134fb565b60405180910390f35b6103cd610d3c565b005b6103e960048036038101906103e49190612cbf565b610e30565b6040516103f6919061346d565b60405180910390f35b610407610ec7565b005b61041161103e565b60405161041e9190613531565b60405180910390f35b61042f611051565b005b6104396111d7565b604051610446919061371a565b60405180910390f35b6104576111dd565b604051610464919061371a565b60405180910390f35b6104756111e3565b6040516104829190613384565b60405180910390f35b6104a560048036038101906104a09190612df3565b61120c565b005b6104c160048036038101906104bc9190612d4d565b611847565b6040516104ce919061371a565b60405180910390f35b6104f160048036038101906104ec9190612d11565b611878565b6040516104fe919061371a565b60405180910390f35b610521600480360381019061051c9190612cbf565b61189d565b005b61052b611a30565b604051610538919061371a565b60405180910390f35b61055b60048036038101906105569190612cbf565b611a36565b604051610568919061371a565b60405180910390f35b61058b60048036038101906105869190612df3565b611a4e565b005b6105a760048036038101906105a29190612d4d565b611c83565b005b6105c360048036038101906105be9190612e47565b611c87565b005b6105cd611ee4565b6040516105da9190613516565b60405180910390f35b6105eb611f0a565b6040516105f89190613384565b60405180910390f35b61061b60048036038101906106169190612e99565b611f30565b005b6106256125d5565b604051610632919061371a565b60405180910390f35b6106436125db565b604051610650919061371a565b60405180910390f35b6106616125e8565b60405161066e919061371a565b60405180910390f35b610691600480360381019061068c9190612cbf565b61269a565b005b61069b6128a5565b6040516106a891906134c5565b60405180910390f35b600b60149054906101000a900460ff1615610701576040517f08c379a00000000000000000000000000000000000000000000000000000000081526004016106f8906135fa565b60405180910390fd5b33600b60006101000a81548173ffffffffffffffffffffffffffffffffffffffff021916908373ffffffffffffffffffffffffffffffffffffffff160217905550565b60075481565b6009818154811061075a57600080fd5b906000526020600020016000915054906101000a900473ffffffffffffffffffffffffffffffffffffffff1681565b63f114c7dc60e01b81565b61079c6128cb565b73ffffffffffffffffffffffffffffffffffffffff1660008054906101000a900473ffffffffffffffffffffffffffffffffffffffff1673ffffffffffffffffffffffffffffffffffffffff161461085c576040517f08c379a00000000000000000000000000000000000000000000000000000000081526004018080602001828103825260208152602001807f4f776e61626c653a2063616c6c6572206973206e6f7420746865206f776e657281525060200191505060405180910390fd5b600460009054906101000a900460ff16156108ac576040517f08c379a00000000000000000000000000000000000000000000000000000000081526004016108a3906136ba565b60405180910390fd5b80600460026101000a81548173ffffffffffffffffffffffffffffffffffffffff021916908373ffffffffffffffffffffffffffffffffffffffff160217905550600660009054906101000a900473ffffffffffffffffffffffffffffffffffffffff1673ffffffffffffffffffffffffffffffffffffffff1663095ea7b3600460029054906101000a900473ffffffffffffffffffffffffffffffffffffffff167fffffffffffffffffffffffffffffffffffffffffffffffffffffffffffffffff6040518363ffffffff1660e01b815260040161098c9291906133f1565b602060405180830381600087803b1580156109a657600080fd5b505af11580156109ba573d6000803e3d6000fd5b505050506040513d601f19601f820116820180604052508101906109de9190612d89565b507fb954b00fb708b65e61e5af666f5ce5050a9a566a4c6cc31e34fb24d03459106f81604051610a0e9190613384565b60405180910390a150565b600060098281548110610a2857fe5b9060005260206000200160009054906101000a900473ffffffffffffffffffffffffffffffffffffffff169050919050565b6000600c60008473ffffffffffffffffffffffffffffffffffffffff1673ffffffffffffffffffffffffffffffffffffffff16815260200190815260200160002060008373ffffffffffffffffffffffffffffffffffffffff1673ffffffffffffffffffffffffffffffffffffffff16815260200190815260200160002054905092915050565b600b60149054906101000a900460ff1681565b6002818051602081018201805184825260208301602085012081835280955050505050506000915054906101000a900473ffffffffffffffffffffffffffffffffffffffff1681565b60608060075467ffffffffffffffff81118015610b5957600080fd5b50604051908082528060200260200182016040528015610b885781602001602082028036833780820191505090505b5090506000805b600980549050811015610ce75760005b600a600060098481548110610bb057fe5b9060005260206000200160009054906101000a900473ffffffffffffffffffffffffffffffffffffffff1673ffffffffffffffffffffffffffffffffffffffff1673ffffffffffffffffffffffffffffffffffffffff16815260200190815260200160002080549050811015610cd957600a600060098481548110610c3157fe5b9060005260206000200160009054906101000a900473ffffffffffffffffffffffffffffffffffffffff1673ffffffffffffffffffffffffffffffffffffffff1673ffffffffffffffffffffffffffffffffffffffff1681526020019081526020016000208181548110610ca157fe5b9060005260206000200154848481518110610cb857fe5b60200260200101818152505082806001019350508080600101915050610b9f565b508080600101915050610b8f565b50819250505090565b600160009054906101000a900473ffffffffffffffffffffffffffffffffffffffff1681565b600560009054906101000a900473ffffffffffffffffffffffffffffffffffffffff1681565b600660009054906101000a900473ffffffffffffffffffffffffffffffffffffffff1673ffffffffffffffffffffffffffffffffffffffff1663095ea7b3600460029054906101000a900473ffffffffffffffffffffffffffffffffffffffff167fffffffffffffffffffffffffffffffffffffffffffffffffffffffffffffffff6040518363ffffffff1660e01b8152600401610ddb9291906133f1565b602060405180830381600087803b158015610df557600080fd5b505af1158015610e09573d6000803e3d6000fd5b505050506040513d601f19601f82011682018060405250810190610e2d9190612d89565b50565b6060600a60008373ffffffffffffffffffffffffffffffffffffffff1673ffffffffffffffffffffffffffffffffffffffff168152602001908152602001600020805480602002602001604051908101604052809291908181526020018280548015610ebb57602002820191906000526020600020905b815481526020019060010190808311610ea7575b50505050509050919050565b610ecf6128cb565b73ffffffffffffffffffffffffffffffffffffffff1660008054906101000a900473ffffffffffffffffffffffffffffffffffffffff1673ffffffffffffffffffffffffffffffffffffffff1614610f8f576040517f08c379a00000000000000000000000000000000000000000000000000000000081526004018080602001828103825260208152602001807f4f776e61626c653a2063616c6c6572206973206e6f7420746865206f776e657281525060200191505060405180910390fd5b600073ffffffffffffffffffffffffffffffffffffffff16600b60009054906101000a900473ffffffffffffffffffffffffffffffffffffffff1673ffffffffffffffffffffffffffffffffffffffff161415611021576040517f08c379a0000000000000000000000000000000000000000000000000000000008152600401611018906136da565b60405180910390fd5b6001600b60146101000a81548160ff021916908315150217905550565b600460019054906101000a900460ff1681565b6110596128cb565b73ffffffffffffffffffffffffffffffffffffffff1660008054906101000a900473ffffffffffffffffffffffffffffffffffffffff1673ffffffffffffffffffffffffffffffffffffffff1614611119576040517f08c379a00000000000000000000000000000000000000000000000000000000081526004018080602001828103825260208152602001807f4f776e61626c653a2063616c6c6572206973206e6f7420746865206f776e657281525060200191505060405180910390fd5b600073ffffffffffffffffffffffffffffffffffffffff1660008054906101000a900473ffffffffffffffffffffffffffffffffffffffff1673ffffffffffffffffffffffffffffffffffffffff167f8be0079c531659141344cd1fd0a4f28419497f9722a3daafe3b4186f6b6457e060405160405180910390a360008060006101000a81548173ffffffffffffffffffffffffffffffffffffffff021916908373ffffffffffffffffffffffffffffffffffffffff160217905550565b60085481565b610f0081565b60008060009054906101000a900473ffffffffffffffffffffffffffffffffffffffff16905090565b600b60149054906101000a900460ff1661125b576040517f08c379a0000000000000000000000000000000000000000000000000000000008152600401611252906135da565b60405180910390fd5b600060028360405161126d919061336d565b908152602001604051809103902060009054906101000a900473ffffffffffffffffffffffffffffffffffffffff169050600073ffffffffffffffffffffffffffffffffffffffff168173ffffffffffffffffffffffffffffffffffffffff16141561130e576040517f08c379a00000000000000000000000000000000000000000000000000000000081526004016113059061367a565b60405180910390fd5b600061132b670de0b6b3a7640000846128d390919063ffffffff16565b9050808273ffffffffffffffffffffffffffffffffffffffff166370a082316113526128cb565b6040518263ffffffff1660e01b815260040161136e919061339f565b60206040518083038186803b15801561138657600080fd5b505afa15801561139a573d6000803e3d6000fd5b505050506040513d601f19601f820116820180604052508101906113be9190612e70565b10156113ff576040517f08c379a00000000000000000000000000000000000000000000000000000000081526004016113f69061361a565b60405180910390fd5b8173ffffffffffffffffffffffffffffffffffffffff166323b872dd3330846040518463ffffffff1660e01b815260040161143c939291906133ba565b602060405180830381600087803b15801561145657600080fd5b505af115801561146a573d6000803e3d6000fd5b505050506040513d601f19601f8201168201806040525081019061148e9190612d89565b508173ffffffffffffffffffffffffffffffffffffffff1663095ea7b3600560009054906101000a900473ffffffffffffffffffffffffffffffffffffffff16836040518363ffffffff1660e01b81526004016114ec9291906133f1565b602060405180830381600087803b15801561150657600080fd5b505af115801561151a573d6000803e3d6000fd5b505050506040513d601f19601f8201168201806040525081019061153e9190612d89565b50600560009054906101000a900473ffffffffffffffffffffffffffffffffffffffff1673ffffffffffffffffffffffffffffffffffffffff1663a7829ffa858560646040518463ffffffff1660e01b815260040161159f9392919061357c565b600060405180830381600087803b1580156115b957600080fd5b505af11580156115cd573d6000803e3d6000fd5b50505050600b60009054906101000a900473ffffffffffffffffffffffffffffffffffffffff1673ffffffffffffffffffffffffffffffffffffffff16638340f5493384846040518463ffffffff1660e01b8152600401611630939291906133ba565b600060405180830381600087803b15801561164a57600080fd5b505af115801561165e573d6000803e3d6000fd5b505050506116f181600c60003373ffffffffffffffffffffffffffffffffffffffff1673ffffffffffffffffffffffffffffffffffffffff16815260200190815260200160002060008573ffffffffffffffffffffffffffffffffffffffff1673ffffffffffffffffffffffffffffffffffffffff1681526020019081526020016000205461295990919063ffffffff16565b600c60003373ffffffffffffffffffffffffffffffffffffffff1673ffffffffffffffffffffffffffffffffffffffff16815260200190815260200160002060008473ffffffffffffffffffffffffffffffffffffffff1673ffffffffffffffffffffffffffffffffffffffff168152602001908152602001600020819055506117c381600d60008573ffffffffffffffffffffffffffffffffffffffff1673ffffffffffffffffffffffffffffffffffffffff1681526020019081526020016000205461295990919063ffffffff16565b600d60008473ffffffffffffffffffffffffffffffffffffffff1673ffffffffffffffffffffffffffffffffffffffff168152602001908152602001600020819055507f3b5083eec1a1116c56de5d6841cff8efc6a0aec9850e836ec509d6ce024ea561338383604051611839939291906133ba565b60405180910390a150505050565b600a602052816000526040600020818154811061186357600080fd5b90600052602060002001600091509150505481565b600c602052816000526040600020602052806000526040600020600091509150505481565b6118a56128cb565b73ffffffffffffffffffffffffffffffffffffffff1660008054906101000a900473ffffffffffffffffffffffffffffffffffffffff1673ffffffffffffffffffffffffffffffffffffffff1614611965576040517f08c379a00000000000000000000000000000000000000000000000000000000081526004018080602001828103825260208152602001807f4f776e61626c653a2063616c6c6572206973206e6f7420746865206f776e657281525060200191505060405180910390fd5b600460009054906101000a900460ff16156119b5576040517f08c379a00000000000000000000000000000000000000000000000000000000081526004016119ac906136ba565b60405180910390fd5b80600560006101000a81548173ffffffffffffffffffffffffffffffffffffffff021916908373ffffffffffffffffffffffffffffffffffffffff1602179055507f181dccb510f27d9c2608cbef86fad60ab59d126bc8782ea2f21763607ec4173981604051611a259190613384565b60405180910390a150565b60035481565b600d6020528060005260406000206000915090505481565b6000600160009054906101000a900473ffffffffffffffffffffffffffffffffffffffff1673ffffffffffffffffffffffffffffffffffffffff16630261bf8b6040518163ffffffff1660e01b815260040160206040518083038186803b158015611ab857600080fd5b505afa158015611acc573d6000803e3d6000fd5b505050506040513d601f19601f82011682018060405250810190611af09190612ce8565b90506000600284604051611b04919061336d565b908152602001604051809103902060009054906101000a900473ffffffffffffffffffffffffffffffffffffffff169050600073ffffffffffffffffffffffffffffffffffffffff168173ffffffffffffffffffffffffffffffffffffffff161415611ba5576040517f08c379a0000000000000000000000000000000000000000000000000000000008152600401611b9c9061367a565b60405180910390fd5b8173ffffffffffffffffffffffffffffffffffffffff1663a415bcad828560016000600560009054906101000a900473ffffffffffffffffffffffffffffffffffffffff166040518663ffffffff1660e01b8152600401611c0a95949392919061341a565b600060405180830381600087803b158015611c2457600080fd5b505af1158015611c38573d6000803e3d6000fd5b50505050611c446129e1565b7ffc30ec1bee3b4fb527f0d90b4bbbf5a24b72f0964679ff277df1895e8ad239578484604051611c7592919061354c565b60405180910390a150505050565b5050565b600560009054906101000a900473ffffffffffffffffffffffffffffffffffffffff1673ffffffffffffffffffffffffffffffffffffffff163373ffffffffffffffffffffffffffffffffffffffff1614611d17576040517f08c379a0000000000000000000000000000000000000000000000000000000008152600401611d0e9061369a565b60405180910390fd5b600460009054906101000a900460ff1615611d67576040517f08c379a0000000000000000000000000000000000000000000000000000000008152600401611d5e906136ba565b60405180910390fd5b600073ffffffffffffffffffffffffffffffffffffffff16600460029054906101000a900473ffffffffffffffffffffffffffffffffffffffff1673ffffffffffffffffffffffffffffffffffffffff161415611df9576040517f08c379a0000000000000000000000000000000000000000000000000000000008152600401611df09061363a565b60405180910390fd5b806003819055506001600460006101000a81548160ff0219169083151502179055507fc72e55068a99063a2c847c0b87d2808f29d1935171e54ffa3a479533b4046b7481604051611e4a919061371a565b60405180910390a1600460029054906101000a900473ffffffffffffffffffffffffffffffffffffffff1673ffffffffffffffffffffffffffffffffffffffff1663d0e0ba956003546040518263ffffffff1660e01b8152600401611eaf919061371a565b600060405180830381600087803b158015611ec957600080fd5b505af1158015611edd573d6000803e3d6000fd5b5050505050565b600b60009054906101000a900473ffffffffffffffffffffffffffffffffffffffff1681565b600460029054906101000a900473ffffffffffffffffffffffffffffffffffffffff1681565b600460029054906101000a900473ffffffffffffffffffffffffffffffffffffffff1673ffffffffffffffffffffffffffffffffffffffff16611f716128cb565b73ffffffffffffffffffffffffffffffffffffffff1614611fc7576040517f08c379a0000000000000000000000000000000000000000000000000000000008152600401611fbe906135ba565b60405180910390fd5b600073ffffffffffffffffffffffffffffffffffffffff168173ffffffffffffffffffffffffffffffffffffffff161415612037576040517f08c379a000000000000000000000000000000000000000000000000000000000815260040161202e9061365a565b60405180910390fd5b6000821161207a576040517f08c379a0000000000000000000000000000000000000000000000000000000008152600401612071906136fa565b60405180910390fd5b600660009054906101000a900473ffffffffffffffffffffffffffffffffffffffff1673ffffffffffffffffffffffffffffffffffffffff166323b872dd6120c06128cb565b306120dc670de0b6b3a7640000876128d390919063ffffffff16565b6040518463ffffffff1660e01b81526004016120fa939291906133ba565b602060405180830381600087803b15801561211457600080fd5b505af1158015612128573d6000803e3d6000fd5b505050506040513d601f19601f8201168201806040525081019061214c9190612d89565b506000600660009054906101000a900473ffffffffffffffffffffffffffffffffffffffff1673ffffffffffffffffffffffffffffffffffffffff166370a08231306040518263ffffffff1660e01b81526004016121aa9190613384565b60206040518083038186803b1580156121c257600080fd5b505afa1580156121d6573d6000803e3d6000fd5b505050506040513d601f19601f820116820180604052508101906121fa9190612e70565b90506000600a60008473ffffffffffffffffffffffffffffffffffffffff1673ffffffffffffffffffffffffffffffffffffffff1681526020019081526020016000208054905014156122ab576009829080600181540180825580915050600190039060005260206000200160009091909190916101000a81548173ffffffffffffffffffffffffffffffffffffffff021916908373ffffffffffffffffffffffffffffffffffffffff1602179055505b600a60008373ffffffffffffffffffffffffffffffffffffffff1673ffffffffffffffffffffffffffffffffffffffff168152602001908152602001600020612305670de0b6b3a7640000856128d390919063ffffffff16565b9080600181540180825580915050600190039060005260206000200160009091909190915055612341600160075461295990919063ffffffff16565b60078190555061235c8360085461295990919063ffffffff16565b60088190555061237f670de0b6b3a7640000610f006128d390919063ffffffff16565b81106125965760006123b66123a7670de0b6b3a76400006107d06128d390919063ffffffff16565b83612a9990919063ffffffff16565b9050600560009054906101000a900473ffffffffffffffffffffffffffffffffffffffff1673ffffffffffffffffffffffffffffffffffffffff166305f9c5976003546040518263ffffffff1660e01b8152600401612415919061371a565b600060405180830381600087803b15801561242f57600080fd5b505af1158015612443573d6000803e3d6000fd5b505050507f78cd33486287c682aa18f13badc425b37df2158a72b64ecfe2fa765f62c934308484604051612478929190613735565b60405180910390a17facd3dbb848fad50d312987d285e88fdc140a8385c5c568117c79d1437d8be32e6124a96125e8565b6040516124b6919061371a565b60405180910390a1600660009054906101000a900473ffffffffffffffffffffffffffffffffffffffff1673ffffffffffffffffffffffffffffffffffffffff1663a9059cbb600460029054906101000a900473ffffffffffffffffffffffffffffffffffffffff16836040518363ffffffff1660e01b815260040161253d9291906133f1565b602060405180830381600087803b15801561255757600080fd5b505af115801561256b573d6000803e3d6000fd5b505050506040513d601f19601f8201168201806040525081019061258f9190612d89565b50506125d0565b7f78cd33486287c682aa18f13badc425b37df2158a72b64ecfe2fa765f62c9343083836040516125c7929190613735565b60405180910390a15b505050565b6107d081565b6000600980549050905090565b6000600660009054906101000a900473ffffffffffffffffffffffffffffffffffffffff1673ffffffffffffffffffffffffffffffffffffffff166370a08231306040518263ffffffff1660e01b81526004016126459190613384565b60206040518083038186803b15801561265d57600080fd5b505afa158015612671573d6000803e3d6000fd5b505050506040513d601f19601f820116820180604052508101906126959190612e70565b905090565b6126a26128cb565b73ffffffffffffffffffffffffffffffffffffffff1660008054906101000a900473ffffffffffffffffffffffffffffffffffffffff1673ffffffffffffffffffffffffffffffffffffffff1614612762576040517f08c379a00000000000000000000000000000000000000000000000000000000081526004018080602001828103825260208152602001807f4f776e61626c653a2063616c6c6572206973206e6f7420746865206f776e657281525060200191505060405180910390fd5b600073ffffffffffffffffffffffffffffffffffffffff168173ffffffffffffffffffffffffffffffffffffffff1614156127e8576040517f08c379a0000000000000000000000000000000000000000000000000000000008152600401808060200182810382526026815260200180613a716026913960400191505060405180910390fd5b8073ffffffffffffffffffffffffffffffffffffffff1660008054906101000a900473ffffffffffffffffffffffffffffffffffffffff1673ffffffffffffffffffffffffffffffffffffffff167f8be0079c531659141344cd1fd0a4f28419497f9722a3daafe3b4186f6b6457e060405160405180910390a3806000806101000a81548173ffffffffffffffffffffffffffffffffffffffff021916908373ffffffffffffffffffffffffffffffffffffffff16021790555050565b600660009054906101000a900473ffffffffffffffffffffffffffffffffffffffff1681565b600033905090565b6000808314156128e65760009050612953565b60008284029050828482816128f757fe5b041461294e576040517f08c379a0000000000000000000000000000000000000000000000000000000008152600401808060200182810382526021815260200180613a976021913960400191505060405180910390fd5b809150505b92915050565b6000808284019050838110156129d7576040517f08c379a000000000000000000000000000000000000000000000000000000000815260040180806020018281038252601b8152602001807f536166654d6174683a206164646974696f6e206f766572666c6f77000000000081525060200191505060405180910390fd5b8091505092915050565b60005b600980549050811015612a8057600a600060098381548110612a0257fe5b9060005260206000200160009054906101000a900473ffffffffffffffffffffffffffffffffffffffff1673ffffffffffffffffffffffffffffffffffffffff1673ffffffffffffffffffffffffffffffffffffffff1681526020019081526020016000206000612a739190612ba3565b80806001019150506129e4565b5060096000612a8f9190612bc4565b6000600781905550565b6000612adb83836040518060400160405280601e81526020017f536166654d6174683a207375627472616374696f6e206f766572666c6f770000815250612ae3565b905092915050565b6000838311158290612b90576040517f08c379a00000000000000000000000000000000000000000000000000000000081526004018080602001828103825283818151815260200191508051906020019080838360005b83811015612b55578082015181840152602081019050612b3a565b50505050905090810190601f168015612b825780820380516001836020036101000a031916815260200191505b509250505060405180910390fd5b5060008385039050809150509392505050565b5080546000825590600052602060002090810190612bc19190612be5565b50565b5080546000825590600052602060002090810190612be29190612be5565b50565b5b80821115612bfe576000816000905550600101612be6565b5090565b600081359050612c1181613a2b565b92915050565b600081519050612c2681613a2b565b92915050565b600081519050612c3b81613a42565b92915050565b600082601f830112612c5257600080fd5b8135612c65612c608261378f565b61375e565b91508082526020830160208301858383011115612c8157600080fd5b612c8c8382846139c2565b50505092915050565b600081359050612ca481613a59565b92915050565b600081519050612cb981613a59565b92915050565b600060208284031215612cd157600080fd5b6000612cdf84828501612c02565b91505092915050565b600060208284031215612cfa57600080fd5b6000612d0884828501612c17565b91505092915050565b60008060408385031215612d2457600080fd5b6000612d3285828601612c02565b9250506020612d4385828601612c02565b9150509250929050565b60008060408385031215612d6057600080fd5b6000612d6e85828601612c02565b9250506020612d7f85828601612c95565b9150509250929050565b600060208284031215612d9b57600080fd5b6000612da984828501612c2c565b91505092915050565b600060208284031215612dc457600080fd5b600082013567ffffffffffffffff811115612dde57600080fd5b612dea84828501612c41565b91505092915050565b60008060408385031215612e0657600080fd5b600083013567ffffffffffffffff811115612e2057600080fd5b612e2c85828601612c41565b9250506020612e3d85828601612c95565b9150509250929050565b600060208284031215612e5957600080fd5b6000612e6784828501612c95565b91505092915050565b600060208284031215612e8257600080fd5b6000612e9084828501612caa565b91505092915050565b60008060408385031215612eac57600080fd5b6000612eba85828601612c95565b9250506020612ecb85828601612c02565b9150509250929050565b6000612ee1838361334f565b60208301905092915050565b612ef6816138b4565b82525050565b612f058161381f565b82525050565b6000612f16826137cf565b612f2081856137f2565b9350612f2b836137bf565b8060005b83811015612f5c578151612f438882612ed5565b9750612f4e836137e5565b925050600181019050612f2f565b5085935050505092915050565b612f7281613831565b82525050565b612f818161383d565b82525050565b612f90816138c6565b82525050565b612f9f816138ea565b82525050565b612fae8161390e565b82525050565b612fbd81613932565b82525050565b612fcc81613956565b82525050565b612fdb81613968565b82525050565b612fea8161397a565b82525050565b612ff98161398c565b82525050565b600061300a826137da565b6130148185613803565b93506130248185602086016139d1565b61302d81613a06565b840191505092915050565b6000613043826137da565b61304d8185613814565b935061305d8185602086016139d1565b80840191505092915050565b6000613076602683613803565b91507f4769672063616e206f6e6c7920626520636f6d706c6574656420627920636f6d60008301527f6d756e69747900000000000000000000000000000000000000000000000000006020830152604082019050919050565b60006130dc601383613803565b91507f74696d656c6f636b206e6f7420616374697665000000000000000000000000006000830152602082019050919050565b600061311c600e83613803565b91507f616c7265616479206163746976650000000000000000000000000000000000006000830152602082019050919050565b600061315c601483613803565b91507f6e6f7420656e6f756768206f776e2066756e64730000000000000000000000006000830152602082019050919050565b600061319c601483613803565b91507f636f6d6d756e697479206973206e6f74207365740000000000000000000000006000830152602082019050919050565b60006131dc601883613803565b91507f6e6f2070726f6a65637420666f72206d696c6573746f6e6500000000000000006000830152602082019050919050565b600061321c601683613803565b91507f63757272656e6379206e6f7420737570706f72746564000000000000000000006000830152602082019050919050565b600061325c601c83613803565b91507f6f6e6c792074726561737572792064616f2063616e20736574206964000000006000830152602082019050919050565b600061329c601a83613803565b91507f747265617375727920697320616c7265616479206c696e6b65640000000000006000830152602082019050919050565b60006132dc600783613803565b91507f6e6f7420736574000000000000000000000000000000000000000000000000006000830152602082019050919050565b600061331c600b83613803565b91507f616d6f756e7420697320300000000000000000000000000000000000000000006000830152602082019050919050565b613358816138aa565b82525050565b613367816138aa565b82525050565b60006133798284613038565b915081905092915050565b60006020820190506133996000830184612efc565b92915050565b60006020820190506133b46000830184612eed565b92915050565b60006060820190506133cf6000830186612eed565b6133dc6020830185612efc565b6133e9604083018461335e565b949350505050565b60006040820190506134066000830185612efc565b613413602083018461335e565b9392505050565b600060a08201905061342f6000830188612efc565b61343c602083018761335e565b6134496040830186612ff0565b6134566060830185612fd2565b6134636080830184612efc565b9695505050505050565b600060208201905081810360008301526134878184612f0b565b905092915050565b60006020820190506134a46000830184612f69565b92915050565b60006020820190506134bf6000830184612f78565b92915050565b60006020820190506134da6000830184612f87565b92915050565b60006020820190506134f56000830184612f96565b92915050565b60006020820190506135106000830184612fa5565b92915050565b600060208201905061352b6000830184612fb4565b92915050565b60006020820190506135466000830184612fc3565b92915050565b600060408201905081810360008301526135668185612fff565b9050613575602083018461335e565b9392505050565b600060608201905081810360008301526135968186612fff565b90506135a5602083018561335e565b6135b26040830184612fe1565b949350505050565b600060208201905081810360008301526135d381613069565b9050919050565b600060208201905081810360008301526135f3816130cf565b9050919050565b600060208201905081810360008301526136138161310f565b9050919050565b600060208201905081810360008301526136338161314f565b9050919050565b600060208201905081810360008301526136538161318f565b9050919050565b60006020820190508181036000830152613673816131cf565b9050919050565b600060208201905081810360008301526136938161320f565b9050919050565b600060208201905081810360008301526136b38161324f565b9050919050565b600060208201905081810360008301526136d38161328f565b9050919050565b600060208201905081810360008301526136f3816132cf565b9050919050565b600060208201905081810360008301526137138161330f565b9050919050565b600060208201905061372f600083018461335e565b92915050565b600060408201905061374a600083018561335e565b6137576020830184612efc565b9392505050565b6000604051905081810181811067ffffffffffffffff8211171561378557613784613a04565b5b8060405250919050565b600067ffffffffffffffff8211156137aa576137a9613a04565b5b601f19601f8301169050602081019050919050565b6000819050602082019050919050565b600081519050919050565b600081519050919050565b6000602082019050919050565b600082825260208201905092915050565b600082825260208201905092915050565b600081905092915050565b600061382a8261388a565b9050919050565b60008115159050919050565b60007fffffffff0000000000000000000000000000000000000000000000000000000082169050919050565b600081905061387782613a17565b919050565b600061ffff82169050919050565b600073ffffffffffffffffffffffffffffffffffffffff82169050919050565b6000819050919050565b60006138bf8261399e565b9050919050565b60006138d1826138d8565b9050919050565b60006138e38261388a565b9050919050565b60006138f5826138fc565b9050919050565b60006139078261388a565b9050919050565b600061391982613920565b9050919050565b600061392b8261388a565b9050919050565b600061393d82613944565b9050919050565b600061394f8261388a565b9050919050565b600061396182613869565b9050919050565b60006139738261387c565b9050919050565b6000613985826138aa565b9050919050565b6000613997826138aa565b9050919050565b60006139a9826139b0565b9050919050565b60006139bb8261388a565b9050919050565b82818337600083830152505050565b60005b838110156139ef5780820151818401526020810190506139d4565b838111156139fe576000848401525b50505050565bfe5b6000601f19601f8301169050919050565b60038110613a2857613a27613a04565b5b50565b613a348161381f565b8114613a3f57600080fd5b50565b613a4b81613831565b8114613a5657600080fd5b50565b613a62816138aa565b8114613a6d57600080fd5b5056fe4f776e61626c653a206e6577206f776e657220697320746865207a65726f2061646472657373536166654d6174683a206d756c7469706c69636174696f6e206f766572666c6f77a26469706673582212200dc9b1c71a0828b1e7f3e8d381a996e19dfd1c82edc239a16862f8a9ecb6b07464736f6c63430007040033a2646970667358221220ed79d39fd84ad2578bf82fa95b2bc124cbd2f8fdc2ea7434f6f752a5faee822464736f6c63430007040033",
  "linkReferences": {},
  "deployedLinkReferences": {}
}