{
  "_format": "hh-sol-artifact-1",
  "contractName": "Q2DistTest",
  "sourceName": "contracts/Q2DistTest.sol",
  "abi": [
    {
      "inputs": [
        {
          "internalType": "uint256[]",
          "name": "_contributions",
          "type": "uint256[]"
        }
      ],
      "name": "calcUnweightedAlloc",
      "outputs": [
        {
          "internalType": "uint256",
          "name": "",
          "type": "uint256"
        }
      ],
      "stateMutability": "pure",
      "type": "function"
    },
    {
      "inputs": [
        {
          "internalType": "uint256",
          "name": "_funds",
          "type": "uint256"
        },
        {
          "internalType": "uint256[]",
          "name": "_weights",
          "type": "uint256[]"
        }
      ],
      "name": "calcWeightedAlloc",
      "outputs": [
        {
          "internalType": "uint256[]",
          "name": "",
          "type": "uint256[]"
        }
      ],
      "stateMutability": "pure",
      "type": "function"
    },
    {
      "inputs": [
        {
          "internalType": "uint256[]",
          "name": "_unweightedAllocs",
          "type": "uint256[]"
        }
      ],
      "name": "calcWeights",
      "outputs": [
        {
          "internalType": "uint256[]",
          "name": "",
          "type": "uint256[]"
        }
      ],
      "stateMutability": "pure",
      "type": "function"
    }
  ],
  "bytecode": "0x608060405234801561001057600080fd5b506108df806100206000396000f3fe608060405234801561001057600080fd5b50600436106100415760003560e01c806375bf2ff414610046578063981864ae14610076578063be3d4fab146100a6575b600080fd5b610060600480360381019061005b9190610669565b6100d6565b60405161006d91906107b4565b60405180910390f35b610090600480360381019061008b9190610669565b6100e8565b60405161009d9190610792565b60405180910390f35b6100c060048036038101906100bb91906106aa565b6100fa565b6040516100cd9190610792565b60405180910390f35b60006100e18261010e565b9050919050565b60606100f38261017a565b9050919050565b60606101068383610286565b905092915050565b6000806000905060005b835181101561015e5761014f61014085838151811061013357fe5b6020026020010151610351565b836103b390919063ffffffff16565b91508080600101915050610118565b50610172818261043b90919063ffffffff16565b915050919050565b606060006060835167ffffffffffffffff8111801561019857600080fd5b506040519080825280602002602001820160405280156101c75781602001602082028036833780820191505090505b50905060005b845181101561020b576101fc8582815181106101e557fe5b6020026020010151846103b390919063ffffffff16565b925080806001019150506101cd565b50610222620f4240836104c190919063ffffffff16565b915060005b845181101561027b576102568386838151811061024057fe5b60200260200101516104c190919063ffffffff16565b82828151811061026257fe5b6020026020010181815250508080600101915050610227565b508092505050919050565b606060006102a0620f4240856104c190919063ffffffff16565b90506060835167ffffffffffffffff811180156102bc57600080fd5b506040519080825280602002602001820160405280156102eb5781602001602082028036833780820191505090505b50905060005b84518110156103455761032085828151811061030957fe5b60200260200101518461043b90919063ffffffff16565b82828151811061032c57fe5b60200260200101818152505080806001019150506102f1565b50809250505092915050565b600060038211156103a057819050600060016002848161036d57fe5b040190505b8181101561039a5780915060028182858161038957fe5b04018161039257fe5b049050610372565b506103ae565b600082146103ad57600190505b5b919050565b600080828401905083811015610431576040517f08c379a000000000000000000000000000000000000000000000000000000000815260040180806020018281038252601b8152602001807f536166654d6174683a206164646974696f6e206f766572666c6f77000000000081525060200191505060405180910390fd5b8091505092915050565b60008083141561044e57600090506104bb565b600082840290508284828161045f57fe5b04146104b6576040517f08c379a00000000000000000000000000000000000000000000000000000000081526004018080602001828103825260218152602001806108896021913960400191505060405180910390fd5b809150505b92915050565b600061050383836040518060400160405280601a81526020017f536166654d6174683a206469766973696f6e206279207a65726f00000000000081525061050b565b905092915050565b600080831182906105b7576040517f08c379a00000000000000000000000000000000000000000000000000000000081526004018080602001828103825283818151815260200191508051906020019080838360005b8381101561057c578082015181840152602081019050610561565b50505050905090810190601f1680156105a95780820380516001836020036101000a031916815260200191505b509250505060405180910390fd5b5060008385816105c357fe5b049050809150509392505050565b600082601f8301126105e257600080fd5b81356105f56105f082610800565b6107cf565b9150818183526020840193506020810190508385602084028201111561061a57600080fd5b60005b8381101561064a57816106308882610654565b84526020840193506020830192505060018101905061061d565b5050505092915050565b60008135905061066381610871565b92915050565b60006020828403121561067b57600080fd5b600082013567ffffffffffffffff81111561069557600080fd5b6106a1848285016105d1565b91505092915050565b600080604083850312156106bd57600080fd5b60006106cb85828601610654565b925050602083013567ffffffffffffffff8111156106e857600080fd5b6106f4858286016105d1565b9150509250929050565b600061070a8383610774565b60208301905092915050565b60006107218261083c565b61072b8185610854565b93506107368361082c565b8060005b8381101561076757815161074e88826106fe565b975061075983610847565b92505060018101905061073a565b5085935050505092915050565b61077d81610865565b82525050565b61078c81610865565b82525050565b600060208201905081810360008301526107ac8184610716565b905092915050565b60006020820190506107c96000830184610783565b92915050565b6000604051905081810181811067ffffffffffffffff821117156107f6576107f561086f565b5b8060405250919050565b600067ffffffffffffffff82111561081b5761081a61086f565b5b602082029050602081019050919050565b6000819050602082019050919050565b600081519050919050565b6000602082019050919050565b600082825260208201905092915050565b6000819050919050565bfe5b61087a81610865565b811461088557600080fd5b5056fe536166654d6174683a206d756c7469706c69636174696f6e206f766572666c6f77a2646970667358221220a877afbb5d07b9e35907229d398a6e5f3ededc86fa9f9b1c58ebb678c9e5b60864736f6c63430007040033",
  "linkReferences": {},
  "deployedLinkReferences": {}
}