{
  "_format": "hh-sol-artifact-1",
  "contractName": "Q2DistTest",
  "sourceName": "contracts/Q2DistTest.sol",
  "abi": [
    {
      "inputs": [
        {
          "internalType": "uint256[]",
          "name": "_contributions",
          "type": "uint256[]"
        }
      ],
      "name": "calcUnweightedAlloc",
      "outputs": [
        {
          "internalType": "uint256",
          "name": "",
          "type": "uint256"
        }
      ],
      "stateMutability": "pure",
      "type": "function"
    },
    {
      "inputs": [
        {
          "internalType": "uint256",
          "name": "_funds",
          "type": "uint256"
        },
        {
          "internalType": "uint256[]",
          "name": "_weights",
          "type": "uint256[]"
        }
      ],
      "name": "calcWeightedAlloc",
      "outputs": [
        {
          "internalType": "uint256[]",
          "name": "",
          "type": "uint256[]"
        }
      ],
      "stateMutability": "pure",
      "type": "function"
    },
    {
      "inputs": [
        {
          "internalType": "uint256[]",
          "name": "_unweightedAllocs",
          "type": "uint256[]"
        },
        {
          "internalType": "uint256",
          "name": "_contributiors",
          "type": "uint256"
        }
      ],
      "name": "calcWeights",
      "outputs": [
        {
          "internalType": "uint256[]",
          "name": "",
          "type": "uint256[]"
        }
      ],
      "stateMutability": "pure",
      "type": "function"
    }
  ],
  "bytecode": "0x608060405234801561001057600080fd5b506108c9806100206000396000f3fe608060405234801561001057600080fd5b50600436106100415760003560e01c806335d5184c1461004657806375bf2ff414610076578063be3d4fab146100a6575b600080fd5b610060600480360381019061005b9190610640565b6100d6565b60405161006d919061077c565b60405180910390f35b610090600480360381019061008b91906105ff565b6100ea565b60405161009d919061079e565b60405180910390f35b6100c060048036038101906100bb9190610694565b6100fc565b6040516100cd919061077c565b60405180910390f35b60606100e28383610110565b905092915050565b60006100f5826101cd565b9050919050565b60606101088383610239565b905092915050565b6060600061011e8484610304565b905060608367ffffffffffffffff8111801561013957600080fd5b506040519080825280602002602001820160405280156101685781602001602082028036833780820191505090505b50905060005b848110156101c15761019c8387838151811061018657fe5b602002602001015161036e90919063ffffffff16565b8282815181106101a857fe5b602002602001018181525050808060010191505061016e565b50809250505092915050565b6000806000905060005b835181101561021d5761020e6101ff8583815181106101f257fe5b60200260200101516103f7565b8361045990919063ffffffff16565b915080806001019150506101d7565b5061023181826104e190919063ffffffff16565b915050919050565b60606000610253620f42408561036e90919063ffffffff16565b90506060835167ffffffffffffffff8111801561026f57600080fd5b5060405190808252806020026020018201604052801561029e5781602001602082028036833780820191505090505b50905060005b84518110156102f8576102d38582815181106102bc57fe5b6020026020010151846104e190919063ffffffff16565b8282815181106102df57fe5b60200260200101818152505080806001019150506102a4565b50809250505092915050565b6000806000905060005b8381101561034b5761033c85828151811061032557fe5b60200260200101518361045990919063ffffffff16565b9150808060010191505061030e565b50610362620f42408261036e90919063ffffffff16565b90508091505092915050565b60008082116103e5576040517f08c379a000000000000000000000000000000000000000000000000000000000815260040180806020018281038252601a8152602001807f536166654d6174683a206469766973696f6e206279207a65726f00000000000081525060200191505060405180910390fd5b8183816103ee57fe5b04905092915050565b6000600382111561044657819050600060016002848161041357fe5b040190505b818110156104405780915060028182858161042f57fe5b04018161043857fe5b049050610418565b50610454565b6000821461045357600190505b5b919050565b6000808284019050838110156104d7576040517f08c379a000000000000000000000000000000000000000000000000000000000815260040180806020018281038252601b8152602001807f536166654d6174683a206164646974696f6e206f766572666c6f77000000000081525060200191505060405180910390fd5b8091505092915050565b6000808314156104f45760009050610561565b600082840290508284828161050557fe5b041461055c576040517f08c379a00000000000000000000000000000000000000000000000000000000081526004018080602001828103825260218152602001806108736021913960400191505060405180910390fd5b809150505b92915050565b600082601f83011261057857600080fd5b813561058b610586826107ea565b6107b9565b915081818352602084019350602081019050838560208402820111156105b057600080fd5b60005b838110156105e057816105c688826105ea565b8452602084019350602083019250506001810190506105b3565b5050505092915050565b6000813590506105f98161085b565b92915050565b60006020828403121561061157600080fd5b600082013567ffffffffffffffff81111561062b57600080fd5b61063784828501610567565b91505092915050565b6000806040838503121561065357600080fd5b600083013567ffffffffffffffff81111561066d57600080fd5b61067985828601610567565b925050602061068a858286016105ea565b9150509250929050565b600080604083850312156106a757600080fd5b60006106b5858286016105ea565b925050602083013567ffffffffffffffff8111156106d257600080fd5b6106de85828601610567565b9150509250929050565b60006106f4838361075e565b60208301905092915050565b600061070b82610826565b610715818561083e565b935061072083610816565b8060005b8381101561075157815161073888826106e8565b975061074383610831565b925050600181019050610724565b5085935050505092915050565b6107678161084f565b82525050565b6107768161084f565b82525050565b600060208201905081810360008301526107968184610700565b905092915050565b60006020820190506107b3600083018461076d565b92915050565b6000604051905081810181811067ffffffffffffffff821117156107e0576107df610859565b5b8060405250919050565b600067ffffffffffffffff82111561080557610804610859565b5b602082029050602081019050919050565b6000819050602082019050919050565b600081519050919050565b6000602082019050919050565b600082825260208201905092915050565b6000819050919050565bfe5b6108648161084f565b811461086f57600080fd5b5056fe536166654d6174683a206d756c7469706c69636174696f6e206f766572666c6f77a2646970667358221220d1b87f36569d8ff2c5595562a8f0db419ffe7e371619c41bf685bb7ddc90009564736f6c63430007040033",
  "linkReferences": {},
  "deployedLinkReferences": {}
}