{
  "_format": "hh-sol-artifact-1",
  "contractName": "Q2DistTest",
  "sourceName": "contracts/Q2DistTest.sol",
  "abi": [
    {
      "inputs": [
        {
          "internalType": "uint256[]",
          "name": "_contributions",
          "type": "uint256[]"
        }
      ],
      "name": "calcUnweightedAlloc",
      "outputs": [
        {
          "internalType": "uint256",
          "name": "",
          "type": "uint256"
        }
      ],
      "stateMutability": "pure",
      "type": "function"
    },
    {
      "inputs": [
        {
          "internalType": "uint256",
          "name": "_funds",
          "type": "uint256"
        },
        {
          "internalType": "uint256[]",
          "name": "_weights",
          "type": "uint256[]"
        }
      ],
      "name": "calcWeightedAlloc",
      "outputs": [
        {
          "internalType": "uint256[]",
          "name": "",
          "type": "uint256[]"
        }
      ],
      "stateMutability": "pure",
      "type": "function"
    },
    {
      "inputs": [
        {
          "internalType": "uint256[]",
          "name": "_unweightedAllocs",
          "type": "uint256[]"
        },
        {
          "internalType": "uint256",
          "name": "_contributiors",
          "type": "uint256"
        }
      ],
      "name": "calcWeights",
      "outputs": [
        {
          "internalType": "uint256[]",
          "name": "",
          "type": "uint256[]"
        }
      ],
      "stateMutability": "pure",
      "type": "function"
    }
  ],
  "bytecode": "0x608060405234801561001057600080fd5b50610933806100206000396000f3fe608060405234801561001057600080fd5b50600436106100415760003560e01c806335d5184c1461004657806375bf2ff414610076578063be3d4fab146100a6575b600080fd5b610060600480360381019061005b91906106aa565b6100d6565b60405161006d91906107e6565b60405180910390f35b610090600480360381019061008b9190610669565b6100ea565b60405161009d9190610808565b60405180910390f35b6100c060048036038101906100bb91906106fe565b6100fc565b6040516100cd91906107e6565b60405180910390f35b60606100e28383610110565b905092915050565b60006100f58261021a565b9050919050565b60606101088383610286565b905092915050565b6060600060608367ffffffffffffffff8111801561012d57600080fd5b5060405190808252806020026020018201604052801561015c5781602001602082028036833780820191505090505b50905060005b8481101561019f5761019086828151811061017957fe5b60200260200101518461035190919063ffffffff16565b92508080600101915050610162565b506101b6620f4240836103d990919063ffffffff16565b915060005b8481101561020e576101e9838783815181106101d357fe5b60200260200101516103d990919063ffffffff16565b8282815181106101f557fe5b60200260200101818152505080806001019150506101bb565b50809250505092915050565b6000806000905060005b835181101561026a5761025b61024c85838151811061023f57fe5b6020026020010151610423565b8361035190919063ffffffff16565b91508080600101915050610224565b5061027e818261048590919063ffffffff16565b915050919050565b606060006102a0620f4240856103d990919063ffffffff16565b90506060835167ffffffffffffffff811180156102bc57600080fd5b506040519080825280602002602001820160405280156102eb5781602001602082028036833780820191505090505b50905060005b84518110156103455761032085828151811061030957fe5b60200260200101518461048590919063ffffffff16565b82828151811061032c57fe5b60200260200101818152505080806001019150506102f1565b50809250505092915050565b6000808284019050838110156103cf576040517f08c379a000000000000000000000000000000000000000000000000000000000815260040180806020018281038252601b8152602001807f536166654d6174683a206164646974696f6e206f766572666c6f77000000000081525060200191505060405180910390fd5b8091505092915050565b600061041b83836040518060400160405280601a81526020017f536166654d6174683a206469766973696f6e206279207a65726f00000000000081525061050b565b905092915050565b6000600382111561047257819050600060016002848161043f57fe5b040190505b8181101561046c5780915060028182858161045b57fe5b04018161046457fe5b049050610444565b50610480565b6000821461047f57600190505b5b919050565b6000808314156104985760009050610505565b60008284029050828482816104a957fe5b0414610500576040517f08c379a00000000000000000000000000000000000000000000000000000000081526004018080602001828103825260218152602001806108dd6021913960400191505060405180910390fd5b809150505b92915050565b600080831182906105b7576040517f08c379a00000000000000000000000000000000000000000000000000000000081526004018080602001828103825283818151815260200191508051906020019080838360005b8381101561057c578082015181840152602081019050610561565b50505050905090810190601f1680156105a95780820380516001836020036101000a031916815260200191505b509250505060405180910390fd5b5060008385816105c357fe5b049050809150509392505050565b600082601f8301126105e257600080fd5b81356105f56105f082610854565b610823565b9150818183526020840193506020810190508385602084028201111561061a57600080fd5b60005b8381101561064a57816106308882610654565b84526020840193506020830192505060018101905061061d565b5050505092915050565b600081359050610663816108c5565b92915050565b60006020828403121561067b57600080fd5b600082013567ffffffffffffffff81111561069557600080fd5b6106a1848285016105d1565b91505092915050565b600080604083850312156106bd57600080fd5b600083013567ffffffffffffffff8111156106d757600080fd5b6106e3858286016105d1565b92505060206106f485828601610654565b9150509250929050565b6000806040838503121561071157600080fd5b600061071f85828601610654565b925050602083013567ffffffffffffffff81111561073c57600080fd5b610748858286016105d1565b9150509250929050565b600061075e83836107c8565b60208301905092915050565b600061077582610890565b61077f81856108a8565b935061078a83610880565b8060005b838110156107bb5781516107a28882610752565b97506107ad8361089b565b92505060018101905061078e565b5085935050505092915050565b6107d1816108b9565b82525050565b6107e0816108b9565b82525050565b60006020820190508181036000830152610800818461076a565b905092915050565b600060208201905061081d60008301846107d7565b92915050565b6000604051905081810181811067ffffffffffffffff8211171561084a576108496108c3565b5b8060405250919050565b600067ffffffffffffffff82111561086f5761086e6108c3565b5b602082029050602081019050919050565b6000819050602082019050919050565b600081519050919050565b6000602082019050919050565b600082825260208201905092915050565b6000819050919050565bfe5b6108ce816108b9565b81146108d957600080fd5b5056fe536166654d6174683a206d756c7469706c69636174696f6e206f766572666c6f77a2646970667358221220284d5fcf5f9b25e3f646f9c09337705200e0cb50556aa550348cef6a8f57420064736f6c63430007040033",
  "linkReferences": {},
  "deployedLinkReferences": {}
}