{
  "_format": "hh-sol-artifact-1",
  "contractName": "TreasuryDao",
  "sourceName": "contracts/TreasuryDao.sol",
  "abi": [
    {
      "inputs": [
        {
          "internalType": "enum DataTypes.CommunityTemplate",
          "name": "_template",
          "type": "uint8"
        },
        {
          "internalType": "address",
          "name": "_aaveDataProvider",
          "type": "address"
        },
        {
          "internalType": "address",
          "name": "_dai",
          "type": "address"
        },
        {
          "internalType": "address",
          "name": "_usdc",
          "type": "address"
        }
      ],
      "stateMutability": "nonpayable",
      "type": "constructor"
    },
    {
      "anonymous": false,
      "inputs": [
        {
          "indexed": false,
          "internalType": "address",
          "name": "_treasuryAddress",
          "type": "address"
        },
        {
          "indexed": false,
          "internalType": "address",
          "name": "_communityAddress",
          "type": "address"
        },
        {
          "indexed": false,
          "internalType": "uint256",
          "name": "_id",
          "type": "uint256"
        }
      ],
      "name": "CommunityLinked",
      "type": "event"
    },
    {
      "anonymous": false,
      "inputs": [
        {
          "indexed": false,
          "internalType": "address",
          "name": "_community",
          "type": "address"
        },
        {
          "indexed": false,
          "internalType": "address",
          "name": "_currency",
          "type": "address"
        },
        {
          "indexed": false,
          "internalType": "uint256",
          "name": "_amount",
          "type": "uint256"
        }
      ],
      "name": "Delegated",
      "type": "event"
    },
    {
      "anonymous": false,
      "inputs": [
        {
          "indexed": false,
          "internalType": "address",
          "name": "_depositor",
          "type": "address"
        },
        {
          "indexed": false,
          "internalType": "string",
          "name": "_currency",
          "type": "string"
        },
        {
          "indexed": false,
          "internalType": "uint256",
          "name": "_amount",
          "type": "uint256"
        }
      ],
      "name": "Deposited",
      "type": "event"
    },
    {
      "anonymous": false,
      "inputs": [
        {
          "indexed": true,
          "internalType": "address",
          "name": "previousOwner",
          "type": "address"
        },
        {
          "indexed": true,
          "internalType": "address",
          "name": "newOwner",
          "type": "address"
        }
      ],
      "name": "OwnershipTransferred",
      "type": "event"
    },
    {
      "anonymous": false,
      "inputs": [
        {
          "indexed": false,
          "internalType": "uint256",
          "name": "_id",
          "type": "uint256"
        }
      ],
      "name": "ThresholdReached",
      "type": "event"
    },
    {
      "inputs": [],
      "name": "IDENTITY",
      "outputs": [
        {
          "internalType": "bytes4",
          "name": "",
          "type": "bytes4"
        }
      ],
      "stateMutability": "view",
      "type": "function"
    },
    {
      "inputs": [],
      "name": "aaveProtocolDataProvider",
      "outputs": [
        {
          "internalType": "contract IProtocolDataProvider",
          "name": "",
          "type": "address"
        }
      ],
      "stateMutability": "view",
      "type": "function"
    },
    {
      "inputs": [
        {
          "internalType": "uint256",
          "name": "",
          "type": "uint256"
        }
      ],
      "name": "communityTreasuries",
      "outputs": [
        {
          "internalType": "address",
          "name": "",
          "type": "address"
        }
      ],
      "stateMutability": "view",
      "type": "function"
    },
    {
      "inputs": [
        {
          "internalType": "address",
          "name": "_currency",
          "type": "address"
        },
        {
          "internalType": "uint256",
          "name": "_amount",
          "type": "uint256"
        },
        {
          "internalType": "address",
          "name": "_deligatee",
          "type": "address"
        }
      ],
      "name": "delegate",
      "outputs": [],
      "stateMutability": "nonpayable",
      "type": "function"
    },
    {
      "inputs": [
        {
          "internalType": "string",
          "name": "_currency",
          "type": "string"
        },
        {
          "internalType": "uint256",
          "name": "_amount",
          "type": "uint256"
        },
        {
          "internalType": "uint256",
          "name": "_repayment",
          "type": "uint256"
        }
      ],
      "name": "deposit",
      "outputs": [],
      "stateMutability": "nonpayable",
      "type": "function"
    },
    {
      "inputs": [
        {
          "internalType": "string",
          "name": "",
          "type": "string"
        }
      ],
      "name": "depositableCurrenciesContracts",
      "outputs": [
        {
          "internalType": "address",
          "name": "",
          "type": "address"
        }
      ],
      "stateMutability": "view",
      "type": "function"
    },
    {
      "inputs": [
        {
          "internalType": "address",
          "name": "",
          "type": "address"
        }
      ],
      "name": "depositors",
      "outputs": [
        {
          "internalType": "uint256",
          "name": "",
          "type": "uint256"
        }
      ],
      "stateMutability": "view",
      "type": "function"
    },
    {
      "inputs": [
        {
          "internalType": "address",
          "name": "_currency",
          "type": "address"
        },
        {
          "internalType": "address",
          "name": "_member",
          "type": "address"
        }
      ],
      "name": "getBalance",
      "outputs": [
        {
          "internalType": "uint256",
          "name": "",
          "type": "uint256"
        }
      ],
      "stateMutability": "nonpayable",
      "type": "function"
    },
    {
      "inputs": [
        {
          "internalType": "address",
          "name": "_currency",
          "type": "address"
        },
        {
          "internalType": "uint256",
          "name": "_id",
          "type": "uint256"
        }
      ],
      "name": "getDeligatee",
      "outputs": [
        {
          "internalType": "address",
          "name": "",
          "type": "address"
        }
      ],
      "stateMutability": "nonpayable",
      "type": "function"
    },
    {
      "inputs": [
        {
          "internalType": "address",
          "name": "_currency",
          "type": "address"
        },
        {
          "internalType": "address",
          "name": "_deligatee",
          "type": "address"
        }
      ],
      "name": "getDeligateeBorrowedAmount",
      "outputs": [
        {
          "internalType": "uint256",
          "name": "",
          "type": "uint256"
        }
      ],
      "stateMutability": "nonpayable",
      "type": "function"
    },
    {
      "inputs": [
        {
          "internalType": "address",
          "name": "_currency",
          "type": "address"
        }
      ],
      "name": "getDeligateeCount",
      "outputs": [
        {
          "internalType": "uint256",
          "name": "",
          "type": "uint256"
        }
      ],
      "stateMutability": "nonpayable",
      "type": "function"
    },
    {
      "inputs": [
        {
          "internalType": "address",
          "name": "_currency",
          "type": "address"
        }
      ],
      "name": "getTreasuryBalance",
      "outputs": [
        {
          "internalType": "uint256",
          "name": "",
          "type": "uint256"
        }
      ],
      "stateMutability": "nonpayable",
      "type": "function"
    },
    {
      "inputs": [
        {
          "internalType": "address",
          "name": "_currency",
          "type": "address"
        }
      ],
      "name": "getTreasuryBorrowedBalance",
      "outputs": [
        {
          "internalType": "uint256",
          "name": "",
          "type": "uint256"
        }
      ],
      "stateMutability": "nonpayable",
      "type": "function"
    },
    {
      "inputs": [
        {
          "internalType": "address",
          "name": "",
          "type": "address"
        }
      ],
      "name": "isTreasuryActive",
      "outputs": [
        {
          "internalType": "bool",
          "name": "",
          "type": "bool"
        }
      ],
      "stateMutability": "view",
      "type": "function"
    },
    {
      "inputs": [
        {
          "internalType": "address",
          "name": "_treasuryAddress",
          "type": "address"
        }
      ],
      "name": "linkCommunity",
      "outputs": [],
      "stateMutability": "nonpayable",
      "type": "function"
    },
    {
      "inputs": [],
      "name": "nextId",
      "outputs": [
        {
          "internalType": "uint256",
          "name": "",
          "type": "uint256"
        }
      ],
      "stateMutability": "view",
      "type": "function"
    },
    {
      "inputs": [],
      "name": "owner",
      "outputs": [
        {
          "internalType": "address",
          "name": "",
          "type": "address"
        }
      ],
      "stateMutability": "view",
      "type": "function"
    },
    {
      "inputs": [],
      "name": "renounceOwnership",
      "outputs": [],
      "stateMutability": "nonpayable",
      "type": "function"
    },
    {
      "inputs": [
        {
          "internalType": "address",
          "name": "",
          "type": "address"
        },
        {
          "internalType": "address",
          "name": "",
          "type": "address"
        }
      ],
      "name": "repayableAmount",
      "outputs": [
        {
          "internalType": "uint256",
          "name": "",
          "type": "uint256"
        }
      ],
      "stateMutability": "view",
      "type": "function"
    },
    {
      "inputs": [],
      "name": "template",
      "outputs": [
        {
          "internalType": "enum DataTypes.CommunityTemplate",
          "name": "",
          "type": "uint8"
        }
      ],
      "stateMutability": "view",
      "type": "function"
    },
    {
      "inputs": [
        {
          "internalType": "uint256",
          "name": "_id",
          "type": "uint256"
        }
      ],
      "name": "thresholdReached",
      "outputs": [],
      "stateMutability": "nonpayable",
      "type": "function"
    },
    {
      "inputs": [],
      "name": "totalDeposited",
      "outputs": [
        {
          "internalType": "uint256",
          "name": "",
          "type": "uint256"
        }
      ],
      "stateMutability": "view",
      "type": "function"
    },
    {
      "inputs": [
        {
          "internalType": "address",
          "name": "newOwner",
          "type": "address"
        }
      ],
      "name": "transferOwnership",
      "outputs": [],
      "stateMutability": "nonpayable",
      "type": "function"
    },
    {
      "inputs": [
        {
          "internalType": "address",
          "name": "_currency",
          "type": "address"
        },
        {
          "internalType": "address",
          "name": "_deligatee",
          "type": "address"
        },
        {
          "internalType": "bool",
          "name": "_force",
          "type": "bool"
        }
      ],
      "name": "undelegate",
      "outputs": [],
      "stateMutability": "nonpayable",
      "type": "function"
    },
    {
      "inputs": [
        {
          "internalType": "address",
          "name": "_currency",
          "type": "address"
        },
        {
          "internalType": "uint256",
          "name": "_amount",
          "type": "uint256"
        }
      ],
      "name": "withdraw",
      "outputs": [],
      "stateMutability": "nonpayable",
      "type": "function"
    }
  ],
  "bytecode": "0x60806040523480156200001157600080fd5b50604051620038e2380380620038e28339818101604052810190620000379190620002b9565b6000620000496200028360201b60201c565b9050806000806101000a81548173ffffffffffffffffffffffffffffffffffffffff021916908373ffffffffffffffffffffffffffffffffffffffff1602179055508073ffffffffffffffffffffffffffffffffffffffff16600073ffffffffffffffffffffffffffffffffffffffff167f8be0079c531659141344cd1fd0a4f28419497f9722a3daafe3b4186f6b6457e060405160405180910390a350600073ffffffffffffffffffffffffffffffffffffffff168373ffffffffffffffffffffffffffffffffffffffff1614156200015a576040517f08c379a0000000000000000000000000000000000000000000000000000000008152600401620001519062000419565b60405180910390fd5b8160046040516200016b90620003eb565b908152602001604051809103902060006101000a81548173ffffffffffffffffffffffffffffffffffffffff021916908373ffffffffffffffffffffffffffffffffffffffff160217905550806004604051620001c89062000402565b908152602001604051809103902060006101000a81548173ffffffffffffffffffffffffffffffffffffffff021916908373ffffffffffffffffffffffffffffffffffffffff16021790555083600660146101000a81548160ff021916908360028111156200023357fe5b021790555082600660006101000a81548173ffffffffffffffffffffffffffffffffffffffff021916908373ffffffffffffffffffffffffffffffffffffffff16021790555050505050620004b6565b600033905090565b6000815190506200029c816200048b565b92915050565b600081519050620002b381620004a5565b92915050565b60008060008060808587031215620002d057600080fd5b6000620002e087828801620002a2565b9450506020620002f3878288016200028b565b935050604062000306878288016200028b565b925050606062000319878288016200028b565b91505092959194509250565b600062000334601e836200043b565b91507f4161766520646174612070726f76696465722063616e6e6f74206265203000006000830152602082019050919050565b6000620003766003836200044c565b91507f44414900000000000000000000000000000000000000000000000000000000006000830152600382019050919050565b6000620003b86004836200044c565b91507f55534443000000000000000000000000000000000000000000000000000000006000830152600482019050919050565b6000620003f88262000367565b9150819050919050565b60006200040f82620003a9565b9150819050919050565b60006020820190508181036000830152620004348162000325565b9050919050565b600082825260208201905092915050565b600081905092915050565b600062000464826200046b565b9050919050565b600073ffffffffffffffffffffffffffffffffffffffff82169050919050565b620004968162000457565b8114620004a257600080fd5b50565b60038110620004b357600080fd5b50565b61341c80620004c66000396000f3fe608060405234801561001057600080fd5b50600436106101735760003560e01c806375e2b5b9116100de578063c1a3286211610097578063eed75f6d11610071578063eed75f6d14610484578063f2fde38b146104b4578063f3fef3a3146104d0578063ff50abdc146104ec57610173565b8063c1a32862146103f4578063d431f13114610424578063d4fac45d1461045457610173565b806375e2b5b9146103225780637b3d7efd1461033e5780638da5cb5b1461036e5780639707c1c31461038c578063a263605d146103bc578063a7829ffa146103d857610173565b80635f9d4d2e116101305780635f9d4d2e1461027257806361b8ce8c146102905780636f2ddd93146102ae578063715018a6146102cc57806372dc6938146102d6578063744ee913146102f257610173565b806305f9c59714610178578063150c4aea146101945780631f395d4e146101b2578063307fc1aa146101e25780633705abf11461021257806357baeac814610242575b600080fd5b610192600480360381019061018d91906129dc565b61050a565b005b61019c610a70565b6040516101a99190612f7c565b60405180910390f35b6101cc60048036038101906101c79190612698565b610a7b565b6040516101d991906130ad565b60405180910390f35b6101fc60048036038101906101f791906129dc565b610a82565b6040516102099190612e11565b60405180910390f35b61022c60048036038101906102279190612934565b610ab5565b6040516102399190612e11565b60405180910390f35b61025c60048036038101906102579190612698565b610afe565b60405161026991906130ad565b60405180910390f35b61027a610b05565b6040516102879190612f97565b60405180910390f35b610298610b2b565b6040516102a591906130ad565b60405180910390f35b6102b6610b31565b6040516102c39190612fb2565b60405180910390f35b6102d4610b44565b005b6102f060048036038101906102eb9190612775565b610cca565b005b61030c600480360381019061030791906126ea565b610ccf565b60405161031991906130ad565b60405180910390f35b61033c60048036038101906103379190612800565b610cd7565b005b61035860048036038101906103539190612698565b610cdc565b6040516103659190612f61565b60405180910390f35b610376610cfc565b6040516103839190612e11565b60405180910390f35b6103a660048036038101906103a19190612698565b610d25565b6040516103b391906130ad565b60405180910390f35b6103d660048036038101906103d19190612698565b610d2c565b005b6103f260048036038101906103ed9190612975565b6111bb565b005b61040e600480360381019061040991906127c4565b611882565b60405161041b9190612e11565b60405180910390f35b61043e600480360381019061043991906126ea565b61188a565b60405161044b91906130ad565b60405180910390f35b61046e600480360381019061046991906126ea565b6118af565b60405161047b91906130ad565b60405180910390f35b61049e60048036038101906104999190612698565b6118b7565b6040516104ab91906130ad565b60405180910390f35b6104ce60048036038101906104c99190612698565b6118cf565b005b6104ea60048036038101906104e591906127c4565b611ada565b005b6104f4611ade565b60405161050191906130ad565b60405180910390f35b6001600082815260200190815260200160002060009054906101000a900473ffffffffffffffffffffffffffffffffffffffff1673ffffffffffffffffffffffffffffffffffffffff163373ffffffffffffffffffffffffffffffffffffffff16146105ab576040517f08c379a00000000000000000000000000000000000000000000000000000000081526004016105a29061300d565b60405180910390fd5b600260003373ffffffffffffffffffffffffffffffffffffffff1673ffffffffffffffffffffffffffffffffffffffff16815260200190815260200160002060009054906101000a900460ff16610637576040517f08c379a000000000000000000000000000000000000000000000000000000000815260040161062e9061306d565b60405180910390fd5b6000600660009054906101000a900473ffffffffffffffffffffffffffffffffffffffff1673ffffffffffffffffffffffffffffffffffffffff16630542975c6040518163ffffffff1660e01b815260040160206040518083038186803b1580156106a157600080fd5b505afa1580156106b5573d6000803e3d6000fd5b505050506040513d601f19601f820116820180604052508101906106d991906128b9565b73ffffffffffffffffffffffffffffffffffffffff1663fca513a86040518163ffffffff1660e01b815260040160206040518083038186803b15801561071e57600080fd5b505afa158015610732573d6000803e3d6000fd5b505050506040513d601f19601f8201168201806040525081019061075691906126c1565b90506000600660009054906101000a900473ffffffffffffffffffffffffffffffffffffffff1673ffffffffffffffffffffffffffffffffffffffff16630542975c6040518163ffffffff1660e01b815260040160206040518083038186803b1580156107c257600080fd5b505afa1580156107d6573d6000803e3d6000fd5b505050506040513d601f19601f820116820180604052508101906107fa91906128b9565b73ffffffffffffffffffffffffffffffffffffffff16630261bf8b6040518163ffffffff1660e01b815260040160206040518083038186803b15801561083f57600080fd5b505afa158015610853573d6000803e3d6000fd5b505050506040513d601f19601f8201168201806040525081019061087791906126c1565b905060008173ffffffffffffffffffffffffffffffffffffffff1663bf92857c306040518263ffffffff1660e01b81526004016108b49190612e11565b60c06040518083038186803b1580156108cc57600080fd5b505afa1580156108e0573d6000803e3d6000fd5b505050506040513d601f19601f820116820180604052508101906109049190612a2e565b5050509250505060006109e48473ffffffffffffffffffffffffffffffffffffffff1663b3596f07600460405161093a90612dfc565b908152602001604051809103902060009054906101000a900473ffffffffffffffffffffffffffffffffffffffff166040518263ffffffff1660e01b81526004016109859190612e11565b60206040518083038186803b15801561099d57600080fd5b505afa1580156109b1573d6000803e3d6000fd5b505050506040513d601f19601f820116820180604052508101906109d59190612a05565b83611ae490919063ffffffff16565b9050610a0d60646109ff605084611b2e90919063ffffffff16565b611ae490919063ffffffff16565b9050610a32610a2d670de0b6b3a764000083611b2e90919063ffffffff16565b611bb4565b7f78e5a77f9f20d8d96a78ff9fbe09d607bf641315b8965893038e859f91651c7185604051610a6191906130ad565b60405180910390a15050505050565b637eb0b43d60e01b81565b6000919050565b60016020528060005260406000206000915054906101000a900473ffffffffffffffffffffffffffffffffffffffff1681565b6004818051602081018201805184825260208301602085012081835280955050505050506000915054906101000a900473ffffffffffffffffffffffffffffffffffffffff1681565b6000919050565b600660009054906101000a900473ffffffffffffffffffffffffffffffffffffffff1681565b60035481565b600660149054906101000a900460ff1681565b610b4c611f8f565b73ffffffffffffffffffffffffffffffffffffffff1660008054906101000a900473ffffffffffffffffffffffffffffffffffffffff1673ffffffffffffffffffffffffffffffffffffffff1614610c0c576040517f08c379a00000000000000000000000000000000000000000000000000000000081526004018080602001828103825260208152602001807f4f776e61626c653a2063616c6c6572206973206e6f7420746865206f776e657281525060200191505060405180910390fd5b600073ffffffffffffffffffffffffffffffffffffffff1660008054906101000a900473ffffffffffffffffffffffffffffffffffffffff1673ffffffffffffffffffffffffffffffffffffffff167f8be0079c531659141344cd1fd0a4f28419497f9722a3daafe3b4186f6b6457e060405160405180910390a360008060006101000a81548173ffffffffffffffffffffffffffffffffffffffff021916908373ffffffffffffffffffffffffffffffffffffffff160217905550565b505050565b600092915050565b505050565b60026020528060005260406000206000915054906101000a900460ff1681565b60008060009054906101000a900473ffffffffffffffffffffffffffffffffffffffff16905090565b6000919050565b610d34611f8f565b73ffffffffffffffffffffffffffffffffffffffff1660008054906101000a900473ffffffffffffffffffffffffffffffffffffffff1673ffffffffffffffffffffffffffffffffffffffff1614610df4576040517f08c379a00000000000000000000000000000000000000000000000000000000081526004018080602001828103825260208152602001807f4f776e61626c653a2063616c6c6572206973206e6f7420746865206f776e657281525060200191505060405180910390fd5b6000819050600660149054906101000a900460ff166002811115610e1457fe5b8173ffffffffffffffffffffffffffffffffffffffff16636f2ddd936040518163ffffffff1660e01b815260040160206040518083038186803b158015610e5a57600080fd5b505afa158015610e6e573d6000803e3d6000fd5b505050506040513d601f19601f82011682018060405250810190610e92919061290b565b6002811115610e9d57fe5b14610edd576040517f08c379a0000000000000000000000000000000000000000000000000000000008152600401610ed49061308d565b60405180910390fd5b3073ffffffffffffffffffffffffffffffffffffffff168173ffffffffffffffffffffffffffffffffffffffff16634162169f6040518163ffffffff1660e01b815260040160206040518083038186803b158015610f3a57600080fd5b505afa158015610f4e573d6000803e3d6000fd5b505050506040513d601f19601f82011682018060405250810190610f7291906128e2565b73ffffffffffffffffffffffffffffffffffffffff1614610fc8576040517f08c379a0000000000000000000000000000000000000000000000000000000008152600401610fbf90612fcd565b60405180910390fd5b8160016000600354815260200190815260200160002060006101000a81548173ffffffffffffffffffffffffffffffffffffffff021916908373ffffffffffffffffffffffffffffffffffffffff1602179055506001600260008473ffffffffffffffffffffffffffffffffffffffff1673ffffffffffffffffffffffffffffffffffffffff16815260200190815260200160002060006101000a81548160ff0219169083151502179055508073ffffffffffffffffffffffffffffffffffffffff1663d0e0ba956003546040518263ffffffff1660e01b81526004016110af91906130ad565b600060405180830381600087803b1580156110c957600080fd5b505af11580156110dd573d6000803e3d6000fd5b505050507f720f042cfe589c4e7d9ece472897915730fb34a553dfd956cd4c9b0cee536a2f828273ffffffffffffffffffffffffffffffffffffffff1663dc1fb5a56040518163ffffffff1660e01b815260040160206040518083038186803b15801561114957600080fd5b505afa15801561115d573d6000803e3d6000fd5b505050506040513d601f19601f8201168201806040525081019061118191906126c1565b60035460405161119393929190612ebc565b60405180910390a16111b16001600354611f9790919063ffffffff16565b6003819055505050565b600060035411611200576040517f08c379a00000000000000000000000000000000000000000000000000000000081526004016111f790612fed565b60405180910390fd5b60006004846040516112129190612de5565b908152602001604051809103902060009054906101000a900473ffffffffffffffffffffffffffffffffffffffff169050600073ffffffffffffffffffffffffffffffffffffffff168173ffffffffffffffffffffffffffffffffffffffff1614156112b3576040517f08c379a00000000000000000000000000000000000000000000000000000000081526004016112aa9061302d565b60405180910390fd5b600081905060006112d5670de0b6b3a764000086611b2e90919063ffffffff16565b9050808273ffffffffffffffffffffffffffffffffffffffff166370a082316112fc611f8f565b6040518263ffffffff1660e01b81526004016113189190612e2c565b60206040518083038186803b15801561133057600080fd5b505afa158015611344573d6000803e3d6000fd5b505050506040513d601f19601f820116820180604052508101906113689190612a05565b10156113a9576040517f08c379a00000000000000000000000000000000000000000000000000000000081526004016113a09061304d565b60405180910390fd5b6000600660009054906101000a900473ffffffffffffffffffffffffffffffffffffffff1673ffffffffffffffffffffffffffffffffffffffff16630542975c6040518163ffffffff1660e01b815260040160206040518083038186803b15801561141357600080fd5b505afa158015611427573d6000803e3d6000fd5b505050506040513d601f19601f8201168201806040525081019061144b91906128b9565b73ffffffffffffffffffffffffffffffffffffffff16630261bf8b6040518163ffffffff1660e01b815260040160206040518083038186803b15801561149057600080fd5b505afa1580156114a4573d6000803e3d6000fd5b505050506040513d601f19601f820116820180604052508101906114c891906126c1565b90508273ffffffffffffffffffffffffffffffffffffffff166323b872dd3330856040518463ffffffff1660e01b815260040161150793929190612e47565b602060405180830381600087803b15801561152157600080fd5b505af1158015611535573d6000803e3d6000fd5b505050506040513d601f19601f820116820180604052508101906115599190612890565b508273ffffffffffffffffffffffffffffffffffffffff1663095ea7b382846040518363ffffffff1660e01b8152600401611595929190612ef3565b602060405180830381600087803b1580156115af57600080fd5b505af11580156115c3573d6000803e3d6000fd5b505050506040513d601f19601f820116820180604052508101906115e79190612890565b508073ffffffffffffffffffffffffffffffffffffffff1663e8eda9df85843060006040518563ffffffff1660e01b81526004016116289493929190612f1c565b600060405180830381600087803b15801561164257600080fd5b505af1158015611656573d6000803e3d6000fd5b5050505061170e61168360646116758886611b2e90919063ffffffff16565b611ae490919063ffffffff16565b600560003373ffffffffffffffffffffffffffffffffffffffff1673ffffffffffffffffffffffffffffffffffffffff16815260200190815260200160002060008773ffffffffffffffffffffffffffffffffffffffff1673ffffffffffffffffffffffffffffffffffffffff16815260200190815260200160002054611f9790919063ffffffff16565b600560003373ffffffffffffffffffffffffffffffffffffffff1673ffffffffffffffffffffffffffffffffffffffff16815260200190815260200160002060008673ffffffffffffffffffffffffffffffffffffffff1673ffffffffffffffffffffffffffffffffffffffff168152602001908152602001600020819055506117e082600760003373ffffffffffffffffffffffffffffffffffffffff1673ffffffffffffffffffffffffffffffffffffffff16815260200190815260200160002054611f9790919063ffffffff16565b600760003373ffffffffffffffffffffffffffffffffffffffff1673ffffffffffffffffffffffffffffffffffffffff1681526020019081526020016000208190555061183882600854611f9790919063ffffffff16565b6008819055507ffd4bdef056842e4615d2a093647094c0b9bf67c63662d614d63fefd617e0add233888860405161187193929190612e7e565b60405180910390a150505050505050565b600092915050565b6005602052816000526040600020602052806000526040600020600091509150505481565b600092915050565b60076020528060005260406000206000915090505481565b6118d7611f8f565b73ffffffffffffffffffffffffffffffffffffffff1660008054906101000a900473ffffffffffffffffffffffffffffffffffffffff1673ffffffffffffffffffffffffffffffffffffffff1614611997576040517f08c379a00000000000000000000000000000000000000000000000000000000081526004018080602001828103825260208152602001807f4f776e61626c653a2063616c6c6572206973206e6f7420746865206f776e657281525060200191505060405180910390fd5b600073ffffffffffffffffffffffffffffffffffffffff168173ffffffffffffffffffffffffffffffffffffffff161415611a1d576040517f08c379a00000000000000000000000000000000000000000000000000000000081526004018080602001828103825260268152602001806133a06026913960400191505060405180910390fd5b8073ffffffffffffffffffffffffffffffffffffffff1660008054906101000a900473ffffffffffffffffffffffffffffffffffffffff1673ffffffffffffffffffffffffffffffffffffffff167f8be0079c531659141344cd1fd0a4f28419497f9722a3daafe3b4186f6b6457e060405160405180910390a3806000806101000a81548173ffffffffffffffffffffffffffffffffffffffff021916908373ffffffffffffffffffffffffffffffffffffffff16021790555050565b5050565b60085481565b6000611b2683836040518060400160405280601a81526020017f536166654d6174683a206469766973696f6e206279207a65726f00000000000081525061201f565b905092915050565b600080831415611b415760009050611bae565b6000828402905082848281611b5257fe5b0414611ba9576040517f08c379a00000000000000000000000000000000000000000000000000000000081526004018080602001828103825260218152602001806133c66021913960400191505060405180910390fd5b809150505b92915050565b600080606060035467ffffffffffffffff81118015611bd257600080fd5b50604051908082528060200260200182016040528015611c015781602001602082028036833780820191505090505b509050606060035467ffffffffffffffff81118015611c1f57600080fd5b50604051908082528060200260200182016040528015611c4e5781602001602082028036833780820191505090505b50905060008060005b600354811015611e82576000848281518110611c6f57fe5b6020026020010190151590811515815250506001600082815260200190815260200160002060009054906101000a900473ffffffffffffffffffffffffffffffffffffffff169550600260008773ffffffffffffffffffffffffffffffffffffffff1673ffffffffffffffffffffffffffffffffffffffff16815260200190815260200160002060009054906101000a900460ff1615611e75578573ffffffffffffffffffffffffffffffffffffffff1663eaad31e16040518163ffffffff1660e01b815260040160206040518083038186803b158015611d4f57600080fd5b505afa158015611d63573d6000803e3d6000fd5b505050506040513d601f19601f82011682018060405250810190611d879190612a05565b96506000871115611e7457611e1d8673ffffffffffffffffffffffffffffffffffffffff166337f3061d6040518163ffffffff1660e01b815260040160006040518083038186803b158015611ddb57600080fd5b505afa158015611def573d6000803e3d6000fd5b505050506040513d6000823e3d601f19601f82011682018060405250810190611e18919061284f565b6120e5565b858381518110611e2957fe5b6020026020010181815250508180600101925050611e51600184611f9790919063ffffffff16565b92506001848281518110611e6157fe5b6020026020010190151590811515815250505b5b8080600101915050611c57565b506060611e8f8584612151565b90506060611e9d898361220e565b90506000925060005b600354811015611f8357858181518110611ebc57fe5b602002602001015115611f7657611f6d6001600083815260200190815260200160002060009054906101000a900473ffffffffffffffffffffffffffffffffffffffff166004604051611f0e90612dfc565b908152602001604051809103902060009054906101000a900473ffffffffffffffffffffffffffffffffffffffff16611f6864e8d4a51000868981518110611f5257fe5b6020026020010151611ae490919063ffffffff16565b6122d9565b83806001019450505b8080600101915050611ea6565b50505050505050505050565b600033905090565b600080828401905083811015612015576040517f08c379a000000000000000000000000000000000000000000000000000000000815260040180806020018281038252601b8152602001807f536166654d6174683a206164646974696f6e206f766572666c6f77000000000081525060200191505060405180910390fd5b8091505092915050565b600080831182906120cb576040517f08c379a00000000000000000000000000000000000000000000000000000000081526004018080602001828103825283818151815260200191508051906020019080838360005b83811015612090578082015181840152602081019050612075565b50505050905090810190601f1680156120bd5780820380516001836020036101000a031916815260200191505b509250505060405180910390fd5b5060008385816120d757fe5b049050809150509392505050565b6000806000905060005b83518110156121355761212661211785838151811061210a57fe5b6020026020010151612438565b83611f9790919063ffffffff16565b915080806001019150506120ef565b506121498182611b2e90919063ffffffff16565b915050919050565b6060600061215f848461249a565b905060608367ffffffffffffffff8111801561217a57600080fd5b506040519080825280602002602001820160405280156121a95781602001602082028036833780820191505090505b50905060005b84811015612202576121dd838783815181106121c757fe5b6020026020010151611ae490919063ffffffff16565b8282815181106121e957fe5b60200260200101818152505080806001019150506121af565b50809250505092915050565b60606000612228620f424085611ae490919063ffffffff16565b90506060835167ffffffffffffffff8111801561224457600080fd5b506040519080825280602002602001820160405280156122735781602001602082028036833780820191505090505b50905060005b84518110156122cd576122a885828151811061229157fe5b602002602001015184611b2e90919063ffffffff16565b8282815181106122b457fe5b6020026020010181815250508080600101915050612279565b50809250505092915050565b6000600660009054906101000a900473ffffffffffffffffffffffffffffffffffffffff1673ffffffffffffffffffffffffffffffffffffffff1663d2493b6c846040518263ffffffff1660e01b81526004016123369190612e11565b60606040518083038186803b15801561234e57600080fd5b505afa158015612362573d6000803e3d6000fd5b505050506040513d601f19601f820116820180604052508101906123869190612726565b509150508073ffffffffffffffffffffffffffffffffffffffff1663c04a8a1085846040518363ffffffff1660e01b81526004016123c5929190612ef3565b600060405180830381600087803b1580156123df57600080fd5b505af11580156123f3573d6000803e3d6000fd5b505050507fe5541a6b6103d4fa7e021ed54fad39c66f27a76bd13d374cf6240ae6bd0bb72b84848460405161242a93929190612ebc565b60405180910390a150505050565b6000600382111561248757819050600060016002848161245457fe5b040190505b818110156124815780915060028182858161247057fe5b04018161247957fe5b049050612459565b50612495565b6000821461249457600190505b5b919050565b6000806000905060005b838110156124e1576124d28582815181106124bb57fe5b602002602001015183611f9790919063ffffffff16565b915080806001019150506124a4565b506124f8620f424082611ae490919063ffffffff16565b90508091505092915050565b6000813590506125138161331c565b92915050565b6000815190506125288161331c565b92915050565b600082601f83011261253f57600080fd5b815161255261254d826130f9565b6130c8565b9150818183526020840193506020810190508385602084028201111561257757600080fd5b60005b838110156125a7578161258d8882612683565b84526020840193506020830192505060018101905061257a565b5050505092915050565b6000813590506125c081613333565b92915050565b6000815190506125d581613333565b92915050565b6000815190506125ea8161334a565b92915050565b6000815190506125ff81613361565b92915050565b60008151905061261481613378565b92915050565b600082601f83011261262b57600080fd5b813561263e61263982613125565b6130c8565b9150808252602083016020830185838301111561265a57600080fd5b6126658382846132b3565b50505092915050565b60008135905061267d81613388565b92915050565b60008151905061269281613388565b92915050565b6000602082840312156126aa57600080fd5b60006126b884828501612504565b91505092915050565b6000602082840312156126d357600080fd5b60006126e184828501612519565b91505092915050565b600080604083850312156126fd57600080fd5b600061270b85828601612504565b925050602061271c85828601612504565b9150509250929050565b60008060006060848603121561273b57600080fd5b600061274986828701612519565b935050602061275a86828701612519565b925050604061276b86828701612519565b9150509250925092565b60008060006060848603121561278a57600080fd5b600061279886828701612504565b93505060206127a986828701612504565b92505060406127ba868287016125b1565b9150509250925092565b600080604083850312156127d757600080fd5b60006127e585828601612504565b92505060206127f68582860161266e565b9150509250929050565b60008060006060848603121561281557600080fd5b600061282386828701612504565b93505060206128348682870161266e565b925050604061284586828701612504565b9150509250925092565b60006020828403121561286157600080fd5b600082015167ffffffffffffffff81111561287b57600080fd5b6128878482850161252e565b91505092915050565b6000602082840312156128a257600080fd5b60006128b0848285016125c6565b91505092915050565b6000602082840312156128cb57600080fd5b60006128d9848285016125db565b91505092915050565b6000602082840312156128f457600080fd5b6000612902848285016125f0565b91505092915050565b60006020828403121561291d57600080fd5b600061292b84828501612605565b91505092915050565b60006020828403121561294657600080fd5b600082013567ffffffffffffffff81111561296057600080fd5b61296c8482850161261a565b91505092915050565b60008060006060848603121561298a57600080fd5b600084013567ffffffffffffffff8111156129a457600080fd5b6129b08682870161261a565b93505060206129c18682870161266e565b92505060406129d28682870161266e565b9150509250925092565b6000602082840312156129ee57600080fd5b60006129fc8482850161266e565b91505092915050565b600060208284031215612a1757600080fd5b6000612a2584828501612683565b91505092915050565b60008060008060008060c08789031215612a4757600080fd5b6000612a5589828a01612683565b9650506020612a6689828a01612683565b9550506040612a7789828a01612683565b9450506060612a8889828a01612683565b9350506080612a9989828a01612683565b92505060a0612aaa89828a01612683565b9150509295509295509295565b612ac081613235565b82525050565b612acf8161317c565b82525050565b612ade8161318e565b82525050565b612aed8161319a565b82525050565b612afc81613247565b82525050565b612b0b8161326b565b82525050565b612b1a8161327d565b82525050565b6000612b2b82613155565b612b358185613160565b9350612b458185602086016132c2565b612b4e816132f7565b840191505092915050565b6000612b6482613155565b612b6e8185613171565b9350612b7e8185602086016132c2565b80840191505092915050565b6000612b97600c83613160565b91507f64616f206d69736d6174636800000000000000000000000000000000000000006000830152602082019050919050565b6000612bd7601983613160565b91507f6e6f20636f6d6d756e79207472656173757279206164646564000000000000006000830152602082019050919050565b6000612c17600883613160565b91507f77726f6e672069640000000000000000000000000000000000000000000000006000830152602082019050919050565b6000612c57603983613160565b91507f5468652063757272656e63792070617373656420617320616e20617267756d6560008301527f6e74206973206e6f7420656e61626c65642c20736f72727921000000000000006020830152604082019050919050565b6000612cbd602683613160565b91507f596f7520646f6e2774206861766520656e6f7567682066756e647320746f206960008301527f6e766573742e00000000000000000000000000000000000000000000000000006020830152604082019050919050565b6000612d23601683613160565b91507f7472656173757279206973206e6f7420616374697665000000000000000000006000830152602082019050919050565b6000612d63600483613171565b91507f55534443000000000000000000000000000000000000000000000000000000006000830152600482019050919050565b6000612da3601183613160565b91507f74656d706c617465206d69736d617463680000000000000000000000000000006000830152602082019050919050565b612ddf8161322b565b82525050565b6000612df18284612b59565b915081905092915050565b6000612e0782612d56565b9150819050919050565b6000602082019050612e266000830184612ac6565b92915050565b6000602082019050612e416000830184612ab7565b92915050565b6000606082019050612e5c6000830186612ab7565b612e696020830185612ac6565b612e766040830184612dd6565b949350505050565b6000606082019050612e936000830186612ab7565b8181036020830152612ea58185612b20565b9050612eb46040830184612dd6565b949350505050565b6000606082019050612ed16000830186612ac6565b612ede6020830185612ac6565b612eeb6040830184612dd6565b949350505050565b6000604082019050612f086000830185612ac6565b612f156020830184612dd6565b9392505050565b6000608082019050612f316000830187612ac6565b612f3e6020830186612dd6565b612f4b6040830185612ac6565b612f586060830184612b11565b95945050505050565b6000602082019050612f766000830184612ad5565b92915050565b6000602082019050612f916000830184612ae4565b92915050565b6000602082019050612fac6000830184612af3565b92915050565b6000602082019050612fc76000830184612b02565b92915050565b60006020820190508181036000830152612fe681612b8a565b9050919050565b6000602082019050818103600083015261300681612bca565b9050919050565b6000602082019050818103600083015261302681612c0a565b9050919050565b6000602082019050818103600083015261304681612c4a565b9050919050565b6000602082019050818103600083015261306681612cb0565b9050919050565b6000602082019050818103600083015261308681612d16565b9050919050565b600060208201905081810360008301526130a681612d96565b9050919050565b60006020820190506130c26000830184612dd6565b92915050565b6000604051905081810181811067ffffffffffffffff821117156130ef576130ee6132f5565b5b8060405250919050565b600067ffffffffffffffff821115613114576131136132f5565b5b602082029050602081019050919050565b600067ffffffffffffffff8211156131405761313f6132f5565b5b601f19601f8301169050602081019050919050565b600081519050919050565b600082825260208201905092915050565b600081905092915050565b60006131878261320b565b9050919050565b60008115159050919050565b60007fffffffff0000000000000000000000000000000000000000000000000000000082169050919050565b60006131d18261317c565b9050919050565b60006131e38261317c565b9050919050565b60008190506131f882613308565b919050565b600061ffff82169050919050565b600073ffffffffffffffffffffffffffffffffffffffff82169050919050565b6000819050919050565b60006132408261328f565b9050919050565b600061325282613259565b9050919050565b60006132648261320b565b9050919050565b6000613276826131ea565b9050919050565b6000613288826131fd565b9050919050565b600061329a826132a1565b9050919050565b60006132ac8261320b565b9050919050565b82818337600083830152505050565b60005b838110156132e05780820151818401526020810190506132c5565b838111156132ef576000848401525b50505050565bfe5b6000601f19601f8301169050919050565b60038110613319576133186132f5565b5b50565b6133258161317c565b811461333057600080fd5b50565b61333c8161318e565b811461334757600080fd5b50565b613353816131c6565b811461335e57600080fd5b50565b61336a816131d8565b811461337557600080fd5b50565b6003811061338557600080fd5b50565b6133918161322b565b811461339c57600080fd5b5056fe4f776e61626c653a206e6577206f776e657220697320746865207a65726f2061646472657373536166654d6174683a206d756c7469706c69636174696f6e206f766572666c6f77a2646970667358221220c2ee46efe8999b75e5811dc3847195f30cdaf4f026797e66042825d904eea02864736f6c63430007040033",
  "linkReferences": {},
  "deployedLinkReferences": {}
}