{
  "_format": "hh-sol-artifact-1",
  "contractName": "TreasuryDao",
  "sourceName": "contracts/TreasuryDao.sol",
  "abi": [
    {
      "inputs": [
        {
          "internalType": "enum DataTypes.CommunityTemplate",
          "name": "_template",
          "type": "uint8"
        },
        {
          "internalType": "address",
          "name": "_aaveDataProvider",
          "type": "address"
        },
        {
          "internalType": "address",
          "name": "_dai",
          "type": "address"
        },
        {
          "internalType": "address",
          "name": "_usdc",
          "type": "address"
        }
      ],
      "stateMutability": "nonpayable",
      "type": "constructor"
    },
    {
      "anonymous": false,
      "inputs": [
        {
          "indexed": false,
          "internalType": "address",
          "name": "_treasuryAddress",
          "type": "address"
        },
        {
          "indexed": false,
          "internalType": "address",
          "name": "_communityAddress",
          "type": "address"
        },
        {
          "indexed": false,
          "internalType": "uint256",
          "name": "_id",
          "type": "uint256"
        }
      ],
      "name": "CommunityLinked",
      "type": "event"
    },
    {
      "anonymous": false,
      "inputs": [
        {
          "indexed": false,
          "internalType": "address",
          "name": "_depositor",
          "type": "address"
        },
        {
          "indexed": false,
          "internalType": "string",
          "name": "_currency",
          "type": "string"
        },
        {
          "indexed": false,
          "internalType": "uint256",
          "name": "_amount",
          "type": "uint256"
        }
      ],
      "name": "Deposited",
      "type": "event"
    },
    {
      "anonymous": false,
      "inputs": [
        {
          "indexed": true,
          "internalType": "address",
          "name": "previousOwner",
          "type": "address"
        },
        {
          "indexed": true,
          "internalType": "address",
          "name": "newOwner",
          "type": "address"
        }
      ],
      "name": "OwnershipTransferred",
      "type": "event"
    },
    {
      "anonymous": false,
      "inputs": [
        {
          "indexed": false,
          "internalType": "uint256",
          "name": "_id",
          "type": "uint256"
        }
      ],
      "name": "ThresholdReached",
      "type": "event"
    },
    {
      "inputs": [],
      "name": "aaveProtocolDataProvider",
      "outputs": [
        {
          "internalType": "contract IProtocolDataProvider",
          "name": "",
          "type": "address"
        }
      ],
      "stateMutability": "view",
      "type": "function"
    },
    {
      "inputs": [
        {
          "internalType": "uint256",
          "name": "",
          "type": "uint256"
        }
      ],
      "name": "communityTeasuries",
      "outputs": [
        {
          "internalType": "address",
          "name": "",
          "type": "address"
        }
      ],
      "stateMutability": "view",
      "type": "function"
    },
    {
      "inputs": [
        {
          "internalType": "address",
          "name": "_currency",
          "type": "address"
        },
        {
          "internalType": "uint256",
          "name": "_amount",
          "type": "uint256"
        },
        {
          "internalType": "address",
          "name": "_deligatee",
          "type": "address"
        }
      ],
      "name": "delegate",
      "outputs": [],
      "stateMutability": "nonpayable",
      "type": "function"
    },
    {
      "inputs": [
        {
          "internalType": "string",
          "name": "_currency",
          "type": "string"
        },
        {
          "internalType": "uint256",
          "name": "_amount",
          "type": "uint256"
        },
        {
          "internalType": "uint256",
          "name": "_repayment",
          "type": "uint256"
        }
      ],
      "name": "deposit",
      "outputs": [],
      "stateMutability": "nonpayable",
      "type": "function"
    },
    {
      "inputs": [
        {
          "internalType": "string",
          "name": "",
          "type": "string"
        }
      ],
      "name": "depositableCurrenciesContracts",
      "outputs": [
        {
          "internalType": "address",
          "name": "",
          "type": "address"
        }
      ],
      "stateMutability": "view",
      "type": "function"
    },
    {
      "inputs": [
        {
          "internalType": "address",
          "name": "",
          "type": "address"
        }
      ],
      "name": "depositors",
      "outputs": [
        {
          "internalType": "uint256",
          "name": "",
          "type": "uint256"
        }
      ],
      "stateMutability": "view",
      "type": "function"
    },
    {
      "inputs": [
        {
          "internalType": "address",
          "name": "_currency",
          "type": "address"
        },
        {
          "internalType": "address",
          "name": "_member",
          "type": "address"
        }
      ],
      "name": "getBalance",
      "outputs": [
        {
          "internalType": "uint256",
          "name": "",
          "type": "uint256"
        }
      ],
      "stateMutability": "nonpayable",
      "type": "function"
    },
    {
      "inputs": [
        {
          "internalType": "address",
          "name": "_currency",
          "type": "address"
        },
        {
          "internalType": "uint256",
          "name": "_id",
          "type": "uint256"
        }
      ],
      "name": "getDeligatee",
      "outputs": [
        {
          "internalType": "address",
          "name": "",
          "type": "address"
        }
      ],
      "stateMutability": "nonpayable",
      "type": "function"
    },
    {
      "inputs": [
        {
          "internalType": "address",
          "name": "_currency",
          "type": "address"
        },
        {
          "internalType": "address",
          "name": "_deligatee",
          "type": "address"
        }
      ],
      "name": "getDeligateeBorrowedAmount",
      "outputs": [
        {
          "internalType": "uint256",
          "name": "",
          "type": "uint256"
        }
      ],
      "stateMutability": "nonpayable",
      "type": "function"
    },
    {
      "inputs": [
        {
          "internalType": "address",
          "name": "_currency",
          "type": "address"
        }
      ],
      "name": "getDeligateeCount",
      "outputs": [
        {
          "internalType": "uint256",
          "name": "",
          "type": "uint256"
        }
      ],
      "stateMutability": "nonpayable",
      "type": "function"
    },
    {
      "inputs": [
        {
          "internalType": "address",
          "name": "_currency",
          "type": "address"
        }
      ],
      "name": "getTreasuryBalance",
      "outputs": [
        {
          "internalType": "uint256",
          "name": "",
          "type": "uint256"
        }
      ],
      "stateMutability": "nonpayable",
      "type": "function"
    },
    {
      "inputs": [
        {
          "internalType": "address",
          "name": "_currency",
          "type": "address"
        }
      ],
      "name": "getTreasuryBorrowedBalance",
      "outputs": [
        {
          "internalType": "uint256",
          "name": "",
          "type": "uint256"
        }
      ],
      "stateMutability": "nonpayable",
      "type": "function"
    },
    {
      "inputs": [
        {
          "internalType": "address",
          "name": "",
          "type": "address"
        }
      ],
      "name": "isTreasuryActive",
      "outputs": [
        {
          "internalType": "bool",
          "name": "",
          "type": "bool"
        }
      ],
      "stateMutability": "view",
      "type": "function"
    },
    {
      "inputs": [
        {
          "internalType": "address",
          "name": "_treasuryAddress",
          "type": "address"
        }
      ],
      "name": "linkCommunity",
      "outputs": [],
      "stateMutability": "nonpayable",
      "type": "function"
    },
    {
      "inputs": [],
      "name": "nextId",
      "outputs": [
        {
          "internalType": "uint256",
          "name": "",
          "type": "uint256"
        }
      ],
      "stateMutability": "view",
      "type": "function"
    },
    {
      "inputs": [],
      "name": "owner",
      "outputs": [
        {
          "internalType": "address",
          "name": "",
          "type": "address"
        }
      ],
      "stateMutability": "view",
      "type": "function"
    },
    {
      "inputs": [],
      "name": "renounceOwnership",
      "outputs": [],
      "stateMutability": "nonpayable",
      "type": "function"
    },
    {
      "inputs": [
        {
          "internalType": "address",
          "name": "",
          "type": "address"
        },
        {
          "internalType": "address",
          "name": "",
          "type": "address"
        }
      ],
      "name": "repayableAmount",
      "outputs": [
        {
          "internalType": "uint256",
          "name": "",
          "type": "uint256"
        }
      ],
      "stateMutability": "view",
      "type": "function"
    },
    {
      "inputs": [],
      "name": "template",
      "outputs": [
        {
          "internalType": "enum DataTypes.CommunityTemplate",
          "name": "",
          "type": "uint8"
        }
      ],
      "stateMutability": "view",
      "type": "function"
    },
    {
      "inputs": [
        {
          "internalType": "uint256",
          "name": "_id",
          "type": "uint256"
        }
      ],
      "name": "thresholdReached",
      "outputs": [],
      "stateMutability": "nonpayable",
      "type": "function"
    },
    {
      "inputs": [],
      "name": "totalDeposited",
      "outputs": [
        {
          "internalType": "uint256",
          "name": "",
          "type": "uint256"
        }
      ],
      "stateMutability": "view",
      "type": "function"
    },
    {
      "inputs": [
        {
          "internalType": "address",
          "name": "newOwner",
          "type": "address"
        }
      ],
      "name": "transferOwnership",
      "outputs": [],
      "stateMutability": "nonpayable",
      "type": "function"
    },
    {
      "inputs": [
        {
          "internalType": "address",
          "name": "_currency",
          "type": "address"
        },
        {
          "internalType": "address",
          "name": "_deligatee",
          "type": "address"
        },
        {
          "internalType": "bool",
          "name": "_force",
          "type": "bool"
        }
      ],
      "name": "undelegate",
      "outputs": [],
      "stateMutability": "nonpayable",
      "type": "function"
    },
    {
      "inputs": [
        {
          "internalType": "address",
          "name": "_currency",
          "type": "address"
        },
        {
          "internalType": "uint256",
          "name": "_amount",
          "type": "uint256"
        }
      ],
      "name": "withdraw",
      "outputs": [],
      "stateMutability": "nonpayable",
      "type": "function"
    }
  ],
  "bytecode": "0x60806040523480156200001157600080fd5b5060405162003c7138038062003c718339818101604052810190620000379190620002b9565b6000620000496200028360201b60201c565b9050806000806101000a81548173ffffffffffffffffffffffffffffffffffffffff021916908373ffffffffffffffffffffffffffffffffffffffff1602179055508073ffffffffffffffffffffffffffffffffffffffff16600073ffffffffffffffffffffffffffffffffffffffff167f8be0079c531659141344cd1fd0a4f28419497f9722a3daafe3b4186f6b6457e060405160405180910390a350600073ffffffffffffffffffffffffffffffffffffffff168373ffffffffffffffffffffffffffffffffffffffff1614156200015a576040517f08c379a0000000000000000000000000000000000000000000000000000000008152600401620001519062000419565b60405180910390fd5b8160046040516200016b90620003eb565b908152602001604051809103902060006101000a81548173ffffffffffffffffffffffffffffffffffffffff021916908373ffffffffffffffffffffffffffffffffffffffff160217905550806004604051620001c89062000402565b908152602001604051809103902060006101000a81548173ffffffffffffffffffffffffffffffffffffffff021916908373ffffffffffffffffffffffffffffffffffffffff16021790555083600660146101000a81548160ff021916908360028111156200023357fe5b021790555082600660006101000a81548173ffffffffffffffffffffffffffffffffffffffff021916908373ffffffffffffffffffffffffffffffffffffffff16021790555050505050620004b6565b600033905090565b6000815190506200029c816200048b565b92915050565b600081519050620002b381620004a5565b92915050565b60008060008060808587031215620002d057600080fd5b6000620002e087828801620002a2565b9450506020620002f3878288016200028b565b935050604062000306878288016200028b565b925050606062000319878288016200028b565b91505092959194509250565b600062000334601e836200043b565b91507f4161766520646174612070726f76696465722063616e6e6f74206265203000006000830152602082019050919050565b6000620003766003836200044c565b91507f44414900000000000000000000000000000000000000000000000000000000006000830152600382019050919050565b6000620003b86004836200044c565b91507f55534443000000000000000000000000000000000000000000000000000000006000830152600482019050919050565b6000620003f88262000367565b9150819050919050565b60006200040f82620003a9565b9150819050919050565b60006020820190508181036000830152620004348162000325565b9050919050565b600082825260208201905092915050565b600081905092915050565b600062000464826200046b565b9050919050565b600073ffffffffffffffffffffffffffffffffffffffff82169050919050565b620004968162000457565b8114620004a257600080fd5b50565b60038110620004b357600080fd5b50565b6137ab80620004c66000396000f3fe608060405234801561001057600080fd5b50600436106101585760003560e01c80637b3d7efd116100c3578063d431f1311161007c578063d431f131146103eb578063d4fac45d1461041b578063eed75f6d1461044b578063f2fde38b1461047b578063f3fef3a314610497578063ff50abdc146104b357610158565b80637b3d7efd146103055780638da5cb5b146103355780639707c1c314610353578063a263605d14610383578063a7829ffa1461039f578063c1a32862146103bb57610158565b806361b8ce8c1161011557806361b8ce8c146102575780636f2ddd9314610275578063715018a61461029357806372dc69381461029d578063744ee913146102b957806375e2b5b9146102e957610158565b806305f9c5971461015d5780631f395d4e14610179578063219476fd146101a95780633705abf1146101d957806357baeac8146102095780635f9d4d2e14610239575b600080fd5b61017760048036038101906101729190612dc1565b6104d1565b005b610193600480360381019061018e9190612a7d565b610a37565b6040516101a09190613468565b60405180910390f35b6101c360048036038101906101be9190612dc1565b610a3e565b6040516101d091906131e7565b60405180910390f35b6101f360048036038101906101ee9190612d19565b610a71565b60405161020091906131e7565b60405180910390f35b610223600480360381019061021e9190612a7d565b610aba565b6040516102309190613468565b60405180910390f35b610241610ac1565b60405161024e9190613352565b60405180910390f35b61025f610ae7565b60405161026c9190613468565b60405180910390f35b61027d610aed565b60405161028a919061336d565b60405180910390f35b61029b610b00565b005b6102b760048036038101906102b29190612b5a565b610c86565b005b6102d360048036038101906102ce9190612acf565b610c8b565b6040516102e09190613468565b60405180910390f35b61030360048036038101906102fe9190612be5565b610c93565b005b61031f600480360381019061031a9190612a7d565b610c98565b60405161032c9190613337565b60405180910390f35b61033d610cb8565b60405161034a91906131e7565b60405180910390f35b61036d60048036038101906103689190612a7d565b610ce1565b60405161037a9190613468565b60405180910390f35b61039d60048036038101906103989190612a7d565b610ce8565b005b6103b960048036038101906103b49190612d5a565b611177565b005b6103d560048036038101906103d09190612ba9565b61183e565b6040516103e291906131e7565b60405180910390f35b61040560048036038101906104009190612acf565b611846565b6040516104129190613468565b60405180910390f35b61043560048036038101906104309190612acf565b61186b565b6040516104429190613468565b60405180910390f35b61046560048036038101906104609190612a7d565b611873565b6040516104729190613468565b60405180910390f35b61049560048036038101906104909190612a7d565b61188b565b005b6104b160048036038101906104ac9190612ba9565b611a96565b005b6104bb611a9a565b6040516104c89190613468565b60405180910390f35b6001600082815260200190815260200160002060009054906101000a900473ffffffffffffffffffffffffffffffffffffffff1673ffffffffffffffffffffffffffffffffffffffff163373ffffffffffffffffffffffffffffffffffffffff1614610572576040517f08c379a0000000000000000000000000000000000000000000000000000000008152600401610569906133c8565b60405180910390fd5b600260003373ffffffffffffffffffffffffffffffffffffffff1673ffffffffffffffffffffffffffffffffffffffff16815260200190815260200160002060009054906101000a900460ff166105fe576040517f08c379a00000000000000000000000000000000000000000000000000000000081526004016105f590613428565b60405180910390fd5b6000600660009054906101000a900473ffffffffffffffffffffffffffffffffffffffff1673ffffffffffffffffffffffffffffffffffffffff16630542975c6040518163ffffffff1660e01b815260040160206040518083038186803b15801561066857600080fd5b505afa15801561067c573d6000803e3d6000fd5b505050506040513d601f19601f820116820180604052508101906106a09190612c9e565b73ffffffffffffffffffffffffffffffffffffffff1663fca513a86040518163ffffffff1660e01b815260040160206040518083038186803b1580156106e557600080fd5b505afa1580156106f9573d6000803e3d6000fd5b505050506040513d601f19601f8201168201806040525081019061071d9190612aa6565b90506000600660009054906101000a900473ffffffffffffffffffffffffffffffffffffffff1673ffffffffffffffffffffffffffffffffffffffff16630542975c6040518163ffffffff1660e01b815260040160206040518083038186803b15801561078957600080fd5b505afa15801561079d573d6000803e3d6000fd5b505050506040513d601f19601f820116820180604052508101906107c19190612c9e565b73ffffffffffffffffffffffffffffffffffffffff16630261bf8b6040518163ffffffff1660e01b815260040160206040518083038186803b15801561080657600080fd5b505afa15801561081a573d6000803e3d6000fd5b505050506040513d601f19601f8201168201806040525081019061083e9190612aa6565b905060008173ffffffffffffffffffffffffffffffffffffffff1663bf92857c306040518263ffffffff1660e01b815260040161087b91906131e7565b60c06040518083038186803b15801561089357600080fd5b505afa1580156108a7573d6000803e3d6000fd5b505050506040513d601f19601f820116820180604052508101906108cb9190612e13565b5050509250505060006109ab8473ffffffffffffffffffffffffffffffffffffffff1663b3596f076004604051610901906131d2565b908152602001604051809103902060009054906101000a900473ffffffffffffffffffffffffffffffffffffffff166040518263ffffffff1660e01b815260040161094c91906131e7565b60206040518083038186803b15801561096457600080fd5b505afa158015610978573d6000803e3d6000fd5b505050506040513d601f19601f8201168201806040525081019061099c9190612dea565b83611aa090919063ffffffff16565b90506109d460646109c6605084611aea90919063ffffffff16565b611aa090919063ffffffff16565b90506109f96109f4670de0b6b3a764000083611aea90919063ffffffff16565b611b70565b7f78e5a77f9f20d8d96a78ff9fbe09d607bf641315b8965893038e859f91651c7185604051610a289190613468565b60405180910390a15050505050565b6000919050565b60016020528060005260406000206000915054906101000a900473ffffffffffffffffffffffffffffffffffffffff1681565b6004818051602081018201805184825260208301602085012081835280955050505050506000915054906101000a900473ffffffffffffffffffffffffffffffffffffffff1681565b6000919050565b600660009054906101000a900473ffffffffffffffffffffffffffffffffffffffff1681565b60035481565b600660149054906101000a900460ff1681565b610b08612162565b73ffffffffffffffffffffffffffffffffffffffff1660008054906101000a900473ffffffffffffffffffffffffffffffffffffffff1673ffffffffffffffffffffffffffffffffffffffff1614610bc8576040517f08c379a00000000000000000000000000000000000000000000000000000000081526004018080602001828103825260208152602001807f4f776e61626c653a2063616c6c6572206973206e6f7420746865206f776e657281525060200191505060405180910390fd5b600073ffffffffffffffffffffffffffffffffffffffff1660008054906101000a900473ffffffffffffffffffffffffffffffffffffffff1673ffffffffffffffffffffffffffffffffffffffff167f8be0079c531659141344cd1fd0a4f28419497f9722a3daafe3b4186f6b6457e060405160405180910390a360008060006101000a81548173ffffffffffffffffffffffffffffffffffffffff021916908373ffffffffffffffffffffffffffffffffffffffff160217905550565b505050565b600092915050565b505050565b60026020528060005260406000206000915054906101000a900460ff1681565b60008060009054906101000a900473ffffffffffffffffffffffffffffffffffffffff16905090565b6000919050565b610cf0612162565b73ffffffffffffffffffffffffffffffffffffffff1660008054906101000a900473ffffffffffffffffffffffffffffffffffffffff1673ffffffffffffffffffffffffffffffffffffffff1614610db0576040517f08c379a00000000000000000000000000000000000000000000000000000000081526004018080602001828103825260208152602001807f4f776e61626c653a2063616c6c6572206973206e6f7420746865206f776e657281525060200191505060405180910390fd5b6000819050600660149054906101000a900460ff166002811115610dd057fe5b8173ffffffffffffffffffffffffffffffffffffffff16636f2ddd936040518163ffffffff1660e01b815260040160206040518083038186803b158015610e1657600080fd5b505afa158015610e2a573d6000803e3d6000fd5b505050506040513d601f19601f82011682018060405250810190610e4e9190612cf0565b6002811115610e5957fe5b14610e99576040517f08c379a0000000000000000000000000000000000000000000000000000000008152600401610e9090613448565b60405180910390fd5b3073ffffffffffffffffffffffffffffffffffffffff168173ffffffffffffffffffffffffffffffffffffffff16634162169f6040518163ffffffff1660e01b815260040160206040518083038186803b158015610ef657600080fd5b505afa158015610f0a573d6000803e3d6000fd5b505050506040513d601f19601f82011682018060405250810190610f2e9190612cc7565b73ffffffffffffffffffffffffffffffffffffffff1614610f84576040517f08c379a0000000000000000000000000000000000000000000000000000000008152600401610f7b90613388565b60405180910390fd5b8160016000600354815260200190815260200160002060006101000a81548173ffffffffffffffffffffffffffffffffffffffff021916908373ffffffffffffffffffffffffffffffffffffffff1602179055506001600260008473ffffffffffffffffffffffffffffffffffffffff1673ffffffffffffffffffffffffffffffffffffffff16815260200190815260200160002060006101000a81548160ff0219169083151502179055508073ffffffffffffffffffffffffffffffffffffffff1663d0e0ba956003546040518263ffffffff1660e01b815260040161106b9190613468565b600060405180830381600087803b15801561108557600080fd5b505af1158015611099573d6000803e3d6000fd5b505050507f720f042cfe589c4e7d9ece472897915730fb34a553dfd956cd4c9b0cee536a2f828273ffffffffffffffffffffffffffffffffffffffff1663dc1fb5a56040518163ffffffff1660e01b815260040160206040518083038186803b15801561110557600080fd5b505afa158015611119573d6000803e3d6000fd5b505050506040513d601f19601f8201168201806040525081019061113d9190612aa6565b60035460405161114f93929190613292565b60405180910390a161116d600160035461216a90919063ffffffff16565b6003819055505050565b6000600354116111bc576040517f08c379a00000000000000000000000000000000000000000000000000000000081526004016111b3906133a8565b60405180910390fd5b60006004846040516111ce91906131bb565b908152602001604051809103902060009054906101000a900473ffffffffffffffffffffffffffffffffffffffff169050600073ffffffffffffffffffffffffffffffffffffffff168173ffffffffffffffffffffffffffffffffffffffff16141561126f576040517f08c379a0000000000000000000000000000000000000000000000000000000008152600401611266906133e8565b60405180910390fd5b60008190506000611291670de0b6b3a764000086611aea90919063ffffffff16565b9050808273ffffffffffffffffffffffffffffffffffffffff166370a082316112b8612162565b6040518263ffffffff1660e01b81526004016112d49190613202565b60206040518083038186803b1580156112ec57600080fd5b505afa158015611300573d6000803e3d6000fd5b505050506040513d601f19601f820116820180604052508101906113249190612dea565b1015611365576040517f08c379a000000000000000000000000000000000000000000000000000000000815260040161135c90613408565b60405180910390fd5b6000600660009054906101000a900473ffffffffffffffffffffffffffffffffffffffff1673ffffffffffffffffffffffffffffffffffffffff16630542975c6040518163ffffffff1660e01b815260040160206040518083038186803b1580156113cf57600080fd5b505afa1580156113e3573d6000803e3d6000fd5b505050506040513d601f19601f820116820180604052508101906114079190612c9e565b73ffffffffffffffffffffffffffffffffffffffff16630261bf8b6040518163ffffffff1660e01b815260040160206040518083038186803b15801561144c57600080fd5b505afa158015611460573d6000803e3d6000fd5b505050506040513d601f19601f820116820180604052508101906114849190612aa6565b90508273ffffffffffffffffffffffffffffffffffffffff166323b872dd3330856040518463ffffffff1660e01b81526004016114c39392919061321d565b602060405180830381600087803b1580156114dd57600080fd5b505af11580156114f1573d6000803e3d6000fd5b505050506040513d601f19601f820116820180604052508101906115159190612c75565b508273ffffffffffffffffffffffffffffffffffffffff1663095ea7b382846040518363ffffffff1660e01b81526004016115519291906132c9565b602060405180830381600087803b15801561156b57600080fd5b505af115801561157f573d6000803e3d6000fd5b505050506040513d601f19601f820116820180604052508101906115a39190612c75565b508073ffffffffffffffffffffffffffffffffffffffff1663e8eda9df85843060006040518563ffffffff1660e01b81526004016115e494939291906132f2565b600060405180830381600087803b1580156115fe57600080fd5b505af1158015611612573d6000803e3d6000fd5b505050506116ca61163f60646116318886611aea90919063ffffffff16565b611aa090919063ffffffff16565b600560003373ffffffffffffffffffffffffffffffffffffffff1673ffffffffffffffffffffffffffffffffffffffff16815260200190815260200160002060008773ffffffffffffffffffffffffffffffffffffffff1673ffffffffffffffffffffffffffffffffffffffff1681526020019081526020016000205461216a90919063ffffffff16565b600560003373ffffffffffffffffffffffffffffffffffffffff1673ffffffffffffffffffffffffffffffffffffffff16815260200190815260200160002060008673ffffffffffffffffffffffffffffffffffffffff1673ffffffffffffffffffffffffffffffffffffffff1681526020019081526020016000208190555061179c82600760003373ffffffffffffffffffffffffffffffffffffffff1673ffffffffffffffffffffffffffffffffffffffff1681526020019081526020016000205461216a90919063ffffffff16565b600760003373ffffffffffffffffffffffffffffffffffffffff1673ffffffffffffffffffffffffffffffffffffffff168152602001908152602001600020819055506117f48260085461216a90919063ffffffff16565b6008819055507ffd4bdef056842e4615d2a093647094c0b9bf67c63662d614d63fefd617e0add233888860405161182d93929190613254565b60405180910390a150505050505050565b600092915050565b6005602052816000526040600020602052806000526040600020600091509150505481565b600092915050565b60076020528060005260406000206000915090505481565b611893612162565b73ffffffffffffffffffffffffffffffffffffffff1660008054906101000a900473ffffffffffffffffffffffffffffffffffffffff1673ffffffffffffffffffffffffffffffffffffffff1614611953576040517f08c379a00000000000000000000000000000000000000000000000000000000081526004018080602001828103825260208152602001807f4f776e61626c653a2063616c6c6572206973206e6f7420746865206f776e657281525060200191505060405180910390fd5b600073ffffffffffffffffffffffffffffffffffffffff168173ffffffffffffffffffffffffffffffffffffffff1614156119d9576040517f08c379a000000000000000000000000000000000000000000000000000000000815260040180806020018281038252602681526020018061372f6026913960400191505060405180910390fd5b8073ffffffffffffffffffffffffffffffffffffffff1660008054906101000a900473ffffffffffffffffffffffffffffffffffffffff1673ffffffffffffffffffffffffffffffffffffffff167f8be0079c531659141344cd1fd0a4f28419497f9722a3daafe3b4186f6b6457e060405160405180910390a3806000806101000a81548173ffffffffffffffffffffffffffffffffffffffff021916908373ffffffffffffffffffffffffffffffffffffffff16021790555050565b5050565b60085481565b6000611ae283836040518060400160405280601a81526020017f536166654d6174683a206469766973696f6e206279207a65726f0000000000008152506121f2565b905092915050565b600080831415611afd5760009050611b6a565b6000828402905082848281611b0e57fe5b0414611b65576040517f08c379a00000000000000000000000000000000000000000000000000000000081526004018080602001828103825260218152602001806137556021913960400191505060405180910390fd5b809150505b92915050565b6000806000606060035467ffffffffffffffff81118015611b9057600080fd5b50604051908082528060200260200182016040528015611bbf5781602001602082028036833780820191505090505b509050606060035467ffffffffffffffff81118015611bdd57600080fd5b50604051908082528060200260200182016040528015611c0c5781602001602082028036833780820191505090505b50905060008060005b600354811015611e7f576000848281518110611c2d57fe5b6020026020010190151590811515815250506001600082815260200190815260200160002060009054906101000a900473ffffffffffffffffffffffffffffffffffffffff169550600260008773ffffffffffffffffffffffffffffffffffffffff1673ffffffffffffffffffffffffffffffffffffffff16815260200190815260200160002060009054906101000a900460ff1615611e72578573ffffffffffffffffffffffffffffffffffffffff1663eaad31e16040518163ffffffff1660e01b815260040160206040518083038186803b158015611d0d57600080fd5b505afa158015611d21573d6000803e3d6000fd5b505050506040513d601f19601f82011682018060405250810190611d459190612dea565b9650611d866040518060400160405280600b81526020017f70726f6a656374734e756d000000000000000000000000000000000000000000815250886122b8565b6000871115611e7157611e1a8673ffffffffffffffffffffffffffffffffffffffff166337f3061d6040518163ffffffff1660e01b815260040160006040518083038186803b158015611dd857600080fd5b505afa158015611dec573d6000803e3d6000fd5b505050506040513d6000823e3d601f19601f82011682018060405250810190611e159190612c34565b6123bf565b858381518110611e2657fe5b6020026020010181815250508180600101925050611e4e60018461216a90919063ffffffff16565b92506001848281518110611e5e57fe5b6020026020010190151590811515815250505b5b8080600101915050611c15565b50611ebf6040518060400160405280600e81526020017f636f6e74726962757465644e756d000000000000000000000000000000000000815250836122b8565b6060611ecb858461242b565b9050611f0d6040518060400160405280600b81526020017f77656967687473206c656e00000000000000000000000000000000000000000081525082516122b8565b611f606040518060400160405280600a81526020017f776569676874735b305d0000000000000000000000000000000000000000000081525082600081518110611f5357fe5b60200260200101516122b8565b6060611f6c8a836124e8565b9050611fad6040518060400160405280600481526020017f66756e64000000000000000000000000000000000000000000000000000000008152508b6122b8565b6000925060005b60035481101561215557858181518110611fca57fe5b602002602001015115612148576120496040518060400160405280600881526020017f74726561737572790000000000000000000000000000000000000000000000008152506001600084815260200190815260200160002060009054906101000a900473ffffffffffffffffffffffffffffffffffffffff166125b3565b61209b6040518060400160405280600581526020017f616c6c6f6300000000000000000000000000000000000000000000000000000081525083868151811061208e57fe5b60200260200101516122b8565b61213f6001600083815260200190815260200160002060009054906101000a900473ffffffffffffffffffffffffffffffffffffffff1660046040516120e0906131d2565b908152602001604051809103902060009054906101000a900473ffffffffffffffffffffffffffffffffffffffff1661213a64e8d4a5100086898151811061212457fe5b6020026020010151611aa090919063ffffffff16565b6126d0565b83806001019450505b8080600101915050611fb4565b5050505050505050505050565b600033905090565b6000808284019050838110156121e8576040517f08c379a000000000000000000000000000000000000000000000000000000000815260040180806020018281038252601b8152602001807f536166654d6174683a206164646974696f6e206f766572666c6f77000000000081525060200191505060405180910390fd5b8091505092915050565b6000808311829061229e576040517f08c379a00000000000000000000000000000000000000000000000000000000081526004018080602001828103825283818151815260200191508051906020019080838360005b83811015612263578082015181840152602081019050612248565b50505050905090810190601f1680156122905780820380516001836020036101000a031916815260200191505b509250505060405180910390fd5b5060008385816122aa57fe5b049050809150509392505050565b6123bb82826040516024018080602001838152602001828103825284818151815260200191508051906020019080838360005b838110156123065780820151818401526020810190506122eb565b50505050905090810190601f1680156123335780820380516001836020036101000a031916815260200191505b5093505050506040516020818303038152906040527f9710a9d0000000000000000000000000000000000000000000000000000000007bffffffffffffffffffffffffffffffffffffffffffffffffffffffff19166020820180517bffffffffffffffffffffffffffffffffffffffffffffffffffffffff83818316178352505050506127f4565b5050565b6000806000905060005b835181101561240f576124006123f18583815181106123e457fe5b602002602001015161281d565b8361216a90919063ffffffff16565b915080806001019150506123c9565b506124238182611aea90919063ffffffff16565b915050919050565b60606000612439848461287f565b905060608367ffffffffffffffff8111801561245457600080fd5b506040519080825280602002602001820160405280156124835781602001602082028036833780820191505090505b50905060005b848110156124dc576124b7838783815181106124a157fe5b6020026020010151611aa090919063ffffffff16565b8282815181106124c357fe5b6020026020010181815250508080600101915050612489565b50809250505092915050565b60606000612502620f424085611aa090919063ffffffff16565b90506060835167ffffffffffffffff8111801561251e57600080fd5b5060405190808252806020026020018201604052801561254d5781602001602082028036833780820191505090505b50905060005b84518110156125a75761258285828151811061256b57fe5b602002602001015184611aea90919063ffffffff16565b82828151811061258e57fe5b6020026020010181815250508080600101915050612553565b50809250505092915050565b6126cc828260405160240180806020018373ffffffffffffffffffffffffffffffffffffffff168152602001828103825284818151815260200191508051906020019080838360005b838110156126175780820151818401526020810190506125fc565b50505050905090810190601f1680156126445780820380516001836020036101000a031916815260200191505b5093505050506040516020818303038152906040527f319af333000000000000000000000000000000000000000000000000000000007bffffffffffffffffffffffffffffffffffffffffffffffffffffffff19166020820180517bffffffffffffffffffffffffffffffffffffffffffffffffffffffff83818316178352505050506127f4565b5050565b6000600660009054906101000a900473ffffffffffffffffffffffffffffffffffffffff1673ffffffffffffffffffffffffffffffffffffffff1663d2493b6c846040518263ffffffff1660e01b815260040161272d91906131e7565b60606040518083038186803b15801561274557600080fd5b505afa158015612759573d6000803e3d6000fd5b505050506040513d601f19601f8201168201806040525081019061277d9190612b0b565b509150508073ffffffffffffffffffffffffffffffffffffffff1663c04a8a1085846040518363ffffffff1660e01b81526004016127bc9291906132c9565b600060405180830381600087803b1580156127d657600080fd5b505af11580156127ea573d6000803e3d6000fd5b5050505050505050565b60008151905060006a636f6e736f6c652e6c6f679050602083016000808483855afa5050505050565b6000600382111561286c57819050600060016002848161283957fe5b040190505b818110156128665780915060028182858161285557fe5b04018161285e57fe5b04905061283e565b5061287a565b6000821461287957600190505b5b919050565b6000806000905060005b838110156128c6576128b78582815181106128a057fe5b60200260200101518361216a90919063ffffffff16565b91508080600101915050612889565b506128dd620f424082611aa090919063ffffffff16565b90508091505092915050565b6000813590506128f8816136ab565b92915050565b60008151905061290d816136ab565b92915050565b600082601f83011261292457600080fd5b8151612937612932826134b4565b613483565b9150818183526020840193506020810190508385602084028201111561295c57600080fd5b60005b8381101561298c57816129728882612a68565b84526020840193506020830192505060018101905061295f565b5050505092915050565b6000813590506129a5816136c2565b92915050565b6000815190506129ba816136c2565b92915050565b6000815190506129cf816136d9565b92915050565b6000815190506129e4816136f0565b92915050565b6000815190506129f981613707565b92915050565b600082601f830112612a1057600080fd5b8135612a23612a1e826134e0565b613483565b91508082526020830160208301858383011115612a3f57600080fd5b612a4a838284613642565b50505092915050565b600081359050612a6281613717565b92915050565b600081519050612a7781613717565b92915050565b600060208284031215612a8f57600080fd5b6000612a9d848285016128e9565b91505092915050565b600060208284031215612ab857600080fd5b6000612ac6848285016128fe565b91505092915050565b60008060408385031215612ae257600080fd5b6000612af0858286016128e9565b9250506020612b01858286016128e9565b9150509250929050565b600080600060608486031215612b2057600080fd5b6000612b2e868287016128fe565b9350506020612b3f868287016128fe565b9250506040612b50868287016128fe565b9150509250925092565b600080600060608486031215612b6f57600080fd5b6000612b7d868287016128e9565b9350506020612b8e868287016128e9565b9250506040612b9f86828701612996565b9150509250925092565b60008060408385031215612bbc57600080fd5b6000612bca858286016128e9565b9250506020612bdb85828601612a53565b9150509250929050565b600080600060608486031215612bfa57600080fd5b6000612c08868287016128e9565b9350506020612c1986828701612a53565b9250506040612c2a868287016128e9565b9150509250925092565b600060208284031215612c4657600080fd5b600082015167ffffffffffffffff811115612c6057600080fd5b612c6c84828501612913565b91505092915050565b600060208284031215612c8757600080fd5b6000612c95848285016129ab565b91505092915050565b600060208284031215612cb057600080fd5b6000612cbe848285016129c0565b91505092915050565b600060208284031215612cd957600080fd5b6000612ce7848285016129d5565b91505092915050565b600060208284031215612d0257600080fd5b6000612d10848285016129ea565b91505092915050565b600060208284031215612d2b57600080fd5b600082013567ffffffffffffffff811115612d4557600080fd5b612d51848285016129ff565b91505092915050565b600080600060608486031215612d6f57600080fd5b600084013567ffffffffffffffff811115612d8957600080fd5b612d95868287016129ff565b9350506020612da686828701612a53565b9250506040612db786828701612a53565b9150509250925092565b600060208284031215612dd357600080fd5b6000612de184828501612a53565b91505092915050565b600060208284031215612dfc57600080fd5b6000612e0a84828501612a68565b91505092915050565b60008060008060008060c08789031215612e2c57600080fd5b6000612e3a89828a01612a68565b9650506020612e4b89828a01612a68565b9550506040612e5c89828a01612a68565b9450506060612e6d89828a01612a68565b9350506080612e7e89828a01612a68565b92505060a0612e8f89828a01612a68565b9150509295509295509295565b612ea5816135c4565b82525050565b612eb481613537565b82525050565b612ec381613549565b82525050565b612ed2816135d6565b82525050565b612ee1816135fa565b82525050565b612ef08161360c565b82525050565b6000612f0182613510565b612f0b818561351b565b9350612f1b818560208601613651565b612f2481613686565b840191505092915050565b6000612f3a82613510565b612f44818561352c565b9350612f54818560208601613651565b80840191505092915050565b6000612f6d600c8361351b565b91507f64616f206d69736d6174636800000000000000000000000000000000000000006000830152602082019050919050565b6000612fad60198361351b565b91507f6e6f20636f6d6d756e79207472656173757279206164646564000000000000006000830152602082019050919050565b6000612fed60088361351b565b91507f77726f6e672069640000000000000000000000000000000000000000000000006000830152602082019050919050565b600061302d60398361351b565b91507f5468652063757272656e63792070617373656420617320616e20617267756d6560008301527f6e74206973206e6f7420656e61626c65642c20736f72727921000000000000006020830152604082019050919050565b600061309360268361351b565b91507f596f7520646f6e2774206861766520656e6f7567682066756e647320746f206960008301527f6e766573742e00000000000000000000000000000000000000000000000000006020830152604082019050919050565b60006130f960168361351b565b91507f7472656173757279206973206e6f7420616374697665000000000000000000006000830152602082019050919050565b600061313960048361352c565b91507f55534443000000000000000000000000000000000000000000000000000000006000830152600482019050919050565b600061317960118361351b565b91507f74656d706c617465206d69736d617463680000000000000000000000000000006000830152602082019050919050565b6131b5816135ba565b82525050565b60006131c78284612f2f565b915081905092915050565b60006131dd8261312c565b9150819050919050565b60006020820190506131fc6000830184612eab565b92915050565b60006020820190506132176000830184612e9c565b92915050565b60006060820190506132326000830186612e9c565b61323f6020830185612eab565b61324c60408301846131ac565b949350505050565b60006060820190506132696000830186612e9c565b818103602083015261327b8185612ef6565b905061328a60408301846131ac565b949350505050565b60006060820190506132a76000830186612eab565b6132b46020830185612eab565b6132c160408301846131ac565b949350505050565b60006040820190506132de6000830185612eab565b6132eb60208301846131ac565b9392505050565b60006080820190506133076000830187612eab565b61331460208301866131ac565b6133216040830185612eab565b61332e6060830184612ee7565b95945050505050565b600060208201905061334c6000830184612eba565b92915050565b60006020820190506133676000830184612ec9565b92915050565b60006020820190506133826000830184612ed8565b92915050565b600060208201905081810360008301526133a181612f60565b9050919050565b600060208201905081810360008301526133c181612fa0565b9050919050565b600060208201905081810360008301526133e181612fe0565b9050919050565b6000602082019050818103600083015261340181613020565b9050919050565b6000602082019050818103600083015261342181613086565b9050919050565b60006020820190508181036000830152613441816130ec565b9050919050565b600060208201905081810360008301526134618161316c565b9050919050565b600060208201905061347d60008301846131ac565b92915050565b6000604051905081810181811067ffffffffffffffff821117156134aa576134a9613684565b5b8060405250919050565b600067ffffffffffffffff8211156134cf576134ce613684565b5b602082029050602081019050919050565b600067ffffffffffffffff8211156134fb576134fa613684565b5b601f19601f8301169050602081019050919050565b600081519050919050565b600082825260208201905092915050565b600081905092915050565b60006135428261359a565b9050919050565b60008115159050919050565b600061356082613537565b9050919050565b600061357282613537565b9050919050565b600081905061358782613697565b919050565b600061ffff82169050919050565b600073ffffffffffffffffffffffffffffffffffffffff82169050919050565b6000819050919050565b60006135cf8261361e565b9050919050565b60006135e1826135e8565b9050919050565b60006135f38261359a565b9050919050565b600061360582613579565b9050919050565b60006136178261358c565b9050919050565b600061362982613630565b9050919050565b600061363b8261359a565b9050919050565b82818337600083830152505050565b60005b8381101561366f578082015181840152602081019050613654565b8381111561367e576000848401525b50505050565bfe5b6000601f19601f8301169050919050565b600381106136a8576136a7613684565b5b50565b6136b481613537565b81146136bf57600080fd5b50565b6136cb81613549565b81146136d657600080fd5b50565b6136e281613555565b81146136ed57600080fd5b50565b6136f981613567565b811461370457600080fd5b50565b6003811061371457600080fd5b50565b613720816135ba565b811461372b57600080fd5b5056fe4f776e61626c653a206e6577206f776e657220697320746865207a65726f2061646472657373536166654d6174683a206d756c7469706c69636174696f6e206f766572666c6f77a26469706673582212207f1d41bd54076d7836c7252668c4aae56ae7129eeb95169a809570f01834fd3e64736f6c63430007040033",
  "linkReferences": {},
  "deployedLinkReferences": {}
}