{
  "_format": "hh-sol-artifact-1",
  "contractName": "TreasuryDao",
  "sourceName": "contracts/TreasuryDao.sol",
  "abi": [
    {
      "inputs": [
        {
          "internalType": "enum DataTypes.CommunityTemplate",
          "name": "_template",
          "type": "uint8"
        },
        {
          "internalType": "address",
          "name": "_aaveDataProvider",
          "type": "address"
        },
        {
          "internalType": "address",
          "name": "_dai",
          "type": "address"
        },
        {
          "internalType": "address",
          "name": "_usdc",
          "type": "address"
        }
      ],
      "stateMutability": "nonpayable",
      "type": "constructor"
    },
    {
      "anonymous": false,
      "inputs": [
        {
          "indexed": false,
          "internalType": "address",
          "name": "_treasuryAddress",
          "type": "address"
        },
        {
          "indexed": false,
          "internalType": "address",
          "name": "_communityAddress",
          "type": "address"
        },
        {
          "indexed": false,
          "internalType": "uint256",
          "name": "_id",
          "type": "uint256"
        }
      ],
      "name": "CommunityLinked",
      "type": "event"
    },
    {
      "anonymous": false,
      "inputs": [
        {
          "indexed": false,
          "internalType": "address",
          "name": "_depositor",
          "type": "address"
        },
        {
          "indexed": false,
          "internalType": "string",
          "name": "_currency",
          "type": "string"
        },
        {
          "indexed": false,
          "internalType": "uint256",
          "name": "_amount",
          "type": "uint256"
        }
      ],
      "name": "Deposited",
      "type": "event"
    },
    {
      "anonymous": false,
      "inputs": [
        {
          "indexed": true,
          "internalType": "address",
          "name": "previousOwner",
          "type": "address"
        },
        {
          "indexed": true,
          "internalType": "address",
          "name": "newOwner",
          "type": "address"
        }
      ],
      "name": "OwnershipTransferred",
      "type": "event"
    },
    {
      "anonymous": false,
      "inputs": [
        {
          "indexed": false,
          "internalType": "uint256",
          "name": "_id",
          "type": "uint256"
        }
      ],
      "name": "ThresholdReached",
      "type": "event"
    },
    {
      "inputs": [],
      "name": "aaveProtocolDataProvider",
      "outputs": [
        {
          "internalType": "contract IProtocolDataProvider",
          "name": "",
          "type": "address"
        }
      ],
      "stateMutability": "view",
      "type": "function"
    },
    {
      "inputs": [
        {
          "internalType": "uint256",
          "name": "",
          "type": "uint256"
        }
      ],
      "name": "communityTeasuries",
      "outputs": [
        {
          "internalType": "address",
          "name": "",
          "type": "address"
        }
      ],
      "stateMutability": "view",
      "type": "function"
    },
    {
      "inputs": [
        {
          "internalType": "address",
          "name": "_currency",
          "type": "address"
        },
        {
          "internalType": "uint256",
          "name": "_amount",
          "type": "uint256"
        },
        {
          "internalType": "address",
          "name": "_deligatee",
          "type": "address"
        }
      ],
      "name": "delegate",
      "outputs": [],
      "stateMutability": "nonpayable",
      "type": "function"
    },
    {
      "inputs": [
        {
          "internalType": "string",
          "name": "_currency",
          "type": "string"
        },
        {
          "internalType": "uint256",
          "name": "_amount",
          "type": "uint256"
        },
        {
          "internalType": "uint256",
          "name": "_repayment",
          "type": "uint256"
        }
      ],
      "name": "deposit",
      "outputs": [],
      "stateMutability": "nonpayable",
      "type": "function"
    },
    {
      "inputs": [
        {
          "internalType": "string",
          "name": "",
          "type": "string"
        }
      ],
      "name": "depositableCurrenciesContracts",
      "outputs": [
        {
          "internalType": "address",
          "name": "",
          "type": "address"
        }
      ],
      "stateMutability": "view",
      "type": "function"
    },
    {
      "inputs": [
        {
          "internalType": "address",
          "name": "",
          "type": "address"
        }
      ],
      "name": "depositors",
      "outputs": [
        {
          "internalType": "uint256",
          "name": "",
          "type": "uint256"
        }
      ],
      "stateMutability": "view",
      "type": "function"
    },
    {
      "inputs": [
        {
          "internalType": "address",
          "name": "_currency",
          "type": "address"
        },
        {
          "internalType": "address",
          "name": "_member",
          "type": "address"
        }
      ],
      "name": "getBalance",
      "outputs": [
        {
          "internalType": "uint256",
          "name": "",
          "type": "uint256"
        }
      ],
      "stateMutability": "nonpayable",
      "type": "function"
    },
    {
      "inputs": [
        {
          "internalType": "address",
          "name": "_currency",
          "type": "address"
        },
        {
          "internalType": "uint256",
          "name": "_id",
          "type": "uint256"
        }
      ],
      "name": "getDeligatee",
      "outputs": [
        {
          "internalType": "address",
          "name": "",
          "type": "address"
        }
      ],
      "stateMutability": "nonpayable",
      "type": "function"
    },
    {
      "inputs": [
        {
          "internalType": "address",
          "name": "_currency",
          "type": "address"
        },
        {
          "internalType": "address",
          "name": "_deligatee",
          "type": "address"
        }
      ],
      "name": "getDeligateeBorrowedAmount",
      "outputs": [
        {
          "internalType": "uint256",
          "name": "",
          "type": "uint256"
        }
      ],
      "stateMutability": "nonpayable",
      "type": "function"
    },
    {
      "inputs": [
        {
          "internalType": "address",
          "name": "_currency",
          "type": "address"
        }
      ],
      "name": "getDeligateeCount",
      "outputs": [
        {
          "internalType": "uint256",
          "name": "",
          "type": "uint256"
        }
      ],
      "stateMutability": "nonpayable",
      "type": "function"
    },
    {
      "inputs": [
        {
          "internalType": "address",
          "name": "_currency",
          "type": "address"
        }
      ],
      "name": "getTreasuryBalance",
      "outputs": [
        {
          "internalType": "uint256",
          "name": "",
          "type": "uint256"
        }
      ],
      "stateMutability": "nonpayable",
      "type": "function"
    },
    {
      "inputs": [
        {
          "internalType": "address",
          "name": "_currency",
          "type": "address"
        }
      ],
      "name": "getTreasuryBorrowedBalance",
      "outputs": [
        {
          "internalType": "uint256",
          "name": "",
          "type": "uint256"
        }
      ],
      "stateMutability": "nonpayable",
      "type": "function"
    },
    {
      "inputs": [
        {
          "internalType": "address",
          "name": "",
          "type": "address"
        }
      ],
      "name": "isTreasuryActive",
      "outputs": [
        {
          "internalType": "bool",
          "name": "",
          "type": "bool"
        }
      ],
      "stateMutability": "view",
      "type": "function"
    },
    {
      "inputs": [
        {
          "internalType": "address",
          "name": "_treasuryAddress",
          "type": "address"
        }
      ],
      "name": "linkCommunity",
      "outputs": [],
      "stateMutability": "nonpayable",
      "type": "function"
    },
    {
      "inputs": [],
      "name": "nextId",
      "outputs": [
        {
          "internalType": "uint256",
          "name": "",
          "type": "uint256"
        }
      ],
      "stateMutability": "view",
      "type": "function"
    },
    {
      "inputs": [],
      "name": "owner",
      "outputs": [
        {
          "internalType": "address",
          "name": "",
          "type": "address"
        }
      ],
      "stateMutability": "view",
      "type": "function"
    },
    {
      "inputs": [],
      "name": "renounceOwnership",
      "outputs": [],
      "stateMutability": "nonpayable",
      "type": "function"
    },
    {
      "inputs": [
        {
          "internalType": "address",
          "name": "",
          "type": "address"
        },
        {
          "internalType": "address",
          "name": "",
          "type": "address"
        }
      ],
      "name": "repayableAmount",
      "outputs": [
        {
          "internalType": "uint256",
          "name": "",
          "type": "uint256"
        }
      ],
      "stateMutability": "view",
      "type": "function"
    },
    {
      "inputs": [],
      "name": "template",
      "outputs": [
        {
          "internalType": "enum DataTypes.CommunityTemplate",
          "name": "",
          "type": "uint8"
        }
      ],
      "stateMutability": "view",
      "type": "function"
    },
    {
      "inputs": [
        {
          "internalType": "uint256",
          "name": "_id",
          "type": "uint256"
        }
      ],
      "name": "thresholdReached",
      "outputs": [],
      "stateMutability": "nonpayable",
      "type": "function"
    },
    {
      "inputs": [],
      "name": "totalDeposited",
      "outputs": [
        {
          "internalType": "uint256",
          "name": "",
          "type": "uint256"
        }
      ],
      "stateMutability": "view",
      "type": "function"
    },
    {
      "inputs": [
        {
          "internalType": "address",
          "name": "newOwner",
          "type": "address"
        }
      ],
      "name": "transferOwnership",
      "outputs": [],
      "stateMutability": "nonpayable",
      "type": "function"
    },
    {
      "inputs": [
        {
          "internalType": "address",
          "name": "_currency",
          "type": "address"
        },
        {
          "internalType": "address",
          "name": "_deligatee",
          "type": "address"
        },
        {
          "internalType": "bool",
          "name": "_force",
          "type": "bool"
        }
      ],
      "name": "undelegate",
      "outputs": [],
      "stateMutability": "nonpayable",
      "type": "function"
    },
    {
      "inputs": [
        {
          "internalType": "address",
          "name": "_currency",
          "type": "address"
        },
        {
          "internalType": "uint256",
          "name": "_amount",
          "type": "uint256"
        }
      ],
      "name": "withdraw",
      "outputs": [],
      "stateMutability": "nonpayable",
      "type": "function"
    }
  ],
  "bytecode": "0x60806040523480156200001157600080fd5b506040516200282238038062002822833981810160405260808110156200003757600080fd5b81019080805190602001909291908051906020019092919080519060200190929190805190602001909291905050506000620000786200032360201b60201c565b9050806000806101000a81548173ffffffffffffffffffffffffffffffffffffffff021916908373ffffffffffffffffffffffffffffffffffffffff1602179055508073ffffffffffffffffffffffffffffffffffffffff16600073ffffffffffffffffffffffffffffffffffffffff167f8be0079c531659141344cd1fd0a4f28419497f9722a3daafe3b4186f6b6457e060405160405180910390a350600073ffffffffffffffffffffffffffffffffffffffff168373ffffffffffffffffffffffffffffffffffffffff161415620001ba576040517f08c379a000000000000000000000000000000000000000000000000000000000815260040180806020018281038252601e8152602001807f4161766520646174612070726f76696465722063616e6e6f742062652030000081525060200191505060405180910390fd5b81600460405180807f44414900000000000000000000000000000000000000000000000000000000008152506003019050908152602001604051809103902060006101000a81548173ffffffffffffffffffffffffffffffffffffffff021916908373ffffffffffffffffffffffffffffffffffffffff16021790555080600460405180807f55534443000000000000000000000000000000000000000000000000000000008152506004019050908152602001604051809103902060006101000a81548173ffffffffffffffffffffffffffffffffffffffff021916908373ffffffffffffffffffffffffffffffffffffffff16021790555083600660146101000a81548160ff02191690836002811115620002d357fe5b021790555082600660006101000a81548173ffffffffffffffffffffffffffffffffffffffff021916908373ffffffffffffffffffffffffffffffffffffffff160217905550505050506200032b565b600033905090565b6124e7806200033b6000396000f3fe608060405234801561001057600080fd5b50600436106101585760003560e01c80637b3d7efd116100c3578063d431f1311161007c578063d431f131146107c4578063d4fac45d1461083c578063eed75f6d146108b4578063f2fde38b1461090c578063f3fef3a314610950578063ff50abdc1461099e57610158565b80637b3d7efd146105535780638da5cb5b146105ad5780639707c1c3146105e1578063a263605d14610639578063a7829ffa1461067d578063c1a328621461074c57610158565b806361b8ce8c1161011557806361b8ce8c146103ac5780636f2ddd93146103ca578063715018a6146103f357806372dc6938146103fd578063744ee9131461046d57806375e2b5b9146104e557610158565b806305f9c5971461015d5780631f395d4e1461018b578063219476fd146101e35780633705abf11461023b57806357baeac8146103205780635f9d4d2e14610378575b600080fd5b6101896004803603602081101561017357600080fd5b81019080803590602001909291905050506109bc565b005b6101cd600480360360208110156101a157600080fd5b81019080803573ffffffffffffffffffffffffffffffffffffffff169060200190929190505050610c9b565b6040518082815260200191505060405180910390f35b61020f600480360360208110156101f957600080fd5b8101908080359060200190929190505050610ca2565b604051808273ffffffffffffffffffffffffffffffffffffffff16815260200191505060405180910390f35b6102f46004803603602081101561025157600080fd5b810190808035906020019064010000000081111561026e57600080fd5b82018360208201111561028057600080fd5b803590602001918460018302840111640100000000831117156102a257600080fd5b91908080601f016020809104026020016040519081016040528093929190818152602001838380828437600081840152601f19601f820116905080830192505050505050509192919290505050610cd5565b604051808273ffffffffffffffffffffffffffffffffffffffff16815260200191505060405180910390f35b6103626004803603602081101561033657600080fd5b81019080803573ffffffffffffffffffffffffffffffffffffffff169060200190929190505050610d1e565b6040518082815260200191505060405180910390f35b610380610d25565b604051808273ffffffffffffffffffffffffffffffffffffffff16815260200191505060405180910390f35b6103b4610d4b565b6040518082815260200191505060405180910390f35b6103d2610d51565b604051808260028111156103e257fe5b815260200191505060405180910390f35b6103fb610d64565b005b61046b6004803603606081101561041357600080fd5b81019080803573ffffffffffffffffffffffffffffffffffffffff169060200190929190803573ffffffffffffffffffffffffffffffffffffffff169060200190929190803515159060200190929190505050610eea565b005b6104cf6004803603604081101561048357600080fd5b81019080803573ffffffffffffffffffffffffffffffffffffffff169060200190929190803573ffffffffffffffffffffffffffffffffffffffff169060200190929190505050610eef565b6040518082815260200191505060405180910390f35b610551600480360360608110156104fb57600080fd5b81019080803573ffffffffffffffffffffffffffffffffffffffff16906020019092919080359060200190929190803573ffffffffffffffffffffffffffffffffffffffff169060200190929190505050610ef7565b005b6105956004803603602081101561056957600080fd5b81019080803573ffffffffffffffffffffffffffffffffffffffff169060200190929190505050610efc565b60405180821515815260200191505060405180910390f35b6105b5610f1c565b604051808273ffffffffffffffffffffffffffffffffffffffff16815260200191505060405180910390f35b610623600480360360208110156105f757600080fd5b81019080803573ffffffffffffffffffffffffffffffffffffffff169060200190929190505050610f45565b6040518082815260200191505060405180910390f35b61067b6004803603602081101561064f57600080fd5b81019080803573ffffffffffffffffffffffffffffffffffffffff169060200190929190505050610f4c565b005b61074a6004803603606081101561069357600080fd5b81019080803590602001906401000000008111156106b057600080fd5b8201836020820111156106c257600080fd5b803590602001918460018302840111640100000000831117156106e457600080fd5b91908080601f016020809104026020016040519081016040528093929190818152602001838380828437600081840152601f19601f8201169050808301925050505050505091929192908035906020019092919080359060200190929190505050611482565b005b6107986004803603604081101561076257600080fd5b81019080803573ffffffffffffffffffffffffffffffffffffffff16906020019092919080359060200190929190505050611e16565b604051808273ffffffffffffffffffffffffffffffffffffffff16815260200191505060405180910390f35b610826600480360360408110156107da57600080fd5b81019080803573ffffffffffffffffffffffffffffffffffffffff169060200190929190803573ffffffffffffffffffffffffffffffffffffffff169060200190929190505050611e1e565b6040518082815260200191505060405180910390f35b61089e6004803603604081101561085257600080fd5b81019080803573ffffffffffffffffffffffffffffffffffffffff169060200190929190803573ffffffffffffffffffffffffffffffffffffffff169060200190929190505050611e43565b6040518082815260200191505060405180910390f35b6108f6600480360360208110156108ca57600080fd5b81019080803573ffffffffffffffffffffffffffffffffffffffff169060200190929190505050611e4b565b6040518082815260200191505060405180910390f35b61094e6004803603602081101561092257600080fd5b81019080803573ffffffffffffffffffffffffffffffffffffffff169060200190929190505050611e63565b005b61099c6004803603604081101561096657600080fd5b81019080803573ffffffffffffffffffffffffffffffffffffffff1690602001909291908035906020019092919050505061206e565b005b6109a6612072565b6040518082815260200191505060405180910390f35b6001600082815260200190815260200160002060009054906101000a900473ffffffffffffffffffffffffffffffffffffffff1673ffffffffffffffffffffffffffffffffffffffff163373ffffffffffffffffffffffffffffffffffffffff1614610a90576040517f08c379a00000000000000000000000000000000000000000000000000000000081526004018080602001828103825260088152602001807f77726f6e6720696400000000000000000000000000000000000000000000000081525060200191505060405180910390fd5b600260003373ffffffffffffffffffffffffffffffffffffffff1673ffffffffffffffffffffffffffffffffffffffff16815260200190815260200160002060009054906101000a900460ff16610b4f576040517f08c379a00000000000000000000000000000000000000000000000000000000081526004018080602001828103825260168152602001807f7472656173757279206973206e6f74206163746976650000000000000000000081525060200191505060405180910390fd5b610bd833600460405180807f44414900000000000000000000000000000000000000000000000000000000008152506003019050908152602001604051809103902060009054906101000a900473ffffffffffffffffffffffffffffffffffffffff167fffffffffffffffffffffffffffffffffffffffffffffffffffffffffffffffff612078565b610c6133600460405180807f55534443000000000000000000000000000000000000000000000000000000008152506004019050908152602001604051809103902060009054906101000a900473ffffffffffffffffffffffffffffffffffffffff167fffffffffffffffffffffffffffffffffffffffffffffffffffffffffffffffff612078565b7f78e5a77f9f20d8d96a78ff9fbe09d607bf641315b8965893038e859f91651c71816040518082815260200191505060405180910390a150565b6000919050565b60016020528060005260406000206000915054906101000a900473ffffffffffffffffffffffffffffffffffffffff1681565b6004818051602081018201805184825260208301602085012081835280955050505050506000915054906101000a900473ffffffffffffffffffffffffffffffffffffffff1681565b6000919050565b600660009054906101000a900473ffffffffffffffffffffffffffffffffffffffff1681565b60035481565b600660149054906101000a900460ff1681565b610d6c6121e5565b73ffffffffffffffffffffffffffffffffffffffff1660008054906101000a900473ffffffffffffffffffffffffffffffffffffffff1673ffffffffffffffffffffffffffffffffffffffff1614610e2c576040517f08c379a00000000000000000000000000000000000000000000000000000000081526004018080602001828103825260208152602001807f4f776e61626c653a2063616c6c6572206973206e6f7420746865206f776e657281525060200191505060405180910390fd5b600073ffffffffffffffffffffffffffffffffffffffff1660008054906101000a900473ffffffffffffffffffffffffffffffffffffffff1673ffffffffffffffffffffffffffffffffffffffff167f8be0079c531659141344cd1fd0a4f28419497f9722a3daafe3b4186f6b6457e060405160405180910390a360008060006101000a81548173ffffffffffffffffffffffffffffffffffffffff021916908373ffffffffffffffffffffffffffffffffffffffff160217905550565b505050565b600092915050565b505050565b60026020528060005260406000206000915054906101000a900460ff1681565b60008060009054906101000a900473ffffffffffffffffffffffffffffffffffffffff16905090565b6000919050565b610f546121e5565b73ffffffffffffffffffffffffffffffffffffffff1660008054906101000a900473ffffffffffffffffffffffffffffffffffffffff1673ffffffffffffffffffffffffffffffffffffffff1614611014576040517f08c379a00000000000000000000000000000000000000000000000000000000081526004018080602001828103825260208152602001807f4f776e61626c653a2063616c6c6572206973206e6f7420746865206f776e657281525060200191505060405180910390fd5b6000819050600660149054906101000a900460ff16600281111561103457fe5b8173ffffffffffffffffffffffffffffffffffffffff16636f2ddd936040518163ffffffff1660e01b815260040160206040518083038186803b15801561107a57600080fd5b505afa15801561108e573d6000803e3d6000fd5b505050506040513d60208110156110a457600080fd5b810190808051906020019092919050505060028111156110c057fe5b14611133576040517f08c379a00000000000000000000000000000000000000000000000000000000081526004018080602001828103825260118152602001807f74656d706c617465206d69736d6174636800000000000000000000000000000081525060200191505060405180910390fd5b3073ffffffffffffffffffffffffffffffffffffffff168173ffffffffffffffffffffffffffffffffffffffff16634162169f6040518163ffffffff1660e01b815260040160206040518083038186803b15801561119057600080fd5b505afa1580156111a4573d6000803e3d6000fd5b505050506040513d60208110156111ba57600080fd5b810190808051906020019092919050505073ffffffffffffffffffffffffffffffffffffffff1614611254576040517f08c379a000000000000000000000000000000000000000000000000000000000815260040180806020018281038252600c8152602001807f64616f206d69736d61746368000000000000000000000000000000000000000081525060200191505060405180910390fd5b8160016000600354815260200190815260200160002060006101000a81548173ffffffffffffffffffffffffffffffffffffffff021916908373ffffffffffffffffffffffffffffffffffffffff1602179055506001600260008473ffffffffffffffffffffffffffffffffffffffff1673ffffffffffffffffffffffffffffffffffffffff16815260200190815260200160002060006101000a81548160ff0219169083151502179055508073ffffffffffffffffffffffffffffffffffffffff1663d0e0ba956003546040518263ffffffff1660e01b815260040180828152602001915050600060405180830381600087803b15801561135557600080fd5b505af1158015611369573d6000803e3d6000fd5b505050507f720f042cfe589c4e7d9ece472897915730fb34a553dfd956cd4c9b0cee536a2f828273ffffffffffffffffffffffffffffffffffffffff1663dc1fb5a56040518163ffffffff1660e01b815260040160206040518083038186803b1580156113d557600080fd5b505afa1580156113e9573d6000803e3d6000fd5b505050506040513d60208110156113ff57600080fd5b8101908080519060200190929190505050600354604051808473ffffffffffffffffffffffffffffffffffffffff1681526020018373ffffffffffffffffffffffffffffffffffffffff168152602001828152602001935050505060405180910390a161147860016003546121ed90919063ffffffff16565b6003819055505050565b6000600354116114fa576040517f08c379a00000000000000000000000000000000000000000000000000000000081526004018080602001828103825260198152602001807f6e6f20636f6d6d756e792074726561737572792061646465640000000000000081525060200191505060405180910390fd5b60006004846040518082805190602001908083835b60208310611532578051825260208201915060208101905060208303925061150f565b6001836020036101000a038019825116818451168082178552505050505050905001915050908152602001604051809103902060009054906101000a900473ffffffffffffffffffffffffffffffffffffffff169050600073ffffffffffffffffffffffffffffffffffffffff168173ffffffffffffffffffffffffffffffffffffffff16141561160e576040517f08c379a00000000000000000000000000000000000000000000000000000000081526004018080602001828103825260398152602001806124326039913960400191505060405180910390fd5b60008190506000611630670de0b6b3a76400008661227590919063ffffffff16565b9050808273ffffffffffffffffffffffffffffffffffffffff166370a082316116576121e5565b6040518263ffffffff1660e01b8152600401808273ffffffffffffffffffffffffffffffffffffffff16815260200191505060206040518083038186803b1580156116a157600080fd5b505afa1580156116b5573d6000803e3d6000fd5b505050506040513d60208110156116cb57600080fd5b81019080805190602001909291905050501015611733576040517f08c379a000000000000000000000000000000000000000000000000000000000815260040180806020018281038252602681526020018061248c6026913960400191505060405180910390fd5b6000600660009054906101000a900473ffffffffffffffffffffffffffffffffffffffff1673ffffffffffffffffffffffffffffffffffffffff16630542975c6040518163ffffffff1660e01b815260040160206040518083038186803b15801561179d57600080fd5b505afa1580156117b1573d6000803e3d6000fd5b505050506040513d60208110156117c757600080fd5b810190808051906020019092919050505073ffffffffffffffffffffffffffffffffffffffff16630261bf8b6040518163ffffffff1660e01b815260040160206040518083038186803b15801561181d57600080fd5b505afa158015611831573d6000803e3d6000fd5b505050506040513d602081101561184757600080fd5b810190808051906020019092919050505090506000600660009054906101000a900473ffffffffffffffffffffffffffffffffffffffff1673ffffffffffffffffffffffffffffffffffffffff1663d2493b6c866040518263ffffffff1660e01b8152600401808273ffffffffffffffffffffffffffffffffffffffff16815260200191505060606040518083038186803b1580156118e557600080fd5b505afa1580156118f9573d6000803e3d6000fd5b505050506040513d606081101561190f57600080fd5b810190808051906020019092919080519060200190929190805190602001909291905050505050905060008190508473ffffffffffffffffffffffffffffffffffffffff166323b872dd3330876040518463ffffffff1660e01b8152600401808473ffffffffffffffffffffffffffffffffffffffff1681526020018373ffffffffffffffffffffffffffffffffffffffff1681526020018281526020019350505050602060405180830381600087803b1580156119cc57600080fd5b505af11580156119e0573d6000803e3d6000fd5b505050506040513d60208110156119f657600080fd5b8101908080519060200190929190505050508473ffffffffffffffffffffffffffffffffffffffff1663095ea7b384866040518363ffffffff1660e01b8152600401808373ffffffffffffffffffffffffffffffffffffffff16815260200182815260200192505050602060405180830381600087803b158015611a7957600080fd5b505af1158015611a8d573d6000803e3d6000fd5b505050506040513d6020811015611aa357600080fd5b8101908080519060200190929190505050508273ffffffffffffffffffffffffffffffffffffffff1663e8eda9df87863060006040518563ffffffff1660e01b8152600401808573ffffffffffffffffffffffffffffffffffffffff1681526020018481526020018373ffffffffffffffffffffffffffffffffffffffff168152602001828152602001945050505050600060405180830381600087803b158015611b4d57600080fd5b505af1158015611b61573d6000803e3d6000fd5b50505050611c19611b8e6064611b808a8861227590919063ffffffff16565b6122fb90919063ffffffff16565b600560003373ffffffffffffffffffffffffffffffffffffffff1673ffffffffffffffffffffffffffffffffffffffff16815260200190815260200160002060008973ffffffffffffffffffffffffffffffffffffffff1673ffffffffffffffffffffffffffffffffffffffff168152602001908152602001600020546121ed90919063ffffffff16565b600560003373ffffffffffffffffffffffffffffffffffffffff1673ffffffffffffffffffffffffffffffffffffffff16815260200190815260200160002060008873ffffffffffffffffffffffffffffffffffffffff1673ffffffffffffffffffffffffffffffffffffffff16815260200190815260200160002081905550611ceb84600760003373ffffffffffffffffffffffffffffffffffffffff1673ffffffffffffffffffffffffffffffffffffffff168152602001908152602001600020546121ed90919063ffffffff16565b600760003373ffffffffffffffffffffffffffffffffffffffff1673ffffffffffffffffffffffffffffffffffffffff16815260200190815260200160002081905550611d43846008546121ed90919063ffffffff16565b6008819055507ffd4bdef056842e4615d2a093647094c0b9bf67c63662d614d63fefd617e0add2338a8a604051808473ffffffffffffffffffffffffffffffffffffffff16815260200180602001838152602001828103825284818151815260200191508051906020019080838360005b83811015611dcf578082015181840152602081019050611db4565b50505050905090810190601f168015611dfc5780820380516001836020036101000a031916815260200191505b5094505050505060405180910390a1505050505050505050565b600092915050565b6005602052816000526040600020602052806000526040600020600091509150505481565b600092915050565b60076020528060005260406000206000915090505481565b611e6b6121e5565b73ffffffffffffffffffffffffffffffffffffffff1660008054906101000a900473ffffffffffffffffffffffffffffffffffffffff1673ffffffffffffffffffffffffffffffffffffffff1614611f2b576040517f08c379a00000000000000000000000000000000000000000000000000000000081526004018080602001828103825260208152602001807f4f776e61626c653a2063616c6c6572206973206e6f7420746865206f776e657281525060200191505060405180910390fd5b600073ffffffffffffffffffffffffffffffffffffffff168173ffffffffffffffffffffffffffffffffffffffff161415611fb1576040517f08c379a000000000000000000000000000000000000000000000000000000000815260040180806020018281038252602681526020018061240c6026913960400191505060405180910390fd5b8073ffffffffffffffffffffffffffffffffffffffff1660008054906101000a900473ffffffffffffffffffffffffffffffffffffffff1673ffffffffffffffffffffffffffffffffffffffff167f8be0079c531659141344cd1fd0a4f28419497f9722a3daafe3b4186f6b6457e060405160405180910390a3806000806101000a81548173ffffffffffffffffffffffffffffffffffffffff021916908373ffffffffffffffffffffffffffffffffffffffff16021790555050565b5050565b60085481565b6000600660009054906101000a900473ffffffffffffffffffffffffffffffffffffffff1673ffffffffffffffffffffffffffffffffffffffff1663d2493b6c846040518263ffffffff1660e01b8152600401808273ffffffffffffffffffffffffffffffffffffffff16815260200191505060606040518083038186803b15801561210357600080fd5b505afa158015612117573d6000803e3d6000fd5b505050506040513d606081101561212d57600080fd5b81019080805190602001909291908051906020019092919080519060200190929190505050509150508073ffffffffffffffffffffffffffffffffffffffff1663c04a8a1085846040518363ffffffff1660e01b8152600401808373ffffffffffffffffffffffffffffffffffffffff16815260200182815260200192505050600060405180830381600087803b1580156121c757600080fd5b505af11580156121db573d6000803e3d6000fd5b5050505050505050565b600033905090565b60008082840190508381101561226b576040517f08c379a000000000000000000000000000000000000000000000000000000000815260040180806020018281038252601b8152602001807f536166654d6174683a206164646974696f6e206f766572666c6f77000000000081525060200191505060405180910390fd5b8091505092915050565b60008083141561228857600090506122f5565b600082840290508284828161229957fe5b04146122f0576040517f08c379a000000000000000000000000000000000000000000000000000000000815260040180806020018281038252602181526020018061246b6021913960400191505060405180910390fd5b809150505b92915050565b600061233d83836040518060400160405280601a81526020017f536166654d6174683a206469766973696f6e206279207a65726f000000000000815250612345565b905092915050565b600080831182906123f1576040517f08c379a00000000000000000000000000000000000000000000000000000000081526004018080602001828103825283818151815260200191508051906020019080838360005b838110156123b657808201518184015260208101905061239b565b50505050905090810190601f1680156123e35780820380516001836020036101000a031916815260200191505b509250505060405180910390fd5b5060008385816123fd57fe5b04905080915050939250505056fe4f776e61626c653a206e6577206f776e657220697320746865207a65726f20616464726573735468652063757272656e63792070617373656420617320616e20617267756d656e74206973206e6f7420656e61626c65642c20736f72727921536166654d6174683a206d756c7469706c69636174696f6e206f766572666c6f77596f7520646f6e2774206861766520656e6f7567682066756e647320746f20696e766573742ea264697066735822122070648d517a63d8859739f8e749d451b40e2aa02d68281903faf4799d183cf87264736f6c63430007040033",
  "linkReferences": {},
  "deployedLinkReferences": {}
}