{
  "_format": "hh-sol-artifact-1",
  "contractName": "TreasuryDao",
  "sourceName": "contracts/TreasuryDao.sol",
  "abi": [
    {
      "inputs": [
        {
          "internalType": "enum DataTypes.CommunityTemplate",
          "name": "_template",
          "type": "uint8"
        },
        {
          "internalType": "address",
          "name": "_addressesProvider",
          "type": "address"
        },
        {
          "internalType": "address",
          "name": "_aaveDataProvider",
          "type": "address"
        }
      ],
      "stateMutability": "nonpayable",
      "type": "constructor"
    },
    {
      "anonymous": false,
      "inputs": [
        {
          "indexed": false,
          "internalType": "address",
          "name": "_treasuryAddress",
          "type": "address"
        },
        {
          "indexed": false,
          "internalType": "address",
          "name": "_communityAddress",
          "type": "address"
        },
        {
          "indexed": false,
          "internalType": "uint256",
          "name": "_id",
          "type": "uint256"
        }
      ],
      "name": "CommunityLinked",
      "type": "event"
    },
    {
      "anonymous": false,
      "inputs": [
        {
          "indexed": false,
          "internalType": "address",
          "name": "_community",
          "type": "address"
        },
        {
          "indexed": false,
          "internalType": "address",
          "name": "_currency",
          "type": "address"
        },
        {
          "indexed": false,
          "internalType": "uint256",
          "name": "_amount",
          "type": "uint256"
        }
      ],
      "name": "Delegated",
      "type": "event"
    },
    {
      "anonymous": false,
      "inputs": [
        {
          "indexed": false,
          "internalType": "address",
          "name": "_depositor",
          "type": "address"
        },
        {
          "indexed": false,
          "internalType": "string",
          "name": "_currency",
          "type": "string"
        },
        {
          "indexed": false,
          "internalType": "uint256",
          "name": "_amount",
          "type": "uint256"
        }
      ],
      "name": "Deposited",
      "type": "event"
    },
    {
      "anonymous": false,
      "inputs": [
        {
          "indexed": true,
          "internalType": "address",
          "name": "previousOwner",
          "type": "address"
        },
        {
          "indexed": true,
          "internalType": "address",
          "name": "newOwner",
          "type": "address"
        }
      ],
      "name": "OwnershipTransferred",
      "type": "event"
    },
    {
      "anonymous": false,
      "inputs": [
        {
          "indexed": false,
          "internalType": "uint256",
          "name": "_id",
          "type": "uint256"
        }
      ],
      "name": "ThresholdReached",
      "type": "event"
    },
    {
      "inputs": [],
      "name": "IDENTITY",
      "outputs": [
        {
          "internalType": "bytes4",
          "name": "",
          "type": "bytes4"
        }
      ],
      "stateMutability": "view",
      "type": "function"
    },
    {
      "inputs": [],
      "name": "aaveProtocolDataProvider",
      "outputs": [
        {
          "internalType": "contract IProtocolDataProvider",
          "name": "",
          "type": "address"
        }
      ],
      "stateMutability": "view",
      "type": "function"
    },
    {
      "inputs": [],
      "name": "addressesProvider",
      "outputs": [
        {
          "internalType": "address",
          "name": "",
          "type": "address"
        }
      ],
      "stateMutability": "view",
      "type": "function"
    },
    {
      "inputs": [
        {
          "internalType": "uint256",
          "name": "",
          "type": "uint256"
        }
      ],
      "name": "communityTreasuries",
      "outputs": [
        {
          "internalType": "address",
          "name": "",
          "type": "address"
        }
      ],
      "stateMutability": "view",
      "type": "function"
    },
    {
      "inputs": [
        {
          "internalType": "address",
          "name": "_currency",
          "type": "address"
        },
        {
          "internalType": "uint256",
          "name": "_amount",
          "type": "uint256"
        },
        {
          "internalType": "address",
          "name": "_deligatee",
          "type": "address"
        }
      ],
      "name": "delegate",
      "outputs": [],
      "stateMutability": "nonpayable",
      "type": "function"
    },
    {
      "inputs": [
        {
          "internalType": "string",
          "name": "_currency",
          "type": "string"
        },
        {
          "internalType": "uint256",
          "name": "_amount",
          "type": "uint256"
        },
        {
          "internalType": "uint256",
          "name": "_repayment",
          "type": "uint256"
        }
      ],
      "name": "deposit",
      "outputs": [],
      "stateMutability": "nonpayable",
      "type": "function"
    },
    {
      "inputs": [
        {
          "internalType": "address",
          "name": "",
          "type": "address"
        }
      ],
      "name": "depositors",
      "outputs": [
        {
          "internalType": "uint256",
          "name": "",
          "type": "uint256"
        }
      ],
      "stateMutability": "view",
      "type": "function"
    },
    {
      "inputs": [
        {
          "internalType": "address",
          "name": "_currency",
          "type": "address"
        },
        {
          "internalType": "address",
          "name": "_member",
          "type": "address"
        }
      ],
      "name": "getBalance",
      "outputs": [
        {
          "internalType": "uint256",
          "name": "",
          "type": "uint256"
        }
      ],
      "stateMutability": "nonpayable",
      "type": "function"
    },
    {
      "inputs": [
        {
          "internalType": "address",
          "name": "_currency",
          "type": "address"
        },
        {
          "internalType": "uint256",
          "name": "_id",
          "type": "uint256"
        }
      ],
      "name": "getDeligatee",
      "outputs": [
        {
          "internalType": "address",
          "name": "",
          "type": "address"
        }
      ],
      "stateMutability": "nonpayable",
      "type": "function"
    },
    {
      "inputs": [
        {
          "internalType": "address",
          "name": "_currency",
          "type": "address"
        },
        {
          "internalType": "address",
          "name": "_deligatee",
          "type": "address"
        }
      ],
      "name": "getDeligateeBorrowedAmount",
      "outputs": [
        {
          "internalType": "uint256",
          "name": "",
          "type": "uint256"
        }
      ],
      "stateMutability": "nonpayable",
      "type": "function"
    },
    {
      "inputs": [
        {
          "internalType": "address",
          "name": "_currency",
          "type": "address"
        }
      ],
      "name": "getDeligateeCount",
      "outputs": [
        {
          "internalType": "uint256",
          "name": "",
          "type": "uint256"
        }
      ],
      "stateMutability": "nonpayable",
      "type": "function"
    },
    {
      "inputs": [
        {
          "internalType": "address",
          "name": "_currency",
          "type": "address"
        }
      ],
      "name": "getTreasuryBalance",
      "outputs": [
        {
          "internalType": "uint256",
          "name": "",
          "type": "uint256"
        }
      ],
      "stateMutability": "nonpayable",
      "type": "function"
    },
    {
      "inputs": [
        {
          "internalType": "address",
          "name": "_currency",
          "type": "address"
        }
      ],
      "name": "getTreasuryBorrowedBalance",
      "outputs": [
        {
          "internalType": "uint256",
          "name": "",
          "type": "uint256"
        }
      ],
      "stateMutability": "nonpayable",
      "type": "function"
    },
    {
      "inputs": [
        {
          "internalType": "address",
          "name": "",
          "type": "address"
        }
      ],
      "name": "isTreasuryActive",
      "outputs": [
        {
          "internalType": "bool",
          "name": "",
          "type": "bool"
        }
      ],
      "stateMutability": "view",
      "type": "function"
    },
    {
      "inputs": [
        {
          "internalType": "address",
          "name": "_treasuryAddress",
          "type": "address"
        }
      ],
      "name": "linkCommunity",
      "outputs": [],
      "stateMutability": "nonpayable",
      "type": "function"
    },
    {
      "inputs": [],
      "name": "nextId",
      "outputs": [
        {
          "internalType": "uint256",
          "name": "",
          "type": "uint256"
        }
      ],
      "stateMutability": "view",
      "type": "function"
    },
    {
      "inputs": [],
      "name": "owner",
      "outputs": [
        {
          "internalType": "address",
          "name": "",
          "type": "address"
        }
      ],
      "stateMutability": "view",
      "type": "function"
    },
    {
      "inputs": [],
      "name": "renounceOwnership",
      "outputs": [],
      "stateMutability": "nonpayable",
      "type": "function"
    },
    {
      "inputs": [
        {
          "internalType": "address",
          "name": "",
          "type": "address"
        },
        {
          "internalType": "address",
          "name": "",
          "type": "address"
        }
      ],
      "name": "repayableAmount",
      "outputs": [
        {
          "internalType": "uint256",
          "name": "",
          "type": "uint256"
        }
      ],
      "stateMutability": "view",
      "type": "function"
    },
    {
      "inputs": [],
      "name": "template",
      "outputs": [
        {
          "internalType": "enum DataTypes.CommunityTemplate",
          "name": "",
          "type": "uint8"
        }
      ],
      "stateMutability": "view",
      "type": "function"
    },
    {
      "inputs": [
        {
          "internalType": "uint256",
          "name": "_id",
          "type": "uint256"
        }
      ],
      "name": "thresholdReached",
      "outputs": [],
      "stateMutability": "nonpayable",
      "type": "function"
    },
    {
      "inputs": [],
      "name": "totalDeposited",
      "outputs": [
        {
          "internalType": "uint256",
          "name": "",
          "type": "uint256"
        }
      ],
      "stateMutability": "view",
      "type": "function"
    },
    {
      "inputs": [
        {
          "internalType": "address",
          "name": "newOwner",
          "type": "address"
        }
      ],
      "name": "transferOwnership",
      "outputs": [],
      "stateMutability": "nonpayable",
      "type": "function"
    },
    {
      "inputs": [
        {
          "internalType": "address",
          "name": "_currency",
          "type": "address"
        },
        {
          "internalType": "address",
          "name": "_deligatee",
          "type": "address"
        },
        {
          "internalType": "bool",
          "name": "_force",
          "type": "bool"
        }
      ],
      "name": "undelegate",
      "outputs": [],
      "stateMutability": "nonpayable",
      "type": "function"
    },
    {
      "inputs": [
        {
          "internalType": "address",
          "name": "_currency",
          "type": "address"
        },
        {
          "internalType": "uint256",
          "name": "_amount",
          "type": "uint256"
        }
      ],
      "name": "withdraw",
      "outputs": [],
      "stateMutability": "nonpayable",
      "type": "function"
    }
  ],
  "bytecode": "0x60806040523480156200001157600080fd5b50604051620038743803806200387483398181016040528101906200003791906200023f565b6000620000496200020960201b60201c565b9050806000806101000a81548173ffffffffffffffffffffffffffffffffffffffff021916908373ffffffffffffffffffffffffffffffffffffffff1602179055508073ffffffffffffffffffffffffffffffffffffffff16600073ffffffffffffffffffffffffffffffffffffffff167f8be0079c531659141344cd1fd0a4f28419497f9722a3daafe3b4186f6b6457e060405160405180910390a350600073ffffffffffffffffffffffffffffffffffffffff168173ffffffffffffffffffffffffffffffffffffffff1614156200015a576040517f08c379a00000000000000000000000000000000000000000000000000000000081526004016200015190620002d7565b60405180910390fd5b82600660146101000a81548160ff021916908360028111156200017957fe5b021790555081600160006101000a81548173ffffffffffffffffffffffffffffffffffffffff021916908373ffffffffffffffffffffffffffffffffffffffff16021790555080600660006101000a81548173ffffffffffffffffffffffffffffffffffffffff021916908373ffffffffffffffffffffffffffffffffffffffff16021790555050505062000369565b600033905090565b60008151905062000222816200033e565b92915050565b600081519050620002398162000358565b92915050565b6000806000606084860312156200025557600080fd5b6000620002658682870162000228565b9350506020620002788682870162000211565b92505060406200028b8682870162000211565b9150509250925092565b6000620002a4601e83620002f9565b91507f4161766520646174612070726f76696465722063616e6e6f74206265203000006000830152602082019050919050565b60006020820190508181036000830152620002f28162000295565b9050919050565b600082825260208201905092915050565b600062000317826200031e565b9050919050565b600073ffffffffffffffffffffffffffffffffffffffff82169050919050565b62000349816200030a565b81146200035557600080fd5b50565b600381106200036657600080fd5b50565b6134fb80620003796000396000f3fe608060405234801561001057600080fd5b50600436106101735760003560e01c80637b3d7efd116100de578063c72c4d1011610097578063eed75f6d11610071578063eed75f6d14610472578063f2fde38b146104a2578063f3fef3a3146104be578063ff50abdc146104da57610173565b8063c72c4d10146103f4578063d431f13114610412578063d4fac45d1461044257610173565b80637b3d7efd1461030e5780638da5cb5b1461033e5780639707c1c31461035c578063a263605d1461038c578063a7829ffa146103a8578063c1a32862146103c457610173565b806361b8ce8c1161013057806361b8ce8c146102605780636f2ddd931461027e578063715018a61461029c57806372dc6938146102a6578063744ee913146102c257806375e2b5b9146102f257610173565b806305f9c59714610178578063150c4aea146101945780631f395d4e146101b2578063307fc1aa146101e257806357baeac8146102125780635f9d4d2e14610242575b600080fd5b610192600480360381019061018d9190612a81565b6104f8565b005b61019c610aca565b6040516101a99190613004565b60405180910390f35b6101cc60048036038101906101c7919061277e565b610ad5565b6040516101d99190613197565b60405180910390f35b6101fc60048036038101906101f79190612a81565b610adc565b6040516102099190612e99565b60405180910390f35b61022c6004803603810190610227919061277e565b610b0f565b6040516102399190613197565b60405180910390f35b61024a610b16565b604051610257919061301f565b60405180910390f35b610268610b3c565b6040516102759190613197565b60405180910390f35b610286610b42565b604051610293919061303a565b60405180910390f35b6102a4610b55565b005b6102c060048036038101906102bb919061285b565b610cc2565b005b6102dc60048036038101906102d791906127d0565b610cc7565b6040516102e99190613197565b60405180910390f35b61030c600480360381019061030791906128e6565b610ccf565b005b6103286004803603810190610323919061277e565b610cd4565b6040516103359190612fe9565b60405180910390f35b610346610cf4565b6040516103539190612e99565b60405180910390f35b6103766004803603810190610371919061277e565b610d1d565b6040516103839190613197565b60405180910390f35b6103a660048036038101906103a1919061277e565b610d24565b005b6103c260048036038101906103bd9190612a1a565b611243565b005b6103de60048036038101906103d991906128aa565b611976565b6040516103eb9190612e99565b60405180910390f35b6103fc61197e565b6040516104099190612e99565b60405180910390f35b61042c600480360381019061042791906127d0565b6119a4565b6040516104399190613197565b60405180910390f35b61045c600480360381019061045791906127d0565b6119c9565b6040516104699190613197565b60405180910390f35b61048c6004803603810190610487919061277e565b6119d1565b6040516104999190613197565b60405180910390f35b6104bc60048036038101906104b7919061277e565b6119e9565b005b6104d860048036038101906104d391906128aa565b611bdb565b005b6104e2611bdf565b6040516104ef9190613197565b60405180910390f35b6002600082815260200190815260200160002060009054906101000a900473ffffffffffffffffffffffffffffffffffffffff1673ffffffffffffffffffffffffffffffffffffffff163373ffffffffffffffffffffffffffffffffffffffff1614610599576040517f08c379a0000000000000000000000000000000000000000000000000000000008152600401610590906130d7565b60405180910390fd5b600360003373ffffffffffffffffffffffffffffffffffffffff1673ffffffffffffffffffffffffffffffffffffffff16815260200190815260200160002060009054906101000a900460ff16610625576040517f08c379a000000000000000000000000000000000000000000000000000000000815260040161061c90613137565b60405180910390fd5b6000600660009054906101000a900473ffffffffffffffffffffffffffffffffffffffff1673ffffffffffffffffffffffffffffffffffffffff16630542975c6040518163ffffffff1660e01b815260040160206040518083038186803b15801561068f57600080fd5b505afa1580156106a3573d6000803e3d6000fd5b505050506040513d601f19601f820116820180604052508101906106c7919061299f565b73ffffffffffffffffffffffffffffffffffffffff1663fca513a86040518163ffffffff1660e01b815260040160206040518083038186803b15801561070c57600080fd5b505afa158015610720573d6000803e3d6000fd5b505050506040513d601f19601f8201168201806040525081019061074491906127a7565b90506000600660009054906101000a900473ffffffffffffffffffffffffffffffffffffffff1673ffffffffffffffffffffffffffffffffffffffff16630542975c6040518163ffffffff1660e01b815260040160206040518083038186803b1580156107b057600080fd5b505afa1580156107c4573d6000803e3d6000fd5b505050506040513d601f19601f820116820180604052508101906107e8919061299f565b73ffffffffffffffffffffffffffffffffffffffff16630261bf8b6040518163ffffffff1660e01b815260040160206040518083038186803b15801561082d57600080fd5b505afa158015610841573d6000803e3d6000fd5b505050506040513d601f19601f8201168201806040525081019061086591906127a7565b905060008173ffffffffffffffffffffffffffffffffffffffff1663bf92857c306040518263ffffffff1660e01b81526004016108a29190612e99565b60c06040518083038186803b1580156108ba57600080fd5b505afa1580156108ce573d6000803e3d6000fd5b505050506040513d601f19601f820116820180604052508101906108f29190612ad3565b505050925050506000610a3e8473ffffffffffffffffffffffffffffffffffffffff1663b3596f07600160009054906101000a900473ffffffffffffffffffffffffffffffffffffffff1673ffffffffffffffffffffffffffffffffffffffff1663dacacb4e6040518163ffffffff1660e01b815260040161097390613157565b60206040518083038186803b15801561098b57600080fd5b505afa15801561099f573d6000803e3d6000fd5b505050506040513d601f19601f820116820180604052508101906109c391906127a7565b6040518263ffffffff1660e01b81526004016109df9190612e99565b60206040518083038186803b1580156109f757600080fd5b505afa158015610a0b573d6000803e3d6000fd5b505050506040513d601f19601f82011682018060405250810190610a2f9190612aaa565b83611be590919063ffffffff16565b9050610a676064610a59605084611c6e90919063ffffffff16565b611be590919063ffffffff16565b9050610a8c610a87670de0b6b3a764000083611c6e90919063ffffffff16565b611cf4565b7f78e5a77f9f20d8d96a78ff9fbe09d607bf641315b8965893038e859f91651c7185604051610abb9190613197565b60405180910390a15050505050565b637eb0b43d60e01b81565b6000919050565b60026020528060005260406000206000915054906101000a900473ffffffffffffffffffffffffffffffffffffffff1681565b6000919050565b600660009054906101000a900473ffffffffffffffffffffffffffffffffffffffff1681565b60045481565b600660149054906101000a900460ff1681565b610b5d61213b565b73ffffffffffffffffffffffffffffffffffffffff16610b7b610cf4565b73ffffffffffffffffffffffffffffffffffffffff1614610c04576040517f08c379a00000000000000000000000000000000000000000000000000000000081526004018080602001828103825260208152602001807f4f776e61626c653a2063616c6c6572206973206e6f7420746865206f776e657281525060200191505060405180910390fd5b600073ffffffffffffffffffffffffffffffffffffffff1660008054906101000a900473ffffffffffffffffffffffffffffffffffffffff1673ffffffffffffffffffffffffffffffffffffffff167f8be0079c531659141344cd1fd0a4f28419497f9722a3daafe3b4186f6b6457e060405160405180910390a360008060006101000a81548173ffffffffffffffffffffffffffffffffffffffff021916908373ffffffffffffffffffffffffffffffffffffffff160217905550565b505050565b600092915050565b505050565b60036020528060005260406000206000915054906101000a900460ff1681565b60008060009054906101000a900473ffffffffffffffffffffffffffffffffffffffff16905090565b6000919050565b610d2c61213b565b73ffffffffffffffffffffffffffffffffffffffff16610d4a610cf4565b73ffffffffffffffffffffffffffffffffffffffff161480610e3d5750600160009054906101000a900473ffffffffffffffffffffffffffffffffffffffff1673ffffffffffffffffffffffffffffffffffffffff16636873cd796040518163ffffffff1660e01b815260040160206040518083038186803b158015610dcf57600080fd5b505afa158015610de3573d6000803e3d6000fd5b505050506040513d601f19601f82011682018060405250810190610e0791906127a7565b73ffffffffffffffffffffffffffffffffffffffff16610e2561213b565b73ffffffffffffffffffffffffffffffffffffffff16145b610e7c576040517f08c379a0000000000000000000000000000000000000000000000000000000008152600401610e73906130b7565b60405180910390fd5b6000819050600660149054906101000a900460ff166002811115610e9c57fe5b8173ffffffffffffffffffffffffffffffffffffffff16636f2ddd936040518163ffffffff1660e01b815260040160206040518083038186803b158015610ee257600080fd5b505afa158015610ef6573d6000803e3d6000fd5b505050506040513d601f19601f82011682018060405250810190610f1a91906129f1565b6002811115610f2557fe5b14610f65576040517f08c379a0000000000000000000000000000000000000000000000000000000008152600401610f5c90613177565b60405180910390fd5b3073ffffffffffffffffffffffffffffffffffffffff168173ffffffffffffffffffffffffffffffffffffffff16634162169f6040518163ffffffff1660e01b815260040160206040518083038186803b158015610fc257600080fd5b505afa158015610fd6573d6000803e3d6000fd5b505050506040513d601f19601f82011682018060405250810190610ffa91906129c8565b73ffffffffffffffffffffffffffffffffffffffff1614611050576040517f08c379a000000000000000000000000000000000000000000000000000000000815260040161104790613077565b60405180910390fd5b8160026000600454815260200190815260200160002060006101000a81548173ffffffffffffffffffffffffffffffffffffffff021916908373ffffffffffffffffffffffffffffffffffffffff1602179055506001600360008473ffffffffffffffffffffffffffffffffffffffff1673ffffffffffffffffffffffffffffffffffffffff16815260200190815260200160002060006101000a81548160ff0219169083151502179055508073ffffffffffffffffffffffffffffffffffffffff1663d0e0ba956004546040518263ffffffff1660e01b81526004016111379190613197565b600060405180830381600087803b15801561115157600080fd5b505af1158015611165573d6000803e3d6000fd5b505050507f720f042cfe589c4e7d9ece472897915730fb34a553dfd956cd4c9b0cee536a2f828273ffffffffffffffffffffffffffffffffffffffff1663dc1fb5a56040518163ffffffff1660e01b815260040160206040518083038186803b1580156111d157600080fd5b505afa1580156111e5573d6000803e3d6000fd5b505050506040513d601f19601f8201168201806040525081019061120991906127a7565b60045460405161121b93929190612f44565b60405180910390a1611239600160045461214390919063ffffffff16565b6004819055505050565b600060045411611288576040517f08c379a000000000000000000000000000000000000000000000000000000000815260040161127f90613097565b60405180910390fd5b6000600160009054906101000a900473ffffffffffffffffffffffffffffffffffffffff1673ffffffffffffffffffffffffffffffffffffffff1663dacacb4e856040518263ffffffff1660e01b81526004016112e59190613055565b60206040518083038186803b1580156112fd57600080fd5b505afa158015611311573d6000803e3d6000fd5b505050506040513d601f19601f8201168201806040525081019061133591906127a7565b9050600073ffffffffffffffffffffffffffffffffffffffff168173ffffffffffffffffffffffffffffffffffffffff1614156113a7576040517f08c379a000000000000000000000000000000000000000000000000000000000815260040161139e906130f7565b60405180910390fd5b600081905060006113c9670de0b6b3a764000086611c6e90919063ffffffff16565b9050808273ffffffffffffffffffffffffffffffffffffffff166370a082316113f061213b565b6040518263ffffffff1660e01b815260040161140c9190612eb4565b60206040518083038186803b15801561142457600080fd5b505afa158015611438573d6000803e3d6000fd5b505050506040513d601f19601f8201168201806040525081019061145c9190612aaa565b101561149d576040517f08c379a000000000000000000000000000000000000000000000000000000000815260040161149490613117565b60405180910390fd5b6000600660009054906101000a900473ffffffffffffffffffffffffffffffffffffffff1673ffffffffffffffffffffffffffffffffffffffff16630542975c6040518163ffffffff1660e01b815260040160206040518083038186803b15801561150757600080fd5b505afa15801561151b573d6000803e3d6000fd5b505050506040513d601f19601f8201168201806040525081019061153f919061299f565b73ffffffffffffffffffffffffffffffffffffffff16630261bf8b6040518163ffffffff1660e01b815260040160206040518083038186803b15801561158457600080fd5b505afa158015611598573d6000803e3d6000fd5b505050506040513d601f19601f820116820180604052508101906115bc91906127a7565b90508273ffffffffffffffffffffffffffffffffffffffff166323b872dd3330856040518463ffffffff1660e01b81526004016115fb93929190612ecf565b602060405180830381600087803b15801561161557600080fd5b505af1158015611629573d6000803e3d6000fd5b505050506040513d601f19601f8201168201806040525081019061164d9190612976565b508273ffffffffffffffffffffffffffffffffffffffff1663095ea7b382846040518363ffffffff1660e01b8152600401611689929190612f7b565b602060405180830381600087803b1580156116a357600080fd5b505af11580156116b7573d6000803e3d6000fd5b505050506040513d601f19601f820116820180604052508101906116db9190612976565b508073ffffffffffffffffffffffffffffffffffffffff1663e8eda9df85843060006040518563ffffffff1660e01b815260040161171c9493929190612fa4565b600060405180830381600087803b15801561173657600080fd5b505af115801561174a573d6000803e3d6000fd5b5050505061180261177760646117698886611c6e90919063ffffffff16565b611be590919063ffffffff16565b600560003373ffffffffffffffffffffffffffffffffffffffff1673ffffffffffffffffffffffffffffffffffffffff16815260200190815260200160002060008773ffffffffffffffffffffffffffffffffffffffff1673ffffffffffffffffffffffffffffffffffffffff1681526020019081526020016000205461214390919063ffffffff16565b600560003373ffffffffffffffffffffffffffffffffffffffff1673ffffffffffffffffffffffffffffffffffffffff16815260200190815260200160002060008673ffffffffffffffffffffffffffffffffffffffff1673ffffffffffffffffffffffffffffffffffffffff168152602001908152602001600020819055506118d482600760003373ffffffffffffffffffffffffffffffffffffffff1673ffffffffffffffffffffffffffffffffffffffff1681526020019081526020016000205461214390919063ffffffff16565b600760003373ffffffffffffffffffffffffffffffffffffffff1673ffffffffffffffffffffffffffffffffffffffff1681526020019081526020016000208190555061192c8260085461214390919063ffffffff16565b6008819055507ffd4bdef056842e4615d2a093647094c0b9bf67c63662d614d63fefd617e0add233888860405161196593929190612f06565b60405180910390a150505050505050565b600092915050565b600160009054906101000a900473ffffffffffffffffffffffffffffffffffffffff1681565b6005602052816000526040600020602052806000526040600020600091509150505481565b600092915050565b60076020528060005260406000206000915090505481565b6119f161213b565b73ffffffffffffffffffffffffffffffffffffffff16611a0f610cf4565b73ffffffffffffffffffffffffffffffffffffffff1614611a98576040517f08c379a00000000000000000000000000000000000000000000000000000000081526004018080602001828103825260208152602001807f4f776e61626c653a2063616c6c6572206973206e6f7420746865206f776e657281525060200191505060405180910390fd5b600073ffffffffffffffffffffffffffffffffffffffff168173ffffffffffffffffffffffffffffffffffffffff161415611b1e576040517f08c379a000000000000000000000000000000000000000000000000000000000815260040180806020018281038252602681526020018061347f6026913960400191505060405180910390fd5b8073ffffffffffffffffffffffffffffffffffffffff1660008054906101000a900473ffffffffffffffffffffffffffffffffffffffff1673ffffffffffffffffffffffffffffffffffffffff167f8be0079c531659141344cd1fd0a4f28419497f9722a3daafe3b4186f6b6457e060405160405180910390a3806000806101000a81548173ffffffffffffffffffffffffffffffffffffffff021916908373ffffffffffffffffffffffffffffffffffffffff16021790555050565b5050565b60085481565b6000808211611c5c576040517f08c379a000000000000000000000000000000000000000000000000000000000815260040180806020018281038252601a8152602001807f536166654d6174683a206469766973696f6e206279207a65726f00000000000081525060200191505060405180910390fd5b818381611c6557fe5b04905092915050565b600080831415611c815760009050611cee565b6000828402905082848281611c9257fe5b0414611ce9576040517f08c379a00000000000000000000000000000000000000000000000000000000081526004018080602001828103825260218152602001806134a56021913960400191505060405180910390fd5b809150505b92915050565b600080606060045467ffffffffffffffff81118015611d1257600080fd5b50604051908082528060200260200182016040528015611d415781602001602082028036833780820191505090505b509050606060045467ffffffffffffffff81118015611d5f57600080fd5b50604051908082528060200260200182016040528015611d8e5781602001602082028036833780820191505090505b50905060008060005b600454811015611fc2576000848281518110611daf57fe5b6020026020010190151590811515815250506002600082815260200190815260200160002060009054906101000a900473ffffffffffffffffffffffffffffffffffffffff169550600360008773ffffffffffffffffffffffffffffffffffffffff1673ffffffffffffffffffffffffffffffffffffffff16815260200190815260200160002060009054906101000a900460ff1615611fb5578573ffffffffffffffffffffffffffffffffffffffff1663eaad31e16040518163ffffffff1660e01b815260040160206040518083038186803b158015611e8f57600080fd5b505afa158015611ea3573d6000803e3d6000fd5b505050506040513d601f19601f82011682018060405250810190611ec79190612aaa565b96506000871115611fb457611f5d8673ffffffffffffffffffffffffffffffffffffffff166337f3061d6040518163ffffffff1660e01b815260040160006040518083038186803b158015611f1b57600080fd5b505afa158015611f2f573d6000803e3d6000fd5b505050506040513d6000823e3d601f19601f82011682018060405250810190611f589190612935565b6121cb565b858381518110611f6957fe5b6020026020010181815250508180600101925050611f9160018461214390919063ffffffff16565b92506001848281518110611fa157fe5b6020026020010190151590811515815250505b5b8080600101915050611d97565b506060611fcf8584612237565b90506060611fdd89836122f4565b90506000925060005b60045481101561212f57858181518110611ffc57fe5b602002602001015115612122576121196002600083815260200190815260200160002060009054906101000a900473ffffffffffffffffffffffffffffffffffffffff16600160009054906101000a900473ffffffffffffffffffffffffffffffffffffffff1673ffffffffffffffffffffffffffffffffffffffff1663dacacb4e6040518163ffffffff1660e01b815260040161209990613157565b60206040518083038186803b1580156120b157600080fd5b505afa1580156120c5573d6000803e3d6000fd5b505050506040513d601f19601f820116820180604052508101906120e991906127a7565b61211464e8d4a510008689815181106120fe57fe5b6020026020010151611be590919063ffffffff16565b6123bf565b83806001019450505b8080600101915050611fe6565b50505050505050505050565b600033905090565b6000808284019050838110156121c1576040517f08c379a000000000000000000000000000000000000000000000000000000000815260040180806020018281038252601b8152602001807f536166654d6174683a206164646974696f6e206f766572666c6f77000000000081525060200191505060405180910390fd5b8091505092915050565b6000806000905060005b835181101561221b5761220c6121fd8583815181106121f057fe5b602002602001015161251e565b8361214390919063ffffffff16565b915080806001019150506121d5565b5061222f8182611c6e90919063ffffffff16565b915050919050565b606060006122458484612580565b905060608367ffffffffffffffff8111801561226057600080fd5b5060405190808252806020026020018201604052801561228f5781602001602082028036833780820191505090505b50905060005b848110156122e8576122c3838783815181106122ad57fe5b6020026020010151611be590919063ffffffff16565b8282815181106122cf57fe5b6020026020010181815250508080600101915050612295565b50809250505092915050565b6060600061230e620f424085611be590919063ffffffff16565b90506060835167ffffffffffffffff8111801561232a57600080fd5b506040519080825280602002602001820160405280156123595781602001602082028036833780820191505090505b50905060005b84518110156123b35761238e85828151811061237757fe5b602002602001015184611c6e90919063ffffffff16565b82828151811061239a57fe5b602002602001018181525050808060010191505061235f565b50809250505092915050565b6000600660009054906101000a900473ffffffffffffffffffffffffffffffffffffffff1673ffffffffffffffffffffffffffffffffffffffff1663d2493b6c846040518263ffffffff1660e01b815260040161241c9190612e99565b60606040518083038186803b15801561243457600080fd5b505afa158015612448573d6000803e3d6000fd5b505050506040513d601f19601f8201168201806040525081019061246c919061280c565b509150508073ffffffffffffffffffffffffffffffffffffffff1663c04a8a1085846040518363ffffffff1660e01b81526004016124ab929190612f7b565b600060405180830381600087803b1580156124c557600080fd5b505af11580156124d9573d6000803e3d6000fd5b505050507fe5541a6b6103d4fa7e021ed54fad39c66f27a76bd13d374cf6240ae6bd0bb72b84848460405161251093929190612f44565b60405180910390a150505050565b6000600382111561256d57819050600060016002848161253a57fe5b040190505b818110156125675780915060028182858161255657fe5b04018161255f57fe5b04905061253f565b5061257b565b6000821461257a57600190505b5b919050565b6000806000905060005b838110156125c7576125b88582815181106125a157fe5b60200260200101518361214390919063ffffffff16565b9150808060010191505061258a565b506125de620f424082611be590919063ffffffff16565b90508091505092915050565b6000813590506125f9816133fb565b92915050565b60008151905061260e816133fb565b92915050565b600082601f83011261262557600080fd5b8151612638612633826131e3565b6131b2565b9150818183526020840193506020810190508385602084028201111561265d57600080fd5b60005b8381101561268d57816126738882612769565b845260208401935060208301925050600181019050612660565b5050505092915050565b6000813590506126a681613412565b92915050565b6000815190506126bb81613412565b92915050565b6000815190506126d081613429565b92915050565b6000815190506126e581613440565b92915050565b6000815190506126fa81613457565b92915050565b600082601f83011261271157600080fd5b813561272461271f8261320f565b6131b2565b9150808252602083016020830185838301111561274057600080fd5b61274b838284613392565b50505092915050565b60008135905061276381613467565b92915050565b60008151905061277881613467565b92915050565b60006020828403121561279057600080fd5b600061279e848285016125ea565b91505092915050565b6000602082840312156127b957600080fd5b60006127c7848285016125ff565b91505092915050565b600080604083850312156127e357600080fd5b60006127f1858286016125ea565b9250506020612802858286016125ea565b9150509250929050565b60008060006060848603121561282157600080fd5b600061282f868287016125ff565b9350506020612840868287016125ff565b9250506040612851868287016125ff565b9150509250925092565b60008060006060848603121561287057600080fd5b600061287e868287016125ea565b935050602061288f868287016125ea565b92505060406128a086828701612697565b9150509250925092565b600080604083850312156128bd57600080fd5b60006128cb858286016125ea565b92505060206128dc85828601612754565b9150509250929050565b6000806000606084860312156128fb57600080fd5b6000612909868287016125ea565b935050602061291a86828701612754565b925050604061292b868287016125ea565b9150509250925092565b60006020828403121561294757600080fd5b600082015167ffffffffffffffff81111561296157600080fd5b61296d84828501612614565b91505092915050565b60006020828403121561298857600080fd5b6000612996848285016126ac565b91505092915050565b6000602082840312156129b157600080fd5b60006129bf848285016126c1565b91505092915050565b6000602082840312156129da57600080fd5b60006129e8848285016126d6565b91505092915050565b600060208284031215612a0357600080fd5b6000612a11848285016126eb565b91505092915050565b600080600060608486031215612a2f57600080fd5b600084013567ffffffffffffffff811115612a4957600080fd5b612a5586828701612700565b9350506020612a6686828701612754565b9250506040612a7786828701612754565b9150509250925092565b600060208284031215612a9357600080fd5b6000612aa184828501612754565b91505092915050565b600060208284031215612abc57600080fd5b6000612aca84828501612769565b91505092915050565b60008060008060008060c08789031215612aec57600080fd5b6000612afa89828a01612769565b9650506020612b0b89828a01612769565b9550506040612b1c89828a01612769565b9450506060612b2d89828a01612769565b9350506080612b3e89828a01612769565b92505060a0612b4f89828a01612769565b9150509295509295509295565b612b6581613314565b82525050565b612b748161325b565b82525050565b612b838161326d565b82525050565b612b9281613279565b82525050565b612ba181613326565b82525050565b612bb08161334a565b82525050565b612bbf8161335c565b82525050565b6000612bd08261323f565b612bda818561324a565b9350612bea8185602086016133a1565b612bf3816133d6565b840191505092915050565b6000612c0b600c8361324a565b91507f64616f206d69736d6174636800000000000000000000000000000000000000006000830152602082019050919050565b6000612c4b601b8361324a565b91507f6e6f20636f6d6d756e69747920747265617375727920616464656400000000006000830152602082019050919050565b6000612c8b60158361324a565b91507f6e6f74206f776e6572206f7220726567697374727900000000000000000000006000830152602082019050919050565b6000612ccb60088361324a565b91507f77726f6e672069640000000000000000000000000000000000000000000000006000830152602082019050919050565b6000612d0b60398361324a565b91507f5468652063757272656e63792070617373656420617320616e20617267756d6560008301527f6e74206973206e6f7420656e61626c65642c20736f72727921000000000000006020830152604082019050919050565b6000612d7160268361324a565b91507f596f7520646f6e2774206861766520656e6f7567682066756e647320746f206960008301527f6e766573742e00000000000000000000000000000000000000000000000000006020830152604082019050919050565b6000612dd760168361324a565b91507f7472656173757279206973206e6f7420616374697665000000000000000000006000830152602082019050919050565b6000612e1760048361324a565b91507f55534443000000000000000000000000000000000000000000000000000000006000830152602082019050919050565b6000612e5760118361324a565b91507f74656d706c617465206d69736d617463680000000000000000000000000000006000830152602082019050919050565b612e938161330a565b82525050565b6000602082019050612eae6000830184612b6b565b92915050565b6000602082019050612ec96000830184612b5c565b92915050565b6000606082019050612ee46000830186612b5c565b612ef16020830185612b6b565b612efe6040830184612e8a565b949350505050565b6000606082019050612f1b6000830186612b5c565b8181036020830152612f2d8185612bc5565b9050612f3c6040830184612e8a565b949350505050565b6000606082019050612f596000830186612b6b565b612f666020830185612b6b565b612f736040830184612e8a565b949350505050565b6000604082019050612f906000830185612b6b565b612f9d6020830184612e8a565b9392505050565b6000608082019050612fb96000830187612b6b565b612fc66020830186612e8a565b612fd36040830185612b6b565b612fe06060830184612bb6565b95945050505050565b6000602082019050612ffe6000830184612b7a565b92915050565b60006020820190506130196000830184612b89565b92915050565b60006020820190506130346000830184612b98565b92915050565b600060208201905061304f6000830184612ba7565b92915050565b6000602082019050818103600083015261306f8184612bc5565b905092915050565b6000602082019050818103600083015261309081612bfe565b9050919050565b600060208201905081810360008301526130b081612c3e565b9050919050565b600060208201905081810360008301526130d081612c7e565b9050919050565b600060208201905081810360008301526130f081612cbe565b9050919050565b6000602082019050818103600083015261311081612cfe565b9050919050565b6000602082019050818103600083015261313081612d64565b9050919050565b6000602082019050818103600083015261315081612dca565b9050919050565b6000602082019050818103600083015261317081612e0a565b9050919050565b6000602082019050818103600083015261319081612e4a565b9050919050565b60006020820190506131ac6000830184612e8a565b92915050565b6000604051905081810181811067ffffffffffffffff821117156131d9576131d86133d4565b5b8060405250919050565b600067ffffffffffffffff8211156131fe576131fd6133d4565b5b602082029050602081019050919050565b600067ffffffffffffffff82111561322a576132296133d4565b5b601f19601f8301169050602081019050919050565b600081519050919050565b600082825260208201905092915050565b6000613266826132ea565b9050919050565b60008115159050919050565b60007fffffffff0000000000000000000000000000000000000000000000000000000082169050919050565b60006132b08261325b565b9050919050565b60006132c28261325b565b9050919050565b60008190506132d7826133e7565b919050565b600061ffff82169050919050565b600073ffffffffffffffffffffffffffffffffffffffff82169050919050565b6000819050919050565b600061331f8261336e565b9050919050565b600061333182613338565b9050919050565b6000613343826132ea565b9050919050565b6000613355826132c9565b9050919050565b6000613367826132dc565b9050919050565b600061337982613380565b9050919050565b600061338b826132ea565b9050919050565b82818337600083830152505050565b60005b838110156133bf5780820151818401526020810190506133a4565b838111156133ce576000848401525b50505050565bfe5b6000601f19601f8301169050919050565b600381106133f8576133f76133d4565b5b50565b6134048161325b565b811461340f57600080fd5b50565b61341b8161326d565b811461342657600080fd5b50565b613432816132a5565b811461343d57600080fd5b50565b613449816132b7565b811461345457600080fd5b50565b6003811061346457600080fd5b50565b6134708161330a565b811461347b57600080fd5b5056fe4f776e61626c653a206e6577206f776e657220697320746865207a65726f2061646472657373536166654d6174683a206d756c7469706c69636174696f6e206f766572666c6f77a264697066735822122049fad2acba482fcef7f1ec98b93f89a967f20bcdc26eda8b5567ad8e5cd3272164736f6c63430007040033",
  "linkReferences": {},
  "deployedLinkReferences": {}
}