{
  "_format": "hh-sol-artifact-1",
  "contractName": "TreasuryDao",
  "sourceName": "contracts/TreasuryDao.sol",
  "abi": [
    {
      "inputs": [
        {
          "internalType": "enum DataTypes.CommunityTemplate",
          "name": "_template",
          "type": "uint8"
        },
        {
          "internalType": "address",
          "name": "_addressesProvider",
          "type": "address"
        },
        {
          "internalType": "address",
          "name": "_aaveDataProvider",
          "type": "address"
        }
      ],
      "stateMutability": "nonpayable",
      "type": "constructor"
    },
    {
      "anonymous": false,
      "inputs": [
        {
          "indexed": false,
          "internalType": "address",
          "name": "_treasuryAddress",
          "type": "address"
        },
        {
          "indexed": false,
          "internalType": "address",
          "name": "_communityAddress",
          "type": "address"
        },
        {
          "indexed": false,
          "internalType": "uint256",
          "name": "_id",
          "type": "uint256"
        }
      ],
      "name": "CommunityLinked",
      "type": "event"
    },
    {
      "anonymous": false,
      "inputs": [
        {
          "indexed": false,
          "internalType": "address",
          "name": "_community",
          "type": "address"
        },
        {
          "indexed": false,
          "internalType": "address",
          "name": "_currency",
          "type": "address"
        },
        {
          "indexed": false,
          "internalType": "uint256",
          "name": "_amount",
          "type": "uint256"
        }
      ],
      "name": "Delegated",
      "type": "event"
    },
    {
      "anonymous": false,
      "inputs": [
        {
          "indexed": false,
          "internalType": "address",
          "name": "_depositor",
          "type": "address"
        },
        {
          "indexed": false,
          "internalType": "string",
          "name": "_currency",
          "type": "string"
        },
        {
          "indexed": false,
          "internalType": "uint256",
          "name": "_amount",
          "type": "uint256"
        }
      ],
      "name": "Deposited",
      "type": "event"
    },
    {
      "anonymous": false,
      "inputs": [
        {
          "indexed": true,
          "internalType": "address",
          "name": "previousOwner",
          "type": "address"
        },
        {
          "indexed": true,
          "internalType": "address",
          "name": "newOwner",
          "type": "address"
        }
      ],
      "name": "OwnershipTransferred",
      "type": "event"
    },
    {
      "anonymous": false,
      "inputs": [
        {
          "indexed": false,
          "internalType": "uint256",
          "name": "_id",
          "type": "uint256"
        }
      ],
      "name": "ThresholdReached",
      "type": "event"
    },
    {
      "inputs": [],
      "name": "IDENTITY",
      "outputs": [
        {
          "internalType": "bytes4",
          "name": "",
          "type": "bytes4"
        }
      ],
      "stateMutability": "view",
      "type": "function"
    },
    {
      "inputs": [],
      "name": "aaveProtocolDataProvider",
      "outputs": [
        {
          "internalType": "contract IProtocolDataProvider",
          "name": "",
          "type": "address"
        }
      ],
      "stateMutability": "view",
      "type": "function"
    },
    {
      "inputs": [],
      "name": "addressesProvider",
      "outputs": [
        {
          "internalType": "address",
          "name": "",
          "type": "address"
        }
      ],
      "stateMutability": "view",
      "type": "function"
    },
    {
      "inputs": [
        {
          "internalType": "uint256",
          "name": "",
          "type": "uint256"
        }
      ],
      "name": "communityTreasuries",
      "outputs": [
        {
          "internalType": "address",
          "name": "",
          "type": "address"
        }
      ],
      "stateMutability": "view",
      "type": "function"
    },
    {
      "inputs": [
        {
          "internalType": "address",
          "name": "_currency",
          "type": "address"
        },
        {
          "internalType": "uint256",
          "name": "_amount",
          "type": "uint256"
        },
        {
          "internalType": "address",
          "name": "_deligatee",
          "type": "address"
        }
      ],
      "name": "delegate",
      "outputs": [],
      "stateMutability": "nonpayable",
      "type": "function"
    },
    {
      "inputs": [
        {
          "internalType": "string",
          "name": "_currency",
          "type": "string"
        },
        {
          "internalType": "uint256",
          "name": "_amount",
          "type": "uint256"
        },
        {
          "internalType": "uint256",
          "name": "_repayment",
          "type": "uint256"
        }
      ],
      "name": "deposit",
      "outputs": [],
      "stateMutability": "nonpayable",
      "type": "function"
    },
    {
      "inputs": [
        {
          "internalType": "address",
          "name": "",
          "type": "address"
        }
      ],
      "name": "depositors",
      "outputs": [
        {
          "internalType": "uint256",
          "name": "",
          "type": "uint256"
        }
      ],
      "stateMutability": "view",
      "type": "function"
    },
    {
      "inputs": [
        {
          "internalType": "address",
          "name": "_currency",
          "type": "address"
        },
        {
          "internalType": "address",
          "name": "_member",
          "type": "address"
        }
      ],
      "name": "getBalance",
      "outputs": [
        {
          "internalType": "uint256",
          "name": "",
          "type": "uint256"
        }
      ],
      "stateMutability": "nonpayable",
      "type": "function"
    },
    {
      "inputs": [
        {
          "internalType": "address",
          "name": "_currency",
          "type": "address"
        },
        {
          "internalType": "uint256",
          "name": "_id",
          "type": "uint256"
        }
      ],
      "name": "getDeligatee",
      "outputs": [
        {
          "internalType": "address",
          "name": "",
          "type": "address"
        }
      ],
      "stateMutability": "nonpayable",
      "type": "function"
    },
    {
      "inputs": [
        {
          "internalType": "address",
          "name": "_currency",
          "type": "address"
        },
        {
          "internalType": "address",
          "name": "_deligatee",
          "type": "address"
        }
      ],
      "name": "getDeligateeBorrowedAmount",
      "outputs": [
        {
          "internalType": "uint256",
          "name": "",
          "type": "uint256"
        }
      ],
      "stateMutability": "nonpayable",
      "type": "function"
    },
    {
      "inputs": [
        {
          "internalType": "address",
          "name": "_currency",
          "type": "address"
        }
      ],
      "name": "getDeligateeCount",
      "outputs": [
        {
          "internalType": "uint256",
          "name": "",
          "type": "uint256"
        }
      ],
      "stateMutability": "nonpayable",
      "type": "function"
    },
    {
      "inputs": [
        {
          "internalType": "address",
          "name": "_currency",
          "type": "address"
        }
      ],
      "name": "getTreasuryBalance",
      "outputs": [
        {
          "internalType": "uint256",
          "name": "",
          "type": "uint256"
        }
      ],
      "stateMutability": "nonpayable",
      "type": "function"
    },
    {
      "inputs": [
        {
          "internalType": "address",
          "name": "_currency",
          "type": "address"
        }
      ],
      "name": "getTreasuryBorrowedBalance",
      "outputs": [
        {
          "internalType": "uint256",
          "name": "",
          "type": "uint256"
        }
      ],
      "stateMutability": "nonpayable",
      "type": "function"
    },
    {
      "inputs": [
        {
          "internalType": "address",
          "name": "",
          "type": "address"
        }
      ],
      "name": "isTreasuryActive",
      "outputs": [
        {
          "internalType": "bool",
          "name": "",
          "type": "bool"
        }
      ],
      "stateMutability": "view",
      "type": "function"
    },
    {
      "inputs": [
        {
          "internalType": "address",
          "name": "_treasuryAddress",
          "type": "address"
        }
      ],
      "name": "linkCommunity",
      "outputs": [],
      "stateMutability": "nonpayable",
      "type": "function"
    },
    {
      "inputs": [],
      "name": "nextId",
      "outputs": [
        {
          "internalType": "uint256",
          "name": "",
          "type": "uint256"
        }
      ],
      "stateMutability": "view",
      "type": "function"
    },
    {
      "inputs": [],
      "name": "owner",
      "outputs": [
        {
          "internalType": "address",
          "name": "",
          "type": "address"
        }
      ],
      "stateMutability": "view",
      "type": "function"
    },
    {
      "inputs": [],
      "name": "renounceOwnership",
      "outputs": [],
      "stateMutability": "nonpayable",
      "type": "function"
    },
    {
      "inputs": [
        {
          "internalType": "address",
          "name": "",
          "type": "address"
        },
        {
          "internalType": "address",
          "name": "",
          "type": "address"
        }
      ],
      "name": "repayableAmount",
      "outputs": [
        {
          "internalType": "uint256",
          "name": "",
          "type": "uint256"
        }
      ],
      "stateMutability": "view",
      "type": "function"
    },
    {
      "inputs": [],
      "name": "template",
      "outputs": [
        {
          "internalType": "enum DataTypes.CommunityTemplate",
          "name": "",
          "type": "uint8"
        }
      ],
      "stateMutability": "view",
      "type": "function"
    },
    {
      "inputs": [
        {
          "internalType": "uint256",
          "name": "_id",
          "type": "uint256"
        }
      ],
      "name": "thresholdReached",
      "outputs": [],
      "stateMutability": "nonpayable",
      "type": "function"
    },
    {
      "inputs": [],
      "name": "totalDeposited",
      "outputs": [
        {
          "internalType": "uint256",
          "name": "",
          "type": "uint256"
        }
      ],
      "stateMutability": "view",
      "type": "function"
    },
    {
      "inputs": [
        {
          "internalType": "address",
          "name": "newOwner",
          "type": "address"
        }
      ],
      "name": "transferOwnership",
      "outputs": [],
      "stateMutability": "nonpayable",
      "type": "function"
    },
    {
      "inputs": [
        {
          "internalType": "address",
          "name": "_currency",
          "type": "address"
        },
        {
          "internalType": "address",
          "name": "_deligatee",
          "type": "address"
        },
        {
          "internalType": "bool",
          "name": "_force",
          "type": "bool"
        }
      ],
      "name": "undelegate",
      "outputs": [],
      "stateMutability": "nonpayable",
      "type": "function"
    },
    {
      "inputs": [
        {
          "internalType": "address",
          "name": "_currency",
          "type": "address"
        },
        {
          "internalType": "uint256",
          "name": "_amount",
          "type": "uint256"
        }
      ],
      "name": "withdraw",
      "outputs": [],
      "stateMutability": "nonpayable",
      "type": "function"
    }
  ],
  "bytecode": "0x60806040523480156200001157600080fd5b506040516200392d3803806200392d83398181016040528101906200003791906200023f565b6000620000496200020960201b60201c565b9050806000806101000a81548173ffffffffffffffffffffffffffffffffffffffff021916908373ffffffffffffffffffffffffffffffffffffffff1602179055508073ffffffffffffffffffffffffffffffffffffffff16600073ffffffffffffffffffffffffffffffffffffffff167f8be0079c531659141344cd1fd0a4f28419497f9722a3daafe3b4186f6b6457e060405160405180910390a350600073ffffffffffffffffffffffffffffffffffffffff168173ffffffffffffffffffffffffffffffffffffffff1614156200015a576040517f08c379a00000000000000000000000000000000000000000000000000000000081526004016200015190620002d7565b60405180910390fd5b82600660146101000a81548160ff021916908360028111156200017957fe5b021790555081600160006101000a81548173ffffffffffffffffffffffffffffffffffffffff021916908373ffffffffffffffffffffffffffffffffffffffff16021790555080600660006101000a81548173ffffffffffffffffffffffffffffffffffffffff021916908373ffffffffffffffffffffffffffffffffffffffff16021790555050505062000369565b600033905090565b60008151905062000222816200033e565b92915050565b600081519050620002398162000358565b92915050565b6000806000606084860312156200025557600080fd5b6000620002658682870162000228565b9350506020620002788682870162000211565b92505060406200028b8682870162000211565b9150509250925092565b6000620002a4601e83620002f9565b91507f4161766520646174612070726f76696465722063616e6e6f74206265203000006000830152602082019050919050565b60006020820190508181036000830152620002f28162000295565b9050919050565b600082825260208201905092915050565b600062000317826200031e565b9050919050565b600073ffffffffffffffffffffffffffffffffffffffff82169050919050565b62000349816200030a565b81146200035557600080fd5b50565b600381106200036657600080fd5b50565b6135b480620003796000396000f3fe608060405234801561001057600080fd5b50600436106101735760003560e01c80637b3d7efd116100de578063c72c4d1011610097578063eed75f6d11610071578063eed75f6d14610472578063f2fde38b146104a2578063f3fef3a3146104be578063ff50abdc146104da57610173565b8063c72c4d10146103f4578063d431f13114610412578063d4fac45d1461044257610173565b80637b3d7efd1461030e5780638da5cb5b1461033e5780639707c1c31461035c578063a263605d1461038c578063a7829ffa146103a8578063c1a32862146103c457610173565b806361b8ce8c1161013057806361b8ce8c146102605780636f2ddd931461027e578063715018a61461029c57806372dc6938146102a6578063744ee913146102c257806375e2b5b9146102f257610173565b806305f9c59714610178578063150c4aea146101945780631f395d4e146101b2578063307fc1aa146101e257806357baeac8146102125780635f9d4d2e14610242575b600080fd5b610192600480360381019061018d9190612b3a565b6104f8565b005b61019c610aca565b6040516101a991906130bd565b60405180910390f35b6101cc60048036038101906101c79190612837565b610ad5565b6040516101d99190613250565b60405180910390f35b6101fc60048036038101906101f79190612b3a565b610adc565b6040516102099190612f52565b60405180910390f35b61022c60048036038101906102279190612837565b610b0f565b6040516102399190613250565b60405180910390f35b61024a610b16565b60405161025791906130d8565b60405180910390f35b610268610b3c565b6040516102759190613250565b60405180910390f35b610286610b42565b60405161029391906130f3565b60405180910390f35b6102a4610b55565b005b6102c060048036038101906102bb9190612914565b610cdb565b005b6102dc60048036038101906102d79190612889565b610ce0565b6040516102e99190613250565b60405180910390f35b61030c6004803603810190610307919061299f565b610ce8565b005b61032860048036038101906103239190612837565b610ced565b60405161033591906130a2565b60405180910390f35b610346610d0d565b6040516103539190612f52565b60405180910390f35b61037660048036038101906103719190612837565b610d36565b6040516103839190613250565b60405180910390f35b6103a660048036038101906103a19190612837565b610d3d565b005b6103c260048036038101906103bd9190612ad3565b61125c565b005b6103de60048036038101906103d99190612963565b61198f565b6040516103eb9190612f52565b60405180910390f35b6103fc611997565b6040516104099190612f52565b60405180910390f35b61042c60048036038101906104279190612889565b6119bd565b6040516104399190613250565b60405180910390f35b61045c60048036038101906104579190612889565b6119e2565b6040516104699190613250565b60405180910390f35b61048c60048036038101906104879190612837565b6119ea565b6040516104999190613250565b60405180910390f35b6104bc60048036038101906104b79190612837565b611a02565b005b6104d860048036038101906104d39190612963565b611c0d565b005b6104e2611c11565b6040516104ef9190613250565b60405180910390f35b6002600082815260200190815260200160002060009054906101000a900473ffffffffffffffffffffffffffffffffffffffff1673ffffffffffffffffffffffffffffffffffffffff163373ffffffffffffffffffffffffffffffffffffffff1614610599576040517f08c379a000000000000000000000000000000000000000000000000000000000815260040161059090613190565b60405180910390fd5b600360003373ffffffffffffffffffffffffffffffffffffffff1673ffffffffffffffffffffffffffffffffffffffff16815260200190815260200160002060009054906101000a900460ff16610625576040517f08c379a000000000000000000000000000000000000000000000000000000000815260040161061c906131f0565b60405180910390fd5b6000600660009054906101000a900473ffffffffffffffffffffffffffffffffffffffff1673ffffffffffffffffffffffffffffffffffffffff16630542975c6040518163ffffffff1660e01b815260040160206040518083038186803b15801561068f57600080fd5b505afa1580156106a3573d6000803e3d6000fd5b505050506040513d601f19601f820116820180604052508101906106c79190612a58565b73ffffffffffffffffffffffffffffffffffffffff1663fca513a86040518163ffffffff1660e01b815260040160206040518083038186803b15801561070c57600080fd5b505afa158015610720573d6000803e3d6000fd5b505050506040513d601f19601f820116820180604052508101906107449190612860565b90506000600660009054906101000a900473ffffffffffffffffffffffffffffffffffffffff1673ffffffffffffffffffffffffffffffffffffffff16630542975c6040518163ffffffff1660e01b815260040160206040518083038186803b1580156107b057600080fd5b505afa1580156107c4573d6000803e3d6000fd5b505050506040513d601f19601f820116820180604052508101906107e89190612a58565b73ffffffffffffffffffffffffffffffffffffffff16630261bf8b6040518163ffffffff1660e01b815260040160206040518083038186803b15801561082d57600080fd5b505afa158015610841573d6000803e3d6000fd5b505050506040513d601f19601f820116820180604052508101906108659190612860565b905060008173ffffffffffffffffffffffffffffffffffffffff1663bf92857c306040518263ffffffff1660e01b81526004016108a29190612f52565b60c06040518083038186803b1580156108ba57600080fd5b505afa1580156108ce573d6000803e3d6000fd5b505050506040513d601f19601f820116820180604052508101906108f29190612b8c565b505050925050506000610a3e8473ffffffffffffffffffffffffffffffffffffffff1663b3596f07600160009054906101000a900473ffffffffffffffffffffffffffffffffffffffff1673ffffffffffffffffffffffffffffffffffffffff1663dacacb4e6040518163ffffffff1660e01b815260040161097390613210565b60206040518083038186803b15801561098b57600080fd5b505afa15801561099f573d6000803e3d6000fd5b505050506040513d601f19601f820116820180604052508101906109c39190612860565b6040518263ffffffff1660e01b81526004016109df9190612f52565b60206040518083038186803b1580156109f757600080fd5b505afa158015610a0b573d6000803e3d6000fd5b505050506040513d601f19601f82011682018060405250810190610a2f9190612b63565b83611c1790919063ffffffff16565b9050610a676064610a59605084611c6190919063ffffffff16565b611c1790919063ffffffff16565b9050610a8c610a87670de0b6b3a764000083611c6190919063ffffffff16565b611ce7565b7f78e5a77f9f20d8d96a78ff9fbe09d607bf641315b8965893038e859f91651c7185604051610abb9190613250565b60405180910390a15050505050565b637eb0b43d60e01b81565b6000919050565b60026020528060005260406000206000915054906101000a900473ffffffffffffffffffffffffffffffffffffffff1681565b6000919050565b600660009054906101000a900473ffffffffffffffffffffffffffffffffffffffff1681565b60045481565b600660149054906101000a900460ff1681565b610b5d61212e565b73ffffffffffffffffffffffffffffffffffffffff1660008054906101000a900473ffffffffffffffffffffffffffffffffffffffff1673ffffffffffffffffffffffffffffffffffffffff1614610c1d576040517f08c379a00000000000000000000000000000000000000000000000000000000081526004018080602001828103825260208152602001807f4f776e61626c653a2063616c6c6572206973206e6f7420746865206f776e657281525060200191505060405180910390fd5b600073ffffffffffffffffffffffffffffffffffffffff1660008054906101000a900473ffffffffffffffffffffffffffffffffffffffff1673ffffffffffffffffffffffffffffffffffffffff167f8be0079c531659141344cd1fd0a4f28419497f9722a3daafe3b4186f6b6457e060405160405180910390a360008060006101000a81548173ffffffffffffffffffffffffffffffffffffffff021916908373ffffffffffffffffffffffffffffffffffffffff160217905550565b505050565b600092915050565b505050565b60036020528060005260406000206000915054906101000a900460ff1681565b60008060009054906101000a900473ffffffffffffffffffffffffffffffffffffffff16905090565b6000919050565b610d4561212e565b73ffffffffffffffffffffffffffffffffffffffff16610d63610d0d565b73ffffffffffffffffffffffffffffffffffffffff161480610e565750600160009054906101000a900473ffffffffffffffffffffffffffffffffffffffff1673ffffffffffffffffffffffffffffffffffffffff16636873cd796040518163ffffffff1660e01b815260040160206040518083038186803b158015610de857600080fd5b505afa158015610dfc573d6000803e3d6000fd5b505050506040513d601f19601f82011682018060405250810190610e209190612860565b73ffffffffffffffffffffffffffffffffffffffff16610e3e61212e565b73ffffffffffffffffffffffffffffffffffffffff16145b610e95576040517f08c379a0000000000000000000000000000000000000000000000000000000008152600401610e8c90613170565b60405180910390fd5b6000819050600660149054906101000a900460ff166002811115610eb557fe5b8173ffffffffffffffffffffffffffffffffffffffff16636f2ddd936040518163ffffffff1660e01b815260040160206040518083038186803b158015610efb57600080fd5b505afa158015610f0f573d6000803e3d6000fd5b505050506040513d601f19601f82011682018060405250810190610f339190612aaa565b6002811115610f3e57fe5b14610f7e576040517f08c379a0000000000000000000000000000000000000000000000000000000008152600401610f7590613230565b60405180910390fd5b3073ffffffffffffffffffffffffffffffffffffffff168173ffffffffffffffffffffffffffffffffffffffff16634162169f6040518163ffffffff1660e01b815260040160206040518083038186803b158015610fdb57600080fd5b505afa158015610fef573d6000803e3d6000fd5b505050506040513d601f19601f820116820180604052508101906110139190612a81565b73ffffffffffffffffffffffffffffffffffffffff1614611069576040517f08c379a000000000000000000000000000000000000000000000000000000000815260040161106090613130565b60405180910390fd5b8160026000600454815260200190815260200160002060006101000a81548173ffffffffffffffffffffffffffffffffffffffff021916908373ffffffffffffffffffffffffffffffffffffffff1602179055506001600360008473ffffffffffffffffffffffffffffffffffffffff1673ffffffffffffffffffffffffffffffffffffffff16815260200190815260200160002060006101000a81548160ff0219169083151502179055508073ffffffffffffffffffffffffffffffffffffffff1663d0e0ba956004546040518263ffffffff1660e01b81526004016111509190613250565b600060405180830381600087803b15801561116a57600080fd5b505af115801561117e573d6000803e3d6000fd5b505050507f720f042cfe589c4e7d9ece472897915730fb34a553dfd956cd4c9b0cee536a2f828273ffffffffffffffffffffffffffffffffffffffff1663dc1fb5a56040518163ffffffff1660e01b815260040160206040518083038186803b1580156111ea57600080fd5b505afa1580156111fe573d6000803e3d6000fd5b505050506040513d601f19601f820116820180604052508101906112229190612860565b60045460405161123493929190612ffd565b60405180910390a1611252600160045461213690919063ffffffff16565b6004819055505050565b6000600454116112a1576040517f08c379a000000000000000000000000000000000000000000000000000000000815260040161129890613150565b60405180910390fd5b6000600160009054906101000a900473ffffffffffffffffffffffffffffffffffffffff1673ffffffffffffffffffffffffffffffffffffffff1663dacacb4e856040518263ffffffff1660e01b81526004016112fe919061310e565b60206040518083038186803b15801561131657600080fd5b505afa15801561132a573d6000803e3d6000fd5b505050506040513d601f19601f8201168201806040525081019061134e9190612860565b9050600073ffffffffffffffffffffffffffffffffffffffff168173ffffffffffffffffffffffffffffffffffffffff1614156113c0576040517f08c379a00000000000000000000000000000000000000000000000000000000081526004016113b7906131b0565b60405180910390fd5b600081905060006113e2670de0b6b3a764000086611c6190919063ffffffff16565b9050808273ffffffffffffffffffffffffffffffffffffffff166370a0823161140961212e565b6040518263ffffffff1660e01b81526004016114259190612f6d565b60206040518083038186803b15801561143d57600080fd5b505afa158015611451573d6000803e3d6000fd5b505050506040513d601f19601f820116820180604052508101906114759190612b63565b10156114b6576040517f08c379a00000000000000000000000000000000000000000000000000000000081526004016114ad906131d0565b60405180910390fd5b6000600660009054906101000a900473ffffffffffffffffffffffffffffffffffffffff1673ffffffffffffffffffffffffffffffffffffffff16630542975c6040518163ffffffff1660e01b815260040160206040518083038186803b15801561152057600080fd5b505afa158015611534573d6000803e3d6000fd5b505050506040513d601f19601f820116820180604052508101906115589190612a58565b73ffffffffffffffffffffffffffffffffffffffff16630261bf8b6040518163ffffffff1660e01b815260040160206040518083038186803b15801561159d57600080fd5b505afa1580156115b1573d6000803e3d6000fd5b505050506040513d601f19601f820116820180604052508101906115d59190612860565b90508273ffffffffffffffffffffffffffffffffffffffff166323b872dd3330856040518463ffffffff1660e01b815260040161161493929190612f88565b602060405180830381600087803b15801561162e57600080fd5b505af1158015611642573d6000803e3d6000fd5b505050506040513d601f19601f820116820180604052508101906116669190612a2f565b508273ffffffffffffffffffffffffffffffffffffffff1663095ea7b382846040518363ffffffff1660e01b81526004016116a2929190613034565b602060405180830381600087803b1580156116bc57600080fd5b505af11580156116d0573d6000803e3d6000fd5b505050506040513d601f19601f820116820180604052508101906116f49190612a2f565b508073ffffffffffffffffffffffffffffffffffffffff1663e8eda9df85843060006040518563ffffffff1660e01b8152600401611735949392919061305d565b600060405180830381600087803b15801561174f57600080fd5b505af1158015611763573d6000803e3d6000fd5b5050505061181b61179060646117828886611c6190919063ffffffff16565b611c1790919063ffffffff16565b600560003373ffffffffffffffffffffffffffffffffffffffff1673ffffffffffffffffffffffffffffffffffffffff16815260200190815260200160002060008773ffffffffffffffffffffffffffffffffffffffff1673ffffffffffffffffffffffffffffffffffffffff1681526020019081526020016000205461213690919063ffffffff16565b600560003373ffffffffffffffffffffffffffffffffffffffff1673ffffffffffffffffffffffffffffffffffffffff16815260200190815260200160002060008673ffffffffffffffffffffffffffffffffffffffff1673ffffffffffffffffffffffffffffffffffffffff168152602001908152602001600020819055506118ed82600760003373ffffffffffffffffffffffffffffffffffffffff1673ffffffffffffffffffffffffffffffffffffffff1681526020019081526020016000205461213690919063ffffffff16565b600760003373ffffffffffffffffffffffffffffffffffffffff1673ffffffffffffffffffffffffffffffffffffffff168152602001908152602001600020819055506119458260085461213690919063ffffffff16565b6008819055507ffd4bdef056842e4615d2a093647094c0b9bf67c63662d614d63fefd617e0add233888860405161197e93929190612fbf565b60405180910390a150505050505050565b600092915050565b600160009054906101000a900473ffffffffffffffffffffffffffffffffffffffff1681565b6005602052816000526040600020602052806000526040600020600091509150505481565b600092915050565b60076020528060005260406000206000915090505481565b611a0a61212e565b73ffffffffffffffffffffffffffffffffffffffff1660008054906101000a900473ffffffffffffffffffffffffffffffffffffffff1673ffffffffffffffffffffffffffffffffffffffff1614611aca576040517f08c379a00000000000000000000000000000000000000000000000000000000081526004018080602001828103825260208152602001807f4f776e61626c653a2063616c6c6572206973206e6f7420746865206f776e657281525060200191505060405180910390fd5b600073ffffffffffffffffffffffffffffffffffffffff168173ffffffffffffffffffffffffffffffffffffffff161415611b50576040517f08c379a00000000000000000000000000000000000000000000000000000000081526004018080602001828103825260268152602001806135386026913960400191505060405180910390fd5b8073ffffffffffffffffffffffffffffffffffffffff1660008054906101000a900473ffffffffffffffffffffffffffffffffffffffff1673ffffffffffffffffffffffffffffffffffffffff167f8be0079c531659141344cd1fd0a4f28419497f9722a3daafe3b4186f6b6457e060405160405180910390a3806000806101000a81548173ffffffffffffffffffffffffffffffffffffffff021916908373ffffffffffffffffffffffffffffffffffffffff16021790555050565b5050565b60085481565b6000611c5983836040518060400160405280601a81526020017f536166654d6174683a206469766973696f6e206279207a65726f0000000000008152506121be565b905092915050565b600080831415611c745760009050611ce1565b6000828402905082848281611c8557fe5b0414611cdc576040517f08c379a000000000000000000000000000000000000000000000000000000000815260040180806020018281038252602181526020018061355e6021913960400191505060405180910390fd5b809150505b92915050565b600080606060045467ffffffffffffffff81118015611d0557600080fd5b50604051908082528060200260200182016040528015611d345781602001602082028036833780820191505090505b509050606060045467ffffffffffffffff81118015611d5257600080fd5b50604051908082528060200260200182016040528015611d815781602001602082028036833780820191505090505b50905060008060005b600454811015611fb5576000848281518110611da257fe5b6020026020010190151590811515815250506002600082815260200190815260200160002060009054906101000a900473ffffffffffffffffffffffffffffffffffffffff169550600360008773ffffffffffffffffffffffffffffffffffffffff1673ffffffffffffffffffffffffffffffffffffffff16815260200190815260200160002060009054906101000a900460ff1615611fa8578573ffffffffffffffffffffffffffffffffffffffff1663eaad31e16040518163ffffffff1660e01b815260040160206040518083038186803b158015611e8257600080fd5b505afa158015611e96573d6000803e3d6000fd5b505050506040513d601f19601f82011682018060405250810190611eba9190612b63565b96506000871115611fa757611f508673ffffffffffffffffffffffffffffffffffffffff166337f3061d6040518163ffffffff1660e01b815260040160006040518083038186803b158015611f0e57600080fd5b505afa158015611f22573d6000803e3d6000fd5b505050506040513d6000823e3d601f19601f82011682018060405250810190611f4b91906129ee565b612284565b858381518110611f5c57fe5b6020026020010181815250508180600101925050611f8460018461213690919063ffffffff16565b92506001848281518110611f9457fe5b6020026020010190151590811515815250505b5b8080600101915050611d8a565b506060611fc285846122f0565b90506060611fd089836123ad565b90506000925060005b60045481101561212257858181518110611fef57fe5b6020026020010151156121155761210c6002600083815260200190815260200160002060009054906101000a900473ffffffffffffffffffffffffffffffffffffffff16600160009054906101000a900473ffffffffffffffffffffffffffffffffffffffff1673ffffffffffffffffffffffffffffffffffffffff1663dacacb4e6040518163ffffffff1660e01b815260040161208c90613210565b60206040518083038186803b1580156120a457600080fd5b505afa1580156120b8573d6000803e3d6000fd5b505050506040513d601f19601f820116820180604052508101906120dc9190612860565b61210764e8d4a510008689815181106120f157fe5b6020026020010151611c1790919063ffffffff16565b612478565b83806001019450505b8080600101915050611fd9565b50505050505050505050565b600033905090565b6000808284019050838110156121b4576040517f08c379a000000000000000000000000000000000000000000000000000000000815260040180806020018281038252601b8152602001807f536166654d6174683a206164646974696f6e206f766572666c6f77000000000081525060200191505060405180910390fd5b8091505092915050565b6000808311829061226a576040517f08c379a00000000000000000000000000000000000000000000000000000000081526004018080602001828103825283818151815260200191508051906020019080838360005b8381101561222f578082015181840152602081019050612214565b50505050905090810190601f16801561225c5780820380516001836020036101000a031916815260200191505b509250505060405180910390fd5b50600083858161227657fe5b049050809150509392505050565b6000806000905060005b83518110156122d4576122c56122b68583815181106122a957fe5b60200260200101516125d7565b8361213690919063ffffffff16565b9150808060010191505061228e565b506122e88182611c6190919063ffffffff16565b915050919050565b606060006122fe8484612639565b905060608367ffffffffffffffff8111801561231957600080fd5b506040519080825280602002602001820160405280156123485781602001602082028036833780820191505090505b50905060005b848110156123a15761237c8387838151811061236657fe5b6020026020010151611c1790919063ffffffff16565b82828151811061238857fe5b602002602001018181525050808060010191505061234e565b50809250505092915050565b606060006123c7620f424085611c1790919063ffffffff16565b90506060835167ffffffffffffffff811180156123e357600080fd5b506040519080825280602002602001820160405280156124125781602001602082028036833780820191505090505b50905060005b845181101561246c5761244785828151811061243057fe5b602002602001015184611c6190919063ffffffff16565b82828151811061245357fe5b6020026020010181815250508080600101915050612418565b50809250505092915050565b6000600660009054906101000a900473ffffffffffffffffffffffffffffffffffffffff1673ffffffffffffffffffffffffffffffffffffffff1663d2493b6c846040518263ffffffff1660e01b81526004016124d59190612f52565b60606040518083038186803b1580156124ed57600080fd5b505afa158015612501573d6000803e3d6000fd5b505050506040513d601f19601f8201168201806040525081019061252591906128c5565b509150508073ffffffffffffffffffffffffffffffffffffffff1663c04a8a1085846040518363ffffffff1660e01b8152600401612564929190613034565b600060405180830381600087803b15801561257e57600080fd5b505af1158015612592573d6000803e3d6000fd5b505050507fe5541a6b6103d4fa7e021ed54fad39c66f27a76bd13d374cf6240ae6bd0bb72b8484846040516125c993929190612ffd565b60405180910390a150505050565b600060038211156126265781905060006001600284816125f357fe5b040190505b818110156126205780915060028182858161260f57fe5b04018161261857fe5b0490506125f8565b50612634565b6000821461263357600190505b5b919050565b6000806000905060005b838110156126805761267185828151811061265a57fe5b60200260200101518361213690919063ffffffff16565b91508080600101915050612643565b50612697620f424082611c1790919063ffffffff16565b90508091505092915050565b6000813590506126b2816134b4565b92915050565b6000815190506126c7816134b4565b92915050565b600082601f8301126126de57600080fd5b81516126f16126ec8261329c565b61326b565b9150818183526020840193506020810190508385602084028201111561271657600080fd5b60005b83811015612746578161272c8882612822565b845260208401935060208301925050600181019050612719565b5050505092915050565b60008135905061275f816134cb565b92915050565b600081519050612774816134cb565b92915050565b600081519050612789816134e2565b92915050565b60008151905061279e816134f9565b92915050565b6000815190506127b381613510565b92915050565b600082601f8301126127ca57600080fd5b81356127dd6127d8826132c8565b61326b565b915080825260208301602083018583830111156127f957600080fd5b61280483828461344b565b50505092915050565b60008135905061281c81613520565b92915050565b60008151905061283181613520565b92915050565b60006020828403121561284957600080fd5b6000612857848285016126a3565b91505092915050565b60006020828403121561287257600080fd5b6000612880848285016126b8565b91505092915050565b6000806040838503121561289c57600080fd5b60006128aa858286016126a3565b92505060206128bb858286016126a3565b9150509250929050565b6000806000606084860312156128da57600080fd5b60006128e8868287016126b8565b93505060206128f9868287016126b8565b925050604061290a868287016126b8565b9150509250925092565b60008060006060848603121561292957600080fd5b6000612937868287016126a3565b9350506020612948868287016126a3565b925050604061295986828701612750565b9150509250925092565b6000806040838503121561297657600080fd5b6000612984858286016126a3565b92505060206129958582860161280d565b9150509250929050565b6000806000606084860312156129b457600080fd5b60006129c2868287016126a3565b93505060206129d38682870161280d565b92505060406129e4868287016126a3565b9150509250925092565b600060208284031215612a0057600080fd5b600082015167ffffffffffffffff811115612a1a57600080fd5b612a26848285016126cd565b91505092915050565b600060208284031215612a4157600080fd5b6000612a4f84828501612765565b91505092915050565b600060208284031215612a6a57600080fd5b6000612a788482850161277a565b91505092915050565b600060208284031215612a9357600080fd5b6000612aa18482850161278f565b91505092915050565b600060208284031215612abc57600080fd5b6000612aca848285016127a4565b91505092915050565b600080600060608486031215612ae857600080fd5b600084013567ffffffffffffffff811115612b0257600080fd5b612b0e868287016127b9565b9350506020612b1f8682870161280d565b9250506040612b308682870161280d565b9150509250925092565b600060208284031215612b4c57600080fd5b6000612b5a8482850161280d565b91505092915050565b600060208284031215612b7557600080fd5b6000612b8384828501612822565b91505092915050565b60008060008060008060c08789031215612ba557600080fd5b6000612bb389828a01612822565b9650506020612bc489828a01612822565b9550506040612bd589828a01612822565b9450506060612be689828a01612822565b9350506080612bf789828a01612822565b92505060a0612c0889828a01612822565b9150509295509295509295565b612c1e816133cd565b82525050565b612c2d81613314565b82525050565b612c3c81613326565b82525050565b612c4b81613332565b82525050565b612c5a816133df565b82525050565b612c6981613403565b82525050565b612c7881613415565b82525050565b6000612c89826132f8565b612c938185613303565b9350612ca381856020860161345a565b612cac8161348f565b840191505092915050565b6000612cc4600c83613303565b91507f64616f206d69736d6174636800000000000000000000000000000000000000006000830152602082019050919050565b6000612d04601983613303565b91507f6e6f20636f6d6d756e79207472656173757279206164646564000000000000006000830152602082019050919050565b6000612d44601583613303565b91507f6e6f74206f776e6572206f7220726567697374727900000000000000000000006000830152602082019050919050565b6000612d84600883613303565b91507f77726f6e672069640000000000000000000000000000000000000000000000006000830152602082019050919050565b6000612dc4603983613303565b91507f5468652063757272656e63792070617373656420617320616e20617267756d6560008301527f6e74206973206e6f7420656e61626c65642c20736f72727921000000000000006020830152604082019050919050565b6000612e2a602683613303565b91507f596f7520646f6e2774206861766520656e6f7567682066756e647320746f206960008301527f6e766573742e00000000000000000000000000000000000000000000000000006020830152604082019050919050565b6000612e90601683613303565b91507f7472656173757279206973206e6f7420616374697665000000000000000000006000830152602082019050919050565b6000612ed0600483613303565b91507f55534443000000000000000000000000000000000000000000000000000000006000830152602082019050919050565b6000612f10601183613303565b91507f74656d706c617465206d69736d617463680000000000000000000000000000006000830152602082019050919050565b612f4c816133c3565b82525050565b6000602082019050612f676000830184612c24565b92915050565b6000602082019050612f826000830184612c15565b92915050565b6000606082019050612f9d6000830186612c15565b612faa6020830185612c24565b612fb76040830184612f43565b949350505050565b6000606082019050612fd46000830186612c15565b8181036020830152612fe68185612c7e565b9050612ff56040830184612f43565b949350505050565b60006060820190506130126000830186612c24565b61301f6020830185612c24565b61302c6040830184612f43565b949350505050565b60006040820190506130496000830185612c24565b6130566020830184612f43565b9392505050565b60006080820190506130726000830187612c24565b61307f6020830186612f43565b61308c6040830185612c24565b6130996060830184612c6f565b95945050505050565b60006020820190506130b76000830184612c33565b92915050565b60006020820190506130d26000830184612c42565b92915050565b60006020820190506130ed6000830184612c51565b92915050565b60006020820190506131086000830184612c60565b92915050565b600060208201905081810360008301526131288184612c7e565b905092915050565b6000602082019050818103600083015261314981612cb7565b9050919050565b6000602082019050818103600083015261316981612cf7565b9050919050565b6000602082019050818103600083015261318981612d37565b9050919050565b600060208201905081810360008301526131a981612d77565b9050919050565b600060208201905081810360008301526131c981612db7565b9050919050565b600060208201905081810360008301526131e981612e1d565b9050919050565b6000602082019050818103600083015261320981612e83565b9050919050565b6000602082019050818103600083015261322981612ec3565b9050919050565b6000602082019050818103600083015261324981612f03565b9050919050565b60006020820190506132656000830184612f43565b92915050565b6000604051905081810181811067ffffffffffffffff821117156132925761329161348d565b5b8060405250919050565b600067ffffffffffffffff8211156132b7576132b661348d565b5b602082029050602081019050919050565b600067ffffffffffffffff8211156132e3576132e261348d565b5b601f19601f8301169050602081019050919050565b600081519050919050565b600082825260208201905092915050565b600061331f826133a3565b9050919050565b60008115159050919050565b60007fffffffff0000000000000000000000000000000000000000000000000000000082169050919050565b600061336982613314565b9050919050565b600061337b82613314565b9050919050565b6000819050613390826134a0565b919050565b600061ffff82169050919050565b600073ffffffffffffffffffffffffffffffffffffffff82169050919050565b6000819050919050565b60006133d882613427565b9050919050565b60006133ea826133f1565b9050919050565b60006133fc826133a3565b9050919050565b600061340e82613382565b9050919050565b600061342082613395565b9050919050565b600061343282613439565b9050919050565b6000613444826133a3565b9050919050565b82818337600083830152505050565b60005b8381101561347857808201518184015260208101905061345d565b83811115613487576000848401525b50505050565bfe5b6000601f19601f8301169050919050565b600381106134b1576134b061348d565b5b50565b6134bd81613314565b81146134c857600080fd5b50565b6134d481613326565b81146134df57600080fd5b50565b6134eb8161335e565b81146134f657600080fd5b50565b61350281613370565b811461350d57600080fd5b50565b6003811061351d57600080fd5b50565b613529816133c3565b811461353457600080fd5b5056fe4f776e61626c653a206e6577206f776e657220697320746865207a65726f2061646472657373536166654d6174683a206d756c7469706c69636174696f6e206f766572666c6f77a2646970667358221220b3c8dcef358d0bcd70a84185b0eb198105d885f77a9be1e332fc76f83b67412c64736f6c63430007040033",
  "linkReferences": {},
  "deployedLinkReferences": {}
}