{
  "_format": "hh-sol-artifact-1",
  "contractName": "TreasuryDao",
  "sourceName": "contracts/TreasuryDao.sol",
  "abi": [
    {
      "inputs": [
        {
          "internalType": "enum DataTypes.CommunityTemplate",
          "name": "_template",
          "type": "uint8"
        },
        {
          "internalType": "address",
          "name": "_aaveDataProvider",
          "type": "address"
        },
        {
          "internalType": "address",
          "name": "_dai",
          "type": "address"
        },
        {
          "internalType": "address",
          "name": "_usdc",
          "type": "address"
        }
      ],
      "stateMutability": "nonpayable",
      "type": "constructor"
    },
    {
      "anonymous": false,
      "inputs": [
        {
          "indexed": false,
          "internalType": "address",
          "name": "_treasuryAddress",
          "type": "address"
        },
        {
          "indexed": false,
          "internalType": "address",
          "name": "_communityAddress",
          "type": "address"
        },
        {
          "indexed": false,
          "internalType": "uint256",
          "name": "_id",
          "type": "uint256"
        }
      ],
      "name": "CommunityLinked",
      "type": "event"
    },
    {
      "anonymous": false,
      "inputs": [
        {
          "indexed": false,
          "internalType": "address",
          "name": "_depositor",
          "type": "address"
        },
        {
          "indexed": false,
          "internalType": "string",
          "name": "_currency",
          "type": "string"
        },
        {
          "indexed": false,
          "internalType": "uint256",
          "name": "_amount",
          "type": "uint256"
        }
      ],
      "name": "Deposited",
      "type": "event"
    },
    {
      "anonymous": false,
      "inputs": [
        {
          "indexed": true,
          "internalType": "address",
          "name": "previousOwner",
          "type": "address"
        },
        {
          "indexed": true,
          "internalType": "address",
          "name": "newOwner",
          "type": "address"
        }
      ],
      "name": "OwnershipTransferred",
      "type": "event"
    },
    {
      "anonymous": false,
      "inputs": [
        {
          "indexed": false,
          "internalType": "uint256",
          "name": "_id",
          "type": "uint256"
        }
      ],
      "name": "ThresholdReached",
      "type": "event"
    },
    {
      "inputs": [],
      "name": "aaveProtocolDataProvider",
      "outputs": [
        {
          "internalType": "contract IProtocolDataProvider",
          "name": "",
          "type": "address"
        }
      ],
      "stateMutability": "view",
      "type": "function"
    },
    {
      "inputs": [
        {
          "internalType": "uint256",
          "name": "",
          "type": "uint256"
        }
      ],
      "name": "communityTreasuries",
      "outputs": [
        {
          "internalType": "address",
          "name": "",
          "type": "address"
        }
      ],
      "stateMutability": "view",
      "type": "function"
    },
    {
      "inputs": [
        {
          "internalType": "address",
          "name": "_currency",
          "type": "address"
        },
        {
          "internalType": "uint256",
          "name": "_amount",
          "type": "uint256"
        },
        {
          "internalType": "address",
          "name": "_deligatee",
          "type": "address"
        }
      ],
      "name": "delegate",
      "outputs": [],
      "stateMutability": "nonpayable",
      "type": "function"
    },
    {
      "inputs": [
        {
          "internalType": "string",
          "name": "_currency",
          "type": "string"
        },
        {
          "internalType": "uint256",
          "name": "_amount",
          "type": "uint256"
        },
        {
          "internalType": "uint256",
          "name": "_repayment",
          "type": "uint256"
        }
      ],
      "name": "deposit",
      "outputs": [],
      "stateMutability": "nonpayable",
      "type": "function"
    },
    {
      "inputs": [
        {
          "internalType": "string",
          "name": "",
          "type": "string"
        }
      ],
      "name": "depositableCurrenciesContracts",
      "outputs": [
        {
          "internalType": "address",
          "name": "",
          "type": "address"
        }
      ],
      "stateMutability": "view",
      "type": "function"
    },
    {
      "inputs": [
        {
          "internalType": "address",
          "name": "",
          "type": "address"
        }
      ],
      "name": "depositors",
      "outputs": [
        {
          "internalType": "uint256",
          "name": "",
          "type": "uint256"
        }
      ],
      "stateMutability": "view",
      "type": "function"
    },
    {
      "inputs": [
        {
          "internalType": "address",
          "name": "_currency",
          "type": "address"
        },
        {
          "internalType": "address",
          "name": "_member",
          "type": "address"
        }
      ],
      "name": "getBalance",
      "outputs": [
        {
          "internalType": "uint256",
          "name": "",
          "type": "uint256"
        }
      ],
      "stateMutability": "nonpayable",
      "type": "function"
    },
    {
      "inputs": [
        {
          "internalType": "address",
          "name": "_currency",
          "type": "address"
        },
        {
          "internalType": "uint256",
          "name": "_id",
          "type": "uint256"
        }
      ],
      "name": "getDeligatee",
      "outputs": [
        {
          "internalType": "address",
          "name": "",
          "type": "address"
        }
      ],
      "stateMutability": "nonpayable",
      "type": "function"
    },
    {
      "inputs": [
        {
          "internalType": "address",
          "name": "_currency",
          "type": "address"
        },
        {
          "internalType": "address",
          "name": "_deligatee",
          "type": "address"
        }
      ],
      "name": "getDeligateeBorrowedAmount",
      "outputs": [
        {
          "internalType": "uint256",
          "name": "",
          "type": "uint256"
        }
      ],
      "stateMutability": "nonpayable",
      "type": "function"
    },
    {
      "inputs": [
        {
          "internalType": "address",
          "name": "_currency",
          "type": "address"
        }
      ],
      "name": "getDeligateeCount",
      "outputs": [
        {
          "internalType": "uint256",
          "name": "",
          "type": "uint256"
        }
      ],
      "stateMutability": "nonpayable",
      "type": "function"
    },
    {
      "inputs": [
        {
          "internalType": "address",
          "name": "_currency",
          "type": "address"
        }
      ],
      "name": "getTreasuryBalance",
      "outputs": [
        {
          "internalType": "uint256",
          "name": "",
          "type": "uint256"
        }
      ],
      "stateMutability": "nonpayable",
      "type": "function"
    },
    {
      "inputs": [
        {
          "internalType": "address",
          "name": "_currency",
          "type": "address"
        }
      ],
      "name": "getTreasuryBorrowedBalance",
      "outputs": [
        {
          "internalType": "uint256",
          "name": "",
          "type": "uint256"
        }
      ],
      "stateMutability": "nonpayable",
      "type": "function"
    },
    {
      "inputs": [
        {
          "internalType": "address",
          "name": "",
          "type": "address"
        }
      ],
      "name": "isTreasuryActive",
      "outputs": [
        {
          "internalType": "bool",
          "name": "",
          "type": "bool"
        }
      ],
      "stateMutability": "view",
      "type": "function"
    },
    {
      "inputs": [
        {
          "internalType": "address",
          "name": "_treasuryAddress",
          "type": "address"
        }
      ],
      "name": "linkCommunity",
      "outputs": [],
      "stateMutability": "nonpayable",
      "type": "function"
    },
    {
      "inputs": [],
      "name": "nextId",
      "outputs": [
        {
          "internalType": "uint256",
          "name": "",
          "type": "uint256"
        }
      ],
      "stateMutability": "view",
      "type": "function"
    },
    {
      "inputs": [],
      "name": "owner",
      "outputs": [
        {
          "internalType": "address",
          "name": "",
          "type": "address"
        }
      ],
      "stateMutability": "view",
      "type": "function"
    },
    {
      "inputs": [],
      "name": "renounceOwnership",
      "outputs": [],
      "stateMutability": "nonpayable",
      "type": "function"
    },
    {
      "inputs": [
        {
          "internalType": "address",
          "name": "",
          "type": "address"
        },
        {
          "internalType": "address",
          "name": "",
          "type": "address"
        }
      ],
      "name": "repayableAmount",
      "outputs": [
        {
          "internalType": "uint256",
          "name": "",
          "type": "uint256"
        }
      ],
      "stateMutability": "view",
      "type": "function"
    },
    {
      "inputs": [],
      "name": "template",
      "outputs": [
        {
          "internalType": "enum DataTypes.CommunityTemplate",
          "name": "",
          "type": "uint8"
        }
      ],
      "stateMutability": "view",
      "type": "function"
    },
    {
      "inputs": [
        {
          "internalType": "uint256",
          "name": "_id",
          "type": "uint256"
        }
      ],
      "name": "thresholdReached",
      "outputs": [],
      "stateMutability": "nonpayable",
      "type": "function"
    },
    {
      "inputs": [],
      "name": "totalDeposited",
      "outputs": [
        {
          "internalType": "uint256",
          "name": "",
          "type": "uint256"
        }
      ],
      "stateMutability": "view",
      "type": "function"
    },
    {
      "inputs": [
        {
          "internalType": "address",
          "name": "newOwner",
          "type": "address"
        }
      ],
      "name": "transferOwnership",
      "outputs": [],
      "stateMutability": "nonpayable",
      "type": "function"
    },
    {
      "inputs": [
        {
          "internalType": "address",
          "name": "_currency",
          "type": "address"
        },
        {
          "internalType": "address",
          "name": "_deligatee",
          "type": "address"
        },
        {
          "internalType": "bool",
          "name": "_force",
          "type": "bool"
        }
      ],
      "name": "undelegate",
      "outputs": [],
      "stateMutability": "nonpayable",
      "type": "function"
    },
    {
      "inputs": [
        {
          "internalType": "address",
          "name": "_currency",
          "type": "address"
        },
        {
          "internalType": "uint256",
          "name": "_amount",
          "type": "uint256"
        }
      ],
      "name": "withdraw",
      "outputs": [],
      "stateMutability": "nonpayable",
      "type": "function"
    }
  ],
  "bytecode": "0x60806040523480156200001157600080fd5b5060405162003cea38038062003cea8339818101604052810190620000379190620002b9565b6000620000496200028360201b60201c565b9050806000806101000a81548173ffffffffffffffffffffffffffffffffffffffff021916908373ffffffffffffffffffffffffffffffffffffffff1602179055508073ffffffffffffffffffffffffffffffffffffffff16600073ffffffffffffffffffffffffffffffffffffffff167f8be0079c531659141344cd1fd0a4f28419497f9722a3daafe3b4186f6b6457e060405160405180910390a350600073ffffffffffffffffffffffffffffffffffffffff168373ffffffffffffffffffffffffffffffffffffffff1614156200015a576040517f08c379a0000000000000000000000000000000000000000000000000000000008152600401620001519062000419565b60405180910390fd5b8160046040516200016b90620003eb565b908152602001604051809103902060006101000a81548173ffffffffffffffffffffffffffffffffffffffff021916908373ffffffffffffffffffffffffffffffffffffffff160217905550806004604051620001c89062000402565b908152602001604051809103902060006101000a81548173ffffffffffffffffffffffffffffffffffffffff021916908373ffffffffffffffffffffffffffffffffffffffff16021790555083600660146101000a81548160ff021916908360028111156200023357fe5b021790555082600660006101000a81548173ffffffffffffffffffffffffffffffffffffffff021916908373ffffffffffffffffffffffffffffffffffffffff16021790555050505050620004b6565b600033905090565b6000815190506200029c816200048b565b92915050565b600081519050620002b381620004a5565b92915050565b60008060008060808587031215620002d057600080fd5b6000620002e087828801620002a2565b9450506020620002f3878288016200028b565b935050604062000306878288016200028b565b925050606062000319878288016200028b565b91505092959194509250565b600062000334601e836200043b565b91507f4161766520646174612070726f76696465722063616e6e6f74206265203000006000830152602082019050919050565b6000620003766003836200044c565b91507f44414900000000000000000000000000000000000000000000000000000000006000830152600382019050919050565b6000620003b86004836200044c565b91507f55534443000000000000000000000000000000000000000000000000000000006000830152600482019050919050565b6000620003f88262000367565b9150819050919050565b60006200040f82620003a9565b9150819050919050565b60006020820190508181036000830152620004348162000325565b9050919050565b600082825260208201905092915050565b600081905092915050565b600062000464826200046b565b9050919050565b600073ffffffffffffffffffffffffffffffffffffffff82169050919050565b620004968162000457565b8114620004a257600080fd5b50565b60038110620004b357600080fd5b50565b61382480620004c66000396000f3fe608060405234801561001057600080fd5b50600436106101585760003560e01c80637b3d7efd116100c3578063d431f1311161007c578063d431f131146103eb578063d4fac45d1461041b578063eed75f6d1461044b578063f2fde38b1461047b578063f3fef3a314610497578063ff50abdc146104b357610158565b80637b3d7efd146103055780638da5cb5b146103355780639707c1c314610353578063a263605d14610383578063a7829ffa1461039f578063c1a32862146103bb57610158565b806361b8ce8c1161011557806361b8ce8c146102575780636f2ddd9314610275578063715018a61461029357806372dc69381461029d578063744ee913146102b957806375e2b5b9146102e957610158565b806305f9c5971461015d5780631f395d4e14610179578063307fc1aa146101a95780633705abf1146101d957806357baeac8146102095780635f9d4d2e14610239575b600080fd5b61017760048036038101906101729190612e3a565b6104d1565b005b610193600480360381019061018e9190612af6565b610a37565b6040516101a091906134e1565b60405180910390f35b6101c360048036038101906101be9190612e3a565b610a3e565b6040516101d09190613260565b60405180910390f35b6101f360048036038101906101ee9190612d92565b610a71565b6040516102009190613260565b60405180910390f35b610223600480360381019061021e9190612af6565b610aba565b60405161023091906134e1565b60405180910390f35b610241610ac1565b60405161024e91906133cb565b60405180910390f35b61025f610ae7565b60405161026c91906134e1565b60405180910390f35b61027d610aed565b60405161028a91906133e6565b60405180910390f35b61029b610b00565b005b6102b760048036038101906102b29190612bd3565b610c86565b005b6102d360048036038101906102ce9190612b48565b610c8b565b6040516102e091906134e1565b60405180910390f35b61030360048036038101906102fe9190612c5e565b610c93565b005b61031f600480360381019061031a9190612af6565b610c98565b60405161032c91906133b0565b60405180910390f35b61033d610cb8565b60405161034a9190613260565b60405180910390f35b61036d60048036038101906103689190612af6565b610ce1565b60405161037a91906134e1565b60405180910390f35b61039d60048036038101906103989190612af6565b610ce8565b005b6103b960048036038101906103b49190612dd3565b611177565b005b6103d560048036038101906103d09190612c22565b61183e565b6040516103e29190613260565b60405180910390f35b61040560048036038101906104009190612b48565b611846565b60405161041291906134e1565b60405180910390f35b61043560048036038101906104309190612b48565b61186b565b60405161044291906134e1565b60405180910390f35b61046560048036038101906104609190612af6565b611873565b60405161047291906134e1565b60405180910390f35b61049560048036038101906104909190612af6565b61188b565b005b6104b160048036038101906104ac9190612c22565b611a96565b005b6104bb611a9a565b6040516104c891906134e1565b60405180910390f35b6001600082815260200190815260200160002060009054906101000a900473ffffffffffffffffffffffffffffffffffffffff1673ffffffffffffffffffffffffffffffffffffffff163373ffffffffffffffffffffffffffffffffffffffff1614610572576040517f08c379a000000000000000000000000000000000000000000000000000000000815260040161056990613441565b60405180910390fd5b600260003373ffffffffffffffffffffffffffffffffffffffff1673ffffffffffffffffffffffffffffffffffffffff16815260200190815260200160002060009054906101000a900460ff166105fe576040517f08c379a00000000000000000000000000000000000000000000000000000000081526004016105f5906134a1565b60405180910390fd5b6000600660009054906101000a900473ffffffffffffffffffffffffffffffffffffffff1673ffffffffffffffffffffffffffffffffffffffff16630542975c6040518163ffffffff1660e01b815260040160206040518083038186803b15801561066857600080fd5b505afa15801561067c573d6000803e3d6000fd5b505050506040513d601f19601f820116820180604052508101906106a09190612d17565b73ffffffffffffffffffffffffffffffffffffffff1663fca513a86040518163ffffffff1660e01b815260040160206040518083038186803b1580156106e557600080fd5b505afa1580156106f9573d6000803e3d6000fd5b505050506040513d601f19601f8201168201806040525081019061071d9190612b1f565b90506000600660009054906101000a900473ffffffffffffffffffffffffffffffffffffffff1673ffffffffffffffffffffffffffffffffffffffff16630542975c6040518163ffffffff1660e01b815260040160206040518083038186803b15801561078957600080fd5b505afa15801561079d573d6000803e3d6000fd5b505050506040513d601f19601f820116820180604052508101906107c19190612d17565b73ffffffffffffffffffffffffffffffffffffffff16630261bf8b6040518163ffffffff1660e01b815260040160206040518083038186803b15801561080657600080fd5b505afa15801561081a573d6000803e3d6000fd5b505050506040513d601f19601f8201168201806040525081019061083e9190612b1f565b905060008173ffffffffffffffffffffffffffffffffffffffff1663bf92857c306040518263ffffffff1660e01b815260040161087b9190613260565b60c06040518083038186803b15801561089357600080fd5b505afa1580156108a7573d6000803e3d6000fd5b505050506040513d601f19601f820116820180604052508101906108cb9190612e8c565b5050509250505060006109ab8473ffffffffffffffffffffffffffffffffffffffff1663b3596f0760046040516109019061324b565b908152602001604051809103902060009054906101000a900473ffffffffffffffffffffffffffffffffffffffff166040518263ffffffff1660e01b815260040161094c9190613260565b60206040518083038186803b15801561096457600080fd5b505afa158015610978573d6000803e3d6000fd5b505050506040513d601f19601f8201168201806040525081019061099c9190612e63565b83611aa090919063ffffffff16565b90506109d460646109c6605084611aea90919063ffffffff16565b611aa090919063ffffffff16565b90506109f96109f4670de0b6b3a764000083611aea90919063ffffffff16565b611b70565b7f78e5a77f9f20d8d96a78ff9fbe09d607bf641315b8965893038e859f91651c7185604051610a2891906134e1565b60405180910390a15050505050565b6000919050565b60016020528060005260406000206000915054906101000a900473ffffffffffffffffffffffffffffffffffffffff1681565b6004818051602081018201805184825260208301602085012081835280955050505050506000915054906101000a900473ffffffffffffffffffffffffffffffffffffffff1681565b6000919050565b600660009054906101000a900473ffffffffffffffffffffffffffffffffffffffff1681565b60035481565b600660149054906101000a900460ff1681565b610b086121db565b73ffffffffffffffffffffffffffffffffffffffff1660008054906101000a900473ffffffffffffffffffffffffffffffffffffffff1673ffffffffffffffffffffffffffffffffffffffff1614610bc8576040517f08c379a00000000000000000000000000000000000000000000000000000000081526004018080602001828103825260208152602001807f4f776e61626c653a2063616c6c6572206973206e6f7420746865206f776e657281525060200191505060405180910390fd5b600073ffffffffffffffffffffffffffffffffffffffff1660008054906101000a900473ffffffffffffffffffffffffffffffffffffffff1673ffffffffffffffffffffffffffffffffffffffff167f8be0079c531659141344cd1fd0a4f28419497f9722a3daafe3b4186f6b6457e060405160405180910390a360008060006101000a81548173ffffffffffffffffffffffffffffffffffffffff021916908373ffffffffffffffffffffffffffffffffffffffff160217905550565b505050565b600092915050565b505050565b60026020528060005260406000206000915054906101000a900460ff1681565b60008060009054906101000a900473ffffffffffffffffffffffffffffffffffffffff16905090565b6000919050565b610cf06121db565b73ffffffffffffffffffffffffffffffffffffffff1660008054906101000a900473ffffffffffffffffffffffffffffffffffffffff1673ffffffffffffffffffffffffffffffffffffffff1614610db0576040517f08c379a00000000000000000000000000000000000000000000000000000000081526004018080602001828103825260208152602001807f4f776e61626c653a2063616c6c6572206973206e6f7420746865206f776e657281525060200191505060405180910390fd5b6000819050600660149054906101000a900460ff166002811115610dd057fe5b8173ffffffffffffffffffffffffffffffffffffffff16636f2ddd936040518163ffffffff1660e01b815260040160206040518083038186803b158015610e1657600080fd5b505afa158015610e2a573d6000803e3d6000fd5b505050506040513d601f19601f82011682018060405250810190610e4e9190612d69565b6002811115610e5957fe5b14610e99576040517f08c379a0000000000000000000000000000000000000000000000000000000008152600401610e90906134c1565b60405180910390fd5b3073ffffffffffffffffffffffffffffffffffffffff168173ffffffffffffffffffffffffffffffffffffffff16634162169f6040518163ffffffff1660e01b815260040160206040518083038186803b158015610ef657600080fd5b505afa158015610f0a573d6000803e3d6000fd5b505050506040513d601f19601f82011682018060405250810190610f2e9190612d40565b73ffffffffffffffffffffffffffffffffffffffff1614610f84576040517f08c379a0000000000000000000000000000000000000000000000000000000008152600401610f7b90613401565b60405180910390fd5b8160016000600354815260200190815260200160002060006101000a81548173ffffffffffffffffffffffffffffffffffffffff021916908373ffffffffffffffffffffffffffffffffffffffff1602179055506001600260008473ffffffffffffffffffffffffffffffffffffffff1673ffffffffffffffffffffffffffffffffffffffff16815260200190815260200160002060006101000a81548160ff0219169083151502179055508073ffffffffffffffffffffffffffffffffffffffff1663d0e0ba956003546040518263ffffffff1660e01b815260040161106b91906134e1565b600060405180830381600087803b15801561108557600080fd5b505af1158015611099573d6000803e3d6000fd5b505050507f720f042cfe589c4e7d9ece472897915730fb34a553dfd956cd4c9b0cee536a2f828273ffffffffffffffffffffffffffffffffffffffff1663dc1fb5a56040518163ffffffff1660e01b815260040160206040518083038186803b15801561110557600080fd5b505afa158015611119573d6000803e3d6000fd5b505050506040513d601f19601f8201168201806040525081019061113d9190612b1f565b60035460405161114f9392919061330b565b60405180910390a161116d60016003546121e390919063ffffffff16565b6003819055505050565b6000600354116111bc576040517f08c379a00000000000000000000000000000000000000000000000000000000081526004016111b390613421565b60405180910390fd5b60006004846040516111ce9190613234565b908152602001604051809103902060009054906101000a900473ffffffffffffffffffffffffffffffffffffffff169050600073ffffffffffffffffffffffffffffffffffffffff168173ffffffffffffffffffffffffffffffffffffffff16141561126f576040517f08c379a000000000000000000000000000000000000000000000000000000000815260040161126690613461565b60405180910390fd5b60008190506000611291670de0b6b3a764000086611aea90919063ffffffff16565b9050808273ffffffffffffffffffffffffffffffffffffffff166370a082316112b86121db565b6040518263ffffffff1660e01b81526004016112d4919061327b565b60206040518083038186803b1580156112ec57600080fd5b505afa158015611300573d6000803e3d6000fd5b505050506040513d601f19601f820116820180604052508101906113249190612e63565b1015611365576040517f08c379a000000000000000000000000000000000000000000000000000000000815260040161135c90613481565b60405180910390fd5b6000600660009054906101000a900473ffffffffffffffffffffffffffffffffffffffff1673ffffffffffffffffffffffffffffffffffffffff16630542975c6040518163ffffffff1660e01b815260040160206040518083038186803b1580156113cf57600080fd5b505afa1580156113e3573d6000803e3d6000fd5b505050506040513d601f19601f820116820180604052508101906114079190612d17565b73ffffffffffffffffffffffffffffffffffffffff16630261bf8b6040518163ffffffff1660e01b815260040160206040518083038186803b15801561144c57600080fd5b505afa158015611460573d6000803e3d6000fd5b505050506040513d601f19601f820116820180604052508101906114849190612b1f565b90508273ffffffffffffffffffffffffffffffffffffffff166323b872dd3330856040518463ffffffff1660e01b81526004016114c393929190613296565b602060405180830381600087803b1580156114dd57600080fd5b505af11580156114f1573d6000803e3d6000fd5b505050506040513d601f19601f820116820180604052508101906115159190612cee565b508273ffffffffffffffffffffffffffffffffffffffff1663095ea7b382846040518363ffffffff1660e01b8152600401611551929190613342565b602060405180830381600087803b15801561156b57600080fd5b505af115801561157f573d6000803e3d6000fd5b505050506040513d601f19601f820116820180604052508101906115a39190612cee565b508073ffffffffffffffffffffffffffffffffffffffff1663e8eda9df85843060006040518563ffffffff1660e01b81526004016115e4949392919061336b565b600060405180830381600087803b1580156115fe57600080fd5b505af1158015611612573d6000803e3d6000fd5b505050506116ca61163f60646116318886611aea90919063ffffffff16565b611aa090919063ffffffff16565b600560003373ffffffffffffffffffffffffffffffffffffffff1673ffffffffffffffffffffffffffffffffffffffff16815260200190815260200160002060008773ffffffffffffffffffffffffffffffffffffffff1673ffffffffffffffffffffffffffffffffffffffff168152602001908152602001600020546121e390919063ffffffff16565b600560003373ffffffffffffffffffffffffffffffffffffffff1673ffffffffffffffffffffffffffffffffffffffff16815260200190815260200160002060008673ffffffffffffffffffffffffffffffffffffffff1673ffffffffffffffffffffffffffffffffffffffff1681526020019081526020016000208190555061179c82600760003373ffffffffffffffffffffffffffffffffffffffff1673ffffffffffffffffffffffffffffffffffffffff168152602001908152602001600020546121e390919063ffffffff16565b600760003373ffffffffffffffffffffffffffffffffffffffff1673ffffffffffffffffffffffffffffffffffffffff168152602001908152602001600020819055506117f4826008546121e390919063ffffffff16565b6008819055507ffd4bdef056842e4615d2a093647094c0b9bf67c63662d614d63fefd617e0add233888860405161182d939291906132cd565b60405180910390a150505050505050565b600092915050565b6005602052816000526040600020602052806000526040600020600091509150505481565b600092915050565b60076020528060005260406000206000915090505481565b6118936121db565b73ffffffffffffffffffffffffffffffffffffffff1660008054906101000a900473ffffffffffffffffffffffffffffffffffffffff1673ffffffffffffffffffffffffffffffffffffffff1614611953576040517f08c379a00000000000000000000000000000000000000000000000000000000081526004018080602001828103825260208152602001807f4f776e61626c653a2063616c6c6572206973206e6f7420746865206f776e657281525060200191505060405180910390fd5b600073ffffffffffffffffffffffffffffffffffffffff168173ffffffffffffffffffffffffffffffffffffffff1614156119d9576040517f08c379a00000000000000000000000000000000000000000000000000000000081526004018080602001828103825260268152602001806137a86026913960400191505060405180910390fd5b8073ffffffffffffffffffffffffffffffffffffffff1660008054906101000a900473ffffffffffffffffffffffffffffffffffffffff1673ffffffffffffffffffffffffffffffffffffffff167f8be0079c531659141344cd1fd0a4f28419497f9722a3daafe3b4186f6b6457e060405160405180910390a3806000806101000a81548173ffffffffffffffffffffffffffffffffffffffff021916908373ffffffffffffffffffffffffffffffffffffffff16021790555050565b5050565b60085481565b6000611ae283836040518060400160405280601a81526020017f536166654d6174683a206469766973696f6e206279207a65726f00000000000081525061226b565b905092915050565b600080831415611afd5760009050611b6a565b6000828402905082848281611b0e57fe5b0414611b65576040517f08c379a00000000000000000000000000000000000000000000000000000000081526004018080602001828103825260218152602001806137ce6021913960400191505060405180910390fd5b809150505b92915050565b6000806000606060035467ffffffffffffffff81118015611b9057600080fd5b50604051908082528060200260200182016040528015611bbf5781602001602082028036833780820191505090505b509050606060035467ffffffffffffffff81118015611bdd57600080fd5b50604051908082528060200260200182016040528015611c0c5781602001602082028036833780820191505090505b50905060008060005b600354811015611e92576000848281518110611c2d57fe5b6020026020010190151590811515815250506001600082815260200190815260200160002060009054906101000a900473ffffffffffffffffffffffffffffffffffffffff169550600260008773ffffffffffffffffffffffffffffffffffffffff1673ffffffffffffffffffffffffffffffffffffffff16815260200190815260200160002060009054906101000a900460ff1615611e85578573ffffffffffffffffffffffffffffffffffffffff1663eaad31e16040518163ffffffff1660e01b815260040160206040518083038186803b158015611d0d57600080fd5b505afa158015611d21573d6000803e3d6000fd5b505050506040513d601f19601f82011682018060405250810190611d459190612e63565b96506000871115611e8457611ddb8673ffffffffffffffffffffffffffffffffffffffff166337f3061d6040518163ffffffff1660e01b815260040160006040518083038186803b158015611d9957600080fd5b505afa158015611dad573d6000803e3d6000fd5b505050506040513d6000823e3d601f19601f82011682018060405250810190611dd69190612cad565b612331565b858381518110611de757fe5b602002602001018181525050611e456040518060400160405280600a81526020017f756e776569676874656400000000000000000000000000000000000000000000815250868481518110611e3857fe5b602002602001015161239d565b8180600101925050611e616001846121e390919063ffffffff16565b92506001848281518110611e7157fe5b6020026020010190151590811515815250505b5b8080600101915050611c15565b50611ed26040518060400160405280600e81526020017f636f6e74726962757465644e756d0000000000000000000000000000000000008152508361239d565b6060611ede85846124a4565b9050611f336040518060400160405280600a81526020017f776569676874735b305d0000000000000000000000000000000000000000000081525082600081518110611f2657fe5b602002602001015161239d565b611f866040518060400160405280600a81526020017f776569676874735b315d0000000000000000000000000000000000000000000081525082600181518110611f7957fe5b602002602001015161239d565b611fd96040518060400160405280600a81526020017f776569676874735b325d0000000000000000000000000000000000000000000081525082600281518110611fcc57fe5b602002602001015161239d565b6060611fe58a83612561565b90506120266040518060400160405280600481526020017f66756e64000000000000000000000000000000000000000000000000000000008152508b61239d565b6000925060005b6003548110156121ce5785818151811061204357fe5b6020026020010151156121c1576120c26040518060400160405280600881526020017f74726561737572790000000000000000000000000000000000000000000000008152506001600084815260200190815260200160002060009054906101000a900473ffffffffffffffffffffffffffffffffffffffff1661262c565b6121146040518060400160405280600581526020017f616c6c6f6300000000000000000000000000000000000000000000000000000081525083868151811061210757fe5b602002602001015161239d565b6121b86001600083815260200190815260200160002060009054906101000a900473ffffffffffffffffffffffffffffffffffffffff1660046040516121599061324b565b908152602001604051809103902060009054906101000a900473ffffffffffffffffffffffffffffffffffffffff166121b364e8d4a5100086898151811061219d57fe5b6020026020010151611aa090919063ffffffff16565b612749565b83806001019450505b808060010191505061202d565b5050505050505050505050565b600033905090565b600080828401905083811015612261576040517f08c379a000000000000000000000000000000000000000000000000000000000815260040180806020018281038252601b8152602001807f536166654d6174683a206164646974696f6e206f766572666c6f77000000000081525060200191505060405180910390fd5b8091505092915050565b60008083118290612317576040517f08c379a00000000000000000000000000000000000000000000000000000000081526004018080602001828103825283818151815260200191508051906020019080838360005b838110156122dc5780820151818401526020810190506122c1565b50505050905090810190601f1680156123095780820380516001836020036101000a031916815260200191505b509250505060405180910390fd5b50600083858161232357fe5b049050809150509392505050565b6000806000905060005b83518110156123815761237261236385838151811061235657fe5b602002602001015161286d565b836121e390919063ffffffff16565b9150808060010191505061233b565b506123958182611aea90919063ffffffff16565b915050919050565b6124a082826040516024018080602001838152602001828103825284818151815260200191508051906020019080838360005b838110156123eb5780820151818401526020810190506123d0565b50505050905090810190601f1680156124185780820380516001836020036101000a031916815260200191505b5093505050506040516020818303038152906040527f9710a9d0000000000000000000000000000000000000000000000000000000007bffffffffffffffffffffffffffffffffffffffffffffffffffffffff19166020820180517bffffffffffffffffffffffffffffffffffffffffffffffffffffffff83818316178352505050506128cf565b5050565b606060006124b284846128f8565b905060608367ffffffffffffffff811180156124cd57600080fd5b506040519080825280602002602001820160405280156124fc5781602001602082028036833780820191505090505b50905060005b84811015612555576125308387838151811061251a57fe5b6020026020010151611aa090919063ffffffff16565b82828151811061253c57fe5b6020026020010181815250508080600101915050612502565b50809250505092915050565b6060600061257b620f424085611aa090919063ffffffff16565b90506060835167ffffffffffffffff8111801561259757600080fd5b506040519080825280602002602001820160405280156125c65781602001602082028036833780820191505090505b50905060005b8451811015612620576125fb8582815181106125e457fe5b602002602001015184611aea90919063ffffffff16565b82828151811061260757fe5b60200260200101818152505080806001019150506125cc565b50809250505092915050565b612745828260405160240180806020018373ffffffffffffffffffffffffffffffffffffffff168152602001828103825284818151815260200191508051906020019080838360005b83811015612690578082015181840152602081019050612675565b50505050905090810190601f1680156126bd5780820380516001836020036101000a031916815260200191505b5093505050506040516020818303038152906040527f319af333000000000000000000000000000000000000000000000000000000007bffffffffffffffffffffffffffffffffffffffffffffffffffffffff19166020820180517bffffffffffffffffffffffffffffffffffffffffffffffffffffffff83818316178352505050506128cf565b5050565b6000600660009054906101000a900473ffffffffffffffffffffffffffffffffffffffff1673ffffffffffffffffffffffffffffffffffffffff1663d2493b6c846040518263ffffffff1660e01b81526004016127a69190613260565b60606040518083038186803b1580156127be57600080fd5b505afa1580156127d2573d6000803e3d6000fd5b505050506040513d601f19601f820116820180604052508101906127f69190612b84565b509150508073ffffffffffffffffffffffffffffffffffffffff1663c04a8a1085846040518363ffffffff1660e01b8152600401612835929190613342565b600060405180830381600087803b15801561284f57600080fd5b505af1158015612863573d6000803e3d6000fd5b5050505050505050565b600060038211156128bc57819050600060016002848161288957fe5b040190505b818110156128b6578091506002818285816128a557fe5b0401816128ae57fe5b04905061288e565b506128ca565b600082146128c957600190505b5b919050565b60008151905060006a636f6e736f6c652e6c6f679050602083016000808483855afa5050505050565b6000806000905060005b8381101561293f5761293085828151811061291957fe5b6020026020010151836121e390919063ffffffff16565b91508080600101915050612902565b50612956620f424082611aa090919063ffffffff16565b90508091505092915050565b60008135905061297181613724565b92915050565b60008151905061298681613724565b92915050565b600082601f83011261299d57600080fd5b81516129b06129ab8261352d565b6134fc565b915081818352602084019350602081019050838560208402820111156129d557600080fd5b60005b83811015612a0557816129eb8882612ae1565b8452602084019350602083019250506001810190506129d8565b5050505092915050565b600081359050612a1e8161373b565b92915050565b600081519050612a338161373b565b92915050565b600081519050612a4881613752565b92915050565b600081519050612a5d81613769565b92915050565b600081519050612a7281613780565b92915050565b600082601f830112612a8957600080fd5b8135612a9c612a9782613559565b6134fc565b91508082526020830160208301858383011115612ab857600080fd5b612ac38382846136bb565b50505092915050565b600081359050612adb81613790565b92915050565b600081519050612af081613790565b92915050565b600060208284031215612b0857600080fd5b6000612b1684828501612962565b91505092915050565b600060208284031215612b3157600080fd5b6000612b3f84828501612977565b91505092915050565b60008060408385031215612b5b57600080fd5b6000612b6985828601612962565b9250506020612b7a85828601612962565b9150509250929050565b600080600060608486031215612b9957600080fd5b6000612ba786828701612977565b9350506020612bb886828701612977565b9250506040612bc986828701612977565b9150509250925092565b600080600060608486031215612be857600080fd5b6000612bf686828701612962565b9350506020612c0786828701612962565b9250506040612c1886828701612a0f565b9150509250925092565b60008060408385031215612c3557600080fd5b6000612c4385828601612962565b9250506020612c5485828601612acc565b9150509250929050565b600080600060608486031215612c7357600080fd5b6000612c8186828701612962565b9350506020612c9286828701612acc565b9250506040612ca386828701612962565b9150509250925092565b600060208284031215612cbf57600080fd5b600082015167ffffffffffffffff811115612cd957600080fd5b612ce58482850161298c565b91505092915050565b600060208284031215612d0057600080fd5b6000612d0e84828501612a24565b91505092915050565b600060208284031215612d2957600080fd5b6000612d3784828501612a39565b91505092915050565b600060208284031215612d5257600080fd5b6000612d6084828501612a4e565b91505092915050565b600060208284031215612d7b57600080fd5b6000612d8984828501612a63565b91505092915050565b600060208284031215612da457600080fd5b600082013567ffffffffffffffff811115612dbe57600080fd5b612dca84828501612a78565b91505092915050565b600080600060608486031215612de857600080fd5b600084013567ffffffffffffffff811115612e0257600080fd5b612e0e86828701612a78565b9350506020612e1f86828701612acc565b9250506040612e3086828701612acc565b9150509250925092565b600060208284031215612e4c57600080fd5b6000612e5a84828501612acc565b91505092915050565b600060208284031215612e7557600080fd5b6000612e8384828501612ae1565b91505092915050565b60008060008060008060c08789031215612ea557600080fd5b6000612eb389828a01612ae1565b9650506020612ec489828a01612ae1565b9550506040612ed589828a01612ae1565b9450506060612ee689828a01612ae1565b9350506080612ef789828a01612ae1565b92505060a0612f0889828a01612ae1565b9150509295509295509295565b612f1e8161363d565b82525050565b612f2d816135b0565b82525050565b612f3c816135c2565b82525050565b612f4b8161364f565b82525050565b612f5a81613673565b82525050565b612f6981613685565b82525050565b6000612f7a82613589565b612f848185613594565b9350612f948185602086016136ca565b612f9d816136ff565b840191505092915050565b6000612fb382613589565b612fbd81856135a5565b9350612fcd8185602086016136ca565b80840191505092915050565b6000612fe6600c83613594565b91507f64616f206d69736d6174636800000000000000000000000000000000000000006000830152602082019050919050565b6000613026601983613594565b91507f6e6f20636f6d6d756e79207472656173757279206164646564000000000000006000830152602082019050919050565b6000613066600883613594565b91507f77726f6e672069640000000000000000000000000000000000000000000000006000830152602082019050919050565b60006130a6603983613594565b91507f5468652063757272656e63792070617373656420617320616e20617267756d6560008301527f6e74206973206e6f7420656e61626c65642c20736f72727921000000000000006020830152604082019050919050565b600061310c602683613594565b91507f596f7520646f6e2774206861766520656e6f7567682066756e647320746f206960008301527f6e766573742e00000000000000000000000000000000000000000000000000006020830152604082019050919050565b6000613172601683613594565b91507f7472656173757279206973206e6f7420616374697665000000000000000000006000830152602082019050919050565b60006131b26004836135a5565b91507f55534443000000000000000000000000000000000000000000000000000000006000830152600482019050919050565b60006131f2601183613594565b91507f74656d706c617465206d69736d617463680000000000000000000000000000006000830152602082019050919050565b61322e81613633565b82525050565b60006132408284612fa8565b915081905092915050565b6000613256826131a5565b9150819050919050565b60006020820190506132756000830184612f24565b92915050565b60006020820190506132906000830184612f15565b92915050565b60006060820190506132ab6000830186612f15565b6132b86020830185612f24565b6132c56040830184613225565b949350505050565b60006060820190506132e26000830186612f15565b81810360208301526132f48185612f6f565b90506133036040830184613225565b949350505050565b60006060820190506133206000830186612f24565b61332d6020830185612f24565b61333a6040830184613225565b949350505050565b60006040820190506133576000830185612f24565b6133646020830184613225565b9392505050565b60006080820190506133806000830187612f24565b61338d6020830186613225565b61339a6040830185612f24565b6133a76060830184612f60565b95945050505050565b60006020820190506133c56000830184612f33565b92915050565b60006020820190506133e06000830184612f42565b92915050565b60006020820190506133fb6000830184612f51565b92915050565b6000602082019050818103600083015261341a81612fd9565b9050919050565b6000602082019050818103600083015261343a81613019565b9050919050565b6000602082019050818103600083015261345a81613059565b9050919050565b6000602082019050818103600083015261347a81613099565b9050919050565b6000602082019050818103600083015261349a816130ff565b9050919050565b600060208201905081810360008301526134ba81613165565b9050919050565b600060208201905081810360008301526134da816131e5565b9050919050565b60006020820190506134f66000830184613225565b92915050565b6000604051905081810181811067ffffffffffffffff82111715613523576135226136fd565b5b8060405250919050565b600067ffffffffffffffff821115613548576135476136fd565b5b602082029050602081019050919050565b600067ffffffffffffffff821115613574576135736136fd565b5b601f19601f8301169050602081019050919050565b600081519050919050565b600082825260208201905092915050565b600081905092915050565b60006135bb82613613565b9050919050565b60008115159050919050565b60006135d9826135b0565b9050919050565b60006135eb826135b0565b9050919050565b600081905061360082613710565b919050565b600061ffff82169050919050565b600073ffffffffffffffffffffffffffffffffffffffff82169050919050565b6000819050919050565b600061364882613697565b9050919050565b600061365a82613661565b9050919050565b600061366c82613613565b9050919050565b600061367e826135f2565b9050919050565b600061369082613605565b9050919050565b60006136a2826136a9565b9050919050565b60006136b482613613565b9050919050565b82818337600083830152505050565b60005b838110156136e85780820151818401526020810190506136cd565b838111156136f7576000848401525b50505050565bfe5b6000601f19601f8301169050919050565b60038110613721576137206136fd565b5b50565b61372d816135b0565b811461373857600080fd5b50565b613744816135c2565b811461374f57600080fd5b50565b61375b816135ce565b811461376657600080fd5b50565b613772816135e0565b811461377d57600080fd5b50565b6003811061378d57600080fd5b50565b61379981613633565b81146137a457600080fd5b5056fe4f776e61626c653a206e6577206f776e657220697320746865207a65726f2061646472657373536166654d6174683a206d756c7469706c69636174696f6e206f766572666c6f77a2646970667358221220101fd34d2503edf1bb6e0195f1729813044a383f102b0d6f735c72cddac32b8a64736f6c63430007040033",
  "linkReferences": {},
  "deployedLinkReferences": {}
}