{
  "_format": "hh-sol-artifact-1",
  "contractName": "TreasuryDao",
  "sourceName": "contracts/TreasuryDao.sol",
  "abi": [
    {
      "inputs": [
        {
          "internalType": "enum DataTypes.CommunityTemplate",
          "name": "_template",
          "type": "uint8"
        },
        {
          "internalType": "address",
          "name": "_communitiesRegistry",
          "type": "address"
        },
        {
          "internalType": "address",
          "name": "_aaveDataProvider",
          "type": "address"
        },
        {
          "internalType": "address",
          "name": "_dai",
          "type": "address"
        },
        {
          "internalType": "address",
          "name": "_usdc",
          "type": "address"
        }
      ],
      "stateMutability": "nonpayable",
      "type": "constructor"
    },
    {
      "anonymous": false,
      "inputs": [
        {
          "indexed": false,
          "internalType": "address",
          "name": "_treasuryAddress",
          "type": "address"
        },
        {
          "indexed": false,
          "internalType": "address",
          "name": "_communityAddress",
          "type": "address"
        },
        {
          "indexed": false,
          "internalType": "uint256",
          "name": "_id",
          "type": "uint256"
        }
      ],
      "name": "CommunityLinked",
      "type": "event"
    },
    {
      "anonymous": false,
      "inputs": [
        {
          "indexed": false,
          "internalType": "address",
          "name": "_community",
          "type": "address"
        },
        {
          "indexed": false,
          "internalType": "address",
          "name": "_currency",
          "type": "address"
        },
        {
          "indexed": false,
          "internalType": "uint256",
          "name": "_amount",
          "type": "uint256"
        }
      ],
      "name": "Delegated",
      "type": "event"
    },
    {
      "anonymous": false,
      "inputs": [
        {
          "indexed": false,
          "internalType": "address",
          "name": "_depositor",
          "type": "address"
        },
        {
          "indexed": false,
          "internalType": "string",
          "name": "_currency",
          "type": "string"
        },
        {
          "indexed": false,
          "internalType": "uint256",
          "name": "_amount",
          "type": "uint256"
        }
      ],
      "name": "Deposited",
      "type": "event"
    },
    {
      "anonymous": false,
      "inputs": [
        {
          "indexed": true,
          "internalType": "address",
          "name": "previousOwner",
          "type": "address"
        },
        {
          "indexed": true,
          "internalType": "address",
          "name": "newOwner",
          "type": "address"
        }
      ],
      "name": "OwnershipTransferred",
      "type": "event"
    },
    {
      "anonymous": false,
      "inputs": [
        {
          "indexed": false,
          "internalType": "uint256",
          "name": "_id",
          "type": "uint256"
        }
      ],
      "name": "ThresholdReached",
      "type": "event"
    },
    {
      "inputs": [],
      "name": "IDENTITY",
      "outputs": [
        {
          "internalType": "bytes4",
          "name": "",
          "type": "bytes4"
        }
      ],
      "stateMutability": "view",
      "type": "function"
    },
    {
      "inputs": [],
      "name": "aaveProtocolDataProvider",
      "outputs": [
        {
          "internalType": "contract IProtocolDataProvider",
          "name": "",
          "type": "address"
        }
      ],
      "stateMutability": "view",
      "type": "function"
    },
    {
      "inputs": [],
      "name": "communitiesRegistry",
      "outputs": [
        {
          "internalType": "address",
          "name": "",
          "type": "address"
        }
      ],
      "stateMutability": "view",
      "type": "function"
    },
    {
      "inputs": [
        {
          "internalType": "uint256",
          "name": "",
          "type": "uint256"
        }
      ],
      "name": "communityTreasuries",
      "outputs": [
        {
          "internalType": "address",
          "name": "",
          "type": "address"
        }
      ],
      "stateMutability": "view",
      "type": "function"
    },
    {
      "inputs": [
        {
          "internalType": "address",
          "name": "_currency",
          "type": "address"
        },
        {
          "internalType": "uint256",
          "name": "_amount",
          "type": "uint256"
        },
        {
          "internalType": "address",
          "name": "_deligatee",
          "type": "address"
        }
      ],
      "name": "delegate",
      "outputs": [],
      "stateMutability": "nonpayable",
      "type": "function"
    },
    {
      "inputs": [
        {
          "internalType": "string",
          "name": "_currency",
          "type": "string"
        },
        {
          "internalType": "uint256",
          "name": "_amount",
          "type": "uint256"
        },
        {
          "internalType": "uint256",
          "name": "_repayment",
          "type": "uint256"
        }
      ],
      "name": "deposit",
      "outputs": [],
      "stateMutability": "nonpayable",
      "type": "function"
    },
    {
      "inputs": [
        {
          "internalType": "string",
          "name": "",
          "type": "string"
        }
      ],
      "name": "depositableCurrenciesContracts",
      "outputs": [
        {
          "internalType": "address",
          "name": "",
          "type": "address"
        }
      ],
      "stateMutability": "view",
      "type": "function"
    },
    {
      "inputs": [
        {
          "internalType": "address",
          "name": "",
          "type": "address"
        }
      ],
      "name": "depositors",
      "outputs": [
        {
          "internalType": "uint256",
          "name": "",
          "type": "uint256"
        }
      ],
      "stateMutability": "view",
      "type": "function"
    },
    {
      "inputs": [
        {
          "internalType": "address",
          "name": "_currency",
          "type": "address"
        },
        {
          "internalType": "address",
          "name": "_member",
          "type": "address"
        }
      ],
      "name": "getBalance",
      "outputs": [
        {
          "internalType": "uint256",
          "name": "",
          "type": "uint256"
        }
      ],
      "stateMutability": "nonpayable",
      "type": "function"
    },
    {
      "inputs": [
        {
          "internalType": "address",
          "name": "_currency",
          "type": "address"
        },
        {
          "internalType": "uint256",
          "name": "_id",
          "type": "uint256"
        }
      ],
      "name": "getDeligatee",
      "outputs": [
        {
          "internalType": "address",
          "name": "",
          "type": "address"
        }
      ],
      "stateMutability": "nonpayable",
      "type": "function"
    },
    {
      "inputs": [
        {
          "internalType": "address",
          "name": "_currency",
          "type": "address"
        },
        {
          "internalType": "address",
          "name": "_deligatee",
          "type": "address"
        }
      ],
      "name": "getDeligateeBorrowedAmount",
      "outputs": [
        {
          "internalType": "uint256",
          "name": "",
          "type": "uint256"
        }
      ],
      "stateMutability": "nonpayable",
      "type": "function"
    },
    {
      "inputs": [
        {
          "internalType": "address",
          "name": "_currency",
          "type": "address"
        }
      ],
      "name": "getDeligateeCount",
      "outputs": [
        {
          "internalType": "uint256",
          "name": "",
          "type": "uint256"
        }
      ],
      "stateMutability": "nonpayable",
      "type": "function"
    },
    {
      "inputs": [
        {
          "internalType": "address",
          "name": "_currency",
          "type": "address"
        }
      ],
      "name": "getTreasuryBalance",
      "outputs": [
        {
          "internalType": "uint256",
          "name": "",
          "type": "uint256"
        }
      ],
      "stateMutability": "nonpayable",
      "type": "function"
    },
    {
      "inputs": [
        {
          "internalType": "address",
          "name": "_currency",
          "type": "address"
        }
      ],
      "name": "getTreasuryBorrowedBalance",
      "outputs": [
        {
          "internalType": "uint256",
          "name": "",
          "type": "uint256"
        }
      ],
      "stateMutability": "nonpayable",
      "type": "function"
    },
    {
      "inputs": [
        {
          "internalType": "address",
          "name": "",
          "type": "address"
        }
      ],
      "name": "isTreasuryActive",
      "outputs": [
        {
          "internalType": "bool",
          "name": "",
          "type": "bool"
        }
      ],
      "stateMutability": "view",
      "type": "function"
    },
    {
      "inputs": [
        {
          "internalType": "address",
          "name": "_treasuryAddress",
          "type": "address"
        }
      ],
      "name": "linkCommunity",
      "outputs": [],
      "stateMutability": "nonpayable",
      "type": "function"
    },
    {
      "inputs": [],
      "name": "nextId",
      "outputs": [
        {
          "internalType": "uint256",
          "name": "",
          "type": "uint256"
        }
      ],
      "stateMutability": "view",
      "type": "function"
    },
    {
      "inputs": [],
      "name": "owner",
      "outputs": [
        {
          "internalType": "address",
          "name": "",
          "type": "address"
        }
      ],
      "stateMutability": "view",
      "type": "function"
    },
    {
      "inputs": [],
      "name": "renounceOwnership",
      "outputs": [],
      "stateMutability": "nonpayable",
      "type": "function"
    },
    {
      "inputs": [
        {
          "internalType": "address",
          "name": "",
          "type": "address"
        },
        {
          "internalType": "address",
          "name": "",
          "type": "address"
        }
      ],
      "name": "repayableAmount",
      "outputs": [
        {
          "internalType": "uint256",
          "name": "",
          "type": "uint256"
        }
      ],
      "stateMutability": "view",
      "type": "function"
    },
    {
      "inputs": [],
      "name": "template",
      "outputs": [
        {
          "internalType": "enum DataTypes.CommunityTemplate",
          "name": "",
          "type": "uint8"
        }
      ],
      "stateMutability": "view",
      "type": "function"
    },
    {
      "inputs": [
        {
          "internalType": "uint256",
          "name": "_id",
          "type": "uint256"
        }
      ],
      "name": "thresholdReached",
      "outputs": [],
      "stateMutability": "nonpayable",
      "type": "function"
    },
    {
      "inputs": [],
      "name": "totalDeposited",
      "outputs": [
        {
          "internalType": "uint256",
          "name": "",
          "type": "uint256"
        }
      ],
      "stateMutability": "view",
      "type": "function"
    },
    {
      "inputs": [
        {
          "internalType": "address",
          "name": "newOwner",
          "type": "address"
        }
      ],
      "name": "transferOwnership",
      "outputs": [],
      "stateMutability": "nonpayable",
      "type": "function"
    },
    {
      "inputs": [
        {
          "internalType": "address",
          "name": "_currency",
          "type": "address"
        },
        {
          "internalType": "address",
          "name": "_deligatee",
          "type": "address"
        },
        {
          "internalType": "bool",
          "name": "_force",
          "type": "bool"
        }
      ],
      "name": "undelegate",
      "outputs": [],
      "stateMutability": "nonpayable",
      "type": "function"
    },
    {
      "inputs": [
        {
          "internalType": "address",
          "name": "_currency",
          "type": "address"
        },
        {
          "internalType": "uint256",
          "name": "_amount",
          "type": "uint256"
        }
      ],
      "name": "withdraw",
      "outputs": [],
      "stateMutability": "nonpayable",
      "type": "function"
    }
  ],
  "bytecode": "0x60806040523480156200001157600080fd5b5060405162003a0c38038062003a0c8339818101604052810190620000379190620002fb565b600062000049620002c560201b60201c565b9050806000806101000a81548173ffffffffffffffffffffffffffffffffffffffff021916908373ffffffffffffffffffffffffffffffffffffffff1602179055508073ffffffffffffffffffffffffffffffffffffffff16600073ffffffffffffffffffffffffffffffffffffffff167f8be0079c531659141344cd1fd0a4f28419497f9722a3daafe3b4186f6b6457e060405160405180910390a350600073ffffffffffffffffffffffffffffffffffffffff168373ffffffffffffffffffffffffffffffffffffffff1614156200015a576040517f08c379a0000000000000000000000000000000000000000000000000000000008152600401620001519062000471565b60405180910390fd5b8160056040516200016b9062000443565b908152602001604051809103902060006101000a81548173ffffffffffffffffffffffffffffffffffffffff021916908373ffffffffffffffffffffffffffffffffffffffff160217905550806005604051620001c8906200045a565b908152602001604051809103902060006101000a81548173ffffffffffffffffffffffffffffffffffffffff021916908373ffffffffffffffffffffffffffffffffffffffff16021790555084600760146101000a81548160ff021916908360028111156200023357fe5b021790555083600160006101000a81548173ffffffffffffffffffffffffffffffffffffffff021916908373ffffffffffffffffffffffffffffffffffffffff16021790555082600760006101000a81548173ffffffffffffffffffffffffffffffffffffffff021916908373ffffffffffffffffffffffffffffffffffffffff16021790555050505050506200050e565b600033905090565b600081519050620002de81620004e3565b92915050565b600081519050620002f581620004fd565b92915050565b600080600080600060a086880312156200031457600080fd5b60006200032488828901620002e4565b95505060206200033788828901620002cd565b94505060406200034a88828901620002cd565b93505060606200035d88828901620002cd565b92505060806200037088828901620002cd565b9150509295509295909350565b60006200038c601e8362000493565b91507f4161766520646174612070726f76696465722063616e6e6f74206265203000006000830152602082019050919050565b6000620003ce600383620004a4565b91507f44414900000000000000000000000000000000000000000000000000000000006000830152600382019050919050565b600062000410600483620004a4565b91507f55534443000000000000000000000000000000000000000000000000000000006000830152600482019050919050565b60006200045082620003bf565b9150819050919050565b6000620004678262000401565b9150819050919050565b600060208201905081810360008301526200048c816200037d565b9050919050565b600082825260208201905092915050565b600081905092915050565b6000620004bc82620004c3565b9050919050565b600073ffffffffffffffffffffffffffffffffffffffff82169050919050565b620004ee81620004af565b8114620004fa57600080fd5b50565b600381106200050b57600080fd5b50565b6134ee806200051e6000396000f3fe608060405234801561001057600080fd5b506004361061018e5760003560e01c806375e2b5b9116100de578063c1a3286211610097578063eed75f6d11610071578063eed75f6d146104bd578063f2fde38b146104ed578063f3fef3a314610509578063ff50abdc146105255761018e565b8063c1a328621461042d578063d431f1311461045d578063d4fac45d1461048d5761018e565b806375e2b5b91461035b5780637b3d7efd146103775780638da5cb5b146103a75780639707c1c3146103c5578063a263605d146103f5578063a7829ffa146104115761018e565b80635f9d4d2e1161014b5780636f2ddd93116101255780636f2ddd93146102e7578063715018a61461030557806372dc69381461030f578063744ee9131461032b5761018e565b80635f9d4d2e1461028d57806361b8ce8c146102ab5780636873cd79146102c95761018e565b806305f9c59714610193578063150c4aea146101af5780631f395d4e146101cd578063307fc1aa146101fd5780633705abf11461022d57806357baeac81461025d575b600080fd5b6101ad60048036038101906101a89190612a4e565b610543565b005b6101b7610aa9565b6040516101c4919061302e565b60405180910390f35b6101e760048036038101906101e2919061270a565b610ab4565b6040516101f4919061317f565b60405180910390f35b61021760048036038101906102129190612a4e565b610abb565b6040516102249190612ec3565b60405180910390f35b610247600480360381019061024291906129a6565b610aee565b6040516102549190612ec3565b60405180910390f35b6102776004803603810190610272919061270a565b610b37565b604051610284919061317f565b60405180910390f35b610295610b3e565b6040516102a29190613049565b60405180910390f35b6102b3610b64565b6040516102c0919061317f565b60405180910390f35b6102d1610b6a565b6040516102de9190612ec3565b60405180910390f35b6102ef610b90565b6040516102fc9190613064565b60405180910390f35b61030d610ba3565b005b610329600480360381019061032491906127e7565b610d29565b005b6103456004803603810190610340919061275c565b610d2e565b604051610352919061317f565b60405180910390f35b61037560048036038101906103709190612872565b610d36565b005b610391600480360381019061038c919061270a565b610d3b565b60405161039e9190613013565b60405180910390f35b6103af610d5b565b6040516103bc9190612ec3565b60405180910390f35b6103df60048036038101906103da919061270a565b610d84565b6040516103ec919061317f565b60405180910390f35b61040f600480360381019061040a919061270a565b610d8b565b005b61042b600480360381019061042691906129e7565b61122d565b005b61044760048036038101906104429190612836565b6118f4565b6040516104549190612ec3565b60405180910390f35b6104776004803603810190610472919061275c565b6118fc565b604051610484919061317f565b60405180910390f35b6104a760048036038101906104a2919061275c565b611921565b6040516104b4919061317f565b60405180910390f35b6104d760048036038101906104d2919061270a565b611929565b6040516104e4919061317f565b60405180910390f35b6105076004803603810190610502919061270a565b611941565b005b610523600480360381019061051e9190612836565b611b4c565b005b61052d611b50565b60405161053a919061317f565b60405180910390f35b6002600082815260200190815260200160002060009054906101000a900473ffffffffffffffffffffffffffffffffffffffff1673ffffffffffffffffffffffffffffffffffffffff163373ffffffffffffffffffffffffffffffffffffffff16146105e4576040517f08c379a00000000000000000000000000000000000000000000000000000000081526004016105db906130df565b60405180910390fd5b600360003373ffffffffffffffffffffffffffffffffffffffff1673ffffffffffffffffffffffffffffffffffffffff16815260200190815260200160002060009054906101000a900460ff16610670576040517f08c379a00000000000000000000000000000000000000000000000000000000081526004016106679061313f565b60405180910390fd5b6000600760009054906101000a900473ffffffffffffffffffffffffffffffffffffffff1673ffffffffffffffffffffffffffffffffffffffff16630542975c6040518163ffffffff1660e01b815260040160206040518083038186803b1580156106da57600080fd5b505afa1580156106ee573d6000803e3d6000fd5b505050506040513d601f19601f82011682018060405250810190610712919061292b565b73ffffffffffffffffffffffffffffffffffffffff1663fca513a86040518163ffffffff1660e01b815260040160206040518083038186803b15801561075757600080fd5b505afa15801561076b573d6000803e3d6000fd5b505050506040513d601f19601f8201168201806040525081019061078f9190612733565b90506000600760009054906101000a900473ffffffffffffffffffffffffffffffffffffffff1673ffffffffffffffffffffffffffffffffffffffff16630542975c6040518163ffffffff1660e01b815260040160206040518083038186803b1580156107fb57600080fd5b505afa15801561080f573d6000803e3d6000fd5b505050506040513d601f19601f82011682018060405250810190610833919061292b565b73ffffffffffffffffffffffffffffffffffffffff16630261bf8b6040518163ffffffff1660e01b815260040160206040518083038186803b15801561087857600080fd5b505afa15801561088c573d6000803e3d6000fd5b505050506040513d601f19601f820116820180604052508101906108b09190612733565b905060008173ffffffffffffffffffffffffffffffffffffffff1663bf92857c306040518263ffffffff1660e01b81526004016108ed9190612ec3565b60c06040518083038186803b15801561090557600080fd5b505afa158015610919573d6000803e3d6000fd5b505050506040513d601f19601f8201168201806040525081019061093d9190612aa0565b505050925050506000610a1d8473ffffffffffffffffffffffffffffffffffffffff1663b3596f07600560405161097390612eae565b908152602001604051809103902060009054906101000a900473ffffffffffffffffffffffffffffffffffffffff166040518263ffffffff1660e01b81526004016109be9190612ec3565b60206040518083038186803b1580156109d657600080fd5b505afa1580156109ea573d6000803e3d6000fd5b505050506040513d601f19601f82011682018060405250810190610a0e9190612a77565b83611b5690919063ffffffff16565b9050610a466064610a38605084611ba090919063ffffffff16565b611b5690919063ffffffff16565b9050610a6b610a66670de0b6b3a764000083611ba090919063ffffffff16565b611c26565b7f78e5a77f9f20d8d96a78ff9fbe09d607bf641315b8965893038e859f91651c7185604051610a9a919061317f565b60405180910390a15050505050565b637eb0b43d60e01b81565b6000919050565b60026020528060005260406000206000915054906101000a900473ffffffffffffffffffffffffffffffffffffffff1681565b6005818051602081018201805184825260208301602085012081835280955050505050506000915054906101000a900473ffffffffffffffffffffffffffffffffffffffff1681565b6000919050565b600760009054906101000a900473ffffffffffffffffffffffffffffffffffffffff1681565b60045481565b600160009054906101000a900473ffffffffffffffffffffffffffffffffffffffff1681565b600760149054906101000a900460ff1681565b610bab612001565b73ffffffffffffffffffffffffffffffffffffffff1660008054906101000a900473ffffffffffffffffffffffffffffffffffffffff1673ffffffffffffffffffffffffffffffffffffffff1614610c6b576040517f08c379a00000000000000000000000000000000000000000000000000000000081526004018080602001828103825260208152602001807f4f776e61626c653a2063616c6c6572206973206e6f7420746865206f776e657281525060200191505060405180910390fd5b600073ffffffffffffffffffffffffffffffffffffffff1660008054906101000a900473ffffffffffffffffffffffffffffffffffffffff1673ffffffffffffffffffffffffffffffffffffffff167f8be0079c531659141344cd1fd0a4f28419497f9722a3daafe3b4186f6b6457e060405160405180910390a360008060006101000a81548173ffffffffffffffffffffffffffffffffffffffff021916908373ffffffffffffffffffffffffffffffffffffffff160217905550565b505050565b600092915050565b505050565b60036020528060005260406000206000915054906101000a900460ff1681565b60008060009054906101000a900473ffffffffffffffffffffffffffffffffffffffff16905090565b6000919050565b610d93612001565b73ffffffffffffffffffffffffffffffffffffffff16610db1610d5b565b73ffffffffffffffffffffffffffffffffffffffff161480610e275750600160009054906101000a900473ffffffffffffffffffffffffffffffffffffffff1673ffffffffffffffffffffffffffffffffffffffff16610e0f612001565b73ffffffffffffffffffffffffffffffffffffffff16145b610e66576040517f08c379a0000000000000000000000000000000000000000000000000000000008152600401610e5d906130bf565b60405180910390fd5b6000819050600760149054906101000a900460ff166002811115610e8657fe5b8173ffffffffffffffffffffffffffffffffffffffff16636f2ddd936040518163ffffffff1660e01b815260040160206040518083038186803b158015610ecc57600080fd5b505afa158015610ee0573d6000803e3d6000fd5b505050506040513d601f19601f82011682018060405250810190610f04919061297d565b6002811115610f0f57fe5b14610f4f576040517f08c379a0000000000000000000000000000000000000000000000000000000008152600401610f469061315f565b60405180910390fd5b3073ffffffffffffffffffffffffffffffffffffffff168173ffffffffffffffffffffffffffffffffffffffff16634162169f6040518163ffffffff1660e01b815260040160206040518083038186803b158015610fac57600080fd5b505afa158015610fc0573d6000803e3d6000fd5b505050506040513d601f19601f82011682018060405250810190610fe49190612954565b73ffffffffffffffffffffffffffffffffffffffff161461103a576040517f08c379a00000000000000000000000000000000000000000000000000000000081526004016110319061307f565b60405180910390fd5b8160026000600454815260200190815260200160002060006101000a81548173ffffffffffffffffffffffffffffffffffffffff021916908373ffffffffffffffffffffffffffffffffffffffff1602179055506001600360008473ffffffffffffffffffffffffffffffffffffffff1673ffffffffffffffffffffffffffffffffffffffff16815260200190815260200160002060006101000a81548160ff0219169083151502179055508073ffffffffffffffffffffffffffffffffffffffff1663d0e0ba956004546040518263ffffffff1660e01b8152600401611121919061317f565b600060405180830381600087803b15801561113b57600080fd5b505af115801561114f573d6000803e3d6000fd5b505050507f720f042cfe589c4e7d9ece472897915730fb34a553dfd956cd4c9b0cee536a2f828273ffffffffffffffffffffffffffffffffffffffff1663dc1fb5a56040518163ffffffff1660e01b815260040160206040518083038186803b1580156111bb57600080fd5b505afa1580156111cf573d6000803e3d6000fd5b505050506040513d601f19601f820116820180604052508101906111f39190612733565b60045460405161120593929190612f6e565b60405180910390a1611223600160045461200990919063ffffffff16565b6004819055505050565b600060045411611272576040517f08c379a00000000000000000000000000000000000000000000000000000000081526004016112699061309f565b60405180910390fd5b60006005846040516112849190612e97565b908152602001604051809103902060009054906101000a900473ffffffffffffffffffffffffffffffffffffffff169050600073ffffffffffffffffffffffffffffffffffffffff168173ffffffffffffffffffffffffffffffffffffffff161415611325576040517f08c379a000000000000000000000000000000000000000000000000000000000815260040161131c906130ff565b60405180910390fd5b60008190506000611347670de0b6b3a764000086611ba090919063ffffffff16565b9050808273ffffffffffffffffffffffffffffffffffffffff166370a0823161136e612001565b6040518263ffffffff1660e01b815260040161138a9190612ede565b60206040518083038186803b1580156113a257600080fd5b505afa1580156113b6573d6000803e3d6000fd5b505050506040513d601f19601f820116820180604052508101906113da9190612a77565b101561141b576040517f08c379a00000000000000000000000000000000000000000000000000000000081526004016114129061311f565b60405180910390fd5b6000600760009054906101000a900473ffffffffffffffffffffffffffffffffffffffff1673ffffffffffffffffffffffffffffffffffffffff16630542975c6040518163ffffffff1660e01b815260040160206040518083038186803b15801561148557600080fd5b505afa158015611499573d6000803e3d6000fd5b505050506040513d601f19601f820116820180604052508101906114bd919061292b565b73ffffffffffffffffffffffffffffffffffffffff16630261bf8b6040518163ffffffff1660e01b815260040160206040518083038186803b15801561150257600080fd5b505afa158015611516573d6000803e3d6000fd5b505050506040513d601f19601f8201168201806040525081019061153a9190612733565b90508273ffffffffffffffffffffffffffffffffffffffff166323b872dd3330856040518463ffffffff1660e01b815260040161157993929190612ef9565b602060405180830381600087803b15801561159357600080fd5b505af11580156115a7573d6000803e3d6000fd5b505050506040513d601f19601f820116820180604052508101906115cb9190612902565b508273ffffffffffffffffffffffffffffffffffffffff1663095ea7b382846040518363ffffffff1660e01b8152600401611607929190612fa5565b602060405180830381600087803b15801561162157600080fd5b505af1158015611635573d6000803e3d6000fd5b505050506040513d601f19601f820116820180604052508101906116599190612902565b508073ffffffffffffffffffffffffffffffffffffffff1663e8eda9df85843060006040518563ffffffff1660e01b815260040161169a9493929190612fce565b600060405180830381600087803b1580156116b457600080fd5b505af11580156116c8573d6000803e3d6000fd5b505050506117806116f560646116e78886611ba090919063ffffffff16565b611b5690919063ffffffff16565b600660003373ffffffffffffffffffffffffffffffffffffffff1673ffffffffffffffffffffffffffffffffffffffff16815260200190815260200160002060008773ffffffffffffffffffffffffffffffffffffffff1673ffffffffffffffffffffffffffffffffffffffff1681526020019081526020016000205461200990919063ffffffff16565b600660003373ffffffffffffffffffffffffffffffffffffffff1673ffffffffffffffffffffffffffffffffffffffff16815260200190815260200160002060008673ffffffffffffffffffffffffffffffffffffffff1673ffffffffffffffffffffffffffffffffffffffff1681526020019081526020016000208190555061185282600860003373ffffffffffffffffffffffffffffffffffffffff1673ffffffffffffffffffffffffffffffffffffffff1681526020019081526020016000205461200990919063ffffffff16565b600860003373ffffffffffffffffffffffffffffffffffffffff1673ffffffffffffffffffffffffffffffffffffffff168152602001908152602001600020819055506118aa8260095461200990919063ffffffff16565b6009819055507ffd4bdef056842e4615d2a093647094c0b9bf67c63662d614d63fefd617e0add23388886040516118e393929190612f30565b60405180910390a150505050505050565b600092915050565b6006602052816000526040600020602052806000526040600020600091509150505481565b600092915050565b60086020528060005260406000206000915090505481565b611949612001565b73ffffffffffffffffffffffffffffffffffffffff1660008054906101000a900473ffffffffffffffffffffffffffffffffffffffff1673ffffffffffffffffffffffffffffffffffffffff1614611a09576040517f08c379a00000000000000000000000000000000000000000000000000000000081526004018080602001828103825260208152602001807f4f776e61626c653a2063616c6c6572206973206e6f7420746865206f776e657281525060200191505060405180910390fd5b600073ffffffffffffffffffffffffffffffffffffffff168173ffffffffffffffffffffffffffffffffffffffff161415611a8f576040517f08c379a00000000000000000000000000000000000000000000000000000000081526004018080602001828103825260268152602001806134726026913960400191505060405180910390fd5b8073ffffffffffffffffffffffffffffffffffffffff1660008054906101000a900473ffffffffffffffffffffffffffffffffffffffff1673ffffffffffffffffffffffffffffffffffffffff167f8be0079c531659141344cd1fd0a4f28419497f9722a3daafe3b4186f6b6457e060405160405180910390a3806000806101000a81548173ffffffffffffffffffffffffffffffffffffffff021916908373ffffffffffffffffffffffffffffffffffffffff16021790555050565b5050565b60095481565b6000611b9883836040518060400160405280601a81526020017f536166654d6174683a206469766973696f6e206279207a65726f000000000000815250612091565b905092915050565b600080831415611bb35760009050611c20565b6000828402905082848281611bc457fe5b0414611c1b576040517f08c379a00000000000000000000000000000000000000000000000000000000081526004018080602001828103825260218152602001806134986021913960400191505060405180910390fd5b809150505b92915050565b600080606060045467ffffffffffffffff81118015611c4457600080fd5b50604051908082528060200260200182016040528015611c735781602001602082028036833780820191505090505b509050606060045467ffffffffffffffff81118015611c9157600080fd5b50604051908082528060200260200182016040528015611cc05781602001602082028036833780820191505090505b50905060008060005b600454811015611ef4576000848281518110611ce157fe5b6020026020010190151590811515815250506002600082815260200190815260200160002060009054906101000a900473ffffffffffffffffffffffffffffffffffffffff169550600360008773ffffffffffffffffffffffffffffffffffffffff1673ffffffffffffffffffffffffffffffffffffffff16815260200190815260200160002060009054906101000a900460ff1615611ee7578573ffffffffffffffffffffffffffffffffffffffff1663eaad31e16040518163ffffffff1660e01b815260040160206040518083038186803b158015611dc157600080fd5b505afa158015611dd5573d6000803e3d6000fd5b505050506040513d601f19601f82011682018060405250810190611df99190612a77565b96506000871115611ee657611e8f8673ffffffffffffffffffffffffffffffffffffffff166337f3061d6040518163ffffffff1660e01b815260040160006040518083038186803b158015611e4d57600080fd5b505afa158015611e61573d6000803e3d6000fd5b505050506040513d6000823e3d601f19601f82011682018060405250810190611e8a91906128c1565b612157565b858381518110611e9b57fe5b6020026020010181815250508180600101925050611ec360018461200990919063ffffffff16565b92506001848281518110611ed357fe5b6020026020010190151590811515815250505b5b8080600101915050611cc9565b506060611f0185846121c3565b90506060611f0f8983612280565b90506000925060005b600454811015611ff557858181518110611f2e57fe5b602002602001015115611fe857611fdf6002600083815260200190815260200160002060009054906101000a900473ffffffffffffffffffffffffffffffffffffffff166005604051611f8090612eae565b908152602001604051809103902060009054906101000a900473ffffffffffffffffffffffffffffffffffffffff16611fda64e8d4a51000868981518110611fc457fe5b6020026020010151611b5690919063ffffffff16565b61234b565b83806001019450505b8080600101915050611f18565b50505050505050505050565b600033905090565b600080828401905083811015612087576040517f08c379a000000000000000000000000000000000000000000000000000000000815260040180806020018281038252601b8152602001807f536166654d6174683a206164646974696f6e206f766572666c6f77000000000081525060200191505060405180910390fd5b8091505092915050565b6000808311829061213d576040517f08c379a00000000000000000000000000000000000000000000000000000000081526004018080602001828103825283818151815260200191508051906020019080838360005b838110156121025780820151818401526020810190506120e7565b50505050905090810190601f16801561212f5780820380516001836020036101000a031916815260200191505b509250505060405180910390fd5b50600083858161214957fe5b049050809150509392505050565b6000806000905060005b83518110156121a75761219861218985838151811061217c57fe5b60200260200101516124aa565b8361200990919063ffffffff16565b91508080600101915050612161565b506121bb8182611ba090919063ffffffff16565b915050919050565b606060006121d1848461250c565b905060608367ffffffffffffffff811180156121ec57600080fd5b5060405190808252806020026020018201604052801561221b5781602001602082028036833780820191505090505b50905060005b848110156122745761224f8387838151811061223957fe5b6020026020010151611b5690919063ffffffff16565b82828151811061225b57fe5b6020026020010181815250508080600101915050612221565b50809250505092915050565b6060600061229a620f424085611b5690919063ffffffff16565b90506060835167ffffffffffffffff811180156122b657600080fd5b506040519080825280602002602001820160405280156122e55781602001602082028036833780820191505090505b50905060005b845181101561233f5761231a85828151811061230357fe5b602002602001015184611ba090919063ffffffff16565b82828151811061232657fe5b60200260200101818152505080806001019150506122eb565b50809250505092915050565b6000600760009054906101000a900473ffffffffffffffffffffffffffffffffffffffff1673ffffffffffffffffffffffffffffffffffffffff1663d2493b6c846040518263ffffffff1660e01b81526004016123a89190612ec3565b60606040518083038186803b1580156123c057600080fd5b505afa1580156123d4573d6000803e3d6000fd5b505050506040513d601f19601f820116820180604052508101906123f89190612798565b509150508073ffffffffffffffffffffffffffffffffffffffff1663c04a8a1085846040518363ffffffff1660e01b8152600401612437929190612fa5565b600060405180830381600087803b15801561245157600080fd5b505af1158015612465573d6000803e3d6000fd5b505050507fe5541a6b6103d4fa7e021ed54fad39c66f27a76bd13d374cf6240ae6bd0bb72b84848460405161249c93929190612f6e565b60405180910390a150505050565b600060038211156124f95781905060006001600284816124c657fe5b040190505b818110156124f3578091506002818285816124e257fe5b0401816124eb57fe5b0490506124cb565b50612507565b6000821461250657600190505b5b919050565b6000806000905060005b838110156125535761254485828151811061252d57fe5b60200260200101518361200990919063ffffffff16565b91508080600101915050612516565b5061256a620f424082611b5690919063ffffffff16565b90508091505092915050565b600081359050612585816133ee565b92915050565b60008151905061259a816133ee565b92915050565b600082601f8301126125b157600080fd5b81516125c46125bf826131cb565b61319a565b915081818352602084019350602081019050838560208402820111156125e957600080fd5b60005b8381101561261957816125ff88826126f5565b8452602084019350602083019250506001810190506125ec565b5050505092915050565b60008135905061263281613405565b92915050565b60008151905061264781613405565b92915050565b60008151905061265c8161341c565b92915050565b60008151905061267181613433565b92915050565b6000815190506126868161344a565b92915050565b600082601f83011261269d57600080fd5b81356126b06126ab826131f7565b61319a565b915080825260208301602083018583830111156126cc57600080fd5b6126d7838284613385565b50505092915050565b6000813590506126ef8161345a565b92915050565b6000815190506127048161345a565b92915050565b60006020828403121561271c57600080fd5b600061272a84828501612576565b91505092915050565b60006020828403121561274557600080fd5b60006127538482850161258b565b91505092915050565b6000806040838503121561276f57600080fd5b600061277d85828601612576565b925050602061278e85828601612576565b9150509250929050565b6000806000606084860312156127ad57600080fd5b60006127bb8682870161258b565b93505060206127cc8682870161258b565b92505060406127dd8682870161258b565b9150509250925092565b6000806000606084860312156127fc57600080fd5b600061280a86828701612576565b935050602061281b86828701612576565b925050604061282c86828701612623565b9150509250925092565b6000806040838503121561284957600080fd5b600061285785828601612576565b9250506020612868858286016126e0565b9150509250929050565b60008060006060848603121561288757600080fd5b600061289586828701612576565b93505060206128a6868287016126e0565b92505060406128b786828701612576565b9150509250925092565b6000602082840312156128d357600080fd5b600082015167ffffffffffffffff8111156128ed57600080fd5b6128f9848285016125a0565b91505092915050565b60006020828403121561291457600080fd5b600061292284828501612638565b91505092915050565b60006020828403121561293d57600080fd5b600061294b8482850161264d565b91505092915050565b60006020828403121561296657600080fd5b600061297484828501612662565b91505092915050565b60006020828403121561298f57600080fd5b600061299d84828501612677565b91505092915050565b6000602082840312156129b857600080fd5b600082013567ffffffffffffffff8111156129d257600080fd5b6129de8482850161268c565b91505092915050565b6000806000606084860312156129fc57600080fd5b600084013567ffffffffffffffff811115612a1657600080fd5b612a228682870161268c565b9350506020612a33868287016126e0565b9250506040612a44868287016126e0565b9150509250925092565b600060208284031215612a6057600080fd5b6000612a6e848285016126e0565b91505092915050565b600060208284031215612a8957600080fd5b6000612a97848285016126f5565b91505092915050565b60008060008060008060c08789031215612ab957600080fd5b6000612ac789828a016126f5565b9650506020612ad889828a016126f5565b9550506040612ae989828a016126f5565b9450506060612afa89828a016126f5565b9350506080612b0b89828a016126f5565b92505060a0612b1c89828a016126f5565b9150509295509295509295565b612b3281613307565b82525050565b612b418161324e565b82525050565b612b5081613260565b82525050565b612b5f8161326c565b82525050565b612b6e81613319565b82525050565b612b7d8161333d565b82525050565b612b8c8161334f565b82525050565b6000612b9d82613227565b612ba78185613232565b9350612bb7818560208601613394565b612bc0816133c9565b840191505092915050565b6000612bd682613227565b612be08185613243565b9350612bf0818560208601613394565b80840191505092915050565b6000612c09600c83613232565b91507f64616f206d69736d6174636800000000000000000000000000000000000000006000830152602082019050919050565b6000612c49601983613232565b91507f6e6f20636f6d6d756e79207472656173757279206164646564000000000000006000830152602082019050919050565b6000612c89601583613232565b91507f6e6f74206f776e6572206f7220726567697374727900000000000000000000006000830152602082019050919050565b6000612cc9600883613232565b91507f77726f6e672069640000000000000000000000000000000000000000000000006000830152602082019050919050565b6000612d09603983613232565b91507f5468652063757272656e63792070617373656420617320616e20617267756d6560008301527f6e74206973206e6f7420656e61626c65642c20736f72727921000000000000006020830152604082019050919050565b6000612d6f602683613232565b91507f596f7520646f6e2774206861766520656e6f7567682066756e647320746f206960008301527f6e766573742e00000000000000000000000000000000000000000000000000006020830152604082019050919050565b6000612dd5601683613232565b91507f7472656173757279206973206e6f7420616374697665000000000000000000006000830152602082019050919050565b6000612e15600483613243565b91507f55534443000000000000000000000000000000000000000000000000000000006000830152600482019050919050565b6000612e55601183613232565b91507f74656d706c617465206d69736d617463680000000000000000000000000000006000830152602082019050919050565b612e91816132fd565b82525050565b6000612ea38284612bcb565b915081905092915050565b6000612eb982612e08565b9150819050919050565b6000602082019050612ed86000830184612b38565b92915050565b6000602082019050612ef36000830184612b29565b92915050565b6000606082019050612f0e6000830186612b29565b612f1b6020830185612b38565b612f286040830184612e88565b949350505050565b6000606082019050612f456000830186612b29565b8181036020830152612f578185612b92565b9050612f666040830184612e88565b949350505050565b6000606082019050612f836000830186612b38565b612f906020830185612b38565b612f9d6040830184612e88565b949350505050565b6000604082019050612fba6000830185612b38565b612fc76020830184612e88565b9392505050565b6000608082019050612fe36000830187612b38565b612ff06020830186612e88565b612ffd6040830185612b38565b61300a6060830184612b83565b95945050505050565b60006020820190506130286000830184612b47565b92915050565b60006020820190506130436000830184612b56565b92915050565b600060208201905061305e6000830184612b65565b92915050565b60006020820190506130796000830184612b74565b92915050565b6000602082019050818103600083015261309881612bfc565b9050919050565b600060208201905081810360008301526130b881612c3c565b9050919050565b600060208201905081810360008301526130d881612c7c565b9050919050565b600060208201905081810360008301526130f881612cbc565b9050919050565b6000602082019050818103600083015261311881612cfc565b9050919050565b6000602082019050818103600083015261313881612d62565b9050919050565b6000602082019050818103600083015261315881612dc8565b9050919050565b6000602082019050818103600083015261317881612e48565b9050919050565b60006020820190506131946000830184612e88565b92915050565b6000604051905081810181811067ffffffffffffffff821117156131c1576131c06133c7565b5b8060405250919050565b600067ffffffffffffffff8211156131e6576131e56133c7565b5b602082029050602081019050919050565b600067ffffffffffffffff821115613212576132116133c7565b5b601f19601f8301169050602081019050919050565b600081519050919050565b600082825260208201905092915050565b600081905092915050565b6000613259826132dd565b9050919050565b60008115159050919050565b60007fffffffff0000000000000000000000000000000000000000000000000000000082169050919050565b60006132a38261324e565b9050919050565b60006132b58261324e565b9050919050565b60008190506132ca826133da565b919050565b600061ffff82169050919050565b600073ffffffffffffffffffffffffffffffffffffffff82169050919050565b6000819050919050565b600061331282613361565b9050919050565b60006133248261332b565b9050919050565b6000613336826132dd565b9050919050565b6000613348826132bc565b9050919050565b600061335a826132cf565b9050919050565b600061336c82613373565b9050919050565b600061337e826132dd565b9050919050565b82818337600083830152505050565b60005b838110156133b2578082015181840152602081019050613397565b838111156133c1576000848401525b50505050565bfe5b6000601f19601f8301169050919050565b600381106133eb576133ea6133c7565b5b50565b6133f78161324e565b811461340257600080fd5b50565b61340e81613260565b811461341957600080fd5b50565b61342581613298565b811461343057600080fd5b50565b61343c816132aa565b811461344757600080fd5b50565b6003811061345757600080fd5b50565b613463816132fd565b811461346e57600080fd5b5056fe4f776e61626c653a206e6577206f776e657220697320746865207a65726f2061646472657373536166654d6174683a206d756c7469706c69636174696f6e206f766572666c6f77a2646970667358221220374386ef18a8c2e21b458782fc5e870e4208e38ce439401455ce43d7b1ec727664736f6c63430007040033",
  "linkReferences": {},
  "deployedLinkReferences": {}
}