{
  "_format": "hh-sol-artifact-1",
  "contractName": "TreasuryDao",
  "sourceName": "contracts/TreasuryDao.sol",
  "abi": [
    {
      "inputs": [
        {
          "internalType": "enum DataTypes.CommunityTemplate",
          "name": "_template",
          "type": "uint8"
        },
        {
          "internalType": "address",
          "name": "_aaveDataProvider",
          "type": "address"
        },
        {
          "internalType": "address",
          "name": "_dai",
          "type": "address"
        },
        {
          "internalType": "address",
          "name": "_usdc",
          "type": "address"
        }
      ],
      "stateMutability": "nonpayable",
      "type": "constructor"
    },
    {
      "anonymous": false,
      "inputs": [
        {
          "indexed": false,
          "internalType": "address",
          "name": "_treasuryAddress",
          "type": "address"
        },
        {
          "indexed": false,
          "internalType": "address",
          "name": "_communityAddress",
          "type": "address"
        },
        {
          "indexed": false,
          "internalType": "uint256",
          "name": "_id",
          "type": "uint256"
        }
      ],
      "name": "CommunityLinked",
      "type": "event"
    },
    {
      "anonymous": false,
      "inputs": [
        {
          "indexed": false,
          "internalType": "address",
          "name": "_depositor",
          "type": "address"
        },
        {
          "indexed": false,
          "internalType": "string",
          "name": "_currency",
          "type": "string"
        },
        {
          "indexed": false,
          "internalType": "uint256",
          "name": "_amount",
          "type": "uint256"
        }
      ],
      "name": "Deposited",
      "type": "event"
    },
    {
      "anonymous": false,
      "inputs": [
        {
          "indexed": true,
          "internalType": "address",
          "name": "previousOwner",
          "type": "address"
        },
        {
          "indexed": true,
          "internalType": "address",
          "name": "newOwner",
          "type": "address"
        }
      ],
      "name": "OwnershipTransferred",
      "type": "event"
    },
    {
      "anonymous": false,
      "inputs": [
        {
          "indexed": false,
          "internalType": "uint256",
          "name": "_id",
          "type": "uint256"
        }
      ],
      "name": "ThresholdReached",
      "type": "event"
    },
    {
      "inputs": [],
      "name": "aaveProtocolDataProvider",
      "outputs": [
        {
          "internalType": "contract IProtocolDataProvider",
          "name": "",
          "type": "address"
        }
      ],
      "stateMutability": "view",
      "type": "function"
    },
    {
      "inputs": [
        {
          "internalType": "uint256",
          "name": "",
          "type": "uint256"
        }
      ],
      "name": "communityTreasuries",
      "outputs": [
        {
          "internalType": "address",
          "name": "",
          "type": "address"
        }
      ],
      "stateMutability": "view",
      "type": "function"
    },
    {
      "inputs": [
        {
          "internalType": "address",
          "name": "_currency",
          "type": "address"
        },
        {
          "internalType": "uint256",
          "name": "_amount",
          "type": "uint256"
        },
        {
          "internalType": "address",
          "name": "_deligatee",
          "type": "address"
        }
      ],
      "name": "delegate",
      "outputs": [],
      "stateMutability": "nonpayable",
      "type": "function"
    },
    {
      "inputs": [
        {
          "internalType": "string",
          "name": "_currency",
          "type": "string"
        },
        {
          "internalType": "uint256",
          "name": "_amount",
          "type": "uint256"
        },
        {
          "internalType": "uint256",
          "name": "_repayment",
          "type": "uint256"
        }
      ],
      "name": "deposit",
      "outputs": [],
      "stateMutability": "nonpayable",
      "type": "function"
    },
    {
      "inputs": [
        {
          "internalType": "string",
          "name": "",
          "type": "string"
        }
      ],
      "name": "depositableCurrenciesContracts",
      "outputs": [
        {
          "internalType": "address",
          "name": "",
          "type": "address"
        }
      ],
      "stateMutability": "view",
      "type": "function"
    },
    {
      "inputs": [
        {
          "internalType": "address",
          "name": "",
          "type": "address"
        }
      ],
      "name": "depositors",
      "outputs": [
        {
          "internalType": "uint256",
          "name": "",
          "type": "uint256"
        }
      ],
      "stateMutability": "view",
      "type": "function"
    },
    {
      "inputs": [
        {
          "internalType": "address",
          "name": "_currency",
          "type": "address"
        },
        {
          "internalType": "address",
          "name": "_member",
          "type": "address"
        }
      ],
      "name": "getBalance",
      "outputs": [
        {
          "internalType": "uint256",
          "name": "",
          "type": "uint256"
        }
      ],
      "stateMutability": "nonpayable",
      "type": "function"
    },
    {
      "inputs": [
        {
          "internalType": "address",
          "name": "_currency",
          "type": "address"
        },
        {
          "internalType": "uint256",
          "name": "_id",
          "type": "uint256"
        }
      ],
      "name": "getDeligatee",
      "outputs": [
        {
          "internalType": "address",
          "name": "",
          "type": "address"
        }
      ],
      "stateMutability": "nonpayable",
      "type": "function"
    },
    {
      "inputs": [
        {
          "internalType": "address",
          "name": "_currency",
          "type": "address"
        },
        {
          "internalType": "address",
          "name": "_deligatee",
          "type": "address"
        }
      ],
      "name": "getDeligateeBorrowedAmount",
      "outputs": [
        {
          "internalType": "uint256",
          "name": "",
          "type": "uint256"
        }
      ],
      "stateMutability": "nonpayable",
      "type": "function"
    },
    {
      "inputs": [
        {
          "internalType": "address",
          "name": "_currency",
          "type": "address"
        }
      ],
      "name": "getDeligateeCount",
      "outputs": [
        {
          "internalType": "uint256",
          "name": "",
          "type": "uint256"
        }
      ],
      "stateMutability": "nonpayable",
      "type": "function"
    },
    {
      "inputs": [
        {
          "internalType": "address",
          "name": "_currency",
          "type": "address"
        }
      ],
      "name": "getTreasuryBalance",
      "outputs": [
        {
          "internalType": "uint256",
          "name": "",
          "type": "uint256"
        }
      ],
      "stateMutability": "nonpayable",
      "type": "function"
    },
    {
      "inputs": [
        {
          "internalType": "address",
          "name": "_currency",
          "type": "address"
        }
      ],
      "name": "getTreasuryBorrowedBalance",
      "outputs": [
        {
          "internalType": "uint256",
          "name": "",
          "type": "uint256"
        }
      ],
      "stateMutability": "nonpayable",
      "type": "function"
    },
    {
      "inputs": [
        {
          "internalType": "address",
          "name": "",
          "type": "address"
        }
      ],
      "name": "isTreasuryActive",
      "outputs": [
        {
          "internalType": "bool",
          "name": "",
          "type": "bool"
        }
      ],
      "stateMutability": "view",
      "type": "function"
    },
    {
      "inputs": [
        {
          "internalType": "address",
          "name": "_treasuryAddress",
          "type": "address"
        }
      ],
      "name": "linkCommunity",
      "outputs": [],
      "stateMutability": "nonpayable",
      "type": "function"
    },
    {
      "inputs": [],
      "name": "nextId",
      "outputs": [
        {
          "internalType": "uint256",
          "name": "",
          "type": "uint256"
        }
      ],
      "stateMutability": "view",
      "type": "function"
    },
    {
      "inputs": [],
      "name": "owner",
      "outputs": [
        {
          "internalType": "address",
          "name": "",
          "type": "address"
        }
      ],
      "stateMutability": "view",
      "type": "function"
    },
    {
      "inputs": [],
      "name": "renounceOwnership",
      "outputs": [],
      "stateMutability": "nonpayable",
      "type": "function"
    },
    {
      "inputs": [
        {
          "internalType": "address",
          "name": "",
          "type": "address"
        },
        {
          "internalType": "address",
          "name": "",
          "type": "address"
        }
      ],
      "name": "repayableAmount",
      "outputs": [
        {
          "internalType": "uint256",
          "name": "",
          "type": "uint256"
        }
      ],
      "stateMutability": "view",
      "type": "function"
    },
    {
      "inputs": [],
      "name": "template",
      "outputs": [
        {
          "internalType": "enum DataTypes.CommunityTemplate",
          "name": "",
          "type": "uint8"
        }
      ],
      "stateMutability": "view",
      "type": "function"
    },
    {
      "inputs": [
        {
          "internalType": "uint256",
          "name": "_id",
          "type": "uint256"
        }
      ],
      "name": "thresholdReached",
      "outputs": [],
      "stateMutability": "nonpayable",
      "type": "function"
    },
    {
      "inputs": [],
      "name": "totalDeposited",
      "outputs": [
        {
          "internalType": "uint256",
          "name": "",
          "type": "uint256"
        }
      ],
      "stateMutability": "view",
      "type": "function"
    },
    {
      "inputs": [
        {
          "internalType": "address",
          "name": "newOwner",
          "type": "address"
        }
      ],
      "name": "transferOwnership",
      "outputs": [],
      "stateMutability": "nonpayable",
      "type": "function"
    },
    {
      "inputs": [
        {
          "internalType": "address",
          "name": "_currency",
          "type": "address"
        },
        {
          "internalType": "address",
          "name": "_deligatee",
          "type": "address"
        },
        {
          "internalType": "bool",
          "name": "_force",
          "type": "bool"
        }
      ],
      "name": "undelegate",
      "outputs": [],
      "stateMutability": "nonpayable",
      "type": "function"
    },
    {
      "inputs": [
        {
          "internalType": "address",
          "name": "_currency",
          "type": "address"
        },
        {
          "internalType": "uint256",
          "name": "_amount",
          "type": "uint256"
        }
      ],
      "name": "withdraw",
      "outputs": [],
      "stateMutability": "nonpayable",
      "type": "function"
    }
  ],
  "bytecode": "0x60806040523480156200001157600080fd5b506040516200380d3803806200380d8339818101604052810190620000379190620002b9565b6000620000496200028360201b60201c565b9050806000806101000a81548173ffffffffffffffffffffffffffffffffffffffff021916908373ffffffffffffffffffffffffffffffffffffffff1602179055508073ffffffffffffffffffffffffffffffffffffffff16600073ffffffffffffffffffffffffffffffffffffffff167f8be0079c531659141344cd1fd0a4f28419497f9722a3daafe3b4186f6b6457e060405160405180910390a350600073ffffffffffffffffffffffffffffffffffffffff168373ffffffffffffffffffffffffffffffffffffffff1614156200015a576040517f08c379a0000000000000000000000000000000000000000000000000000000008152600401620001519062000419565b60405180910390fd5b8160046040516200016b90620003eb565b908152602001604051809103902060006101000a81548173ffffffffffffffffffffffffffffffffffffffff021916908373ffffffffffffffffffffffffffffffffffffffff160217905550806004604051620001c89062000402565b908152602001604051809103902060006101000a81548173ffffffffffffffffffffffffffffffffffffffff021916908373ffffffffffffffffffffffffffffffffffffffff16021790555083600660146101000a81548160ff021916908360028111156200023357fe5b021790555082600660006101000a81548173ffffffffffffffffffffffffffffffffffffffff021916908373ffffffffffffffffffffffffffffffffffffffff16021790555050505050620004b6565b600033905090565b6000815190506200029c816200048b565b92915050565b600081519050620002b381620004a5565b92915050565b60008060008060808587031215620002d057600080fd5b6000620002e087828801620002a2565b9450506020620002f3878288016200028b565b935050604062000306878288016200028b565b925050606062000319878288016200028b565b91505092959194509250565b600062000334601e836200043b565b91507f4161766520646174612070726f76696465722063616e6e6f74206265203000006000830152602082019050919050565b6000620003766003836200044c565b91507f44414900000000000000000000000000000000000000000000000000000000006000830152600382019050919050565b6000620003b86004836200044c565b91507f55534443000000000000000000000000000000000000000000000000000000006000830152600482019050919050565b6000620003f88262000367565b9150819050919050565b60006200040f82620003a9565b9150819050919050565b60006020820190508181036000830152620004348162000325565b9050919050565b600082825260208201905092915050565b600081905092915050565b600062000464826200046b565b9050919050565b600073ffffffffffffffffffffffffffffffffffffffff82169050919050565b620004968162000457565b8114620004a257600080fd5b50565b60038110620004b357600080fd5b50565b61334780620004c66000396000f3fe608060405234801561001057600080fd5b50600436106101585760003560e01c80637b3d7efd116100c3578063d431f1311161007c578063d431f131146103eb578063d4fac45d1461041b578063eed75f6d1461044b578063f2fde38b1461047b578063f3fef3a314610497578063ff50abdc146104b357610158565b80637b3d7efd146103055780638da5cb5b146103355780639707c1c314610353578063a263605d14610383578063a7829ffa1461039f578063c1a32862146103bb57610158565b806361b8ce8c1161011557806361b8ce8c146102575780636f2ddd9314610275578063715018a61461029357806372dc69381461029d578063744ee913146102b957806375e2b5b9146102e957610158565b806305f9c5971461015d5780631f395d4e14610179578063307fc1aa146101a95780633705abf1146101d957806357baeac8146102095780635f9d4d2e14610239575b600080fd5b6101776004803603810190610172919061295d565b6104d1565b005b610193600480360381019061018e9190612619565b610a37565b6040516101a09190613004565b60405180910390f35b6101c360048036038101906101be919061295d565b610a3e565b6040516101d09190612d83565b60405180910390f35b6101f360048036038101906101ee91906128b5565b610a71565b6040516102009190612d83565b60405180910390f35b610223600480360381019061021e9190612619565b610aba565b6040516102309190613004565b60405180910390f35b610241610ac1565b60405161024e9190612eee565b60405180910390f35b61025f610ae7565b60405161026c9190613004565b60405180910390f35b61027d610aed565b60405161028a9190612f09565b60405180910390f35b61029b610b00565b005b6102b760048036038101906102b291906126f6565b610c86565b005b6102d360048036038101906102ce919061266b565b610c8b565b6040516102e09190613004565b60405180910390f35b61030360048036038101906102fe9190612781565b610c93565b005b61031f600480360381019061031a9190612619565b610c98565b60405161032c9190612ed3565b60405180910390f35b61033d610cb8565b60405161034a9190612d83565b60405180910390f35b61036d60048036038101906103689190612619565b610ce1565b60405161037a9190613004565b60405180910390f35b61039d60048036038101906103989190612619565b610ce8565b005b6103b960048036038101906103b491906128f6565b611177565b005b6103d560048036038101906103d09190612745565b61183e565b6040516103e29190612d83565b60405180910390f35b6104056004803603810190610400919061266b565b611846565b6040516104129190613004565b60405180910390f35b6104356004803603810190610430919061266b565b61186b565b6040516104429190613004565b60405180910390f35b61046560048036038101906104609190612619565b611873565b6040516104729190613004565b60405180910390f35b61049560048036038101906104909190612619565b61188b565b005b6104b160048036038101906104ac9190612745565b611a96565b005b6104bb611a9a565b6040516104c89190613004565b60405180910390f35b6001600082815260200190815260200160002060009054906101000a900473ffffffffffffffffffffffffffffffffffffffff1673ffffffffffffffffffffffffffffffffffffffff163373ffffffffffffffffffffffffffffffffffffffff1614610572576040517f08c379a000000000000000000000000000000000000000000000000000000000815260040161056990612f64565b60405180910390fd5b600260003373ffffffffffffffffffffffffffffffffffffffff1673ffffffffffffffffffffffffffffffffffffffff16815260200190815260200160002060009054906101000a900460ff166105fe576040517f08c379a00000000000000000000000000000000000000000000000000000000081526004016105f590612fc4565b60405180910390fd5b6000600660009054906101000a900473ffffffffffffffffffffffffffffffffffffffff1673ffffffffffffffffffffffffffffffffffffffff16630542975c6040518163ffffffff1660e01b815260040160206040518083038186803b15801561066857600080fd5b505afa15801561067c573d6000803e3d6000fd5b505050506040513d601f19601f820116820180604052508101906106a0919061283a565b73ffffffffffffffffffffffffffffffffffffffff1663fca513a86040518163ffffffff1660e01b815260040160206040518083038186803b1580156106e557600080fd5b505afa1580156106f9573d6000803e3d6000fd5b505050506040513d601f19601f8201168201806040525081019061071d9190612642565b90506000600660009054906101000a900473ffffffffffffffffffffffffffffffffffffffff1673ffffffffffffffffffffffffffffffffffffffff16630542975c6040518163ffffffff1660e01b815260040160206040518083038186803b15801561078957600080fd5b505afa15801561079d573d6000803e3d6000fd5b505050506040513d601f19601f820116820180604052508101906107c1919061283a565b73ffffffffffffffffffffffffffffffffffffffff16630261bf8b6040518163ffffffff1660e01b815260040160206040518083038186803b15801561080657600080fd5b505afa15801561081a573d6000803e3d6000fd5b505050506040513d601f19601f8201168201806040525081019061083e9190612642565b905060008173ffffffffffffffffffffffffffffffffffffffff1663bf92857c306040518263ffffffff1660e01b815260040161087b9190612d83565b60c06040518083038186803b15801561089357600080fd5b505afa1580156108a7573d6000803e3d6000fd5b505050506040513d601f19601f820116820180604052508101906108cb91906129af565b5050509250505060006109ab8473ffffffffffffffffffffffffffffffffffffffff1663b3596f07600460405161090190612d6e565b908152602001604051809103902060009054906101000a900473ffffffffffffffffffffffffffffffffffffffff166040518263ffffffff1660e01b815260040161094c9190612d83565b60206040518083038186803b15801561096457600080fd5b505afa158015610978573d6000803e3d6000fd5b505050506040513d601f19601f8201168201806040525081019061099c9190612986565b83611aa090919063ffffffff16565b90506109d460646109c6605084611aea90919063ffffffff16565b611aa090919063ffffffff16565b90506109f96109f4670de0b6b3a764000083611aea90919063ffffffff16565b611b70565b7f78e5a77f9f20d8d96a78ff9fbe09d607bf641315b8965893038e859f91651c7185604051610a289190613004565b60405180910390a15050505050565b6000919050565b60016020528060005260406000206000915054906101000a900473ffffffffffffffffffffffffffffffffffffffff1681565b6004818051602081018201805184825260208301602085012081835280955050505050506000915054906101000a900473ffffffffffffffffffffffffffffffffffffffff1681565b6000919050565b600660009054906101000a900473ffffffffffffffffffffffffffffffffffffffff1681565b60035481565b600660149054906101000a900460ff1681565b610b08611f4b565b73ffffffffffffffffffffffffffffffffffffffff1660008054906101000a900473ffffffffffffffffffffffffffffffffffffffff1673ffffffffffffffffffffffffffffffffffffffff1614610bc8576040517f08c379a00000000000000000000000000000000000000000000000000000000081526004018080602001828103825260208152602001807f4f776e61626c653a2063616c6c6572206973206e6f7420746865206f776e657281525060200191505060405180910390fd5b600073ffffffffffffffffffffffffffffffffffffffff1660008054906101000a900473ffffffffffffffffffffffffffffffffffffffff1673ffffffffffffffffffffffffffffffffffffffff167f8be0079c531659141344cd1fd0a4f28419497f9722a3daafe3b4186f6b6457e060405160405180910390a360008060006101000a81548173ffffffffffffffffffffffffffffffffffffffff021916908373ffffffffffffffffffffffffffffffffffffffff160217905550565b505050565b600092915050565b505050565b60026020528060005260406000206000915054906101000a900460ff1681565b60008060009054906101000a900473ffffffffffffffffffffffffffffffffffffffff16905090565b6000919050565b610cf0611f4b565b73ffffffffffffffffffffffffffffffffffffffff1660008054906101000a900473ffffffffffffffffffffffffffffffffffffffff1673ffffffffffffffffffffffffffffffffffffffff1614610db0576040517f08c379a00000000000000000000000000000000000000000000000000000000081526004018080602001828103825260208152602001807f4f776e61626c653a2063616c6c6572206973206e6f7420746865206f776e657281525060200191505060405180910390fd5b6000819050600660149054906101000a900460ff166002811115610dd057fe5b8173ffffffffffffffffffffffffffffffffffffffff16636f2ddd936040518163ffffffff1660e01b815260040160206040518083038186803b158015610e1657600080fd5b505afa158015610e2a573d6000803e3d6000fd5b505050506040513d601f19601f82011682018060405250810190610e4e919061288c565b6002811115610e5957fe5b14610e99576040517f08c379a0000000000000000000000000000000000000000000000000000000008152600401610e9090612fe4565b60405180910390fd5b3073ffffffffffffffffffffffffffffffffffffffff168173ffffffffffffffffffffffffffffffffffffffff16634162169f6040518163ffffffff1660e01b815260040160206040518083038186803b158015610ef657600080fd5b505afa158015610f0a573d6000803e3d6000fd5b505050506040513d601f19601f82011682018060405250810190610f2e9190612863565b73ffffffffffffffffffffffffffffffffffffffff1614610f84576040517f08c379a0000000000000000000000000000000000000000000000000000000008152600401610f7b90612f24565b60405180910390fd5b8160016000600354815260200190815260200160002060006101000a81548173ffffffffffffffffffffffffffffffffffffffff021916908373ffffffffffffffffffffffffffffffffffffffff1602179055506001600260008473ffffffffffffffffffffffffffffffffffffffff1673ffffffffffffffffffffffffffffffffffffffff16815260200190815260200160002060006101000a81548160ff0219169083151502179055508073ffffffffffffffffffffffffffffffffffffffff1663d0e0ba956003546040518263ffffffff1660e01b815260040161106b9190613004565b600060405180830381600087803b15801561108557600080fd5b505af1158015611099573d6000803e3d6000fd5b505050507f720f042cfe589c4e7d9ece472897915730fb34a553dfd956cd4c9b0cee536a2f828273ffffffffffffffffffffffffffffffffffffffff1663dc1fb5a56040518163ffffffff1660e01b815260040160206040518083038186803b15801561110557600080fd5b505afa158015611119573d6000803e3d6000fd5b505050506040513d601f19601f8201168201806040525081019061113d9190612642565b60035460405161114f93929190612e2e565b60405180910390a161116d6001600354611f5390919063ffffffff16565b6003819055505050565b6000600354116111bc576040517f08c379a00000000000000000000000000000000000000000000000000000000081526004016111b390612f44565b60405180910390fd5b60006004846040516111ce9190612d57565b908152602001604051809103902060009054906101000a900473ffffffffffffffffffffffffffffffffffffffff169050600073ffffffffffffffffffffffffffffffffffffffff168173ffffffffffffffffffffffffffffffffffffffff16141561126f576040517f08c379a000000000000000000000000000000000000000000000000000000000815260040161126690612f84565b60405180910390fd5b60008190506000611291670de0b6b3a764000086611aea90919063ffffffff16565b9050808273ffffffffffffffffffffffffffffffffffffffff166370a082316112b8611f4b565b6040518263ffffffff1660e01b81526004016112d49190612d9e565b60206040518083038186803b1580156112ec57600080fd5b505afa158015611300573d6000803e3d6000fd5b505050506040513d601f19601f820116820180604052508101906113249190612986565b1015611365576040517f08c379a000000000000000000000000000000000000000000000000000000000815260040161135c90612fa4565b60405180910390fd5b6000600660009054906101000a900473ffffffffffffffffffffffffffffffffffffffff1673ffffffffffffffffffffffffffffffffffffffff16630542975c6040518163ffffffff1660e01b815260040160206040518083038186803b1580156113cf57600080fd5b505afa1580156113e3573d6000803e3d6000fd5b505050506040513d601f19601f82011682018060405250810190611407919061283a565b73ffffffffffffffffffffffffffffffffffffffff16630261bf8b6040518163ffffffff1660e01b815260040160206040518083038186803b15801561144c57600080fd5b505afa158015611460573d6000803e3d6000fd5b505050506040513d601f19601f820116820180604052508101906114849190612642565b90508273ffffffffffffffffffffffffffffffffffffffff166323b872dd3330856040518463ffffffff1660e01b81526004016114c393929190612db9565b602060405180830381600087803b1580156114dd57600080fd5b505af11580156114f1573d6000803e3d6000fd5b505050506040513d601f19601f820116820180604052508101906115159190612811565b508273ffffffffffffffffffffffffffffffffffffffff1663095ea7b382846040518363ffffffff1660e01b8152600401611551929190612e65565b602060405180830381600087803b15801561156b57600080fd5b505af115801561157f573d6000803e3d6000fd5b505050506040513d601f19601f820116820180604052508101906115a39190612811565b508073ffffffffffffffffffffffffffffffffffffffff1663e8eda9df85843060006040518563ffffffff1660e01b81526004016115e49493929190612e8e565b600060405180830381600087803b1580156115fe57600080fd5b505af1158015611612573d6000803e3d6000fd5b505050506116ca61163f60646116318886611aea90919063ffffffff16565b611aa090919063ffffffff16565b600560003373ffffffffffffffffffffffffffffffffffffffff1673ffffffffffffffffffffffffffffffffffffffff16815260200190815260200160002060008773ffffffffffffffffffffffffffffffffffffffff1673ffffffffffffffffffffffffffffffffffffffff16815260200190815260200160002054611f5390919063ffffffff16565b600560003373ffffffffffffffffffffffffffffffffffffffff1673ffffffffffffffffffffffffffffffffffffffff16815260200190815260200160002060008673ffffffffffffffffffffffffffffffffffffffff1673ffffffffffffffffffffffffffffffffffffffff1681526020019081526020016000208190555061179c82600760003373ffffffffffffffffffffffffffffffffffffffff1673ffffffffffffffffffffffffffffffffffffffff16815260200190815260200160002054611f5390919063ffffffff16565b600760003373ffffffffffffffffffffffffffffffffffffffff1673ffffffffffffffffffffffffffffffffffffffff168152602001908152602001600020819055506117f482600854611f5390919063ffffffff16565b6008819055507ffd4bdef056842e4615d2a093647094c0b9bf67c63662d614d63fefd617e0add233888860405161182d93929190612df0565b60405180910390a150505050505050565b600092915050565b6005602052816000526040600020602052806000526040600020600091509150505481565b600092915050565b60076020528060005260406000206000915090505481565b611893611f4b565b73ffffffffffffffffffffffffffffffffffffffff1660008054906101000a900473ffffffffffffffffffffffffffffffffffffffff1673ffffffffffffffffffffffffffffffffffffffff1614611953576040517f08c379a00000000000000000000000000000000000000000000000000000000081526004018080602001828103825260208152602001807f4f776e61626c653a2063616c6c6572206973206e6f7420746865206f776e657281525060200191505060405180910390fd5b600073ffffffffffffffffffffffffffffffffffffffff168173ffffffffffffffffffffffffffffffffffffffff1614156119d9576040517f08c379a00000000000000000000000000000000000000000000000000000000081526004018080602001828103825260268152602001806132cb6026913960400191505060405180910390fd5b8073ffffffffffffffffffffffffffffffffffffffff1660008054906101000a900473ffffffffffffffffffffffffffffffffffffffff1673ffffffffffffffffffffffffffffffffffffffff167f8be0079c531659141344cd1fd0a4f28419497f9722a3daafe3b4186f6b6457e060405160405180910390a3806000806101000a81548173ffffffffffffffffffffffffffffffffffffffff021916908373ffffffffffffffffffffffffffffffffffffffff16021790555050565b5050565b60085481565b6000611ae283836040518060400160405280601a81526020017f536166654d6174683a206469766973696f6e206279207a65726f000000000000815250611fdb565b905092915050565b600080831415611afd5760009050611b6a565b6000828402905082848281611b0e57fe5b0414611b65576040517f08c379a00000000000000000000000000000000000000000000000000000000081526004018080602001828103825260218152602001806132f16021913960400191505060405180910390fd5b809150505b92915050565b600080606060035467ffffffffffffffff81118015611b8e57600080fd5b50604051908082528060200260200182016040528015611bbd5781602001602082028036833780820191505090505b509050606060035467ffffffffffffffff81118015611bdb57600080fd5b50604051908082528060200260200182016040528015611c0a5781602001602082028036833780820191505090505b50905060008060005b600354811015611e3e576000848281518110611c2b57fe5b6020026020010190151590811515815250506001600082815260200190815260200160002060009054906101000a900473ffffffffffffffffffffffffffffffffffffffff169550600260008773ffffffffffffffffffffffffffffffffffffffff1673ffffffffffffffffffffffffffffffffffffffff16815260200190815260200160002060009054906101000a900460ff1615611e31578573ffffffffffffffffffffffffffffffffffffffff1663eaad31e16040518163ffffffff1660e01b815260040160206040518083038186803b158015611d0b57600080fd5b505afa158015611d1f573d6000803e3d6000fd5b505050506040513d601f19601f82011682018060405250810190611d439190612986565b96506000871115611e3057611dd98673ffffffffffffffffffffffffffffffffffffffff166337f3061d6040518163ffffffff1660e01b815260040160006040518083038186803b158015611d9757600080fd5b505afa158015611dab573d6000803e3d6000fd5b505050506040513d6000823e3d601f19601f82011682018060405250810190611dd491906127d0565b6120a1565b858381518110611de557fe5b6020026020010181815250508180600101925050611e0d600184611f5390919063ffffffff16565b92506001848281518110611e1d57fe5b6020026020010190151590811515815250505b5b8080600101915050611c13565b506060611e4b858461210d565b90506060611e5989836121ca565b90506000925060005b600354811015611f3f57858181518110611e7857fe5b602002602001015115611f3257611f296001600083815260200190815260200160002060009054906101000a900473ffffffffffffffffffffffffffffffffffffffff166004604051611eca90612d6e565b908152602001604051809103902060009054906101000a900473ffffffffffffffffffffffffffffffffffffffff16611f2464e8d4a51000868981518110611f0e57fe5b6020026020010151611aa090919063ffffffff16565b612295565b83806001019450505b8080600101915050611e62565b50505050505050505050565b600033905090565b600080828401905083811015611fd1576040517f08c379a000000000000000000000000000000000000000000000000000000000815260040180806020018281038252601b8152602001807f536166654d6174683a206164646974696f6e206f766572666c6f77000000000081525060200191505060405180910390fd5b8091505092915050565b60008083118290612087576040517f08c379a00000000000000000000000000000000000000000000000000000000081526004018080602001828103825283818151815260200191508051906020019080838360005b8381101561204c578082015181840152602081019050612031565b50505050905090810190601f1680156120795780820380516001836020036101000a031916815260200191505b509250505060405180910390fd5b50600083858161209357fe5b049050809150509392505050565b6000806000905060005b83518110156120f1576120e26120d38583815181106120c657fe5b60200260200101516123b9565b83611f5390919063ffffffff16565b915080806001019150506120ab565b506121058182611aea90919063ffffffff16565b915050919050565b6060600061211b848461241b565b905060608367ffffffffffffffff8111801561213657600080fd5b506040519080825280602002602001820160405280156121655781602001602082028036833780820191505090505b50905060005b848110156121be576121998387838151811061218357fe5b6020026020010151611aa090919063ffffffff16565b8282815181106121a557fe5b602002602001018181525050808060010191505061216b565b50809250505092915050565b606060006121e4620f424085611aa090919063ffffffff16565b90506060835167ffffffffffffffff8111801561220057600080fd5b5060405190808252806020026020018201604052801561222f5781602001602082028036833780820191505090505b50905060005b84518110156122895761226485828151811061224d57fe5b602002602001015184611aea90919063ffffffff16565b82828151811061227057fe5b6020026020010181815250508080600101915050612235565b50809250505092915050565b6000600660009054906101000a900473ffffffffffffffffffffffffffffffffffffffff1673ffffffffffffffffffffffffffffffffffffffff1663d2493b6c846040518263ffffffff1660e01b81526004016122f29190612d83565b60606040518083038186803b15801561230a57600080fd5b505afa15801561231e573d6000803e3d6000fd5b505050506040513d601f19601f8201168201806040525081019061234291906126a7565b509150508073ffffffffffffffffffffffffffffffffffffffff1663c04a8a1085846040518363ffffffff1660e01b8152600401612381929190612e65565b600060405180830381600087803b15801561239b57600080fd5b505af11580156123af573d6000803e3d6000fd5b5050505050505050565b600060038211156124085781905060006001600284816123d557fe5b040190505b81811015612402578091506002818285816123f157fe5b0401816123fa57fe5b0490506123da565b50612416565b6000821461241557600190505b5b919050565b6000806000905060005b838110156124625761245385828151811061243c57fe5b602002602001015183611f5390919063ffffffff16565b91508080600101915050612425565b50612479620f424082611aa090919063ffffffff16565b90508091505092915050565b60008135905061249481613247565b92915050565b6000815190506124a981613247565b92915050565b600082601f8301126124c057600080fd5b81516124d36124ce82613050565b61301f565b915081818352602084019350602081019050838560208402820111156124f857600080fd5b60005b83811015612528578161250e8882612604565b8452602084019350602083019250506001810190506124fb565b5050505092915050565b6000813590506125418161325e565b92915050565b6000815190506125568161325e565b92915050565b60008151905061256b81613275565b92915050565b6000815190506125808161328c565b92915050565b600081519050612595816132a3565b92915050565b600082601f8301126125ac57600080fd5b81356125bf6125ba8261307c565b61301f565b915080825260208301602083018583830111156125db57600080fd5b6125e68382846131de565b50505092915050565b6000813590506125fe816132b3565b92915050565b600081519050612613816132b3565b92915050565b60006020828403121561262b57600080fd5b600061263984828501612485565b91505092915050565b60006020828403121561265457600080fd5b60006126628482850161249a565b91505092915050565b6000806040838503121561267e57600080fd5b600061268c85828601612485565b925050602061269d85828601612485565b9150509250929050565b6000806000606084860312156126bc57600080fd5b60006126ca8682870161249a565b93505060206126db8682870161249a565b92505060406126ec8682870161249a565b9150509250925092565b60008060006060848603121561270b57600080fd5b600061271986828701612485565b935050602061272a86828701612485565b925050604061273b86828701612532565b9150509250925092565b6000806040838503121561275857600080fd5b600061276685828601612485565b9250506020612777858286016125ef565b9150509250929050565b60008060006060848603121561279657600080fd5b60006127a486828701612485565b93505060206127b5868287016125ef565b92505060406127c686828701612485565b9150509250925092565b6000602082840312156127e257600080fd5b600082015167ffffffffffffffff8111156127fc57600080fd5b612808848285016124af565b91505092915050565b60006020828403121561282357600080fd5b600061283184828501612547565b91505092915050565b60006020828403121561284c57600080fd5b600061285a8482850161255c565b91505092915050565b60006020828403121561287557600080fd5b600061288384828501612571565b91505092915050565b60006020828403121561289e57600080fd5b60006128ac84828501612586565b91505092915050565b6000602082840312156128c757600080fd5b600082013567ffffffffffffffff8111156128e157600080fd5b6128ed8482850161259b565b91505092915050565b60008060006060848603121561290b57600080fd5b600084013567ffffffffffffffff81111561292557600080fd5b6129318682870161259b565b9350506020612942868287016125ef565b9250506040612953868287016125ef565b9150509250925092565b60006020828403121561296f57600080fd5b600061297d848285016125ef565b91505092915050565b60006020828403121561299857600080fd5b60006129a684828501612604565b91505092915050565b60008060008060008060c087890312156129c857600080fd5b60006129d689828a01612604565b96505060206129e789828a01612604565b95505060406129f889828a01612604565b9450506060612a0989828a01612604565b9350506080612a1a89828a01612604565b92505060a0612a2b89828a01612604565b9150509295509295509295565b612a4181613160565b82525050565b612a50816130d3565b82525050565b612a5f816130e5565b82525050565b612a6e81613172565b82525050565b612a7d81613196565b82525050565b612a8c816131a8565b82525050565b6000612a9d826130ac565b612aa781856130b7565b9350612ab78185602086016131ed565b612ac081613222565b840191505092915050565b6000612ad6826130ac565b612ae081856130c8565b9350612af08185602086016131ed565b80840191505092915050565b6000612b09600c836130b7565b91507f64616f206d69736d6174636800000000000000000000000000000000000000006000830152602082019050919050565b6000612b496019836130b7565b91507f6e6f20636f6d6d756e79207472656173757279206164646564000000000000006000830152602082019050919050565b6000612b896008836130b7565b91507f77726f6e672069640000000000000000000000000000000000000000000000006000830152602082019050919050565b6000612bc96039836130b7565b91507f5468652063757272656e63792070617373656420617320616e20617267756d6560008301527f6e74206973206e6f7420656e61626c65642c20736f72727921000000000000006020830152604082019050919050565b6000612c2f6026836130b7565b91507f596f7520646f6e2774206861766520656e6f7567682066756e647320746f206960008301527f6e766573742e00000000000000000000000000000000000000000000000000006020830152604082019050919050565b6000612c956016836130b7565b91507f7472656173757279206973206e6f7420616374697665000000000000000000006000830152602082019050919050565b6000612cd56004836130c8565b91507f55534443000000000000000000000000000000000000000000000000000000006000830152600482019050919050565b6000612d156011836130b7565b91507f74656d706c617465206d69736d617463680000000000000000000000000000006000830152602082019050919050565b612d5181613156565b82525050565b6000612d638284612acb565b915081905092915050565b6000612d7982612cc8565b9150819050919050565b6000602082019050612d986000830184612a47565b92915050565b6000602082019050612db36000830184612a38565b92915050565b6000606082019050612dce6000830186612a38565b612ddb6020830185612a47565b612de86040830184612d48565b949350505050565b6000606082019050612e056000830186612a38565b8181036020830152612e178185612a92565b9050612e266040830184612d48565b949350505050565b6000606082019050612e436000830186612a47565b612e506020830185612a47565b612e5d6040830184612d48565b949350505050565b6000604082019050612e7a6000830185612a47565b612e876020830184612d48565b9392505050565b6000608082019050612ea36000830187612a47565b612eb06020830186612d48565b612ebd6040830185612a47565b612eca6060830184612a83565b95945050505050565b6000602082019050612ee86000830184612a56565b92915050565b6000602082019050612f036000830184612a65565b92915050565b6000602082019050612f1e6000830184612a74565b92915050565b60006020820190508181036000830152612f3d81612afc565b9050919050565b60006020820190508181036000830152612f5d81612b3c565b9050919050565b60006020820190508181036000830152612f7d81612b7c565b9050919050565b60006020820190508181036000830152612f9d81612bbc565b9050919050565b60006020820190508181036000830152612fbd81612c22565b9050919050565b60006020820190508181036000830152612fdd81612c88565b9050919050565b60006020820190508181036000830152612ffd81612d08565b9050919050565b60006020820190506130196000830184612d48565b92915050565b6000604051905081810181811067ffffffffffffffff8211171561304657613045613220565b5b8060405250919050565b600067ffffffffffffffff82111561306b5761306a613220565b5b602082029050602081019050919050565b600067ffffffffffffffff82111561309757613096613220565b5b601f19601f8301169050602081019050919050565b600081519050919050565b600082825260208201905092915050565b600081905092915050565b60006130de82613136565b9050919050565b60008115159050919050565b60006130fc826130d3565b9050919050565b600061310e826130d3565b9050919050565b600081905061312382613233565b919050565b600061ffff82169050919050565b600073ffffffffffffffffffffffffffffffffffffffff82169050919050565b6000819050919050565b600061316b826131ba565b9050919050565b600061317d82613184565b9050919050565b600061318f82613136565b9050919050565b60006131a182613115565b9050919050565b60006131b382613128565b9050919050565b60006131c5826131cc565b9050919050565b60006131d782613136565b9050919050565b82818337600083830152505050565b60005b8381101561320b5780820151818401526020810190506131f0565b8381111561321a576000848401525b50505050565bfe5b6000601f19601f8301169050919050565b6003811061324457613243613220565b5b50565b613250816130d3565b811461325b57600080fd5b50565b613267816130e5565b811461327257600080fd5b50565b61327e816130f1565b811461328957600080fd5b50565b61329581613103565b81146132a057600080fd5b50565b600381106132b057600080fd5b50565b6132bc81613156565b81146132c757600080fd5b5056fe4f776e61626c653a206e6577206f776e657220697320746865207a65726f2061646472657373536166654d6174683a206d756c7469706c69636174696f6e206f766572666c6f77a264697066735822122049ee73acdf9654f0536f1bb8aa51c92f87f51804ebb09a7cc5ccc14118e683bd64736f6c63430007040033",
  "linkReferences": {},
  "deployedLinkReferences": {}
}