{
  "_format": "hh-sol-artifact-1",
  "contractName": "Community",
  "sourceName": "contracts/Community.sol",
  "abi": [
    {
      "inputs": [
        {
          "internalType": "enum DataTypes.CommunityTemplate",
          "name": "_template",
          "type": "uint8"
        },
        {
          "internalType": "address",
          "name": "_dai",
          "type": "address"
        },
        {
          "internalType": "address",
          "name": "_usdc",
          "type": "address"
        },
        {
          "internalType": "address",
          "name": "_lendingPoolAP",
          "type": "address"
        },
        {
          "internalType": "address",
          "name": "_forwarder",
          "type": "address"
        }
      ],
      "stateMutability": "nonpayable",
      "type": "constructor"
    },
    {
      "anonymous": false,
      "inputs": [
        {
          "indexed": false,
          "internalType": "uint256",
          "name": "_id",
          "type": "uint256"
        }
      ],
      "name": "IdSet",
      "type": "event"
    },
    {
      "anonymous": false,
      "inputs": [
        {
          "indexed": false,
          "internalType": "address",
          "name": "_member",
          "type": "address"
        },
        {
          "indexed": false,
          "internalType": "uint256",
          "name": "_transferredTokens",
          "type": "uint256"
        }
      ],
      "name": "MemberAdded",
      "type": "event"
    },
    {
      "anonymous": false,
      "inputs": [
        {
          "indexed": false,
          "internalType": "address",
          "name": "_member",
          "type": "address"
        }
      ],
      "name": "MemberRemoved",
      "type": "event"
    },
    {
      "anonymous": false,
      "inputs": [
        {
          "indexed": true,
          "internalType": "address",
          "name": "previousOwner",
          "type": "address"
        },
        {
          "indexed": true,
          "internalType": "address",
          "name": "newOwner",
          "type": "address"
        }
      ],
      "name": "OwnershipTransferred",
      "type": "event"
    },
    {
      "anonymous": false,
      "inputs": [
        {
          "indexed": false,
          "internalType": "address",
          "name": "_treasury",
          "type": "address"
        }
      ],
      "name": "TreasurySet",
      "type": "event"
    },
    {
      "inputs": [],
      "name": "INIT_TOKENS",
      "outputs": [
        {
          "internalType": "uint256",
          "name": "",
          "type": "uint256"
        }
      ],
      "stateMutability": "view",
      "type": "function"
    },
    {
      "inputs": [],
      "name": "activateTreasuryTimelock",
      "outputs": [],
      "stateMutability": "nonpayable",
      "type": "function"
    },
    {
      "inputs": [],
      "name": "communityTreasury",
      "outputs": [
        {
          "internalType": "contract CommunityTreasury",
          "name": "",
          "type": "address"
        }
      ],
      "stateMutability": "view",
      "type": "function"
    },
    {
      "inputs": [
        {
          "internalType": "uint256",
          "name": "_amount",
          "type": "uint256"
        },
        {
          "internalType": "address",
          "name": "_project",
          "type": "address"
        }
      ],
      "name": "completeGig",
      "outputs": [],
      "stateMutability": "nonpayable",
      "type": "function"
    },
    {
      "inputs": [
        {
          "internalType": "string",
          "name": "_communityId",
          "type": "string"
        },
        {
          "internalType": "address",
          "name": "_oracle",
          "type": "address"
        }
      ],
      "name": "createGigsRegistry",
      "outputs": [],
      "stateMutability": "nonpayable",
      "type": "function"
    },
    {
      "inputs": [
        {
          "internalType": "uint256",
          "name": "",
          "type": "uint256"
        }
      ],
      "name": "depositableCurrencies",
      "outputs": [
        {
          "internalType": "string",
          "name": "",
          "type": "string"
        }
      ],
      "stateMutability": "view",
      "type": "function"
    },
    {
      "inputs": [
        {
          "internalType": "string",
          "name": "",
          "type": "string"
        }
      ],
      "name": "depositableCurrenciesContracts",
      "outputs": [
        {
          "internalType": "address",
          "name": "",
          "type": "address"
        }
      ],
      "stateMutability": "view",
      "type": "function"
    },
    {
      "inputs": [
        {
          "internalType": "address",
          "name": "",
          "type": "address"
        }
      ],
      "name": "enabledMembers",
      "outputs": [
        {
          "internalType": "bool",
          "name": "",
          "type": "bool"
        }
      ],
      "stateMutability": "view",
      "type": "function"
    },
    {
      "inputs": [],
      "name": "gigsRegistry",
      "outputs": [
        {
          "internalType": "contract GigsRegistry",
          "name": "",
          "type": "address"
        }
      ],
      "stateMutability": "view",
      "type": "function"
    },
    {
      "inputs": [],
      "name": "id",
      "outputs": [
        {
          "internalType": "uint256",
          "name": "",
          "type": "uint256"
        }
      ],
      "stateMutability": "view",
      "type": "function"
    },
    {
      "inputs": [
        {
          "internalType": "address",
          "name": "forwarder",
          "type": "address"
        }
      ],
      "name": "isTrustedForwarder",
      "outputs": [
        {
          "internalType": "bool",
          "name": "",
          "type": "bool"
        }
      ],
      "stateMutability": "view",
      "type": "function"
    },
    {
      "inputs": [
        {
          "internalType": "uint256",
          "name": "_amountOfDITOToRedeem",
          "type": "uint256"
        }
      ],
      "name": "join",
      "outputs": [],
      "stateMutability": "nonpayable",
      "type": "function"
    },
    {
      "inputs": [],
      "name": "leave",
      "outputs": [],
      "stateMutability": "nonpayable",
      "type": "function"
    },
    {
      "inputs": [],
      "name": "lendingPoolAP",
      "outputs": [
        {
          "internalType": "contract ILendingPoolAddressesProvider",
          "name": "",
          "type": "address"
        }
      ],
      "stateMutability": "view",
      "type": "function"
    },
    {
      "inputs": [],
      "name": "numberOfMembers",
      "outputs": [
        {
          "internalType": "uint256",
          "name": "",
          "type": "uint256"
        }
      ],
      "stateMutability": "view",
      "type": "function"
    },
    {
      "inputs": [],
      "name": "owner",
      "outputs": [
        {
          "internalType": "address",
          "name": "",
          "type": "address"
        }
      ],
      "stateMutability": "view",
      "type": "function"
    },
    {
      "inputs": [],
      "name": "renounceOwnership",
      "outputs": [],
      "stateMutability": "nonpayable",
      "type": "function"
    },
    {
      "inputs": [
        {
          "internalType": "uint256",
          "name": "_id",
          "type": "uint256"
        }
      ],
      "name": "setId",
      "outputs": [],
      "stateMutability": "nonpayable",
      "type": "function"
    },
    {
      "inputs": [
        {
          "internalType": "address",
          "name": "_dao",
          "type": "address"
        }
      ],
      "name": "setTreasuryDAO",
      "outputs": [],
      "stateMutability": "nonpayable",
      "type": "function"
    },
    {
      "inputs": [],
      "name": "template",
      "outputs": [
        {
          "internalType": "enum DataTypes.CommunityTemplate",
          "name": "",
          "type": "uint8"
        }
      ],
      "stateMutability": "view",
      "type": "function"
    },
    {
      "inputs": [],
      "name": "tokens",
      "outputs": [
        {
          "internalType": "contract DITOToken",
          "name": "",
          "type": "address"
        }
      ],
      "stateMutability": "view",
      "type": "function"
    },
    {
      "inputs": [
        {
          "internalType": "address",
          "name": "newOwner",
          "type": "address"
        }
      ],
      "name": "transferOwnership",
      "outputs": [],
      "stateMutability": "nonpayable",
      "type": "function"
    },
    {
      "inputs": [],
      "name": "trustedForwarder",
      "outputs": [
        {
          "internalType": "address",
          "name": "",
          "type": "address"
        }
      ],
      "stateMutability": "view",
      "type": "function"
    },
    {
      "inputs": [],
      "name": "versionRecipient",
      "outputs": [
        {
          "internalType": "string",
          "name": "",
          "type": "string"
        }
      ],
      "stateMutability": "view",
      "type": "function"
    }
  ],
  "bytecode": "0x60806040526040518060400160405280600581526020017f322e302e30000000000000000000000000000000000000000000000000000000815250600290805190602001906200005192919062000b11565b503480156200005f57600080fd5b506040516200c0ed3803806200c0ed833981810160405281019062000085919062000c54565b600062000097620005a860201b60201c565b905080600160006101000a81548173ffffffffffffffffffffffffffffffffffffffff021916908373ffffffffffffffffffffffffffffffffffffffff1602179055508073ffffffffffffffffffffffffffffffffffffffff16600073ffffffffffffffffffffffffffffffffffffffff167f8be0079c531659141344cd1fd0a4f28419497f9722a3daafe3b4186f6b6457e060405160405180910390a3506000600560006101000a81548160ff02191690831515021790555084600560016101000a81548160ff021916908360028111156200017057fe5b0217905550806000806101000a81548173ffffffffffffffffffffffffffffffffffffffff021916908373ffffffffffffffffffffffffffffffffffffffff16021790555081600c60006101000a81548173ffffffffffffffffffffffffffffffffffffffff021916908373ffffffffffffffffffffffffffffffffffffffff1602179055506200021b670de0b6b3a764000062017700620005c460201b620013ea1790919060201c565b604051620002299062000ba8565b62000235919062000fd0565b604051809103906000f08015801562000252573d6000803e3d6000fd5b50600360006101000a81548173ffffffffffffffffffffffffffffffffffffffff021916908373ffffffffffffffffffffffffffffffffffffffff160217905550600560019054906101000a900460ff16600360009054906101000a900473ffffffffffffffffffffffffffffffffffffffff1633868686604051620002d89062000bb6565b620002e99695949392919062000efd565b604051809103906000f08015801562000306573d6000803e3d6000fd5b50600a60006101000a81548173ffffffffffffffffffffffffffffffffffffffff021916908373ffffffffffffffffffffffffffffffffffffffff1602179055506200037f600a60009054906101000a900473ffffffffffffffffffffffffffffffffffffffff166107d060016200064f60201b60201c565b600a60009054906101000a900473ffffffffffffffffffffffffffffffffffffffff1673ffffffffffffffffffffffffffffffffffffffff166346f98fec6040518163ffffffff1660e01b8152600401600060405180830381600087803b158015620003ea57600080fd5b505af1158015620003ff573d6000803e3d6000fd5b50505050600980600181540180825580915050600190039060005260206000200160006040518060400160405280600381526020017f4441490000000000000000000000000000000000000000000000000000000000815250909190915090805190602001906200047292919062000b11565b50600980600181540180825580915050600190039060005260206000200160006040518060400160405280600481526020017f555344430000000000000000000000000000000000000000000000000000000081525090919091509080519060200190620004e292919062000b11565b50836008604051620004f49062000e75565b908152602001604051809103902060006101000a81548173ffffffffffffffffffffffffffffffffffffffff021916908373ffffffffffffffffffffffffffffffffffffffff160217905550826008604051620005519062000e8c565b908152602001604051809103902060006101000a81548173ffffffffffffffffffffffffffffffffffffffff021916908373ffffffffffffffffffffffffffffffffffffffff160217905550505050505062001116565b6000620005bf620009e760201b620014751760201c565b905090565b600080831415620005d9576000905062000649565b6000828402905082848281620005eb57fe5b041462000644576040517f08c379a00000000000000000000000000000000000000000000000000000000081526004018080602001828103825260218152602001806200c0cc6021913960400191505060405180910390fd5b809150505b92915050565b600073ffffffffffffffffffffffffffffffffffffffff16600a60009054906101000a900473ffffffffffffffffffffffffffffffffffffffff1673ffffffffffffffffffffffffffffffffffffffff161415620006e4576040517f08c379a0000000000000000000000000000000000000000000000000000000008152600401620006db9062000f6a565b60405180910390fd5b6019600754106200072c576040517f08c379a0000000000000000000000000000000000000000000000000000000008152600401620007239062000fae565b60405180910390fd5b60001515600660008573ffffffffffffffffffffffffffffffffffffffff1673ffffffffffffffffffffffffffffffffffffffff16815260200190815260200160002060009054906101000a900460ff16151514620007c2576040517f08c379a0000000000000000000000000000000000000000000000000000000008152600401620007b99062000f8c565b60405180910390fd5b6001600660008573ffffffffffffffffffffffffffffffffffffffff1673ffffffffffffffffffffffffffffffffffffffff16815260200190815260200160002060006101000a81548160ff02191690831515021790555062000837600160075462000a2f60201b620014b71790919060201c565b600781905550600360009054906101000a900473ffffffffffffffffffffffffffffffffffffffff1673ffffffffffffffffffffffffffffffffffffffff1663bc93233f84836040518363ffffffff1660e01b81526004016200089c92919062000ea3565b600060405180830381600087803b158015620008b757600080fd5b505af1158015620008cc573d6000803e3d6000fd5b50505050600360009054906101000a900473ffffffffffffffffffffffffffffffffffffffff1673ffffffffffffffffffffffffffffffffffffffff1663a9059cbb8462000931670de0b6b3a764000086620005c460201b620013ea1790919060201c565b6040518363ffffffff1660e01b81526004016200095092919062000ed0565b602060405180830381600087803b1580156200096b57600080fd5b505af115801562000980573d6000803e3d6000fd5b505050506040513d601f19601f82011682018060405250810190620009a6919062000c28565b507fede8eed4383e9241982619b94dd83e488b274cced0fd07b8c0092a393defd52f8383604051620009da92919062000ed0565b60405180910390a1505050565b6000601860003690501015801562000a0c575062000a0b3362000ab860201b60201c565b5b1562000a2257601436033560601c905062000a2b565b33905062000a2c565b5b90565b60008082840190508381101562000aae576040517f08c379a000000000000000000000000000000000000000000000000000000000815260040180806020018281038252601b8152602001807f536166654d6174683a206164646974696f6e206f766572666c6f77000000000081525060200191505060405180910390fd5b8091505092915050565b60008060009054906101000a900473ffffffffffffffffffffffffffffffffffffffff1673ffffffffffffffffffffffffffffffffffffffff168273ffffffffffffffffffffffffffffffffffffffff16149050919050565b828054600181600116156101000203166002900490600052602060002090601f01602090048101928262000b49576000855562000b95565b82601f1062000b6457805160ff191683800117855562000b95565b8280016001018555821562000b95579182015b8281111562000b9457825182559160200191906001019062000b77565b5b50905062000ba4919062000bc4565b5090565b612a908062005a5d83390190565b613bdf80620084ed83390190565b5b8082111562000bdf57600081600090555060010162000bc5565b5090565b60008151905062000bf481620010d1565b92915050565b60008151905062000c0b81620010eb565b92915050565b60008151905062000c228162001105565b92915050565b60006020828403121562000c3b57600080fd5b600062000c4b8482850162000bfa565b91505092915050565b600080600080600060a0868803121562000c6d57600080fd5b600062000c7d8882890162000c11565b955050602062000c908882890162000be3565b945050604062000ca38882890162000be3565b935050606062000cb68882890162000be3565b925050608062000cc98882890162000be3565b9150509295509295909350565b62000ce18162001068565b82525050565b62000cf28162001009565b82525050565b62000d03816200101d565b82525050565b62000d14816200107c565b82525050565b600062000d2960108362000fed565b91507f7472656173757279206e6f7420736574000000000000000000000000000000006000830152602082019050919050565b600062000d6b600e8362000fed565b91507f616c7265616479206d656d6265720000000000000000000000000000000000006000830152602082019050919050565b600062000dad60038362000ffe565b91507f44414900000000000000000000000000000000000000000000000000000000006000830152600382019050919050565b600062000def600e8362000fed565b91507f636f6d6d756e6974792066756c6c0000000000000000000000000000000000006000830152602082019050919050565b600062000e3160048362000ffe565b91507f55534443000000000000000000000000000000000000000000000000000000006000830152600482019050919050565b62000e6f816200105e565b82525050565b600062000e828262000d9e565b9150819050919050565b600062000e998262000e22565b9150819050919050565b600060408201905062000eba600083018562000ce7565b62000ec9602083018462000cf8565b9392505050565b600060408201905062000ee7600083018562000ce7565b62000ef6602083018462000e64565b9392505050565b600060c08201905062000f14600083018962000d09565b62000f23602083018862000ce7565b62000f32604083018762000cd6565b62000f41606083018662000ce7565b62000f50608083018562000ce7565b62000f5f60a083018462000ce7565b979650505050505050565b6000602082019050818103600083015262000f858162000d1a565b9050919050565b6000602082019050818103600083015262000fa78162000d5c565b9050919050565b6000602082019050818103600083015262000fc98162000de0565b9050919050565b600060208201905062000fe7600083018462000e64565b92915050565b600082825260208201905092915050565b600081905092915050565b600062001016826200103e565b9050919050565b60008115159050919050565b60008190506200103982620010ba565b919050565b600073ffffffffffffffffffffffffffffffffffffffff82169050919050565b6000819050919050565b6000620010758262001090565b9050919050565b6000620010898262001029565b9050919050565b60006200109d82620010a4565b9050919050565b6000620010b1826200103e565b9050919050565bfe5b60038110620010ce57620010cd620010b8565b5b50565b620010dc8162001009565b8114620010e857600080fd5b50565b620010f6816200101d565b81146200110257600080fd5b50565b600381106200111357600080fd5b50565b61493780620011266000396000f3fe60806040523480156200001157600080fd5b5060043610620001785760003560e01c80637da0a87711620000d5578063af640d0f1162000087578063af640d0f14620003eb578063bc910cf9146200040d578063cecfd170146200042d578063d0e0ba951462000463578063d66d9e191462000483578063f2fde38b146200048f5762000178565b80637da0a87714620003215780638da5cb5b14620003435780639250640d14620003655780639d63848a1462000387578063a30e3fa914620003a9578063a46eddcf14620003cb5762000178565b8063572b6c05116200012f578063572b6c05146200025957806358c12dbe146200028f5780636f2ddd9314620002b1578063715018a614620002d35780637387b63514620002df578063770ac14114620003155762000178565b8063049878f3146200017d5780632880735b146200019d5780633705abf114620001bd57806339327e9e14620001f357806343086f0d1462000215578063486ff0cd1462000237575b600080fd5b6200019b600480360381019062000195919062001efe565b620004af565b005b620001bb6004803603810190620001b5919062001ea4565b620004c9565b005b620001db6004803603810190620001d5919062001e5f565b620006a9565b604051620001ea919062002270565b60405180910390f35b620001fd620006f2565b6040516200020c919062002398565b60405180910390f35b6200021f62000718565b6040516200022e91906200237b565b60405180910390f35b620002416200073e565b604051620002509190620023d2565b60405180910390f35b62000277600480360381019062000271919062001e07565b620007e0565b60405162000286919062002324565b60405180910390f35b6200029962000839565b604051620002a8919062002341565b60405180910390f35b620002bb6200085f565b604051620002ca9190620023b5565b60405180910390f35b620002dd62000872565b005b620002fd6004803603810190620002f7919062001efe565b62000a00565b6040516200030c9190620023d2565b60405180910390f35b6200031f62000ac1565b005b6200032b62000c14565b6040516200033a919062002270565b60405180910390f35b6200034d62000c38565b6040516200035c919062002270565b60405180910390f35b6200036f62000c62565b6040516200037e91906200253a565b60405180910390f35b6200039162000c69565b604051620003a091906200235e565b60405180910390f35b620003b362000c8f565b604051620003c291906200253a565b60405180910390f35b620003e96004803603810190620003e3919062001e07565b62000c95565b005b620003f562000df6565b6040516200040491906200253a565b60405180910390f35b6200042b600480360381019062000425919062001f56565b62000dfc565b005b6200044b600480360381019062000445919062001e07565b62001059565b6040516200045a919062002324565b60405180910390f35b6200048160048036038101906200047b919062001efe565b62001079565b005b6200048d620011bd565b005b620004ad6004803603810190620004a7919062001e07565b620011d5565b005b620004c6620004bd62001540565b82600062001551565b50565b620004d362001540565b73ffffffffffffffffffffffffffffffffffffffff16600160009054906101000a900473ffffffffffffffffffffffffffffffffffffffff1673ffffffffffffffffffffffffffffffffffffffff161462000596576040517f08c379a00000000000000000000000000000000000000000000000000000000081526004018080602001828103825260208152602001807f4f776e61626c653a2063616c6c6572206973206e6f7420746865206f776e657281525060200191505060405180910390fd5b600073ffffffffffffffffffffffffffffffffffffffff16600b60009054906101000a900473ffffffffffffffffffffffffffffffffffffffff1673ffffffffffffffffffffffffffffffffffffffff16146200062a576040517f08c379a000000000000000000000000000000000000000000000000000000000815260040162000621906200246e565b60405180910390fd5b81816040516200063a9062001d41565b62000647929190620023f6565b604051809103906000f08015801562000664573d6000803e3d6000fd5b50600b60006101000a81548173ffffffffffffffffffffffffffffffffffffffff021916908373ffffffffffffffffffffffffffffffffffffffff1602179055505050565b6008818051602081018201805184825260208301602085012081835280955050505050506000915054906101000a900473ffffffffffffffffffffffffffffffffffffffff1681565b600c60009054906101000a900473ffffffffffffffffffffffffffffffffffffffff1681565b600b60009054906101000a900473ffffffffffffffffffffffffffffffffffffffff1681565b60028054600181600116156101000203166002900480601f016020809104026020016040519081016040528092919081815260200182805460018160011615610100020316600290048015620007d85780601f10620007ac57610100808354040283529160200191620007d8565b820191906000526020600020905b815481529060010190602001808311620007ba57829003601f168201915b505050505081565b60008060009054906101000a900473ffffffffffffffffffffffffffffffffffffffff1673ffffffffffffffffffffffffffffffffffffffff168273ffffffffffffffffffffffffffffffffffffffff16149050919050565b600a60009054906101000a900473ffffffffffffffffffffffffffffffffffffffff1681565b600560019054906101000a900460ff1681565b6200087c62001540565b73ffffffffffffffffffffffffffffffffffffffff16600160009054906101000a900473ffffffffffffffffffffffffffffffffffffffff1673ffffffffffffffffffffffffffffffffffffffff16146200093f576040517f08c379a00000000000000000000000000000000000000000000000000000000081526004018080602001828103825260208152602001807f4f776e61626c653a2063616c6c6572206973206e6f7420746865206f776e657281525060200191505060405180910390fd5b600073ffffffffffffffffffffffffffffffffffffffff16600160009054906101000a900473ffffffffffffffffffffffffffffffffffffffff1673ffffffffffffffffffffffffffffffffffffffff167f8be0079c531659141344cd1fd0a4f28419497f9722a3daafe3b4186f6b6457e060405160405180910390a36000600160006101000a81548173ffffffffffffffffffffffffffffffffffffffff021916908373ffffffffffffffffffffffffffffffffffffffff160217905550565b6009818154811062000a1157600080fd5b906000526020600020016000915090508054600181600116156101000203166002900480601f01602080910402602001604051908101604052809291908181526020018280546001816001161561010002031660029004801562000ab95780601f1062000a8d5761010080835404028352916020019162000ab9565b820191906000526020600020905b81548152906001019060200180831162000a9b57829003601f168201915b505050505081565b62000acb62001540565b73ffffffffffffffffffffffffffffffffffffffff16600160009054906101000a900473ffffffffffffffffffffffffffffffffffffffff1673ffffffffffffffffffffffffffffffffffffffff161462000b8e576040517f08c379a00000000000000000000000000000000000000000000000000000000081526004018080602001828103825260208152602001807f4f776e61626c653a2063616c6c6572206973206e6f7420746865206f776e657281525060200191505060405180910390fd5b600a60009054906101000a900473ffffffffffffffffffffffffffffffffffffffff1673ffffffffffffffffffffffffffffffffffffffff166363a5d2986040518163ffffffff1660e01b8152600401600060405180830381600087803b15801562000bf957600080fd5b505af115801562000c0e573d6000803e3d6000fd5b50505050565b60008054906101000a900473ffffffffffffffffffffffffffffffffffffffff1681565b6000600160009054906101000a900473ffffffffffffffffffffffffffffffffffffffff16905090565b6201770081565b600360009054906101000a900473ffffffffffffffffffffffffffffffffffffffff1681565b60075481565b62000c9f62001540565b73ffffffffffffffffffffffffffffffffffffffff16600160009054906101000a900473ffffffffffffffffffffffffffffffffffffffff1673ffffffffffffffffffffffffffffffffffffffff161462000d62576040517f08c379a00000000000000000000000000000000000000000000000000000000081526004018080602001828103825260208152602001807f4f776e61626c653a2063616c6c6572206973206e6f7420746865206f776e657281525060200191505060405180910390fd5b600a60009054906101000a900473ffffffffffffffffffffffffffffffffffffffff1673ffffffffffffffffffffffffffffffffffffffff1663a46eddcf826040518263ffffffff1660e01b815260040162000dbf919062002270565b600060405180830381600087803b15801562000dda57600080fd5b505af115801562000def573d6000803e3d6000fd5b5050505050565b60045481565b600b60009054906101000a900473ffffffffffffffffffffffffffffffffffffffff1673ffffffffffffffffffffffffffffffffffffffff1662000e3f62001540565b73ffffffffffffffffffffffffffffffffffffffff161462000e98576040517f08c379a000000000000000000000000000000000000000000000000000000000815260040162000e8f90620024f6565b60405180910390fd5b600073ffffffffffffffffffffffffffffffffffffffff168173ffffffffffffffffffffffffffffffffffffffff16146200105557600360009054906101000a900473ffffffffffffffffffffffffffffffffffffffff1673ffffffffffffffffffffffffffffffffffffffff1663095ea7b3600a60009054906101000a900473ffffffffffffffffffffffffffffffffffffffff1662000f4b670de0b6b3a764000086620013ea90919063ffffffff16565b6040518363ffffffff1660e01b815260040162000f6a929190620022f7565b602060405180830381600087803b15801562000f8557600080fd5b505af115801562000f9a573d6000803e3d6000fd5b505050506040513d601f19601f8201168201806040525081019062000fc0919062001e33565b50600a60009054906101000a900473ffffffffffffffffffffffffffffffffffffffff1673ffffffffffffffffffffffffffffffffffffffff1663e377672e83836040518363ffffffff1660e01b81526004016200102092919062002557565b600060405180830381600087803b1580156200103b57600080fd5b505af115801562001050573d6000803e3d6000fd5b505050505b5050565b60066020528060005260406000206000915054906101000a900460ff1681565b600a60009054906101000a900473ffffffffffffffffffffffffffffffffffffffff1673ffffffffffffffffffffffffffffffffffffffff163373ffffffffffffffffffffffffffffffffffffffff16146200110c576040517f08c379a000000000000000000000000000000000000000000000000000000000815260040162001103906200242a565b60405180910390fd5b600560009054906101000a900460ff16156200115f576040517f08c379a0000000000000000000000000000000000000000000000000000000008152600401620011569062002518565b60405180910390fd5b806004819055506001600560006101000a81548160ff0219169083151502179055507fc72e55068a99063a2c847c0b87d2808f29d1935171e54ffa3a479533b4046b7481604051620011b291906200253a565b60405180910390a150565b620011d3620011cb62001540565b6000620018df565b565b620011df62001540565b73ffffffffffffffffffffffffffffffffffffffff16600160009054906101000a900473ffffffffffffffffffffffffffffffffffffffff1673ffffffffffffffffffffffffffffffffffffffff1614620012a2576040517f08c379a00000000000000000000000000000000000000000000000000000000081526004018080602001828103825260208152602001807f4f776e61626c653a2063616c6c6572206973206e6f7420746865206f776e657281525060200191505060405180910390fd5b600073ffffffffffffffffffffffffffffffffffffffff168173ffffffffffffffffffffffffffffffffffffffff1614156200132a576040517f08c379a0000000000000000000000000000000000000000000000000000000008152600401808060200182810382526026815260200180620048bb6026913960400191505060405180910390fd5b8073ffffffffffffffffffffffffffffffffffffffff16600160009054906101000a900473ffffffffffffffffffffffffffffffffffffffff1673ffffffffffffffffffffffffffffffffffffffff167f8be0079c531659141344cd1fd0a4f28419497f9722a3daafe3b4186f6b6457e060405160405180910390a380600160006101000a81548173ffffffffffffffffffffffffffffffffffffffff021916908373ffffffffffffffffffffffffffffffffffffffff16021790555050565b600080831415620013ff57600090506200146f565b60008284029050828482816200141157fe5b04146200146a576040517f08c379a0000000000000000000000000000000000000000000000000000000008152600401808060200182810382526021815260200180620048e16021913960400191505060405180910390fd5b809150505b92915050565b600060186000369050101580156200149457506200149333620007e0565b5b15620014aa57601436033560601c9050620014b3565b339050620014b4565b5b90565b60008082840190508381101562001536576040517f08c379a000000000000000000000000000000000000000000000000000000000815260040180806020018281038252601b8152602001807f536166654d6174683a206164646974696f6e206f766572666c6f77000000000081525060200191505060405180910390fd5b8091505092915050565b60006200154c62001475565b905090565b600073ffffffffffffffffffffffffffffffffffffffff16600a60009054906101000a900473ffffffffffffffffffffffffffffffffffffffff1673ffffffffffffffffffffffffffffffffffffffff161415620015e6576040517f08c379a0000000000000000000000000000000000000000000000000000000008152600401620015dd906200244c565b60405180910390fd5b6019600754106200162e576040517f08c379a00000000000000000000000000000000000000000000000000000000081526004016200162590620024d4565b60405180910390fd5b60001515600660008573ffffffffffffffffffffffffffffffffffffffff1673ffffffffffffffffffffffffffffffffffffffff16815260200190815260200160002060009054906101000a900460ff16151514620016c4576040517f08c379a0000000000000000000000000000000000000000000000000000000008152600401620016bb90620024b2565b60405180910390fd5b6001600660008573ffffffffffffffffffffffffffffffffffffffff1673ffffffffffffffffffffffffffffffffffffffff16815260200190815260200160002060006101000a81548160ff021916908315150217905550620017346001600754620014b790919063ffffffff16565b600781905550600360009054906101000a900473ffffffffffffffffffffffffffffffffffffffff1673ffffffffffffffffffffffffffffffffffffffff1663bc93233f84836040518363ffffffff1660e01b815260040162001799929190620022ca565b600060405180830381600087803b158015620017b457600080fd5b505af1158015620017c9573d6000803e3d6000fd5b50505050600360009054906101000a900473ffffffffffffffffffffffffffffffffffffffff1673ffffffffffffffffffffffffffffffffffffffff1663a9059cbb8462001829670de0b6b3a764000086620013ea90919063ffffffff16565b6040518363ffffffff1660e01b815260040162001848929190620022f7565b602060405180830381600087803b1580156200186357600080fd5b505af115801562001878573d6000803e3d6000fd5b505050506040513d601f19601f820116820180604052508101906200189e919062001e33565b507fede8eed4383e9241982619b94dd83e488b274cced0fd07b8c0092a393defd52f8383604051620018d2929190620022f7565b60405180910390a1505050565b620018ea8262001b98565b6000600660008473ffffffffffffffffffffffffffffffffffffffff1673ffffffffffffffffffffffffffffffffffffffff16815260200190815260200160002060006101000a81548160ff0219169083151502179055506200195a600160075462001c3190919063ffffffff16565b600781905550600360009054906101000a900473ffffffffffffffffffffffffffffffffffffffff1673ffffffffffffffffffffffffffffffffffffffff166323b872dd8330600360009054906101000a900473ffffffffffffffffffffffffffffffffffffffff1673ffffffffffffffffffffffffffffffffffffffff166370a08231876040518263ffffffff1660e01b8152600401620019fd919062002270565b60206040518083038186803b15801562001a1657600080fd5b505afa15801562001a2b573d6000803e3d6000fd5b505050506040513d601f19601f8201168201806040525081019062001a51919062001f2a565b6040518463ffffffff1660e01b815260040162001a71939291906200228d565b602060405180830381600087803b15801562001a8c57600080fd5b505af115801562001aa1573d6000803e3d6000fd5b505050506040513d601f19601f8201168201806040525081019062001ac7919062001e33565b50600360009054906101000a900473ffffffffffffffffffffffffffffffffffffffff1673ffffffffffffffffffffffffffffffffffffffff16632797c7a483836040518363ffffffff1660e01b815260040162001b27929190620022ca565b600060405180830381600087803b15801562001b4257600080fd5b505af115801562001b57573d6000803e3d6000fd5b505050507f6e76fb4c77256006d9c38ec7d82b45a8c8f3c27b1d6766fffc42dfb8de6844928260405162001b8c919062002270565b60405180910390a15050565b60011515600660008373ffffffffffffffffffffffffffffffffffffffff1673ffffffffffffffffffffffffffffffffffffffff16815260200190815260200160002060009054906101000a900460ff1615151462001c2e576040517f08c379a000000000000000000000000000000000000000000000000000000000815260040162001c259062002490565b60405180910390fd5b50565b600062001c7583836040518060400160405280601e81526020017f536166654d6174683a207375627472616374696f6e206f766572666c6f77000081525062001c7d565b905092915050565b600083831115829062001d2e576040517f08c379a00000000000000000000000000000000000000000000000000000000081526004018080602001828103825283818151815260200191508051906020019080838360005b8381101562001cf257808201518184015260208101905062001cd5565b50505050905090810190601f16801562001d205780820380516001836020036101000a031916815260200191505b509250505060405180910390fd5b5060008385039050809150509392505050565b6120e380620027d883390190565b60008135905062001d608162002789565b92915050565b60008151905062001d7781620027a3565b92915050565b600082601f83011262001d8f57600080fd5b813562001da662001da082620025b8565b62002584565b9150808252602083016020830185838301111562001dc357600080fd5b62001dd08382846200271a565b50505092915050565b60008135905062001dea81620027bd565b92915050565b60008151905062001e0181620027bd565b92915050565b60006020828403121562001e1a57600080fd5b600062001e2a8482850162001d4f565b91505092915050565b60006020828403121562001e4657600080fd5b600062001e568482850162001d66565b91505092915050565b60006020828403121562001e7257600080fd5b600082013567ffffffffffffffff81111562001e8d57600080fd5b62001e9b8482850162001d7d565b91505092915050565b6000806040838503121562001eb857600080fd5b600083013567ffffffffffffffff81111562001ed357600080fd5b62001ee18582860162001d7d565b925050602062001ef48582860162001d4f565b9150509250929050565b60006020828403121562001f1157600080fd5b600062001f218482850162001dd9565b91505092915050565b60006020828403121562001f3d57600080fd5b600062001f4d8482850162001df0565b91505092915050565b6000806040838503121562001f6a57600080fd5b600062001f7a8582860162001dd9565b925050602062001f8d8582860162001d4f565b9150509250929050565b62001fa28162002607565b82525050565b62001fb3816200261b565b82525050565b62001fc48162002666565b82525050565b62001fd5816200268e565b82525050565b62001fe681620026b6565b82525050565b62001ff781620026de565b82525050565b620020088162002706565b82525050565b60006200201b82620025eb565b620020278185620025f6565b93506200203981856020860162002729565b620020448162002761565b840191505092915050565b60006200205e600c83620025f6565b91507f6e6f7420747265617375727900000000000000000000000000000000000000006000830152602082019050919050565b6000620020a0601083620025f6565b91507f7472656173757279206e6f7420736574000000000000000000000000000000006000830152602082019050919050565b6000620020e2600f83620025f6565b91507f616c7265616479206372656174656400000000000000000000000000000000006000830152602082019050919050565b600062002124600a83620025f6565b91507f6e6f74206d656d626572000000000000000000000000000000000000000000006000830152602082019050919050565b600062002166600e83620025f6565b91507f616c7265616479206d656d6265720000000000000000000000000000000000006000830152602082019050919050565b6000620021a8600e83620025f6565b91507f636f6d6d756e6974792066756c6c0000000000000000000000000000000000006000830152602082019050919050565b6000620021ea601083620025f6565b91507f6e6f7420676967207265676973747279000000000000000000000000000000006000830152602082019050919050565b60006200222c600b83620025f6565b91507f616c7265616479207365740000000000000000000000000000000000000000006000830152602082019050919050565b6200226a816200265c565b82525050565b600060208201905062002287600083018462001f97565b92915050565b6000606082019050620022a4600083018662001f97565b620022b3602083018562001f97565b620022c260408301846200225f565b949350505050565b6000604082019050620022e1600083018562001f97565b620022f0602083018462001fa8565b9392505050565b60006040820190506200230e600083018562001f97565b6200231d60208301846200225f565b9392505050565b60006020820190506200233b600083018462001fa8565b92915050565b600060208201905062002358600083018462001fb9565b92915050565b600060208201905062002375600083018462001fca565b92915050565b600060208201905062002392600083018462001fdb565b92915050565b6000602082019050620023af600083018462001fec565b92915050565b6000602082019050620023cc600083018462001ffd565b92915050565b60006020820190508181036000830152620023ee81846200200e565b905092915050565b600060408201905081810360008301526200241281856200200e565b905062002423602083018462001f97565b9392505050565b6000602082019050818103600083015262002445816200204f565b9050919050565b60006020820190508181036000830152620024678162002091565b9050919050565b600060208201905081810360008301526200248981620020d3565b9050919050565b60006020820190508181036000830152620024ab8162002115565b9050919050565b60006020820190508181036000830152620024cd8162002157565b9050919050565b60006020820190508181036000830152620024ef8162002199565b9050919050565b600060208201905081810360008301526200251181620021db565b9050919050565b6000602082019050818103600083015262002533816200221d565b9050919050565b60006020820190506200255160008301846200225f565b92915050565b60006040820190506200256e60008301856200225f565b6200257d602083018462001f97565b9392505050565b6000604051905081810181811067ffffffffffffffff82111715620025ae57620025ad6200275f565b5b8060405250919050565b600067ffffffffffffffff821115620025d657620025d56200275f565b5b601f19601f8301169050602081019050919050565b600081519050919050565b600082825260208201905092915050565b600062002614826200263c565b9050919050565b60008115159050919050565b6000819050620026378262002772565b919050565b600073ffffffffffffffffffffffffffffffffffffffff82169050919050565b6000819050919050565b600062002673826200267a565b9050919050565b600062002687826200263c565b9050919050565b60006200269b82620026a2565b9050919050565b6000620026af826200263c565b9050919050565b6000620026c382620026ca565b9050919050565b6000620026d7826200263c565b9050919050565b6000620026eb82620026f2565b9050919050565b6000620026ff826200263c565b9050919050565b6000620027138262002627565b9050919050565b82818337600083830152505050565b60005b83811015620027495780820151818401526020810190506200272c565b8381111562002759576000848401525b50505050565bfe5b6000601f19601f8301169050919050565b600381106200278657620027856200275f565b5b50565b620027948162002607565b8114620027a057600080fd5b50565b620027ae816200261b565b8114620027ba57600080fd5b50565b620027c8816200265c565b8114620027d457600080fd5b5056fe60806040523480156200001157600080fd5b50604051620020e3380380620020e3833981810160405260408110156200003757600080fd5b81019080805160405193929190846401000000008211156200005857600080fd5b838201915060208201858111156200006f57600080fd5b82518660018202830111640100000000821117156200008d57600080fd5b8083526020830192505050908051906020019080838360005b83811015620000c3578082015181840152602081019050620000a6565b50505050905090810190601f168015620000f15780820380516001836020036101000a031916815260200191505b50604052602001805190602001909291905050506000620001176200037860201b60201c565b9050806000806101000a81548173ffffffffffffffffffffffffffffffffffffffff021916908373ffffffffffffffffffffffffffffffffffffffff1602179055508073ffffffffffffffffffffffffffffffffffffffff16600073ffffffffffffffffffffffffffffffffffffffff167f8be0079c531659141344cd1fd0a4f28419497f9722a3daafe3b4186f6b6457e060405160405180910390a350600073ffffffffffffffffffffffffffffffffffffffff168173ffffffffffffffffffffffffffffffffffffffff16141562000259576040517f08c379a000000000000000000000000000000000000000000000000000000000815260040180806020018281038252600b8152602001807f6f7261636c65206973203000000000000000000000000000000000000000000081525060200191505060405180910390fd5b33600560006101000a81548173ffffffffffffffffffffffffffffffffffffffff021916908373ffffffffffffffffffffffffffffffffffffffff160217905550816040516020018082805190602001908083835b60208310620002d35780518252602082019150602081019050602083039250620002ae565b6001836020036101000a0380198251168184511680821785525050505050509050019150506040516020818303038152906040528051906020012060068190555080600760006101000a81548173ffffffffffffffffffffffffffffffffffffffff021916908373ffffffffffffffffffffffffffffffffffffffff1602179055506001600760146101000a81548160ff021916908315150217905550505062000380565b600033905090565b611d5380620003906000396000f3fe608060405234801561001057600080fd5b50600436106100f55760003560e01c80638da5cb5b11610097578063dc1fb5a511610066578063dc1fb5a5146103ac578063f0d119ec146103e0578063f2fde38b1461042e578063fbf71f9214610472576100f5565b80638da5cb5b146102b157806390c0e3ac146102e5578063acf1ee6a14610313578063bd75e5c214610341576100f5565b80635e3fbdc8116100d35780635e3fbdc8146101be57806361b8ce8c14610255578063715018a6146102735780637dc0d1d01461027d576100f5565b80630bf85038146100fa5780634adac15f14610118578063533e62b61461017a575b600080fd5b6101026104ca565b6040518082815260200191505060405180910390f35b6101786004803603608081101561012e57600080fd5b8101908080359060200190929190803573ffffffffffffffffffffffffffffffffffffffff16906020019092919080359060200190929190803590602001909291905050506104d0565b005b6101a66004803603602081101561019057600080fd5b8101908080359060200190929190505050610957565b60405180821515815260200191505060405180910390f35b6101ea600480360360208110156101d457600080fd5b8101908080359060200190929190505050610977565b604051808673ffffffffffffffffffffffffffffffffffffffff1681526020018573ffffffffffffffffffffffffffffffffffffffff16815260200184600481111561023257fe5b815260200183151581526020018281526020019550505050505060405180910390f35b61025d610a07565b6040518082815260200191505060405180910390f35b61027b610a0d565b005b610285610b93565b604051808273ffffffffffffffffffffffffffffffffffffffff16815260200191505060405180910390f35b6102b9610bb9565b604051808273ffffffffffffffffffffffffffffffffffffffff16815260200191505060405180910390f35b610311600480360360208110156102fb57600080fd5b8101908080359060200190929190505050610be2565b005b61033f6004803603602081101561032957600080fd5b8101908080359060200190929190505050610e8a565b005b61038d6004803603604081101561035757600080fd5b81019080803573ffffffffffffffffffffffffffffffffffffffff169060200190929190803590602001909291905050506114cb565b6040518083815260200182151581526020019250505060405180910390f35b6103b461165b565b604051808273ffffffffffffffffffffffffffffffffffffffff16815260200191505060405180910390f35b61042c600480360360408110156103f657600080fd5b8101908080359060200190929190803573ffffffffffffffffffffffffffffffffffffffff169060200190929190505050611681565b005b6104706004803603602081101561044457600080fd5b81019080803573ffffffffffffffffffffffffffffffffffffffff169060200190929190505050611999565b005b61049e6004803603602081101561048857600080fd5b8101908080359060200190929190505050611ba4565b604051808273ffffffffffffffffffffffffffffffffffffffff16815260200191505060405180910390f35b60065481565b6104d8611c67565b600160008681526020019081526020016000206040518060a00160405290816000820160009054906101000a900473ffffffffffffffffffffffffffffffffffffffff1673ffffffffffffffffffffffffffffffffffffffff1673ffffffffffffffffffffffffffffffffffffffff1681526020016001820160009054906101000a900473ffffffffffffffffffffffffffffffffffffffff1673ffffffffffffffffffffffffffffffffffffffff1673ffffffffffffffffffffffffffffffffffffffff1681526020016001820160149054906101000a900460ff1660048111156105c057fe5b60048111156105cb57fe5b81526020016001820160159054906101000a900460ff1615151515815260200160028201548152505090506002600481111561060357fe5b8160400151600481111561061357fe5b14610686576040517f08c379a00000000000000000000000000000000000000000000000000000000081526004018080602001828103825260108152602001807f77726f6e6720676967207374617475730000000000000000000000000000000081525060200191505060405180910390fd5b8373ffffffffffffffffffffffffffffffffffffffff16816000015173ffffffffffffffffffffffffffffffffffffffff161461072b576040517f08c379a000000000000000000000000000000000000000000000000000000000815260040180806020018281038252600d8152602001807f77726f6e672063726561746f720000000000000000000000000000000000000081525060200191505060405180910390fd5b828160800151146107a4576040517f08c379a000000000000000000000000000000000000000000000000000000000815260040180806020018281038252600a8152602001807f77726f6e6720686173680000000000000000000000000000000000000000000081525060200191505060405180910390fd5b600081606001516107b65760006107eb565b6004600087815260200190815260200160002060009054906101000a900473ffffffffffffffffffffffffffffffffffffffff165b905060036001600088815260200190815260200160002060010160146101000a81548160ff0219169083600481111561082057fe5b0217905550600560009054906101000a900473ffffffffffffffffffffffffffffffffffffffff1673ffffffffffffffffffffffffffffffffffffffff1663bc910cf984836040518363ffffffff1660e01b8152600401808381526020018273ffffffffffffffffffffffffffffffffffffffff16815260200192505050600060405180830381600087803b1580156108b857600080fd5b505af11580156108cc573d6000803e3d6000fd5b505050507f3543f1b1a2550a8439a69bf699b14ed21478f1e2e2ef70e45cf8ecb89d945a998686846020015187604051808581526020018473ffffffffffffffffffffffffffffffffffffffff1681526020018373ffffffffffffffffffffffffffffffffffffffff16815260200182815260200194505050505060405180910390a1505050505050565b60036020528060005260406000206000915054906101000a900460ff1681565b60016020528060005260406000206000915090508060000160009054906101000a900473ffffffffffffffffffffffffffffffffffffffff16908060010160009054906101000a900473ffffffffffffffffffffffffffffffffffffffff16908060010160149054906101000a900460ff16908060010160159054906101000a900460ff16908060020154905085565b60025481565b610a15611bd7565b73ffffffffffffffffffffffffffffffffffffffff1660008054906101000a900473ffffffffffffffffffffffffffffffffffffffff1673ffffffffffffffffffffffffffffffffffffffff1614610ad5576040517f08c379a00000000000000000000000000000000000000000000000000000000081526004018080602001828103825260208152602001807f4f776e61626c653a2063616c6c6572206973206e6f7420746865206f776e657281525060200191505060405180910390fd5b600073ffffffffffffffffffffffffffffffffffffffff1660008054906101000a900473ffffffffffffffffffffffffffffffffffffffff1673ffffffffffffffffffffffffffffffffffffffff167f8be0079c531659141344cd1fd0a4f28419497f9722a3daafe3b4186f6b6457e060405160405180910390a360008060006101000a81548173ffffffffffffffffffffffffffffffffffffffff021916908373ffffffffffffffffffffffffffffffffffffffff160217905550565b600760009054906101000a900473ffffffffffffffffffffffffffffffffffffffff1681565b60008060009054906101000a900473ffffffffffffffffffffffffffffffffffffffff16905090565b610bea611c67565b600160008381526020019081526020016000206040518060a00160405290816000820160009054906101000a900473ffffffffffffffffffffffffffffffffffffffff1673ffffffffffffffffffffffffffffffffffffffff1673ffffffffffffffffffffffffffffffffffffffff1681526020016001820160009054906101000a900473ffffffffffffffffffffffffffffffffffffffff1673ffffffffffffffffffffffffffffffffffffffff1673ffffffffffffffffffffffffffffffffffffffff1681526020016001820160149054906101000a900460ff166004811115610cd257fe5b6004811115610cdd57fe5b81526020016001820160159054906101000a900460ff16151515158152602001600282015481525050905060016004811115610d1557fe5b81604001516004811115610d2557fe5b14610d98576040517f08c379a00000000000000000000000000000000000000000000000000000000081526004018080602001828103825260108152602001807f77726f6e6720676967207374617475730000000000000000000000000000000081525060200191505060405180910390fd5b336001600084815260200190815260200160002060010160006101000a81548173ffffffffffffffffffffffffffffffffffffffff021916908373ffffffffffffffffffffffffffffffffffffffff16021790555060026001600084815260200190815260200160002060010160146101000a81548160ff02191690836004811115610e2057fe5b02179055507fefc12b14a58844ed1e92df691cd7fc51a53bc99c566fecaa3dcaf0207bb409ec82338360800151604051808481526020018373ffffffffffffffffffffffffffffffffffffffff168152602001828152602001935050505060405180910390a15050565b6003600082815260200190815260200160002060009054906101000a900460ff1615610f1e576040517f08c379a00000000000000000000000000000000000000000000000000000000081526004018080602001828103825260098152602001807f686173682075736564000000000000000000000000000000000000000000000081525060200191505060405180910390fd5b600760149054906101000a900460ff166112b957600760009054906101000a900473ffffffffffffffffffffffffffffffffffffffff1673ffffffffffffffffffffffffffffffffffffffff1663385a9c376040518163ffffffff1660e01b815260040160206040518083038186803b158015610f9a57600080fd5b505afa158015610fae573d6000803e3d6000fd5b505050506040513d6020811015610fc457600080fd5b8101908080519060200190929190505050611047576040517f08c379a000000000000000000000000000000000000000000000000000000000815260040180806020018281038252601c8152602001807f6f7261636c652072657175657374206e6f742066756c66696c6c65640000000081525060200191505060405180910390fd5b600760009054906101000a900473ffffffffffffffffffffffffffffffffffffffff1673ffffffffffffffffffffffffffffffffffffffff1663bb5d40eb6040518163ffffffff1660e01b815260040160206040518083038186803b1580156110af57600080fd5b505afa1580156110c3573d6000803e3d6000fd5b505050506040513d60208110156110d957600080fd5b81019080805190602001909291905050508015611197575080600760009054906101000a900473ffffffffffffffffffffffffffffffffffffffff1673ffffffffffffffffffffffffffffffffffffffff166359d998ad6040518163ffffffff1660e01b815260040160206040518083038186803b15801561115a57600080fd5b505afa15801561116e573d6000803e3d6000fd5b505050506040513d602081101561118457600080fd5b8101908080519060200190929190505050145b80156112465750600654600760009054906101000a900473ffffffffffffffffffffffffffffffffffffffff1673ffffffffffffffffffffffffffffffffffffffff16630bf850386040518163ffffffff1660e01b815260040160206040518083038186803b15801561120957600080fd5b505afa15801561121d573d6000803e3d6000fd5b505050506040513d602081101561123357600080fd5b8101908080519060200190929190505050145b6112b8576040517f08c379a000000000000000000000000000000000000000000000000000000000815260040180806020018281038252600e8152602001807f68617368206e6f742076616c696400000000000000000000000000000000000081525060200191505060405180910390fd5b5b6112c1611c67565b6040518060a001604052803373ffffffffffffffffffffffffffffffffffffffff168152602001600073ffffffffffffffffffffffffffffffffffffffff1681526020016001600481111561131257fe5b81526020016000151581526020018381525090508060016000600254815260200190815260200160002060008201518160000160006101000a81548173ffffffffffffffffffffffffffffffffffffffff021916908373ffffffffffffffffffffffffffffffffffffffff16021790555060208201518160010160006101000a81548173ffffffffffffffffffffffffffffffffffffffff021916908373ffffffffffffffffffffffffffffffffffffffff16021790555060408201518160010160146101000a81548160ff021916908360048111156113ee57fe5b021790555060608201518160010160156101000a81548160ff0219169083151502179055506080820151816002015590505060016003600084815260200190815260200160002060006101000a81548160ff0219169083151502179055507f13d4aef66c3ac9a624b5206c8c0566fa03c1af27a4d5cf459065be492292fade6002543384604051808481526020018373ffffffffffffffffffffffffffffffffffffffff168152602001828152602001935050505060405180910390a16114c16001600254611bdf90919063ffffffff16565b6002819055505050565b600080600060025414156114e55760008091509150611654565b60005b6002548163ffffffff1610801561158e575083600160008363ffffffff1681526020019081526020016000206002015414158061158d57508473ffffffffffffffffffffffffffffffffffffffff16600160008363ffffffff16815260200190815260200160002060000160009054906101000a900473ffffffffffffffffffffffffffffffffffffffff1673ffffffffffffffffffffffffffffffffffffffff1614155b5b1561159e576001810190506114e8565b8473ffffffffffffffffffffffffffffffffffffffff16600160008363ffffffff16815260200190815260200160002060000160009054906101000a900473ffffffffffffffffffffffffffffffffffffffff1673ffffffffffffffffffffffffffffffffffffffff16148015611630575083600160008363ffffffff16815260200190815260200160002060020154145b1561164b578060018163ffffffff1691509250925050611654565b60008092509250505b9250929050565b600560009054906101000a900473ffffffffffffffffffffffffffffffffffffffff1681565b600073ffffffffffffffffffffffffffffffffffffffff168173ffffffffffffffffffffffffffffffffffffffff161415611707576040517f08c379a0000000000000000000000000000000000000000000000000000000008152600401808060200182810382526025815260200180611cf96025913960400191505060405180910390fd5b61170f611c67565b6040518060a001604052803373ffffffffffffffffffffffffffffffffffffffff168152602001600073ffffffffffffffffffffffffffffffffffffffff1681526020016001600481111561176057fe5b81526020016001151581526020018481525090508060016000600254815260200190815260200160002060008201518160000160006101000a81548173ffffffffffffffffffffffffffffffffffffffff021916908373ffffffffffffffffffffffffffffffffffffffff16021790555060208201518160010160006101000a81548173ffffffffffffffffffffffffffffffffffffffff021916908373ffffffffffffffffffffffffffffffffffffffff16021790555060408201518160010160146101000a81548160ff0219169083600481111561183c57fe5b021790555060608201518160010160156101000a81548160ff021916908315150217905550608082015181600201559050508160046000600254815260200190815260200160002060006101000a81548173ffffffffffffffffffffffffffffffffffffffff021916908373ffffffffffffffffffffffffffffffffffffffff1602179055507f13d4aef66c3ac9a624b5206c8c0566fa03c1af27a4d5cf459065be492292fade6002543385604051808481526020018373ffffffffffffffffffffffffffffffffffffffff168152602001828152602001935050505060405180910390a17f661f03ff2575617c854392b05d6fd40b791b5ffe7b640e3c055371aa3123c2d960025483604051808381526020018273ffffffffffffffffffffffffffffffffffffffff1681526020019250505060405180910390a161198e6001600254611bdf90919063ffffffff16565b600281905550505050565b6119a1611bd7565b73ffffffffffffffffffffffffffffffffffffffff1660008054906101000a900473ffffffffffffffffffffffffffffffffffffffff1673ffffffffffffffffffffffffffffffffffffffff1614611a61576040517f08c379a00000000000000000000000000000000000000000000000000000000081526004018080602001828103825260208152602001807f4f776e61626c653a2063616c6c6572206973206e6f7420746865206f776e657281525060200191505060405180910390fd5b600073ffffffffffffffffffffffffffffffffffffffff168173ffffffffffffffffffffffffffffffffffffffff161415611ae7576040517f08c379a0000000000000000000000000000000000000000000000000000000008152600401808060200182810382526026815260200180611cd36026913960400191505060405180910390fd5b8073ffffffffffffffffffffffffffffffffffffffff1660008054906101000a900473ffffffffffffffffffffffffffffffffffffffff1673ffffffffffffffffffffffffffffffffffffffff167f8be0079c531659141344cd1fd0a4f28419497f9722a3daafe3b4186f6b6457e060405160405180910390a3806000806101000a81548173ffffffffffffffffffffffffffffffffffffffff021916908373ffffffffffffffffffffffffffffffffffffffff16021790555050565b60046020528060005260406000206000915054906101000a900473ffffffffffffffffffffffffffffffffffffffff1681565b600033905090565b600080828401905083811015611c5d576040517f08c379a000000000000000000000000000000000000000000000000000000000815260040180806020018281038252601b8152602001807f536166654d6174683a206164646974696f6e206f766572666c6f77000000000081525060200191505060405180910390fd5b8091505092915050565b6040518060a00160405280600073ffffffffffffffffffffffffffffffffffffffff168152602001600073ffffffffffffffffffffffffffffffffffffffff16815260200160006004811115611cb957fe5b815260200160001515815260200160008019168152509056fe4f776e61626c653a206e6577206f776e657220697320746865207a65726f20616464726573736d696c6573746f6e652070726f6a65637420616464726573732063616e6e6f742062652030a26469706673582212202544fc8713821c363d644d9fd34c9e8d311fe1296434f4d2967b075381b6719964736f6c634300070400334f776e61626c653a206e6577206f776e657220697320746865207a65726f2061646472657373536166654d6174683a206d756c7469706c69636174696f6e206f766572666c6f77a264697066735822122036baa01e461089a94029922804825327c6882a6e7f9285503dc98b2128a83df864736f6c6343000704003360806040523480156200001157600080fd5b5060405162002a9038038062002a90833981810160405260208110156200003757600080fd5b81019080805190602001909291905050506040518060400160405280600481526020017f4469546f000000000000000000000000000000000000000000000000000000008152506040518060400160405280600481526020017f4449544f000000000000000000000000000000000000000000000000000000008152508160039080519060200190620000cc9291906200049a565b508060049080519060200190620000e59291906200049a565b506012600560006101000a81548160ff021916908360ff16021790555050506000620001166200022660201b60201c565b905080600560016101000a81548173ffffffffffffffffffffffffffffffffffffffff021916908373ffffffffffffffffffffffffffffffffffffffff1602179055508073ffffffffffffffffffffffffffffffffffffffff16600073ffffffffffffffffffffffffffffffffffffffff167f8be0079c531659141344cd1fd0a4f28419497f9722a3daafe3b4186f6b6457e060405160405180910390a3506001600660003373ffffffffffffffffffffffffffffffffffffffff1673ffffffffffffffffffffffffffffffffffffffff16815260200190815260200160002060006101000a81548160ff0219169083151502179055506200021f33826200022e60201b60201c565b5062000550565b600033905090565b600073ffffffffffffffffffffffffffffffffffffffff168273ffffffffffffffffffffffffffffffffffffffff161415620002d2576040517f08c379a000000000000000000000000000000000000000000000000000000000815260040180806020018281038252601f8152602001807f45524332303a206d696e7420746f20746865207a65726f20616464726573730081525060200191505060405180910390fd5b620002e6600083836200040c60201b60201c565b62000302816002546200041160201b62001b311790919060201c565b60028190555062000360816000808573ffffffffffffffffffffffffffffffffffffffff1673ffffffffffffffffffffffffffffffffffffffff168152602001908152602001600020546200041160201b62001b311790919060201c565b6000808473ffffffffffffffffffffffffffffffffffffffff1673ffffffffffffffffffffffffffffffffffffffff168152602001908152602001600020819055508173ffffffffffffffffffffffffffffffffffffffff16600073ffffffffffffffffffffffffffffffffffffffff167fddf252ad1be2c89b69c2b068fc378daa952ba7f163c4a11628f55a4df523b3ef836040518082815260200191505060405180910390a35050565b505050565b60008082840190508381101562000490576040517f08c379a000000000000000000000000000000000000000000000000000000000815260040180806020018281038252601b8152602001807f536166654d6174683a206164646974696f6e206f766572666c6f77000000000081525060200191505060405180910390fd5b8091505092915050565b828054600181600116156101000203166002900490600052602060002090601f016020900481019282620004d257600085556200051e565b82601f10620004ed57805160ff19168380011785556200051e565b828001600101855582156200051e579182015b828111156200051d57825182559160200191906001019062000500565b5b5090506200052d919062000531565b5090565b5b808211156200054c57600081600090555060010162000532565b5090565b61253080620005606000396000f3fe608060405234801561001057600080fd5b50600436106101165760003560e01c8063715018a6116100a2578063a457c2d711610071578063a457c2d714610520578063a9059cbb14610584578063bc93233f146105e8578063dd62ed3e14610638578063f2fde38b146106b057610116565b8063715018a6146104055780638da5cb5b1461040f57806395d89b41146104435780639b19251a146104c657610116565b80632797c7a4116100e95780632797c7a4146102a4578063313ce567146102f4578063395093511461031557806361d027b31461037957806370a08231146103ad57610116565b806306fdde031461011b578063095ea7b31461019e57806318160ddd1461020257806323b872dd14610220575b600080fd5b6101236106f4565b6040518080602001828103825283818151815260200191508051906020019080838360005b83811015610163578082015181840152602081019050610148565b50505050905090810190601f1680156101905780820380516001836020036101000a031916815260200191505b509250505060405180910390f35b6101ea600480360360408110156101b457600080fd5b81019080803573ffffffffffffffffffffffffffffffffffffffff16906020019092919080359060200190929190505050610796565b60405180821515815260200191505060405180910390f35b61020a61092a565b6040518082815260200191505060405180910390f35b61028c6004803603606081101561023657600080fd5b81019080803573ffffffffffffffffffffffffffffffffffffffff169060200190929190803573ffffffffffffffffffffffffffffffffffffffff16906020019092919080359060200190929190505050610934565b60405180821515815260200191505060405180910390f35b6102f2600480360360408110156102ba57600080fd5b81019080803573ffffffffffffffffffffffffffffffffffffffff169060200190929190803515159060200190929190505050610be4565b005b6102fc610e63565b604051808260ff16815260200191505060405180910390f35b6103616004803603604081101561032b57600080fd5b81019080803573ffffffffffffffffffffffffffffffffffffffff16906020019092919080359060200190929190505050610e7a565b60405180821515815260200191505060405180910390f35b61038161100e565b604051808273ffffffffffffffffffffffffffffffffffffffff16815260200191505060405180910390f35b6103ef600480360360208110156103c357600080fd5b81019080803573ffffffffffffffffffffffffffffffffffffffff169060200190929190505050611034565b6040518082815260200191505060405180910390f35b61040d61107c565b005b610417611207565b604051808273ffffffffffffffffffffffffffffffffffffffff16815260200191505060405180910390f35b61044b611231565b6040518080602001828103825283818151815260200191508051906020019080838360005b8381101561048b578082015181840152602081019050610470565b50505050905090810190601f1680156104b85780820380516001836020036101000a031916815260200191505b509250505060405180910390f35b610508600480360360208110156104dc57600080fd5b81019080803573ffffffffffffffffffffffffffffffffffffffff1690602001909291905050506112d3565b60405180821515815260200191505060405180910390f35b61056c6004803603604081101561053657600080fd5b81019080803573ffffffffffffffffffffffffffffffffffffffff169060200190929190803590602001909291905050506112f3565b60405180821515815260200191505060405180910390f35b6105d06004803603604081101561059a57600080fd5b81019080803573ffffffffffffffffffffffffffffffffffffffff16906020019092919080359060200190929190505050611487565b60405180821515815260200191505060405180910390f35b610636600480360360408110156105fe57600080fd5b81019080803573ffffffffffffffffffffffffffffffffffffffff16906020019092919080351515906020019092919050505061161b565b005b61069a6004803603604081101561064e57600080fd5b81019080803573ffffffffffffffffffffffffffffffffffffffff169060200190929190803573ffffffffffffffffffffffffffffffffffffffff16906020019092919050505061189a565b6040518082815260200191505060405180910390f35b6106f2600480360360208110156106c657600080fd5b81019080803573ffffffffffffffffffffffffffffffffffffffff169060200190929190505050611921565b005b606060038054600181600116156101000203166002900480601f01602080910402602001604051908101604052809291908181526020018280546001816001161561010002031660029004801561078c5780601f106107615761010080835404028352916020019161078c565b820191906000526020600020905b81548152906001019060200180831161076f57829003601f168201915b5050505050905090565b600082600660003373ffffffffffffffffffffffffffffffffffffffff1673ffffffffffffffffffffffffffffffffffffffff16815260200190815260200160002060009054906101000a900460ff16610858576040517f08c379a00000000000000000000000000000000000000000000000000000000081526004018080602001828103825260178152602001807f73656e646572206e6f7420696e2077686974656c69737400000000000000000081525060200191505060405180910390fd5b600660008273ffffffffffffffffffffffffffffffffffffffff1673ffffffffffffffffffffffffffffffffffffffff16815260200190815260200160002060009054906101000a900460ff16610917576040517f08c379a000000000000000000000000000000000000000000000000000000000815260040180806020018281038252601a8152602001807f726563697069656e74206e6f7420696e2077686974656c69737400000000000081525060200191505060405180910390fd5b6109218484611bb9565b91505092915050565b6000600254905090565b600082600660003373ffffffffffffffffffffffffffffffffffffffff1673ffffffffffffffffffffffffffffffffffffffff16815260200190815260200160002060009054906101000a900460ff166109f6576040517f08c379a00000000000000000000000000000000000000000000000000000000081526004018080602001828103825260178152602001807f73656e646572206e6f7420696e2077686974656c69737400000000000000000081525060200191505060405180910390fd5b600660008273ffffffffffffffffffffffffffffffffffffffff1673ffffffffffffffffffffffffffffffffffffffff16815260200190815260200160002060009054906101000a900460ff16610ab5576040517f08c379a000000000000000000000000000000000000000000000000000000000815260040180806020018281038252601a8152602001807f726563697069656e74206e6f7420696e2077686974656c69737400000000000081525060200191505060405180910390fd5b600760009054906101000a900473ffffffffffffffffffffffffffffffffffffffff1673ffffffffffffffffffffffffffffffffffffffff168473ffffffffffffffffffffffffffffffffffffffff161415610bcf57600760009054906101000a900473ffffffffffffffffffffffffffffffffffffffff1673ffffffffffffffffffffffffffffffffffffffff163373ffffffffffffffffffffffffffffffffffffffff1614610bce576040517f08c379a00000000000000000000000000000000000000000000000000000000081526004018080602001828103825260168152602001807f6e6f742073656e742066726f6d2074726561737572790000000000000000000081525060200191505060405180910390fd5b5b610bda858585611bd7565b9150509392505050565b610bec611cb0565b73ffffffffffffffffffffffffffffffffffffffff16600560019054906101000a900473ffffffffffffffffffffffffffffffffffffffff1673ffffffffffffffffffffffffffffffffffffffff1614610cae576040517f08c379a00000000000000000000000000000000000000000000000000000000081526004018080602001828103825260208152602001807f4f776e61626c653a2063616c6c6572206973206e6f7420746865206f776e657281525060200191505060405180910390fd5b8015610dba578173ffffffffffffffffffffffffffffffffffffffff16600760009054906101000a900473ffffffffffffffffffffffffffffffffffffffff1673ffffffffffffffffffffffffffffffffffffffff1614610d77576040517f08c379a00000000000000000000000000000000000000000000000000000000081526004018080602001828103825260188152602001807f6d656d626572206973206e6f742061207472656173757279000000000000000081525060200191505060405180910390fd5b6000600760006101000a81548173ffffffffffffffffffffffffffffffffffffffff021916908373ffffffffffffffffffffffffffffffffffffffff1602179055505b6000600660008473ffffffffffffffffffffffffffffffffffffffff1673ffffffffffffffffffffffffffffffffffffffff16815260200190815260200160002060006101000a81548160ff0219169083151502179055507fcdd2e9b91a56913d370075169cefa1602ba36be5301664f752192bb1709df75782604051808273ffffffffffffffffffffffffffffffffffffffff16815260200191505060405180910390a15050565b6000600560009054906101000a900460ff16905090565b600082600660003373ffffffffffffffffffffffffffffffffffffffff1673ffffffffffffffffffffffffffffffffffffffff16815260200190815260200160002060009054906101000a900460ff16610f3c576040517f08c379a00000000000000000000000000000000000000000000000000000000081526004018080602001828103825260178152602001807f73656e646572206e6f7420696e2077686974656c69737400000000000000000081525060200191505060405180910390fd5b600660008273ffffffffffffffffffffffffffffffffffffffff1673ffffffffffffffffffffffffffffffffffffffff16815260200190815260200160002060009054906101000a900460ff16610ffb576040517f08c379a000000000000000000000000000000000000000000000000000000000815260040180806020018281038252601a8152602001807f726563697069656e74206e6f7420696e2077686974656c69737400000000000081525060200191505060405180910390fd5b6110058484611cb8565b91505092915050565b600760009054906101000a900473ffffffffffffffffffffffffffffffffffffffff1681565b60008060008373ffffffffffffffffffffffffffffffffffffffff1673ffffffffffffffffffffffffffffffffffffffff168152602001908152602001600020549050919050565b611084611cb0565b73ffffffffffffffffffffffffffffffffffffffff16600560019054906101000a900473ffffffffffffffffffffffffffffffffffffffff1673ffffffffffffffffffffffffffffffffffffffff1614611146576040517f08c379a00000000000000000000000000000000000000000000000000000000081526004018080602001828103825260208152602001807f4f776e61626c653a2063616c6c6572206973206e6f7420746865206f776e657281525060200191505060405180910390fd5b600073ffffffffffffffffffffffffffffffffffffffff16600560019054906101000a900473ffffffffffffffffffffffffffffffffffffffff1673ffffffffffffffffffffffffffffffffffffffff167f8be0079c531659141344cd1fd0a4f28419497f9722a3daafe3b4186f6b6457e060405160405180910390a36000600560016101000a81548173ffffffffffffffffffffffffffffffffffffffff021916908373ffffffffffffffffffffffffffffffffffffffff160217905550565b6000600560019054906101000a900473ffffffffffffffffffffffffffffffffffffffff16905090565b606060048054600181600116156101000203166002900480601f0160208091040260200160405190810160405280929190818152602001828054600181600116156101000203166002900480156112c95780601f1061129e576101008083540402835291602001916112c9565b820191906000526020600020905b8154815290600101906020018083116112ac57829003601f168201915b5050505050905090565b60066020528060005260406000206000915054906101000a900460ff1681565b600082600660003373ffffffffffffffffffffffffffffffffffffffff1673ffffffffffffffffffffffffffffffffffffffff16815260200190815260200160002060009054906101000a900460ff166113b5576040517f08c379a00000000000000000000000000000000000000000000000000000000081526004018080602001828103825260178152602001807f73656e646572206e6f7420696e2077686974656c69737400000000000000000081525060200191505060405180910390fd5b600660008273ffffffffffffffffffffffffffffffffffffffff1673ffffffffffffffffffffffffffffffffffffffff16815260200190815260200160002060009054906101000a900460ff16611474576040517f08c379a000000000000000000000000000000000000000000000000000000000815260040180806020018281038252601a8152602001807f726563697069656e74206e6f7420696e2077686974656c69737400000000000081525060200191505060405180910390fd5b61147e8484611d6b565b91505092915050565b600082600660003373ffffffffffffffffffffffffffffffffffffffff1673ffffffffffffffffffffffffffffffffffffffff16815260200190815260200160002060009054906101000a900460ff16611549576040517f08c379a00000000000000000000000000000000000000000000000000000000081526004018080602001828103825260178152602001807f73656e646572206e6f7420696e2077686974656c69737400000000000000000081525060200191505060405180910390fd5b600660008273ffffffffffffffffffffffffffffffffffffffff1673ffffffffffffffffffffffffffffffffffffffff16815260200190815260200160002060009054906101000a900460ff16611608576040517f08c379a000000000000000000000000000000000000000000000000000000000815260040180806020018281038252601a8152602001807f726563697069656e74206e6f7420696e2077686974656c69737400000000000081525060200191505060405180910390fd5b6116128484611e38565b91505092915050565b611623611cb0565b73ffffffffffffffffffffffffffffffffffffffff16600560019054906101000a900473ffffffffffffffffffffffffffffffffffffffff1673ffffffffffffffffffffffffffffffffffffffff16146116e5576040517f08c379a00000000000000000000000000000000000000000000000000000000081526004018080602001828103825260208152602001807f4f776e61626c653a2063616c6c6572206973206e6f7420746865206f776e657281525060200191505060405180910390fd5b80156117f157600073ffffffffffffffffffffffffffffffffffffffff16600760009054906101000a900473ffffffffffffffffffffffffffffffffffffffff1673ffffffffffffffffffffffffffffffffffffffff16146117af576040517f08c379a00000000000000000000000000000000000000000000000000000000081526004018080602001828103825260178152602001807f747265617375727920697320616c72656164792073657400000000000000000081525060200191505060405180910390fd5b81600760006101000a81548173ffffffffffffffffffffffffffffffffffffffff021916908373ffffffffffffffffffffffffffffffffffffffff1602179055505b6001600660008473ffffffffffffffffffffffffffffffffffffffff1673ffffffffffffffffffffffffffffffffffffffff16815260200190815260200160002060006101000a81548160ff0219169083151502179055507fa850ae9193f515cbae8d35e8925bd2be26627fc91bce650b8652ed254e9cab0382604051808273ffffffffffffffffffffffffffffffffffffffff16815260200191505060405180910390a15050565b6000600160008473ffffffffffffffffffffffffffffffffffffffff1673ffffffffffffffffffffffffffffffffffffffff16815260200190815260200160002060008373ffffffffffffffffffffffffffffffffffffffff1673ffffffffffffffffffffffffffffffffffffffff16815260200190815260200160002054905092915050565b611929611cb0565b73ffffffffffffffffffffffffffffffffffffffff16600560019054906101000a900473ffffffffffffffffffffffffffffffffffffffff1673ffffffffffffffffffffffffffffffffffffffff16146119eb576040517f08c379a00000000000000000000000000000000000000000000000000000000081526004018080602001828103825260208152602001807f4f776e61626c653a2063616c6c6572206973206e6f7420746865206f776e657281525060200191505060405180910390fd5b600073ffffffffffffffffffffffffffffffffffffffff168173ffffffffffffffffffffffffffffffffffffffff161415611a71576040517f08c379a00000000000000000000000000000000000000000000000000000000081526004018080602001828103825260268152602001806123f76026913960400191505060405180910390fd5b8073ffffffffffffffffffffffffffffffffffffffff16600560019054906101000a900473ffffffffffffffffffffffffffffffffffffffff1673ffffffffffffffffffffffffffffffffffffffff167f8be0079c531659141344cd1fd0a4f28419497f9722a3daafe3b4186f6b6457e060405160405180910390a380600560016101000a81548173ffffffffffffffffffffffffffffffffffffffff021916908373ffffffffffffffffffffffffffffffffffffffff16021790555050565b600080828401905083811015611baf576040517f08c379a000000000000000000000000000000000000000000000000000000000815260040180806020018281038252601b8152602001807f536166654d6174683a206164646974696f6e206f766572666c6f77000000000081525060200191505060405180910390fd5b8091505092915050565b6000611bcd611bc6611cb0565b8484611e56565b6001905092915050565b6000611be484848461204d565b611ca584611bf0611cb0565b611ca08560405180606001604052806028815260200161246560289139600160008b73ffffffffffffffffffffffffffffffffffffffff1673ffffffffffffffffffffffffffffffffffffffff1681526020019081526020016000206000611c56611cb0565b73ffffffffffffffffffffffffffffffffffffffff1673ffffffffffffffffffffffffffffffffffffffff1681526020019081526020016000205461230e9092919063ffffffff16565b611e56565b600190509392505050565b600033905090565b6000611d61611cc5611cb0565b84611d5c8560016000611cd6611cb0565b73ffffffffffffffffffffffffffffffffffffffff1673ffffffffffffffffffffffffffffffffffffffff16815260200190815260200160002060008973ffffffffffffffffffffffffffffffffffffffff1673ffffffffffffffffffffffffffffffffffffffff16815260200190815260200160002054611b3190919063ffffffff16565b611e56565b6001905092915050565b6000611e2e611d78611cb0565b84611e29856040518060600160405280602581526020016124d66025913960016000611da2611cb0565b73ffffffffffffffffffffffffffffffffffffffff1673ffffffffffffffffffffffffffffffffffffffff16815260200190815260200160002060008a73ffffffffffffffffffffffffffffffffffffffff1673ffffffffffffffffffffffffffffffffffffffff1681526020019081526020016000205461230e9092919063ffffffff16565b611e56565b6001905092915050565b6000611e4c611e45611cb0565b848461204d565b6001905092915050565b600073ffffffffffffffffffffffffffffffffffffffff168373ffffffffffffffffffffffffffffffffffffffff161415611edc576040517f08c379a00000000000000000000000000000000000000000000000000000000081526004018080602001828103825260248152602001806124b26024913960400191505060405180910390fd5b600073ffffffffffffffffffffffffffffffffffffffff168273ffffffffffffffffffffffffffffffffffffffff161415611f62576040517f08c379a000000000000000000000000000000000000000000000000000000000815260040180806020018281038252602281526020018061241d6022913960400191505060405180910390fd5b80600160008573ffffffffffffffffffffffffffffffffffffffff1673ffffffffffffffffffffffffffffffffffffffff16815260200190815260200160002060008473ffffffffffffffffffffffffffffffffffffffff1673ffffffffffffffffffffffffffffffffffffffff168152602001908152602001600020819055508173ffffffffffffffffffffffffffffffffffffffff168373ffffffffffffffffffffffffffffffffffffffff167f8c5be1e5ebec7d5bd14f71427d1e84f3dd0314c0f7b2291e5b200ac8c7c3b925836040518082815260200191505060405180910390a3505050565b600073ffffffffffffffffffffffffffffffffffffffff168373ffffffffffffffffffffffffffffffffffffffff1614156120d3576040517f08c379a000000000000000000000000000000000000000000000000000000000815260040180806020018281038252602581526020018061248d6025913960400191505060405180910390fd5b600073ffffffffffffffffffffffffffffffffffffffff168273ffffffffffffffffffffffffffffffffffffffff161415612159576040517f08c379a00000000000000000000000000000000000000000000000000000000081526004018080602001828103825260238152602001806123d46023913960400191505060405180910390fd5b6121648383836123ce565b6121cf8160405180606001604052806026815260200161243f602691396000808773ffffffffffffffffffffffffffffffffffffffff1673ffffffffffffffffffffffffffffffffffffffff1681526020019081526020016000205461230e9092919063ffffffff16565b6000808573ffffffffffffffffffffffffffffffffffffffff1673ffffffffffffffffffffffffffffffffffffffff16815260200190815260200160002081905550612262816000808573ffffffffffffffffffffffffffffffffffffffff1673ffffffffffffffffffffffffffffffffffffffff16815260200190815260200160002054611b3190919063ffffffff16565b6000808473ffffffffffffffffffffffffffffffffffffffff1673ffffffffffffffffffffffffffffffffffffffff168152602001908152602001600020819055508173ffffffffffffffffffffffffffffffffffffffff168373ffffffffffffffffffffffffffffffffffffffff167fddf252ad1be2c89b69c2b068fc378daa952ba7f163c4a11628f55a4df523b3ef836040518082815260200191505060405180910390a3505050565b60008383111582906123bb576040517f08c379a00000000000000000000000000000000000000000000000000000000081526004018080602001828103825283818151815260200191508051906020019080838360005b83811015612380578082015181840152602081019050612365565b50505050905090810190601f1680156123ad5780820380516001836020036101000a031916815260200191505b509250505060405180910390fd5b5060008385039050809150509392505050565b50505056fe45524332303a207472616e7366657220746f20746865207a65726f20616464726573734f776e61626c653a206e6577206f776e657220697320746865207a65726f206164647265737345524332303a20617070726f766520746f20746865207a65726f206164647265737345524332303a207472616e7366657220616d6f756e7420657863656564732062616c616e636545524332303a207472616e7366657220616d6f756e74206578636565647320616c6c6f77616e636545524332303a207472616e736665722066726f6d20746865207a65726f206164647265737345524332303a20617070726f76652066726f6d20746865207a65726f206164647265737345524332303a2064656372656173656420616c6c6f77616e63652062656c6f77207a65726fa2646970667358221220d5a68a77b06e4c9c5c52a7f008803ab596841b8c4151b0d858bedca38916af9d64736f6c6343000704003360806040523480156200001157600080fd5b5060405162003bdf38038062003bdf833981810160405281019062000037919062000335565b600062000049620002ff60201b60201c565b9050806000806101000a81548173ffffffffffffffffffffffffffffffffffffffff021916908373ffffffffffffffffffffffffffffffffffffffff1602179055508073ffffffffffffffffffffffffffffffffffffffff16600073ffffffffffffffffffffffffffffffffffffffff167f8be0079c531659141344cd1fd0a4f28419497f9722a3daafe3b4186f6b6457e060405160405180910390a350620000f7620002ff60201b60201c565b600460026101000a81548173ffffffffffffffffffffffffffffffffffffffff021916908373ffffffffffffffffffffffffffffffffffffffff1602179055506000600460006101000a81548160ff02191690831515021790555085600460016101000a81548160ff021916908360028111156200017157fe5b021790555084600660006101000a81548173ffffffffffffffffffffffffffffffffffffffff021916908373ffffffffffffffffffffffffffffffffffffffff16021790555083600560006101000a81548173ffffffffffffffffffffffffffffffffffffffff021916908373ffffffffffffffffffffffffffffffffffffffff16021790555080600160006101000a81548173ffffffffffffffffffffffffffffffffffffffff021916908373ffffffffffffffffffffffffffffffffffffffff1602179055508260026040516200024a906200044f565b908152602001604051809103902060006101000a81548173ffffffffffffffffffffffffffffffffffffffff021916908373ffffffffffffffffffffffffffffffffffffffff160217905550816002604051620002a79062000466565b908152602001604051809103902060006101000a81548173ffffffffffffffffffffffffffffffffffffffff021916908373ffffffffffffffffffffffffffffffffffffffff160217905550505050505050620004e7565b600033905090565b6000815190506200031881620004bc565b92915050565b6000815190506200032f81620004d6565b92915050565b60008060008060008060c087890312156200034f57600080fd5b60006200035f89828a016200031e565b96505060206200037289828a0162000307565b95505060406200038589828a0162000307565b94505060606200039889828a0162000307565b9350506080620003ab89828a0162000307565b92505060a0620003be89828a0162000307565b9150509295509295509295565b6000620003da6003836200047d565b91507f44414900000000000000000000000000000000000000000000000000000000006000830152600382019050919050565b60006200041c6004836200047d565b91507f55534443000000000000000000000000000000000000000000000000000000006000830152600482019050919050565b60006200045c82620003cb565b9150819050919050565b600062000473826200040d565b9150819050919050565b600081905092915050565b600062000495826200049c565b9050919050565b600073ffffffffffffffffffffffffffffffffffffffff82169050919050565b620004c78162000488565b8114620004d357600080fd5b50565b60038110620004e457600080fd5b50565b6136e880620004f76000396000f3fe608060405234801561001057600080fd5b50600436106102105760003560e01c80638da5cb5b11610125578063d0e0ba95116100ad578063e9999b031161007c578063e9999b03146105cb578063eaad31e1146105e9578063ef37113314610607578063f2fde38b14610625578063fc0c546a1461064157610210565b8063d0e0ba9514610557578063d33219b414610573578063dc1fb5a514610591578063e377672e146105af57610210565b8063a46eddcf116100f4578063a46eddcf146104b5578063af640d0f146104d1578063bc1c2c29146104ef578063bdc5a9561461051f578063c79013781461053b57610210565b80638da5cb5b1461041b5780639963ae8c146104395780639ab9c819146104555780639c28b1991461048557610210565b806339327e9e116101a857806363a5d2981161017757806363a5d298146103ad5780636f2ddd93146103b7578063715018a6146103d557806371586383146103df578063785ffb37146103fd57610210565b806339327e9e146103375780634162169f1461035557806346f98fec1461037357806348f650071461037d57610210565b806320628b48116101e457806320628b4814610289578063247e9e86146102b95780632bdef29b146102e95780633705abf11461030757610210565b8062f418f41461021557806303eeedfb1461021f578063107046bd1461023d57806315da0b021461026d575b600080fd5b61021d61065f565b005b6102276106f2565b6040516102349190613341565b60405180910390f35b61025760048036038101906102529190612af8565b6106f8565b6040516102649190612fe6565b60405180910390f35b61028760048036038101906102829190612970565b610737565b005b6102a3600480360381019061029e9190612af8565b6109bc565b6040516102b09190612fe6565b60405180910390f35b6102d360048036038101906102ce91906129c2565b6109fd565b6040516102e09190613341565b60405180910390f35b6102f1610a84565b6040516102fe91906130f1565b60405180910390f35b610321600480360381019061031c9190612a63565b610a97565b60405161032e9190612fe6565b60405180910390f35b61033f610ae0565b60405161034c9190613127565b60405180910390f35b61035d610b06565b60405161036a9190613142565b60405180910390f35b61037b610b2c565b005b61039760048036038101906103929190612970565b610c20565b6040516103a491906130cf565b60405180910390f35b6103b5610cb7565b005b6103bf610e2e565b6040516103cc9190613178565b60405180910390f35b6103dd610e41565b005b6103e7610fc7565b6040516103f49190613341565b60405180910390f35b610405610fcd565b6040516104129190613341565b60405180910390f35b610423610fd3565b6040516104309190612fe6565b60405180910390f35b610453600480360381019061044e9190612aa4565b610ffc565b005b61046f600480360381019061046a91906129fe565b6115fc565b60405161047c9190613341565b60405180910390f35b61049f600480360381019061049a91906129c2565b61162d565b6040516104ac9190613341565b60405180910390f35b6104cf60048036038101906104ca9190612970565b611652565b005b6104d96117e5565b6040516104e69190613341565b60405180910390f35b61050960048036038101906105049190612970565b6117eb565b6040516105169190613341565b60405180910390f35b61053960048036038101906105349190612aa4565b611803565b005b610555600480360381019061055091906129fe565b611a38565b005b610571600480360381019061056c9190612af8565b611a3c565b005b61057b611c99565b604051610588919061315d565b60405180910390f35b610599611cbf565b6040516105a69190612fe6565b60405180910390f35b6105c960048036038101906105c49190612b4a565b611ce5565b005b6105d361228e565b6040516105e09190613341565b60405180910390f35b6105f1612294565b6040516105fe9190613341565b60405180910390f35b61060f6122a1565b60405161061c9190613341565b60405180910390f35b61063f600480360381019061063a9190612970565b612353565b005b61064961255e565b604051610656919061310c565b60405180910390f35b600b60149054906101000a900460ff16156106af576040517f08c379a00000000000000000000000000000000000000000000000000000000081526004016106a690613241565b60405180910390fd5b33600b60006101000a81548173ffffffffffffffffffffffffffffffffffffffff021916908373ffffffffffffffffffffffffffffffffffffffff160217905550565b60075481565b6009818154811061070857600080fd5b906000526020600020016000915054906101000a900473ffffffffffffffffffffffffffffffffffffffff1681565b61073f612584565b73ffffffffffffffffffffffffffffffffffffffff1660008054906101000a900473ffffffffffffffffffffffffffffffffffffffff1673ffffffffffffffffffffffffffffffffffffffff16146107ff576040517f08c379a00000000000000000000000000000000000000000000000000000000081526004018080602001828103825260208152602001807f4f776e61626c653a2063616c6c6572206973206e6f7420746865206f776e657281525060200191505060405180910390fd5b600460009054906101000a900460ff161561084f576040517f08c379a000000000000000000000000000000000000000000000000000000000815260040161084690613301565b60405180910390fd5b80600460026101000a81548173ffffffffffffffffffffffffffffffffffffffff021916908373ffffffffffffffffffffffffffffffffffffffff160217905550600660009054906101000a900473ffffffffffffffffffffffffffffffffffffffff1673ffffffffffffffffffffffffffffffffffffffff1663095ea7b3600460029054906101000a900473ffffffffffffffffffffffffffffffffffffffff167fffffffffffffffffffffffffffffffffffffffffffffffffffffffffffffffff6040518363ffffffff1660e01b815260040161092f929190613053565b602060405180830381600087803b15801561094957600080fd5b505af115801561095d573d6000803e3d6000fd5b505050506040513d601f19601f820116820180604052508101906109819190612a3a565b507fb954b00fb708b65e61e5af666f5ce5050a9a566a4c6cc31e34fb24d03459106f816040516109b19190612fe6565b60405180910390a150565b6000600982815481106109cb57fe5b9060005260206000200160009054906101000a900473ffffffffffffffffffffffffffffffffffffffff169050919050565b6000600c60008473ffffffffffffffffffffffffffffffffffffffff1673ffffffffffffffffffffffffffffffffffffffff16815260200190815260200160002060008373ffffffffffffffffffffffffffffffffffffffff1673ffffffffffffffffffffffffffffffffffffffff16815260200190815260200160002054905092915050565b600b60149054906101000a900460ff1681565b6002818051602081018201805184825260208301602085012081835280955050505050506000915054906101000a900473ffffffffffffffffffffffffffffffffffffffff1681565b600160009054906101000a900473ffffffffffffffffffffffffffffffffffffffff1681565b600560009054906101000a900473ffffffffffffffffffffffffffffffffffffffff1681565b600660009054906101000a900473ffffffffffffffffffffffffffffffffffffffff1673ffffffffffffffffffffffffffffffffffffffff1663095ea7b3600460029054906101000a900473ffffffffffffffffffffffffffffffffffffffff167fffffffffffffffffffffffffffffffffffffffffffffffffffffffffffffffff6040518363ffffffff1660e01b8152600401610bcb929190613053565b602060405180830381600087803b158015610be557600080fd5b505af1158015610bf9573d6000803e3d6000fd5b505050506040513d601f19601f82011682018060405250810190610c1d9190612a3a565b50565b6060600a60008373ffffffffffffffffffffffffffffffffffffffff1673ffffffffffffffffffffffffffffffffffffffff168152602001908152602001600020805480602002602001604051908101604052809291908181526020018280548015610cab57602002820191906000526020600020905b815481526020019060010190808311610c97575b50505050509050919050565b610cbf612584565b73ffffffffffffffffffffffffffffffffffffffff1660008054906101000a900473ffffffffffffffffffffffffffffffffffffffff1673ffffffffffffffffffffffffffffffffffffffff1614610d7f576040517f08c379a00000000000000000000000000000000000000000000000000000000081526004018080602001828103825260208152602001807f4f776e61626c653a2063616c6c6572206973206e6f7420746865206f776e657281525060200191505060405180910390fd5b600073ffffffffffffffffffffffffffffffffffffffff16600b60009054906101000a900473ffffffffffffffffffffffffffffffffffffffff1673ffffffffffffffffffffffffffffffffffffffff161415610e11576040517f08c379a0000000000000000000000000000000000000000000000000000000008152600401610e0890613321565b60405180910390fd5b6001600b60146101000a81548160ff021916908315150217905550565b600460019054906101000a900460ff1681565b610e49612584565b73ffffffffffffffffffffffffffffffffffffffff1660008054906101000a900473ffffffffffffffffffffffffffffffffffffffff1673ffffffffffffffffffffffffffffffffffffffff1614610f09576040517f08c379a00000000000000000000000000000000000000000000000000000000081526004018080602001828103825260208152602001807f4f776e61626c653a2063616c6c6572206973206e6f7420746865206f776e657281525060200191505060405180910390fd5b600073ffffffffffffffffffffffffffffffffffffffff1660008054906101000a900473ffffffffffffffffffffffffffffffffffffffff1673ffffffffffffffffffffffffffffffffffffffff167f8be0079c531659141344cd1fd0a4f28419497f9722a3daafe3b4186f6b6457e060405160405180910390a360008060006101000a81548173ffffffffffffffffffffffffffffffffffffffff021916908373ffffffffffffffffffffffffffffffffffffffff160217905550565b60085481565b610f0081565b60008060009054906101000a900473ffffffffffffffffffffffffffffffffffffffff16905090565b600b60149054906101000a900460ff1661104b576040517f08c379a000000000000000000000000000000000000000000000000000000000815260040161104290613221565b60405180910390fd5b600060028360405161105d9190612fcf565b908152602001604051809103902060009054906101000a900473ffffffffffffffffffffffffffffffffffffffff169050600073ffffffffffffffffffffffffffffffffffffffff168173ffffffffffffffffffffffffffffffffffffffff1614156110fe576040517f08c379a00000000000000000000000000000000000000000000000000000000081526004016110f5906132c1565b60405180910390fd5b600061111b670de0b6b3a76400008461258c90919063ffffffff16565b9050808273ffffffffffffffffffffffffffffffffffffffff166370a08231611142612584565b6040518263ffffffff1660e01b815260040161115e9190613001565b60206040518083038186803b15801561117657600080fd5b505afa15801561118a573d6000803e3d6000fd5b505050506040513d601f19601f820116820180604052508101906111ae9190612b21565b10156111ef576040517f08c379a00000000000000000000000000000000000000000000000000000000081526004016111e690613261565b60405180910390fd5b8173ffffffffffffffffffffffffffffffffffffffff166323b872dd3330846040518463ffffffff1660e01b815260040161122c9392919061301c565b602060405180830381600087803b15801561124657600080fd5b505af115801561125a573d6000803e3d6000fd5b505050506040513d601f19601f8201168201806040525081019061127e9190612a3a565b508173ffffffffffffffffffffffffffffffffffffffff1663095ea7b3600560009054906101000a900473ffffffffffffffffffffffffffffffffffffffff16836040518363ffffffff1660e01b81526004016112dc929190613053565b602060405180830381600087803b1580156112f657600080fd5b505af115801561130a573d6000803e3d6000fd5b505050506040513d601f19601f8201168201806040525081019061132e9190612a3a565b50600560009054906101000a900473ffffffffffffffffffffffffffffffffffffffff1673ffffffffffffffffffffffffffffffffffffffff1663a7829ffa858560646040518463ffffffff1660e01b815260040161138f939291906131c3565b600060405180830381600087803b1580156113a957600080fd5b505af11580156113bd573d6000803e3d6000fd5b50505050600b60009054906101000a900473ffffffffffffffffffffffffffffffffffffffff1673ffffffffffffffffffffffffffffffffffffffff16638340f5493384846040518463ffffffff1660e01b81526004016114209392919061301c565b600060405180830381600087803b15801561143a57600080fd5b505af115801561144e573d6000803e3d6000fd5b505050506114e181600c60003373ffffffffffffffffffffffffffffffffffffffff1673ffffffffffffffffffffffffffffffffffffffff16815260200190815260200160002060008573ffffffffffffffffffffffffffffffffffffffff1673ffffffffffffffffffffffffffffffffffffffff1681526020019081526020016000205461261290919063ffffffff16565b600c60003373ffffffffffffffffffffffffffffffffffffffff1673ffffffffffffffffffffffffffffffffffffffff16815260200190815260200160002060008473ffffffffffffffffffffffffffffffffffffffff1673ffffffffffffffffffffffffffffffffffffffff168152602001908152602001600020819055506115b381600d60008573ffffffffffffffffffffffffffffffffffffffff1673ffffffffffffffffffffffffffffffffffffffff1681526020019081526020016000205461261290919063ffffffff16565b600d60008473ffffffffffffffffffffffffffffffffffffffff1673ffffffffffffffffffffffffffffffffffffffff1681526020019081526020016000208190555050505050565b600a602052816000526040600020818154811061161857600080fd5b90600052602060002001600091509150505481565b600c602052816000526040600020602052806000526040600020600091509150505481565b61165a612584565b73ffffffffffffffffffffffffffffffffffffffff1660008054906101000a900473ffffffffffffffffffffffffffffffffffffffff1673ffffffffffffffffffffffffffffffffffffffff161461171a576040517f08c379a00000000000000000000000000000000000000000000000000000000081526004018080602001828103825260208152602001807f4f776e61626c653a2063616c6c6572206973206e6f7420746865206f776e657281525060200191505060405180910390fd5b600460009054906101000a900460ff161561176a576040517f08c379a000000000000000000000000000000000000000000000000000000000815260040161176190613301565b60405180910390fd5b80600560006101000a81548173ffffffffffffffffffffffffffffffffffffffff021916908373ffffffffffffffffffffffffffffffffffffffff1602179055507f181dccb510f27d9c2608cbef86fad60ab59d126bc8782ea2f21763607ec41739816040516117da9190612fe6565b60405180910390a150565b60035481565b600d6020528060005260406000206000915090505481565b6000600160009054906101000a900473ffffffffffffffffffffffffffffffffffffffff1673ffffffffffffffffffffffffffffffffffffffff16630261bf8b6040518163ffffffff1660e01b815260040160206040518083038186803b15801561186d57600080fd5b505afa158015611881573d6000803e3d6000fd5b505050506040513d601f19601f820116820180604052508101906118a59190612999565b905060006002846040516118b99190612fcf565b908152602001604051809103902060009054906101000a900473ffffffffffffffffffffffffffffffffffffffff169050600073ffffffffffffffffffffffffffffffffffffffff168173ffffffffffffffffffffffffffffffffffffffff16141561195a576040517f08c379a0000000000000000000000000000000000000000000000000000000008152600401611951906132c1565b60405180910390fd5b8173ffffffffffffffffffffffffffffffffffffffff1663a415bcad828560016000600560009054906101000a900473ffffffffffffffffffffffffffffffffffffffff166040518663ffffffff1660e01b81526004016119bf95949392919061307c565b600060405180830381600087803b1580156119d957600080fd5b505af11580156119ed573d6000803e3d6000fd5b505050506119f961269a565b7ffc30ec1bee3b4fb527f0d90b4bbbf5a24b72f0964679ff277df1895e8ad239578484604051611a2a929190613193565b60405180910390a150505050565b5050565b600560009054906101000a900473ffffffffffffffffffffffffffffffffffffffff1673ffffffffffffffffffffffffffffffffffffffff163373ffffffffffffffffffffffffffffffffffffffff1614611acc576040517f08c379a0000000000000000000000000000000000000000000000000000000008152600401611ac3906132e1565b60405180910390fd5b600460009054906101000a900460ff1615611b1c576040517f08c379a0000000000000000000000000000000000000000000000000000000008152600401611b1390613301565b60405180910390fd5b600073ffffffffffffffffffffffffffffffffffffffff16600460029054906101000a900473ffffffffffffffffffffffffffffffffffffffff1673ffffffffffffffffffffffffffffffffffffffff161415611bae576040517f08c379a0000000000000000000000000000000000000000000000000000000008152600401611ba590613281565b60405180910390fd5b806003819055506001600460006101000a81548160ff0219169083151502179055507fc72e55068a99063a2c847c0b87d2808f29d1935171e54ffa3a479533b4046b7481604051611bff9190613341565b60405180910390a1600460029054906101000a900473ffffffffffffffffffffffffffffffffffffffff1673ffffffffffffffffffffffffffffffffffffffff1663d0e0ba956003546040518263ffffffff1660e01b8152600401611c649190613341565b600060405180830381600087803b158015611c7e57600080fd5b505af1158015611c92573d6000803e3d6000fd5b5050505050565b600b60009054906101000a900473ffffffffffffffffffffffffffffffffffffffff1681565b600460029054906101000a900473ffffffffffffffffffffffffffffffffffffffff1681565b600460029054906101000a900473ffffffffffffffffffffffffffffffffffffffff1673ffffffffffffffffffffffffffffffffffffffff16611d26612584565b73ffffffffffffffffffffffffffffffffffffffff1614611d7c576040517f08c379a0000000000000000000000000000000000000000000000000000000008152600401611d7390613201565b60405180910390fd5b600073ffffffffffffffffffffffffffffffffffffffff168173ffffffffffffffffffffffffffffffffffffffff161415611dec576040517f08c379a0000000000000000000000000000000000000000000000000000000008152600401611de3906132a1565b60405180910390fd5b600660009054906101000a900473ffffffffffffffffffffffffffffffffffffffff1673ffffffffffffffffffffffffffffffffffffffff166323b872dd611e32612584565b30611e4e670de0b6b3a76400008761258c90919063ffffffff16565b6040518463ffffffff1660e01b8152600401611e6c9392919061301c565b602060405180830381600087803b158015611e8657600080fd5b505af1158015611e9a573d6000803e3d6000fd5b505050506040513d601f19601f82011682018060405250810190611ebe9190612a3a565b506000600660009054906101000a900473ffffffffffffffffffffffffffffffffffffffff1673ffffffffffffffffffffffffffffffffffffffff166370a08231306040518263ffffffff1660e01b8152600401611f1c9190612fe6565b60206040518083038186803b158015611f3457600080fd5b505afa158015611f48573d6000803e3d6000fd5b505050506040513d601f19601f82011682018060405250810190611f6c9190612b21565b9050600a60008373ffffffffffffffffffffffffffffffffffffffff1673ffffffffffffffffffffffffffffffffffffffff168152602001908152602001600020611fc8670de0b6b3a76400008561258c90919063ffffffff16565b9080600181540180825580915050600190039060005260206000200160009091909190915055612004600160075461261290919063ffffffff16565b5061201a8360085461261290919063ffffffff16565b50612038670de0b6b3a7640000610f0061258c90919063ffffffff16565b811061224f57600061206f612060670de0b6b3a76400006107d061258c90919063ffffffff16565b8361274a90919063ffffffff16565b9050600560009054906101000a900473ffffffffffffffffffffffffffffffffffffffff1673ffffffffffffffffffffffffffffffffffffffff166305f9c5976003546040518263ffffffff1660e01b81526004016120ce9190613341565b600060405180830381600087803b1580156120e857600080fd5b505af11580156120fc573d6000803e3d6000fd5b505050507f78cd33486287c682aa18f13badc425b37df2158a72b64ecfe2fa765f62c93430848460405161213192919061335c565b60405180910390a17facd3dbb848fad50d312987d285e88fdc140a8385c5c568117c79d1437d8be32e6121626122a1565b60405161216f9190613341565b60405180910390a1600660009054906101000a900473ffffffffffffffffffffffffffffffffffffffff1673ffffffffffffffffffffffffffffffffffffffff1663a9059cbb600460029054906101000a900473ffffffffffffffffffffffffffffffffffffffff16836040518363ffffffff1660e01b81526004016121f6929190613053565b602060405180830381600087803b15801561221057600080fd5b505af1158015612224573d6000803e3d6000fd5b505050506040513d601f19601f820116820180604052508101906122489190612a3a565b5050612289565b7f78cd33486287c682aa18f13badc425b37df2158a72b64ecfe2fa765f62c93430838360405161228092919061335c565b60405180910390a15b505050565b6107d081565b6000600980549050905090565b6000600660009054906101000a900473ffffffffffffffffffffffffffffffffffffffff1673ffffffffffffffffffffffffffffffffffffffff166370a08231306040518263ffffffff1660e01b81526004016122fe9190612fe6565b60206040518083038186803b15801561231657600080fd5b505afa15801561232a573d6000803e3d6000fd5b505050506040513d601f19601f8201168201806040525081019061234e9190612b21565b905090565b61235b612584565b73ffffffffffffffffffffffffffffffffffffffff1660008054906101000a900473ffffffffffffffffffffffffffffffffffffffff1673ffffffffffffffffffffffffffffffffffffffff161461241b576040517f08c379a00000000000000000000000000000000000000000000000000000000081526004018080602001828103825260208152602001807f4f776e61626c653a2063616c6c6572206973206e6f7420746865206f776e657281525060200191505060405180910390fd5b600073ffffffffffffffffffffffffffffffffffffffff168173ffffffffffffffffffffffffffffffffffffffff1614156124a1576040517f08c379a000000000000000000000000000000000000000000000000000000000815260040180806020018281038252602681526020018061366c6026913960400191505060405180910390fd5b8073ffffffffffffffffffffffffffffffffffffffff1660008054906101000a900473ffffffffffffffffffffffffffffffffffffffff1673ffffffffffffffffffffffffffffffffffffffff167f8be0079c531659141344cd1fd0a4f28419497f9722a3daafe3b4186f6b6457e060405160405180910390a3806000806101000a81548173ffffffffffffffffffffffffffffffffffffffff021916908373ffffffffffffffffffffffffffffffffffffffff16021790555050565b600660009054906101000a900473ffffffffffffffffffffffffffffffffffffffff1681565b600033905090565b60008083141561259f576000905061260c565b60008284029050828482816125b057fe5b0414612607576040517f08c379a00000000000000000000000000000000000000000000000000000000081526004018080602001828103825260218152602001806136926021913960400191505060405180910390fd5b809150505b92915050565b600080828401905083811015612690576040517f08c379a000000000000000000000000000000000000000000000000000000000815260040180806020018281038252601b8152602001807f536166654d6174683a206164646974696f6e206f766572666c6f77000000000081525060200191505060405180910390fd5b8091505092915050565b60005b60098054905081101561273957600a6000600983815481106126bb57fe5b9060005260206000200160009054906101000a900473ffffffffffffffffffffffffffffffffffffffff1673ffffffffffffffffffffffffffffffffffffffff1673ffffffffffffffffffffffffffffffffffffffff168152602001908152602001600020600061272c9190612854565b808060010191505061269d565b50600960006127489190612875565b565b600061278c83836040518060400160405280601e81526020017f536166654d6174683a207375627472616374696f6e206f766572666c6f770000815250612794565b905092915050565b6000838311158290612841576040517f08c379a00000000000000000000000000000000000000000000000000000000081526004018080602001828103825283818151815260200191508051906020019080838360005b838110156128065780820151818401526020810190506127eb565b50505050905090810190601f1680156128335780820380516001836020036101000a031916815260200191505b509250505060405180910390fd5b5060008385039050809150509392505050565b50805460008255906000526020600020908101906128729190612896565b50565b50805460008255906000526020600020908101906128939190612896565b50565b5b808211156128af576000816000905550600101612897565b5090565b6000813590506128c281613626565b92915050565b6000815190506128d781613626565b92915050565b6000815190506128ec8161363d565b92915050565b600082601f83011261290357600080fd5b8135612916612911826133b6565b613385565b9150808252602083016020830185838301111561293257600080fd5b61293d8382846135bd565b50505092915050565b60008135905061295581613654565b92915050565b60008151905061296a81613654565b92915050565b60006020828403121561298257600080fd5b6000612990848285016128b3565b91505092915050565b6000602082840312156129ab57600080fd5b60006129b9848285016128c8565b91505092915050565b600080604083850312156129d557600080fd5b60006129e3858286016128b3565b92505060206129f4858286016128b3565b9150509250929050565b60008060408385031215612a1157600080fd5b6000612a1f858286016128b3565b9250506020612a3085828601612946565b9150509250929050565b600060208284031215612a4c57600080fd5b6000612a5a848285016128dd565b91505092915050565b600060208284031215612a7557600080fd5b600082013567ffffffffffffffff811115612a8f57600080fd5b612a9b848285016128f2565b91505092915050565b60008060408385031215612ab757600080fd5b600083013567ffffffffffffffff811115612ad157600080fd5b612add858286016128f2565b9250506020612aee85828601612946565b9150509250929050565b600060208284031215612b0a57600080fd5b6000612b1884828501612946565b91505092915050565b600060208284031215612b3357600080fd5b6000612b418482850161295b565b91505092915050565b60008060408385031215612b5d57600080fd5b6000612b6b85828601612946565b9250506020612b7c858286016128b3565b9150509250929050565b6000612b928383612fb1565b60208301905092915050565b612ba7816134af565b82525050565b612bb681613446565b82525050565b6000612bc7826133f6565b612bd18185613419565b9350612bdc836133e6565b8060005b83811015612c0d578151612bf48882612b86565b9750612bff8361340c565b925050600181019050612be0565b5085935050505092915050565b612c2381613458565b82525050565b612c32816134c1565b82525050565b612c41816134e5565b82525050565b612c5081613509565b82525050565b612c5f8161352d565b82525050565b612c6e81613551565b82525050565b612c7d81613563565b82525050565b612c8c81613575565b82525050565b612c9b81613587565b82525050565b6000612cac82613401565b612cb6818561342a565b9350612cc68185602086016135cc565b612ccf81613601565b840191505092915050565b6000612ce582613401565b612cef818561343b565b9350612cff8185602086016135cc565b80840191505092915050565b6000612d1860268361342a565b91507f4769672063616e206f6e6c7920626520636f6d706c6574656420627920636f6d60008301527f6d756e69747900000000000000000000000000000000000000000000000000006020830152604082019050919050565b6000612d7e60138361342a565b91507f74696d656c6f636b206e6f7420616374697665000000000000000000000000006000830152602082019050919050565b6000612dbe600e8361342a565b91507f616c7265616479206163746976650000000000000000000000000000000000006000830152602082019050919050565b6000612dfe60148361342a565b91507f6e6f7420656e6f756768206f776e2066756e64730000000000000000000000006000830152602082019050919050565b6000612e3e60148361342a565b91507f636f6d6d756e697479206973206e6f74207365740000000000000000000000006000830152602082019050919050565b6000612e7e60188361342a565b91507f6e6f2070726f6a65637420666f72206d696c6573746f6e6500000000000000006000830152602082019050919050565b6000612ebe60168361342a565b91507f63757272656e6379206e6f7420737570706f72746564000000000000000000006000830152602082019050919050565b6000612efe601c8361342a565b91507f6f6e6c792074726561737572792064616f2063616e20736574206964000000006000830152602082019050919050565b6000612f3e601a8361342a565b91507f747265617375727920697320616c7265616479206c696e6b65640000000000006000830152602082019050919050565b6000612f7e60078361342a565b91507f6e6f7420736574000000000000000000000000000000000000000000000000006000830152602082019050919050565b612fba816134a5565b82525050565b612fc9816134a5565b82525050565b6000612fdb8284612cda565b915081905092915050565b6000602082019050612ffb6000830184612bad565b92915050565b60006020820190506130166000830184612b9e565b92915050565b60006060820190506130316000830186612b9e565b61303e6020830185612bad565b61304b6040830184612fc0565b949350505050565b60006040820190506130686000830185612bad565b6130756020830184612fc0565b9392505050565b600060a0820190506130916000830188612bad565b61309e6020830187612fc0565b6130ab6040830186612c92565b6130b86060830185612c74565b6130c56080830184612bad565b9695505050505050565b600060208201905081810360008301526130e98184612bbc565b905092915050565b60006020820190506131066000830184612c1a565b92915050565b60006020820190506131216000830184612c29565b92915050565b600060208201905061313c6000830184612c38565b92915050565b60006020820190506131576000830184612c47565b92915050565b60006020820190506131726000830184612c56565b92915050565b600060208201905061318d6000830184612c65565b92915050565b600060408201905081810360008301526131ad8185612ca1565b90506131bc6020830184612fc0565b9392505050565b600060608201905081810360008301526131dd8186612ca1565b90506131ec6020830185612fc0565b6131f96040830184612c83565b949350505050565b6000602082019050818103600083015261321a81612d0b565b9050919050565b6000602082019050818103600083015261323a81612d71565b9050919050565b6000602082019050818103600083015261325a81612db1565b9050919050565b6000602082019050818103600083015261327a81612df1565b9050919050565b6000602082019050818103600083015261329a81612e31565b9050919050565b600060208201905081810360008301526132ba81612e71565b9050919050565b600060208201905081810360008301526132da81612eb1565b9050919050565b600060208201905081810360008301526132fa81612ef1565b9050919050565b6000602082019050818103600083015261331a81612f31565b9050919050565b6000602082019050818103600083015261333a81612f71565b9050919050565b60006020820190506133566000830184612fc0565b92915050565b60006040820190506133716000830185612fc0565b61337e6020830184612bad565b9392505050565b6000604051905081810181811067ffffffffffffffff821117156133ac576133ab6135ff565b5b8060405250919050565b600067ffffffffffffffff8211156133d1576133d06135ff565b5b601f19601f8301169050602081019050919050565b6000819050602082019050919050565b600081519050919050565b600081519050919050565b6000602082019050919050565b600082825260208201905092915050565b600082825260208201905092915050565b600081905092915050565b600061345182613485565b9050919050565b60008115159050919050565b600081905061347282613612565b919050565b600061ffff82169050919050565b600073ffffffffffffffffffffffffffffffffffffffff82169050919050565b6000819050919050565b60006134ba82613599565b9050919050565b60006134cc826134d3565b9050919050565b60006134de82613485565b9050919050565b60006134f0826134f7565b9050919050565b600061350282613485565b9050919050565b60006135148261351b565b9050919050565b600061352682613485565b9050919050565b60006135388261353f565b9050919050565b600061354a82613485565b9050919050565b600061355c82613464565b9050919050565b600061356e82613477565b9050919050565b6000613580826134a5565b9050919050565b6000613592826134a5565b9050919050565b60006135a4826135ab565b9050919050565b60006135b682613485565b9050919050565b82818337600083830152505050565b60005b838110156135ea5780820151818401526020810190506135cf565b838111156135f9576000848401525b50505050565bfe5b6000601f19601f8301169050919050565b60038110613623576136226135ff565b5b50565b61362f81613446565b811461363a57600080fd5b50565b61364681613458565b811461365157600080fd5b50565b61365d816134a5565b811461366857600080fd5b5056fe4f776e61626c653a206e6577206f776e657220697320746865207a65726f2061646472657373536166654d6174683a206d756c7469706c69636174696f6e206f766572666c6f77a2646970667358221220e657945281bc5863ff362db4ab80f0f5f1ec951c685f6e778f2df89248ee7f0864736f6c63430007040033536166654d6174683a206d756c7469706c69636174696f6e206f766572666c6f77",
  "linkReferences": {},
  "deployedLinkReferences": {}
}