{
  "_format": "hh-sol-artifact-1",
  "contractName": "Community",
  "sourceName": "contracts/Community.sol",
  "abi": [
    {
      "inputs": [
        {
          "internalType": "enum DataTypes.CommunityTemplate",
          "name": "_template",
          "type": "uint8"
        },
        {
          "internalType": "address",
          "name": "_dai",
          "type": "address"
        },
        {
          "internalType": "address",
          "name": "_usdc",
          "type": "address"
        },
        {
          "internalType": "address",
          "name": "_tokenFactory",
          "type": "address"
        },
        {
          "internalType": "address",
          "name": "_treasuryFactory",
          "type": "address"
        },
        {
          "internalType": "address",
          "name": "_lendingPoolAP",
          "type": "address"
        },
        {
          "internalType": "address",
          "name": "_forwarder",
          "type": "address"
        }
      ],
      "stateMutability": "nonpayable",
      "type": "constructor"
    },
    {
      "anonymous": false,
      "inputs": [
        {
          "indexed": false,
          "internalType": "address",
          "name": "_registry",
          "type": "address"
        }
      ],
      "name": "GigRegistrySet",
      "type": "event"
    },
    {
      "anonymous": false,
      "inputs": [
        {
          "indexed": false,
          "internalType": "uint256",
          "name": "_id",
          "type": "uint256"
        }
      ],
      "name": "IdSet",
      "type": "event"
    },
    {
      "anonymous": false,
      "inputs": [
        {
          "indexed": false,
          "internalType": "address",
          "name": "_member",
          "type": "address"
        },
        {
          "indexed": false,
          "internalType": "uint256",
          "name": "_transferredTokens",
          "type": "uint256"
        }
      ],
      "name": "MemberAdded",
      "type": "event"
    },
    {
      "anonymous": false,
      "inputs": [
        {
          "indexed": false,
          "internalType": "address",
          "name": "_member",
          "type": "address"
        }
      ],
      "name": "MemberRemoved",
      "type": "event"
    },
    {
      "anonymous": false,
      "inputs": [
        {
          "indexed": true,
          "internalType": "address",
          "name": "previousOwner",
          "type": "address"
        },
        {
          "indexed": true,
          "internalType": "address",
          "name": "newOwner",
          "type": "address"
        }
      ],
      "name": "OwnershipTransferred",
      "type": "event"
    },
    {
      "anonymous": false,
      "inputs": [
        {
          "indexed": false,
          "internalType": "address",
          "name": "_treasury",
          "type": "address"
        }
      ],
      "name": "TreasurySet",
      "type": "event"
    },
    {
      "inputs": [],
      "name": "IDENTITY",
      "outputs": [
        {
          "internalType": "bytes4",
          "name": "",
          "type": "bytes4"
        }
      ],
      "stateMutability": "view",
      "type": "function"
    },
    {
      "inputs": [],
      "name": "INIT_TOKENS",
      "outputs": [
        {
          "internalType": "uint256",
          "name": "",
          "type": "uint256"
        }
      ],
      "stateMutability": "view",
      "type": "function"
    },
    {
      "inputs": [],
      "name": "activateTreasuryTimelock",
      "outputs": [],
      "stateMutability": "nonpayable",
      "type": "function"
    },
    {
      "inputs": [],
      "name": "communityTreasury",
      "outputs": [
        {
          "internalType": "address",
          "name": "",
          "type": "address"
        }
      ],
      "stateMutability": "view",
      "type": "function"
    },
    {
      "inputs": [
        {
          "internalType": "uint256",
          "name": "_amount",
          "type": "uint256"
        },
        {
          "internalType": "address",
          "name": "_project",
          "type": "address"
        }
      ],
      "name": "completeGig",
      "outputs": [],
      "stateMutability": "nonpayable",
      "type": "function"
    },
    {
      "inputs": [
        {
          "internalType": "uint256",
          "name": "",
          "type": "uint256"
        }
      ],
      "name": "depositableCurrencies",
      "outputs": [
        {
          "internalType": "string",
          "name": "",
          "type": "string"
        }
      ],
      "stateMutability": "view",
      "type": "function"
    },
    {
      "inputs": [
        {
          "internalType": "string",
          "name": "",
          "type": "string"
        }
      ],
      "name": "depositableCurrenciesContracts",
      "outputs": [
        {
          "internalType": "address",
          "name": "",
          "type": "address"
        }
      ],
      "stateMutability": "view",
      "type": "function"
    },
    {
      "inputs": [
        {
          "internalType": "address",
          "name": "",
          "type": "address"
        }
      ],
      "name": "enabledMembers",
      "outputs": [
        {
          "internalType": "bool",
          "name": "",
          "type": "bool"
        }
      ],
      "stateMutability": "view",
      "type": "function"
    },
    {
      "inputs": [],
      "name": "gigsRegistry",
      "outputs": [
        {
          "internalType": "contract GigsRegistry",
          "name": "",
          "type": "address"
        }
      ],
      "stateMutability": "view",
      "type": "function"
    },
    {
      "inputs": [],
      "name": "id",
      "outputs": [
        {
          "internalType": "uint256",
          "name": "",
          "type": "uint256"
        }
      ],
      "stateMutability": "view",
      "type": "function"
    },
    {
      "inputs": [
        {
          "internalType": "address",
          "name": "forwarder",
          "type": "address"
        }
      ],
      "name": "isTrustedForwarder",
      "outputs": [
        {
          "internalType": "bool",
          "name": "",
          "type": "bool"
        }
      ],
      "stateMutability": "view",
      "type": "function"
    },
    {
      "inputs": [
        {
          "internalType": "uint256",
          "name": "_amountOfDITOToRedeem",
          "type": "uint256"
        }
      ],
      "name": "join",
      "outputs": [],
      "stateMutability": "nonpayable",
      "type": "function"
    },
    {
      "inputs": [],
      "name": "leave",
      "outputs": [],
      "stateMutability": "nonpayable",
      "type": "function"
    },
    {
      "inputs": [],
      "name": "lendingPoolAP",
      "outputs": [
        {
          "internalType": "contract ILendingPoolAddressesProvider",
          "name": "",
          "type": "address"
        }
      ],
      "stateMutability": "view",
      "type": "function"
    },
    {
      "inputs": [],
      "name": "numberOfMembers",
      "outputs": [
        {
          "internalType": "uint256",
          "name": "",
          "type": "uint256"
        }
      ],
      "stateMutability": "view",
      "type": "function"
    },
    {
      "inputs": [],
      "name": "owner",
      "outputs": [
        {
          "internalType": "address",
          "name": "",
          "type": "address"
        }
      ],
      "stateMutability": "view",
      "type": "function"
    },
    {
      "inputs": [],
      "name": "renounceOwnership",
      "outputs": [],
      "stateMutability": "nonpayable",
      "type": "function"
    },
    {
      "inputs": [
        {
          "internalType": "address",
          "name": "_gigRegistry",
          "type": "address"
        }
      ],
      "name": "setGigsRegistry",
      "outputs": [],
      "stateMutability": "nonpayable",
      "type": "function"
    },
    {
      "inputs": [
        {
          "internalType": "uint256",
          "name": "_id",
          "type": "uint256"
        }
      ],
      "name": "setId",
      "outputs": [],
      "stateMutability": "nonpayable",
      "type": "function"
    },
    {
      "inputs": [
        {
          "internalType": "address",
          "name": "_dao",
          "type": "address"
        }
      ],
      "name": "setTreasuryDAO",
      "outputs": [],
      "stateMutability": "nonpayable",
      "type": "function"
    },
    {
      "inputs": [],
      "name": "template",
      "outputs": [
        {
          "internalType": "enum DataTypes.CommunityTemplate",
          "name": "",
          "type": "uint8"
        }
      ],
      "stateMutability": "view",
      "type": "function"
    },
    {
      "inputs": [],
      "name": "tokens",
      "outputs": [
        {
          "internalType": "address",
          "name": "",
          "type": "address"
        }
      ],
      "stateMutability": "view",
      "type": "function"
    },
    {
      "inputs": [
        {
          "internalType": "address",
          "name": "newOwner",
          "type": "address"
        }
      ],
      "name": "transferOwnership",
      "outputs": [],
      "stateMutability": "nonpayable",
      "type": "function"
    },
    {
      "inputs": [],
      "name": "trustedForwarder",
      "outputs": [
        {
          "internalType": "address",
          "name": "",
          "type": "address"
        }
      ],
      "stateMutability": "view",
      "type": "function"
    },
    {
      "inputs": [],
      "name": "versionRecipient",
      "outputs": [
        {
          "internalType": "string",
          "name": "",
          "type": "string"
        }
      ],
      "stateMutability": "view",
      "type": "function"
    }
  ],
  "bytecode": "0x60806040526040518060400160405280600581526020017f322e302e30000000000000000000000000000000000000000000000000000000815250600290805190602001906200005192919062000bc3565b503480156200005f57600080fd5b50604051620039b6380380620039b6833981810160405281019062000085919062000d16565b6000620000976200065a60201b60201c565b905080600160006101000a81548173ffffffffffffffffffffffffffffffffffffffff021916908373ffffffffffffffffffffffffffffffffffffffff1602179055508073ffffffffffffffffffffffffffffffffffffffff16600073ffffffffffffffffffffffffffffffffffffffff167f8be0079c531659141344cd1fd0a4f28419497f9722a3daafe3b4186f6b6457e060405160405180910390a3506000600560006101000a81548160ff02191690831515021790555086600560016101000a81548160ff021916908360028111156200017057fe5b0217905550806000806101000a81548173ffffffffffffffffffffffffffffffffffffffff021916908373ffffffffffffffffffffffffffffffffffffffff16021790555081600c60006101000a81548173ffffffffffffffffffffffffffffffffffffffff021916908373ffffffffffffffffffffffffffffffffffffffff1602179055508373ffffffffffffffffffffffffffffffffffffffff16637e3b6d6862000237670de0b6b3a7640000620177006200067660201b6200144e1790919060201c565b6040518263ffffffff1660e01b8152600401620002559190620010bd565b602060405180830381600087803b1580156200027057600080fd5b505af115801562000285573d6000803e3d6000fd5b505050506040513d601f19601f82011682018060405250810190620002ab919062000cbe565b600360006101000a81548173ffffffffffffffffffffffffffffffffffffffff021916908373ffffffffffffffffffffffffffffffffffffffff1602179055508273ffffffffffffffffffffffffffffffffffffffff16633479fe50600560019054906101000a900460ff16600360009054906101000a900473ffffffffffffffffffffffffffffffffffffffff16338a8a886040518763ffffffff1660e01b8152600401620003619695949392919062000fea565b602060405180830381600087803b1580156200037c57600080fd5b505af115801562000391573d6000803e3d6000fd5b505050506040513d601f19601f82011682018060405250810190620003b7919062000cbe565b600a60006101000a81548173ffffffffffffffffffffffffffffffffffffffff021916908373ffffffffffffffffffffffffffffffffffffffff1602179055506200042f600a60009054906101000a900473ffffffffffffffffffffffffffffffffffffffff166107d060016200070160201b60201c565b600a60009054906101000a900473ffffffffffffffffffffffffffffffffffffffff1673ffffffffffffffffffffffffffffffffffffffff166346f98fec6040518163ffffffff1660e01b8152600401600060405180830381600087803b1580156200049a57600080fd5b505af1158015620004af573d6000803e3d6000fd5b50505050600980600181540180825580915050600190039060005260206000200160006040518060400160405280600381526020017f4441490000000000000000000000000000000000000000000000000000000000815250909190915090805190602001906200052292919062000bc3565b50600980600181540180825580915050600190039060005260206000200160006040518060400160405280600481526020017f5553444300000000000000000000000000000000000000000000000000000000815250909190915090805190602001906200059292919062000bc3565b50856008604051620005a49062000f62565b908152602001604051809103902060006101000a81548173ffffffffffffffffffffffffffffffffffffffff021916908373ffffffffffffffffffffffffffffffffffffffff160217905550846008604051620006019062000f79565b908152602001604051809103902060006101000a81548173ffffffffffffffffffffffffffffffffffffffff021916908373ffffffffffffffffffffffffffffffffffffffff1602179055505050505050505062001203565b60006200067162000a9960201b620014d41760201c565b905090565b6000808314156200068b5760009050620006fb565b60008284029050828482816200069d57fe5b0414620006f6576040517f08c379a0000000000000000000000000000000000000000000000000000000008152600401808060200182810382526021815260200180620039956021913960400191505060405180910390fd5b809150505b92915050565b600073ffffffffffffffffffffffffffffffffffffffff16600a60009054906101000a900473ffffffffffffffffffffffffffffffffffffffff1673ffffffffffffffffffffffffffffffffffffffff16141562000796576040517f08c379a00000000000000000000000000000000000000000000000000000000081526004016200078d9062001057565b60405180910390fd5b601960075410620007de576040517f08c379a0000000000000000000000000000000000000000000000000000000008152600401620007d5906200109b565b60405180910390fd5b60001515600660008573ffffffffffffffffffffffffffffffffffffffff1673ffffffffffffffffffffffffffffffffffffffff16815260200190815260200160002060009054906101000a900460ff1615151462000874576040517f08c379a00000000000000000000000000000000000000000000000000000000081526004016200086b9062001079565b60405180910390fd5b6001600660008573ffffffffffffffffffffffffffffffffffffffff1673ffffffffffffffffffffffffffffffffffffffff16815260200190815260200160002060006101000a81548160ff021916908315150217905550620008e9600160075462000ae160201b620015101790919060201c565b600781905550600360009054906101000a900473ffffffffffffffffffffffffffffffffffffffff1673ffffffffffffffffffffffffffffffffffffffff1663bc93233f84836040518363ffffffff1660e01b81526004016200094e92919062000f90565b600060405180830381600087803b1580156200096957600080fd5b505af11580156200097e573d6000803e3d6000fd5b50505050600360009054906101000a900473ffffffffffffffffffffffffffffffffffffffff1673ffffffffffffffffffffffffffffffffffffffff1663a9059cbb84620009e3670de0b6b3a7640000866200067660201b6200144e1790919060201c565b6040518363ffffffff1660e01b815260040162000a0292919062000fbd565b602060405180830381600087803b15801562000a1d57600080fd5b505af115801562000a32573d6000803e3d6000fd5b505050506040513d601f19601f8201168201806040525081019062000a58919062000cea565b507fede8eed4383e9241982619b94dd83e488b274cced0fd07b8c0092a393defd52f838360405162000a8c92919062000fbd565b60405180910390a1505050565b6000601860003690501015801562000abe575062000abd3362000b6a60201b60201c565b5b1562000ad457601436033560601c905062000add565b33905062000ade565b5b90565b60008082840190508381101562000b60576040517f08c379a000000000000000000000000000000000000000000000000000000000815260040180806020018281038252601b8152602001807f536166654d6174683a206164646974696f6e206f766572666c6f77000000000081525060200191505060405180910390fd5b8091505092915050565b60008060009054906101000a900473ffffffffffffffffffffffffffffffffffffffff1673ffffffffffffffffffffffffffffffffffffffff168273ffffffffffffffffffffffffffffffffffffffff16149050919050565b828054600181600116156101000203166002900490600052602060002090601f01602090048101928262000bfb576000855562000c47565b82601f1062000c1657805160ff191683800117855562000c47565b8280016001018555821562000c47579182015b8281111562000c4657825182559160200191906001019062000c29565b5b50905062000c56919062000c5a565b5090565b5b8082111562000c7557600081600090555060010162000c5b565b5090565b60008151905062000c8a81620011be565b92915050565b60008151905062000ca181620011d8565b92915050565b60008151905062000cb881620011f2565b92915050565b60006020828403121562000cd157600080fd5b600062000ce18482850162000c79565b91505092915050565b60006020828403121562000cfd57600080fd5b600062000d0d8482850162000c90565b91505092915050565b600080600080600080600060e0888a03121562000d3257600080fd5b600062000d428a828b0162000ca7565b975050602062000d558a828b0162000c79565b965050604062000d688a828b0162000c79565b955050606062000d7b8a828b0162000c79565b945050608062000d8e8a828b0162000c79565b93505060a062000da18a828b0162000c79565b92505060c062000db48a828b0162000c79565b91505092959891949750929550565b62000dce8162001155565b82525050565b62000ddf81620010f6565b82525050565b62000df0816200110a565b82525050565b62000e018162001169565b82525050565b600062000e16601083620010da565b91507f7472656173757279206e6f7420736574000000000000000000000000000000006000830152602082019050919050565b600062000e58600e83620010da565b91507f616c7265616479206d656d6265720000000000000000000000000000000000006000830152602082019050919050565b600062000e9a600383620010eb565b91507f44414900000000000000000000000000000000000000000000000000000000006000830152600382019050919050565b600062000edc600e83620010da565b91507f636f6d6d756e6974792066756c6c0000000000000000000000000000000000006000830152602082019050919050565b600062000f1e600483620010eb565b91507f55534443000000000000000000000000000000000000000000000000000000006000830152600482019050919050565b62000f5c816200114b565b82525050565b600062000f6f8262000e8b565b9150819050919050565b600062000f868262000f0f565b9150819050919050565b600060408201905062000fa7600083018562000dd4565b62000fb6602083018462000de5565b9392505050565b600060408201905062000fd4600083018562000dd4565b62000fe3602083018462000f51565b9392505050565b600060c08201905062001001600083018962000df6565b62001010602083018862000dd4565b6200101f604083018762000dc3565b6200102e606083018662000dd4565b6200103d608083018562000dd4565b6200104c60a083018462000dd4565b979650505050505050565b60006020820190508181036000830152620010728162000e07565b9050919050565b60006020820190508181036000830152620010948162000e49565b9050919050565b60006020820190508181036000830152620010b68162000ecd565b9050919050565b6000602082019050620010d4600083018462000f51565b92915050565b600082825260208201905092915050565b600081905092915050565b600062001103826200112b565b9050919050565b60008115159050919050565b60008190506200112682620011a7565b919050565b600073ffffffffffffffffffffffffffffffffffffffff82169050919050565b6000819050919050565b600062001162826200117d565b9050919050565b6000620011768262001116565b9050919050565b60006200118a8262001191565b9050919050565b60006200119e826200112b565b9050919050565bfe5b60038110620011bb57620011ba620011a5565b5b50565b620011c981620010f6565b8114620011d557600080fd5b50565b620011e3816200110a565b8114620011ef57600080fd5b50565b600381106200120057600080fd5b50565b61278280620012136000396000f3fe608060405234801561001057600080fd5b50600436106101735760003560e01c80637da0a877116100de578063a46eddcf11610097578063cecfd17011610071578063cecfd170146103f4578063d0e0ba9514610424578063d66d9e1914610440578063f2fde38b1461044a57610173565b8063a46eddcf1461039e578063af640d0f146103ba578063bc910cf9146103d857610173565b80637da0a877146102ec5780637daea3921461030a5780638da5cb5b146103265780639250640d146103445780639d63848a14610362578063a30e3fa91461038057610173565b8063572b6c0511610130578063572b6c051461023c57806358c12dbe1461026c5780636f2ddd931461028a578063715018a6146102a85780637387b635146102b2578063770ac141146102e257610173565b8063049878f314610178578063150c4aea146101945780633705abf1146101b257806339327e9e146101e257806343086f0d14610200578063486ff0cd1461021e575b600080fd5b610192600480360381019061018d9190611ed8565b610466565b005b61019c61047c565b6040516101a99190612307565b60405180910390f35b6101cc60048036038101906101c79190611e97565b610487565b6040516101d99190612248565b60405180910390f35b6101ea6104d0565b6040516101f7919061233d565b60405180910390f35b6102086104f6565b6040516102159190612322565b60405180910390f35b61022661051c565b6040516102339190612373565b60405180910390f35b61025660048036038101906102519190611e1c565b6105ba565b60405161026391906122ec565b60405180910390f35b610274610613565b6040516102819190612248565b60405180910390f35b610292610639565b60405161029f9190612358565b60405180910390f35b6102b061064c565b005b6102cc60048036038101906102c79190611ed8565b6107d7565b6040516102d99190612373565b60405180910390f35b6102ea610893565b005b6102f46109e1565b6040516103019190612248565b60405180910390f35b610324600480360381019061031f9190611e1c565b610a05565b005b61032e610cc6565b60405161033b9190612248565b60405180910390f35b61034c610cf0565b60405161035991906124b5565b60405180910390f35b61036a610cf7565b6040516103779190612248565b60405180910390f35b610388610d1d565b60405161039591906124b5565b60405180910390f35b6103b860048036038101906103b39190611e1c565b610d23565b005b6103c2610e7d565b6040516103cf91906124b5565b60405180910390f35b6103f260048036038101906103ed9190611f2a565b610e83565b005b61040e60048036038101906104099190611e1c565b6110ce565b60405161041b91906122ec565b60405180910390f35b61043e60048036038101906104399190611ed8565b6110ee565b005b61044861122a565b005b610464600480360381019061045f9190611e1c565b61123e565b005b610479610471611598565b8260006115a7565b50565b638f5d825f60e01b81565b6008818051602081018201805184825260208301602085012081835280955050505050506000915054906101000a900473ffffffffffffffffffffffffffffffffffffffff1681565b600c60009054906101000a900473ffffffffffffffffffffffffffffffffffffffff1681565b600b60009054906101000a900473ffffffffffffffffffffffffffffffffffffffff1681565b60028054600181600116156101000203166002900480601f0160208091040260200160405190810160405280929190818152602001828054600181600116156101000203166002900480156105b25780601f10610587576101008083540402835291602001916105b2565b820191906000526020600020905b81548152906001019060200180831161059557829003601f168201915b505050505081565b60008060009054906101000a900473ffffffffffffffffffffffffffffffffffffffff1673ffffffffffffffffffffffffffffffffffffffff168273ffffffffffffffffffffffffffffffffffffffff16149050919050565b600a60009054906101000a900473ffffffffffffffffffffffffffffffffffffffff1681565b600560019054906101000a900460ff1681565b610654611598565b73ffffffffffffffffffffffffffffffffffffffff16600160009054906101000a900473ffffffffffffffffffffffffffffffffffffffff1673ffffffffffffffffffffffffffffffffffffffff1614610716576040517f08c379a00000000000000000000000000000000000000000000000000000000081526004018080602001828103825260208152602001807f4f776e61626c653a2063616c6c6572206973206e6f7420746865206f776e657281525060200191505060405180910390fd5b600073ffffffffffffffffffffffffffffffffffffffff16600160009054906101000a900473ffffffffffffffffffffffffffffffffffffffff1673ffffffffffffffffffffffffffffffffffffffff167f8be0079c531659141344cd1fd0a4f28419497f9722a3daafe3b4186f6b6457e060405160405180910390a36000600160006101000a81548173ffffffffffffffffffffffffffffffffffffffff021916908373ffffffffffffffffffffffffffffffffffffffff160217905550565b600981815481106107e757600080fd5b906000526020600020016000915090508054600181600116156101000203166002900480601f01602080910402602001604051908101604052809291908181526020018280546001816001161561010002031660029004801561088b5780601f106108605761010080835404028352916020019161088b565b820191906000526020600020905b81548152906001019060200180831161086e57829003601f168201915b505050505081565b61089b611598565b73ffffffffffffffffffffffffffffffffffffffff16600160009054906101000a900473ffffffffffffffffffffffffffffffffffffffff1673ffffffffffffffffffffffffffffffffffffffff161461095d576040517f08c379a00000000000000000000000000000000000000000000000000000000081526004018080602001828103825260208152602001807f4f776e61626c653a2063616c6c6572206973206e6f7420746865206f776e657281525060200191505060405180910390fd5b600a60009054906101000a900473ffffffffffffffffffffffffffffffffffffffff1673ffffffffffffffffffffffffffffffffffffffff166363a5d2986040518163ffffffff1660e01b8152600401600060405180830381600087803b1580156109c757600080fd5b505af11580156109db573d6000803e3d6000fd5b50505050565b60008054906101000a900473ffffffffffffffffffffffffffffffffffffffff1681565b610a0d611598565b73ffffffffffffffffffffffffffffffffffffffff16600160009054906101000a900473ffffffffffffffffffffffffffffffffffffffff1673ffffffffffffffffffffffffffffffffffffffff1614610acf576040517f08c379a00000000000000000000000000000000000000000000000000000000081526004018080602001828103825260208152602001807f4f776e61626c653a2063616c6c6572206973206e6f7420746865206f776e657281525060200191505060405180910390fd5b600073ffffffffffffffffffffffffffffffffffffffff16600b60009054906101000a900473ffffffffffffffffffffffffffffffffffffffff1673ffffffffffffffffffffffffffffffffffffffff1614610b60576040517f08c379a0000000000000000000000000000000000000000000000000000000008152600401610b57906123f5565b60405180910390fd5b3073ffffffffffffffffffffffffffffffffffffffff168173ffffffffffffffffffffffffffffffffffffffff1663dc1fb5a56040518163ffffffff1660e01b815260040160206040518083038186803b158015610bbd57600080fd5b505afa158015610bd1573d6000803e3d6000fd5b505050506040513d601f19601f82011682018060405250810190610bf59190611e45565b73ffffffffffffffffffffffffffffffffffffffff1614610c4b576040517f08c379a0000000000000000000000000000000000000000000000000000000008152600401610c4290612455565b60405180910390fd5b80600b60006101000a81548173ffffffffffffffffffffffffffffffffffffffff021916908373ffffffffffffffffffffffffffffffffffffffff1602179055507f5667c8bc14c2967d781cf0b551c676f0dc04474723d2d8175083e25bd638fecd81604051610cbb9190612248565b60405180910390a150565b6000600160009054906101000a900473ffffffffffffffffffffffffffffffffffffffff16905090565b6201770081565b600360009054906101000a900473ffffffffffffffffffffffffffffffffffffffff1681565b60075481565b610d2b611598565b73ffffffffffffffffffffffffffffffffffffffff16600160009054906101000a900473ffffffffffffffffffffffffffffffffffffffff1673ffffffffffffffffffffffffffffffffffffffff1614610ded576040517f08c379a00000000000000000000000000000000000000000000000000000000081526004018080602001828103825260208152602001807f4f776e61626c653a2063616c6c6572206973206e6f7420746865206f776e657281525060200191505060405180910390fd5b600a60009054906101000a900473ffffffffffffffffffffffffffffffffffffffff1673ffffffffffffffffffffffffffffffffffffffff1663a46eddcf826040518263ffffffff1660e01b8152600401610e489190612248565b600060405180830381600087803b158015610e6257600080fd5b505af1158015610e76573d6000803e3d6000fd5b5050505050565b60045481565b600b60009054906101000a900473ffffffffffffffffffffffffffffffffffffffff1673ffffffffffffffffffffffffffffffffffffffff16610ec4611598565b73ffffffffffffffffffffffffffffffffffffffff1614610f1a576040517f08c379a0000000000000000000000000000000000000000000000000000000008152600401610f1190612475565b60405180910390fd5b600073ffffffffffffffffffffffffffffffffffffffff168173ffffffffffffffffffffffffffffffffffffffff16146110ca57600360009054906101000a900473ffffffffffffffffffffffffffffffffffffffff1673ffffffffffffffffffffffffffffffffffffffff1663095ea7b3600a60009054906101000a900473ffffffffffffffffffffffffffffffffffffffff16610fca670de0b6b3a76400008661144e90919063ffffffff16565b6040518363ffffffff1660e01b8152600401610fe79291906122c3565b602060405180830381600087803b15801561100157600080fd5b505af1158015611015573d6000803e3d6000fd5b505050506040513d601f19601f820116820180604052508101906110399190611e6e565b50600a60009054906101000a900473ffffffffffffffffffffffffffffffffffffffff1673ffffffffffffffffffffffffffffffffffffffff1663e377672e83836040518363ffffffff1660e01b81526004016110979291906124d0565b600060405180830381600087803b1580156110b157600080fd5b505af11580156110c5573d6000803e3d6000fd5b505050505b5050565b60066020528060005260406000206000915054906101000a900460ff1681565b600a60009054906101000a900473ffffffffffffffffffffffffffffffffffffffff1673ffffffffffffffffffffffffffffffffffffffff163373ffffffffffffffffffffffffffffffffffffffff161461117e576040517f08c379a000000000000000000000000000000000000000000000000000000000815260040161117590612395565b60405180910390fd5b600560009054906101000a900460ff16156111ce576040517f08c379a00000000000000000000000000000000000000000000000000000000081526004016111c590612495565b60405180910390fd5b806004819055506001600560006101000a81548160ff0219169083151502179055507fc72e55068a99063a2c847c0b87d2808f29d1935171e54ffa3a479533b4046b748160405161121f91906124b5565b60405180910390a150565b61123c611235611598565b600061191c565b565b611246611598565b73ffffffffffffffffffffffffffffffffffffffff16600160009054906101000a900473ffffffffffffffffffffffffffffffffffffffff1673ffffffffffffffffffffffffffffffffffffffff1614611308576040517f08c379a00000000000000000000000000000000000000000000000000000000081526004018080602001828103825260208152602001807f4f776e61626c653a2063616c6c6572206973206e6f7420746865206f776e657281525060200191505060405180910390fd5b600073ffffffffffffffffffffffffffffffffffffffff168173ffffffffffffffffffffffffffffffffffffffff16141561138e576040517f08c379a00000000000000000000000000000000000000000000000000000000081526004018080602001828103825260268152602001806127066026913960400191505060405180910390fd5b8073ffffffffffffffffffffffffffffffffffffffff16600160009054906101000a900473ffffffffffffffffffffffffffffffffffffffff1673ffffffffffffffffffffffffffffffffffffffff167f8be0079c531659141344cd1fd0a4f28419497f9722a3daafe3b4186f6b6457e060405160405180910390a380600160006101000a81548173ffffffffffffffffffffffffffffffffffffffff021916908373ffffffffffffffffffffffffffffffffffffffff16021790555050565b60008083141561146157600090506114ce565b600082840290508284828161147257fe5b04146114c9576040517f08c379a000000000000000000000000000000000000000000000000000000000815260040180806020018281038252602181526020018061272c6021913960400191505060405180910390fd5b809150505b92915050565b600060186000369050101580156114f057506114ef336105ba565b5b1561150457601436033560601c905061150c565b33905061150d565b5b90565b60008082840190508381101561158e576040517f08c379a000000000000000000000000000000000000000000000000000000000815260040180806020018281038252601b8152602001807f536166654d6174683a206164646974696f6e206f766572666c6f77000000000081525060200191505060405180910390fd5b8091505092915050565b60006115a26114d4565b905090565b600073ffffffffffffffffffffffffffffffffffffffff16600a60009054906101000a900473ffffffffffffffffffffffffffffffffffffffff1673ffffffffffffffffffffffffffffffffffffffff161415611639576040517f08c379a0000000000000000000000000000000000000000000000000000000008152600401611630906123b5565b60405180910390fd5b60196007541061167e576040517f08c379a000000000000000000000000000000000000000000000000000000000815260040161167590612435565b60405180910390fd5b60001515600660008573ffffffffffffffffffffffffffffffffffffffff1673ffffffffffffffffffffffffffffffffffffffff16815260200190815260200160002060009054906101000a900460ff16151514611711576040517f08c379a000000000000000000000000000000000000000000000000000000000815260040161170890612415565b60405180910390fd5b6001600660008573ffffffffffffffffffffffffffffffffffffffff1673ffffffffffffffffffffffffffffffffffffffff16815260200190815260200160002060006101000a81548160ff02191690831515021790555061177f600160075461151090919063ffffffff16565b600781905550600360009054906101000a900473ffffffffffffffffffffffffffffffffffffffff1673ffffffffffffffffffffffffffffffffffffffff1663bc93233f84836040518363ffffffff1660e01b81526004016117e292919061229a565b600060405180830381600087803b1580156117fc57600080fd5b505af1158015611810573d6000803e3d6000fd5b50505050600360009054906101000a900473ffffffffffffffffffffffffffffffffffffffff1673ffffffffffffffffffffffffffffffffffffffff1663a9059cbb8461186e670de0b6b3a76400008661144e90919063ffffffff16565b6040518363ffffffff1660e01b815260040161188b9291906122c3565b602060405180830381600087803b1580156118a557600080fd5b505af11580156118b9573d6000803e3d6000fd5b505050506040513d601f19601f820116820180604052508101906118dd9190611e6e565b507fede8eed4383e9241982619b94dd83e488b274cced0fd07b8c0092a393defd52f838360405161190f9291906122c3565b60405180910390a1505050565b61192582611bbf565b6000600660008473ffffffffffffffffffffffffffffffffffffffff1673ffffffffffffffffffffffffffffffffffffffff16815260200190815260200160002060006101000a81548160ff0219169083151502179055506119936001600754611c5590919063ffffffff16565b600781905550600360009054906101000a900473ffffffffffffffffffffffffffffffffffffffff1673ffffffffffffffffffffffffffffffffffffffff166323b872dd8330600360009054906101000a900473ffffffffffffffffffffffffffffffffffffffff1673ffffffffffffffffffffffffffffffffffffffff166370a08231876040518263ffffffff1660e01b8152600401611a349190612248565b60206040518083038186803b158015611a4c57600080fd5b505afa158015611a60573d6000803e3d6000fd5b505050506040513d601f19601f82011682018060405250810190611a849190611f01565b6040518463ffffffff1660e01b8152600401611aa293929190612263565b602060405180830381600087803b158015611abc57600080fd5b505af1158015611ad0573d6000803e3d6000fd5b505050506040513d601f19601f82011682018060405250810190611af49190611e6e565b50600360009054906101000a900473ffffffffffffffffffffffffffffffffffffffff1673ffffffffffffffffffffffffffffffffffffffff16632797c7a483836040518363ffffffff1660e01b8152600401611b5292919061229a565b600060405180830381600087803b158015611b6c57600080fd5b505af1158015611b80573d6000803e3d6000fd5b505050507f6e76fb4c77256006d9c38ec7d82b45a8c8f3c27b1d6766fffc42dfb8de68449282604051611bb39190612248565b60405180910390a15050565b60011515600660008373ffffffffffffffffffffffffffffffffffffffff1673ffffffffffffffffffffffffffffffffffffffff16815260200190815260200160002060009054906101000a900460ff16151514611c52576040517f08c379a0000000000000000000000000000000000000000000000000000000008152600401611c49906123d5565b60405180910390fd5b50565b6000611c9783836040518060400160405280601e81526020017f536166654d6174683a207375627472616374696f6e206f766572666c6f770000815250611c9f565b905092915050565b6000838311158290611d4c576040517f08c379a00000000000000000000000000000000000000000000000000000000081526004018080602001828103825283818151815260200191508051906020019080838360005b83811015611d11578082015181840152602081019050611cf6565b50505050905090810190601f168015611d3e5780820380516001836020036101000a031916815260200191505b509250505060405180910390fd5b5060008385039050809150509392505050565b600081359050611d6e816126c0565b92915050565b600081519050611d83816126c0565b92915050565b600081519050611d98816126d7565b92915050565b600082601f830112611daf57600080fd5b8135611dc2611dbd8261252a565b6124f9565b91508082526020830160208301858383011115611dde57600080fd5b611de9838284612657565b50505092915050565b600081359050611e01816126ee565b92915050565b600081519050611e16816126ee565b92915050565b600060208284031215611e2e57600080fd5b6000611e3c84828501611d5f565b91505092915050565b600060208284031215611e5757600080fd5b6000611e6584828501611d74565b91505092915050565b600060208284031215611e8057600080fd5b6000611e8e84828501611d89565b91505092915050565b600060208284031215611ea957600080fd5b600082013567ffffffffffffffff811115611ec357600080fd5b611ecf84828501611d9e565b91505092915050565b600060208284031215611eea57600080fd5b6000611ef884828501611df2565b91505092915050565b600060208284031215611f1357600080fd5b6000611f2184828501611e07565b91505092915050565b60008060408385031215611f3d57600080fd5b6000611f4b85828601611df2565b9250506020611f5c85828601611d5f565b9150509250929050565b611f6f81612576565b82525050565b611f7e81612588565b82525050565b611f8d81612594565b82525050565b611f9c816125fd565b82525050565b611fab81612621565b82525050565b611fba81612645565b82525050565b6000611fcb8261255a565b611fd58185612565565b9350611fe5818560208601612666565b611fee8161269b565b840191505092915050565b6000612006600c83612565565b91507f6e6f7420747265617375727900000000000000000000000000000000000000006000830152602082019050919050565b6000612046601083612565565b91507f7472656173757279206e6f7420736574000000000000000000000000000000006000830152602082019050919050565b6000612086600a83612565565b91507f6e6f74206d656d626572000000000000000000000000000000000000000000006000830152602082019050919050565b60006120c6600d83612565565b91507f616c7265616479206164646564000000000000000000000000000000000000006000830152602082019050919050565b6000612106600e83612565565b91507f616c7265616479206d656d6265720000000000000000000000000000000000006000830152602082019050919050565b6000612146600e83612565565b91507f636f6d6d756e6974792066756c6c0000000000000000000000000000000000006000830152602082019050919050565b6000612186600f83612565565b91507f77726f6e6720636f6d6d756e69747900000000000000000000000000000000006000830152602082019050919050565b60006121c6601083612565565b91507f6e6f7420676967207265676973747279000000000000000000000000000000006000830152602082019050919050565b6000612206600b83612565565b91507f616c7265616479207365740000000000000000000000000000000000000000006000830152602082019050919050565b612242816125f3565b82525050565b600060208201905061225d6000830184611f66565b92915050565b60006060820190506122786000830186611f66565b6122856020830185611f66565b6122926040830184612239565b949350505050565b60006040820190506122af6000830185611f66565b6122bc6020830184611f75565b9392505050565b60006040820190506122d86000830185611f66565b6122e56020830184612239565b9392505050565b60006020820190506123016000830184611f75565b92915050565b600060208201905061231c6000830184611f84565b92915050565b60006020820190506123376000830184611f93565b92915050565b60006020820190506123526000830184611fa2565b92915050565b600060208201905061236d6000830184611fb1565b92915050565b6000602082019050818103600083015261238d8184611fc0565b905092915050565b600060208201905081810360008301526123ae81611ff9565b9050919050565b600060208201905081810360008301526123ce81612039565b9050919050565b600060208201905081810360008301526123ee81612079565b9050919050565b6000602082019050818103600083015261240e816120b9565b9050919050565b6000602082019050818103600083015261242e816120f9565b9050919050565b6000602082019050818103600083015261244e81612139565b9050919050565b6000602082019050818103600083015261246e81612179565b9050919050565b6000602082019050818103600083015261248e816121b9565b9050919050565b600060208201905081810360008301526124ae816121f9565b9050919050565b60006020820190506124ca6000830184612239565b92915050565b60006040820190506124e56000830185612239565b6124f26020830184611f66565b9392505050565b6000604051905081810181811067ffffffffffffffff821117156125205761251f612699565b5b8060405250919050565b600067ffffffffffffffff82111561254557612544612699565b5b601f19601f8301169050602081019050919050565b600081519050919050565b600082825260208201905092915050565b6000612581826125d3565b9050919050565b60008115159050919050565b60007fffffffff0000000000000000000000000000000000000000000000000000000082169050919050565b60008190506125ce826126ac565b919050565b600073ffffffffffffffffffffffffffffffffffffffff82169050919050565b6000819050919050565b60006126088261260f565b9050919050565b600061261a826125d3565b9050919050565b600061262c82612633565b9050919050565b600061263e826125d3565b9050919050565b6000612650826125c0565b9050919050565b82818337600083830152505050565b60005b83811015612684578082015181840152602081019050612669565b83811115612693576000848401525b50505050565bfe5b6000601f19601f8301169050919050565b600381106126bd576126bc612699565b5b50565b6126c981612576565b81146126d457600080fd5b50565b6126e081612588565b81146126eb57600080fd5b50565b6126f7816125f3565b811461270257600080fd5b5056fe4f776e61626c653a206e6577206f776e657220697320746865207a65726f2061646472657373536166654d6174683a206d756c7469706c69636174696f6e206f766572666c6f77a26469706673582212201e77c3e196b66395f9a7eda9686932ce48ea59eaf3c54a5cb7081b1505d529e364736f6c63430007040033536166654d6174683a206d756c7469706c69636174696f6e206f766572666c6f77",
  "linkReferences": {},
  "deployedLinkReferences": {}
}