{
  "_format": "hh-sol-artifact-1",
  "contractName": "Community",
  "sourceName": "contracts/Community.sol",
  "abi": [
    {
      "inputs": [
        {
          "internalType": "enum DataTypes.CommunityTemplate",
          "name": "_template",
          "type": "uint8"
        },
        {
          "internalType": "address",
          "name": "_dai",
          "type": "address"
        },
        {
          "internalType": "address",
          "name": "_usdc",
          "type": "address"
        },
        {
          "internalType": "address",
          "name": "_lendingPoolAP",
          "type": "address"
        },
        {
          "internalType": "address",
          "name": "_forwarder",
          "type": "address"
        }
      ],
      "stateMutability": "nonpayable",
      "type": "constructor"
    },
    {
      "anonymous": false,
      "inputs": [
        {
          "indexed": false,
          "internalType": "uint256",
          "name": "_id",
          "type": "uint256"
        }
      ],
      "name": "IdSet",
      "type": "event"
    },
    {
      "anonymous": false,
      "inputs": [
        {
          "indexed": false,
          "internalType": "address",
          "name": "_member",
          "type": "address"
        },
        {
          "indexed": false,
          "internalType": "uint256",
          "name": "_transferredTokens",
          "type": "uint256"
        }
      ],
      "name": "MemberAdded",
      "type": "event"
    },
    {
      "anonymous": false,
      "inputs": [
        {
          "indexed": false,
          "internalType": "address",
          "name": "_member",
          "type": "address"
        }
      ],
      "name": "MemberRemoved",
      "type": "event"
    },
    {
      "anonymous": false,
      "inputs": [
        {
          "indexed": true,
          "internalType": "address",
          "name": "previousOwner",
          "type": "address"
        },
        {
          "indexed": true,
          "internalType": "address",
          "name": "newOwner",
          "type": "address"
        }
      ],
      "name": "OwnershipTransferred",
      "type": "event"
    },
    {
      "anonymous": false,
      "inputs": [
        {
          "indexed": false,
          "internalType": "address",
          "name": "_treasury",
          "type": "address"
        }
      ],
      "name": "TreasurySet",
      "type": "event"
    },
    {
      "inputs": [],
      "name": "INIT_TOKENS",
      "outputs": [
        {
          "internalType": "uint256",
          "name": "",
          "type": "uint256"
        }
      ],
      "stateMutability": "view",
      "type": "function"
    },
    {
      "inputs": [],
      "name": "communityTreasury",
      "outputs": [
        {
          "internalType": "contract CommunityTreasury",
          "name": "",
          "type": "address"
        }
      ],
      "stateMutability": "view",
      "type": "function"
    },
    {
      "inputs": [
        {
          "internalType": "uint256",
          "name": "_amount",
          "type": "uint256"
        },
        {
          "internalType": "address",
          "name": "_project",
          "type": "address"
        }
      ],
      "name": "completeGig",
      "outputs": [],
      "stateMutability": "nonpayable",
      "type": "function"
    },
    {
      "inputs": [],
      "name": "createGigsRegistry",
      "outputs": [],
      "stateMutability": "nonpayable",
      "type": "function"
    },
    {
      "inputs": [
        {
          "internalType": "uint256",
          "name": "",
          "type": "uint256"
        }
      ],
      "name": "depositableCurrencies",
      "outputs": [
        {
          "internalType": "string",
          "name": "",
          "type": "string"
        }
      ],
      "stateMutability": "view",
      "type": "function"
    },
    {
      "inputs": [
        {
          "internalType": "string",
          "name": "",
          "type": "string"
        }
      ],
      "name": "depositableCurrenciesContracts",
      "outputs": [
        {
          "internalType": "address",
          "name": "",
          "type": "address"
        }
      ],
      "stateMutability": "view",
      "type": "function"
    },
    {
      "inputs": [
        {
          "internalType": "address",
          "name": "",
          "type": "address"
        }
      ],
      "name": "enabledMembers",
      "outputs": [
        {
          "internalType": "bool",
          "name": "",
          "type": "bool"
        }
      ],
      "stateMutability": "view",
      "type": "function"
    },
    {
      "inputs": [],
      "name": "gigsRegistry",
      "outputs": [
        {
          "internalType": "contract GigsRegistry",
          "name": "",
          "type": "address"
        }
      ],
      "stateMutability": "view",
      "type": "function"
    },
    {
      "inputs": [],
      "name": "id",
      "outputs": [
        {
          "internalType": "uint256",
          "name": "",
          "type": "uint256"
        }
      ],
      "stateMutability": "view",
      "type": "function"
    },
    {
      "inputs": [
        {
          "internalType": "address",
          "name": "forwarder",
          "type": "address"
        }
      ],
      "name": "isTrustedForwarder",
      "outputs": [
        {
          "internalType": "bool",
          "name": "",
          "type": "bool"
        }
      ],
      "stateMutability": "view",
      "type": "function"
    },
    {
      "inputs": [
        {
          "internalType": "uint256",
          "name": "_amountOfDITOToRedeem",
          "type": "uint256"
        }
      ],
      "name": "join",
      "outputs": [],
      "stateMutability": "nonpayable",
      "type": "function"
    },
    {
      "inputs": [],
      "name": "leave",
      "outputs": [],
      "stateMutability": "nonpayable",
      "type": "function"
    },
    {
      "inputs": [],
      "name": "lendingPoolAP",
      "outputs": [
        {
          "internalType": "contract ILendingPoolAddressesProvider",
          "name": "",
          "type": "address"
        }
      ],
      "stateMutability": "view",
      "type": "function"
    },
    {
      "inputs": [],
      "name": "numberOfMembers",
      "outputs": [
        {
          "internalType": "uint256",
          "name": "",
          "type": "uint256"
        }
      ],
      "stateMutability": "view",
      "type": "function"
    },
    {
      "inputs": [],
      "name": "owner",
      "outputs": [
        {
          "internalType": "address",
          "name": "",
          "type": "address"
        }
      ],
      "stateMutability": "view",
      "type": "function"
    },
    {
      "inputs": [],
      "name": "renounceOwnership",
      "outputs": [],
      "stateMutability": "nonpayable",
      "type": "function"
    },
    {
      "inputs": [
        {
          "internalType": "uint256",
          "name": "_id",
          "type": "uint256"
        }
      ],
      "name": "setId",
      "outputs": [],
      "stateMutability": "nonpayable",
      "type": "function"
    },
    {
      "inputs": [
        {
          "internalType": "address",
          "name": "_dao",
          "type": "address"
        }
      ],
      "name": "setTreasuryDAO",
      "outputs": [],
      "stateMutability": "nonpayable",
      "type": "function"
    },
    {
      "inputs": [],
      "name": "template",
      "outputs": [
        {
          "internalType": "enum DataTypes.CommunityTemplate",
          "name": "",
          "type": "uint8"
        }
      ],
      "stateMutability": "view",
      "type": "function"
    },
    {
      "inputs": [],
      "name": "tokens",
      "outputs": [
        {
          "internalType": "contract DITOToken",
          "name": "",
          "type": "address"
        }
      ],
      "stateMutability": "view",
      "type": "function"
    },
    {
      "inputs": [
        {
          "internalType": "address",
          "name": "newOwner",
          "type": "address"
        }
      ],
      "name": "transferOwnership",
      "outputs": [],
      "stateMutability": "nonpayable",
      "type": "function"
    },
    {
      "inputs": [],
      "name": "trustedForwarder",
      "outputs": [
        {
          "internalType": "address",
          "name": "",
          "type": "address"
        }
      ],
      "stateMutability": "view",
      "type": "function"
    },
    {
      "inputs": [],
      "name": "versionRecipient",
      "outputs": [
        {
          "internalType": "string",
          "name": "",
          "type": "string"
        }
      ],
      "stateMutability": "view",
      "type": "function"
    }
  ],
  "bytecode": "0x60806040526040518060400160405280600581526020017f322e302e30000000000000000000000000000000000000000000000000000000815250600290805190602001906200005192919062000b11565b503480156200005f57600080fd5b506040516200ae5c3803806200ae5c833981810160405281019062000085919062000c54565b600062000097620005a860201b60201c565b905080600160006101000a81548173ffffffffffffffffffffffffffffffffffffffff021916908373ffffffffffffffffffffffffffffffffffffffff1602179055508073ffffffffffffffffffffffffffffffffffffffff16600073ffffffffffffffffffffffffffffffffffffffff167f8be0079c531659141344cd1fd0a4f28419497f9722a3daafe3b4186f6b6457e060405160405180910390a3506000600560006101000a81548160ff02191690831515021790555084600560016101000a81548160ff021916908360028111156200017057fe5b0217905550806000806101000a81548173ffffffffffffffffffffffffffffffffffffffff021916908373ffffffffffffffffffffffffffffffffffffffff16021790555081600c60006101000a81548173ffffffffffffffffffffffffffffffffffffffff021916908373ffffffffffffffffffffffffffffffffffffffff1602179055506200021b670de0b6b3a764000062017700620005c460201b6200125a1790919060201c565b604051620002299062000ba8565b62000235919062000fd0565b604051809103906000f08015801562000252573d6000803e3d6000fd5b50600360006101000a81548173ffffffffffffffffffffffffffffffffffffffff021916908373ffffffffffffffffffffffffffffffffffffffff160217905550600560019054906101000a900460ff16600360009054906101000a900473ffffffffffffffffffffffffffffffffffffffff1633868686604051620002d89062000bb6565b620002e99695949392919062000efd565b604051809103906000f08015801562000306573d6000803e3d6000fd5b50600a60006101000a81548173ffffffffffffffffffffffffffffffffffffffff021916908373ffffffffffffffffffffffffffffffffffffffff1602179055506200037f600a60009054906101000a900473ffffffffffffffffffffffffffffffffffffffff166107d060016200064f60201b60201c565b600a60009054906101000a900473ffffffffffffffffffffffffffffffffffffffff1673ffffffffffffffffffffffffffffffffffffffff166346f98fec6040518163ffffffff1660e01b8152600401600060405180830381600087803b158015620003ea57600080fd5b505af1158015620003ff573d6000803e3d6000fd5b50505050600980600181540180825580915050600190039060005260206000200160006040518060400160405280600381526020017f4441490000000000000000000000000000000000000000000000000000000000815250909190915090805190602001906200047292919062000b11565b50600980600181540180825580915050600190039060005260206000200160006040518060400160405280600481526020017f555344430000000000000000000000000000000000000000000000000000000081525090919091509080519060200190620004e292919062000b11565b50836008604051620004f49062000e75565b908152602001604051809103902060006101000a81548173ffffffffffffffffffffffffffffffffffffffff021916908373ffffffffffffffffffffffffffffffffffffffff160217905550826008604051620005519062000e8c565b908152602001604051809103902060006101000a81548173ffffffffffffffffffffffffffffffffffffffff021916908373ffffffffffffffffffffffffffffffffffffffff160217905550505050505062001116565b6000620005bf620009e760201b620012e51760201c565b905090565b600080831415620005d9576000905062000649565b6000828402905082848281620005eb57fe5b041462000644576040517f08c379a00000000000000000000000000000000000000000000000000000000081526004018080602001828103825260218152602001806200ae3b6021913960400191505060405180910390fd5b809150505b92915050565b600073ffffffffffffffffffffffffffffffffffffffff16600a60009054906101000a900473ffffffffffffffffffffffffffffffffffffffff1673ffffffffffffffffffffffffffffffffffffffff161415620006e4576040517f08c379a0000000000000000000000000000000000000000000000000000000008152600401620006db9062000f6a565b60405180910390fd5b6019600754106200072c576040517f08c379a0000000000000000000000000000000000000000000000000000000008152600401620007239062000fae565b60405180910390fd5b60001515600660008573ffffffffffffffffffffffffffffffffffffffff1673ffffffffffffffffffffffffffffffffffffffff16815260200190815260200160002060009054906101000a900460ff16151514620007c2576040517f08c379a0000000000000000000000000000000000000000000000000000000008152600401620007b99062000f8c565b60405180910390fd5b6001600660008573ffffffffffffffffffffffffffffffffffffffff1673ffffffffffffffffffffffffffffffffffffffff16815260200190815260200160002060006101000a81548160ff02191690831515021790555062000837600160075462000a2f60201b620013271790919060201c565b600781905550600360009054906101000a900473ffffffffffffffffffffffffffffffffffffffff1673ffffffffffffffffffffffffffffffffffffffff1663bc93233f84836040518363ffffffff1660e01b81526004016200089c92919062000ea3565b600060405180830381600087803b158015620008b757600080fd5b505af1158015620008cc573d6000803e3d6000fd5b50505050600360009054906101000a900473ffffffffffffffffffffffffffffffffffffffff1673ffffffffffffffffffffffffffffffffffffffff1663a9059cbb8462000931670de0b6b3a764000086620005c460201b6200125a1790919060201c565b6040518363ffffffff1660e01b81526004016200095092919062000ed0565b602060405180830381600087803b1580156200096b57600080fd5b505af115801562000980573d6000803e3d6000fd5b505050506040513d601f19601f82011682018060405250810190620009a6919062000c28565b507fede8eed4383e9241982619b94dd83e488b274cced0fd07b8c0092a393defd52f8383604051620009da92919062000ed0565b60405180910390a1505050565b6000601860003690501015801562000a0c575062000a0b3362000ab860201b60201c565b5b1562000a2257601436033560601c905062000a2b565b33905062000a2c565b5b90565b60008082840190508381101562000aae576040517f08c379a000000000000000000000000000000000000000000000000000000000815260040180806020018281038252601b8152602001807f536166654d6174683a206164646974696f6e206f766572666c6f77000000000081525060200191505060405180910390fd5b8091505092915050565b60008060009054906101000a900473ffffffffffffffffffffffffffffffffffffffff1673ffffffffffffffffffffffffffffffffffffffff168273ffffffffffffffffffffffffffffffffffffffff16149050919050565b828054600181600116156101000203166002900490600052602060002090601f01602090048101928262000b49576000855562000b95565b82601f1062000b6457805160ff191683800117855562000b95565b8280016001018555821562000b95579182015b8281111562000b9457825182559160200191906001019062000b77565b5b50905062000ba4919062000bc4565b5090565b612a90806200504d83390190565b61335e8062007add83390190565b5b8082111562000bdf57600081600090555060010162000bc5565b5090565b60008151905062000bf481620010d1565b92915050565b60008151905062000c0b81620010eb565b92915050565b60008151905062000c228162001105565b92915050565b60006020828403121562000c3b57600080fd5b600062000c4b8482850162000bfa565b91505092915050565b600080600080600060a0868803121562000c6d57600080fd5b600062000c7d8882890162000c11565b955050602062000c908882890162000be3565b945050604062000ca38882890162000be3565b935050606062000cb68882890162000be3565b925050608062000cc98882890162000be3565b9150509295509295909350565b62000ce18162001068565b82525050565b62000cf28162001009565b82525050565b62000d03816200101d565b82525050565b62000d14816200107c565b82525050565b600062000d2960108362000fed565b91507f7472656173757279206e6f7420736574000000000000000000000000000000006000830152602082019050919050565b600062000d6b600e8362000fed565b91507f616c7265616479206d656d6265720000000000000000000000000000000000006000830152602082019050919050565b600062000dad60038362000ffe565b91507f44414900000000000000000000000000000000000000000000000000000000006000830152600382019050919050565b600062000def600e8362000fed565b91507f636f6d6d756e6974792066756c6c0000000000000000000000000000000000006000830152602082019050919050565b600062000e3160048362000ffe565b91507f55534443000000000000000000000000000000000000000000000000000000006000830152600482019050919050565b62000e6f816200105e565b82525050565b600062000e828262000d9e565b9150819050919050565b600062000e998262000e22565b9150819050919050565b600060408201905062000eba600083018562000ce7565b62000ec9602083018462000cf8565b9392505050565b600060408201905062000ee7600083018562000ce7565b62000ef6602083018462000e64565b9392505050565b600060c08201905062000f14600083018962000d09565b62000f23602083018862000ce7565b62000f32604083018762000cd6565b62000f41606083018662000ce7565b62000f50608083018562000ce7565b62000f5f60a083018462000ce7565b979650505050505050565b6000602082019050818103600083015262000f858162000d1a565b9050919050565b6000602082019050818103600083015262000fa78162000d5c565b9050919050565b6000602082019050818103600083015262000fc98162000de0565b9050919050565b600060208201905062000fe7600083018462000e64565b92915050565b600082825260208201905092915050565b600081905092915050565b600062001016826200103e565b9050919050565b60008115159050919050565b60008190506200103982620010ba565b919050565b600073ffffffffffffffffffffffffffffffffffffffff82169050919050565b6000819050919050565b6000620010758262001090565b9050919050565b6000620010898262001029565b9050919050565b60006200109d82620010a4565b9050919050565b6000620010b1826200103e565b9050919050565bfe5b60038110620010ce57620010cd620010b8565b5b50565b620010dc8162001009565b8114620010e857600080fd5b50565b620010f6816200101d565b81146200110257600080fd5b50565b600381106200111357600080fd5b50565b613f2780620011266000396000f3fe60806040523480156200001157600080fd5b50600436106200016c5760003560e01c80637da0a87711620000d5578063af640d0f1162000087578063af640d0f14620003bf578063bc910cf914620003e1578063cecfd1701462000401578063d0e0ba951462000437578063d66d9e191462000457578063f2fde38b1462000463576200016c565b80637da0a87714620002f55780638da5cb5b14620003175780639250640d14620003395780639d63848a146200035b578063a30e3fa9146200037d578063a46eddcf146200039f576200016c565b8063486ff0cd116200012f578063486ff0cd1462000217578063572b6c05146200023957806358c12dbe146200026f5780636f2ddd931462000291578063715018a614620002b35780637387b63514620002bf576200016c565b8063049878f314620001715780631ef46a6814620001915780633705abf1146200019d57806339327e9e14620001d357806343086f0d14620001f5575b600080fd5b6200018f600480360381019062000189919062001d14565b62000483565b005b6200019b6200049d565b005b620001bb6004803603810190620001b5919062001ccf565b6200066c565b604051620001ca919062002086565b60405180910390f35b620001dd620006b5565b604051620001ec9190620021ae565b60405180910390f35b620001ff620006db565b6040516200020e919062002191565b60405180910390f35b6200022162000701565b604051620002309190620021e8565b60405180910390f35b62000257600480360381019062000251919062001c77565b620007a3565b6040516200026691906200213a565b60405180910390f35b62000279620007fc565b60405162000288919062002157565b60405180910390f35b6200029b62000822565b604051620002aa9190620021cb565b60405180910390f35b620002bd62000835565b005b620002dd6004803603810190620002d7919062001d14565b620009c3565b604051620002ec9190620021e8565b60405180910390f35b620002ff62000a84565b6040516200030e919062002086565b60405180910390f35b6200032162000aa8565b60405162000330919062002086565b60405180910390f35b6200034362000ad2565b6040516200035291906200231c565b60405180910390f35b6200036562000ad9565b60405162000374919062002174565b60405180910390f35b6200038762000aff565b6040516200039691906200231c565b60405180910390f35b620003bd6004803603810190620003b7919062001c77565b62000b05565b005b620003c962000c66565b604051620003d891906200231c565b60405180910390f35b620003ff6004803603810190620003f9919062001d6c565b62000c6c565b005b6200041f600480360381019062000419919062001c77565b62000ec9565b6040516200042e91906200213a565b60405180910390f35b6200045560048036038101906200044f919062001d14565b62000ee9565b005b620004616200102d565b005b6200048160048036038101906200047b919062001c77565b62001045565b005b6200049a62000491620013b0565b826000620013c1565b50565b620004a7620013b0565b73ffffffffffffffffffffffffffffffffffffffff16600160009054906101000a900473ffffffffffffffffffffffffffffffffffffffff1673ffffffffffffffffffffffffffffffffffffffff16146200056a576040517f08c379a00000000000000000000000000000000000000000000000000000000081526004018080602001828103825260208152602001807f4f776e61626c653a2063616c6c6572206973206e6f7420746865206f776e657281525060200191505060405180910390fd5b600073ffffffffffffffffffffffffffffffffffffffff16600b60009054906101000a900473ffffffffffffffffffffffffffffffffffffffff1673ffffffffffffffffffffffffffffffffffffffff1614620005fe576040517f08c379a0000000000000000000000000000000000000000000000000000000008152600401620005f59062002250565b60405180910390fd5b6040516200060c9062001bb1565b604051809103906000f08015801562000629573d6000803e3d6000fd5b50600b60006101000a81548173ffffffffffffffffffffffffffffffffffffffff021916908373ffffffffffffffffffffffffffffffffffffffff160217905550565b6008818051602081018201805184825260208301602085012081835280955050505050506000915054906101000a900473ffffffffffffffffffffffffffffffffffffffff1681565b600c60009054906101000a900473ffffffffffffffffffffffffffffffffffffffff1681565b600b60009054906101000a900473ffffffffffffffffffffffffffffffffffffffff1681565b60028054600181600116156101000203166002900480601f0160208091040260200160405190810160405280929190818152602001828054600181600116156101000203166002900480156200079b5780601f106200076f576101008083540402835291602001916200079b565b820191906000526020600020905b8154815290600101906020018083116200077d57829003601f168201915b505050505081565b60008060009054906101000a900473ffffffffffffffffffffffffffffffffffffffff1673ffffffffffffffffffffffffffffffffffffffff168273ffffffffffffffffffffffffffffffffffffffff16149050919050565b600a60009054906101000a900473ffffffffffffffffffffffffffffffffffffffff1681565b600560019054906101000a900460ff1681565b6200083f620013b0565b73ffffffffffffffffffffffffffffffffffffffff16600160009054906101000a900473ffffffffffffffffffffffffffffffffffffffff1673ffffffffffffffffffffffffffffffffffffffff161462000902576040517f08c379a00000000000000000000000000000000000000000000000000000000081526004018080602001828103825260208152602001807f4f776e61626c653a2063616c6c6572206973206e6f7420746865206f776e657281525060200191505060405180910390fd5b600073ffffffffffffffffffffffffffffffffffffffff16600160009054906101000a900473ffffffffffffffffffffffffffffffffffffffff1673ffffffffffffffffffffffffffffffffffffffff167f8be0079c531659141344cd1fd0a4f28419497f9722a3daafe3b4186f6b6457e060405160405180910390a36000600160006101000a81548173ffffffffffffffffffffffffffffffffffffffff021916908373ffffffffffffffffffffffffffffffffffffffff160217905550565b60098181548110620009d457600080fd5b906000526020600020016000915090508054600181600116156101000203166002900480601f01602080910402602001604051908101604052809291908181526020018280546001816001161561010002031660029004801562000a7c5780601f1062000a505761010080835404028352916020019162000a7c565b820191906000526020600020905b81548152906001019060200180831162000a5e57829003601f168201915b505050505081565b60008054906101000a900473ffffffffffffffffffffffffffffffffffffffff1681565b6000600160009054906101000a900473ffffffffffffffffffffffffffffffffffffffff16905090565b6201770081565b600360009054906101000a900473ffffffffffffffffffffffffffffffffffffffff1681565b60075481565b62000b0f620013b0565b73ffffffffffffffffffffffffffffffffffffffff16600160009054906101000a900473ffffffffffffffffffffffffffffffffffffffff1673ffffffffffffffffffffffffffffffffffffffff161462000bd2576040517f08c379a00000000000000000000000000000000000000000000000000000000081526004018080602001828103825260208152602001807f4f776e61626c653a2063616c6c6572206973206e6f7420746865206f776e657281525060200191505060405180910390fd5b600a60009054906101000a900473ffffffffffffffffffffffffffffffffffffffff1673ffffffffffffffffffffffffffffffffffffffff1663a46eddcf826040518263ffffffff1660e01b815260040162000c2f919062002086565b600060405180830381600087803b15801562000c4a57600080fd5b505af115801562000c5f573d6000803e3d6000fd5b5050505050565b60045481565b600b60009054906101000a900473ffffffffffffffffffffffffffffffffffffffff1673ffffffffffffffffffffffffffffffffffffffff1662000caf620013b0565b73ffffffffffffffffffffffffffffffffffffffff161462000d08576040517f08c379a000000000000000000000000000000000000000000000000000000000815260040162000cff90620022d8565b60405180910390fd5b600073ffffffffffffffffffffffffffffffffffffffff168173ffffffffffffffffffffffffffffffffffffffff161462000ec557600360009054906101000a900473ffffffffffffffffffffffffffffffffffffffff1673ffffffffffffffffffffffffffffffffffffffff1663095ea7b3600a60009054906101000a900473ffffffffffffffffffffffffffffffffffffffff1662000dbb670de0b6b3a7640000866200125a90919063ffffffff16565b6040518363ffffffff1660e01b815260040162000dda9291906200210d565b602060405180830381600087803b15801562000df557600080fd5b505af115801562000e0a573d6000803e3d6000fd5b505050506040513d601f19601f8201168201806040525081019062000e30919062001ca3565b50600a60009054906101000a900473ffffffffffffffffffffffffffffffffffffffff1673ffffffffffffffffffffffffffffffffffffffff1663e377672e83836040518363ffffffff1660e01b815260040162000e9092919062002339565b600060405180830381600087803b15801562000eab57600080fd5b505af115801562000ec0573d6000803e3d6000fd5b505050505b5050565b60066020528060005260406000206000915054906101000a900460ff1681565b600a60009054906101000a900473ffffffffffffffffffffffffffffffffffffffff1673ffffffffffffffffffffffffffffffffffffffff163373ffffffffffffffffffffffffffffffffffffffff161462000f7c576040517f08c379a000000000000000000000000000000000000000000000000000000000815260040162000f73906200220c565b60405180910390fd5b600560009054906101000a900460ff161562000fcf576040517f08c379a000000000000000000000000000000000000000000000000000000000815260040162000fc690620022fa565b60405180910390fd5b806004819055506001600560006101000a81548160ff0219169083151502179055507fc72e55068a99063a2c847c0b87d2808f29d1935171e54ffa3a479533b4046b74816040516200102291906200231c565b60405180910390a150565b620010436200103b620013b0565b60006200174f565b565b6200104f620013b0565b73ffffffffffffffffffffffffffffffffffffffff16600160009054906101000a900473ffffffffffffffffffffffffffffffffffffffff1673ffffffffffffffffffffffffffffffffffffffff161462001112576040517f08c379a00000000000000000000000000000000000000000000000000000000081526004018080602001828103825260208152602001807f4f776e61626c653a2063616c6c6572206973206e6f7420746865206f776e657281525060200191505060405180910390fd5b600073ffffffffffffffffffffffffffffffffffffffff168173ffffffffffffffffffffffffffffffffffffffff1614156200119a576040517f08c379a000000000000000000000000000000000000000000000000000000000815260040180806020018281038252602681526020018062003eab6026913960400191505060405180910390fd5b8073ffffffffffffffffffffffffffffffffffffffff16600160009054906101000a900473ffffffffffffffffffffffffffffffffffffffff1673ffffffffffffffffffffffffffffffffffffffff167f8be0079c531659141344cd1fd0a4f28419497f9722a3daafe3b4186f6b6457e060405160405180910390a380600160006101000a81548173ffffffffffffffffffffffffffffffffffffffff021916908373ffffffffffffffffffffffffffffffffffffffff16021790555050565b6000808314156200126f5760009050620012df565b60008284029050828482816200128157fe5b0414620012da576040517f08c379a000000000000000000000000000000000000000000000000000000000815260040180806020018281038252602181526020018062003ed16021913960400191505060405180910390fd5b809150505b92915050565b600060186000369050101580156200130457506200130333620007a3565b5b156200131a57601436033560601c905062001323565b33905062001324565b5b90565b600080828401905083811015620013a6576040517f08c379a000000000000000000000000000000000000000000000000000000000815260040180806020018281038252601b8152602001807f536166654d6174683a206164646974696f6e206f766572666c6f77000000000081525060200191505060405180910390fd5b8091505092915050565b6000620013bc620012e5565b905090565b600073ffffffffffffffffffffffffffffffffffffffff16600a60009054906101000a900473ffffffffffffffffffffffffffffffffffffffff1673ffffffffffffffffffffffffffffffffffffffff16141562001456576040517f08c379a00000000000000000000000000000000000000000000000000000000081526004016200144d906200222e565b60405180910390fd5b6019600754106200149e576040517f08c379a00000000000000000000000000000000000000000000000000000000081526004016200149590620022b6565b60405180910390fd5b60001515600660008573ffffffffffffffffffffffffffffffffffffffff1673ffffffffffffffffffffffffffffffffffffffff16815260200190815260200160002060009054906101000a900460ff1615151462001534576040517f08c379a00000000000000000000000000000000000000000000000000000000081526004016200152b9062002294565b60405180910390fd5b6001600660008573ffffffffffffffffffffffffffffffffffffffff1673ffffffffffffffffffffffffffffffffffffffff16815260200190815260200160002060006101000a81548160ff021916908315150217905550620015a460016007546200132790919063ffffffff16565b600781905550600360009054906101000a900473ffffffffffffffffffffffffffffffffffffffff1673ffffffffffffffffffffffffffffffffffffffff1663bc93233f84836040518363ffffffff1660e01b815260040162001609929190620020e0565b600060405180830381600087803b1580156200162457600080fd5b505af115801562001639573d6000803e3d6000fd5b50505050600360009054906101000a900473ffffffffffffffffffffffffffffffffffffffff1673ffffffffffffffffffffffffffffffffffffffff1663a9059cbb8462001699670de0b6b3a7640000866200125a90919063ffffffff16565b6040518363ffffffff1660e01b8152600401620016b89291906200210d565b602060405180830381600087803b158015620016d357600080fd5b505af1158015620016e8573d6000803e3d6000fd5b505050506040513d601f19601f820116820180604052508101906200170e919062001ca3565b507fede8eed4383e9241982619b94dd83e488b274cced0fd07b8c0092a393defd52f8383604051620017429291906200210d565b60405180910390a1505050565b6200175a8262001a08565b6000600660008473ffffffffffffffffffffffffffffffffffffffff1673ffffffffffffffffffffffffffffffffffffffff16815260200190815260200160002060006101000a81548160ff021916908315150217905550620017ca600160075462001aa190919063ffffffff16565b600781905550600360009054906101000a900473ffffffffffffffffffffffffffffffffffffffff1673ffffffffffffffffffffffffffffffffffffffff166323b872dd8330600360009054906101000a900473ffffffffffffffffffffffffffffffffffffffff1673ffffffffffffffffffffffffffffffffffffffff166370a08231876040518263ffffffff1660e01b81526004016200186d919062002086565b60206040518083038186803b1580156200188657600080fd5b505afa1580156200189b573d6000803e3d6000fd5b505050506040513d601f19601f82011682018060405250810190620018c1919062001d40565b6040518463ffffffff1660e01b8152600401620018e193929190620020a3565b602060405180830381600087803b158015620018fc57600080fd5b505af115801562001911573d6000803e3d6000fd5b505050506040513d601f19601f8201168201806040525081019062001937919062001ca3565b50600360009054906101000a900473ffffffffffffffffffffffffffffffffffffffff1673ffffffffffffffffffffffffffffffffffffffff16632797c7a483836040518363ffffffff1660e01b815260040162001997929190620020e0565b600060405180830381600087803b158015620019b257600080fd5b505af1158015620019c7573d6000803e3d6000fd5b505050507f6e76fb4c77256006d9c38ec7d82b45a8c8f3c27b1d6766fffc42dfb8de68449282604051620019fc919062002086565b60405180910390a15050565b60011515600660008373ffffffffffffffffffffffffffffffffffffffff1673ffffffffffffffffffffffffffffffffffffffff16815260200190815260200160002060009054906101000a900460ff1615151462001a9e576040517f08c379a000000000000000000000000000000000000000000000000000000000815260040162001a959062002272565b60405180910390fd5b50565b600062001ae583836040518060400160405280601e81526020017f536166654d6174683a207375627472616374696f6e206f766572666c6f77000081525062001aed565b905092915050565b600083831115829062001b9e576040517f08c379a00000000000000000000000000000000000000000000000000000000081526004018080602001828103825283818151815260200191508051906020019080838360005b8381101562001b6257808201518184015260208101905062001b45565b50505050905090810190601f16801562001b905780820380516001836020036101000a031916815260200191505b509250505060405180910390fd5b5060008385039050809150509392505050565b6118f180620025ba83390190565b60008135905062001bd0816200256b565b92915050565b60008151905062001be78162002585565b92915050565b600082601f83011262001bff57600080fd5b813562001c1662001c10826200239a565b62002366565b9150808252602083016020830185838301111562001c3357600080fd5b62001c40838284620024fc565b50505092915050565b60008135905062001c5a816200259f565b92915050565b60008151905062001c71816200259f565b92915050565b60006020828403121562001c8a57600080fd5b600062001c9a8482850162001bbf565b91505092915050565b60006020828403121562001cb657600080fd5b600062001cc68482850162001bd6565b91505092915050565b60006020828403121562001ce257600080fd5b600082013567ffffffffffffffff81111562001cfd57600080fd5b62001d0b8482850162001bed565b91505092915050565b60006020828403121562001d2757600080fd5b600062001d378482850162001c49565b91505092915050565b60006020828403121562001d5357600080fd5b600062001d638482850162001c60565b91505092915050565b6000806040838503121562001d8057600080fd5b600062001d908582860162001c49565b925050602062001da38582860162001bbf565b9150509250929050565b62001db881620023e9565b82525050565b62001dc981620023fd565b82525050565b62001dda8162002448565b82525050565b62001deb8162002470565b82525050565b62001dfc8162002498565b82525050565b62001e0d81620024c0565b82525050565b62001e1e81620024e8565b82525050565b600062001e3182620023cd565b62001e3d8185620023d8565b935062001e4f8185602086016200250b565b62001e5a8162002543565b840191505092915050565b600062001e74600c83620023d8565b91507f6e6f7420747265617375727900000000000000000000000000000000000000006000830152602082019050919050565b600062001eb6601083620023d8565b91507f7472656173757279206e6f7420736574000000000000000000000000000000006000830152602082019050919050565b600062001ef8600f83620023d8565b91507f616c7265616479206372656174656400000000000000000000000000000000006000830152602082019050919050565b600062001f3a600a83620023d8565b91507f6e6f74206d656d626572000000000000000000000000000000000000000000006000830152602082019050919050565b600062001f7c600e83620023d8565b91507f616c7265616479206d656d6265720000000000000000000000000000000000006000830152602082019050919050565b600062001fbe600e83620023d8565b91507f636f6d6d756e6974792066756c6c0000000000000000000000000000000000006000830152602082019050919050565b600062002000601083620023d8565b91507f6e6f7420676967207265676973747279000000000000000000000000000000006000830152602082019050919050565b600062002042600b83620023d8565b91507f616c7265616479207365740000000000000000000000000000000000000000006000830152602082019050919050565b62002080816200243e565b82525050565b60006020820190506200209d600083018462001dad565b92915050565b6000606082019050620020ba600083018662001dad565b620020c9602083018562001dad565b620020d8604083018462002075565b949350505050565b6000604082019050620020f7600083018562001dad565b62002106602083018462001dbe565b9392505050565b600060408201905062002124600083018562001dad565b62002133602083018462002075565b9392505050565b600060208201905062002151600083018462001dbe565b92915050565b60006020820190506200216e600083018462001dcf565b92915050565b60006020820190506200218b600083018462001de0565b92915050565b6000602082019050620021a8600083018462001df1565b92915050565b6000602082019050620021c5600083018462001e02565b92915050565b6000602082019050620021e2600083018462001e13565b92915050565b6000602082019050818103600083015262002204818462001e24565b905092915050565b60006020820190508181036000830152620022278162001e65565b9050919050565b60006020820190508181036000830152620022498162001ea7565b9050919050565b600060208201905081810360008301526200226b8162001ee9565b9050919050565b600060208201905081810360008301526200228d8162001f2b565b9050919050565b60006020820190508181036000830152620022af8162001f6d565b9050919050565b60006020820190508181036000830152620022d18162001faf565b9050919050565b60006020820190508181036000830152620022f38162001ff1565b9050919050565b60006020820190508181036000830152620023158162002033565b9050919050565b600060208201905062002333600083018462002075565b92915050565b600060408201905062002350600083018562002075565b6200235f602083018462001dad565b9392505050565b6000604051905081810181811067ffffffffffffffff8211171562002390576200238f62002541565b5b8060405250919050565b600067ffffffffffffffff821115620023b857620023b762002541565b5b601f19601f8301169050602081019050919050565b600081519050919050565b600082825260208201905092915050565b6000620023f6826200241e565b9050919050565b60008115159050919050565b6000819050620024198262002554565b919050565b600073ffffffffffffffffffffffffffffffffffffffff82169050919050565b6000819050919050565b600062002455826200245c565b9050919050565b600062002469826200241e565b9050919050565b60006200247d8262002484565b9050919050565b600062002491826200241e565b9050919050565b6000620024a582620024ac565b9050919050565b6000620024b9826200241e565b9050919050565b6000620024cd82620024d4565b9050919050565b6000620024e1826200241e565b9050919050565b6000620024f58262002409565b9050919050565b82818337600083830152505050565b60005b838110156200252b5780820151818401526020810190506200250e565b838111156200253b576000848401525b50505050565bfe5b6000601f19601f8301169050919050565b6003811062002568576200256762002541565b5b50565b6200257681620023e9565b81146200258257600080fd5b50565b6200259081620023fd565b81146200259c57600080fd5b50565b620025aa816200243e565b8114620025b657600080fd5b5056fe608060405234801561001057600080fd5b50600061002161010560201b60201c565b9050806000806101000a81548173ffffffffffffffffffffffffffffffffffffffff021916908373ffffffffffffffffffffffffffffffffffffffff1602179055508073ffffffffffffffffffffffffffffffffffffffff16600073ffffffffffffffffffffffffffffffffffffffff167f8be0079c531659141344cd1fd0a4f28419497f9722a3daafe3b4186f6b6457e060405160405180910390a35033600460006101000a81548173ffffffffffffffffffffffffffffffffffffffff021916908373ffffffffffffffffffffffffffffffffffffffff16021790555061010d565b600033905090565b6117d58061011c6000396000f3fe608060405234801561001057600080fd5b50600436106100b45760003560e01c8063acf1ee6a11610071578063acf1ee6a1461023c578063bd75e5c21461026a578063dc1fb5a5146102d5578063f0d119ec14610309578063f2fde38b14610357578063fbf71f921461039b576100b4565b80634adac15f146100b95780635e3fbdc81461011b57806361b8ce8c146101b2578063715018a6146101d05780638da5cb5b146101da57806390c0e3ac1461020e575b600080fd5b610119600480360360808110156100cf57600080fd5b8101908080359060200190929190803573ffffffffffffffffffffffffffffffffffffffff16906020019092919080359060200190929190803590602001909291905050506103f3565b005b6101476004803603602081101561013157600080fd5b810190808035906020019092919050505061087a565b604051808673ffffffffffffffffffffffffffffffffffffffff1681526020018573ffffffffffffffffffffffffffffffffffffffff16815260200184600481111561018f57fe5b815260200183151581526020018281526020019550505050505060405180910390f35b6101ba61090a565b6040518082815260200191505060405180910390f35b6101d8610910565b005b6101e2610a96565b604051808273ffffffffffffffffffffffffffffffffffffffff16815260200191505060405180910390f35b61023a6004803603602081101561022457600080fd5b8101908080359060200190929190505050610abf565b005b6102686004803603602081101561025257600080fd5b8101908080359060200190929190505050610d67565b005b6102b66004803603604081101561028057600080fd5b81019080803573ffffffffffffffffffffffffffffffffffffffff16906020019092919080359060200190929190505050610f4d565b6040518083815260200182151581526020019250505060405180910390f35b6102dd6110dd565b604051808273ffffffffffffffffffffffffffffffffffffffff16815260200191505060405180910390f35b6103556004803603604081101561031f57600080fd5b8101908080359060200190929190803573ffffffffffffffffffffffffffffffffffffffff169060200190929190505050611103565b005b6103996004803603602081101561036d57600080fd5b81019080803573ffffffffffffffffffffffffffffffffffffffff16906020019092919050505061141b565b005b6103c7600480360360208110156103b157600080fd5b8101908080359060200190929190505050611626565b604051808273ffffffffffffffffffffffffffffffffffffffff16815260200191505060405180910390f35b6103fb6116e9565b600160008681526020019081526020016000206040518060a00160405290816000820160009054906101000a900473ffffffffffffffffffffffffffffffffffffffff1673ffffffffffffffffffffffffffffffffffffffff1673ffffffffffffffffffffffffffffffffffffffff1681526020016001820160009054906101000a900473ffffffffffffffffffffffffffffffffffffffff1673ffffffffffffffffffffffffffffffffffffffff1673ffffffffffffffffffffffffffffffffffffffff1681526020016001820160149054906101000a900460ff1660048111156104e357fe5b60048111156104ee57fe5b81526020016001820160159054906101000a900460ff1615151515815260200160028201548152505090506002600481111561052657fe5b8160400151600481111561053657fe5b146105a9576040517f08c379a00000000000000000000000000000000000000000000000000000000081526004018080602001828103825260108152602001807f77726f6e6720676967207374617475730000000000000000000000000000000081525060200191505060405180910390fd5b8373ffffffffffffffffffffffffffffffffffffffff16816000015173ffffffffffffffffffffffffffffffffffffffff161461064e576040517f08c379a000000000000000000000000000000000000000000000000000000000815260040180806020018281038252600d8152602001807f77726f6e672063726561746f720000000000000000000000000000000000000081525060200191505060405180910390fd5b828160800151146106c7576040517f08c379a000000000000000000000000000000000000000000000000000000000815260040180806020018281038252600a8152602001807f77726f6e6720686173680000000000000000000000000000000000000000000081525060200191505060405180910390fd5b600081606001516106d957600061070e565b6003600087815260200190815260200160002060009054906101000a900473ffffffffffffffffffffffffffffffffffffffff165b905060036001600088815260200190815260200160002060010160146101000a81548160ff0219169083600481111561074357fe5b0217905550600460009054906101000a900473ffffffffffffffffffffffffffffffffffffffff1673ffffffffffffffffffffffffffffffffffffffff1663bc910cf984836040518363ffffffff1660e01b8152600401808381526020018273ffffffffffffffffffffffffffffffffffffffff16815260200192505050600060405180830381600087803b1580156107db57600080fd5b505af11580156107ef573d6000803e3d6000fd5b505050507f3543f1b1a2550a8439a69bf699b14ed21478f1e2e2ef70e45cf8ecb89d945a998686846020015187604051808581526020018473ffffffffffffffffffffffffffffffffffffffff1681526020018373ffffffffffffffffffffffffffffffffffffffff16815260200182815260200194505050505060405180910390a1505050505050565b60016020528060005260406000206000915090508060000160009054906101000a900473ffffffffffffffffffffffffffffffffffffffff16908060010160009054906101000a900473ffffffffffffffffffffffffffffffffffffffff16908060010160149054906101000a900460ff16908060010160159054906101000a900460ff16908060020154905085565b60025481565b610918611659565b73ffffffffffffffffffffffffffffffffffffffff1660008054906101000a900473ffffffffffffffffffffffffffffffffffffffff1673ffffffffffffffffffffffffffffffffffffffff16146109d8576040517f08c379a00000000000000000000000000000000000000000000000000000000081526004018080602001828103825260208152602001807f4f776e61626c653a2063616c6c6572206973206e6f7420746865206f776e657281525060200191505060405180910390fd5b600073ffffffffffffffffffffffffffffffffffffffff1660008054906101000a900473ffffffffffffffffffffffffffffffffffffffff1673ffffffffffffffffffffffffffffffffffffffff167f8be0079c531659141344cd1fd0a4f28419497f9722a3daafe3b4186f6b6457e060405160405180910390a360008060006101000a81548173ffffffffffffffffffffffffffffffffffffffff021916908373ffffffffffffffffffffffffffffffffffffffff160217905550565b60008060009054906101000a900473ffffffffffffffffffffffffffffffffffffffff16905090565b610ac76116e9565b600160008381526020019081526020016000206040518060a00160405290816000820160009054906101000a900473ffffffffffffffffffffffffffffffffffffffff1673ffffffffffffffffffffffffffffffffffffffff1673ffffffffffffffffffffffffffffffffffffffff1681526020016001820160009054906101000a900473ffffffffffffffffffffffffffffffffffffffff1673ffffffffffffffffffffffffffffffffffffffff1673ffffffffffffffffffffffffffffffffffffffff1681526020016001820160149054906101000a900460ff166004811115610baf57fe5b6004811115610bba57fe5b81526020016001820160159054906101000a900460ff16151515158152602001600282015481525050905060016004811115610bf257fe5b81604001516004811115610c0257fe5b14610c75576040517f08c379a00000000000000000000000000000000000000000000000000000000081526004018080602001828103825260108152602001807f77726f6e6720676967207374617475730000000000000000000000000000000081525060200191505060405180910390fd5b336001600084815260200190815260200160002060010160006101000a81548173ffffffffffffffffffffffffffffffffffffffff021916908373ffffffffffffffffffffffffffffffffffffffff16021790555060026001600084815260200190815260200160002060010160146101000a81548160ff02191690836004811115610cfd57fe5b02179055507fefc12b14a58844ed1e92df691cd7fc51a53bc99c566fecaa3dcaf0207bb409ec82338360800151604051808481526020018373ffffffffffffffffffffffffffffffffffffffff168152602001828152602001935050505060405180910390a15050565b610d6f6116e9565b6040518060a001604052803373ffffffffffffffffffffffffffffffffffffffff168152602001600073ffffffffffffffffffffffffffffffffffffffff16815260200160016004811115610dc057fe5b81526020016000151581526020018381525090508060016000600254815260200190815260200160002060008201518160000160006101000a81548173ffffffffffffffffffffffffffffffffffffffff021916908373ffffffffffffffffffffffffffffffffffffffff16021790555060208201518160010160006101000a81548173ffffffffffffffffffffffffffffffffffffffff021916908373ffffffffffffffffffffffffffffffffffffffff16021790555060408201518160010160146101000a81548160ff02191690836004811115610e9c57fe5b021790555060608201518160010160156101000a81548160ff021916908315150217905550608082015181600201559050507f13d4aef66c3ac9a624b5206c8c0566fa03c1af27a4d5cf459065be492292fade6002543384604051808481526020018373ffffffffffffffffffffffffffffffffffffffff168152602001828152602001935050505060405180910390a1610f43600160025461166190919063ffffffff16565b6002819055505050565b60008060006002541415610f6757600080915091506110d6565b60005b6002548163ffffffff16108015611010575083600160008363ffffffff1681526020019081526020016000206002015414158061100f57508473ffffffffffffffffffffffffffffffffffffffff16600160008363ffffffff16815260200190815260200160002060000160009054906101000a900473ffffffffffffffffffffffffffffffffffffffff1673ffffffffffffffffffffffffffffffffffffffff1614155b5b1561102057600181019050610f6a565b8473ffffffffffffffffffffffffffffffffffffffff16600160008363ffffffff16815260200190815260200160002060000160009054906101000a900473ffffffffffffffffffffffffffffffffffffffff1673ffffffffffffffffffffffffffffffffffffffff161480156110b2575083600160008363ffffffff16815260200190815260200160002060020154145b156110cd578060018163ffffffff16915092509250506110d6565b60008092509250505b9250929050565b600460009054906101000a900473ffffffffffffffffffffffffffffffffffffffff1681565b600073ffffffffffffffffffffffffffffffffffffffff168173ffffffffffffffffffffffffffffffffffffffff161415611189576040517f08c379a000000000000000000000000000000000000000000000000000000000815260040180806020018281038252602581526020018061177b6025913960400191505060405180910390fd5b6111916116e9565b6040518060a001604052803373ffffffffffffffffffffffffffffffffffffffff168152602001600073ffffffffffffffffffffffffffffffffffffffff168152602001600160048111156111e257fe5b81526020016001151581526020018481525090508060016000600254815260200190815260200160002060008201518160000160006101000a81548173ffffffffffffffffffffffffffffffffffffffff021916908373ffffffffffffffffffffffffffffffffffffffff16021790555060208201518160010160006101000a81548173ffffffffffffffffffffffffffffffffffffffff021916908373ffffffffffffffffffffffffffffffffffffffff16021790555060408201518160010160146101000a81548160ff021916908360048111156112be57fe5b021790555060608201518160010160156101000a81548160ff021916908315150217905550608082015181600201559050508160036000600254815260200190815260200160002060006101000a81548173ffffffffffffffffffffffffffffffffffffffff021916908373ffffffffffffffffffffffffffffffffffffffff1602179055507f13d4aef66c3ac9a624b5206c8c0566fa03c1af27a4d5cf459065be492292fade6002543385604051808481526020018373ffffffffffffffffffffffffffffffffffffffff168152602001828152602001935050505060405180910390a17f661f03ff2575617c854392b05d6fd40b791b5ffe7b640e3c055371aa3123c2d960025483604051808381526020018273ffffffffffffffffffffffffffffffffffffffff1681526020019250505060405180910390a1611410600160025461166190919063ffffffff16565b600281905550505050565b611423611659565b73ffffffffffffffffffffffffffffffffffffffff1660008054906101000a900473ffffffffffffffffffffffffffffffffffffffff1673ffffffffffffffffffffffffffffffffffffffff16146114e3576040517f08c379a00000000000000000000000000000000000000000000000000000000081526004018080602001828103825260208152602001807f4f776e61626c653a2063616c6c6572206973206e6f7420746865206f776e657281525060200191505060405180910390fd5b600073ffffffffffffffffffffffffffffffffffffffff168173ffffffffffffffffffffffffffffffffffffffff161415611569576040517f08c379a00000000000000000000000000000000000000000000000000000000081526004018080602001828103825260268152602001806117556026913960400191505060405180910390fd5b8073ffffffffffffffffffffffffffffffffffffffff1660008054906101000a900473ffffffffffffffffffffffffffffffffffffffff1673ffffffffffffffffffffffffffffffffffffffff167f8be0079c531659141344cd1fd0a4f28419497f9722a3daafe3b4186f6b6457e060405160405180910390a3806000806101000a81548173ffffffffffffffffffffffffffffffffffffffff021916908373ffffffffffffffffffffffffffffffffffffffff16021790555050565b60036020528060005260406000206000915054906101000a900473ffffffffffffffffffffffffffffffffffffffff1681565b600033905090565b6000808284019050838110156116df576040517f08c379a000000000000000000000000000000000000000000000000000000000815260040180806020018281038252601b8152602001807f536166654d6174683a206164646974696f6e206f766572666c6f77000000000081525060200191505060405180910390fd5b8091505092915050565b6040518060a00160405280600073ffffffffffffffffffffffffffffffffffffffff168152602001600073ffffffffffffffffffffffffffffffffffffffff1681526020016000600481111561173b57fe5b815260200160001515815260200160008019168152509056fe4f776e61626c653a206e6577206f776e657220697320746865207a65726f20616464726573736d696c6573746f6e652070726f6a65637420616464726573732063616e6e6f742062652030a2646970667358221220cf19d15ed01df91459157346272d11a06ffbbe83a08151ce0b88e76900ffdac564736f6c634300070400334f776e61626c653a206e6577206f776e657220697320746865207a65726f2061646472657373536166654d6174683a206d756c7469706c69636174696f6e206f766572666c6f77a26469706673582212207426bffa43b7f71fef429c6d0cf96f3bddda9191dd0b00166a41de683c7e581f64736f6c6343000704003360806040523480156200001157600080fd5b5060405162002a9038038062002a90833981810160405260208110156200003757600080fd5b81019080805190602001909291905050506040518060400160405280600481526020017f4469546f000000000000000000000000000000000000000000000000000000008152506040518060400160405280600481526020017f4449544f000000000000000000000000000000000000000000000000000000008152508160039080519060200190620000cc9291906200049a565b508060049080519060200190620000e59291906200049a565b506012600560006101000a81548160ff021916908360ff16021790555050506000620001166200022660201b60201c565b905080600560016101000a81548173ffffffffffffffffffffffffffffffffffffffff021916908373ffffffffffffffffffffffffffffffffffffffff1602179055508073ffffffffffffffffffffffffffffffffffffffff16600073ffffffffffffffffffffffffffffffffffffffff167f8be0079c531659141344cd1fd0a4f28419497f9722a3daafe3b4186f6b6457e060405160405180910390a3506001600660003373ffffffffffffffffffffffffffffffffffffffff1673ffffffffffffffffffffffffffffffffffffffff16815260200190815260200160002060006101000a81548160ff0219169083151502179055506200021f33826200022e60201b60201c565b5062000550565b600033905090565b600073ffffffffffffffffffffffffffffffffffffffff168273ffffffffffffffffffffffffffffffffffffffff161415620002d2576040517f08c379a000000000000000000000000000000000000000000000000000000000815260040180806020018281038252601f8152602001807f45524332303a206d696e7420746f20746865207a65726f20616464726573730081525060200191505060405180910390fd5b620002e6600083836200040c60201b60201c565b62000302816002546200041160201b62001b311790919060201c565b60028190555062000360816000808573ffffffffffffffffffffffffffffffffffffffff1673ffffffffffffffffffffffffffffffffffffffff168152602001908152602001600020546200041160201b62001b311790919060201c565b6000808473ffffffffffffffffffffffffffffffffffffffff1673ffffffffffffffffffffffffffffffffffffffff168152602001908152602001600020819055508173ffffffffffffffffffffffffffffffffffffffff16600073ffffffffffffffffffffffffffffffffffffffff167fddf252ad1be2c89b69c2b068fc378daa952ba7f163c4a11628f55a4df523b3ef836040518082815260200191505060405180910390a35050565b505050565b60008082840190508381101562000490576040517f08c379a000000000000000000000000000000000000000000000000000000000815260040180806020018281038252601b8152602001807f536166654d6174683a206164646974696f6e206f766572666c6f77000000000081525060200191505060405180910390fd5b8091505092915050565b828054600181600116156101000203166002900490600052602060002090601f016020900481019282620004d257600085556200051e565b82601f10620004ed57805160ff19168380011785556200051e565b828001600101855582156200051e579182015b828111156200051d57825182559160200191906001019062000500565b5b5090506200052d919062000531565b5090565b5b808211156200054c57600081600090555060010162000532565b5090565b61253080620005606000396000f3fe608060405234801561001057600080fd5b50600436106101165760003560e01c8063715018a6116100a2578063a457c2d711610071578063a457c2d714610520578063a9059cbb14610584578063bc93233f146105e8578063dd62ed3e14610638578063f2fde38b146106b057610116565b8063715018a6146104055780638da5cb5b1461040f57806395d89b41146104435780639b19251a146104c657610116565b80632797c7a4116100e95780632797c7a4146102a4578063313ce567146102f4578063395093511461031557806361d027b31461037957806370a08231146103ad57610116565b806306fdde031461011b578063095ea7b31461019e57806318160ddd1461020257806323b872dd14610220575b600080fd5b6101236106f4565b6040518080602001828103825283818151815260200191508051906020019080838360005b83811015610163578082015181840152602081019050610148565b50505050905090810190601f1680156101905780820380516001836020036101000a031916815260200191505b509250505060405180910390f35b6101ea600480360360408110156101b457600080fd5b81019080803573ffffffffffffffffffffffffffffffffffffffff16906020019092919080359060200190929190505050610796565b60405180821515815260200191505060405180910390f35b61020a61092a565b6040518082815260200191505060405180910390f35b61028c6004803603606081101561023657600080fd5b81019080803573ffffffffffffffffffffffffffffffffffffffff169060200190929190803573ffffffffffffffffffffffffffffffffffffffff16906020019092919080359060200190929190505050610934565b60405180821515815260200191505060405180910390f35b6102f2600480360360408110156102ba57600080fd5b81019080803573ffffffffffffffffffffffffffffffffffffffff169060200190929190803515159060200190929190505050610be4565b005b6102fc610e63565b604051808260ff16815260200191505060405180910390f35b6103616004803603604081101561032b57600080fd5b81019080803573ffffffffffffffffffffffffffffffffffffffff16906020019092919080359060200190929190505050610e7a565b60405180821515815260200191505060405180910390f35b61038161100e565b604051808273ffffffffffffffffffffffffffffffffffffffff16815260200191505060405180910390f35b6103ef600480360360208110156103c357600080fd5b81019080803573ffffffffffffffffffffffffffffffffffffffff169060200190929190505050611034565b6040518082815260200191505060405180910390f35b61040d61107c565b005b610417611207565b604051808273ffffffffffffffffffffffffffffffffffffffff16815260200191505060405180910390f35b61044b611231565b6040518080602001828103825283818151815260200191508051906020019080838360005b8381101561048b578082015181840152602081019050610470565b50505050905090810190601f1680156104b85780820380516001836020036101000a031916815260200191505b509250505060405180910390f35b610508600480360360208110156104dc57600080fd5b81019080803573ffffffffffffffffffffffffffffffffffffffff1690602001909291905050506112d3565b60405180821515815260200191505060405180910390f35b61056c6004803603604081101561053657600080fd5b81019080803573ffffffffffffffffffffffffffffffffffffffff169060200190929190803590602001909291905050506112f3565b60405180821515815260200191505060405180910390f35b6105d06004803603604081101561059a57600080fd5b81019080803573ffffffffffffffffffffffffffffffffffffffff16906020019092919080359060200190929190505050611487565b60405180821515815260200191505060405180910390f35b610636600480360360408110156105fe57600080fd5b81019080803573ffffffffffffffffffffffffffffffffffffffff16906020019092919080351515906020019092919050505061161b565b005b61069a6004803603604081101561064e57600080fd5b81019080803573ffffffffffffffffffffffffffffffffffffffff169060200190929190803573ffffffffffffffffffffffffffffffffffffffff16906020019092919050505061189a565b6040518082815260200191505060405180910390f35b6106f2600480360360208110156106c657600080fd5b81019080803573ffffffffffffffffffffffffffffffffffffffff169060200190929190505050611921565b005b606060038054600181600116156101000203166002900480601f01602080910402602001604051908101604052809291908181526020018280546001816001161561010002031660029004801561078c5780601f106107615761010080835404028352916020019161078c565b820191906000526020600020905b81548152906001019060200180831161076f57829003601f168201915b5050505050905090565b600082600660003373ffffffffffffffffffffffffffffffffffffffff1673ffffffffffffffffffffffffffffffffffffffff16815260200190815260200160002060009054906101000a900460ff16610858576040517f08c379a00000000000000000000000000000000000000000000000000000000081526004018080602001828103825260178152602001807f73656e646572206e6f7420696e2077686974656c69737400000000000000000081525060200191505060405180910390fd5b600660008273ffffffffffffffffffffffffffffffffffffffff1673ffffffffffffffffffffffffffffffffffffffff16815260200190815260200160002060009054906101000a900460ff16610917576040517f08c379a000000000000000000000000000000000000000000000000000000000815260040180806020018281038252601a8152602001807f726563697069656e74206e6f7420696e2077686974656c69737400000000000081525060200191505060405180910390fd5b6109218484611bb9565b91505092915050565b6000600254905090565b600082600660003373ffffffffffffffffffffffffffffffffffffffff1673ffffffffffffffffffffffffffffffffffffffff16815260200190815260200160002060009054906101000a900460ff166109f6576040517f08c379a00000000000000000000000000000000000000000000000000000000081526004018080602001828103825260178152602001807f73656e646572206e6f7420696e2077686974656c69737400000000000000000081525060200191505060405180910390fd5b600660008273ffffffffffffffffffffffffffffffffffffffff1673ffffffffffffffffffffffffffffffffffffffff16815260200190815260200160002060009054906101000a900460ff16610ab5576040517f08c379a000000000000000000000000000000000000000000000000000000000815260040180806020018281038252601a8152602001807f726563697069656e74206e6f7420696e2077686974656c69737400000000000081525060200191505060405180910390fd5b600760009054906101000a900473ffffffffffffffffffffffffffffffffffffffff1673ffffffffffffffffffffffffffffffffffffffff168473ffffffffffffffffffffffffffffffffffffffff161415610bcf57600760009054906101000a900473ffffffffffffffffffffffffffffffffffffffff1673ffffffffffffffffffffffffffffffffffffffff163373ffffffffffffffffffffffffffffffffffffffff1614610bce576040517f08c379a00000000000000000000000000000000000000000000000000000000081526004018080602001828103825260168152602001807f6e6f742073656e742066726f6d2074726561737572790000000000000000000081525060200191505060405180910390fd5b5b610bda858585611bd7565b9150509392505050565b610bec611cb0565b73ffffffffffffffffffffffffffffffffffffffff16600560019054906101000a900473ffffffffffffffffffffffffffffffffffffffff1673ffffffffffffffffffffffffffffffffffffffff1614610cae576040517f08c379a00000000000000000000000000000000000000000000000000000000081526004018080602001828103825260208152602001807f4f776e61626c653a2063616c6c6572206973206e6f7420746865206f776e657281525060200191505060405180910390fd5b8015610dba578173ffffffffffffffffffffffffffffffffffffffff16600760009054906101000a900473ffffffffffffffffffffffffffffffffffffffff1673ffffffffffffffffffffffffffffffffffffffff1614610d77576040517f08c379a00000000000000000000000000000000000000000000000000000000081526004018080602001828103825260188152602001807f6d656d626572206973206e6f742061207472656173757279000000000000000081525060200191505060405180910390fd5b6000600760006101000a81548173ffffffffffffffffffffffffffffffffffffffff021916908373ffffffffffffffffffffffffffffffffffffffff1602179055505b6000600660008473ffffffffffffffffffffffffffffffffffffffff1673ffffffffffffffffffffffffffffffffffffffff16815260200190815260200160002060006101000a81548160ff0219169083151502179055507fcdd2e9b91a56913d370075169cefa1602ba36be5301664f752192bb1709df75782604051808273ffffffffffffffffffffffffffffffffffffffff16815260200191505060405180910390a15050565b6000600560009054906101000a900460ff16905090565b600082600660003373ffffffffffffffffffffffffffffffffffffffff1673ffffffffffffffffffffffffffffffffffffffff16815260200190815260200160002060009054906101000a900460ff16610f3c576040517f08c379a00000000000000000000000000000000000000000000000000000000081526004018080602001828103825260178152602001807f73656e646572206e6f7420696e2077686974656c69737400000000000000000081525060200191505060405180910390fd5b600660008273ffffffffffffffffffffffffffffffffffffffff1673ffffffffffffffffffffffffffffffffffffffff16815260200190815260200160002060009054906101000a900460ff16610ffb576040517f08c379a000000000000000000000000000000000000000000000000000000000815260040180806020018281038252601a8152602001807f726563697069656e74206e6f7420696e2077686974656c69737400000000000081525060200191505060405180910390fd5b6110058484611cb8565b91505092915050565b600760009054906101000a900473ffffffffffffffffffffffffffffffffffffffff1681565b60008060008373ffffffffffffffffffffffffffffffffffffffff1673ffffffffffffffffffffffffffffffffffffffff168152602001908152602001600020549050919050565b611084611cb0565b73ffffffffffffffffffffffffffffffffffffffff16600560019054906101000a900473ffffffffffffffffffffffffffffffffffffffff1673ffffffffffffffffffffffffffffffffffffffff1614611146576040517f08c379a00000000000000000000000000000000000000000000000000000000081526004018080602001828103825260208152602001807f4f776e61626c653a2063616c6c6572206973206e6f7420746865206f776e657281525060200191505060405180910390fd5b600073ffffffffffffffffffffffffffffffffffffffff16600560019054906101000a900473ffffffffffffffffffffffffffffffffffffffff1673ffffffffffffffffffffffffffffffffffffffff167f8be0079c531659141344cd1fd0a4f28419497f9722a3daafe3b4186f6b6457e060405160405180910390a36000600560016101000a81548173ffffffffffffffffffffffffffffffffffffffff021916908373ffffffffffffffffffffffffffffffffffffffff160217905550565b6000600560019054906101000a900473ffffffffffffffffffffffffffffffffffffffff16905090565b606060048054600181600116156101000203166002900480601f0160208091040260200160405190810160405280929190818152602001828054600181600116156101000203166002900480156112c95780601f1061129e576101008083540402835291602001916112c9565b820191906000526020600020905b8154815290600101906020018083116112ac57829003601f168201915b5050505050905090565b60066020528060005260406000206000915054906101000a900460ff1681565b600082600660003373ffffffffffffffffffffffffffffffffffffffff1673ffffffffffffffffffffffffffffffffffffffff16815260200190815260200160002060009054906101000a900460ff166113b5576040517f08c379a00000000000000000000000000000000000000000000000000000000081526004018080602001828103825260178152602001807f73656e646572206e6f7420696e2077686974656c69737400000000000000000081525060200191505060405180910390fd5b600660008273ffffffffffffffffffffffffffffffffffffffff1673ffffffffffffffffffffffffffffffffffffffff16815260200190815260200160002060009054906101000a900460ff16611474576040517f08c379a000000000000000000000000000000000000000000000000000000000815260040180806020018281038252601a8152602001807f726563697069656e74206e6f7420696e2077686974656c69737400000000000081525060200191505060405180910390fd5b61147e8484611d6b565b91505092915050565b600082600660003373ffffffffffffffffffffffffffffffffffffffff1673ffffffffffffffffffffffffffffffffffffffff16815260200190815260200160002060009054906101000a900460ff16611549576040517f08c379a00000000000000000000000000000000000000000000000000000000081526004018080602001828103825260178152602001807f73656e646572206e6f7420696e2077686974656c69737400000000000000000081525060200191505060405180910390fd5b600660008273ffffffffffffffffffffffffffffffffffffffff1673ffffffffffffffffffffffffffffffffffffffff16815260200190815260200160002060009054906101000a900460ff16611608576040517f08c379a000000000000000000000000000000000000000000000000000000000815260040180806020018281038252601a8152602001807f726563697069656e74206e6f7420696e2077686974656c69737400000000000081525060200191505060405180910390fd5b6116128484611e38565b91505092915050565b611623611cb0565b73ffffffffffffffffffffffffffffffffffffffff16600560019054906101000a900473ffffffffffffffffffffffffffffffffffffffff1673ffffffffffffffffffffffffffffffffffffffff16146116e5576040517f08c379a00000000000000000000000000000000000000000000000000000000081526004018080602001828103825260208152602001807f4f776e61626c653a2063616c6c6572206973206e6f7420746865206f776e657281525060200191505060405180910390fd5b80156117f157600073ffffffffffffffffffffffffffffffffffffffff16600760009054906101000a900473ffffffffffffffffffffffffffffffffffffffff1673ffffffffffffffffffffffffffffffffffffffff16146117af576040517f08c379a00000000000000000000000000000000000000000000000000000000081526004018080602001828103825260178152602001807f747265617375727920697320616c72656164792073657400000000000000000081525060200191505060405180910390fd5b81600760006101000a81548173ffffffffffffffffffffffffffffffffffffffff021916908373ffffffffffffffffffffffffffffffffffffffff1602179055505b6001600660008473ffffffffffffffffffffffffffffffffffffffff1673ffffffffffffffffffffffffffffffffffffffff16815260200190815260200160002060006101000a81548160ff0219169083151502179055507fa850ae9193f515cbae8d35e8925bd2be26627fc91bce650b8652ed254e9cab0382604051808273ffffffffffffffffffffffffffffffffffffffff16815260200191505060405180910390a15050565b6000600160008473ffffffffffffffffffffffffffffffffffffffff1673ffffffffffffffffffffffffffffffffffffffff16815260200190815260200160002060008373ffffffffffffffffffffffffffffffffffffffff1673ffffffffffffffffffffffffffffffffffffffff16815260200190815260200160002054905092915050565b611929611cb0565b73ffffffffffffffffffffffffffffffffffffffff16600560019054906101000a900473ffffffffffffffffffffffffffffffffffffffff1673ffffffffffffffffffffffffffffffffffffffff16146119eb576040517f08c379a00000000000000000000000000000000000000000000000000000000081526004018080602001828103825260208152602001807f4f776e61626c653a2063616c6c6572206973206e6f7420746865206f776e657281525060200191505060405180910390fd5b600073ffffffffffffffffffffffffffffffffffffffff168173ffffffffffffffffffffffffffffffffffffffff161415611a71576040517f08c379a00000000000000000000000000000000000000000000000000000000081526004018080602001828103825260268152602001806123f76026913960400191505060405180910390fd5b8073ffffffffffffffffffffffffffffffffffffffff16600560019054906101000a900473ffffffffffffffffffffffffffffffffffffffff1673ffffffffffffffffffffffffffffffffffffffff167f8be0079c531659141344cd1fd0a4f28419497f9722a3daafe3b4186f6b6457e060405160405180910390a380600560016101000a81548173ffffffffffffffffffffffffffffffffffffffff021916908373ffffffffffffffffffffffffffffffffffffffff16021790555050565b600080828401905083811015611baf576040517f08c379a000000000000000000000000000000000000000000000000000000000815260040180806020018281038252601b8152602001807f536166654d6174683a206164646974696f6e206f766572666c6f77000000000081525060200191505060405180910390fd5b8091505092915050565b6000611bcd611bc6611cb0565b8484611e56565b6001905092915050565b6000611be484848461204d565b611ca584611bf0611cb0565b611ca08560405180606001604052806028815260200161246560289139600160008b73ffffffffffffffffffffffffffffffffffffffff1673ffffffffffffffffffffffffffffffffffffffff1681526020019081526020016000206000611c56611cb0565b73ffffffffffffffffffffffffffffffffffffffff1673ffffffffffffffffffffffffffffffffffffffff1681526020019081526020016000205461230e9092919063ffffffff16565b611e56565b600190509392505050565b600033905090565b6000611d61611cc5611cb0565b84611d5c8560016000611cd6611cb0565b73ffffffffffffffffffffffffffffffffffffffff1673ffffffffffffffffffffffffffffffffffffffff16815260200190815260200160002060008973ffffffffffffffffffffffffffffffffffffffff1673ffffffffffffffffffffffffffffffffffffffff16815260200190815260200160002054611b3190919063ffffffff16565b611e56565b6001905092915050565b6000611e2e611d78611cb0565b84611e29856040518060600160405280602581526020016124d66025913960016000611da2611cb0565b73ffffffffffffffffffffffffffffffffffffffff1673ffffffffffffffffffffffffffffffffffffffff16815260200190815260200160002060008a73ffffffffffffffffffffffffffffffffffffffff1673ffffffffffffffffffffffffffffffffffffffff1681526020019081526020016000205461230e9092919063ffffffff16565b611e56565b6001905092915050565b6000611e4c611e45611cb0565b848461204d565b6001905092915050565b600073ffffffffffffffffffffffffffffffffffffffff168373ffffffffffffffffffffffffffffffffffffffff161415611edc576040517f08c379a00000000000000000000000000000000000000000000000000000000081526004018080602001828103825260248152602001806124b26024913960400191505060405180910390fd5b600073ffffffffffffffffffffffffffffffffffffffff168273ffffffffffffffffffffffffffffffffffffffff161415611f62576040517f08c379a000000000000000000000000000000000000000000000000000000000815260040180806020018281038252602281526020018061241d6022913960400191505060405180910390fd5b80600160008573ffffffffffffffffffffffffffffffffffffffff1673ffffffffffffffffffffffffffffffffffffffff16815260200190815260200160002060008473ffffffffffffffffffffffffffffffffffffffff1673ffffffffffffffffffffffffffffffffffffffff168152602001908152602001600020819055508173ffffffffffffffffffffffffffffffffffffffff168373ffffffffffffffffffffffffffffffffffffffff167f8c5be1e5ebec7d5bd14f71427d1e84f3dd0314c0f7b2291e5b200ac8c7c3b925836040518082815260200191505060405180910390a3505050565b600073ffffffffffffffffffffffffffffffffffffffff168373ffffffffffffffffffffffffffffffffffffffff1614156120d3576040517f08c379a000000000000000000000000000000000000000000000000000000000815260040180806020018281038252602581526020018061248d6025913960400191505060405180910390fd5b600073ffffffffffffffffffffffffffffffffffffffff168273ffffffffffffffffffffffffffffffffffffffff161415612159576040517f08c379a00000000000000000000000000000000000000000000000000000000081526004018080602001828103825260238152602001806123d46023913960400191505060405180910390fd5b6121648383836123ce565b6121cf8160405180606001604052806026815260200161243f602691396000808773ffffffffffffffffffffffffffffffffffffffff1673ffffffffffffffffffffffffffffffffffffffff1681526020019081526020016000205461230e9092919063ffffffff16565b6000808573ffffffffffffffffffffffffffffffffffffffff1673ffffffffffffffffffffffffffffffffffffffff16815260200190815260200160002081905550612262816000808573ffffffffffffffffffffffffffffffffffffffff1673ffffffffffffffffffffffffffffffffffffffff16815260200190815260200160002054611b3190919063ffffffff16565b6000808473ffffffffffffffffffffffffffffffffffffffff1673ffffffffffffffffffffffffffffffffffffffff168152602001908152602001600020819055508173ffffffffffffffffffffffffffffffffffffffff168373ffffffffffffffffffffffffffffffffffffffff167fddf252ad1be2c89b69c2b068fc378daa952ba7f163c4a11628f55a4df523b3ef836040518082815260200191505060405180910390a3505050565b60008383111582906123bb576040517f08c379a00000000000000000000000000000000000000000000000000000000081526004018080602001828103825283818151815260200191508051906020019080838360005b83811015612380578082015181840152602081019050612365565b50505050905090810190601f1680156123ad5780820380516001836020036101000a031916815260200191505b509250505060405180910390fd5b5060008385039050809150509392505050565b50505056fe45524332303a207472616e7366657220746f20746865207a65726f20616464726573734f776e61626c653a206e6577206f776e657220697320746865207a65726f206164647265737345524332303a20617070726f766520746f20746865207a65726f206164647265737345524332303a207472616e7366657220616d6f756e7420657863656564732062616c616e636545524332303a207472616e7366657220616d6f756e74206578636565647320616c6c6f77616e636545524332303a207472616e736665722066726f6d20746865207a65726f206164647265737345524332303a20617070726f76652066726f6d20746865207a65726f206164647265737345524332303a2064656372656173656420616c6c6f77616e63652062656c6f77207a65726fa2646970667358221220d5a68a77b06e4c9c5c52a7f008803ab596841b8c4151b0d858bedca38916af9d64736f6c6343000704003360806040523480156200001157600080fd5b506040516200335e3803806200335e833981810160405281019062000037919062000335565b600062000049620002ff60201b60201c565b9050806000806101000a81548173ffffffffffffffffffffffffffffffffffffffff021916908373ffffffffffffffffffffffffffffffffffffffff1602179055508073ffffffffffffffffffffffffffffffffffffffff16600073ffffffffffffffffffffffffffffffffffffffff167f8be0079c531659141344cd1fd0a4f28419497f9722a3daafe3b4186f6b6457e060405160405180910390a350620000f7620002ff60201b60201c565b600460026101000a81548173ffffffffffffffffffffffffffffffffffffffff021916908373ffffffffffffffffffffffffffffffffffffffff1602179055506000600460006101000a81548160ff02191690831515021790555085600460016101000a81548160ff021916908360028111156200017157fe5b021790555084600660006101000a81548173ffffffffffffffffffffffffffffffffffffffff021916908373ffffffffffffffffffffffffffffffffffffffff16021790555083600560006101000a81548173ffffffffffffffffffffffffffffffffffffffff021916908373ffffffffffffffffffffffffffffffffffffffff16021790555080600160006101000a81548173ffffffffffffffffffffffffffffffffffffffff021916908373ffffffffffffffffffffffffffffffffffffffff1602179055508260026040516200024a906200044f565b908152602001604051809103902060006101000a81548173ffffffffffffffffffffffffffffffffffffffff021916908373ffffffffffffffffffffffffffffffffffffffff160217905550816002604051620002a79062000466565b908152602001604051809103902060006101000a81548173ffffffffffffffffffffffffffffffffffffffff021916908373ffffffffffffffffffffffffffffffffffffffff160217905550505050505050620004e7565b600033905090565b6000815190506200031881620004bc565b92915050565b6000815190506200032f81620004d6565b92915050565b60008060008060008060c087890312156200034f57600080fd5b60006200035f89828a016200031e565b96505060206200037289828a0162000307565b95505060406200038589828a0162000307565b94505060606200039889828a0162000307565b9350506080620003ab89828a0162000307565b92505060a0620003be89828a0162000307565b9150509295509295509295565b6000620003da6003836200047d565b91507f44414900000000000000000000000000000000000000000000000000000000006000830152600382019050919050565b60006200041c6004836200047d565b91507f55534443000000000000000000000000000000000000000000000000000000006000830152600482019050919050565b60006200045c82620003cb565b9150819050919050565b600062000473826200040d565b9150819050919050565b600081905092915050565b600062000495826200049c565b9050919050565b600073ffffffffffffffffffffffffffffffffffffffff82169050919050565b620004c78162000488565b8114620004d357600080fd5b50565b60038110620004e457600080fd5b50565b612e6780620004f76000396000f3fe608060405234801561001057600080fd5b50600436106101ce5760003560e01c8063785ffb3711610104578063d0e0ba95116100a2578063e9999b0311610071578063e9999b0314610499578063ef371133146104b7578063f2fde38b146104d5578063fc0c546a146104f1576101ce565b8063d0e0ba9514610425578063d33219b414610441578063dc1fb5a51461045f578063e377672e1461047d576101ce565b8063a46eddcf116100de578063a46eddcf146103b3578063af640d0f146103cf578063bdc5a956146103ed578063c790137814610409576101ce565b8063785ffb371461035b5780638da5cb5b146103795780639963ae8c14610397576101ce565b80634162169f1161017157806363a5d2981161014b57806363a5d2981461030b5780636f2ddd9314610315578063715018a614610333578063715863831461033d576101ce565b80634162169f146102b357806346e61c65146102d157806346f98fec14610301576101ce565b806315da0b02116101ad57806315da0b021461022b5780632bdef29b146102475780633705abf11461026557806339327e9e14610295576101ce565b8062f418f4146101d357806303eeedfb146101dd578063107046bd146101fb575b600080fd5b6101db61050f565b005b6101e56105a2565b6040516101f29190612b0b565b60405180910390f35b61021560048036038101906102109190612431565b6105a8565b604051610222919061284b565b60405180910390f35b610245600480360381019061024091906122e5565b6105e7565b005b61024f61086c565b60405161025c9190612919565b60405180910390f35b61027f600480360381019061027a919061239c565b61087f565b60405161028c919061284b565b60405180910390f35b61029d6108c8565b6040516102aa919061294f565b60405180910390f35b6102bb6108ee565b6040516102c8919061296a565b60405180910390f35b6102eb60048036038101906102e691906122e5565b610914565b6040516102f89190612b0b565b60405180910390f35b61030961092c565b005b610313610a20565b005b61031d610b97565b60405161032a91906129a0565b60405180910390f35b61033b610baa565b005b610345610d30565b6040516103529190612b0b565b60405180910390f35b610363610d36565b6040516103709190612b0b565b60405180910390f35b610381610d3c565b60405161038e919061284b565b60405180910390f35b6103b160048036038101906103ac91906123dd565b610d65565b005b6103cd60048036038101906103c891906122e5565b611000565b005b6103d7611193565b6040516103e49190612b0b565b60405180910390f35b610407600480360381019061040291906123dd565b611199565b005b610423600480360381019061041e9190612337565b6113ce565b005b61043f600480360381019061043a9190612431565b6113d2565b005b61044961162f565b6040516104569190612985565b60405180910390f35b610467611655565b604051610474919061284b565b60405180910390f35b61049760048036038101906104929190612483565b61167b565b005b6104a1611c39565b6040516104ae9190612b0b565b60405180910390f35b6104bf611c3f565b6040516104cc9190612b0b565b60405180910390f35b6104ef60048036038101906104ea91906122e5565b611cf1565b005b6104f9611efc565b6040516105069190612934565b60405180910390f35b600b60149054906101000a900460ff161561055f576040517f08c379a000000000000000000000000000000000000000000000000000000000815260040161055690612a2b565b60405180910390fd5b33600b60006101000a81548173ffffffffffffffffffffffffffffffffffffffff021916908373ffffffffffffffffffffffffffffffffffffffff160217905550565b60075481565b600981815481106105b857600080fd5b906000526020600020016000915054906101000a900473ffffffffffffffffffffffffffffffffffffffff1681565b6105ef611f22565b73ffffffffffffffffffffffffffffffffffffffff1660008054906101000a900473ffffffffffffffffffffffffffffffffffffffff1673ffffffffffffffffffffffffffffffffffffffff16146106af576040517f08c379a00000000000000000000000000000000000000000000000000000000081526004018080602001828103825260208152602001807f4f776e61626c653a2063616c6c6572206973206e6f7420746865206f776e657281525060200191505060405180910390fd5b600460009054906101000a900460ff16156106ff576040517f08c379a00000000000000000000000000000000000000000000000000000000081526004016106f690612acb565b60405180910390fd5b80600460026101000a81548173ffffffffffffffffffffffffffffffffffffffff021916908373ffffffffffffffffffffffffffffffffffffffff160217905550600660009054906101000a900473ffffffffffffffffffffffffffffffffffffffff1673ffffffffffffffffffffffffffffffffffffffff1663095ea7b3600460029054906101000a900473ffffffffffffffffffffffffffffffffffffffff167fffffffffffffffffffffffffffffffffffffffffffffffffffffffffffffffff6040518363ffffffff1660e01b81526004016107df92919061289d565b602060405180830381600087803b1580156107f957600080fd5b505af115801561080d573d6000803e3d6000fd5b505050506040513d601f19601f820116820180604052508101906108319190612373565b507fb954b00fb708b65e61e5af666f5ce5050a9a566a4c6cc31e34fb24d03459106f81604051610861919061284b565b60405180910390a150565b600b60149054906101000a900460ff1681565b6002818051602081018201805184825260208301602085012081835280955050505050506000915054906101000a900473ffffffffffffffffffffffffffffffffffffffff1681565b600160009054906101000a900473ffffffffffffffffffffffffffffffffffffffff1681565b600560009054906101000a900473ffffffffffffffffffffffffffffffffffffffff1681565b600a6020528060005260406000206000915090505481565b600660009054906101000a900473ffffffffffffffffffffffffffffffffffffffff1673ffffffffffffffffffffffffffffffffffffffff1663095ea7b3600460029054906101000a900473ffffffffffffffffffffffffffffffffffffffff167fffffffffffffffffffffffffffffffffffffffffffffffffffffffffffffffff6040518363ffffffff1660e01b81526004016109cb92919061289d565b602060405180830381600087803b1580156109e557600080fd5b505af11580156109f9573d6000803e3d6000fd5b505050506040513d601f19601f82011682018060405250810190610a1d9190612373565b50565b610a28611f22565b73ffffffffffffffffffffffffffffffffffffffff1660008054906101000a900473ffffffffffffffffffffffffffffffffffffffff1673ffffffffffffffffffffffffffffffffffffffff1614610ae8576040517f08c379a00000000000000000000000000000000000000000000000000000000081526004018080602001828103825260208152602001807f4f776e61626c653a2063616c6c6572206973206e6f7420746865206f776e657281525060200191505060405180910390fd5b600073ffffffffffffffffffffffffffffffffffffffff16600b60009054906101000a900473ffffffffffffffffffffffffffffffffffffffff1673ffffffffffffffffffffffffffffffffffffffff161415610b7a576040517f08c379a0000000000000000000000000000000000000000000000000000000008152600401610b7190612aeb565b60405180910390fd5b6001600b60146101000a81548160ff021916908315150217905550565b600460019054906101000a900460ff1681565b610bb2611f22565b73ffffffffffffffffffffffffffffffffffffffff1660008054906101000a900473ffffffffffffffffffffffffffffffffffffffff1673ffffffffffffffffffffffffffffffffffffffff1614610c72576040517f08c379a00000000000000000000000000000000000000000000000000000000081526004018080602001828103825260208152602001807f4f776e61626c653a2063616c6c6572206973206e6f7420746865206f776e657281525060200191505060405180910390fd5b600073ffffffffffffffffffffffffffffffffffffffff1660008054906101000a900473ffffffffffffffffffffffffffffffffffffffff1673ffffffffffffffffffffffffffffffffffffffff167f8be0079c531659141344cd1fd0a4f28419497f9722a3daafe3b4186f6b6457e060405160405180910390a360008060006101000a81548173ffffffffffffffffffffffffffffffffffffffff021916908373ffffffffffffffffffffffffffffffffffffffff160217905550565b60085481565b610f0081565b60008060009054906101000a900473ffffffffffffffffffffffffffffffffffffffff16905090565b600b60149054906101000a900460ff16610db4576040517f08c379a0000000000000000000000000000000000000000000000000000000008152600401610dab90612a0b565b60405180910390fd5b6000600283604051610dc69190612834565b908152602001604051809103902060009054906101000a900473ffffffffffffffffffffffffffffffffffffffff169050600073ffffffffffffffffffffffffffffffffffffffff168173ffffffffffffffffffffffffffffffffffffffff161415610e67576040517f08c379a0000000000000000000000000000000000000000000000000000000008152600401610e5e90612a8b565b60405180910390fd5b6000610e84670de0b6b3a764000084611f2a90919063ffffffff16565b9050600b60009054906101000a900473ffffffffffffffffffffffffffffffffffffffff1673ffffffffffffffffffffffffffffffffffffffff16638340f5493384846040518463ffffffff1660e01b8152600401610ee593929190612866565b600060405180830381600087803b158015610eff57600080fd5b505af1158015610f13573d6000803e3d6000fd5b50505050610fa681600c60003373ffffffffffffffffffffffffffffffffffffffff1673ffffffffffffffffffffffffffffffffffffffff16815260200190815260200160002060008573ffffffffffffffffffffffffffffffffffffffff1673ffffffffffffffffffffffffffffffffffffffff16815260200190815260200160002054611fb090919063ffffffff16565b50610ff981600d60008573ffffffffffffffffffffffffffffffffffffffff1673ffffffffffffffffffffffffffffffffffffffff16815260200190815260200160002054611fb090919063ffffffff16565b5050505050565b611008611f22565b73ffffffffffffffffffffffffffffffffffffffff1660008054906101000a900473ffffffffffffffffffffffffffffffffffffffff1673ffffffffffffffffffffffffffffffffffffffff16146110c8576040517f08c379a00000000000000000000000000000000000000000000000000000000081526004018080602001828103825260208152602001807f4f776e61626c653a2063616c6c6572206973206e6f7420746865206f776e657281525060200191505060405180910390fd5b600460009054906101000a900460ff1615611118576040517f08c379a000000000000000000000000000000000000000000000000000000000815260040161110f90612acb565b60405180910390fd5b80600560006101000a81548173ffffffffffffffffffffffffffffffffffffffff021916908373ffffffffffffffffffffffffffffffffffffffff1602179055507f181dccb510f27d9c2608cbef86fad60ab59d126bc8782ea2f21763607ec4173981604051611188919061284b565b60405180910390a150565b60035481565b6000600160009054906101000a900473ffffffffffffffffffffffffffffffffffffffff1673ffffffffffffffffffffffffffffffffffffffff16630261bf8b6040518163ffffffff1660e01b815260040160206040518083038186803b15801561120357600080fd5b505afa158015611217573d6000803e3d6000fd5b505050506040513d601f19601f8201168201806040525081019061123b919061230e565b9050600060028460405161124f9190612834565b908152602001604051809103902060009054906101000a900473ffffffffffffffffffffffffffffffffffffffff169050600073ffffffffffffffffffffffffffffffffffffffff168173ffffffffffffffffffffffffffffffffffffffff1614156112f0576040517f08c379a00000000000000000000000000000000000000000000000000000000081526004016112e790612a8b565b60405180910390fd5b8173ffffffffffffffffffffffffffffffffffffffff1663a415bcad828560016000600560009054906101000a900473ffffffffffffffffffffffffffffffffffffffff166040518663ffffffff1660e01b81526004016113559594939291906128c6565b600060405180830381600087803b15801561136f57600080fd5b505af1158015611383573d6000803e3d6000fd5b5050505061138f612038565b7ffc30ec1bee3b4fb527f0d90b4bbbf5a24b72f0964679ff277df1895e8ad2395784846040516113c09291906129bb565b60405180910390a150505050565b5050565b600560009054906101000a900473ffffffffffffffffffffffffffffffffffffffff1673ffffffffffffffffffffffffffffffffffffffff163373ffffffffffffffffffffffffffffffffffffffff1614611462576040517f08c379a000000000000000000000000000000000000000000000000000000000815260040161145990612aab565b60405180910390fd5b600460009054906101000a900460ff16156114b2576040517f08c379a00000000000000000000000000000000000000000000000000000000081526004016114a990612acb565b60405180910390fd5b600073ffffffffffffffffffffffffffffffffffffffff16600460029054906101000a900473ffffffffffffffffffffffffffffffffffffffff1673ffffffffffffffffffffffffffffffffffffffff161415611544576040517f08c379a000000000000000000000000000000000000000000000000000000000815260040161153b90612a4b565b60405180910390fd5b806003819055506001600460006101000a81548160ff0219169083151502179055507fc72e55068a99063a2c847c0b87d2808f29d1935171e54ffa3a479533b4046b74816040516115959190612b0b565b60405180910390a1600460029054906101000a900473ffffffffffffffffffffffffffffffffffffffff1673ffffffffffffffffffffffffffffffffffffffff1663d0e0ba956003546040518263ffffffff1660e01b81526004016115fa9190612b0b565b600060405180830381600087803b15801561161457600080fd5b505af1158015611628573d6000803e3d6000fd5b5050505050565b600b60009054906101000a900473ffffffffffffffffffffffffffffffffffffffff1681565b600460029054906101000a900473ffffffffffffffffffffffffffffffffffffffff1681565b600460029054906101000a900473ffffffffffffffffffffffffffffffffffffffff1673ffffffffffffffffffffffffffffffffffffffff166116bc611f22565b73ffffffffffffffffffffffffffffffffffffffff1614611712576040517f08c379a0000000000000000000000000000000000000000000000000000000008152600401611709906129eb565b60405180910390fd5b600073ffffffffffffffffffffffffffffffffffffffff168173ffffffffffffffffffffffffffffffffffffffff161415611782576040517f08c379a000000000000000000000000000000000000000000000000000000000815260040161177990612a6b565b60405180910390fd5b600660009054906101000a900473ffffffffffffffffffffffffffffffffffffffff1673ffffffffffffffffffffffffffffffffffffffff166323b872dd6117c8611f22565b306117e4670de0b6b3a764000087611f2a90919063ffffffff16565b6040518463ffffffff1660e01b815260040161180293929190612866565b602060405180830381600087803b15801561181c57600080fd5b505af1158015611830573d6000803e3d6000fd5b505050506040513d601f19601f820116820180604052508101906118549190612373565b506000600660009054906101000a900473ffffffffffffffffffffffffffffffffffffffff1673ffffffffffffffffffffffffffffffffffffffff166370a08231306040518263ffffffff1660e01b81526004016118b2919061284b565b60206040518083038186803b1580156118ca57600080fd5b505afa1580156118de573d6000803e3d6000fd5b505050506040513d601f19601f82011682018060405250810190611902919061245a565b905061195683600a60008573ffffffffffffffffffffffffffffffffffffffff1673ffffffffffffffffffffffffffffffffffffffff16815260200190815260200160002054611fb090919063ffffffff16565b600a60008473ffffffffffffffffffffffffffffffffffffffff1673ffffffffffffffffffffffffffffffffffffffff168152602001908152602001600020819055506119af6001600754611fb090919063ffffffff16565b506119c583600854611fb090919063ffffffff16565b506119e3670de0b6b3a7640000610f00611f2a90919063ffffffff16565b8110611bfa576000611a1a611a0b670de0b6b3a76400006107d0611f2a90919063ffffffff16565b836120e090919063ffffffff16565b9050600560009054906101000a900473ffffffffffffffffffffffffffffffffffffffff1673ffffffffffffffffffffffffffffffffffffffff166305f9c5976003546040518263ffffffff1660e01b8152600401611a799190612b0b565b600060405180830381600087803b158015611a9357600080fd5b505af1158015611aa7573d6000803e3d6000fd5b505050507f78cd33486287c682aa18f13badc425b37df2158a72b64ecfe2fa765f62c934308484604051611adc929190612b26565b60405180910390a17facd3dbb848fad50d312987d285e88fdc140a8385c5c568117c79d1437d8be32e611b0d611c3f565b604051611b1a9190612b0b565b60405180910390a1600660009054906101000a900473ffffffffffffffffffffffffffffffffffffffff1673ffffffffffffffffffffffffffffffffffffffff1663a9059cbb600460029054906101000a900473ffffffffffffffffffffffffffffffffffffffff16836040518363ffffffff1660e01b8152600401611ba192919061289d565b602060405180830381600087803b158015611bbb57600080fd5b505af1158015611bcf573d6000803e3d6000fd5b505050506040513d601f19601f82011682018060405250810190611bf39190612373565b5050611c34565b7f78cd33486287c682aa18f13badc425b37df2158a72b64ecfe2fa765f62c934308383604051611c2b929190612b26565b60405180910390a15b505050565b6107d081565b6000600660009054906101000a900473ffffffffffffffffffffffffffffffffffffffff1673ffffffffffffffffffffffffffffffffffffffff166370a08231306040518263ffffffff1660e01b8152600401611c9c919061284b565b60206040518083038186803b158015611cb457600080fd5b505afa158015611cc8573d6000803e3d6000fd5b505050506040513d601f19601f82011682018060405250810190611cec919061245a565b905090565b611cf9611f22565b73ffffffffffffffffffffffffffffffffffffffff1660008054906101000a900473ffffffffffffffffffffffffffffffffffffffff1673ffffffffffffffffffffffffffffffffffffffff1614611db9576040517f08c379a00000000000000000000000000000000000000000000000000000000081526004018080602001828103825260208152602001807f4f776e61626c653a2063616c6c6572206973206e6f7420746865206f776e657281525060200191505060405180910390fd5b600073ffffffffffffffffffffffffffffffffffffffff168173ffffffffffffffffffffffffffffffffffffffff161415611e3f576040517f08c379a0000000000000000000000000000000000000000000000000000000008152600401808060200182810382526026815260200180612deb6026913960400191505060405180910390fd5b8073ffffffffffffffffffffffffffffffffffffffff1660008054906101000a900473ffffffffffffffffffffffffffffffffffffffff1673ffffffffffffffffffffffffffffffffffffffff167f8be0079c531659141344cd1fd0a4f28419497f9722a3daafe3b4186f6b6457e060405160405180910390a3806000806101000a81548173ffffffffffffffffffffffffffffffffffffffff021916908373ffffffffffffffffffffffffffffffffffffffff16021790555050565b600660009054906101000a900473ffffffffffffffffffffffffffffffffffffffff1681565b600033905090565b600080831415611f3d5760009050611faa565b6000828402905082848281611f4e57fe5b0414611fa5576040517f08c379a0000000000000000000000000000000000000000000000000000000008152600401808060200182810382526021815260200180612e116021913960400191505060405180910390fd5b809150505b92915050565b60008082840190508381101561202e576040517f08c379a000000000000000000000000000000000000000000000000000000000815260040180806020018281038252601b8152602001807f536166654d6174683a206164646974696f6e206f766572666c6f77000000000081525060200191505060405180910390fd5b8091505092915050565b60005b6009805490508110156120cf57600a60006009838154811061205957fe5b9060005260206000200160009054906101000a900473ffffffffffffffffffffffffffffffffffffffff1673ffffffffffffffffffffffffffffffffffffffff1673ffffffffffffffffffffffffffffffffffffffff16815260200190815260200160002060009055808060010191505061203b565b50600960006120de91906121ea565b565b600061212283836040518060400160405280601e81526020017f536166654d6174683a207375627472616374696f6e206f766572666c6f77000081525061212a565b905092915050565b60008383111582906121d7576040517f08c379a00000000000000000000000000000000000000000000000000000000081526004018080602001828103825283818151815260200191508051906020019080838360005b8381101561219c578082015181840152602081019050612181565b50505050905090810190601f1680156121c95780820380516001836020036101000a031916815260200191505b509250505060405180910390fd5b5060008385039050809150509392505050565b5080546000825590600052602060002090810190612208919061220b565b50565b5b8082111561222457600081600090555060010161220c565b5090565b60008135905061223781612da5565b92915050565b60008151905061224c81612da5565b92915050565b60008151905061226181612dbc565b92915050565b600082601f83011261227857600080fd5b813561228b61228682612b80565b612b4f565b915080825260208301602083018583830111156122a757600080fd5b6122b2838284612d3c565b50505092915050565b6000813590506122ca81612dd3565b92915050565b6000815190506122df81612dd3565b92915050565b6000602082840312156122f757600080fd5b600061230584828501612228565b91505092915050565b60006020828403121561232057600080fd5b600061232e8482850161223d565b91505092915050565b6000806040838503121561234a57600080fd5b600061235885828601612228565b9250506020612369858286016122bb565b9150509250929050565b60006020828403121561238557600080fd5b600061239384828501612252565b91505092915050565b6000602082840312156123ae57600080fd5b600082013567ffffffffffffffff8111156123c857600080fd5b6123d484828501612267565b91505092915050565b600080604083850312156123f057600080fd5b600083013567ffffffffffffffff81111561240a57600080fd5b61241685828601612267565b9250506020612427858286016122bb565b9150509250929050565b60006020828403121561244357600080fd5b6000612451848285016122bb565b91505092915050565b60006020828403121561246c57600080fd5b600061247a848285016122d0565b91505092915050565b6000806040838503121561249657600080fd5b60006124a4858286016122bb565b92505060206124b585828601612228565b9150509250929050565b6124c881612c40565b82525050565b6124d781612bd7565b82525050565b6124e681612be9565b82525050565b6124f581612c52565b82525050565b61250481612c76565b82525050565b61251381612c9a565b82525050565b61252281612cbe565b82525050565b61253181612ce2565b82525050565b61254081612cf4565b82525050565b61254f81612d06565b82525050565b600061256082612bb0565b61256a8185612bbb565b935061257a818560208601612d4b565b61258381612d80565b840191505092915050565b600061259982612bb0565b6125a38185612bcc565b93506125b3818560208601612d4b565b80840191505092915050565b60006125cc602683612bbb565b91507f4769672063616e206f6e6c7920626520636f6d706c6574656420627920636f6d60008301527f6d756e69747900000000000000000000000000000000000000000000000000006020830152604082019050919050565b6000612632601383612bbb565b91507f74696d656c6f636b206e6f7420616374697665000000000000000000000000006000830152602082019050919050565b6000612672600e83612bbb565b91507f616c7265616479206163746976650000000000000000000000000000000000006000830152602082019050919050565b60006126b2601483612bbb565b91507f636f6d6d756e697479206973206e6f74207365740000000000000000000000006000830152602082019050919050565b60006126f2601883612bbb565b91507f6e6f2070726f6a65637420666f72206d696c6573746f6e6500000000000000006000830152602082019050919050565b6000612732601683612bbb565b91507f63757272656e6379206e6f7420737570706f72746564000000000000000000006000830152602082019050919050565b6000612772601c83612bbb565b91507f6f6e6c792074726561737572792064616f2063616e20736574206964000000006000830152602082019050919050565b60006127b2601a83612bbb565b91507f747265617375727920697320616c7265616479206c696e6b65640000000000006000830152602082019050919050565b60006127f2600783612bbb565b91507f6e6f7420736574000000000000000000000000000000000000000000000000006000830152602082019050919050565b61282e81612c36565b82525050565b6000612840828461258e565b915081905092915050565b600060208201905061286060008301846124ce565b92915050565b600060608201905061287b60008301866124bf565b61288860208301856124ce565b6128956040830184612825565b949350505050565b60006040820190506128b260008301856124ce565b6128bf6020830184612825565b9392505050565b600060a0820190506128db60008301886124ce565b6128e86020830187612825565b6128f56040830186612546565b6129026060830185612537565b61290f60808301846124ce565b9695505050505050565b600060208201905061292e60008301846124dd565b92915050565b600060208201905061294960008301846124ec565b92915050565b600060208201905061296460008301846124fb565b92915050565b600060208201905061297f600083018461250a565b92915050565b600060208201905061299a6000830184612519565b92915050565b60006020820190506129b56000830184612528565b92915050565b600060408201905081810360008301526129d58185612555565b90506129e46020830184612825565b9392505050565b60006020820190508181036000830152612a04816125bf565b9050919050565b60006020820190508181036000830152612a2481612625565b9050919050565b60006020820190508181036000830152612a4481612665565b9050919050565b60006020820190508181036000830152612a64816126a5565b9050919050565b60006020820190508181036000830152612a84816126e5565b9050919050565b60006020820190508181036000830152612aa481612725565b9050919050565b60006020820190508181036000830152612ac481612765565b9050919050565b60006020820190508181036000830152612ae4816127a5565b9050919050565b60006020820190508181036000830152612b04816127e5565b9050919050565b6000602082019050612b206000830184612825565b92915050565b6000604082019050612b3b6000830185612825565b612b4860208301846124ce565b9392505050565b6000604051905081810181811067ffffffffffffffff82111715612b7657612b75612d7e565b5b8060405250919050565b600067ffffffffffffffff821115612b9b57612b9a612d7e565b5b601f19601f8301169050602081019050919050565b600081519050919050565b600082825260208201905092915050565b600081905092915050565b6000612be282612c16565b9050919050565b60008115159050919050565b6000819050612c0382612d91565b919050565b600061ffff82169050919050565b600073ffffffffffffffffffffffffffffffffffffffff82169050919050565b6000819050919050565b6000612c4b82612d18565b9050919050565b6000612c5d82612c64565b9050919050565b6000612c6f82612c16565b9050919050565b6000612c8182612c88565b9050919050565b6000612c9382612c16565b9050919050565b6000612ca582612cac565b9050919050565b6000612cb782612c16565b9050919050565b6000612cc982612cd0565b9050919050565b6000612cdb82612c16565b9050919050565b6000612ced82612bf5565b9050919050565b6000612cff82612c08565b9050919050565b6000612d1182612c36565b9050919050565b6000612d2382612d2a565b9050919050565b6000612d3582612c16565b9050919050565b82818337600083830152505050565b60005b83811015612d69578082015181840152602081019050612d4e565b83811115612d78576000848401525b50505050565bfe5b6000601f19601f8301169050919050565b60038110612da257612da1612d7e565b5b50565b612dae81612bd7565b8114612db957600080fd5b50565b612dc581612be9565b8114612dd057600080fd5b50565b612ddc81612c36565b8114612de757600080fd5b5056fe4f776e61626c653a206e6577206f776e657220697320746865207a65726f2061646472657373536166654d6174683a206d756c7469706c69636174696f6e206f766572666c6f77a264697066735822122005cdc55e926b4e30058abb1cb6a8cf124dc7e4d431e397e543413707a693d50164736f6c63430007040033536166654d6174683a206d756c7469706c69636174696f6e206f766572666c6f77",
  "linkReferences": {},
  "deployedLinkReferences": {}
}