{
  "_format": "hh-sol-artifact-1",
  "contractName": "Community",
  "sourceName": "contracts/Community.sol",
  "abi": [
    {
      "inputs": [
        {
          "internalType": "enum DataTypes.CommunityTemplate",
          "name": "_template",
          "type": "uint8"
        },
        {
          "internalType": "address",
          "name": "_dai",
          "type": "address"
        },
        {
          "internalType": "address",
          "name": "_usdc",
          "type": "address"
        },
        {
          "internalType": "address",
          "name": "_lendingPoolAP",
          "type": "address"
        },
        {
          "internalType": "address",
          "name": "_forwarder",
          "type": "address"
        }
      ],
      "stateMutability": "nonpayable",
      "type": "constructor"
    },
    {
      "anonymous": false,
      "inputs": [
        {
          "indexed": false,
          "internalType": "uint256",
          "name": "_id",
          "type": "uint256"
        }
      ],
      "name": "IdSet",
      "type": "event"
    },
    {
      "anonymous": false,
      "inputs": [
        {
          "indexed": false,
          "internalType": "address",
          "name": "_member",
          "type": "address"
        },
        {
          "indexed": false,
          "internalType": "uint256",
          "name": "_transferredTokens",
          "type": "uint256"
        }
      ],
      "name": "MemberAdded",
      "type": "event"
    },
    {
      "anonymous": false,
      "inputs": [
        {
          "indexed": false,
          "internalType": "address",
          "name": "_member",
          "type": "address"
        }
      ],
      "name": "MemberRemoved",
      "type": "event"
    },
    {
      "anonymous": false,
      "inputs": [
        {
          "indexed": true,
          "internalType": "address",
          "name": "previousOwner",
          "type": "address"
        },
        {
          "indexed": true,
          "internalType": "address",
          "name": "newOwner",
          "type": "address"
        }
      ],
      "name": "OwnershipTransferred",
      "type": "event"
    },
    {
      "anonymous": false,
      "inputs": [
        {
          "indexed": false,
          "internalType": "address",
          "name": "_treasury",
          "type": "address"
        }
      ],
      "name": "TreasurySet",
      "type": "event"
    },
    {
      "inputs": [],
      "name": "INIT_TOKENS",
      "outputs": [
        {
          "internalType": "uint256",
          "name": "",
          "type": "uint256"
        }
      ],
      "stateMutability": "view",
      "type": "function"
    },
    {
      "inputs": [],
      "name": "activateTreasuryTimelock",
      "outputs": [],
      "stateMutability": "nonpayable",
      "type": "function"
    },
    {
      "inputs": [],
      "name": "communityTreasury",
      "outputs": [
        {
          "internalType": "contract CommunityTreasury",
          "name": "",
          "type": "address"
        }
      ],
      "stateMutability": "view",
      "type": "function"
    },
    {
      "inputs": [
        {
          "internalType": "uint256",
          "name": "_amount",
          "type": "uint256"
        },
        {
          "internalType": "address",
          "name": "_project",
          "type": "address"
        }
      ],
      "name": "completeGig",
      "outputs": [],
      "stateMutability": "nonpayable",
      "type": "function"
    },
    {
      "inputs": [
        {
          "internalType": "uint256",
          "name": "",
          "type": "uint256"
        }
      ],
      "name": "depositableCurrencies",
      "outputs": [
        {
          "internalType": "string",
          "name": "",
          "type": "string"
        }
      ],
      "stateMutability": "view",
      "type": "function"
    },
    {
      "inputs": [
        {
          "internalType": "string",
          "name": "",
          "type": "string"
        }
      ],
      "name": "depositableCurrenciesContracts",
      "outputs": [
        {
          "internalType": "address",
          "name": "",
          "type": "address"
        }
      ],
      "stateMutability": "view",
      "type": "function"
    },
    {
      "inputs": [
        {
          "internalType": "address",
          "name": "",
          "type": "address"
        }
      ],
      "name": "enabledMembers",
      "outputs": [
        {
          "internalType": "bool",
          "name": "",
          "type": "bool"
        }
      ],
      "stateMutability": "view",
      "type": "function"
    },
    {
      "inputs": [],
      "name": "gigsRegistry",
      "outputs": [
        {
          "internalType": "contract GigsRegistry",
          "name": "",
          "type": "address"
        }
      ],
      "stateMutability": "view",
      "type": "function"
    },
    {
      "inputs": [],
      "name": "id",
      "outputs": [
        {
          "internalType": "uint256",
          "name": "",
          "type": "uint256"
        }
      ],
      "stateMutability": "view",
      "type": "function"
    },
    {
      "inputs": [
        {
          "internalType": "address",
          "name": "forwarder",
          "type": "address"
        }
      ],
      "name": "isTrustedForwarder",
      "outputs": [
        {
          "internalType": "bool",
          "name": "",
          "type": "bool"
        }
      ],
      "stateMutability": "view",
      "type": "function"
    },
    {
      "inputs": [
        {
          "internalType": "uint256",
          "name": "_amountOfDITOToRedeem",
          "type": "uint256"
        }
      ],
      "name": "join",
      "outputs": [],
      "stateMutability": "nonpayable",
      "type": "function"
    },
    {
      "inputs": [],
      "name": "leave",
      "outputs": [],
      "stateMutability": "nonpayable",
      "type": "function"
    },
    {
      "inputs": [],
      "name": "lendingPoolAP",
      "outputs": [
        {
          "internalType": "contract ILendingPoolAddressesProvider",
          "name": "",
          "type": "address"
        }
      ],
      "stateMutability": "view",
      "type": "function"
    },
    {
      "inputs": [],
      "name": "numberOfMembers",
      "outputs": [
        {
          "internalType": "uint256",
          "name": "",
          "type": "uint256"
        }
      ],
      "stateMutability": "view",
      "type": "function"
    },
    {
      "inputs": [],
      "name": "owner",
      "outputs": [
        {
          "internalType": "address",
          "name": "",
          "type": "address"
        }
      ],
      "stateMutability": "view",
      "type": "function"
    },
    {
      "inputs": [],
      "name": "renounceOwnership",
      "outputs": [],
      "stateMutability": "nonpayable",
      "type": "function"
    },
    {
      "inputs": [
        {
          "internalType": "address",
          "name": "_gigRegistry",
          "type": "address"
        }
      ],
      "name": "setGigsRegistry",
      "outputs": [],
      "stateMutability": "nonpayable",
      "type": "function"
    },
    {
      "inputs": [
        {
          "internalType": "uint256",
          "name": "_id",
          "type": "uint256"
        }
      ],
      "name": "setId",
      "outputs": [],
      "stateMutability": "nonpayable",
      "type": "function"
    },
    {
      "inputs": [
        {
          "internalType": "address",
          "name": "_dao",
          "type": "address"
        }
      ],
      "name": "setTreasuryDAO",
      "outputs": [],
      "stateMutability": "nonpayable",
      "type": "function"
    },
    {
      "inputs": [],
      "name": "template",
      "outputs": [
        {
          "internalType": "enum DataTypes.CommunityTemplate",
          "name": "",
          "type": "uint8"
        }
      ],
      "stateMutability": "view",
      "type": "function"
    },
    {
      "inputs": [],
      "name": "tokens",
      "outputs": [
        {
          "internalType": "contract DITOToken",
          "name": "",
          "type": "address"
        }
      ],
      "stateMutability": "view",
      "type": "function"
    },
    {
      "inputs": [
        {
          "internalType": "address",
          "name": "newOwner",
          "type": "address"
        }
      ],
      "name": "transferOwnership",
      "outputs": [],
      "stateMutability": "nonpayable",
      "type": "function"
    },
    {
      "inputs": [],
      "name": "trustedForwarder",
      "outputs": [
        {
          "internalType": "address",
          "name": "",
          "type": "address"
        }
      ],
      "stateMutability": "view",
      "type": "function"
    },
    {
      "inputs": [],
      "name": "versionRecipient",
      "outputs": [
        {
          "internalType": "string",
          "name": "",
          "type": "string"
        }
      ],
      "stateMutability": "view",
      "type": "function"
    }
  ],
  "bytecode": "0x60806040526040518060400160405280600581526020017f322e302e30000000000000000000000000000000000000000000000000000000815250600290805190602001906200005192919062000b11565b503480156200005f57600080fd5b506040516200a0f13803806200a0f1833981810160405281019062000085919062000c54565b600062000097620005a860201b60201c565b905080600160006101000a81548173ffffffffffffffffffffffffffffffffffffffff021916908373ffffffffffffffffffffffffffffffffffffffff1602179055508073ffffffffffffffffffffffffffffffffffffffff16600073ffffffffffffffffffffffffffffffffffffffff167f8be0079c531659141344cd1fd0a4f28419497f9722a3daafe3b4186f6b6457e060405160405180910390a3506000600560006101000a81548160ff02191690831515021790555084600560016101000a81548160ff021916908360028111156200017057fe5b0217905550806000806101000a81548173ffffffffffffffffffffffffffffffffffffffff021916908373ffffffffffffffffffffffffffffffffffffffff16021790555081600c60006101000a81548173ffffffffffffffffffffffffffffffffffffffff021916908373ffffffffffffffffffffffffffffffffffffffff1602179055506200021b670de0b6b3a764000062017700620005c460201b620013d31790919060201c565b604051620002299062000ba8565b62000235919062000fd0565b604051809103906000f08015801562000252573d6000803e3d6000fd5b50600360006101000a81548173ffffffffffffffffffffffffffffffffffffffff021916908373ffffffffffffffffffffffffffffffffffffffff160217905550600560019054906101000a900460ff16600360009054906101000a900473ffffffffffffffffffffffffffffffffffffffff1633868686604051620002d89062000bb6565b620002e99695949392919062000efd565b604051809103906000f08015801562000306573d6000803e3d6000fd5b50600a60006101000a81548173ffffffffffffffffffffffffffffffffffffffff021916908373ffffffffffffffffffffffffffffffffffffffff1602179055506200037f600a60009054906101000a900473ffffffffffffffffffffffffffffffffffffffff166107d060016200064f60201b60201c565b600a60009054906101000a900473ffffffffffffffffffffffffffffffffffffffff1673ffffffffffffffffffffffffffffffffffffffff166346f98fec6040518163ffffffff1660e01b8152600401600060405180830381600087803b158015620003ea57600080fd5b505af1158015620003ff573d6000803e3d6000fd5b50505050600980600181540180825580915050600190039060005260206000200160006040518060400160405280600381526020017f4441490000000000000000000000000000000000000000000000000000000000815250909190915090805190602001906200047292919062000b11565b50600980600181540180825580915050600190039060005260206000200160006040518060400160405280600481526020017f555344430000000000000000000000000000000000000000000000000000000081525090919091509080519060200190620004e292919062000b11565b50836008604051620004f49062000e75565b908152602001604051809103902060006101000a81548173ffffffffffffffffffffffffffffffffffffffff021916908373ffffffffffffffffffffffffffffffffffffffff160217905550826008604051620005519062000e8c565b908152602001604051809103902060006101000a81548173ffffffffffffffffffffffffffffffffffffffff021916908373ffffffffffffffffffffffffffffffffffffffff160217905550505050505062001116565b6000620005bf620009e760201b620014591760201c565b905090565b600080831415620005d9576000905062000649565b6000828402905082848281620005eb57fe5b041462000644576040517f08c379a00000000000000000000000000000000000000000000000000000000081526004018080602001828103825260218152602001806200a0d06021913960400191505060405180910390fd5b809150505b92915050565b600073ffffffffffffffffffffffffffffffffffffffff16600a60009054906101000a900473ffffffffffffffffffffffffffffffffffffffff1673ffffffffffffffffffffffffffffffffffffffff161415620006e4576040517f08c379a0000000000000000000000000000000000000000000000000000000008152600401620006db9062000f6a565b60405180910390fd5b6019600754106200072c576040517f08c379a0000000000000000000000000000000000000000000000000000000008152600401620007239062000fae565b60405180910390fd5b60001515600660008573ffffffffffffffffffffffffffffffffffffffff1673ffffffffffffffffffffffffffffffffffffffff16815260200190815260200160002060009054906101000a900460ff16151514620007c2576040517f08c379a0000000000000000000000000000000000000000000000000000000008152600401620007b99062000f8c565b60405180910390fd5b6001600660008573ffffffffffffffffffffffffffffffffffffffff1673ffffffffffffffffffffffffffffffffffffffff16815260200190815260200160002060006101000a81548160ff02191690831515021790555062000837600160075462000a2f60201b620014951790919060201c565b600781905550600360009054906101000a900473ffffffffffffffffffffffffffffffffffffffff1673ffffffffffffffffffffffffffffffffffffffff1663bc93233f84836040518363ffffffff1660e01b81526004016200089c92919062000ea3565b600060405180830381600087803b158015620008b757600080fd5b505af1158015620008cc573d6000803e3d6000fd5b50505050600360009054906101000a900473ffffffffffffffffffffffffffffffffffffffff1673ffffffffffffffffffffffffffffffffffffffff1663a9059cbb8462000931670de0b6b3a764000086620005c460201b620013d31790919060201c565b6040518363ffffffff1660e01b81526004016200095092919062000ed0565b602060405180830381600087803b1580156200096b57600080fd5b505af115801562000980573d6000803e3d6000fd5b505050506040513d601f19601f82011682018060405250810190620009a6919062000c28565b507fede8eed4383e9241982619b94dd83e488b274cced0fd07b8c0092a393defd52f8383604051620009da92919062000ed0565b60405180910390a1505050565b6000601860003690501015801562000a0c575062000a0b3362000ab860201b60201c565b5b1562000a2257601436033560601c905062000a2b565b33905062000a2c565b5b90565b60008082840190508381101562000aae576040517f08c379a000000000000000000000000000000000000000000000000000000000815260040180806020018281038252601b8152602001807f536166654d6174683a206164646974696f6e206f766572666c6f77000000000081525060200191505060405180910390fd5b8091505092915050565b60008060009054906101000a900473ffffffffffffffffffffffffffffffffffffffff1673ffffffffffffffffffffffffffffffffffffffff168273ffffffffffffffffffffffffffffffffffffffff16149050919050565b828054600181600116156101000203166002900490600052602060002090601f01602090048101928262000b49576000855562000b95565b82601f1062000b6457805160ff191683800117855562000b95565b8280016001018555821562000b95579182015b8281111562000b9457825182559160200191906001019062000b77565b5b50905062000ba4919062000bc4565b5090565b612a90806200387383390190565b613dcd806200630383390190565b5b8082111562000bdf57600081600090555060010162000bc5565b5090565b60008151905062000bf481620010d1565b92915050565b60008151905062000c0b81620010eb565b92915050565b60008151905062000c228162001105565b92915050565b60006020828403121562000c3b57600080fd5b600062000c4b8482850162000bfa565b91505092915050565b600080600080600060a0868803121562000c6d57600080fd5b600062000c7d8882890162000c11565b955050602062000c908882890162000be3565b945050604062000ca38882890162000be3565b935050606062000cb68882890162000be3565b925050608062000cc98882890162000be3565b9150509295509295909350565b62000ce18162001068565b82525050565b62000cf28162001009565b82525050565b62000d03816200101d565b82525050565b62000d14816200107c565b82525050565b600062000d2960108362000fed565b91507f7472656173757279206e6f7420736574000000000000000000000000000000006000830152602082019050919050565b600062000d6b600e8362000fed565b91507f616c7265616479206d656d6265720000000000000000000000000000000000006000830152602082019050919050565b600062000dad60038362000ffe565b91507f44414900000000000000000000000000000000000000000000000000000000006000830152600382019050919050565b600062000def600e8362000fed565b91507f636f6d6d756e6974792066756c6c0000000000000000000000000000000000006000830152602082019050919050565b600062000e3160048362000ffe565b91507f55534443000000000000000000000000000000000000000000000000000000006000830152600482019050919050565b62000e6f816200105e565b82525050565b600062000e828262000d9e565b9150819050919050565b600062000e998262000e22565b9150819050919050565b600060408201905062000eba600083018562000ce7565b62000ec9602083018462000cf8565b9392505050565b600060408201905062000ee7600083018562000ce7565b62000ef6602083018462000e64565b9392505050565b600060c08201905062000f14600083018962000d09565b62000f23602083018862000ce7565b62000f32604083018762000cd6565b62000f41606083018662000ce7565b62000f50608083018562000ce7565b62000f5f60a083018462000ce7565b979650505050505050565b6000602082019050818103600083015262000f858162000d1a565b9050919050565b6000602082019050818103600083015262000fa78162000d5c565b9050919050565b6000602082019050818103600083015262000fc98162000de0565b9050919050565b600060208201905062000fe7600083018462000e64565b92915050565b600082825260208201905092915050565b600081905092915050565b600062001016826200103e565b9050919050565b60008115159050919050565b60008190506200103982620010ba565b919050565b600073ffffffffffffffffffffffffffffffffffffffff82169050919050565b6000819050919050565b6000620010758262001090565b9050919050565b6000620010898262001029565b9050919050565b60006200109d82620010a4565b9050919050565b6000620010b1826200103e565b9050919050565bfe5b60038110620010ce57620010cd620010b8565b5b50565b620010dc8162001009565b8114620010e857600080fd5b50565b620010f6816200101d565b81146200110257600080fd5b50565b600381106200111357600080fd5b50565b61274d80620011266000396000f3fe608060405234801561001057600080fd5b50600436106101585760003560e01c80637daea392116100c3578063af640d0f1161007c578063af640d0f14610381578063bc910cf91461039f578063cecfd170146103bb578063d0e0ba95146103eb578063d66d9e1914610407578063f2fde38b1461041157610158565b80637daea392146102d15780638da5cb5b146102ed5780639250640d1461030b5780639d63848a14610329578063a30e3fa914610347578063a46eddcf1461036557610158565b806358c12dbe1161011557806358c12dbe146102335780636f2ddd9314610251578063715018a61461026f5780637387b63514610279578063770ac141146102a95780637da0a877146102b357610158565b8063049878f31461015d5780633705abf11461017957806339327e9e146101a957806343086f0d146101c7578063486ff0cd146101e5578063572b6c0514610203575b600080fd5b61017760048036038101906101729190611e5d565b61042d565b005b610193600480360381019061018e9190611e1c565b610443565b6040516101a091906121dc565b60405180910390f35b6101b161048c565b6040516101be91906122ec565b60405180910390f35b6101cf6104b2565b6040516101dc91906122d1565b60405180910390f35b6101ed6104d8565b6040516101fa9190612322565b60405180910390f35b61021d60048036038101906102189190611da1565b610576565b60405161022a9190612280565b60405180910390f35b61023b6105cf565b604051610248919061229b565b60405180910390f35b6102596105f5565b6040516102669190612307565b60405180910390f35b610277610608565b005b610293600480360381019061028e9190611e5d565b610793565b6040516102a09190612322565b60405180910390f35b6102b161084f565b005b6102bb61099d565b6040516102c891906121dc565b60405180910390f35b6102eb60048036038101906102e69190611da1565b6109c1565b005b6102f5610c4b565b60405161030291906121dc565b60405180910390f35b610313610c75565b6040516103209190612464565b60405180910390f35b610331610c7c565b60405161033e91906122b6565b60405180910390f35b61034f610ca2565b60405161035c9190612464565b60405180910390f35b61037f600480360381019061037a9190611da1565b610ca8565b005b610389610e02565b6040516103969190612464565b60405180910390f35b6103b960048036038101906103b49190611eaf565b610e08565b005b6103d560048036038101906103d09190611da1565b611053565b6040516103e29190612280565b60405180910390f35b61040560048036038101906104009190611e5d565b611073565b005b61040f6111af565b005b61042b60048036038101906104269190611da1565b6111c3565b005b61044061043861151d565b82600061152c565b50565b6008818051602081018201805184825260208301602085012081835280955050505050506000915054906101000a900473ffffffffffffffffffffffffffffffffffffffff1681565b600c60009054906101000a900473ffffffffffffffffffffffffffffffffffffffff1681565b600b60009054906101000a900473ffffffffffffffffffffffffffffffffffffffff1681565b60028054600181600116156101000203166002900480601f01602080910402602001604051908101604052809291908181526020018280546001816001161561010002031660029004801561056e5780601f106105435761010080835404028352916020019161056e565b820191906000526020600020905b81548152906001019060200180831161055157829003601f168201915b505050505081565b60008060009054906101000a900473ffffffffffffffffffffffffffffffffffffffff1673ffffffffffffffffffffffffffffffffffffffff168273ffffffffffffffffffffffffffffffffffffffff16149050919050565b600a60009054906101000a900473ffffffffffffffffffffffffffffffffffffffff1681565b600560019054906101000a900460ff1681565b61061061151d565b73ffffffffffffffffffffffffffffffffffffffff16600160009054906101000a900473ffffffffffffffffffffffffffffffffffffffff1673ffffffffffffffffffffffffffffffffffffffff16146106d2576040517f08c379a00000000000000000000000000000000000000000000000000000000081526004018080602001828103825260208152602001807f4f776e61626c653a2063616c6c6572206973206e6f7420746865206f776e657281525060200191505060405180910390fd5b600073ffffffffffffffffffffffffffffffffffffffff16600160009054906101000a900473ffffffffffffffffffffffffffffffffffffffff1673ffffffffffffffffffffffffffffffffffffffff167f8be0079c531659141344cd1fd0a4f28419497f9722a3daafe3b4186f6b6457e060405160405180910390a36000600160006101000a81548173ffffffffffffffffffffffffffffffffffffffff021916908373ffffffffffffffffffffffffffffffffffffffff160217905550565b600981815481106107a357600080fd5b906000526020600020016000915090508054600181600116156101000203166002900480601f0160208091040260200160405190810160405280929190818152602001828054600181600116156101000203166002900480156108475780601f1061081c57610100808354040283529160200191610847565b820191906000526020600020905b81548152906001019060200180831161082a57829003601f168201915b505050505081565b61085761151d565b73ffffffffffffffffffffffffffffffffffffffff16600160009054906101000a900473ffffffffffffffffffffffffffffffffffffffff1673ffffffffffffffffffffffffffffffffffffffff1614610919576040517f08c379a00000000000000000000000000000000000000000000000000000000081526004018080602001828103825260208152602001807f4f776e61626c653a2063616c6c6572206973206e6f7420746865206f776e657281525060200191505060405180910390fd5b600a60009054906101000a900473ffffffffffffffffffffffffffffffffffffffff1673ffffffffffffffffffffffffffffffffffffffff166363a5d2986040518163ffffffff1660e01b8152600401600060405180830381600087803b15801561098357600080fd5b505af1158015610997573d6000803e3d6000fd5b50505050565b60008054906101000a900473ffffffffffffffffffffffffffffffffffffffff1681565b6109c961151d565b73ffffffffffffffffffffffffffffffffffffffff16600160009054906101000a900473ffffffffffffffffffffffffffffffffffffffff1673ffffffffffffffffffffffffffffffffffffffff1614610a8b576040517f08c379a00000000000000000000000000000000000000000000000000000000081526004018080602001828103825260208152602001807f4f776e61626c653a2063616c6c6572206973206e6f7420746865206f776e657281525060200191505060405180910390fd5b600073ffffffffffffffffffffffffffffffffffffffff16600b60009054906101000a900473ffffffffffffffffffffffffffffffffffffffff1673ffffffffffffffffffffffffffffffffffffffff1614610b1c576040517f08c379a0000000000000000000000000000000000000000000000000000000008152600401610b13906123a4565b60405180910390fd5b3073ffffffffffffffffffffffffffffffffffffffff168173ffffffffffffffffffffffffffffffffffffffff1663dc1fb5a56040518163ffffffff1660e01b815260040160206040518083038186803b158015610b7957600080fd5b505afa158015610b8d573d6000803e3d6000fd5b505050506040513d601f19601f82011682018060405250810190610bb19190611dca565b73ffffffffffffffffffffffffffffffffffffffff1614610c07576040517f08c379a0000000000000000000000000000000000000000000000000000000008152600401610bfe90612404565b60405180910390fd5b80600b60006101000a81548173ffffffffffffffffffffffffffffffffffffffff021916908373ffffffffffffffffffffffffffffffffffffffff16021790555050565b6000600160009054906101000a900473ffffffffffffffffffffffffffffffffffffffff16905090565b6201770081565b600360009054906101000a900473ffffffffffffffffffffffffffffffffffffffff1681565b60075481565b610cb061151d565b73ffffffffffffffffffffffffffffffffffffffff16600160009054906101000a900473ffffffffffffffffffffffffffffffffffffffff1673ffffffffffffffffffffffffffffffffffffffff1614610d72576040517f08c379a00000000000000000000000000000000000000000000000000000000081526004018080602001828103825260208152602001807f4f776e61626c653a2063616c6c6572206973206e6f7420746865206f776e657281525060200191505060405180910390fd5b600a60009054906101000a900473ffffffffffffffffffffffffffffffffffffffff1673ffffffffffffffffffffffffffffffffffffffff1663a46eddcf826040518263ffffffff1660e01b8152600401610dcd91906121dc565b600060405180830381600087803b158015610de757600080fd5b505af1158015610dfb573d6000803e3d6000fd5b5050505050565b60045481565b600b60009054906101000a900473ffffffffffffffffffffffffffffffffffffffff1673ffffffffffffffffffffffffffffffffffffffff16610e4961151d565b73ffffffffffffffffffffffffffffffffffffffff1614610e9f576040517f08c379a0000000000000000000000000000000000000000000000000000000008152600401610e9690612424565b60405180910390fd5b600073ffffffffffffffffffffffffffffffffffffffff168173ffffffffffffffffffffffffffffffffffffffff161461104f57600360009054906101000a900473ffffffffffffffffffffffffffffffffffffffff1673ffffffffffffffffffffffffffffffffffffffff1663095ea7b3600a60009054906101000a900473ffffffffffffffffffffffffffffffffffffffff16610f4f670de0b6b3a7640000866113d390919063ffffffff16565b6040518363ffffffff1660e01b8152600401610f6c929190612257565b602060405180830381600087803b158015610f8657600080fd5b505af1158015610f9a573d6000803e3d6000fd5b505050506040513d601f19601f82011682018060405250810190610fbe9190611df3565b50600a60009054906101000a900473ffffffffffffffffffffffffffffffffffffffff1673ffffffffffffffffffffffffffffffffffffffff1663e377672e83836040518363ffffffff1660e01b815260040161101c92919061247f565b600060405180830381600087803b15801561103657600080fd5b505af115801561104a573d6000803e3d6000fd5b505050505b5050565b60066020528060005260406000206000915054906101000a900460ff1681565b600a60009054906101000a900473ffffffffffffffffffffffffffffffffffffffff1673ffffffffffffffffffffffffffffffffffffffff163373ffffffffffffffffffffffffffffffffffffffff1614611103576040517f08c379a00000000000000000000000000000000000000000000000000000000081526004016110fa90612344565b60405180910390fd5b600560009054906101000a900460ff1615611153576040517f08c379a000000000000000000000000000000000000000000000000000000000815260040161114a90612444565b60405180910390fd5b806004819055506001600560006101000a81548160ff0219169083151502179055507fc72e55068a99063a2c847c0b87d2808f29d1935171e54ffa3a479533b4046b74816040516111a49190612464565b60405180910390a150565b6111c16111ba61151d565b60006118a1565b565b6111cb61151d565b73ffffffffffffffffffffffffffffffffffffffff16600160009054906101000a900473ffffffffffffffffffffffffffffffffffffffff1673ffffffffffffffffffffffffffffffffffffffff161461128d576040517f08c379a00000000000000000000000000000000000000000000000000000000081526004018080602001828103825260208152602001807f4f776e61626c653a2063616c6c6572206973206e6f7420746865206f776e657281525060200191505060405180910390fd5b600073ffffffffffffffffffffffffffffffffffffffff168173ffffffffffffffffffffffffffffffffffffffff161415611313576040517f08c379a00000000000000000000000000000000000000000000000000000000081526004018080602001828103825260268152602001806126d16026913960400191505060405180910390fd5b8073ffffffffffffffffffffffffffffffffffffffff16600160009054906101000a900473ffffffffffffffffffffffffffffffffffffffff1673ffffffffffffffffffffffffffffffffffffffff167f8be0079c531659141344cd1fd0a4f28419497f9722a3daafe3b4186f6b6457e060405160405180910390a380600160006101000a81548173ffffffffffffffffffffffffffffffffffffffff021916908373ffffffffffffffffffffffffffffffffffffffff16021790555050565b6000808314156113e65760009050611453565b60008284029050828482816113f757fe5b041461144e576040517f08c379a00000000000000000000000000000000000000000000000000000000081526004018080602001828103825260218152602001806126f76021913960400191505060405180910390fd5b809150505b92915050565b60006018600036905010158015611475575061147433610576565b5b1561148957601436033560601c9050611491565b339050611492565b5b90565b600080828401905083811015611513576040517f08c379a000000000000000000000000000000000000000000000000000000000815260040180806020018281038252601b8152602001807f536166654d6174683a206164646974696f6e206f766572666c6f77000000000081525060200191505060405180910390fd5b8091505092915050565b6000611527611459565b905090565b600073ffffffffffffffffffffffffffffffffffffffff16600a60009054906101000a900473ffffffffffffffffffffffffffffffffffffffff1673ffffffffffffffffffffffffffffffffffffffff1614156115be576040517f08c379a00000000000000000000000000000000000000000000000000000000081526004016115b590612364565b60405180910390fd5b601960075410611603576040517f08c379a00000000000000000000000000000000000000000000000000000000081526004016115fa906123e4565b60405180910390fd5b60001515600660008573ffffffffffffffffffffffffffffffffffffffff1673ffffffffffffffffffffffffffffffffffffffff16815260200190815260200160002060009054906101000a900460ff16151514611696576040517f08c379a000000000000000000000000000000000000000000000000000000000815260040161168d906123c4565b60405180910390fd5b6001600660008573ffffffffffffffffffffffffffffffffffffffff1673ffffffffffffffffffffffffffffffffffffffff16815260200190815260200160002060006101000a81548160ff021916908315150217905550611704600160075461149590919063ffffffff16565b600781905550600360009054906101000a900473ffffffffffffffffffffffffffffffffffffffff1673ffffffffffffffffffffffffffffffffffffffff1663bc93233f84836040518363ffffffff1660e01b815260040161176792919061222e565b600060405180830381600087803b15801561178157600080fd5b505af1158015611795573d6000803e3d6000fd5b50505050600360009054906101000a900473ffffffffffffffffffffffffffffffffffffffff1673ffffffffffffffffffffffffffffffffffffffff1663a9059cbb846117f3670de0b6b3a7640000866113d390919063ffffffff16565b6040518363ffffffff1660e01b8152600401611810929190612257565b602060405180830381600087803b15801561182a57600080fd5b505af115801561183e573d6000803e3d6000fd5b505050506040513d601f19601f820116820180604052508101906118629190611df3565b507fede8eed4383e9241982619b94dd83e488b274cced0fd07b8c0092a393defd52f8383604051611894929190612257565b60405180910390a1505050565b6118aa82611b44565b6000600660008473ffffffffffffffffffffffffffffffffffffffff1673ffffffffffffffffffffffffffffffffffffffff16815260200190815260200160002060006101000a81548160ff0219169083151502179055506119186001600754611bda90919063ffffffff16565b600781905550600360009054906101000a900473ffffffffffffffffffffffffffffffffffffffff1673ffffffffffffffffffffffffffffffffffffffff166323b872dd8330600360009054906101000a900473ffffffffffffffffffffffffffffffffffffffff1673ffffffffffffffffffffffffffffffffffffffff166370a08231876040518263ffffffff1660e01b81526004016119b991906121dc565b60206040518083038186803b1580156119d157600080fd5b505afa1580156119e5573d6000803e3d6000fd5b505050506040513d601f19601f82011682018060405250810190611a099190611e86565b6040518463ffffffff1660e01b8152600401611a27939291906121f7565b602060405180830381600087803b158015611a4157600080fd5b505af1158015611a55573d6000803e3d6000fd5b505050506040513d601f19601f82011682018060405250810190611a799190611df3565b50600360009054906101000a900473ffffffffffffffffffffffffffffffffffffffff1673ffffffffffffffffffffffffffffffffffffffff16632797c7a483836040518363ffffffff1660e01b8152600401611ad792919061222e565b600060405180830381600087803b158015611af157600080fd5b505af1158015611b05573d6000803e3d6000fd5b505050507f6e76fb4c77256006d9c38ec7d82b45a8c8f3c27b1d6766fffc42dfb8de68449282604051611b3891906121dc565b60405180910390a15050565b60011515600660008373ffffffffffffffffffffffffffffffffffffffff1673ffffffffffffffffffffffffffffffffffffffff16815260200190815260200160002060009054906101000a900460ff16151514611bd7576040517f08c379a0000000000000000000000000000000000000000000000000000000008152600401611bce90612384565b60405180910390fd5b50565b6000611c1c83836040518060400160405280601e81526020017f536166654d6174683a207375627472616374696f6e206f766572666c6f770000815250611c24565b905092915050565b6000838311158290611cd1576040517f08c379a00000000000000000000000000000000000000000000000000000000081526004018080602001828103825283818151815260200191508051906020019080838360005b83811015611c96578082015181840152602081019050611c7b565b50505050905090810190601f168015611cc35780820380516001836020036101000a031916815260200191505b509250505060405180910390fd5b5060008385039050809150509392505050565b600081359050611cf38161268b565b92915050565b600081519050611d088161268b565b92915050565b600081519050611d1d816126a2565b92915050565b600082601f830112611d3457600080fd5b8135611d47611d42826124d9565b6124a8565b91508082526020830160208301858383011115611d6357600080fd5b611d6e838284612622565b50505092915050565b600081359050611d86816126b9565b92915050565b600081519050611d9b816126b9565b92915050565b600060208284031215611db357600080fd5b6000611dc184828501611ce4565b91505092915050565b600060208284031215611ddc57600080fd5b6000611dea84828501611cf9565b91505092915050565b600060208284031215611e0557600080fd5b6000611e1384828501611d0e565b91505092915050565b600060208284031215611e2e57600080fd5b600082013567ffffffffffffffff811115611e4857600080fd5b611e5484828501611d23565b91505092915050565b600060208284031215611e6f57600080fd5b6000611e7d84828501611d77565b91505092915050565b600060208284031215611e9857600080fd5b6000611ea684828501611d8c565b91505092915050565b60008060408385031215611ec257600080fd5b6000611ed085828601611d77565b9250506020611ee185828601611ce4565b9150509250929050565b611ef481612525565b82525050565b611f0381612537565b82525050565b611f1281612580565b82525050565b611f21816125a4565b82525050565b611f30816125c8565b82525050565b611f3f816125ec565b82525050565b611f4e81612610565b82525050565b6000611f5f82612509565b611f698185612514565b9350611f79818560208601612631565b611f8281612666565b840191505092915050565b6000611f9a600c83612514565b91507f6e6f7420747265617375727900000000000000000000000000000000000000006000830152602082019050919050565b6000611fda601083612514565b91507f7472656173757279206e6f7420736574000000000000000000000000000000006000830152602082019050919050565b600061201a600a83612514565b91507f6e6f74206d656d626572000000000000000000000000000000000000000000006000830152602082019050919050565b600061205a600d83612514565b91507f616c7265616479206164646564000000000000000000000000000000000000006000830152602082019050919050565b600061209a600e83612514565b91507f616c7265616479206d656d6265720000000000000000000000000000000000006000830152602082019050919050565b60006120da600e83612514565b91507f636f6d6d756e6974792066756c6c0000000000000000000000000000000000006000830152602082019050919050565b600061211a600f83612514565b91507f77726f6e6720636f6d6d756e69747900000000000000000000000000000000006000830152602082019050919050565b600061215a601083612514565b91507f6e6f7420676967207265676973747279000000000000000000000000000000006000830152602082019050919050565b600061219a600b83612514565b91507f616c7265616479207365740000000000000000000000000000000000000000006000830152602082019050919050565b6121d681612576565b82525050565b60006020820190506121f16000830184611eeb565b92915050565b600060608201905061220c6000830186611eeb565b6122196020830185611eeb565b61222660408301846121cd565b949350505050565b60006040820190506122436000830185611eeb565b6122506020830184611efa565b9392505050565b600060408201905061226c6000830185611eeb565b61227960208301846121cd565b9392505050565b60006020820190506122956000830184611efa565b92915050565b60006020820190506122b06000830184611f09565b92915050565b60006020820190506122cb6000830184611f18565b92915050565b60006020820190506122e66000830184611f27565b92915050565b60006020820190506123016000830184611f36565b92915050565b600060208201905061231c6000830184611f45565b92915050565b6000602082019050818103600083015261233c8184611f54565b905092915050565b6000602082019050818103600083015261235d81611f8d565b9050919050565b6000602082019050818103600083015261237d81611fcd565b9050919050565b6000602082019050818103600083015261239d8161200d565b9050919050565b600060208201905081810360008301526123bd8161204d565b9050919050565b600060208201905081810360008301526123dd8161208d565b9050919050565b600060208201905081810360008301526123fd816120cd565b9050919050565b6000602082019050818103600083015261241d8161210d565b9050919050565b6000602082019050818103600083015261243d8161214d565b9050919050565b6000602082019050818103600083015261245d8161218d565b9050919050565b600060208201905061247960008301846121cd565b92915050565b600060408201905061249460008301856121cd565b6124a16020830184611eeb565b9392505050565b6000604051905081810181811067ffffffffffffffff821117156124cf576124ce612664565b5b8060405250919050565b600067ffffffffffffffff8211156124f4576124f3612664565b5b601f19601f8301169050602081019050919050565b600081519050919050565b600082825260208201905092915050565b600061253082612556565b9050919050565b60008115159050919050565b600081905061255182612677565b919050565b600073ffffffffffffffffffffffffffffffffffffffff82169050919050565b6000819050919050565b600061258b82612592565b9050919050565b600061259d82612556565b9050919050565b60006125af826125b6565b9050919050565b60006125c182612556565b9050919050565b60006125d3826125da565b9050919050565b60006125e582612556565b9050919050565b60006125f7826125fe565b9050919050565b600061260982612556565b9050919050565b600061261b82612543565b9050919050565b82818337600083830152505050565b60005b8381101561264f578082015181840152602081019050612634565b8381111561265e576000848401525b50505050565bfe5b6000601f19601f8301169050919050565b6003811061268857612687612664565b5b50565b61269481612525565b811461269f57600080fd5b50565b6126ab81612537565b81146126b657600080fd5b50565b6126c281612576565b81146126cd57600080fd5b5056fe4f776e61626c653a206e6577206f776e657220697320746865207a65726f2061646472657373536166654d6174683a206d756c7469706c69636174696f6e206f766572666c6f77a2646970667358221220e5e6544344b0b57c730398d40af8d8a1923cbdc66b7651af79fc14f83eae450164736f6c6343000704003360806040523480156200001157600080fd5b5060405162002a9038038062002a90833981810160405260208110156200003757600080fd5b81019080805190602001909291905050506040518060400160405280600481526020017f4469546f000000000000000000000000000000000000000000000000000000008152506040518060400160405280600481526020017f4449544f000000000000000000000000000000000000000000000000000000008152508160039080519060200190620000cc9291906200049a565b508060049080519060200190620000e59291906200049a565b506012600560006101000a81548160ff021916908360ff16021790555050506000620001166200022660201b60201c565b905080600560016101000a81548173ffffffffffffffffffffffffffffffffffffffff021916908373ffffffffffffffffffffffffffffffffffffffff1602179055508073ffffffffffffffffffffffffffffffffffffffff16600073ffffffffffffffffffffffffffffffffffffffff167f8be0079c531659141344cd1fd0a4f28419497f9722a3daafe3b4186f6b6457e060405160405180910390a3506001600660003373ffffffffffffffffffffffffffffffffffffffff1673ffffffffffffffffffffffffffffffffffffffff16815260200190815260200160002060006101000a81548160ff0219169083151502179055506200021f33826200022e60201b60201c565b5062000550565b600033905090565b600073ffffffffffffffffffffffffffffffffffffffff168273ffffffffffffffffffffffffffffffffffffffff161415620002d2576040517f08c379a000000000000000000000000000000000000000000000000000000000815260040180806020018281038252601f8152602001807f45524332303a206d696e7420746f20746865207a65726f20616464726573730081525060200191505060405180910390fd5b620002e6600083836200040c60201b60201c565b62000302816002546200041160201b62001b311790919060201c565b60028190555062000360816000808573ffffffffffffffffffffffffffffffffffffffff1673ffffffffffffffffffffffffffffffffffffffff168152602001908152602001600020546200041160201b62001b311790919060201c565b6000808473ffffffffffffffffffffffffffffffffffffffff1673ffffffffffffffffffffffffffffffffffffffff168152602001908152602001600020819055508173ffffffffffffffffffffffffffffffffffffffff16600073ffffffffffffffffffffffffffffffffffffffff167fddf252ad1be2c89b69c2b068fc378daa952ba7f163c4a11628f55a4df523b3ef836040518082815260200191505060405180910390a35050565b505050565b60008082840190508381101562000490576040517f08c379a000000000000000000000000000000000000000000000000000000000815260040180806020018281038252601b8152602001807f536166654d6174683a206164646974696f6e206f766572666c6f77000000000081525060200191505060405180910390fd5b8091505092915050565b828054600181600116156101000203166002900490600052602060002090601f016020900481019282620004d257600085556200051e565b82601f10620004ed57805160ff19168380011785556200051e565b828001600101855582156200051e579182015b828111156200051d57825182559160200191906001019062000500565b5b5090506200052d919062000531565b5090565b5b808211156200054c57600081600090555060010162000532565b5090565b61253080620005606000396000f3fe608060405234801561001057600080fd5b50600436106101165760003560e01c8063715018a6116100a2578063a457c2d711610071578063a457c2d714610520578063a9059cbb14610584578063bc93233f146105e8578063dd62ed3e14610638578063f2fde38b146106b057610116565b8063715018a6146104055780638da5cb5b1461040f57806395d89b41146104435780639b19251a146104c657610116565b80632797c7a4116100e95780632797c7a4146102a4578063313ce567146102f4578063395093511461031557806361d027b31461037957806370a08231146103ad57610116565b806306fdde031461011b578063095ea7b31461019e57806318160ddd1461020257806323b872dd14610220575b600080fd5b6101236106f4565b6040518080602001828103825283818151815260200191508051906020019080838360005b83811015610163578082015181840152602081019050610148565b50505050905090810190601f1680156101905780820380516001836020036101000a031916815260200191505b509250505060405180910390f35b6101ea600480360360408110156101b457600080fd5b81019080803573ffffffffffffffffffffffffffffffffffffffff16906020019092919080359060200190929190505050610796565b60405180821515815260200191505060405180910390f35b61020a61092a565b6040518082815260200191505060405180910390f35b61028c6004803603606081101561023657600080fd5b81019080803573ffffffffffffffffffffffffffffffffffffffff169060200190929190803573ffffffffffffffffffffffffffffffffffffffff16906020019092919080359060200190929190505050610934565b60405180821515815260200191505060405180910390f35b6102f2600480360360408110156102ba57600080fd5b81019080803573ffffffffffffffffffffffffffffffffffffffff169060200190929190803515159060200190929190505050610be4565b005b6102fc610e63565b604051808260ff16815260200191505060405180910390f35b6103616004803603604081101561032b57600080fd5b81019080803573ffffffffffffffffffffffffffffffffffffffff16906020019092919080359060200190929190505050610e7a565b60405180821515815260200191505060405180910390f35b61038161100e565b604051808273ffffffffffffffffffffffffffffffffffffffff16815260200191505060405180910390f35b6103ef600480360360208110156103c357600080fd5b81019080803573ffffffffffffffffffffffffffffffffffffffff169060200190929190505050611034565b6040518082815260200191505060405180910390f35b61040d61107c565b005b610417611207565b604051808273ffffffffffffffffffffffffffffffffffffffff16815260200191505060405180910390f35b61044b611231565b6040518080602001828103825283818151815260200191508051906020019080838360005b8381101561048b578082015181840152602081019050610470565b50505050905090810190601f1680156104b85780820380516001836020036101000a031916815260200191505b509250505060405180910390f35b610508600480360360208110156104dc57600080fd5b81019080803573ffffffffffffffffffffffffffffffffffffffff1690602001909291905050506112d3565b60405180821515815260200191505060405180910390f35b61056c6004803603604081101561053657600080fd5b81019080803573ffffffffffffffffffffffffffffffffffffffff169060200190929190803590602001909291905050506112f3565b60405180821515815260200191505060405180910390f35b6105d06004803603604081101561059a57600080fd5b81019080803573ffffffffffffffffffffffffffffffffffffffff16906020019092919080359060200190929190505050611487565b60405180821515815260200191505060405180910390f35b610636600480360360408110156105fe57600080fd5b81019080803573ffffffffffffffffffffffffffffffffffffffff16906020019092919080351515906020019092919050505061161b565b005b61069a6004803603604081101561064e57600080fd5b81019080803573ffffffffffffffffffffffffffffffffffffffff169060200190929190803573ffffffffffffffffffffffffffffffffffffffff16906020019092919050505061189a565b6040518082815260200191505060405180910390f35b6106f2600480360360208110156106c657600080fd5b81019080803573ffffffffffffffffffffffffffffffffffffffff169060200190929190505050611921565b005b606060038054600181600116156101000203166002900480601f01602080910402602001604051908101604052809291908181526020018280546001816001161561010002031660029004801561078c5780601f106107615761010080835404028352916020019161078c565b820191906000526020600020905b81548152906001019060200180831161076f57829003601f168201915b5050505050905090565b600082600660003373ffffffffffffffffffffffffffffffffffffffff1673ffffffffffffffffffffffffffffffffffffffff16815260200190815260200160002060009054906101000a900460ff16610858576040517f08c379a00000000000000000000000000000000000000000000000000000000081526004018080602001828103825260178152602001807f73656e646572206e6f7420696e2077686974656c69737400000000000000000081525060200191505060405180910390fd5b600660008273ffffffffffffffffffffffffffffffffffffffff1673ffffffffffffffffffffffffffffffffffffffff16815260200190815260200160002060009054906101000a900460ff16610917576040517f08c379a000000000000000000000000000000000000000000000000000000000815260040180806020018281038252601a8152602001807f726563697069656e74206e6f7420696e2077686974656c69737400000000000081525060200191505060405180910390fd5b6109218484611bb9565b91505092915050565b6000600254905090565b600082600660003373ffffffffffffffffffffffffffffffffffffffff1673ffffffffffffffffffffffffffffffffffffffff16815260200190815260200160002060009054906101000a900460ff166109f6576040517f08c379a00000000000000000000000000000000000000000000000000000000081526004018080602001828103825260178152602001807f73656e646572206e6f7420696e2077686974656c69737400000000000000000081525060200191505060405180910390fd5b600660008273ffffffffffffffffffffffffffffffffffffffff1673ffffffffffffffffffffffffffffffffffffffff16815260200190815260200160002060009054906101000a900460ff16610ab5576040517f08c379a000000000000000000000000000000000000000000000000000000000815260040180806020018281038252601a8152602001807f726563697069656e74206e6f7420696e2077686974656c69737400000000000081525060200191505060405180910390fd5b600760009054906101000a900473ffffffffffffffffffffffffffffffffffffffff1673ffffffffffffffffffffffffffffffffffffffff168473ffffffffffffffffffffffffffffffffffffffff161415610bcf57600760009054906101000a900473ffffffffffffffffffffffffffffffffffffffff1673ffffffffffffffffffffffffffffffffffffffff163373ffffffffffffffffffffffffffffffffffffffff1614610bce576040517f08c379a00000000000000000000000000000000000000000000000000000000081526004018080602001828103825260168152602001807f6e6f742073656e742066726f6d2074726561737572790000000000000000000081525060200191505060405180910390fd5b5b610bda858585611bd7565b9150509392505050565b610bec611cb0565b73ffffffffffffffffffffffffffffffffffffffff16600560019054906101000a900473ffffffffffffffffffffffffffffffffffffffff1673ffffffffffffffffffffffffffffffffffffffff1614610cae576040517f08c379a00000000000000000000000000000000000000000000000000000000081526004018080602001828103825260208152602001807f4f776e61626c653a2063616c6c6572206973206e6f7420746865206f776e657281525060200191505060405180910390fd5b8015610dba578173ffffffffffffffffffffffffffffffffffffffff16600760009054906101000a900473ffffffffffffffffffffffffffffffffffffffff1673ffffffffffffffffffffffffffffffffffffffff1614610d77576040517f08c379a00000000000000000000000000000000000000000000000000000000081526004018080602001828103825260188152602001807f6d656d626572206973206e6f742061207472656173757279000000000000000081525060200191505060405180910390fd5b6000600760006101000a81548173ffffffffffffffffffffffffffffffffffffffff021916908373ffffffffffffffffffffffffffffffffffffffff1602179055505b6000600660008473ffffffffffffffffffffffffffffffffffffffff1673ffffffffffffffffffffffffffffffffffffffff16815260200190815260200160002060006101000a81548160ff0219169083151502179055507fcdd2e9b91a56913d370075169cefa1602ba36be5301664f752192bb1709df75782604051808273ffffffffffffffffffffffffffffffffffffffff16815260200191505060405180910390a15050565b6000600560009054906101000a900460ff16905090565b600082600660003373ffffffffffffffffffffffffffffffffffffffff1673ffffffffffffffffffffffffffffffffffffffff16815260200190815260200160002060009054906101000a900460ff16610f3c576040517f08c379a00000000000000000000000000000000000000000000000000000000081526004018080602001828103825260178152602001807f73656e646572206e6f7420696e2077686974656c69737400000000000000000081525060200191505060405180910390fd5b600660008273ffffffffffffffffffffffffffffffffffffffff1673ffffffffffffffffffffffffffffffffffffffff16815260200190815260200160002060009054906101000a900460ff16610ffb576040517f08c379a000000000000000000000000000000000000000000000000000000000815260040180806020018281038252601a8152602001807f726563697069656e74206e6f7420696e2077686974656c69737400000000000081525060200191505060405180910390fd5b6110058484611cb8565b91505092915050565b600760009054906101000a900473ffffffffffffffffffffffffffffffffffffffff1681565b60008060008373ffffffffffffffffffffffffffffffffffffffff1673ffffffffffffffffffffffffffffffffffffffff168152602001908152602001600020549050919050565b611084611cb0565b73ffffffffffffffffffffffffffffffffffffffff16600560019054906101000a900473ffffffffffffffffffffffffffffffffffffffff1673ffffffffffffffffffffffffffffffffffffffff1614611146576040517f08c379a00000000000000000000000000000000000000000000000000000000081526004018080602001828103825260208152602001807f4f776e61626c653a2063616c6c6572206973206e6f7420746865206f776e657281525060200191505060405180910390fd5b600073ffffffffffffffffffffffffffffffffffffffff16600560019054906101000a900473ffffffffffffffffffffffffffffffffffffffff1673ffffffffffffffffffffffffffffffffffffffff167f8be0079c531659141344cd1fd0a4f28419497f9722a3daafe3b4186f6b6457e060405160405180910390a36000600560016101000a81548173ffffffffffffffffffffffffffffffffffffffff021916908373ffffffffffffffffffffffffffffffffffffffff160217905550565b6000600560019054906101000a900473ffffffffffffffffffffffffffffffffffffffff16905090565b606060048054600181600116156101000203166002900480601f0160208091040260200160405190810160405280929190818152602001828054600181600116156101000203166002900480156112c95780601f1061129e576101008083540402835291602001916112c9565b820191906000526020600020905b8154815290600101906020018083116112ac57829003601f168201915b5050505050905090565b60066020528060005260406000206000915054906101000a900460ff1681565b600082600660003373ffffffffffffffffffffffffffffffffffffffff1673ffffffffffffffffffffffffffffffffffffffff16815260200190815260200160002060009054906101000a900460ff166113b5576040517f08c379a00000000000000000000000000000000000000000000000000000000081526004018080602001828103825260178152602001807f73656e646572206e6f7420696e2077686974656c69737400000000000000000081525060200191505060405180910390fd5b600660008273ffffffffffffffffffffffffffffffffffffffff1673ffffffffffffffffffffffffffffffffffffffff16815260200190815260200160002060009054906101000a900460ff16611474576040517f08c379a000000000000000000000000000000000000000000000000000000000815260040180806020018281038252601a8152602001807f726563697069656e74206e6f7420696e2077686974656c69737400000000000081525060200191505060405180910390fd5b61147e8484611d6b565b91505092915050565b600082600660003373ffffffffffffffffffffffffffffffffffffffff1673ffffffffffffffffffffffffffffffffffffffff16815260200190815260200160002060009054906101000a900460ff16611549576040517f08c379a00000000000000000000000000000000000000000000000000000000081526004018080602001828103825260178152602001807f73656e646572206e6f7420696e2077686974656c69737400000000000000000081525060200191505060405180910390fd5b600660008273ffffffffffffffffffffffffffffffffffffffff1673ffffffffffffffffffffffffffffffffffffffff16815260200190815260200160002060009054906101000a900460ff16611608576040517f08c379a000000000000000000000000000000000000000000000000000000000815260040180806020018281038252601a8152602001807f726563697069656e74206e6f7420696e2077686974656c69737400000000000081525060200191505060405180910390fd5b6116128484611e38565b91505092915050565b611623611cb0565b73ffffffffffffffffffffffffffffffffffffffff16600560019054906101000a900473ffffffffffffffffffffffffffffffffffffffff1673ffffffffffffffffffffffffffffffffffffffff16146116e5576040517f08c379a00000000000000000000000000000000000000000000000000000000081526004018080602001828103825260208152602001807f4f776e61626c653a2063616c6c6572206973206e6f7420746865206f776e657281525060200191505060405180910390fd5b80156117f157600073ffffffffffffffffffffffffffffffffffffffff16600760009054906101000a900473ffffffffffffffffffffffffffffffffffffffff1673ffffffffffffffffffffffffffffffffffffffff16146117af576040517f08c379a00000000000000000000000000000000000000000000000000000000081526004018080602001828103825260178152602001807f747265617375727920697320616c72656164792073657400000000000000000081525060200191505060405180910390fd5b81600760006101000a81548173ffffffffffffffffffffffffffffffffffffffff021916908373ffffffffffffffffffffffffffffffffffffffff1602179055505b6001600660008473ffffffffffffffffffffffffffffffffffffffff1673ffffffffffffffffffffffffffffffffffffffff16815260200190815260200160002060006101000a81548160ff0219169083151502179055507fa850ae9193f515cbae8d35e8925bd2be26627fc91bce650b8652ed254e9cab0382604051808273ffffffffffffffffffffffffffffffffffffffff16815260200191505060405180910390a15050565b6000600160008473ffffffffffffffffffffffffffffffffffffffff1673ffffffffffffffffffffffffffffffffffffffff16815260200190815260200160002060008373ffffffffffffffffffffffffffffffffffffffff1673ffffffffffffffffffffffffffffffffffffffff16815260200190815260200160002054905092915050565b611929611cb0565b73ffffffffffffffffffffffffffffffffffffffff16600560019054906101000a900473ffffffffffffffffffffffffffffffffffffffff1673ffffffffffffffffffffffffffffffffffffffff16146119eb576040517f08c379a00000000000000000000000000000000000000000000000000000000081526004018080602001828103825260208152602001807f4f776e61626c653a2063616c6c6572206973206e6f7420746865206f776e657281525060200191505060405180910390fd5b600073ffffffffffffffffffffffffffffffffffffffff168173ffffffffffffffffffffffffffffffffffffffff161415611a71576040517f08c379a00000000000000000000000000000000000000000000000000000000081526004018080602001828103825260268152602001806123f76026913960400191505060405180910390fd5b8073ffffffffffffffffffffffffffffffffffffffff16600560019054906101000a900473ffffffffffffffffffffffffffffffffffffffff1673ffffffffffffffffffffffffffffffffffffffff167f8be0079c531659141344cd1fd0a4f28419497f9722a3daafe3b4186f6b6457e060405160405180910390a380600560016101000a81548173ffffffffffffffffffffffffffffffffffffffff021916908373ffffffffffffffffffffffffffffffffffffffff16021790555050565b600080828401905083811015611baf576040517f08c379a000000000000000000000000000000000000000000000000000000000815260040180806020018281038252601b8152602001807f536166654d6174683a206164646974696f6e206f766572666c6f77000000000081525060200191505060405180910390fd5b8091505092915050565b6000611bcd611bc6611cb0565b8484611e56565b6001905092915050565b6000611be484848461204d565b611ca584611bf0611cb0565b611ca08560405180606001604052806028815260200161246560289139600160008b73ffffffffffffffffffffffffffffffffffffffff1673ffffffffffffffffffffffffffffffffffffffff1681526020019081526020016000206000611c56611cb0565b73ffffffffffffffffffffffffffffffffffffffff1673ffffffffffffffffffffffffffffffffffffffff1681526020019081526020016000205461230e9092919063ffffffff16565b611e56565b600190509392505050565b600033905090565b6000611d61611cc5611cb0565b84611d5c8560016000611cd6611cb0565b73ffffffffffffffffffffffffffffffffffffffff1673ffffffffffffffffffffffffffffffffffffffff16815260200190815260200160002060008973ffffffffffffffffffffffffffffffffffffffff1673ffffffffffffffffffffffffffffffffffffffff16815260200190815260200160002054611b3190919063ffffffff16565b611e56565b6001905092915050565b6000611e2e611d78611cb0565b84611e29856040518060600160405280602581526020016124d66025913960016000611da2611cb0565b73ffffffffffffffffffffffffffffffffffffffff1673ffffffffffffffffffffffffffffffffffffffff16815260200190815260200160002060008a73ffffffffffffffffffffffffffffffffffffffff1673ffffffffffffffffffffffffffffffffffffffff1681526020019081526020016000205461230e9092919063ffffffff16565b611e56565b6001905092915050565b6000611e4c611e45611cb0565b848461204d565b6001905092915050565b600073ffffffffffffffffffffffffffffffffffffffff168373ffffffffffffffffffffffffffffffffffffffff161415611edc576040517f08c379a00000000000000000000000000000000000000000000000000000000081526004018080602001828103825260248152602001806124b26024913960400191505060405180910390fd5b600073ffffffffffffffffffffffffffffffffffffffff168273ffffffffffffffffffffffffffffffffffffffff161415611f62576040517f08c379a000000000000000000000000000000000000000000000000000000000815260040180806020018281038252602281526020018061241d6022913960400191505060405180910390fd5b80600160008573ffffffffffffffffffffffffffffffffffffffff1673ffffffffffffffffffffffffffffffffffffffff16815260200190815260200160002060008473ffffffffffffffffffffffffffffffffffffffff1673ffffffffffffffffffffffffffffffffffffffff168152602001908152602001600020819055508173ffffffffffffffffffffffffffffffffffffffff168373ffffffffffffffffffffffffffffffffffffffff167f8c5be1e5ebec7d5bd14f71427d1e84f3dd0314c0f7b2291e5b200ac8c7c3b925836040518082815260200191505060405180910390a3505050565b600073ffffffffffffffffffffffffffffffffffffffff168373ffffffffffffffffffffffffffffffffffffffff1614156120d3576040517f08c379a000000000000000000000000000000000000000000000000000000000815260040180806020018281038252602581526020018061248d6025913960400191505060405180910390fd5b600073ffffffffffffffffffffffffffffffffffffffff168273ffffffffffffffffffffffffffffffffffffffff161415612159576040517f08c379a00000000000000000000000000000000000000000000000000000000081526004018080602001828103825260238152602001806123d46023913960400191505060405180910390fd5b6121648383836123ce565b6121cf8160405180606001604052806026815260200161243f602691396000808773ffffffffffffffffffffffffffffffffffffffff1673ffffffffffffffffffffffffffffffffffffffff1681526020019081526020016000205461230e9092919063ffffffff16565b6000808573ffffffffffffffffffffffffffffffffffffffff1673ffffffffffffffffffffffffffffffffffffffff16815260200190815260200160002081905550612262816000808573ffffffffffffffffffffffffffffffffffffffff1673ffffffffffffffffffffffffffffffffffffffff16815260200190815260200160002054611b3190919063ffffffff16565b6000808473ffffffffffffffffffffffffffffffffffffffff1673ffffffffffffffffffffffffffffffffffffffff168152602001908152602001600020819055508173ffffffffffffffffffffffffffffffffffffffff168373ffffffffffffffffffffffffffffffffffffffff167fddf252ad1be2c89b69c2b068fc378daa952ba7f163c4a11628f55a4df523b3ef836040518082815260200191505060405180910390a3505050565b60008383111582906123bb576040517f08c379a00000000000000000000000000000000000000000000000000000000081526004018080602001828103825283818151815260200191508051906020019080838360005b83811015612380578082015181840152602081019050612365565b50505050905090810190601f1680156123ad5780820380516001836020036101000a031916815260200191505b509250505060405180910390fd5b5060008385039050809150509392505050565b50505056fe45524332303a207472616e7366657220746f20746865207a65726f20616464726573734f776e61626c653a206e6577206f776e657220697320746865207a65726f206164647265737345524332303a20617070726f766520746f20746865207a65726f206164647265737345524332303a207472616e7366657220616d6f756e7420657863656564732062616c616e636545524332303a207472616e7366657220616d6f756e74206578636565647320616c6c6f77616e636545524332303a207472616e736665722066726f6d20746865207a65726f206164647265737345524332303a20617070726f76652066726f6d20746865207a65726f206164647265737345524332303a2064656372656173656420616c6c6f77616e63652062656c6f77207a65726fa2646970667358221220d5a68a77b06e4c9c5c52a7f008803ab596841b8c4151b0d858bedca38916af9d64736f6c6343000704003360806040523480156200001157600080fd5b5060405162003dcd38038062003dcd833981810160405281019062000037919062000335565b600062000049620002ff60201b60201c565b9050806000806101000a81548173ffffffffffffffffffffffffffffffffffffffff021916908373ffffffffffffffffffffffffffffffffffffffff1602179055508073ffffffffffffffffffffffffffffffffffffffff16600073ffffffffffffffffffffffffffffffffffffffff167f8be0079c531659141344cd1fd0a4f28419497f9722a3daafe3b4186f6b6457e060405160405180910390a350620000f7620002ff60201b60201c565b600460026101000a81548173ffffffffffffffffffffffffffffffffffffffff021916908373ffffffffffffffffffffffffffffffffffffffff1602179055506000600460006101000a81548160ff02191690831515021790555085600460016101000a81548160ff021916908360028111156200017157fe5b021790555084600660006101000a81548173ffffffffffffffffffffffffffffffffffffffff021916908373ffffffffffffffffffffffffffffffffffffffff16021790555083600560006101000a81548173ffffffffffffffffffffffffffffffffffffffff021916908373ffffffffffffffffffffffffffffffffffffffff16021790555080600160006101000a81548173ffffffffffffffffffffffffffffffffffffffff021916908373ffffffffffffffffffffffffffffffffffffffff1602179055508260026040516200024a906200044f565b908152602001604051809103902060006101000a81548173ffffffffffffffffffffffffffffffffffffffff021916908373ffffffffffffffffffffffffffffffffffffffff160217905550816002604051620002a79062000466565b908152602001604051809103902060006101000a81548173ffffffffffffffffffffffffffffffffffffffff021916908373ffffffffffffffffffffffffffffffffffffffff160217905550505050505050620004e7565b600033905090565b6000815190506200031881620004bc565b92915050565b6000815190506200032f81620004d6565b92915050565b60008060008060008060c087890312156200034f57600080fd5b60006200035f89828a016200031e565b96505060206200037289828a0162000307565b95505060406200038589828a0162000307565b94505060606200039889828a0162000307565b9350506080620003ab89828a0162000307565b92505060a0620003be89828a0162000307565b9150509295509295509295565b6000620003da6003836200047d565b91507f44414900000000000000000000000000000000000000000000000000000000006000830152600382019050919050565b60006200041c6004836200047d565b91507f55534443000000000000000000000000000000000000000000000000000000006000830152600482019050919050565b60006200045c82620003cb565b9150819050919050565b600062000473826200040d565b9150819050919050565b600081905092915050565b600062000495826200049c565b9050919050565b600073ffffffffffffffffffffffffffffffffffffffff82169050919050565b620004c78162000488565b8114620004d357600080fd5b50565b60038110620004e457600080fd5b50565b6138d680620004f76000396000f3fe608060405234801561001057600080fd5b506004361061021b5760003560e01c80638da5cb5b11610125578063d0e0ba95116100ad578063e9999b031161007c578063e9999b03146105f4578063eaad31e114610612578063ef37113314610630578063f2fde38b1461064e578063fc0c546a1461066a5761021b565b8063d0e0ba9514610580578063d33219b41461059c578063dc1fb5a5146105ba578063e377672e146105d85761021b565b8063a46eddcf116100f4578063a46eddcf146104de578063af640d0f146104fa578063bc1c2c2914610518578063bdc5a95614610548578063c7901378146105645761021b565b80638da5cb5b146104445780639963ae8c146104625780639ab9c8191461047e5780639c28b199146104ae5761021b565b806339327e9e116101a857806363a5d2981161017757806363a5d298146103d65780636f2ddd93146103e0578063715018a6146103fe5780637158638314610408578063785ffb37146104265761021b565b806339327e9e146103605780634162169f1461037e57806346f98fec1461039c57806348f65007146103a65761021b565b806320628b48116101ef57806320628b4814610294578063247e9e86146102c45780632bdef29b146102f45780633705abf11461031257806337f3061d146103425761021b565b8062f418f41461022057806303eeedfb1461022a578063107046bd1461024857806315da0b0214610278575b600080fd5b610228610688565b005b61023261071b565b60405161023f919061352f565b60405180910390f35b610262600480360381019061025d9190612ce6565b610721565b60405161026f91906131d4565b60405180910390f35b610292600480360381019061028d9190612b5e565b610760565b005b6102ae60048036038101906102a99190612ce6565b6109e5565b6040516102bb91906131d4565b60405180910390f35b6102de60048036038101906102d99190612bb0565b610a26565b6040516102eb919061352f565b60405180910390f35b6102fc610aad565b60405161030991906132df565b60405180910390f35b61032c60048036038101906103279190612c51565b610ac0565b60405161033991906131d4565b60405180910390f35b61034a610b09565b60405161035791906132bd565b60405180910390f35b610368610cbc565b6040516103759190613315565b60405180910390f35b610386610ce2565b6040516103939190613330565b60405180910390f35b6103a4610d08565b005b6103c060048036038101906103bb9190612b5e565b610dfc565b6040516103cd91906132bd565b60405180910390f35b6103de610e93565b005b6103e861100a565b6040516103f59190613366565b60405180910390f35b61040661101d565b005b6104106111a3565b60405161041d919061352f565b60405180910390f35b61042e6111a9565b60405161043b919061352f565b60405180910390f35b61044c6111af565b60405161045991906131d4565b60405180910390f35b61047c60048036038101906104779190612c92565b6111d8565b005b61049860048036038101906104939190612bec565b6117d8565b6040516104a5919061352f565b60405180910390f35b6104c860048036038101906104c39190612bb0565b611809565b6040516104d5919061352f565b60405180910390f35b6104f860048036038101906104f39190612b5e565b61182e565b005b6105026119c1565b60405161050f919061352f565b60405180910390f35b610532600480360381019061052d9190612b5e565b6119c7565b60405161053f919061352f565b60405180910390f35b610562600480360381019061055d9190612c92565b6119df565b005b61057e60048036038101906105799190612bec565b611c14565b005b61059a60048036038101906105959190612ce6565b611c18565b005b6105a4611e75565b6040516105b1919061334b565b60405180910390f35b6105c2611e9b565b6040516105cf91906131d4565b60405180910390f35b6105f260048036038101906105ed9190612d38565b611ec1565b005b6105fc612474565b604051610609919061352f565b60405180910390f35b61061a61247a565b604051610627919061352f565b60405180910390f35b610638612487565b604051610645919061352f565b60405180910390f35b61066860048036038101906106639190612b5e565b612539565b005b610672612744565b60405161067f91906132fa565b60405180910390f35b600b60149054906101000a900460ff16156106d8576040517f08c379a00000000000000000000000000000000000000000000000000000000081526004016106cf9061342f565b60405180910390fd5b33600b60006101000a81548173ffffffffffffffffffffffffffffffffffffffff021916908373ffffffffffffffffffffffffffffffffffffffff160217905550565b60075481565b6009818154811061073157600080fd5b906000526020600020016000915054906101000a900473ffffffffffffffffffffffffffffffffffffffff1681565b61076861276a565b73ffffffffffffffffffffffffffffffffffffffff1660008054906101000a900473ffffffffffffffffffffffffffffffffffffffff1673ffffffffffffffffffffffffffffffffffffffff1614610828576040517f08c379a00000000000000000000000000000000000000000000000000000000081526004018080602001828103825260208152602001807f4f776e61626c653a2063616c6c6572206973206e6f7420746865206f776e657281525060200191505060405180910390fd5b600460009054906101000a900460ff1615610878576040517f08c379a000000000000000000000000000000000000000000000000000000000815260040161086f906134ef565b60405180910390fd5b80600460026101000a81548173ffffffffffffffffffffffffffffffffffffffff021916908373ffffffffffffffffffffffffffffffffffffffff160217905550600660009054906101000a900473ffffffffffffffffffffffffffffffffffffffff1673ffffffffffffffffffffffffffffffffffffffff1663095ea7b3600460029054906101000a900473ffffffffffffffffffffffffffffffffffffffff167fffffffffffffffffffffffffffffffffffffffffffffffffffffffffffffffff6040518363ffffffff1660e01b8152600401610958929190613241565b602060405180830381600087803b15801561097257600080fd5b505af1158015610986573d6000803e3d6000fd5b505050506040513d601f19601f820116820180604052508101906109aa9190612c28565b507fb954b00fb708b65e61e5af666f5ce5050a9a566a4c6cc31e34fb24d03459106f816040516109da91906131d4565b60405180910390a150565b6000600982815481106109f457fe5b9060005260206000200160009054906101000a900473ffffffffffffffffffffffffffffffffffffffff169050919050565b6000600c60008473ffffffffffffffffffffffffffffffffffffffff1673ffffffffffffffffffffffffffffffffffffffff16815260200190815260200160002060008373ffffffffffffffffffffffffffffffffffffffff1673ffffffffffffffffffffffffffffffffffffffff16815260200190815260200160002054905092915050565b600b60149054906101000a900460ff1681565b6002818051602081018201805184825260208301602085012081835280955050505050506000915054906101000a900473ffffffffffffffffffffffffffffffffffffffff1681565b60608060075467ffffffffffffffff81118015610b2557600080fd5b50604051908082528060200260200182016040528015610b545781602001602082028036833780820191505090505b5090506000805b600980549050811015610cb35760005b600a600060098481548110610b7c57fe5b9060005260206000200160009054906101000a900473ffffffffffffffffffffffffffffffffffffffff1673ffffffffffffffffffffffffffffffffffffffff1673ffffffffffffffffffffffffffffffffffffffff16815260200190815260200160002080549050811015610ca557600a600060098481548110610bfd57fe5b9060005260206000200160009054906101000a900473ffffffffffffffffffffffffffffffffffffffff1673ffffffffffffffffffffffffffffffffffffffff1673ffffffffffffffffffffffffffffffffffffffff1681526020019081526020016000208181548110610c6d57fe5b9060005260206000200154848481518110610c8457fe5b60200260200101818152505082806001019350508080600101915050610b6b565b508080600101915050610b5b565b50819250505090565b600160009054906101000a900473ffffffffffffffffffffffffffffffffffffffff1681565b600560009054906101000a900473ffffffffffffffffffffffffffffffffffffffff1681565b600660009054906101000a900473ffffffffffffffffffffffffffffffffffffffff1673ffffffffffffffffffffffffffffffffffffffff1663095ea7b3600460029054906101000a900473ffffffffffffffffffffffffffffffffffffffff167fffffffffffffffffffffffffffffffffffffffffffffffffffffffffffffffff6040518363ffffffff1660e01b8152600401610da7929190613241565b602060405180830381600087803b158015610dc157600080fd5b505af1158015610dd5573d6000803e3d6000fd5b505050506040513d601f19601f82011682018060405250810190610df99190612c28565b50565b6060600a60008373ffffffffffffffffffffffffffffffffffffffff1673ffffffffffffffffffffffffffffffffffffffff168152602001908152602001600020805480602002602001604051908101604052809291908181526020018280548015610e8757602002820191906000526020600020905b815481526020019060010190808311610e73575b50505050509050919050565b610e9b61276a565b73ffffffffffffffffffffffffffffffffffffffff1660008054906101000a900473ffffffffffffffffffffffffffffffffffffffff1673ffffffffffffffffffffffffffffffffffffffff1614610f5b576040517f08c379a00000000000000000000000000000000000000000000000000000000081526004018080602001828103825260208152602001807f4f776e61626c653a2063616c6c6572206973206e6f7420746865206f776e657281525060200191505060405180910390fd5b600073ffffffffffffffffffffffffffffffffffffffff16600b60009054906101000a900473ffffffffffffffffffffffffffffffffffffffff1673ffffffffffffffffffffffffffffffffffffffff161415610fed576040517f08c379a0000000000000000000000000000000000000000000000000000000008152600401610fe49061350f565b60405180910390fd5b6001600b60146101000a81548160ff021916908315150217905550565b600460019054906101000a900460ff1681565b61102561276a565b73ffffffffffffffffffffffffffffffffffffffff1660008054906101000a900473ffffffffffffffffffffffffffffffffffffffff1673ffffffffffffffffffffffffffffffffffffffff16146110e5576040517f08c379a00000000000000000000000000000000000000000000000000000000081526004018080602001828103825260208152602001807f4f776e61626c653a2063616c6c6572206973206e6f7420746865206f776e657281525060200191505060405180910390fd5b600073ffffffffffffffffffffffffffffffffffffffff1660008054906101000a900473ffffffffffffffffffffffffffffffffffffffff1673ffffffffffffffffffffffffffffffffffffffff167f8be0079c531659141344cd1fd0a4f28419497f9722a3daafe3b4186f6b6457e060405160405180910390a360008060006101000a81548173ffffffffffffffffffffffffffffffffffffffff021916908373ffffffffffffffffffffffffffffffffffffffff160217905550565b60085481565b610f0081565b60008060009054906101000a900473ffffffffffffffffffffffffffffffffffffffff16905090565b600b60149054906101000a900460ff16611227576040517f08c379a000000000000000000000000000000000000000000000000000000000815260040161121e9061340f565b60405180910390fd5b600060028360405161123991906131bd565b908152602001604051809103902060009054906101000a900473ffffffffffffffffffffffffffffffffffffffff169050600073ffffffffffffffffffffffffffffffffffffffff168173ffffffffffffffffffffffffffffffffffffffff1614156112da576040517f08c379a00000000000000000000000000000000000000000000000000000000081526004016112d1906134af565b60405180910390fd5b60006112f7670de0b6b3a76400008461277290919063ffffffff16565b9050808273ffffffffffffffffffffffffffffffffffffffff166370a0823161131e61276a565b6040518263ffffffff1660e01b815260040161133a91906131ef565b60206040518083038186803b15801561135257600080fd5b505afa158015611366573d6000803e3d6000fd5b505050506040513d601f19601f8201168201806040525081019061138a9190612d0f565b10156113cb576040517f08c379a00000000000000000000000000000000000000000000000000000000081526004016113c29061344f565b60405180910390fd5b8173ffffffffffffffffffffffffffffffffffffffff166323b872dd3330846040518463ffffffff1660e01b81526004016114089392919061320a565b602060405180830381600087803b15801561142257600080fd5b505af1158015611436573d6000803e3d6000fd5b505050506040513d601f19601f8201168201806040525081019061145a9190612c28565b508173ffffffffffffffffffffffffffffffffffffffff1663095ea7b3600560009054906101000a900473ffffffffffffffffffffffffffffffffffffffff16836040518363ffffffff1660e01b81526004016114b8929190613241565b602060405180830381600087803b1580156114d257600080fd5b505af11580156114e6573d6000803e3d6000fd5b505050506040513d601f19601f8201168201806040525081019061150a9190612c28565b50600560009054906101000a900473ffffffffffffffffffffffffffffffffffffffff1673ffffffffffffffffffffffffffffffffffffffff1663a7829ffa858560646040518463ffffffff1660e01b815260040161156b939291906133b1565b600060405180830381600087803b15801561158557600080fd5b505af1158015611599573d6000803e3d6000fd5b50505050600b60009054906101000a900473ffffffffffffffffffffffffffffffffffffffff1673ffffffffffffffffffffffffffffffffffffffff16638340f5493384846040518463ffffffff1660e01b81526004016115fc9392919061320a565b600060405180830381600087803b15801561161657600080fd5b505af115801561162a573d6000803e3d6000fd5b505050506116bd81600c60003373ffffffffffffffffffffffffffffffffffffffff1673ffffffffffffffffffffffffffffffffffffffff16815260200190815260200160002060008573ffffffffffffffffffffffffffffffffffffffff1673ffffffffffffffffffffffffffffffffffffffff168152602001908152602001600020546127f890919063ffffffff16565b600c60003373ffffffffffffffffffffffffffffffffffffffff1673ffffffffffffffffffffffffffffffffffffffff16815260200190815260200160002060008473ffffffffffffffffffffffffffffffffffffffff1673ffffffffffffffffffffffffffffffffffffffff1681526020019081526020016000208190555061178f81600d60008573ffffffffffffffffffffffffffffffffffffffff1673ffffffffffffffffffffffffffffffffffffffff168152602001908152602001600020546127f890919063ffffffff16565b600d60008473ffffffffffffffffffffffffffffffffffffffff1673ffffffffffffffffffffffffffffffffffffffff1681526020019081526020016000208190555050505050565b600a60205281600052604060002081815481106117f457600080fd5b90600052602060002001600091509150505481565b600c602052816000526040600020602052806000526040600020600091509150505481565b61183661276a565b73ffffffffffffffffffffffffffffffffffffffff1660008054906101000a900473ffffffffffffffffffffffffffffffffffffffff1673ffffffffffffffffffffffffffffffffffffffff16146118f6576040517f08c379a00000000000000000000000000000000000000000000000000000000081526004018080602001828103825260208152602001807f4f776e61626c653a2063616c6c6572206973206e6f7420746865206f776e657281525060200191505060405180910390fd5b600460009054906101000a900460ff1615611946576040517f08c379a000000000000000000000000000000000000000000000000000000000815260040161193d906134ef565b60405180910390fd5b80600560006101000a81548173ffffffffffffffffffffffffffffffffffffffff021916908373ffffffffffffffffffffffffffffffffffffffff1602179055507f181dccb510f27d9c2608cbef86fad60ab59d126bc8782ea2f21763607ec41739816040516119b691906131d4565b60405180910390a150565b60035481565b600d6020528060005260406000206000915090505481565b6000600160009054906101000a900473ffffffffffffffffffffffffffffffffffffffff1673ffffffffffffffffffffffffffffffffffffffff16630261bf8b6040518163ffffffff1660e01b815260040160206040518083038186803b158015611a4957600080fd5b505afa158015611a5d573d6000803e3d6000fd5b505050506040513d601f19601f82011682018060405250810190611a819190612b87565b90506000600284604051611a9591906131bd565b908152602001604051809103902060009054906101000a900473ffffffffffffffffffffffffffffffffffffffff169050600073ffffffffffffffffffffffffffffffffffffffff168173ffffffffffffffffffffffffffffffffffffffff161415611b36576040517f08c379a0000000000000000000000000000000000000000000000000000000008152600401611b2d906134af565b60405180910390fd5b8173ffffffffffffffffffffffffffffffffffffffff1663a415bcad828560016000600560009054906101000a900473ffffffffffffffffffffffffffffffffffffffff166040518663ffffffff1660e01b8152600401611b9b95949392919061326a565b600060405180830381600087803b158015611bb557600080fd5b505af1158015611bc9573d6000803e3d6000fd5b50505050611bd5612880565b7ffc30ec1bee3b4fb527f0d90b4bbbf5a24b72f0964679ff277df1895e8ad239578484604051611c06929190613381565b60405180910390a150505050565b5050565b600560009054906101000a900473ffffffffffffffffffffffffffffffffffffffff1673ffffffffffffffffffffffffffffffffffffffff163373ffffffffffffffffffffffffffffffffffffffff1614611ca8576040517f08c379a0000000000000000000000000000000000000000000000000000000008152600401611c9f906134cf565b60405180910390fd5b600460009054906101000a900460ff1615611cf8576040517f08c379a0000000000000000000000000000000000000000000000000000000008152600401611cef906134ef565b60405180910390fd5b600073ffffffffffffffffffffffffffffffffffffffff16600460029054906101000a900473ffffffffffffffffffffffffffffffffffffffff1673ffffffffffffffffffffffffffffffffffffffff161415611d8a576040517f08c379a0000000000000000000000000000000000000000000000000000000008152600401611d819061346f565b60405180910390fd5b806003819055506001600460006101000a81548160ff0219169083151502179055507fc72e55068a99063a2c847c0b87d2808f29d1935171e54ffa3a479533b4046b7481604051611ddb919061352f565b60405180910390a1600460029054906101000a900473ffffffffffffffffffffffffffffffffffffffff1673ffffffffffffffffffffffffffffffffffffffff1663d0e0ba956003546040518263ffffffff1660e01b8152600401611e40919061352f565b600060405180830381600087803b158015611e5a57600080fd5b505af1158015611e6e573d6000803e3d6000fd5b5050505050565b600b60009054906101000a900473ffffffffffffffffffffffffffffffffffffffff1681565b600460029054906101000a900473ffffffffffffffffffffffffffffffffffffffff1681565b600460029054906101000a900473ffffffffffffffffffffffffffffffffffffffff1673ffffffffffffffffffffffffffffffffffffffff16611f0261276a565b73ffffffffffffffffffffffffffffffffffffffff1614611f58576040517f08c379a0000000000000000000000000000000000000000000000000000000008152600401611f4f906133ef565b60405180910390fd5b600073ffffffffffffffffffffffffffffffffffffffff168173ffffffffffffffffffffffffffffffffffffffff161415611fc8576040517f08c379a0000000000000000000000000000000000000000000000000000000008152600401611fbf9061348f565b60405180910390fd5b600660009054906101000a900473ffffffffffffffffffffffffffffffffffffffff1673ffffffffffffffffffffffffffffffffffffffff166323b872dd61200e61276a565b3061202a670de0b6b3a76400008761277290919063ffffffff16565b6040518463ffffffff1660e01b81526004016120489392919061320a565b602060405180830381600087803b15801561206257600080fd5b505af1158015612076573d6000803e3d6000fd5b505050506040513d601f19601f8201168201806040525081019061209a9190612c28565b506000600660009054906101000a900473ffffffffffffffffffffffffffffffffffffffff1673ffffffffffffffffffffffffffffffffffffffff166370a08231306040518263ffffffff1660e01b81526004016120f891906131d4565b60206040518083038186803b15801561211057600080fd5b505afa158015612124573d6000803e3d6000fd5b505050506040513d601f19601f820116820180604052508101906121489190612d0f565b9050600a60008373ffffffffffffffffffffffffffffffffffffffff1673ffffffffffffffffffffffffffffffffffffffff1681526020019081526020016000206121a4670de0b6b3a76400008561277290919063ffffffff16565b90806001815401808255809150506001900390600052602060002001600090919091909150556121e060016007546127f890919063ffffffff16565b6007819055506121fb836008546127f890919063ffffffff16565b60088190555061221e670de0b6b3a7640000610f0061277290919063ffffffff16565b8110612435576000612255612246670de0b6b3a76400006107d061277290919063ffffffff16565b8361293890919063ffffffff16565b9050600560009054906101000a900473ffffffffffffffffffffffffffffffffffffffff1673ffffffffffffffffffffffffffffffffffffffff166305f9c5976003546040518263ffffffff1660e01b81526004016122b4919061352f565b600060405180830381600087803b1580156122ce57600080fd5b505af11580156122e2573d6000803e3d6000fd5b505050507f78cd33486287c682aa18f13badc425b37df2158a72b64ecfe2fa765f62c93430848460405161231792919061354a565b60405180910390a17facd3dbb848fad50d312987d285e88fdc140a8385c5c568117c79d1437d8be32e612348612487565b604051612355919061352f565b60405180910390a1600660009054906101000a900473ffffffffffffffffffffffffffffffffffffffff1673ffffffffffffffffffffffffffffffffffffffff1663a9059cbb600460029054906101000a900473ffffffffffffffffffffffffffffffffffffffff16836040518363ffffffff1660e01b81526004016123dc929190613241565b602060405180830381600087803b1580156123f657600080fd5b505af115801561240a573d6000803e3d6000fd5b505050506040513d601f19601f8201168201806040525081019061242e9190612c28565b505061246f565b7f78cd33486287c682aa18f13badc425b37df2158a72b64ecfe2fa765f62c93430838360405161246692919061354a565b60405180910390a15b505050565b6107d081565b6000600980549050905090565b6000600660009054906101000a900473ffffffffffffffffffffffffffffffffffffffff1673ffffffffffffffffffffffffffffffffffffffff166370a08231306040518263ffffffff1660e01b81526004016124e491906131d4565b60206040518083038186803b1580156124fc57600080fd5b505afa158015612510573d6000803e3d6000fd5b505050506040513d601f19601f820116820180604052508101906125349190612d0f565b905090565b61254161276a565b73ffffffffffffffffffffffffffffffffffffffff1660008054906101000a900473ffffffffffffffffffffffffffffffffffffffff1673ffffffffffffffffffffffffffffffffffffffff1614612601576040517f08c379a00000000000000000000000000000000000000000000000000000000081526004018080602001828103825260208152602001807f4f776e61626c653a2063616c6c6572206973206e6f7420746865206f776e657281525060200191505060405180910390fd5b600073ffffffffffffffffffffffffffffffffffffffff168173ffffffffffffffffffffffffffffffffffffffff161415612687576040517f08c379a000000000000000000000000000000000000000000000000000000000815260040180806020018281038252602681526020018061385a6026913960400191505060405180910390fd5b8073ffffffffffffffffffffffffffffffffffffffff1660008054906101000a900473ffffffffffffffffffffffffffffffffffffffff1673ffffffffffffffffffffffffffffffffffffffff167f8be0079c531659141344cd1fd0a4f28419497f9722a3daafe3b4186f6b6457e060405160405180910390a3806000806101000a81548173ffffffffffffffffffffffffffffffffffffffff021916908373ffffffffffffffffffffffffffffffffffffffff16021790555050565b600660009054906101000a900473ffffffffffffffffffffffffffffffffffffffff1681565b600033905090565b60008083141561278557600090506127f2565b600082840290508284828161279657fe5b04146127ed576040517f08c379a00000000000000000000000000000000000000000000000000000000081526004018080602001828103825260218152602001806138806021913960400191505060405180910390fd5b809150505b92915050565b600080828401905083811015612876576040517f08c379a000000000000000000000000000000000000000000000000000000000815260040180806020018281038252601b8152602001807f536166654d6174683a206164646974696f6e206f766572666c6f77000000000081525060200191505060405180910390fd5b8091505092915050565b60005b60098054905081101561291f57600a6000600983815481106128a157fe5b9060005260206000200160009054906101000a900473ffffffffffffffffffffffffffffffffffffffff1673ffffffffffffffffffffffffffffffffffffffff1673ffffffffffffffffffffffffffffffffffffffff16815260200190815260200160002060006129129190612a42565b8080600101915050612883565b506009600061292e9190612a63565b6000600781905550565b600061297a83836040518060400160405280601e81526020017f536166654d6174683a207375627472616374696f6e206f766572666c6f770000815250612982565b905092915050565b6000838311158290612a2f576040517f08c379a00000000000000000000000000000000000000000000000000000000081526004018080602001828103825283818151815260200191508051906020019080838360005b838110156129f45780820151818401526020810190506129d9565b50505050905090810190601f168015612a215780820380516001836020036101000a031916815260200191505b509250505060405180910390fd5b5060008385039050809150509392505050565b5080546000825590600052602060002090810190612a609190612a84565b50565b5080546000825590600052602060002090810190612a819190612a84565b50565b5b80821115612a9d576000816000905550600101612a85565b5090565b600081359050612ab081613814565b92915050565b600081519050612ac581613814565b92915050565b600081519050612ada8161382b565b92915050565b600082601f830112612af157600080fd5b8135612b04612aff826135a4565b613573565b91508082526020830160208301858383011115612b2057600080fd5b612b2b8382846137ab565b50505092915050565b600081359050612b4381613842565b92915050565b600081519050612b5881613842565b92915050565b600060208284031215612b7057600080fd5b6000612b7e84828501612aa1565b91505092915050565b600060208284031215612b9957600080fd5b6000612ba784828501612ab6565b91505092915050565b60008060408385031215612bc357600080fd5b6000612bd185828601612aa1565b9250506020612be285828601612aa1565b9150509250929050565b60008060408385031215612bff57600080fd5b6000612c0d85828601612aa1565b9250506020612c1e85828601612b34565b9150509250929050565b600060208284031215612c3a57600080fd5b6000612c4884828501612acb565b91505092915050565b600060208284031215612c6357600080fd5b600082013567ffffffffffffffff811115612c7d57600080fd5b612c8984828501612ae0565b91505092915050565b60008060408385031215612ca557600080fd5b600083013567ffffffffffffffff811115612cbf57600080fd5b612ccb85828601612ae0565b9250506020612cdc85828601612b34565b9150509250929050565b600060208284031215612cf857600080fd5b6000612d0684828501612b34565b91505092915050565b600060208284031215612d2157600080fd5b6000612d2f84828501612b49565b91505092915050565b60008060408385031215612d4b57600080fd5b6000612d5985828601612b34565b9250506020612d6a85828601612aa1565b9150509250929050565b6000612d80838361319f565b60208301905092915050565b612d958161369d565b82525050565b612da481613634565b82525050565b6000612db5826135e4565b612dbf8185613607565b9350612dca836135d4565b8060005b83811015612dfb578151612de28882612d74565b9750612ded836135fa565b925050600181019050612dce565b5085935050505092915050565b612e1181613646565b82525050565b612e20816136af565b82525050565b612e2f816136d3565b82525050565b612e3e816136f7565b82525050565b612e4d8161371b565b82525050565b612e5c8161373f565b82525050565b612e6b81613751565b82525050565b612e7a81613763565b82525050565b612e8981613775565b82525050565b6000612e9a826135ef565b612ea48185613618565b9350612eb48185602086016137ba565b612ebd816137ef565b840191505092915050565b6000612ed3826135ef565b612edd8185613629565b9350612eed8185602086016137ba565b80840191505092915050565b6000612f06602683613618565b91507f4769672063616e206f6e6c7920626520636f6d706c6574656420627920636f6d60008301527f6d756e69747900000000000000000000000000000000000000000000000000006020830152604082019050919050565b6000612f6c601383613618565b91507f74696d656c6f636b206e6f7420616374697665000000000000000000000000006000830152602082019050919050565b6000612fac600e83613618565b91507f616c7265616479206163746976650000000000000000000000000000000000006000830152602082019050919050565b6000612fec601483613618565b91507f6e6f7420656e6f756768206f776e2066756e64730000000000000000000000006000830152602082019050919050565b600061302c601483613618565b91507f636f6d6d756e697479206973206e6f74207365740000000000000000000000006000830152602082019050919050565b600061306c601883613618565b91507f6e6f2070726f6a65637420666f72206d696c6573746f6e6500000000000000006000830152602082019050919050565b60006130ac601683613618565b91507f63757272656e6379206e6f7420737570706f72746564000000000000000000006000830152602082019050919050565b60006130ec601c83613618565b91507f6f6e6c792074726561737572792064616f2063616e20736574206964000000006000830152602082019050919050565b600061312c601a83613618565b91507f747265617375727920697320616c7265616479206c696e6b65640000000000006000830152602082019050919050565b600061316c600783613618565b91507f6e6f7420736574000000000000000000000000000000000000000000000000006000830152602082019050919050565b6131a881613693565b82525050565b6131b781613693565b82525050565b60006131c98284612ec8565b915081905092915050565b60006020820190506131e96000830184612d9b565b92915050565b60006020820190506132046000830184612d8c565b92915050565b600060608201905061321f6000830186612d8c565b61322c6020830185612d9b565b61323960408301846131ae565b949350505050565b60006040820190506132566000830185612d9b565b61326360208301846131ae565b9392505050565b600060a08201905061327f6000830188612d9b565b61328c60208301876131ae565b6132996040830186612e80565b6132a66060830185612e62565b6132b36080830184612d9b565b9695505050505050565b600060208201905081810360008301526132d78184612daa565b905092915050565b60006020820190506132f46000830184612e08565b92915050565b600060208201905061330f6000830184612e17565b92915050565b600060208201905061332a6000830184612e26565b92915050565b60006020820190506133456000830184612e35565b92915050565b60006020820190506133606000830184612e44565b92915050565b600060208201905061337b6000830184612e53565b92915050565b6000604082019050818103600083015261339b8185612e8f565b90506133aa60208301846131ae565b9392505050565b600060608201905081810360008301526133cb8186612e8f565b90506133da60208301856131ae565b6133e76040830184612e71565b949350505050565b6000602082019050818103600083015261340881612ef9565b9050919050565b6000602082019050818103600083015261342881612f5f565b9050919050565b6000602082019050818103600083015261344881612f9f565b9050919050565b6000602082019050818103600083015261346881612fdf565b9050919050565b600060208201905081810360008301526134888161301f565b9050919050565b600060208201905081810360008301526134a88161305f565b9050919050565b600060208201905081810360008301526134c88161309f565b9050919050565b600060208201905081810360008301526134e8816130df565b9050919050565b600060208201905081810360008301526135088161311f565b9050919050565b600060208201905081810360008301526135288161315f565b9050919050565b600060208201905061354460008301846131ae565b92915050565b600060408201905061355f60008301856131ae565b61356c6020830184612d9b565b9392505050565b6000604051905081810181811067ffffffffffffffff8211171561359a576135996137ed565b5b8060405250919050565b600067ffffffffffffffff8211156135bf576135be6137ed565b5b601f19601f8301169050602081019050919050565b6000819050602082019050919050565b600081519050919050565b600081519050919050565b6000602082019050919050565b600082825260208201905092915050565b600082825260208201905092915050565b600081905092915050565b600061363f82613673565b9050919050565b60008115159050919050565b600081905061366082613800565b919050565b600061ffff82169050919050565b600073ffffffffffffffffffffffffffffffffffffffff82169050919050565b6000819050919050565b60006136a882613787565b9050919050565b60006136ba826136c1565b9050919050565b60006136cc82613673565b9050919050565b60006136de826136e5565b9050919050565b60006136f082613673565b9050919050565b600061370282613709565b9050919050565b600061371482613673565b9050919050565b60006137268261372d565b9050919050565b600061373882613673565b9050919050565b600061374a82613652565b9050919050565b600061375c82613665565b9050919050565b600061376e82613693565b9050919050565b600061378082613693565b9050919050565b600061379282613799565b9050919050565b60006137a482613673565b9050919050565b82818337600083830152505050565b60005b838110156137d85780820151818401526020810190506137bd565b838111156137e7576000848401525b50505050565bfe5b6000601f19601f8301169050919050565b60038110613811576138106137ed565b5b50565b61381d81613634565b811461382857600080fd5b50565b61383481613646565b811461383f57600080fd5b50565b61384b81613693565b811461385657600080fd5b5056fe4f776e61626c653a206e6577206f776e657220697320746865207a65726f2061646472657373536166654d6174683a206d756c7469706c69636174696f6e206f766572666c6f77a26469706673582212203d546aada7fa695997c57cf64d3bdea18feb77fdd240922e5454179d6484783c64736f6c63430007040033536166654d6174683a206d756c7469706c69636174696f6e206f766572666c6f77",
  "linkReferences": {},
  "deployedLinkReferences": {}
}