{
  "_format": "hh-sol-artifact-1",
  "contractName": "Community",
  "sourceName": "contracts/Community.sol",
  "abi": [
    {
      "inputs": [
        {
          "internalType": "enum DataTypes.CommunityTemplate",
          "name": "_template",
          "type": "uint8"
        },
        {
          "internalType": "address",
          "name": "_dai",
          "type": "address"
        },
        {
          "internalType": "address",
          "name": "_usdc",
          "type": "address"
        },
        {
          "internalType": "address",
          "name": "_lendingPoolAP",
          "type": "address"
        },
        {
          "internalType": "address",
          "name": "_forwarder",
          "type": "address"
        }
      ],
      "stateMutability": "nonpayable",
      "type": "constructor"
    },
    {
      "anonymous": false,
      "inputs": [
        {
          "indexed": false,
          "internalType": "address",
          "name": "_registry",
          "type": "address"
        }
      ],
      "name": "GigRegistrySet",
      "type": "event"
    },
    {
      "anonymous": false,
      "inputs": [
        {
          "indexed": false,
          "internalType": "uint256",
          "name": "_id",
          "type": "uint256"
        }
      ],
      "name": "IdSet",
      "type": "event"
    },
    {
      "anonymous": false,
      "inputs": [
        {
          "indexed": false,
          "internalType": "address",
          "name": "_member",
          "type": "address"
        },
        {
          "indexed": false,
          "internalType": "uint256",
          "name": "_transferredTokens",
          "type": "uint256"
        }
      ],
      "name": "MemberAdded",
      "type": "event"
    },
    {
      "anonymous": false,
      "inputs": [
        {
          "indexed": false,
          "internalType": "address",
          "name": "_member",
          "type": "address"
        }
      ],
      "name": "MemberRemoved",
      "type": "event"
    },
    {
      "anonymous": false,
      "inputs": [
        {
          "indexed": true,
          "internalType": "address",
          "name": "previousOwner",
          "type": "address"
        },
        {
          "indexed": true,
          "internalType": "address",
          "name": "newOwner",
          "type": "address"
        }
      ],
      "name": "OwnershipTransferred",
      "type": "event"
    },
    {
      "anonymous": false,
      "inputs": [
        {
          "indexed": false,
          "internalType": "address",
          "name": "_treasury",
          "type": "address"
        }
      ],
      "name": "TreasurySet",
      "type": "event"
    },
    {
      "inputs": [],
      "name": "INIT_TOKENS",
      "outputs": [
        {
          "internalType": "uint256",
          "name": "",
          "type": "uint256"
        }
      ],
      "stateMutability": "view",
      "type": "function"
    },
    {
      "inputs": [],
      "name": "activateTreasuryTimelock",
      "outputs": [],
      "stateMutability": "nonpayable",
      "type": "function"
    },
    {
      "inputs": [],
      "name": "communityTreasury",
      "outputs": [
        {
          "internalType": "contract CommunityTreasury",
          "name": "",
          "type": "address"
        }
      ],
      "stateMutability": "view",
      "type": "function"
    },
    {
      "inputs": [
        {
          "internalType": "uint256",
          "name": "_amount",
          "type": "uint256"
        },
        {
          "internalType": "address",
          "name": "_project",
          "type": "address"
        }
      ],
      "name": "completeGig",
      "outputs": [],
      "stateMutability": "nonpayable",
      "type": "function"
    },
    {
      "inputs": [
        {
          "internalType": "uint256",
          "name": "",
          "type": "uint256"
        }
      ],
      "name": "depositableCurrencies",
      "outputs": [
        {
          "internalType": "string",
          "name": "",
          "type": "string"
        }
      ],
      "stateMutability": "view",
      "type": "function"
    },
    {
      "inputs": [
        {
          "internalType": "string",
          "name": "",
          "type": "string"
        }
      ],
      "name": "depositableCurrenciesContracts",
      "outputs": [
        {
          "internalType": "address",
          "name": "",
          "type": "address"
        }
      ],
      "stateMutability": "view",
      "type": "function"
    },
    {
      "inputs": [
        {
          "internalType": "address",
          "name": "",
          "type": "address"
        }
      ],
      "name": "enabledMembers",
      "outputs": [
        {
          "internalType": "bool",
          "name": "",
          "type": "bool"
        }
      ],
      "stateMutability": "view",
      "type": "function"
    },
    {
      "inputs": [],
      "name": "gigsRegistry",
      "outputs": [
        {
          "internalType": "contract GigsRegistry",
          "name": "",
          "type": "address"
        }
      ],
      "stateMutability": "view",
      "type": "function"
    },
    {
      "inputs": [],
      "name": "id",
      "outputs": [
        {
          "internalType": "uint256",
          "name": "",
          "type": "uint256"
        }
      ],
      "stateMutability": "view",
      "type": "function"
    },
    {
      "inputs": [
        {
          "internalType": "address",
          "name": "forwarder",
          "type": "address"
        }
      ],
      "name": "isTrustedForwarder",
      "outputs": [
        {
          "internalType": "bool",
          "name": "",
          "type": "bool"
        }
      ],
      "stateMutability": "view",
      "type": "function"
    },
    {
      "inputs": [
        {
          "internalType": "uint256",
          "name": "_amountOfDITOToRedeem",
          "type": "uint256"
        }
      ],
      "name": "join",
      "outputs": [],
      "stateMutability": "nonpayable",
      "type": "function"
    },
    {
      "inputs": [],
      "name": "leave",
      "outputs": [],
      "stateMutability": "nonpayable",
      "type": "function"
    },
    {
      "inputs": [],
      "name": "lendingPoolAP",
      "outputs": [
        {
          "internalType": "contract ILendingPoolAddressesProvider",
          "name": "",
          "type": "address"
        }
      ],
      "stateMutability": "view",
      "type": "function"
    },
    {
      "inputs": [],
      "name": "numberOfMembers",
      "outputs": [
        {
          "internalType": "uint256",
          "name": "",
          "type": "uint256"
        }
      ],
      "stateMutability": "view",
      "type": "function"
    },
    {
      "inputs": [],
      "name": "owner",
      "outputs": [
        {
          "internalType": "address",
          "name": "",
          "type": "address"
        }
      ],
      "stateMutability": "view",
      "type": "function"
    },
    {
      "inputs": [],
      "name": "renounceOwnership",
      "outputs": [],
      "stateMutability": "nonpayable",
      "type": "function"
    },
    {
      "inputs": [
        {
          "internalType": "address",
          "name": "_gigRegistry",
          "type": "address"
        }
      ],
      "name": "setGigsRegistry",
      "outputs": [],
      "stateMutability": "nonpayable",
      "type": "function"
    },
    {
      "inputs": [
        {
          "internalType": "uint256",
          "name": "_id",
          "type": "uint256"
        }
      ],
      "name": "setId",
      "outputs": [],
      "stateMutability": "nonpayable",
      "type": "function"
    },
    {
      "inputs": [
        {
          "internalType": "address",
          "name": "_dao",
          "type": "address"
        }
      ],
      "name": "setTreasuryDAO",
      "outputs": [],
      "stateMutability": "nonpayable",
      "type": "function"
    },
    {
      "inputs": [],
      "name": "template",
      "outputs": [
        {
          "internalType": "enum DataTypes.CommunityTemplate",
          "name": "",
          "type": "uint8"
        }
      ],
      "stateMutability": "view",
      "type": "function"
    },
    {
      "inputs": [],
      "name": "tokens",
      "outputs": [
        {
          "internalType": "contract DITOToken",
          "name": "",
          "type": "address"
        }
      ],
      "stateMutability": "view",
      "type": "function"
    },
    {
      "inputs": [
        {
          "internalType": "address",
          "name": "newOwner",
          "type": "address"
        }
      ],
      "name": "transferOwnership",
      "outputs": [],
      "stateMutability": "nonpayable",
      "type": "function"
    },
    {
      "inputs": [],
      "name": "trustedForwarder",
      "outputs": [
        {
          "internalType": "address",
          "name": "",
          "type": "address"
        }
      ],
      "stateMutability": "view",
      "type": "function"
    },
    {
      "inputs": [],
      "name": "versionRecipient",
      "outputs": [
        {
          "internalType": "string",
          "name": "",
          "type": "string"
        }
      ],
      "stateMutability": "view",
      "type": "function"
    }
  ],
  "bytecode": "0x60806040526040518060400160405280600581526020017f322e302e30000000000000000000000000000000000000000000000000000000815250600290805190602001906200005192919062000b11565b503480156200005f57600080fd5b506040516200a2b53803806200a2b5833981810160405281019062000085919062000c54565b600062000097620005a860201b60201c565b905080600160006101000a81548173ffffffffffffffffffffffffffffffffffffffff021916908373ffffffffffffffffffffffffffffffffffffffff1602179055508073ffffffffffffffffffffffffffffffffffffffff16600073ffffffffffffffffffffffffffffffffffffffff167f8be0079c531659141344cd1fd0a4f28419497f9722a3daafe3b4186f6b6457e060405160405180910390a3506000600560006101000a81548160ff02191690831515021790555084600560016101000a81548160ff021916908360028111156200017057fe5b0217905550806000806101000a81548173ffffffffffffffffffffffffffffffffffffffff021916908373ffffffffffffffffffffffffffffffffffffffff16021790555081600c60006101000a81548173ffffffffffffffffffffffffffffffffffffffff021916908373ffffffffffffffffffffffffffffffffffffffff1602179055506200021b670de0b6b3a764000062017700620005c460201b6200140a1790919060201c565b604051620002299062000ba8565b62000235919062000fd0565b604051809103906000f08015801562000252573d6000803e3d6000fd5b50600360006101000a81548173ffffffffffffffffffffffffffffffffffffffff021916908373ffffffffffffffffffffffffffffffffffffffff160217905550600560019054906101000a900460ff16600360009054906101000a900473ffffffffffffffffffffffffffffffffffffffff1633868686604051620002d89062000bb6565b620002e99695949392919062000efd565b604051809103906000f08015801562000306573d6000803e3d6000fd5b50600a60006101000a81548173ffffffffffffffffffffffffffffffffffffffff021916908373ffffffffffffffffffffffffffffffffffffffff1602179055506200037f600a60009054906101000a900473ffffffffffffffffffffffffffffffffffffffff166107d060016200064f60201b60201c565b600a60009054906101000a900473ffffffffffffffffffffffffffffffffffffffff1673ffffffffffffffffffffffffffffffffffffffff166346f98fec6040518163ffffffff1660e01b8152600401600060405180830381600087803b158015620003ea57600080fd5b505af1158015620003ff573d6000803e3d6000fd5b50505050600980600181540180825580915050600190039060005260206000200160006040518060400160405280600381526020017f4441490000000000000000000000000000000000000000000000000000000000815250909190915090805190602001906200047292919062000b11565b50600980600181540180825580915050600190039060005260206000200160006040518060400160405280600481526020017f555344430000000000000000000000000000000000000000000000000000000081525090919091509080519060200190620004e292919062000b11565b50836008604051620004f49062000e75565b908152602001604051809103902060006101000a81548173ffffffffffffffffffffffffffffffffffffffff021916908373ffffffffffffffffffffffffffffffffffffffff160217905550826008604051620005519062000e8c565b908152602001604051809103902060006101000a81548173ffffffffffffffffffffffffffffffffffffffff021916908373ffffffffffffffffffffffffffffffffffffffff160217905550505050505062001116565b6000620005bf620009e760201b620014901760201c565b905090565b600080831415620005d9576000905062000649565b6000828402905082848281620005eb57fe5b041462000644576040517f08c379a00000000000000000000000000000000000000000000000000000000081526004018080602001828103825260218152602001806200a2946021913960400191505060405180910390fd5b809150505b92915050565b600073ffffffffffffffffffffffffffffffffffffffff16600a60009054906101000a900473ffffffffffffffffffffffffffffffffffffffff1673ffffffffffffffffffffffffffffffffffffffff161415620006e4576040517f08c379a0000000000000000000000000000000000000000000000000000000008152600401620006db9062000f6a565b60405180910390fd5b6019600754106200072c576040517f08c379a0000000000000000000000000000000000000000000000000000000008152600401620007239062000fae565b60405180910390fd5b60001515600660008573ffffffffffffffffffffffffffffffffffffffff1673ffffffffffffffffffffffffffffffffffffffff16815260200190815260200160002060009054906101000a900460ff16151514620007c2576040517f08c379a0000000000000000000000000000000000000000000000000000000008152600401620007b99062000f8c565b60405180910390fd5b6001600660008573ffffffffffffffffffffffffffffffffffffffff1673ffffffffffffffffffffffffffffffffffffffff16815260200190815260200160002060006101000a81548160ff02191690831515021790555062000837600160075462000a2f60201b620014cc1790919060201c565b600781905550600360009054906101000a900473ffffffffffffffffffffffffffffffffffffffff1673ffffffffffffffffffffffffffffffffffffffff1663bc93233f84836040518363ffffffff1660e01b81526004016200089c92919062000ea3565b600060405180830381600087803b158015620008b757600080fd5b505af1158015620008cc573d6000803e3d6000fd5b50505050600360009054906101000a900473ffffffffffffffffffffffffffffffffffffffff1673ffffffffffffffffffffffffffffffffffffffff1663a9059cbb8462000931670de0b6b3a764000086620005c460201b6200140a1790919060201c565b6040518363ffffffff1660e01b81526004016200095092919062000ed0565b602060405180830381600087803b1580156200096b57600080fd5b505af115801562000980573d6000803e3d6000fd5b505050506040513d601f19601f82011682018060405250810190620009a6919062000c28565b507fede8eed4383e9241982619b94dd83e488b274cced0fd07b8c0092a393defd52f8383604051620009da92919062000ed0565b60405180910390a1505050565b6000601860003690501015801562000a0c575062000a0b3362000ab860201b60201c565b5b1562000a2257601436033560601c905062000a2b565b33905062000a2c565b5b90565b60008082840190508381101562000aae576040517f08c379a000000000000000000000000000000000000000000000000000000000815260040180806020018281038252601b8152602001807f536166654d6174683a206164646974696f6e206f766572666c6f77000000000081525060200191505060405180910390fd5b8091505092915050565b60008060009054906101000a900473ffffffffffffffffffffffffffffffffffffffff1673ffffffffffffffffffffffffffffffffffffffff168273ffffffffffffffffffffffffffffffffffffffff16149050919050565b828054600181600116156101000203166002900490600052602060002090601f01602090048101928262000b49576000855562000b95565b82601f1062000b6457805160ff191683800117855562000b95565b8280016001018555821562000b95579182015b8281111562000b9457825182559160200191906001019062000b77565b5b50905062000ba4919062000bc4565b5090565b612a9080620038aa83390190565b613f5a806200633a83390190565b5b8082111562000bdf57600081600090555060010162000bc5565b5090565b60008151905062000bf481620010d1565b92915050565b60008151905062000c0b81620010eb565b92915050565b60008151905062000c228162001105565b92915050565b60006020828403121562000c3b57600080fd5b600062000c4b8482850162000bfa565b91505092915050565b600080600080600060a0868803121562000c6d57600080fd5b600062000c7d8882890162000c11565b955050602062000c908882890162000be3565b945050604062000ca38882890162000be3565b935050606062000cb68882890162000be3565b925050608062000cc98882890162000be3565b9150509295509295909350565b62000ce18162001068565b82525050565b62000cf28162001009565b82525050565b62000d03816200101d565b82525050565b62000d14816200107c565b82525050565b600062000d2960108362000fed565b91507f7472656173757279206e6f7420736574000000000000000000000000000000006000830152602082019050919050565b600062000d6b600e8362000fed565b91507f616c7265616479206d656d6265720000000000000000000000000000000000006000830152602082019050919050565b600062000dad60038362000ffe565b91507f44414900000000000000000000000000000000000000000000000000000000006000830152600382019050919050565b600062000def600e8362000fed565b91507f636f6d6d756e6974792066756c6c0000000000000000000000000000000000006000830152602082019050919050565b600062000e3160048362000ffe565b91507f55534443000000000000000000000000000000000000000000000000000000006000830152600482019050919050565b62000e6f816200105e565b82525050565b600062000e828262000d9e565b9150819050919050565b600062000e998262000e22565b9150819050919050565b600060408201905062000eba600083018562000ce7565b62000ec9602083018462000cf8565b9392505050565b600060408201905062000ee7600083018562000ce7565b62000ef6602083018462000e64565b9392505050565b600060c08201905062000f14600083018962000d09565b62000f23602083018862000ce7565b62000f32604083018762000cd6565b62000f41606083018662000ce7565b62000f50608083018562000ce7565b62000f5f60a083018462000ce7565b979650505050505050565b6000602082019050818103600083015262000f858162000d1a565b9050919050565b6000602082019050818103600083015262000fa78162000d5c565b9050919050565b6000602082019050818103600083015262000fc98162000de0565b9050919050565b600060208201905062000fe7600083018462000e64565b92915050565b600082825260208201905092915050565b600081905092915050565b600062001016826200103e565b9050919050565b60008115159050919050565b60008190506200103982620010ba565b919050565b600073ffffffffffffffffffffffffffffffffffffffff82169050919050565b6000819050919050565b6000620010758262001090565b9050919050565b6000620010898262001029565b9050919050565b60006200109d82620010a4565b9050919050565b6000620010b1826200103e565b9050919050565bfe5b60038110620010ce57620010cd620010b8565b5b50565b620010dc8162001009565b8114620010e857600080fd5b50565b620010f6816200101d565b81146200110257600080fd5b50565b600381106200111357600080fd5b50565b61278480620011266000396000f3fe608060405234801561001057600080fd5b50600436106101585760003560e01c80637daea392116100c3578063af640d0f1161007c578063af640d0f14610381578063bc910cf91461039f578063cecfd170146103bb578063d0e0ba95146103eb578063d66d9e1914610407578063f2fde38b1461041157610158565b80637daea392146102d15780638da5cb5b146102ed5780639250640d1461030b5780639d63848a14610329578063a30e3fa914610347578063a46eddcf1461036557610158565b806358c12dbe1161011557806358c12dbe146102335780636f2ddd9314610251578063715018a61461026f5780637387b63514610279578063770ac141146102a95780637da0a877146102b357610158565b8063049878f31461015d5780633705abf11461017957806339327e9e146101a957806343086f0d146101c7578063486ff0cd146101e5578063572b6c0514610203575b600080fd5b61017760048036038101906101729190611e94565b61042d565b005b610193600480360381019061018e9190611e53565b610443565b6040516101a09190612213565b60405180910390f35b6101b161048c565b6040516101be9190612323565b60405180910390f35b6101cf6104b2565b6040516101dc9190612308565b60405180910390f35b6101ed6104d8565b6040516101fa9190612359565b60405180910390f35b61021d60048036038101906102189190611dd8565b610576565b60405161022a91906122b7565b60405180910390f35b61023b6105cf565b60405161024891906122d2565b60405180910390f35b6102596105f5565b604051610266919061233e565b60405180910390f35b610277610608565b005b610293600480360381019061028e9190611e94565b610793565b6040516102a09190612359565b60405180910390f35b6102b161084f565b005b6102bb61099d565b6040516102c89190612213565b60405180910390f35b6102eb60048036038101906102e69190611dd8565b6109c1565b005b6102f5610c82565b6040516103029190612213565b60405180910390f35b610313610cac565b604051610320919061249b565b60405180910390f35b610331610cb3565b60405161033e91906122ed565b60405180910390f35b61034f610cd9565b60405161035c919061249b565b60405180910390f35b61037f600480360381019061037a9190611dd8565b610cdf565b005b610389610e39565b604051610396919061249b565b60405180910390f35b6103b960048036038101906103b49190611ee6565b610e3f565b005b6103d560048036038101906103d09190611dd8565b61108a565b6040516103e291906122b7565b60405180910390f35b61040560048036038101906104009190611e94565b6110aa565b005b61040f6111e6565b005b61042b60048036038101906104269190611dd8565b6111fa565b005b610440610438611554565b826000611563565b50565b6008818051602081018201805184825260208301602085012081835280955050505050506000915054906101000a900473ffffffffffffffffffffffffffffffffffffffff1681565b600c60009054906101000a900473ffffffffffffffffffffffffffffffffffffffff1681565b600b60009054906101000a900473ffffffffffffffffffffffffffffffffffffffff1681565b60028054600181600116156101000203166002900480601f01602080910402602001604051908101604052809291908181526020018280546001816001161561010002031660029004801561056e5780601f106105435761010080835404028352916020019161056e565b820191906000526020600020905b81548152906001019060200180831161055157829003601f168201915b505050505081565b60008060009054906101000a900473ffffffffffffffffffffffffffffffffffffffff1673ffffffffffffffffffffffffffffffffffffffff168273ffffffffffffffffffffffffffffffffffffffff16149050919050565b600a60009054906101000a900473ffffffffffffffffffffffffffffffffffffffff1681565b600560019054906101000a900460ff1681565b610610611554565b73ffffffffffffffffffffffffffffffffffffffff16600160009054906101000a900473ffffffffffffffffffffffffffffffffffffffff1673ffffffffffffffffffffffffffffffffffffffff16146106d2576040517f08c379a00000000000000000000000000000000000000000000000000000000081526004018080602001828103825260208152602001807f4f776e61626c653a2063616c6c6572206973206e6f7420746865206f776e657281525060200191505060405180910390fd5b600073ffffffffffffffffffffffffffffffffffffffff16600160009054906101000a900473ffffffffffffffffffffffffffffffffffffffff1673ffffffffffffffffffffffffffffffffffffffff167f8be0079c531659141344cd1fd0a4f28419497f9722a3daafe3b4186f6b6457e060405160405180910390a36000600160006101000a81548173ffffffffffffffffffffffffffffffffffffffff021916908373ffffffffffffffffffffffffffffffffffffffff160217905550565b600981815481106107a357600080fd5b906000526020600020016000915090508054600181600116156101000203166002900480601f0160208091040260200160405190810160405280929190818152602001828054600181600116156101000203166002900480156108475780601f1061081c57610100808354040283529160200191610847565b820191906000526020600020905b81548152906001019060200180831161082a57829003601f168201915b505050505081565b610857611554565b73ffffffffffffffffffffffffffffffffffffffff16600160009054906101000a900473ffffffffffffffffffffffffffffffffffffffff1673ffffffffffffffffffffffffffffffffffffffff1614610919576040517f08c379a00000000000000000000000000000000000000000000000000000000081526004018080602001828103825260208152602001807f4f776e61626c653a2063616c6c6572206973206e6f7420746865206f776e657281525060200191505060405180910390fd5b600a60009054906101000a900473ffffffffffffffffffffffffffffffffffffffff1673ffffffffffffffffffffffffffffffffffffffff166363a5d2986040518163ffffffff1660e01b8152600401600060405180830381600087803b15801561098357600080fd5b505af1158015610997573d6000803e3d6000fd5b50505050565b60008054906101000a900473ffffffffffffffffffffffffffffffffffffffff1681565b6109c9611554565b73ffffffffffffffffffffffffffffffffffffffff16600160009054906101000a900473ffffffffffffffffffffffffffffffffffffffff1673ffffffffffffffffffffffffffffffffffffffff1614610a8b576040517f08c379a00000000000000000000000000000000000000000000000000000000081526004018080602001828103825260208152602001807f4f776e61626c653a2063616c6c6572206973206e6f7420746865206f776e657281525060200191505060405180910390fd5b600073ffffffffffffffffffffffffffffffffffffffff16600b60009054906101000a900473ffffffffffffffffffffffffffffffffffffffff1673ffffffffffffffffffffffffffffffffffffffff1614610b1c576040517f08c379a0000000000000000000000000000000000000000000000000000000008152600401610b13906123db565b60405180910390fd5b3073ffffffffffffffffffffffffffffffffffffffff168173ffffffffffffffffffffffffffffffffffffffff1663dc1fb5a56040518163ffffffff1660e01b815260040160206040518083038186803b158015610b7957600080fd5b505afa158015610b8d573d6000803e3d6000fd5b505050506040513d601f19601f82011682018060405250810190610bb19190611e01565b73ffffffffffffffffffffffffffffffffffffffff1614610c07576040517f08c379a0000000000000000000000000000000000000000000000000000000008152600401610bfe9061243b565b60405180910390fd5b80600b60006101000a81548173ffffffffffffffffffffffffffffffffffffffff021916908373ffffffffffffffffffffffffffffffffffffffff1602179055507f5667c8bc14c2967d781cf0b551c676f0dc04474723d2d8175083e25bd638fecd81604051610c779190612213565b60405180910390a150565b6000600160009054906101000a900473ffffffffffffffffffffffffffffffffffffffff16905090565b6201770081565b600360009054906101000a900473ffffffffffffffffffffffffffffffffffffffff1681565b60075481565b610ce7611554565b73ffffffffffffffffffffffffffffffffffffffff16600160009054906101000a900473ffffffffffffffffffffffffffffffffffffffff1673ffffffffffffffffffffffffffffffffffffffff1614610da9576040517f08c379a00000000000000000000000000000000000000000000000000000000081526004018080602001828103825260208152602001807f4f776e61626c653a2063616c6c6572206973206e6f7420746865206f776e657281525060200191505060405180910390fd5b600a60009054906101000a900473ffffffffffffffffffffffffffffffffffffffff1673ffffffffffffffffffffffffffffffffffffffff1663a46eddcf826040518263ffffffff1660e01b8152600401610e049190612213565b600060405180830381600087803b158015610e1e57600080fd5b505af1158015610e32573d6000803e3d6000fd5b5050505050565b60045481565b600b60009054906101000a900473ffffffffffffffffffffffffffffffffffffffff1673ffffffffffffffffffffffffffffffffffffffff16610e80611554565b73ffffffffffffffffffffffffffffffffffffffff1614610ed6576040517f08c379a0000000000000000000000000000000000000000000000000000000008152600401610ecd9061245b565b60405180910390fd5b600073ffffffffffffffffffffffffffffffffffffffff168173ffffffffffffffffffffffffffffffffffffffff161461108657600360009054906101000a900473ffffffffffffffffffffffffffffffffffffffff1673ffffffffffffffffffffffffffffffffffffffff1663095ea7b3600a60009054906101000a900473ffffffffffffffffffffffffffffffffffffffff16610f86670de0b6b3a76400008661140a90919063ffffffff16565b6040518363ffffffff1660e01b8152600401610fa392919061228e565b602060405180830381600087803b158015610fbd57600080fd5b505af1158015610fd1573d6000803e3d6000fd5b505050506040513d601f19601f82011682018060405250810190610ff59190611e2a565b50600a60009054906101000a900473ffffffffffffffffffffffffffffffffffffffff1673ffffffffffffffffffffffffffffffffffffffff1663e377672e83836040518363ffffffff1660e01b81526004016110539291906124b6565b600060405180830381600087803b15801561106d57600080fd5b505af1158015611081573d6000803e3d6000fd5b505050505b5050565b60066020528060005260406000206000915054906101000a900460ff1681565b600a60009054906101000a900473ffffffffffffffffffffffffffffffffffffffff1673ffffffffffffffffffffffffffffffffffffffff163373ffffffffffffffffffffffffffffffffffffffff161461113a576040517f08c379a00000000000000000000000000000000000000000000000000000000081526004016111319061237b565b60405180910390fd5b600560009054906101000a900460ff161561118a576040517f08c379a00000000000000000000000000000000000000000000000000000000081526004016111819061247b565b60405180910390fd5b806004819055506001600560006101000a81548160ff0219169083151502179055507fc72e55068a99063a2c847c0b87d2808f29d1935171e54ffa3a479533b4046b74816040516111db919061249b565b60405180910390a150565b6111f86111f1611554565b60006118d8565b565b611202611554565b73ffffffffffffffffffffffffffffffffffffffff16600160009054906101000a900473ffffffffffffffffffffffffffffffffffffffff1673ffffffffffffffffffffffffffffffffffffffff16146112c4576040517f08c379a00000000000000000000000000000000000000000000000000000000081526004018080602001828103825260208152602001807f4f776e61626c653a2063616c6c6572206973206e6f7420746865206f776e657281525060200191505060405180910390fd5b600073ffffffffffffffffffffffffffffffffffffffff168173ffffffffffffffffffffffffffffffffffffffff16141561134a576040517f08c379a00000000000000000000000000000000000000000000000000000000081526004018080602001828103825260268152602001806127086026913960400191505060405180910390fd5b8073ffffffffffffffffffffffffffffffffffffffff16600160009054906101000a900473ffffffffffffffffffffffffffffffffffffffff1673ffffffffffffffffffffffffffffffffffffffff167f8be0079c531659141344cd1fd0a4f28419497f9722a3daafe3b4186f6b6457e060405160405180910390a380600160006101000a81548173ffffffffffffffffffffffffffffffffffffffff021916908373ffffffffffffffffffffffffffffffffffffffff16021790555050565b60008083141561141d576000905061148a565b600082840290508284828161142e57fe5b0414611485576040517f08c379a000000000000000000000000000000000000000000000000000000000815260040180806020018281038252602181526020018061272e6021913960400191505060405180910390fd5b809150505b92915050565b600060186000369050101580156114ac57506114ab33610576565b5b156114c057601436033560601c90506114c8565b3390506114c9565b5b90565b60008082840190508381101561154a576040517f08c379a000000000000000000000000000000000000000000000000000000000815260040180806020018281038252601b8152602001807f536166654d6174683a206164646974696f6e206f766572666c6f77000000000081525060200191505060405180910390fd5b8091505092915050565b600061155e611490565b905090565b600073ffffffffffffffffffffffffffffffffffffffff16600a60009054906101000a900473ffffffffffffffffffffffffffffffffffffffff1673ffffffffffffffffffffffffffffffffffffffff1614156115f5576040517f08c379a00000000000000000000000000000000000000000000000000000000081526004016115ec9061239b565b60405180910390fd5b60196007541061163a576040517f08c379a00000000000000000000000000000000000000000000000000000000081526004016116319061241b565b60405180910390fd5b60001515600660008573ffffffffffffffffffffffffffffffffffffffff1673ffffffffffffffffffffffffffffffffffffffff16815260200190815260200160002060009054906101000a900460ff161515146116cd576040517f08c379a00000000000000000000000000000000000000000000000000000000081526004016116c4906123fb565b60405180910390fd5b6001600660008573ffffffffffffffffffffffffffffffffffffffff1673ffffffffffffffffffffffffffffffffffffffff16815260200190815260200160002060006101000a81548160ff02191690831515021790555061173b60016007546114cc90919063ffffffff16565b600781905550600360009054906101000a900473ffffffffffffffffffffffffffffffffffffffff1673ffffffffffffffffffffffffffffffffffffffff1663bc93233f84836040518363ffffffff1660e01b815260040161179e929190612265565b600060405180830381600087803b1580156117b857600080fd5b505af11580156117cc573d6000803e3d6000fd5b50505050600360009054906101000a900473ffffffffffffffffffffffffffffffffffffffff1673ffffffffffffffffffffffffffffffffffffffff1663a9059cbb8461182a670de0b6b3a76400008661140a90919063ffffffff16565b6040518363ffffffff1660e01b815260040161184792919061228e565b602060405180830381600087803b15801561186157600080fd5b505af1158015611875573d6000803e3d6000fd5b505050506040513d601f19601f820116820180604052508101906118999190611e2a565b507fede8eed4383e9241982619b94dd83e488b274cced0fd07b8c0092a393defd52f83836040516118cb92919061228e565b60405180910390a1505050565b6118e182611b7b565b6000600660008473ffffffffffffffffffffffffffffffffffffffff1673ffffffffffffffffffffffffffffffffffffffff16815260200190815260200160002060006101000a81548160ff02191690831515021790555061194f6001600754611c1190919063ffffffff16565b600781905550600360009054906101000a900473ffffffffffffffffffffffffffffffffffffffff1673ffffffffffffffffffffffffffffffffffffffff166323b872dd8330600360009054906101000a900473ffffffffffffffffffffffffffffffffffffffff1673ffffffffffffffffffffffffffffffffffffffff166370a08231876040518263ffffffff1660e01b81526004016119f09190612213565b60206040518083038186803b158015611a0857600080fd5b505afa158015611a1c573d6000803e3d6000fd5b505050506040513d601f19601f82011682018060405250810190611a409190611ebd565b6040518463ffffffff1660e01b8152600401611a5e9392919061222e565b602060405180830381600087803b158015611a7857600080fd5b505af1158015611a8c573d6000803e3d6000fd5b505050506040513d601f19601f82011682018060405250810190611ab09190611e2a565b50600360009054906101000a900473ffffffffffffffffffffffffffffffffffffffff1673ffffffffffffffffffffffffffffffffffffffff16632797c7a483836040518363ffffffff1660e01b8152600401611b0e929190612265565b600060405180830381600087803b158015611b2857600080fd5b505af1158015611b3c573d6000803e3d6000fd5b505050507f6e76fb4c77256006d9c38ec7d82b45a8c8f3c27b1d6766fffc42dfb8de68449282604051611b6f9190612213565b60405180910390a15050565b60011515600660008373ffffffffffffffffffffffffffffffffffffffff1673ffffffffffffffffffffffffffffffffffffffff16815260200190815260200160002060009054906101000a900460ff16151514611c0e576040517f08c379a0000000000000000000000000000000000000000000000000000000008152600401611c05906123bb565b60405180910390fd5b50565b6000611c5383836040518060400160405280601e81526020017f536166654d6174683a207375627472616374696f6e206f766572666c6f770000815250611c5b565b905092915050565b6000838311158290611d08576040517f08c379a00000000000000000000000000000000000000000000000000000000081526004018080602001828103825283818151815260200191508051906020019080838360005b83811015611ccd578082015181840152602081019050611cb2565b50505050905090810190601f168015611cfa5780820380516001836020036101000a031916815260200191505b509250505060405180910390fd5b5060008385039050809150509392505050565b600081359050611d2a816126c2565b92915050565b600081519050611d3f816126c2565b92915050565b600081519050611d54816126d9565b92915050565b600082601f830112611d6b57600080fd5b8135611d7e611d7982612510565b6124df565b91508082526020830160208301858383011115611d9a57600080fd5b611da5838284612659565b50505092915050565b600081359050611dbd816126f0565b92915050565b600081519050611dd2816126f0565b92915050565b600060208284031215611dea57600080fd5b6000611df884828501611d1b565b91505092915050565b600060208284031215611e1357600080fd5b6000611e2184828501611d30565b91505092915050565b600060208284031215611e3c57600080fd5b6000611e4a84828501611d45565b91505092915050565b600060208284031215611e6557600080fd5b600082013567ffffffffffffffff811115611e7f57600080fd5b611e8b84828501611d5a565b91505092915050565b600060208284031215611ea657600080fd5b6000611eb484828501611dae565b91505092915050565b600060208284031215611ecf57600080fd5b6000611edd84828501611dc3565b91505092915050565b60008060408385031215611ef957600080fd5b6000611f0785828601611dae565b9250506020611f1885828601611d1b565b9150509250929050565b611f2b8161255c565b82525050565b611f3a8161256e565b82525050565b611f49816125b7565b82525050565b611f58816125db565b82525050565b611f67816125ff565b82525050565b611f7681612623565b82525050565b611f8581612647565b82525050565b6000611f9682612540565b611fa0818561254b565b9350611fb0818560208601612668565b611fb98161269d565b840191505092915050565b6000611fd1600c8361254b565b91507f6e6f7420747265617375727900000000000000000000000000000000000000006000830152602082019050919050565b600061201160108361254b565b91507f7472656173757279206e6f7420736574000000000000000000000000000000006000830152602082019050919050565b6000612051600a8361254b565b91507f6e6f74206d656d626572000000000000000000000000000000000000000000006000830152602082019050919050565b6000612091600d8361254b565b91507f616c7265616479206164646564000000000000000000000000000000000000006000830152602082019050919050565b60006120d1600e8361254b565b91507f616c7265616479206d656d6265720000000000000000000000000000000000006000830152602082019050919050565b6000612111600e8361254b565b91507f636f6d6d756e6974792066756c6c0000000000000000000000000000000000006000830152602082019050919050565b6000612151600f8361254b565b91507f77726f6e6720636f6d6d756e69747900000000000000000000000000000000006000830152602082019050919050565b600061219160108361254b565b91507f6e6f7420676967207265676973747279000000000000000000000000000000006000830152602082019050919050565b60006121d1600b8361254b565b91507f616c7265616479207365740000000000000000000000000000000000000000006000830152602082019050919050565b61220d816125ad565b82525050565b60006020820190506122286000830184611f22565b92915050565b60006060820190506122436000830186611f22565b6122506020830185611f22565b61225d6040830184612204565b949350505050565b600060408201905061227a6000830185611f22565b6122876020830184611f31565b9392505050565b60006040820190506122a36000830185611f22565b6122b06020830184612204565b9392505050565b60006020820190506122cc6000830184611f31565b92915050565b60006020820190506122e76000830184611f40565b92915050565b60006020820190506123026000830184611f4f565b92915050565b600060208201905061231d6000830184611f5e565b92915050565b60006020820190506123386000830184611f6d565b92915050565b60006020820190506123536000830184611f7c565b92915050565b600060208201905081810360008301526123738184611f8b565b905092915050565b6000602082019050818103600083015261239481611fc4565b9050919050565b600060208201905081810360008301526123b481612004565b9050919050565b600060208201905081810360008301526123d481612044565b9050919050565b600060208201905081810360008301526123f481612084565b9050919050565b60006020820190508181036000830152612414816120c4565b9050919050565b6000602082019050818103600083015261243481612104565b9050919050565b6000602082019050818103600083015261245481612144565b9050919050565b6000602082019050818103600083015261247481612184565b9050919050565b60006020820190508181036000830152612494816121c4565b9050919050565b60006020820190506124b06000830184612204565b92915050565b60006040820190506124cb6000830185612204565b6124d86020830184611f22565b9392505050565b6000604051905081810181811067ffffffffffffffff821117156125065761250561269b565b5b8060405250919050565b600067ffffffffffffffff82111561252b5761252a61269b565b5b601f19601f8301169050602081019050919050565b600081519050919050565b600082825260208201905092915050565b60006125678261258d565b9050919050565b60008115159050919050565b6000819050612588826126ae565b919050565b600073ffffffffffffffffffffffffffffffffffffffff82169050919050565b6000819050919050565b60006125c2826125c9565b9050919050565b60006125d48261258d565b9050919050565b60006125e6826125ed565b9050919050565b60006125f88261258d565b9050919050565b600061260a82612611565b9050919050565b600061261c8261258d565b9050919050565b600061262e82612635565b9050919050565b60006126408261258d565b9050919050565b60006126528261257a565b9050919050565b82818337600083830152505050565b60005b8381101561268657808201518184015260208101905061266b565b83811115612695576000848401525b50505050565bfe5b6000601f19601f8301169050919050565b600381106126bf576126be61269b565b5b50565b6126cb8161255c565b81146126d657600080fd5b50565b6126e28161256e565b81146126ed57600080fd5b50565b6126f9816125ad565b811461270457600080fd5b5056fe4f776e61626c653a206e6577206f776e657220697320746865207a65726f2061646472657373536166654d6174683a206d756c7469706c69636174696f6e206f766572666c6f77a264697066735822122078e6cf078e5298fa7234c53e7239057b2c41b08ef6abc46031a1329d1294b75364736f6c6343000704003360806040523480156200001157600080fd5b5060405162002a9038038062002a90833981810160405260208110156200003757600080fd5b81019080805190602001909291905050506040518060400160405280600481526020017f4469546f000000000000000000000000000000000000000000000000000000008152506040518060400160405280600481526020017f4449544f000000000000000000000000000000000000000000000000000000008152508160039080519060200190620000cc9291906200049a565b508060049080519060200190620000e59291906200049a565b506012600560006101000a81548160ff021916908360ff16021790555050506000620001166200022660201b60201c565b905080600560016101000a81548173ffffffffffffffffffffffffffffffffffffffff021916908373ffffffffffffffffffffffffffffffffffffffff1602179055508073ffffffffffffffffffffffffffffffffffffffff16600073ffffffffffffffffffffffffffffffffffffffff167f8be0079c531659141344cd1fd0a4f28419497f9722a3daafe3b4186f6b6457e060405160405180910390a3506001600660003373ffffffffffffffffffffffffffffffffffffffff1673ffffffffffffffffffffffffffffffffffffffff16815260200190815260200160002060006101000a81548160ff0219169083151502179055506200021f33826200022e60201b60201c565b5062000550565b600033905090565b600073ffffffffffffffffffffffffffffffffffffffff168273ffffffffffffffffffffffffffffffffffffffff161415620002d2576040517f08c379a000000000000000000000000000000000000000000000000000000000815260040180806020018281038252601f8152602001807f45524332303a206d696e7420746f20746865207a65726f20616464726573730081525060200191505060405180910390fd5b620002e6600083836200040c60201b60201c565b62000302816002546200041160201b62001b311790919060201c565b60028190555062000360816000808573ffffffffffffffffffffffffffffffffffffffff1673ffffffffffffffffffffffffffffffffffffffff168152602001908152602001600020546200041160201b62001b311790919060201c565b6000808473ffffffffffffffffffffffffffffffffffffffff1673ffffffffffffffffffffffffffffffffffffffff168152602001908152602001600020819055508173ffffffffffffffffffffffffffffffffffffffff16600073ffffffffffffffffffffffffffffffffffffffff167fddf252ad1be2c89b69c2b068fc378daa952ba7f163c4a11628f55a4df523b3ef836040518082815260200191505060405180910390a35050565b505050565b60008082840190508381101562000490576040517f08c379a000000000000000000000000000000000000000000000000000000000815260040180806020018281038252601b8152602001807f536166654d6174683a206164646974696f6e206f766572666c6f77000000000081525060200191505060405180910390fd5b8091505092915050565b828054600181600116156101000203166002900490600052602060002090601f016020900481019282620004d257600085556200051e565b82601f10620004ed57805160ff19168380011785556200051e565b828001600101855582156200051e579182015b828111156200051d57825182559160200191906001019062000500565b5b5090506200052d919062000531565b5090565b5b808211156200054c57600081600090555060010162000532565b5090565b61253080620005606000396000f3fe608060405234801561001057600080fd5b50600436106101165760003560e01c8063715018a6116100a2578063a457c2d711610071578063a457c2d714610520578063a9059cbb14610584578063bc93233f146105e8578063dd62ed3e14610638578063f2fde38b146106b057610116565b8063715018a6146104055780638da5cb5b1461040f57806395d89b41146104435780639b19251a146104c657610116565b80632797c7a4116100e95780632797c7a4146102a4578063313ce567146102f4578063395093511461031557806361d027b31461037957806370a08231146103ad57610116565b806306fdde031461011b578063095ea7b31461019e57806318160ddd1461020257806323b872dd14610220575b600080fd5b6101236106f4565b6040518080602001828103825283818151815260200191508051906020019080838360005b83811015610163578082015181840152602081019050610148565b50505050905090810190601f1680156101905780820380516001836020036101000a031916815260200191505b509250505060405180910390f35b6101ea600480360360408110156101b457600080fd5b81019080803573ffffffffffffffffffffffffffffffffffffffff16906020019092919080359060200190929190505050610796565b60405180821515815260200191505060405180910390f35b61020a61092a565b6040518082815260200191505060405180910390f35b61028c6004803603606081101561023657600080fd5b81019080803573ffffffffffffffffffffffffffffffffffffffff169060200190929190803573ffffffffffffffffffffffffffffffffffffffff16906020019092919080359060200190929190505050610934565b60405180821515815260200191505060405180910390f35b6102f2600480360360408110156102ba57600080fd5b81019080803573ffffffffffffffffffffffffffffffffffffffff169060200190929190803515159060200190929190505050610be4565b005b6102fc610e63565b604051808260ff16815260200191505060405180910390f35b6103616004803603604081101561032b57600080fd5b81019080803573ffffffffffffffffffffffffffffffffffffffff16906020019092919080359060200190929190505050610e7a565b60405180821515815260200191505060405180910390f35b61038161100e565b604051808273ffffffffffffffffffffffffffffffffffffffff16815260200191505060405180910390f35b6103ef600480360360208110156103c357600080fd5b81019080803573ffffffffffffffffffffffffffffffffffffffff169060200190929190505050611034565b6040518082815260200191505060405180910390f35b61040d61107c565b005b610417611207565b604051808273ffffffffffffffffffffffffffffffffffffffff16815260200191505060405180910390f35b61044b611231565b6040518080602001828103825283818151815260200191508051906020019080838360005b8381101561048b578082015181840152602081019050610470565b50505050905090810190601f1680156104b85780820380516001836020036101000a031916815260200191505b509250505060405180910390f35b610508600480360360208110156104dc57600080fd5b81019080803573ffffffffffffffffffffffffffffffffffffffff1690602001909291905050506112d3565b60405180821515815260200191505060405180910390f35b61056c6004803603604081101561053657600080fd5b81019080803573ffffffffffffffffffffffffffffffffffffffff169060200190929190803590602001909291905050506112f3565b60405180821515815260200191505060405180910390f35b6105d06004803603604081101561059a57600080fd5b81019080803573ffffffffffffffffffffffffffffffffffffffff16906020019092919080359060200190929190505050611487565b60405180821515815260200191505060405180910390f35b610636600480360360408110156105fe57600080fd5b81019080803573ffffffffffffffffffffffffffffffffffffffff16906020019092919080351515906020019092919050505061161b565b005b61069a6004803603604081101561064e57600080fd5b81019080803573ffffffffffffffffffffffffffffffffffffffff169060200190929190803573ffffffffffffffffffffffffffffffffffffffff16906020019092919050505061189a565b6040518082815260200191505060405180910390f35b6106f2600480360360208110156106c657600080fd5b81019080803573ffffffffffffffffffffffffffffffffffffffff169060200190929190505050611921565b005b606060038054600181600116156101000203166002900480601f01602080910402602001604051908101604052809291908181526020018280546001816001161561010002031660029004801561078c5780601f106107615761010080835404028352916020019161078c565b820191906000526020600020905b81548152906001019060200180831161076f57829003601f168201915b5050505050905090565b600082600660003373ffffffffffffffffffffffffffffffffffffffff1673ffffffffffffffffffffffffffffffffffffffff16815260200190815260200160002060009054906101000a900460ff16610858576040517f08c379a00000000000000000000000000000000000000000000000000000000081526004018080602001828103825260178152602001807f73656e646572206e6f7420696e2077686974656c69737400000000000000000081525060200191505060405180910390fd5b600660008273ffffffffffffffffffffffffffffffffffffffff1673ffffffffffffffffffffffffffffffffffffffff16815260200190815260200160002060009054906101000a900460ff16610917576040517f08c379a000000000000000000000000000000000000000000000000000000000815260040180806020018281038252601a8152602001807f726563697069656e74206e6f7420696e2077686974656c69737400000000000081525060200191505060405180910390fd5b6109218484611bb9565b91505092915050565b6000600254905090565b600082600660003373ffffffffffffffffffffffffffffffffffffffff1673ffffffffffffffffffffffffffffffffffffffff16815260200190815260200160002060009054906101000a900460ff166109f6576040517f08c379a00000000000000000000000000000000000000000000000000000000081526004018080602001828103825260178152602001807f73656e646572206e6f7420696e2077686974656c69737400000000000000000081525060200191505060405180910390fd5b600660008273ffffffffffffffffffffffffffffffffffffffff1673ffffffffffffffffffffffffffffffffffffffff16815260200190815260200160002060009054906101000a900460ff16610ab5576040517f08c379a000000000000000000000000000000000000000000000000000000000815260040180806020018281038252601a8152602001807f726563697069656e74206e6f7420696e2077686974656c69737400000000000081525060200191505060405180910390fd5b600760009054906101000a900473ffffffffffffffffffffffffffffffffffffffff1673ffffffffffffffffffffffffffffffffffffffff168473ffffffffffffffffffffffffffffffffffffffff161415610bcf57600760009054906101000a900473ffffffffffffffffffffffffffffffffffffffff1673ffffffffffffffffffffffffffffffffffffffff163373ffffffffffffffffffffffffffffffffffffffff1614610bce576040517f08c379a00000000000000000000000000000000000000000000000000000000081526004018080602001828103825260168152602001807f6e6f742073656e742066726f6d2074726561737572790000000000000000000081525060200191505060405180910390fd5b5b610bda858585611bd7565b9150509392505050565b610bec611cb0565b73ffffffffffffffffffffffffffffffffffffffff16600560019054906101000a900473ffffffffffffffffffffffffffffffffffffffff1673ffffffffffffffffffffffffffffffffffffffff1614610cae576040517f08c379a00000000000000000000000000000000000000000000000000000000081526004018080602001828103825260208152602001807f4f776e61626c653a2063616c6c6572206973206e6f7420746865206f776e657281525060200191505060405180910390fd5b8015610dba578173ffffffffffffffffffffffffffffffffffffffff16600760009054906101000a900473ffffffffffffffffffffffffffffffffffffffff1673ffffffffffffffffffffffffffffffffffffffff1614610d77576040517f08c379a00000000000000000000000000000000000000000000000000000000081526004018080602001828103825260188152602001807f6d656d626572206973206e6f742061207472656173757279000000000000000081525060200191505060405180910390fd5b6000600760006101000a81548173ffffffffffffffffffffffffffffffffffffffff021916908373ffffffffffffffffffffffffffffffffffffffff1602179055505b6000600660008473ffffffffffffffffffffffffffffffffffffffff1673ffffffffffffffffffffffffffffffffffffffff16815260200190815260200160002060006101000a81548160ff0219169083151502179055507fcdd2e9b91a56913d370075169cefa1602ba36be5301664f752192bb1709df75782604051808273ffffffffffffffffffffffffffffffffffffffff16815260200191505060405180910390a15050565b6000600560009054906101000a900460ff16905090565b600082600660003373ffffffffffffffffffffffffffffffffffffffff1673ffffffffffffffffffffffffffffffffffffffff16815260200190815260200160002060009054906101000a900460ff16610f3c576040517f08c379a00000000000000000000000000000000000000000000000000000000081526004018080602001828103825260178152602001807f73656e646572206e6f7420696e2077686974656c69737400000000000000000081525060200191505060405180910390fd5b600660008273ffffffffffffffffffffffffffffffffffffffff1673ffffffffffffffffffffffffffffffffffffffff16815260200190815260200160002060009054906101000a900460ff16610ffb576040517f08c379a000000000000000000000000000000000000000000000000000000000815260040180806020018281038252601a8152602001807f726563697069656e74206e6f7420696e2077686974656c69737400000000000081525060200191505060405180910390fd5b6110058484611cb8565b91505092915050565b600760009054906101000a900473ffffffffffffffffffffffffffffffffffffffff1681565b60008060008373ffffffffffffffffffffffffffffffffffffffff1673ffffffffffffffffffffffffffffffffffffffff168152602001908152602001600020549050919050565b611084611cb0565b73ffffffffffffffffffffffffffffffffffffffff16600560019054906101000a900473ffffffffffffffffffffffffffffffffffffffff1673ffffffffffffffffffffffffffffffffffffffff1614611146576040517f08c379a00000000000000000000000000000000000000000000000000000000081526004018080602001828103825260208152602001807f4f776e61626c653a2063616c6c6572206973206e6f7420746865206f776e657281525060200191505060405180910390fd5b600073ffffffffffffffffffffffffffffffffffffffff16600560019054906101000a900473ffffffffffffffffffffffffffffffffffffffff1673ffffffffffffffffffffffffffffffffffffffff167f8be0079c531659141344cd1fd0a4f28419497f9722a3daafe3b4186f6b6457e060405160405180910390a36000600560016101000a81548173ffffffffffffffffffffffffffffffffffffffff021916908373ffffffffffffffffffffffffffffffffffffffff160217905550565b6000600560019054906101000a900473ffffffffffffffffffffffffffffffffffffffff16905090565b606060048054600181600116156101000203166002900480601f0160208091040260200160405190810160405280929190818152602001828054600181600116156101000203166002900480156112c95780601f1061129e576101008083540402835291602001916112c9565b820191906000526020600020905b8154815290600101906020018083116112ac57829003601f168201915b5050505050905090565b60066020528060005260406000206000915054906101000a900460ff1681565b600082600660003373ffffffffffffffffffffffffffffffffffffffff1673ffffffffffffffffffffffffffffffffffffffff16815260200190815260200160002060009054906101000a900460ff166113b5576040517f08c379a00000000000000000000000000000000000000000000000000000000081526004018080602001828103825260178152602001807f73656e646572206e6f7420696e2077686974656c69737400000000000000000081525060200191505060405180910390fd5b600660008273ffffffffffffffffffffffffffffffffffffffff1673ffffffffffffffffffffffffffffffffffffffff16815260200190815260200160002060009054906101000a900460ff16611474576040517f08c379a000000000000000000000000000000000000000000000000000000000815260040180806020018281038252601a8152602001807f726563697069656e74206e6f7420696e2077686974656c69737400000000000081525060200191505060405180910390fd5b61147e8484611d6b565b91505092915050565b600082600660003373ffffffffffffffffffffffffffffffffffffffff1673ffffffffffffffffffffffffffffffffffffffff16815260200190815260200160002060009054906101000a900460ff16611549576040517f08c379a00000000000000000000000000000000000000000000000000000000081526004018080602001828103825260178152602001807f73656e646572206e6f7420696e2077686974656c69737400000000000000000081525060200191505060405180910390fd5b600660008273ffffffffffffffffffffffffffffffffffffffff1673ffffffffffffffffffffffffffffffffffffffff16815260200190815260200160002060009054906101000a900460ff16611608576040517f08c379a000000000000000000000000000000000000000000000000000000000815260040180806020018281038252601a8152602001807f726563697069656e74206e6f7420696e2077686974656c69737400000000000081525060200191505060405180910390fd5b6116128484611e38565b91505092915050565b611623611cb0565b73ffffffffffffffffffffffffffffffffffffffff16600560019054906101000a900473ffffffffffffffffffffffffffffffffffffffff1673ffffffffffffffffffffffffffffffffffffffff16146116e5576040517f08c379a00000000000000000000000000000000000000000000000000000000081526004018080602001828103825260208152602001807f4f776e61626c653a2063616c6c6572206973206e6f7420746865206f776e657281525060200191505060405180910390fd5b80156117f157600073ffffffffffffffffffffffffffffffffffffffff16600760009054906101000a900473ffffffffffffffffffffffffffffffffffffffff1673ffffffffffffffffffffffffffffffffffffffff16146117af576040517f08c379a00000000000000000000000000000000000000000000000000000000081526004018080602001828103825260178152602001807f747265617375727920697320616c72656164792073657400000000000000000081525060200191505060405180910390fd5b81600760006101000a81548173ffffffffffffffffffffffffffffffffffffffff021916908373ffffffffffffffffffffffffffffffffffffffff1602179055505b6001600660008473ffffffffffffffffffffffffffffffffffffffff1673ffffffffffffffffffffffffffffffffffffffff16815260200190815260200160002060006101000a81548160ff0219169083151502179055507fa850ae9193f515cbae8d35e8925bd2be26627fc91bce650b8652ed254e9cab0382604051808273ffffffffffffffffffffffffffffffffffffffff16815260200191505060405180910390a15050565b6000600160008473ffffffffffffffffffffffffffffffffffffffff1673ffffffffffffffffffffffffffffffffffffffff16815260200190815260200160002060008373ffffffffffffffffffffffffffffffffffffffff1673ffffffffffffffffffffffffffffffffffffffff16815260200190815260200160002054905092915050565b611929611cb0565b73ffffffffffffffffffffffffffffffffffffffff16600560019054906101000a900473ffffffffffffffffffffffffffffffffffffffff1673ffffffffffffffffffffffffffffffffffffffff16146119eb576040517f08c379a00000000000000000000000000000000000000000000000000000000081526004018080602001828103825260208152602001807f4f776e61626c653a2063616c6c6572206973206e6f7420746865206f776e657281525060200191505060405180910390fd5b600073ffffffffffffffffffffffffffffffffffffffff168173ffffffffffffffffffffffffffffffffffffffff161415611a71576040517f08c379a00000000000000000000000000000000000000000000000000000000081526004018080602001828103825260268152602001806123f76026913960400191505060405180910390fd5b8073ffffffffffffffffffffffffffffffffffffffff16600560019054906101000a900473ffffffffffffffffffffffffffffffffffffffff1673ffffffffffffffffffffffffffffffffffffffff167f8be0079c531659141344cd1fd0a4f28419497f9722a3daafe3b4186f6b6457e060405160405180910390a380600560016101000a81548173ffffffffffffffffffffffffffffffffffffffff021916908373ffffffffffffffffffffffffffffffffffffffff16021790555050565b600080828401905083811015611baf576040517f08c379a000000000000000000000000000000000000000000000000000000000815260040180806020018281038252601b8152602001807f536166654d6174683a206164646974696f6e206f766572666c6f77000000000081525060200191505060405180910390fd5b8091505092915050565b6000611bcd611bc6611cb0565b8484611e56565b6001905092915050565b6000611be484848461204d565b611ca584611bf0611cb0565b611ca08560405180606001604052806028815260200161246560289139600160008b73ffffffffffffffffffffffffffffffffffffffff1673ffffffffffffffffffffffffffffffffffffffff1681526020019081526020016000206000611c56611cb0565b73ffffffffffffffffffffffffffffffffffffffff1673ffffffffffffffffffffffffffffffffffffffff1681526020019081526020016000205461230e9092919063ffffffff16565b611e56565b600190509392505050565b600033905090565b6000611d61611cc5611cb0565b84611d5c8560016000611cd6611cb0565b73ffffffffffffffffffffffffffffffffffffffff1673ffffffffffffffffffffffffffffffffffffffff16815260200190815260200160002060008973ffffffffffffffffffffffffffffffffffffffff1673ffffffffffffffffffffffffffffffffffffffff16815260200190815260200160002054611b3190919063ffffffff16565b611e56565b6001905092915050565b6000611e2e611d78611cb0565b84611e29856040518060600160405280602581526020016124d66025913960016000611da2611cb0565b73ffffffffffffffffffffffffffffffffffffffff1673ffffffffffffffffffffffffffffffffffffffff16815260200190815260200160002060008a73ffffffffffffffffffffffffffffffffffffffff1673ffffffffffffffffffffffffffffffffffffffff1681526020019081526020016000205461230e9092919063ffffffff16565b611e56565b6001905092915050565b6000611e4c611e45611cb0565b848461204d565b6001905092915050565b600073ffffffffffffffffffffffffffffffffffffffff168373ffffffffffffffffffffffffffffffffffffffff161415611edc576040517f08c379a00000000000000000000000000000000000000000000000000000000081526004018080602001828103825260248152602001806124b26024913960400191505060405180910390fd5b600073ffffffffffffffffffffffffffffffffffffffff168273ffffffffffffffffffffffffffffffffffffffff161415611f62576040517f08c379a000000000000000000000000000000000000000000000000000000000815260040180806020018281038252602281526020018061241d6022913960400191505060405180910390fd5b80600160008573ffffffffffffffffffffffffffffffffffffffff1673ffffffffffffffffffffffffffffffffffffffff16815260200190815260200160002060008473ffffffffffffffffffffffffffffffffffffffff1673ffffffffffffffffffffffffffffffffffffffff168152602001908152602001600020819055508173ffffffffffffffffffffffffffffffffffffffff168373ffffffffffffffffffffffffffffffffffffffff167f8c5be1e5ebec7d5bd14f71427d1e84f3dd0314c0f7b2291e5b200ac8c7c3b925836040518082815260200191505060405180910390a3505050565b600073ffffffffffffffffffffffffffffffffffffffff168373ffffffffffffffffffffffffffffffffffffffff1614156120d3576040517f08c379a000000000000000000000000000000000000000000000000000000000815260040180806020018281038252602581526020018061248d6025913960400191505060405180910390fd5b600073ffffffffffffffffffffffffffffffffffffffff168273ffffffffffffffffffffffffffffffffffffffff161415612159576040517f08c379a00000000000000000000000000000000000000000000000000000000081526004018080602001828103825260238152602001806123d46023913960400191505060405180910390fd5b6121648383836123ce565b6121cf8160405180606001604052806026815260200161243f602691396000808773ffffffffffffffffffffffffffffffffffffffff1673ffffffffffffffffffffffffffffffffffffffff1681526020019081526020016000205461230e9092919063ffffffff16565b6000808573ffffffffffffffffffffffffffffffffffffffff1673ffffffffffffffffffffffffffffffffffffffff16815260200190815260200160002081905550612262816000808573ffffffffffffffffffffffffffffffffffffffff1673ffffffffffffffffffffffffffffffffffffffff16815260200190815260200160002054611b3190919063ffffffff16565b6000808473ffffffffffffffffffffffffffffffffffffffff1673ffffffffffffffffffffffffffffffffffffffff168152602001908152602001600020819055508173ffffffffffffffffffffffffffffffffffffffff168373ffffffffffffffffffffffffffffffffffffffff167fddf252ad1be2c89b69c2b068fc378daa952ba7f163c4a11628f55a4df523b3ef836040518082815260200191505060405180910390a3505050565b60008383111582906123bb576040517f08c379a00000000000000000000000000000000000000000000000000000000081526004018080602001828103825283818151815260200191508051906020019080838360005b83811015612380578082015181840152602081019050612365565b50505050905090810190601f1680156123ad5780820380516001836020036101000a031916815260200191505b509250505060405180910390fd5b5060008385039050809150509392505050565b50505056fe45524332303a207472616e7366657220746f20746865207a65726f20616464726573734f776e61626c653a206e6577206f776e657220697320746865207a65726f206164647265737345524332303a20617070726f766520746f20746865207a65726f206164647265737345524332303a207472616e7366657220616d6f756e7420657863656564732062616c616e636545524332303a207472616e7366657220616d6f756e74206578636565647320616c6c6f77616e636545524332303a207472616e736665722066726f6d20746865207a65726f206164647265737345524332303a20617070726f76652066726f6d20746865207a65726f206164647265737345524332303a2064656372656173656420616c6c6f77616e63652062656c6f77207a65726fa2646970667358221220d5a68a77b06e4c9c5c52a7f008803ab596841b8c4151b0d858bedca38916af9d64736f6c6343000704003360806040523480156200001157600080fd5b5060405162003f5a38038062003f5a833981810160405281019062000037919062000335565b600062000049620002ff60201b60201c565b9050806000806101000a81548173ffffffffffffffffffffffffffffffffffffffff021916908373ffffffffffffffffffffffffffffffffffffffff1602179055508073ffffffffffffffffffffffffffffffffffffffff16600073ffffffffffffffffffffffffffffffffffffffff167f8be0079c531659141344cd1fd0a4f28419497f9722a3daafe3b4186f6b6457e060405160405180910390a350620000f7620002ff60201b60201c565b600460026101000a81548173ffffffffffffffffffffffffffffffffffffffff021916908373ffffffffffffffffffffffffffffffffffffffff1602179055506000600460006101000a81548160ff02191690831515021790555085600460016101000a81548160ff021916908360028111156200017157fe5b021790555084600660006101000a81548173ffffffffffffffffffffffffffffffffffffffff021916908373ffffffffffffffffffffffffffffffffffffffff16021790555083600560006101000a81548173ffffffffffffffffffffffffffffffffffffffff021916908373ffffffffffffffffffffffffffffffffffffffff16021790555080600160006101000a81548173ffffffffffffffffffffffffffffffffffffffff021916908373ffffffffffffffffffffffffffffffffffffffff1602179055508260026040516200024a906200044f565b908152602001604051809103902060006101000a81548173ffffffffffffffffffffffffffffffffffffffff021916908373ffffffffffffffffffffffffffffffffffffffff160217905550816002604051620002a79062000466565b908152602001604051809103902060006101000a81548173ffffffffffffffffffffffffffffffffffffffff021916908373ffffffffffffffffffffffffffffffffffffffff160217905550505050505050620004e7565b600033905090565b6000815190506200031881620004bc565b92915050565b6000815190506200032f81620004d6565b92915050565b60008060008060008060c087890312156200034f57600080fd5b60006200035f89828a016200031e565b96505060206200037289828a0162000307565b95505060406200038589828a0162000307565b94505060606200039889828a0162000307565b9350506080620003ab89828a0162000307565b92505060a0620003be89828a0162000307565b9150509295509295509295565b6000620003da6003836200047d565b91507f44414900000000000000000000000000000000000000000000000000000000006000830152600382019050919050565b60006200041c6004836200047d565b91507f55534443000000000000000000000000000000000000000000000000000000006000830152600482019050919050565b60006200045c82620003cb565b9150819050919050565b600062000473826200040d565b9150819050919050565b600081905092915050565b600062000495826200049c565b9050919050565b600073ffffffffffffffffffffffffffffffffffffffff82169050919050565b620004c78162000488565b8114620004d357600080fd5b50565b60038110620004e457600080fd5b50565b613a6380620004f76000396000f3fe608060405234801561001057600080fd5b506004361061021b5760003560e01c80638da5cb5b11610125578063d0e0ba95116100ad578063e9999b031161007c578063e9999b03146105f4578063eaad31e114610612578063ef37113314610630578063f2fde38b1461064e578063fc0c546a1461066a5761021b565b8063d0e0ba9514610580578063d33219b41461059c578063dc1fb5a5146105ba578063e377672e146105d85761021b565b8063a46eddcf116100f4578063a46eddcf146104de578063af640d0f146104fa578063bc1c2c2914610518578063bdc5a95614610548578063c7901378146105645761021b565b80638da5cb5b146104445780639963ae8c146104625780639ab9c8191461047e5780639c28b199146104ae5761021b565b806339327e9e116101a857806363a5d2981161017757806363a5d298146103d65780636f2ddd93146103e0578063715018a6146103fe5780637158638314610408578063785ffb37146104265761021b565b806339327e9e146103605780634162169f1461037e57806346f98fec1461039c57806348f65007146103a65761021b565b806320628b48116101ef57806320628b4814610294578063247e9e86146102c45780632bdef29b146102f45780633705abf11461031257806337f3061d146103425761021b565b8062f418f41461022057806303eeedfb1461022a578063107046bd1461024857806315da0b0214610278575b600080fd5b610228610688565b005b61023261071b565b60405161023f91906136bc565b60405180910390f35b610262600480360381019061025d9190612e13565b610721565b60405161026f9190613341565b60405180910390f35b610292600480360381019061028d9190612c8b565b610760565b005b6102ae60048036038101906102a99190612e13565b6109e5565b6040516102bb9190613341565b60405180910390f35b6102de60048036038101906102d99190612cdd565b610a26565b6040516102eb91906136bc565b60405180910390f35b6102fc610aad565b604051610309919061344c565b60405180910390f35b61032c60048036038101906103279190612d7e565b610ac0565b6040516103399190613341565b60405180910390f35b61034a610b09565b604051610357919061342a565b60405180910390f35b610368610cbc565b6040516103759190613482565b60405180910390f35b610386610ce2565b604051610393919061349d565b60405180910390f35b6103a4610d08565b005b6103c060048036038101906103bb9190612c8b565b610dfc565b6040516103cd919061342a565b60405180910390f35b6103de610e93565b005b6103e861100a565b6040516103f591906134d3565b60405180910390f35b61040661101d565b005b6104106111a3565b60405161041d91906136bc565b60405180910390f35b61042e6111a9565b60405161043b91906136bc565b60405180910390f35b61044c6111af565b6040516104599190613341565b60405180910390f35b61047c60048036038101906104779190612dbf565b6111d8565b005b61049860048036038101906104939190612d19565b611813565b6040516104a591906136bc565b60405180910390f35b6104c860048036038101906104c39190612cdd565b611844565b6040516104d591906136bc565b60405180910390f35b6104f860048036038101906104f39190612c8b565b611869565b005b6105026119fc565b60405161050f91906136bc565b60405180910390f35b610532600480360381019061052d9190612c8b565b611a02565b60405161053f91906136bc565b60405180910390f35b610562600480360381019061055d9190612dbf565b611a1a565b005b61057e60048036038101906105799190612d19565b611c4f565b005b61059a60048036038101906105959190612e13565b611c53565b005b6105a4611eb0565b6040516105b191906134b8565b60405180910390f35b6105c2611ed6565b6040516105cf9190613341565b60405180910390f35b6105f260048036038101906105ed9190612e65565b611efc565b005b6105fc6125a1565b60405161060991906136bc565b60405180910390f35b61061a6125a7565b60405161062791906136bc565b60405180910390f35b6106386125b4565b60405161064591906136bc565b60405180910390f35b61066860048036038101906106639190612c8b565b612666565b005b610672612871565b60405161067f9190613467565b60405180910390f35b600b60149054906101000a900460ff16156106d8576040517f08c379a00000000000000000000000000000000000000000000000000000000081526004016106cf9061359c565b60405180910390fd5b33600b60006101000a81548173ffffffffffffffffffffffffffffffffffffffff021916908373ffffffffffffffffffffffffffffffffffffffff160217905550565b60075481565b6009818154811061073157600080fd5b906000526020600020016000915054906101000a900473ffffffffffffffffffffffffffffffffffffffff1681565b610768612897565b73ffffffffffffffffffffffffffffffffffffffff1660008054906101000a900473ffffffffffffffffffffffffffffffffffffffff1673ffffffffffffffffffffffffffffffffffffffff1614610828576040517f08c379a00000000000000000000000000000000000000000000000000000000081526004018080602001828103825260208152602001807f4f776e61626c653a2063616c6c6572206973206e6f7420746865206f776e657281525060200191505060405180910390fd5b600460009054906101000a900460ff1615610878576040517f08c379a000000000000000000000000000000000000000000000000000000000815260040161086f9061365c565b60405180910390fd5b80600460026101000a81548173ffffffffffffffffffffffffffffffffffffffff021916908373ffffffffffffffffffffffffffffffffffffffff160217905550600660009054906101000a900473ffffffffffffffffffffffffffffffffffffffff1673ffffffffffffffffffffffffffffffffffffffff1663095ea7b3600460029054906101000a900473ffffffffffffffffffffffffffffffffffffffff167fffffffffffffffffffffffffffffffffffffffffffffffffffffffffffffffff6040518363ffffffff1660e01b81526004016109589291906133ae565b602060405180830381600087803b15801561097257600080fd5b505af1158015610986573d6000803e3d6000fd5b505050506040513d601f19601f820116820180604052508101906109aa9190612d55565b507fb954b00fb708b65e61e5af666f5ce5050a9a566a4c6cc31e34fb24d03459106f816040516109da9190613341565b60405180910390a150565b6000600982815481106109f457fe5b9060005260206000200160009054906101000a900473ffffffffffffffffffffffffffffffffffffffff169050919050565b6000600c60008473ffffffffffffffffffffffffffffffffffffffff1673ffffffffffffffffffffffffffffffffffffffff16815260200190815260200160002060008373ffffffffffffffffffffffffffffffffffffffff1673ffffffffffffffffffffffffffffffffffffffff16815260200190815260200160002054905092915050565b600b60149054906101000a900460ff1681565b6002818051602081018201805184825260208301602085012081835280955050505050506000915054906101000a900473ffffffffffffffffffffffffffffffffffffffff1681565b60608060075467ffffffffffffffff81118015610b2557600080fd5b50604051908082528060200260200182016040528015610b545781602001602082028036833780820191505090505b5090506000805b600980549050811015610cb35760005b600a600060098481548110610b7c57fe5b9060005260206000200160009054906101000a900473ffffffffffffffffffffffffffffffffffffffff1673ffffffffffffffffffffffffffffffffffffffff1673ffffffffffffffffffffffffffffffffffffffff16815260200190815260200160002080549050811015610ca557600a600060098481548110610bfd57fe5b9060005260206000200160009054906101000a900473ffffffffffffffffffffffffffffffffffffffff1673ffffffffffffffffffffffffffffffffffffffff1673ffffffffffffffffffffffffffffffffffffffff1681526020019081526020016000208181548110610c6d57fe5b9060005260206000200154848481518110610c8457fe5b60200260200101818152505082806001019350508080600101915050610b6b565b508080600101915050610b5b565b50819250505090565b600160009054906101000a900473ffffffffffffffffffffffffffffffffffffffff1681565b600560009054906101000a900473ffffffffffffffffffffffffffffffffffffffff1681565b600660009054906101000a900473ffffffffffffffffffffffffffffffffffffffff1673ffffffffffffffffffffffffffffffffffffffff1663095ea7b3600460029054906101000a900473ffffffffffffffffffffffffffffffffffffffff167fffffffffffffffffffffffffffffffffffffffffffffffffffffffffffffffff6040518363ffffffff1660e01b8152600401610da79291906133ae565b602060405180830381600087803b158015610dc157600080fd5b505af1158015610dd5573d6000803e3d6000fd5b505050506040513d601f19601f82011682018060405250810190610df99190612d55565b50565b6060600a60008373ffffffffffffffffffffffffffffffffffffffff1673ffffffffffffffffffffffffffffffffffffffff168152602001908152602001600020805480602002602001604051908101604052809291908181526020018280548015610e8757602002820191906000526020600020905b815481526020019060010190808311610e73575b50505050509050919050565b610e9b612897565b73ffffffffffffffffffffffffffffffffffffffff1660008054906101000a900473ffffffffffffffffffffffffffffffffffffffff1673ffffffffffffffffffffffffffffffffffffffff1614610f5b576040517f08c379a00000000000000000000000000000000000000000000000000000000081526004018080602001828103825260208152602001807f4f776e61626c653a2063616c6c6572206973206e6f7420746865206f776e657281525060200191505060405180910390fd5b600073ffffffffffffffffffffffffffffffffffffffff16600b60009054906101000a900473ffffffffffffffffffffffffffffffffffffffff1673ffffffffffffffffffffffffffffffffffffffff161415610fed576040517f08c379a0000000000000000000000000000000000000000000000000000000008152600401610fe49061367c565b60405180910390fd5b6001600b60146101000a81548160ff021916908315150217905550565b600460019054906101000a900460ff1681565b611025612897565b73ffffffffffffffffffffffffffffffffffffffff1660008054906101000a900473ffffffffffffffffffffffffffffffffffffffff1673ffffffffffffffffffffffffffffffffffffffff16146110e5576040517f08c379a00000000000000000000000000000000000000000000000000000000081526004018080602001828103825260208152602001807f4f776e61626c653a2063616c6c6572206973206e6f7420746865206f776e657281525060200191505060405180910390fd5b600073ffffffffffffffffffffffffffffffffffffffff1660008054906101000a900473ffffffffffffffffffffffffffffffffffffffff1673ffffffffffffffffffffffffffffffffffffffff167f8be0079c531659141344cd1fd0a4f28419497f9722a3daafe3b4186f6b6457e060405160405180910390a360008060006101000a81548173ffffffffffffffffffffffffffffffffffffffff021916908373ffffffffffffffffffffffffffffffffffffffff160217905550565b60085481565b610f0081565b60008060009054906101000a900473ffffffffffffffffffffffffffffffffffffffff16905090565b600b60149054906101000a900460ff16611227576040517f08c379a000000000000000000000000000000000000000000000000000000000815260040161121e9061357c565b60405180910390fd5b6000600283604051611239919061332a565b908152602001604051809103902060009054906101000a900473ffffffffffffffffffffffffffffffffffffffff169050600073ffffffffffffffffffffffffffffffffffffffff168173ffffffffffffffffffffffffffffffffffffffff1614156112da576040517f08c379a00000000000000000000000000000000000000000000000000000000081526004016112d19061361c565b60405180910390fd5b60006112f7670de0b6b3a76400008461289f90919063ffffffff16565b9050808273ffffffffffffffffffffffffffffffffffffffff166370a0823161131e612897565b6040518263ffffffff1660e01b815260040161133a919061335c565b60206040518083038186803b15801561135257600080fd5b505afa158015611366573d6000803e3d6000fd5b505050506040513d601f19601f8201168201806040525081019061138a9190612e3c565b10156113cb576040517f08c379a00000000000000000000000000000000000000000000000000000000081526004016113c2906135bc565b60405180910390fd5b8173ffffffffffffffffffffffffffffffffffffffff166323b872dd3330846040518463ffffffff1660e01b815260040161140893929190613377565b602060405180830381600087803b15801561142257600080fd5b505af1158015611436573d6000803e3d6000fd5b505050506040513d601f19601f8201168201806040525081019061145a9190612d55565b508173ffffffffffffffffffffffffffffffffffffffff1663095ea7b3600560009054906101000a900473ffffffffffffffffffffffffffffffffffffffff16836040518363ffffffff1660e01b81526004016114b89291906133ae565b602060405180830381600087803b1580156114d257600080fd5b505af11580156114e6573d6000803e3d6000fd5b505050506040513d601f19601f8201168201806040525081019061150a9190612d55565b50600560009054906101000a900473ffffffffffffffffffffffffffffffffffffffff1673ffffffffffffffffffffffffffffffffffffffff1663a7829ffa858560646040518463ffffffff1660e01b815260040161156b9392919061351e565b600060405180830381600087803b15801561158557600080fd5b505af1158015611599573d6000803e3d6000fd5b50505050600b60009054906101000a900473ffffffffffffffffffffffffffffffffffffffff1673ffffffffffffffffffffffffffffffffffffffff16638340f5493384846040518463ffffffff1660e01b81526004016115fc93929190613377565b600060405180830381600087803b15801561161657600080fd5b505af115801561162a573d6000803e3d6000fd5b505050506116bd81600c60003373ffffffffffffffffffffffffffffffffffffffff1673ffffffffffffffffffffffffffffffffffffffff16815260200190815260200160002060008573ffffffffffffffffffffffffffffffffffffffff1673ffffffffffffffffffffffffffffffffffffffff1681526020019081526020016000205461292590919063ffffffff16565b600c60003373ffffffffffffffffffffffffffffffffffffffff1673ffffffffffffffffffffffffffffffffffffffff16815260200190815260200160002060008473ffffffffffffffffffffffffffffffffffffffff1673ffffffffffffffffffffffffffffffffffffffff1681526020019081526020016000208190555061178f81600d60008573ffffffffffffffffffffffffffffffffffffffff1673ffffffffffffffffffffffffffffffffffffffff1681526020019081526020016000205461292590919063ffffffff16565b600d60008473ffffffffffffffffffffffffffffffffffffffff1673ffffffffffffffffffffffffffffffffffffffff168152602001908152602001600020819055507f3b5083eec1a1116c56de5d6841cff8efc6a0aec9850e836ec509d6ce024ea56133838360405161180593929190613377565b60405180910390a150505050565b600a602052816000526040600020818154811061182f57600080fd5b90600052602060002001600091509150505481565b600c602052816000526040600020602052806000526040600020600091509150505481565b611871612897565b73ffffffffffffffffffffffffffffffffffffffff1660008054906101000a900473ffffffffffffffffffffffffffffffffffffffff1673ffffffffffffffffffffffffffffffffffffffff1614611931576040517f08c379a00000000000000000000000000000000000000000000000000000000081526004018080602001828103825260208152602001807f4f776e61626c653a2063616c6c6572206973206e6f7420746865206f776e657281525060200191505060405180910390fd5b600460009054906101000a900460ff1615611981576040517f08c379a00000000000000000000000000000000000000000000000000000000081526004016119789061365c565b60405180910390fd5b80600560006101000a81548173ffffffffffffffffffffffffffffffffffffffff021916908373ffffffffffffffffffffffffffffffffffffffff1602179055507f181dccb510f27d9c2608cbef86fad60ab59d126bc8782ea2f21763607ec41739816040516119f19190613341565b60405180910390a150565b60035481565b600d6020528060005260406000206000915090505481565b6000600160009054906101000a900473ffffffffffffffffffffffffffffffffffffffff1673ffffffffffffffffffffffffffffffffffffffff16630261bf8b6040518163ffffffff1660e01b815260040160206040518083038186803b158015611a8457600080fd5b505afa158015611a98573d6000803e3d6000fd5b505050506040513d601f19601f82011682018060405250810190611abc9190612cb4565b90506000600284604051611ad0919061332a565b908152602001604051809103902060009054906101000a900473ffffffffffffffffffffffffffffffffffffffff169050600073ffffffffffffffffffffffffffffffffffffffff168173ffffffffffffffffffffffffffffffffffffffff161415611b71576040517f08c379a0000000000000000000000000000000000000000000000000000000008152600401611b689061361c565b60405180910390fd5b8173ffffffffffffffffffffffffffffffffffffffff1663a415bcad828560016000600560009054906101000a900473ffffffffffffffffffffffffffffffffffffffff166040518663ffffffff1660e01b8152600401611bd69594939291906133d7565b600060405180830381600087803b158015611bf057600080fd5b505af1158015611c04573d6000803e3d6000fd5b50505050611c106129ad565b7ffc30ec1bee3b4fb527f0d90b4bbbf5a24b72f0964679ff277df1895e8ad239578484604051611c419291906134ee565b60405180910390a150505050565b5050565b600560009054906101000a900473ffffffffffffffffffffffffffffffffffffffff1673ffffffffffffffffffffffffffffffffffffffff163373ffffffffffffffffffffffffffffffffffffffff1614611ce3576040517f08c379a0000000000000000000000000000000000000000000000000000000008152600401611cda9061363c565b60405180910390fd5b600460009054906101000a900460ff1615611d33576040517f08c379a0000000000000000000000000000000000000000000000000000000008152600401611d2a9061365c565b60405180910390fd5b600073ffffffffffffffffffffffffffffffffffffffff16600460029054906101000a900473ffffffffffffffffffffffffffffffffffffffff1673ffffffffffffffffffffffffffffffffffffffff161415611dc5576040517f08c379a0000000000000000000000000000000000000000000000000000000008152600401611dbc906135dc565b60405180910390fd5b806003819055506001600460006101000a81548160ff0219169083151502179055507fc72e55068a99063a2c847c0b87d2808f29d1935171e54ffa3a479533b4046b7481604051611e1691906136bc565b60405180910390a1600460029054906101000a900473ffffffffffffffffffffffffffffffffffffffff1673ffffffffffffffffffffffffffffffffffffffff1663d0e0ba956003546040518263ffffffff1660e01b8152600401611e7b91906136bc565b600060405180830381600087803b158015611e9557600080fd5b505af1158015611ea9573d6000803e3d6000fd5b5050505050565b600b60009054906101000a900473ffffffffffffffffffffffffffffffffffffffff1681565b600460029054906101000a900473ffffffffffffffffffffffffffffffffffffffff1681565b600460029054906101000a900473ffffffffffffffffffffffffffffffffffffffff1673ffffffffffffffffffffffffffffffffffffffff16611f3d612897565b73ffffffffffffffffffffffffffffffffffffffff1614611f93576040517f08c379a0000000000000000000000000000000000000000000000000000000008152600401611f8a9061355c565b60405180910390fd5b600073ffffffffffffffffffffffffffffffffffffffff168173ffffffffffffffffffffffffffffffffffffffff161415612003576040517f08c379a0000000000000000000000000000000000000000000000000000000008152600401611ffa906135fc565b60405180910390fd5b60008211612046576040517f08c379a000000000000000000000000000000000000000000000000000000000815260040161203d9061369c565b60405180910390fd5b600660009054906101000a900473ffffffffffffffffffffffffffffffffffffffff1673ffffffffffffffffffffffffffffffffffffffff166323b872dd61208c612897565b306120a8670de0b6b3a76400008761289f90919063ffffffff16565b6040518463ffffffff1660e01b81526004016120c693929190613377565b602060405180830381600087803b1580156120e057600080fd5b505af11580156120f4573d6000803e3d6000fd5b505050506040513d601f19601f820116820180604052508101906121189190612d55565b506000600660009054906101000a900473ffffffffffffffffffffffffffffffffffffffff1673ffffffffffffffffffffffffffffffffffffffff166370a08231306040518263ffffffff1660e01b81526004016121769190613341565b60206040518083038186803b15801561218e57600080fd5b505afa1580156121a2573d6000803e3d6000fd5b505050506040513d601f19601f820116820180604052508101906121c69190612e3c565b90506000600a60008473ffffffffffffffffffffffffffffffffffffffff1673ffffffffffffffffffffffffffffffffffffffff168152602001908152602001600020805490501415612277576009829080600181540180825580915050600190039060005260206000200160009091909190916101000a81548173ffffffffffffffffffffffffffffffffffffffff021916908373ffffffffffffffffffffffffffffffffffffffff1602179055505b600a60008373ffffffffffffffffffffffffffffffffffffffff1673ffffffffffffffffffffffffffffffffffffffff1681526020019081526020016000206122d1670de0b6b3a76400008561289f90919063ffffffff16565b908060018154018082558091505060019003906000526020600020016000909190919091505561230d600160075461292590919063ffffffff16565b6007819055506123288360085461292590919063ffffffff16565b60088190555061234b670de0b6b3a7640000610f0061289f90919063ffffffff16565b8110612562576000612382612373670de0b6b3a76400006107d061289f90919063ffffffff16565b83612a6590919063ffffffff16565b9050600560009054906101000a900473ffffffffffffffffffffffffffffffffffffffff1673ffffffffffffffffffffffffffffffffffffffff166305f9c5976003546040518263ffffffff1660e01b81526004016123e191906136bc565b600060405180830381600087803b1580156123fb57600080fd5b505af115801561240f573d6000803e3d6000fd5b505050507f78cd33486287c682aa18f13badc425b37df2158a72b64ecfe2fa765f62c9343084846040516124449291906136d7565b60405180910390a17facd3dbb848fad50d312987d285e88fdc140a8385c5c568117c79d1437d8be32e6124756125b4565b60405161248291906136bc565b60405180910390a1600660009054906101000a900473ffffffffffffffffffffffffffffffffffffffff1673ffffffffffffffffffffffffffffffffffffffff1663a9059cbb600460029054906101000a900473ffffffffffffffffffffffffffffffffffffffff16836040518363ffffffff1660e01b81526004016125099291906133ae565b602060405180830381600087803b15801561252357600080fd5b505af1158015612537573d6000803e3d6000fd5b505050506040513d601f19601f8201168201806040525081019061255b9190612d55565b505061259c565b7f78cd33486287c682aa18f13badc425b37df2158a72b64ecfe2fa765f62c9343083836040516125939291906136d7565b60405180910390a15b505050565b6107d081565b6000600980549050905090565b6000600660009054906101000a900473ffffffffffffffffffffffffffffffffffffffff1673ffffffffffffffffffffffffffffffffffffffff166370a08231306040518263ffffffff1660e01b81526004016126119190613341565b60206040518083038186803b15801561262957600080fd5b505afa15801561263d573d6000803e3d6000fd5b505050506040513d601f19601f820116820180604052508101906126619190612e3c565b905090565b61266e612897565b73ffffffffffffffffffffffffffffffffffffffff1660008054906101000a900473ffffffffffffffffffffffffffffffffffffffff1673ffffffffffffffffffffffffffffffffffffffff161461272e576040517f08c379a00000000000000000000000000000000000000000000000000000000081526004018080602001828103825260208152602001807f4f776e61626c653a2063616c6c6572206973206e6f7420746865206f776e657281525060200191505060405180910390fd5b600073ffffffffffffffffffffffffffffffffffffffff168173ffffffffffffffffffffffffffffffffffffffff1614156127b4576040517f08c379a00000000000000000000000000000000000000000000000000000000081526004018080602001828103825260268152602001806139e76026913960400191505060405180910390fd5b8073ffffffffffffffffffffffffffffffffffffffff1660008054906101000a900473ffffffffffffffffffffffffffffffffffffffff1673ffffffffffffffffffffffffffffffffffffffff167f8be0079c531659141344cd1fd0a4f28419497f9722a3daafe3b4186f6b6457e060405160405180910390a3806000806101000a81548173ffffffffffffffffffffffffffffffffffffffff021916908373ffffffffffffffffffffffffffffffffffffffff16021790555050565b600660009054906101000a900473ffffffffffffffffffffffffffffffffffffffff1681565b600033905090565b6000808314156128b2576000905061291f565b60008284029050828482816128c357fe5b041461291a576040517f08c379a0000000000000000000000000000000000000000000000000000000008152600401808060200182810382526021815260200180613a0d6021913960400191505060405180910390fd5b809150505b92915050565b6000808284019050838110156129a3576040517f08c379a000000000000000000000000000000000000000000000000000000000815260040180806020018281038252601b8152602001807f536166654d6174683a206164646974696f6e206f766572666c6f77000000000081525060200191505060405180910390fd5b8091505092915050565b60005b600980549050811015612a4c57600a6000600983815481106129ce57fe5b9060005260206000200160009054906101000a900473ffffffffffffffffffffffffffffffffffffffff1673ffffffffffffffffffffffffffffffffffffffff1673ffffffffffffffffffffffffffffffffffffffff1681526020019081526020016000206000612a3f9190612b6f565b80806001019150506129b0565b5060096000612a5b9190612b90565b6000600781905550565b6000612aa783836040518060400160405280601e81526020017f536166654d6174683a207375627472616374696f6e206f766572666c6f770000815250612aaf565b905092915050565b6000838311158290612b5c576040517f08c379a00000000000000000000000000000000000000000000000000000000081526004018080602001828103825283818151815260200191508051906020019080838360005b83811015612b21578082015181840152602081019050612b06565b50505050905090810190601f168015612b4e5780820380516001836020036101000a031916815260200191505b509250505060405180910390fd5b5060008385039050809150509392505050565b5080546000825590600052602060002090810190612b8d9190612bb1565b50565b5080546000825590600052602060002090810190612bae9190612bb1565b50565b5b80821115612bca576000816000905550600101612bb2565b5090565b600081359050612bdd816139a1565b92915050565b600081519050612bf2816139a1565b92915050565b600081519050612c07816139b8565b92915050565b600082601f830112612c1e57600080fd5b8135612c31612c2c82613731565b613700565b91508082526020830160208301858383011115612c4d57600080fd5b612c58838284613938565b50505092915050565b600081359050612c70816139cf565b92915050565b600081519050612c85816139cf565b92915050565b600060208284031215612c9d57600080fd5b6000612cab84828501612bce565b91505092915050565b600060208284031215612cc657600080fd5b6000612cd484828501612be3565b91505092915050565b60008060408385031215612cf057600080fd5b6000612cfe85828601612bce565b9250506020612d0f85828601612bce565b9150509250929050565b60008060408385031215612d2c57600080fd5b6000612d3a85828601612bce565b9250506020612d4b85828601612c61565b9150509250929050565b600060208284031215612d6757600080fd5b6000612d7584828501612bf8565b91505092915050565b600060208284031215612d9057600080fd5b600082013567ffffffffffffffff811115612daa57600080fd5b612db684828501612c0d565b91505092915050565b60008060408385031215612dd257600080fd5b600083013567ffffffffffffffff811115612dec57600080fd5b612df885828601612c0d565b9250506020612e0985828601612c61565b9150509250929050565b600060208284031215612e2557600080fd5b6000612e3384828501612c61565b91505092915050565b600060208284031215612e4e57600080fd5b6000612e5c84828501612c76565b91505092915050565b60008060408385031215612e7857600080fd5b6000612e8685828601612c61565b9250506020612e9785828601612bce565b9150509250929050565b6000612ead838361330c565b60208301905092915050565b612ec28161382a565b82525050565b612ed1816137c1565b82525050565b6000612ee282613771565b612eec8185613794565b9350612ef783613761565b8060005b83811015612f28578151612f0f8882612ea1565b9750612f1a83613787565b925050600181019050612efb565b5085935050505092915050565b612f3e816137d3565b82525050565b612f4d8161383c565b82525050565b612f5c81613860565b82525050565b612f6b81613884565b82525050565b612f7a816138a8565b82525050565b612f89816138cc565b82525050565b612f98816138de565b82525050565b612fa7816138f0565b82525050565b612fb681613902565b82525050565b6000612fc78261377c565b612fd181856137a5565b9350612fe1818560208601613947565b612fea8161397c565b840191505092915050565b60006130008261377c565b61300a81856137b6565b935061301a818560208601613947565b80840191505092915050565b60006130336026836137a5565b91507f4769672063616e206f6e6c7920626520636f6d706c6574656420627920636f6d60008301527f6d756e69747900000000000000000000000000000000000000000000000000006020830152604082019050919050565b60006130996013836137a5565b91507f74696d656c6f636b206e6f7420616374697665000000000000000000000000006000830152602082019050919050565b60006130d9600e836137a5565b91507f616c7265616479206163746976650000000000000000000000000000000000006000830152602082019050919050565b60006131196014836137a5565b91507f6e6f7420656e6f756768206f776e2066756e64730000000000000000000000006000830152602082019050919050565b60006131596014836137a5565b91507f636f6d6d756e697479206973206e6f74207365740000000000000000000000006000830152602082019050919050565b60006131996018836137a5565b91507f6e6f2070726f6a65637420666f72206d696c6573746f6e6500000000000000006000830152602082019050919050565b60006131d96016836137a5565b91507f63757272656e6379206e6f7420737570706f72746564000000000000000000006000830152602082019050919050565b6000613219601c836137a5565b91507f6f6e6c792074726561737572792064616f2063616e20736574206964000000006000830152602082019050919050565b6000613259601a836137a5565b91507f747265617375727920697320616c7265616479206c696e6b65640000000000006000830152602082019050919050565b60006132996007836137a5565b91507f6e6f7420736574000000000000000000000000000000000000000000000000006000830152602082019050919050565b60006132d9600b836137a5565b91507f616d6f756e7420697320300000000000000000000000000000000000000000006000830152602082019050919050565b61331581613820565b82525050565b61332481613820565b82525050565b60006133368284612ff5565b915081905092915050565b60006020820190506133566000830184612ec8565b92915050565b60006020820190506133716000830184612eb9565b92915050565b600060608201905061338c6000830186612eb9565b6133996020830185612ec8565b6133a6604083018461331b565b949350505050565b60006040820190506133c36000830185612ec8565b6133d0602083018461331b565b9392505050565b600060a0820190506133ec6000830188612ec8565b6133f9602083018761331b565b6134066040830186612fad565b6134136060830185612f8f565b6134206080830184612ec8565b9695505050505050565b600060208201905081810360008301526134448184612ed7565b905092915050565b60006020820190506134616000830184612f35565b92915050565b600060208201905061347c6000830184612f44565b92915050565b60006020820190506134976000830184612f53565b92915050565b60006020820190506134b26000830184612f62565b92915050565b60006020820190506134cd6000830184612f71565b92915050565b60006020820190506134e86000830184612f80565b92915050565b600060408201905081810360008301526135088185612fbc565b9050613517602083018461331b565b9392505050565b600060608201905081810360008301526135388186612fbc565b9050613547602083018561331b565b6135546040830184612f9e565b949350505050565b6000602082019050818103600083015261357581613026565b9050919050565b600060208201905081810360008301526135958161308c565b9050919050565b600060208201905081810360008301526135b5816130cc565b9050919050565b600060208201905081810360008301526135d58161310c565b9050919050565b600060208201905081810360008301526135f58161314c565b9050919050565b600060208201905081810360008301526136158161318c565b9050919050565b60006020820190508181036000830152613635816131cc565b9050919050565b600060208201905081810360008301526136558161320c565b9050919050565b600060208201905081810360008301526136758161324c565b9050919050565b600060208201905081810360008301526136958161328c565b9050919050565b600060208201905081810360008301526136b5816132cc565b9050919050565b60006020820190506136d1600083018461331b565b92915050565b60006040820190506136ec600083018561331b565b6136f96020830184612ec8565b9392505050565b6000604051905081810181811067ffffffffffffffff821117156137275761372661397a565b5b8060405250919050565b600067ffffffffffffffff82111561374c5761374b61397a565b5b601f19601f8301169050602081019050919050565b6000819050602082019050919050565b600081519050919050565b600081519050919050565b6000602082019050919050565b600082825260208201905092915050565b600082825260208201905092915050565b600081905092915050565b60006137cc82613800565b9050919050565b60008115159050919050565b60008190506137ed8261398d565b919050565b600061ffff82169050919050565b600073ffffffffffffffffffffffffffffffffffffffff82169050919050565b6000819050919050565b600061383582613914565b9050919050565b60006138478261384e565b9050919050565b600061385982613800565b9050919050565b600061386b82613872565b9050919050565b600061387d82613800565b9050919050565b600061388f82613896565b9050919050565b60006138a182613800565b9050919050565b60006138b3826138ba565b9050919050565b60006138c582613800565b9050919050565b60006138d7826137df565b9050919050565b60006138e9826137f2565b9050919050565b60006138fb82613820565b9050919050565b600061390d82613820565b9050919050565b600061391f82613926565b9050919050565b600061393182613800565b9050919050565b82818337600083830152505050565b60005b8381101561396557808201518184015260208101905061394a565b83811115613974576000848401525b50505050565bfe5b6000601f19601f8301169050919050565b6003811061399e5761399d61397a565b5b50565b6139aa816137c1565b81146139b557600080fd5b50565b6139c1816137d3565b81146139cc57600080fd5b50565b6139d881613820565b81146139e357600080fd5b5056fe4f776e61626c653a206e6577206f776e657220697320746865207a65726f2061646472657373536166654d6174683a206d756c7469706c69636174696f6e206f766572666c6f77a26469706673582212204555ee78b1871b810b140ef82b309da216b3f57d2d0c7ceedf2f89d94363f2ca64736f6c63430007040033536166654d6174683a206d756c7469706c69636174696f6e206f766572666c6f77",
  "linkReferences": {},
  "deployedLinkReferences": {}
}