{
  "_format": "hh-sol-artifact-1",
  "contractName": "Community",
  "sourceName": "contracts/Community.sol",
  "abi": [
    {
      "inputs": [
        {
          "internalType": "enum DataTypes.CommunityTemplate",
          "name": "_template",
          "type": "uint8"
        },
        {
          "internalType": "address",
          "name": "_addressesProvider",
          "type": "address"
        },
        {
          "internalType": "address",
          "name": "_forwarder",
          "type": "address"
        }
      ],
      "stateMutability": "nonpayable",
      "type": "constructor"
    },
    {
      "anonymous": false,
      "inputs": [
        {
          "indexed": false,
          "internalType": "address",
          "name": "_registry",
          "type": "address"
        }
      ],
      "name": "GigRegistrySet",
      "type": "event"
    },
    {
      "anonymous": false,
      "inputs": [
        {
          "indexed": false,
          "internalType": "uint256",
          "name": "_id",
          "type": "uint256"
        }
      ],
      "name": "IdSet",
      "type": "event"
    },
    {
      "anonymous": false,
      "inputs": [
        {
          "indexed": false,
          "internalType": "address",
          "name": "_member",
          "type": "address"
        },
        {
          "indexed": false,
          "internalType": "uint256",
          "name": "_transferredTokens",
          "type": "uint256"
        }
      ],
      "name": "MemberAdded",
      "type": "event"
    },
    {
      "anonymous": false,
      "inputs": [
        {
          "indexed": false,
          "internalType": "address",
          "name": "_member",
          "type": "address"
        }
      ],
      "name": "MemberRemoved",
      "type": "event"
    },
    {
      "anonymous": false,
      "inputs": [
        {
          "indexed": true,
          "internalType": "address",
          "name": "previousOwner",
          "type": "address"
        },
        {
          "indexed": true,
          "internalType": "address",
          "name": "newOwner",
          "type": "address"
        }
      ],
      "name": "OwnershipTransferred",
      "type": "event"
    },
    {
      "anonymous": false,
      "inputs": [
        {
          "indexed": false,
          "internalType": "address",
          "name": "_treasury",
          "type": "address"
        }
      ],
      "name": "TreasurySet",
      "type": "event"
    },
    {
      "inputs": [],
      "name": "IDENTITY",
      "outputs": [
        {
          "internalType": "bytes4",
          "name": "",
          "type": "bytes4"
        }
      ],
      "stateMutability": "view",
      "type": "function"
    },
    {
      "inputs": [],
      "name": "INIT_TOKENS",
      "outputs": [
        {
          "internalType": "uint256",
          "name": "",
          "type": "uint256"
        }
      ],
      "stateMutability": "view",
      "type": "function"
    },
    {
      "inputs": [],
      "name": "activateTreasuryTimelock",
      "outputs": [],
      "stateMutability": "nonpayable",
      "type": "function"
    },
    {
      "inputs": [
        {
          "internalType": "address",
          "name": "_dao",
          "type": "address"
        }
      ],
      "name": "addCommunityTreasury",
      "outputs": [
        {
          "internalType": "address",
          "name": "",
          "type": "address"
        }
      ],
      "stateMutability": "nonpayable",
      "type": "function"
    },
    {
      "inputs": [
        {
          "internalType": "string",
          "name": "_communitIdString",
          "type": "string"
        }
      ],
      "name": "addGigsRegistry",
      "outputs": [],
      "stateMutability": "nonpayable",
      "type": "function"
    },
    {
      "inputs": [],
      "name": "addressesProvider",
      "outputs": [
        {
          "internalType": "contract AddressesProvider",
          "name": "",
          "type": "address"
        }
      ],
      "stateMutability": "view",
      "type": "function"
    },
    {
      "inputs": [],
      "name": "communitiesRegistry",
      "outputs": [
        {
          "internalType": "address",
          "name": "",
          "type": "address"
        }
      ],
      "stateMutability": "view",
      "type": "function"
    },
    {
      "inputs": [],
      "name": "communityTreasury",
      "outputs": [
        {
          "internalType": "address",
          "name": "",
          "type": "address"
        }
      ],
      "stateMutability": "view",
      "type": "function"
    },
    {
      "inputs": [
        {
          "internalType": "uint256",
          "name": "_amount",
          "type": "uint256"
        },
        {
          "internalType": "address",
          "name": "_project",
          "type": "address"
        }
      ],
      "name": "completeGig",
      "outputs": [],
      "stateMutability": "nonpayable",
      "type": "function"
    },
    {
      "inputs": [
        {
          "internalType": "string",
          "name": "",
          "type": "string"
        }
      ],
      "name": "depositableCurrencies",
      "outputs": [
        {
          "internalType": "bool",
          "name": "",
          "type": "bool"
        }
      ],
      "stateMutability": "view",
      "type": "function"
    },
    {
      "inputs": [
        {
          "internalType": "address",
          "name": "",
          "type": "address"
        }
      ],
      "name": "enabledMembers",
      "outputs": [
        {
          "internalType": "bool",
          "name": "",
          "type": "bool"
        }
      ],
      "stateMutability": "view",
      "type": "function"
    },
    {
      "inputs": [],
      "name": "gigsRegistry",
      "outputs": [
        {
          "internalType": "address",
          "name": "",
          "type": "address"
        }
      ],
      "stateMutability": "view",
      "type": "function"
    },
    {
      "inputs": [],
      "name": "id",
      "outputs": [
        {
          "internalType": "uint256",
          "name": "",
          "type": "uint256"
        }
      ],
      "stateMutability": "view",
      "type": "function"
    },
    {
      "inputs": [
        {
          "internalType": "address",
          "name": "forwarder",
          "type": "address"
        }
      ],
      "name": "isTrustedForwarder",
      "outputs": [
        {
          "internalType": "bool",
          "name": "",
          "type": "bool"
        }
      ],
      "stateMutability": "view",
      "type": "function"
    },
    {
      "inputs": [
        {
          "internalType": "uint256",
          "name": "_amountOfDITOToRedeem",
          "type": "uint256"
        }
      ],
      "name": "join",
      "outputs": [],
      "stateMutability": "nonpayable",
      "type": "function"
    },
    {
      "inputs": [],
      "name": "leave",
      "outputs": [],
      "stateMutability": "nonpayable",
      "type": "function"
    },
    {
      "inputs": [],
      "name": "numberOfMembers",
      "outputs": [
        {
          "internalType": "uint256",
          "name": "",
          "type": "uint256"
        }
      ],
      "stateMutability": "view",
      "type": "function"
    },
    {
      "inputs": [],
      "name": "owner",
      "outputs": [
        {
          "internalType": "address",
          "name": "",
          "type": "address"
        }
      ],
      "stateMutability": "view",
      "type": "function"
    },
    {
      "inputs": [],
      "name": "renounceOwnership",
      "outputs": [],
      "stateMutability": "nonpayable",
      "type": "function"
    },
    {
      "inputs": [
        {
          "internalType": "uint256",
          "name": "_id",
          "type": "uint256"
        }
      ],
      "name": "setId",
      "outputs": [],
      "stateMutability": "nonpayable",
      "type": "function"
    },
    {
      "inputs": [
        {
          "internalType": "address",
          "name": "_dao",
          "type": "address"
        }
      ],
      "name": "setTreasuryDAO",
      "outputs": [],
      "stateMutability": "nonpayable",
      "type": "function"
    },
    {
      "inputs": [],
      "name": "template",
      "outputs": [
        {
          "internalType": "enum DataTypes.CommunityTemplate",
          "name": "",
          "type": "uint8"
        }
      ],
      "stateMutability": "view",
      "type": "function"
    },
    {
      "inputs": [],
      "name": "tokens",
      "outputs": [
        {
          "internalType": "address",
          "name": "",
          "type": "address"
        }
      ],
      "stateMutability": "view",
      "type": "function"
    },
    {
      "inputs": [
        {
          "internalType": "address",
          "name": "newOwner",
          "type": "address"
        }
      ],
      "name": "transferOwnership",
      "outputs": [],
      "stateMutability": "nonpayable",
      "type": "function"
    },
    {
      "inputs": [],
      "name": "trustedForwarder",
      "outputs": [
        {
          "internalType": "address",
          "name": "",
          "type": "address"
        }
      ],
      "stateMutability": "view",
      "type": "function"
    },
    {
      "inputs": [],
      "name": "versionRecipient",
      "outputs": [
        {
          "internalType": "string",
          "name": "",
          "type": "string"
        }
      ],
      "stateMutability": "view",
      "type": "function"
    }
  ],
  "bytecode": "0x60806040526040518060400160405280600581526020017f322e302e3000000000000000000000000000000000000000000000000000000081525060029080519060200190620000519291906200059d565b503480156200005f57600080fd5b50604051620035b6380380620035b68339818101604052810190620000859190620006ad565b6000620000976200045560201b60201c565b905080600160006101000a81548173ffffffffffffffffffffffffffffffffffffffff021916908373ffffffffffffffffffffffffffffffffffffffff1602179055508073ffffffffffffffffffffffffffffffffffffffff16600073ffffffffffffffffffffffffffffffffffffffff167f8be0079c531659141344cd1fd0a4f28419497f9722a3daafe3b4186f6b6457e060405160405180910390a3506000600660006101000a81548160ff02191690831515021790555082600660016101000a81548160ff021916908360028111156200017057fe5b021790555081600460006101000a81548173ffffffffffffffffffffffffffffffffffffffff021916908373ffffffffffffffffffffffffffffffffffffffff160217905550806000806101000a81548173ffffffffffffffffffffffffffffffffffffffff021916908373ffffffffffffffffffffffffffffffffffffffff160217905550620002066200045560201b60201c565b600c60006101000a81548173ffffffffffffffffffffffffffffffffffffffff021916908373ffffffffffffffffffffffffffffffffffffffff160217905550600460009054906101000a900473ffffffffffffffffffffffffffffffffffffffff1673ffffffffffffffffffffffffffffffffffffffff1663654b60606040518163ffffffff1660e01b815260040160206040518083038186803b158015620002af57600080fd5b505afa158015620002c4573d6000803e3d6000fd5b505050506040513d601f19601f82011682018060405250810190620002ea919062000681565b73ffffffffffffffffffffffffffffffffffffffff16637e3b6d686200032a670de0b6b3a7640000620177006200047160201b6200198e1790919060201c565b6040518263ffffffff1660e01b8152600401620003489190620007c6565b602060405180830381600087803b1580156200036357600080fd5b505af115801562000378573d6000803e3d6000fd5b505050506040513d601f19601f820116820180604052508101906200039e919062000681565b600360006101000a81548173ffffffffffffffffffffffffffffffffffffffff021916908373ffffffffffffffffffffffffffffffffffffffff16021790555060016009604051620003f09062000798565b908152602001604051809103902060006101000a81548160ff021916908315150217905550600160096040516200042790620007af565b908152602001604051809103902060006101000a81548160ff02191690831515021790555050505062000857565b60006200046c620004fc60201b62001a141760201c565b905090565b600080831415620004865760009050620004f6565b60008284029050828482816200049857fe5b0414620004f1576040517f08c379a0000000000000000000000000000000000000000000000000000000008152600401808060200182810382526021815260200180620035956021913960400191505060405180910390fd5b809150505b92915050565b6000601860003690501015801562000521575062000520336200054460201b60201c565b5b156200053757601436033560601c905062000540565b33905062000541565b5b90565b60008060009054906101000a900473ffffffffffffffffffffffffffffffffffffffff1673ffffffffffffffffffffffffffffffffffffffff168273ffffffffffffffffffffffffffffffffffffffff16149050919050565b828054600181600116156101000203166002900490600052602060002090601f016020900481019282620005d5576000855562000621565b82601f10620005f057805160ff191683800117855562000621565b8280016001018555821562000621579182015b828111156200062057825182559160200191906001019062000603565b5b50905062000630919062000634565b5090565b5b808211156200064f57600081600090555060010162000635565b5090565b60008151905062000664816200082c565b92915050565b6000815190506200067b8162000846565b92915050565b6000602082840312156200069457600080fd5b6000620006a48482850162000653565b91505092915050565b600080600060608486031215620006c357600080fd5b6000620006d3868287016200066a565b9350506020620006e68682870162000653565b9250506040620006f98682870162000653565b9150509250925092565b600062000712600383620007e3565b91507f44414900000000000000000000000000000000000000000000000000000000006000830152600382019050919050565b600062000754600483620007e3565b91507f55534443000000000000000000000000000000000000000000000000000000006000830152600482019050919050565b620007928162000822565b82525050565b6000620007a58262000703565b9150819050919050565b6000620007bc8262000745565b9150819050919050565b6000602082019050620007dd600083018462000787565b92915050565b600081905092915050565b6000620007fb8262000802565b9050919050565b600073ffffffffffffffffffffffffffffffffffffffff82169050919050565b6000819050919050565b6200083781620007ee565b81146200084357600080fd5b50565b600381106200085457600080fd5b50565b612d2e80620008676000396000f3fe608060405234801561001057600080fd5b506004361061018e5760003560e01c80639250640d116100de578063c72c4d1011610097578063cecfd17011610071578063cecfd1701461042d578063d0e0ba951461045d578063d66d9e1914610479578063f2fde38b146104835761018e565b8063c72c4d10146103af578063cd6d7726146103cd578063cd7852c0146103fd5761018e565b80639250640d146102ff5780639d63848a1461031d578063a30e3fa91461033b578063a46eddcf14610359578063af640d0f14610375578063bc910cf9146103935761018e565b8063681c62a11161014b578063715018a611610125578063715018a6146102af578063770ac141146102b95780637da0a877146102c35780638da5cb5b146102e15761018e565b8063681c62a1146102575780636873cd79146102735780636f2ddd93146102915761018e565b8063049878f314610193578063150c4aea146101af57806343086f0d146101cd578063486ff0cd146101eb578063572b6c051461020957806358c12dbe14610239575b600080fd5b6101ad60048036038101906101a89190612418565b61049f565b005b6101b76104b5565b6040516101c49190612847565b60405180910390f35b6101d56104c0565b6040516101e29190612788565b60405180910390f35b6101f36104e6565b60405161020091906128dd565b60405180910390f35b610223600480360381019061021e919061235c565b610584565b604051610230919061282c565b60405180910390f35b6102416105dd565b60405161024e9190612788565b60405180910390f35b610271600480360381019061026c91906123d7565b610603565b005b61027b6109c5565b6040516102889190612788565b60405180910390f35b6102996109eb565b6040516102a6919061287d565b60405180910390f35b6102b76109fe565b005b6102c1610b89565b005b6102cb610cd7565b6040516102d89190612788565b60405180910390f35b6102e9610cfb565b6040516102f69190612788565b60405180910390f35b610307610d25565b6040516103149190612a4f565b60405180910390f35b610325610d2c565b6040516103329190612788565b60405180910390f35b610343610d52565b6040516103509190612a4f565b60405180910390f35b610373600480360381019061036e919061235c565b610d58565b005b61037d610eb2565b60405161038a9190612a4f565b60405180910390f35b6103ad60048036038101906103a8919061246a565b610eb8565b005b6103b7611103565b6040516103c49190612862565b60405180910390f35b6103e760048036038101906103e2919061235c565b611129565b6040516103f49190612788565b60405180910390f35b610417600480360381019061041291906123d7565b6115d8565b604051610424919061282c565b60405180910390f35b6104476004803603810190610442919061235c565b61160e565b604051610454919061282c565b60405180910390f35b61047760048036038101906104729190612418565b61162e565b005b61048161176a565b005b61049d6004803603810190610498919061235c565b61177e565b005b6104b26104aa611a50565b826000611a5f565b50565b638f5d825f60e01b81565b600b60009054906101000a900473ffffffffffffffffffffffffffffffffffffffff1681565b60028054600181600116156101000203166002900480601f01602080910402602001604051908101604052809291908181526020018280546001816001161561010002031660029004801561057c5780601f106105515761010080835404028352916020019161057c565b820191906000526020600020905b81548152906001019060200180831161055f57829003601f168201915b505050505081565b60008060009054906101000a900473ffffffffffffffffffffffffffffffffffffffff1673ffffffffffffffffffffffffffffffffffffffff168273ffffffffffffffffffffffffffffffffffffffff16149050919050565b600a60009054906101000a900473ffffffffffffffffffffffffffffffffffffffff1681565b61060b611a50565b73ffffffffffffffffffffffffffffffffffffffff16600160009054906101000a900473ffffffffffffffffffffffffffffffffffffffff1673ffffffffffffffffffffffffffffffffffffffff16146106cd576040517f08c379a00000000000000000000000000000000000000000000000000000000081526004018080602001828103825260208152602001807f4f776e61626c653a2063616c6c6572206973206e6f7420746865206f776e657281525060200191505060405180910390fd5b600073ffffffffffffffffffffffffffffffffffffffff16600b60009054906101000a900473ffffffffffffffffffffffffffffffffffffffff1673ffffffffffffffffffffffffffffffffffffffff161461075e576040517f08c379a00000000000000000000000000000000000000000000000000000000081526004016107559061298f565b60405180910390fd5b600460009054906101000a900473ffffffffffffffffffffffffffffffffffffffff1673ffffffffffffffffffffffffffffffffffffffff16636589ffb46040518163ffffffff1660e01b815260040160206040518083038186803b1580156107c657600080fd5b505afa1580156107da573d6000803e3d6000fd5b505050506040513d601f19601f820116820180604052508101906107fe9190612385565b73ffffffffffffffffffffffffffffffffffffffff16638ce2108f82600460009054906101000a900473ffffffffffffffffffffffffffffffffffffffff1673ffffffffffffffffffffffffffffffffffffffff16637dc0d1d06040518163ffffffff1660e01b815260040160206040518083038186803b15801561088257600080fd5b505afa158015610896573d6000803e3d6000fd5b505050506040513d601f19601f820116820180604052508101906108ba9190612385565b6040518363ffffffff1660e01b81526004016108d79291906128ff565b602060405180830381600087803b1580156108f157600080fd5b505af1158015610905573d6000803e3d6000fd5b505050506040513d601f19601f820116820180604052508101906109299190612385565b600b60006101000a81548173ffffffffffffffffffffffffffffffffffffffff021916908373ffffffffffffffffffffffffffffffffffffffff1602179055507f5667c8bc14c2967d781cf0b551c676f0dc04474723d2d8175083e25bd638fecd600b60009054906101000a900473ffffffffffffffffffffffffffffffffffffffff166040516109ba9190612788565b60405180910390a150565b600c60009054906101000a900473ffffffffffffffffffffffffffffffffffffffff1681565b600660019054906101000a900460ff1681565b610a06611a50565b73ffffffffffffffffffffffffffffffffffffffff16600160009054906101000a900473ffffffffffffffffffffffffffffffffffffffff1673ffffffffffffffffffffffffffffffffffffffff1614610ac8576040517f08c379a00000000000000000000000000000000000000000000000000000000081526004018080602001828103825260208152602001807f4f776e61626c653a2063616c6c6572206973206e6f7420746865206f776e657281525060200191505060405180910390fd5b600073ffffffffffffffffffffffffffffffffffffffff16600160009054906101000a900473ffffffffffffffffffffffffffffffffffffffff1673ffffffffffffffffffffffffffffffffffffffff167f8be0079c531659141344cd1fd0a4f28419497f9722a3daafe3b4186f6b6457e060405160405180910390a36000600160006101000a81548173ffffffffffffffffffffffffffffffffffffffff021916908373ffffffffffffffffffffffffffffffffffffffff160217905550565b610b91611a50565b73ffffffffffffffffffffffffffffffffffffffff16600160009054906101000a900473ffffffffffffffffffffffffffffffffffffffff1673ffffffffffffffffffffffffffffffffffffffff1614610c53576040517f08c379a00000000000000000000000000000000000000000000000000000000081526004018080602001828103825260208152602001807f4f776e61626c653a2063616c6c6572206973206e6f7420746865206f776e657281525060200191505060405180910390fd5b600a60009054906101000a900473ffffffffffffffffffffffffffffffffffffffff1673ffffffffffffffffffffffffffffffffffffffff166363a5d2986040518163ffffffff1660e01b8152600401600060405180830381600087803b158015610cbd57600080fd5b505af1158015610cd1573d6000803e3d6000fd5b50505050565b60008054906101000a900473ffffffffffffffffffffffffffffffffffffffff1681565b6000600160009054906101000a900473ffffffffffffffffffffffffffffffffffffffff16905090565b6201770081565b600360009054906101000a900473ffffffffffffffffffffffffffffffffffffffff1681565b60085481565b610d60611a50565b73ffffffffffffffffffffffffffffffffffffffff16600160009054906101000a900473ffffffffffffffffffffffffffffffffffffffff1673ffffffffffffffffffffffffffffffffffffffff1614610e22576040517f08c379a00000000000000000000000000000000000000000000000000000000081526004018080602001828103825260208152602001807f4f776e61626c653a2063616c6c6572206973206e6f7420746865206f776e657281525060200191505060405180910390fd5b600a60009054906101000a900473ffffffffffffffffffffffffffffffffffffffff1673ffffffffffffffffffffffffffffffffffffffff1663a46eddcf826040518263ffffffff1660e01b8152600401610e7d9190612788565b600060405180830381600087803b158015610e9757600080fd5b505af1158015610eab573d6000803e3d6000fd5b5050505050565b60055481565b600b60009054906101000a900473ffffffffffffffffffffffffffffffffffffffff1673ffffffffffffffffffffffffffffffffffffffff16610ef9611a50565b73ffffffffffffffffffffffffffffffffffffffff1614610f4f576040517f08c379a0000000000000000000000000000000000000000000000000000000008152600401610f4690612a0f565b60405180910390fd5b600073ffffffffffffffffffffffffffffffffffffffff168173ffffffffffffffffffffffffffffffffffffffff16146110ff57600360009054906101000a900473ffffffffffffffffffffffffffffffffffffffff1673ffffffffffffffffffffffffffffffffffffffff1663095ea7b3600a60009054906101000a900473ffffffffffffffffffffffffffffffffffffffff16610fff670de0b6b3a76400008661198e90919063ffffffff16565b6040518363ffffffff1660e01b815260040161101c929190612803565b602060405180830381600087803b15801561103657600080fd5b505af115801561104a573d6000803e3d6000fd5b505050506040513d601f19601f8201168201806040525081019061106e91906123ae565b50600a60009054906101000a900473ffffffffffffffffffffffffffffffffffffffff1673ffffffffffffffffffffffffffffffffffffffff1663e377672e83836040518363ffffffff1660e01b81526004016110cc929190612a6a565b600060405180830381600087803b1580156110e657600080fd5b505af11580156110fa573d6000803e3d6000fd5b505050505b5050565b600460009054906101000a900473ffffffffffffffffffffffffffffffffffffffff1681565b6000600c60009054906101000a900473ffffffffffffffffffffffffffffffffffffffff1673ffffffffffffffffffffffffffffffffffffffff1661116c611a50565b73ffffffffffffffffffffffffffffffffffffffff16146111c2576040517f08c379a00000000000000000000000000000000000000000000000000000000081526004016111b9906129af565b60405180910390fd5b600073ffffffffffffffffffffffffffffffffffffffff16600a60009054906101000a900473ffffffffffffffffffffffffffffffffffffffff1673ffffffffffffffffffffffffffffffffffffffff1614611253576040517f08c379a000000000000000000000000000000000000000000000000000000000815260040161124a90612a2f565b60405180910390fd5b600460009054906101000a900473ffffffffffffffffffffffffffffffffffffffff1673ffffffffffffffffffffffffffffffffffffffff166383bc7a986040518163ffffffff1660e01b815260040160206040518083038186803b1580156112bb57600080fd5b505afa1580156112cf573d6000803e3d6000fd5b505050506040513d601f19601f820116820180604052508101906112f39190612385565b73ffffffffffffffffffffffffffffffffffffffff1663b453a99a600660019054906101000a900460ff16600360009054906101000a900473ffffffffffffffffffffffffffffffffffffffff1633600460009054906101000a900473ffffffffffffffffffffffffffffffffffffffff166040518563ffffffff1660e01b81526004016113849493929190612898565b602060405180830381600087803b15801561139e57600080fd5b505af11580156113b2573d6000803e3d6000fd5b505050506040513d601f19601f820116820180604052508101906113d69190612385565b600a60006101000a81548173ffffffffffffffffffffffffffffffffffffffff021916908373ffffffffffffffffffffffffffffffffffffffff160217905550611446600a60009054906101000a900473ffffffffffffffffffffffffffffffffffffffff166107d06001611a5f565b600a60009054906101000a900473ffffffffffffffffffffffffffffffffffffffff1673ffffffffffffffffffffffffffffffffffffffff166346f98fec6040518163ffffffff1660e01b8152600401600060405180830381600087803b1580156114b057600080fd5b505af11580156114c4573d6000803e3d6000fd5b50505050600a60009054906101000a900473ffffffffffffffffffffffffffffffffffffffff1673ffffffffffffffffffffffffffffffffffffffff1663a46eddcf836040518263ffffffff1660e01b81526004016115239190612788565b600060405180830381600087803b15801561153d57600080fd5b505af1158015611551573d6000803e3d6000fd5b505050507f3c864541ef71378c6229510ed90f376565ee42d9c5e0904a984a9e863e6db44f600a60009054906101000a900473ffffffffffffffffffffffffffffffffffffffff166040516115a69190612788565b60405180910390a1600a60009054906101000a900473ffffffffffffffffffffffffffffffffffffffff169050919050565b6009818051602081018201805184825260208301602085012081835280955050505050506000915054906101000a900460ff1681565b60076020528060005260406000206000915054906101000a900460ff1681565b600a60009054906101000a900473ffffffffffffffffffffffffffffffffffffffff1673ffffffffffffffffffffffffffffffffffffffff163373ffffffffffffffffffffffffffffffffffffffff16146116be576040517f08c379a00000000000000000000000000000000000000000000000000000000081526004016116b59061292f565b60405180910390fd5b600660009054906101000a900460ff161561170e576040517f08c379a000000000000000000000000000000000000000000000000000000000815260040161170590612a2f565b60405180910390fd5b806005819055506001600660006101000a81548160ff0219169083151502179055507fc72e55068a99063a2c847c0b87d2808f29d1935171e54ffa3a479533b4046b748160405161175f9190612a4f565b60405180910390a150565b61177c611775611a50565b6000611dd4565b565b611786611a50565b73ffffffffffffffffffffffffffffffffffffffff16600160009054906101000a900473ffffffffffffffffffffffffffffffffffffffff1673ffffffffffffffffffffffffffffffffffffffff1614611848576040517f08c379a00000000000000000000000000000000000000000000000000000000081526004018080602001828103825260208152602001807f4f776e61626c653a2063616c6c6572206973206e6f7420746865206f776e657281525060200191505060405180910390fd5b600073ffffffffffffffffffffffffffffffffffffffff168173ffffffffffffffffffffffffffffffffffffffff1614156118ce576040517f08c379a0000000000000000000000000000000000000000000000000000000008152600401808060200182810382526026815260200180612cb26026913960400191505060405180910390fd5b8073ffffffffffffffffffffffffffffffffffffffff16600160009054906101000a900473ffffffffffffffffffffffffffffffffffffffff1673ffffffffffffffffffffffffffffffffffffffff167f8be0079c531659141344cd1fd0a4f28419497f9722a3daafe3b4186f6b6457e060405160405180910390a380600160006101000a81548173ffffffffffffffffffffffffffffffffffffffff021916908373ffffffffffffffffffffffffffffffffffffffff16021790555050565b6000808314156119a15760009050611a0e565b60008284029050828482816119b257fe5b0414611a09576040517f08c379a0000000000000000000000000000000000000000000000000000000008152600401808060200182810382526021815260200180612cd86021913960400191505060405180910390fd5b809150505b92915050565b60006018600036905010158015611a305750611a2f33610584565b5b15611a4457601436033560601c9050611a4c565b339050611a4d565b5b90565b6000611a5a611a14565b905090565b600073ffffffffffffffffffffffffffffffffffffffff16600a60009054906101000a900473ffffffffffffffffffffffffffffffffffffffff1673ffffffffffffffffffffffffffffffffffffffff161415611af1576040517f08c379a0000000000000000000000000000000000000000000000000000000008152600401611ae89061294f565b60405180910390fd5b601960085410611b36576040517f08c379a0000000000000000000000000000000000000000000000000000000008152600401611b2d906129ef565b60405180910390fd5b60001515600760008573ffffffffffffffffffffffffffffffffffffffff1673ffffffffffffffffffffffffffffffffffffffff16815260200190815260200160002060009054906101000a900460ff16151514611bc9576040517f08c379a0000000000000000000000000000000000000000000000000000000008152600401611bc0906129cf565b60405180910390fd5b6001600760008573ffffffffffffffffffffffffffffffffffffffff1673ffffffffffffffffffffffffffffffffffffffff16815260200190815260200160002060006101000a81548160ff021916908315150217905550611c37600160085461207790919063ffffffff16565b600881905550600360009054906101000a900473ffffffffffffffffffffffffffffffffffffffff1673ffffffffffffffffffffffffffffffffffffffff1663bc93233f84836040518363ffffffff1660e01b8152600401611c9a9291906127da565b600060405180830381600087803b158015611cb457600080fd5b505af1158015611cc8573d6000803e3d6000fd5b50505050600360009054906101000a900473ffffffffffffffffffffffffffffffffffffffff1673ffffffffffffffffffffffffffffffffffffffff1663a9059cbb84611d26670de0b6b3a76400008661198e90919063ffffffff16565b6040518363ffffffff1660e01b8152600401611d43929190612803565b602060405180830381600087803b158015611d5d57600080fd5b505af1158015611d71573d6000803e3d6000fd5b505050506040513d601f19601f82011682018060405250810190611d9591906123ae565b507fede8eed4383e9241982619b94dd83e488b274cced0fd07b8c0092a393defd52f8383604051611dc7929190612803565b60405180910390a1505050565b611ddd826120ff565b6000600760008473ffffffffffffffffffffffffffffffffffffffff1673ffffffffffffffffffffffffffffffffffffffff16815260200190815260200160002060006101000a81548160ff021916908315150217905550611e4b600160085461219590919063ffffffff16565b600881905550600360009054906101000a900473ffffffffffffffffffffffffffffffffffffffff1673ffffffffffffffffffffffffffffffffffffffff166323b872dd8330600360009054906101000a900473ffffffffffffffffffffffffffffffffffffffff1673ffffffffffffffffffffffffffffffffffffffff166370a08231876040518263ffffffff1660e01b8152600401611eec9190612788565b60206040518083038186803b158015611f0457600080fd5b505afa158015611f18573d6000803e3d6000fd5b505050506040513d601f19601f82011682018060405250810190611f3c9190612441565b6040518463ffffffff1660e01b8152600401611f5a939291906127a3565b602060405180830381600087803b158015611f7457600080fd5b505af1158015611f88573d6000803e3d6000fd5b505050506040513d601f19601f82011682018060405250810190611fac91906123ae565b50600360009054906101000a900473ffffffffffffffffffffffffffffffffffffffff1673ffffffffffffffffffffffffffffffffffffffff16632797c7a483836040518363ffffffff1660e01b815260040161200a9291906127da565b600060405180830381600087803b15801561202457600080fd5b505af1158015612038573d6000803e3d6000fd5b505050507f6e76fb4c77256006d9c38ec7d82b45a8c8f3c27b1d6766fffc42dfb8de6844928260405161206b9190612788565b60405180910390a15050565b6000808284019050838110156120f5576040517f08c379a000000000000000000000000000000000000000000000000000000000815260040180806020018281038252601b8152602001807f536166654d6174683a206164646974696f6e206f766572666c6f77000000000081525060200191505060405180910390fd5b8091505092915050565b60011515600760008373ffffffffffffffffffffffffffffffffffffffff1673ffffffffffffffffffffffffffffffffffffffff16815260200190815260200160002060009054906101000a900460ff16151514612192576040517f08c379a00000000000000000000000000000000000000000000000000000000081526004016121899061296f565b60405180910390fd5b50565b60006121d783836040518060400160405280601e81526020017f536166654d6174683a207375627472616374696f6e206f766572666c6f7700008152506121df565b905092915050565b600083831115829061228c576040517f08c379a00000000000000000000000000000000000000000000000000000000081526004018080602001828103825283818151815260200191508051906020019080838360005b83811015612251578082015181840152602081019050612236565b50505050905090810190601f16801561227e5780820380516001836020036101000a031916815260200191505b509250505060405180910390fd5b5060008385039050809150509392505050565b6000813590506122ae81612c6c565b92915050565b6000815190506122c381612c6c565b92915050565b6000815190506122d881612c83565b92915050565b600082601f8301126122ef57600080fd5b81356123026122fd82612ac4565b612a93565b9150808252602083016020830185838301111561231e57600080fd5b612329838284612c03565b50505092915050565b60008135905061234181612c9a565b92915050565b60008151905061235681612c9a565b92915050565b60006020828403121561236e57600080fd5b600061237c8482850161229f565b91505092915050565b60006020828403121561239757600080fd5b60006123a5848285016122b4565b91505092915050565b6000602082840312156123c057600080fd5b60006123ce848285016122c9565b91505092915050565b6000602082840312156123e957600080fd5b600082013567ffffffffffffffff81111561240357600080fd5b61240f848285016122de565b91505092915050565b60006020828403121561242a57600080fd5b600061243884828501612332565b91505092915050565b60006020828403121561245357600080fd5b600061246184828501612347565b91505092915050565b6000806040838503121561247d57600080fd5b600061248b85828601612332565b925050602061249c8582860161229f565b9150509250929050565b6124af81612b97565b82525050565b6124be81612b10565b82525050565b6124cd81612b22565b82525050565b6124dc81612b2e565b82525050565b6124eb81612ba9565b82525050565b6124fa81612bcd565b82525050565b600061250b82612af4565b6125158185612aff565b9350612525818560208601612c12565b61252e81612c47565b840191505092915050565b6000612546600c83612aff565b91507f6e6f7420747265617375727900000000000000000000000000000000000000006000830152602082019050919050565b6000612586601083612aff565b91507f7472656173757279206e6f7420736574000000000000000000000000000000006000830152602082019050919050565b60006125c6600a83612aff565b91507f6e6f74206d656d626572000000000000000000000000000000000000000000006000830152602082019050919050565b6000612606600d83612aff565b91507f616c7265616479206164646564000000000000000000000000000000000000006000830152602082019050919050565b6000612646600c83612aff565b91507f6e6f7420726567697374727900000000000000000000000000000000000000006000830152602082019050919050565b6000612686600e83612aff565b91507f616c7265616479206d656d6265720000000000000000000000000000000000006000830152602082019050919050565b60006126c6600e83612aff565b91507f636f6d6d756e6974792066756c6c0000000000000000000000000000000000006000830152602082019050919050565b6000612706601083612aff565b91507f6e6f7420676967207265676973747279000000000000000000000000000000006000830152602082019050919050565b6000612746600b83612aff565b91507f616c7265616479207365740000000000000000000000000000000000000000006000830152602082019050919050565b61278281612b8d565b82525050565b600060208201905061279d60008301846124b5565b92915050565b60006060820190506127b860008301866124b5565b6127c560208301856124b5565b6127d26040830184612779565b949350505050565b60006040820190506127ef60008301856124b5565b6127fc60208301846124c4565b9392505050565b600060408201905061281860008301856124b5565b6128256020830184612779565b9392505050565b600060208201905061284160008301846124c4565b92915050565b600060208201905061285c60008301846124d3565b92915050565b600060208201905061287760008301846124e2565b92915050565b600060208201905061289260008301846124f1565b92915050565b60006080820190506128ad60008301876124f1565b6128ba60208301866124b5565b6128c760408301856124a6565b6128d460608301846124b5565b95945050505050565b600060208201905081810360008301526128f78184612500565b905092915050565b600060408201905081810360008301526129198185612500565b905061292860208301846124b5565b9392505050565b6000602082019050818103600083015261294881612539565b9050919050565b6000602082019050818103600083015261296881612579565b9050919050565b60006020820190508181036000830152612988816125b9565b9050919050565b600060208201905081810360008301526129a8816125f9565b9050919050565b600060208201905081810360008301526129c881612639565b9050919050565b600060208201905081810360008301526129e881612679565b9050919050565b60006020820190508181036000830152612a08816126b9565b9050919050565b60006020820190508181036000830152612a28816126f9565b9050919050565b60006020820190508181036000830152612a4881612739565b9050919050565b6000602082019050612a646000830184612779565b92915050565b6000604082019050612a7f6000830185612779565b612a8c60208301846124b5565b9392505050565b6000604051905081810181811067ffffffffffffffff82111715612aba57612ab9612c45565b5b8060405250919050565b600067ffffffffffffffff821115612adf57612ade612c45565b5b601f19601f8301169050602081019050919050565b600081519050919050565b600082825260208201905092915050565b6000612b1b82612b6d565b9050919050565b60008115159050919050565b60007fffffffff0000000000000000000000000000000000000000000000000000000082169050919050565b6000819050612b6882612c58565b919050565b600073ffffffffffffffffffffffffffffffffffffffff82169050919050565b6000819050919050565b6000612ba282612bdf565b9050919050565b6000612bb482612bbb565b9050919050565b6000612bc682612b6d565b9050919050565b6000612bd882612b5a565b9050919050565b6000612bea82612bf1565b9050919050565b6000612bfc82612b6d565b9050919050565b82818337600083830152505050565b60005b83811015612c30578082015181840152602081019050612c15565b83811115612c3f576000848401525b50505050565bfe5b6000601f19601f8301169050919050565b60038110612c6957612c68612c45565b5b50565b612c7581612b10565b8114612c8057600080fd5b50565b612c8c81612b22565b8114612c9757600080fd5b50565b612ca381612b8d565b8114612cae57600080fd5b5056fe4f776e61626c653a206e6577206f776e657220697320746865207a65726f2061646472657373536166654d6174683a206d756c7469706c69636174696f6e206f766572666c6f77a26469706673582212203ff63b46bdb8dace29b69dd40e1f8d448605b68752997b8ec2b511f4a55782e464736f6c63430007040033536166654d6174683a206d756c7469706c69636174696f6e206f766572666c6f77",
  "linkReferences": {},
  "deployedLinkReferences": {}
}